{
	"packages/chainlink_smart_contracts/bet.sol": {
		"WagerlyPlatform": {
			"abi": [
				{
					"inputs": [],
					"stateMutability": "nonpayable",
					"type": "constructor"
				},
				{
					"anonymous": false,
					"inputs": [
						{
							"indexed": true,
							"internalType": "uint256",
							"name": "betId",
							"type": "uint256"
						}
					],
					"name": "BetCancelled",
					"type": "event"
				},
				{
					"anonymous": false,
					"inputs": [
						{
							"indexed": false,
							"internalType": "address",
							"name": "creator",
							"type": "address"
						},
						{
							"indexed": true,
							"internalType": "uint256",
							"name": "betId",
							"type": "uint256"
						},
						{
							"indexed": false,
							"internalType": "string",
							"name": "title",
							"type": "string"
						},
						{
							"indexed": false,
							"internalType": "string[]",
							"name": "options",
							"type": "string[]"
						},
						{
							"indexed": false,
							"internalType": "uint256",
							"name": "minimumBetAmount",
							"type": "uint256"
						},
						{
							"indexed": false,
							"internalType": "address",
							"name": "tokenAddress",
							"type": "address"
						}
					],
					"name": "BetInstanceCreated",
					"type": "event"
				},
				{
					"anonymous": false,
					"inputs": [
						{
							"indexed": true,
							"internalType": "uint256",
							"name": "betId",
							"type": "uint256"
						},
						{
							"indexed": true,
							"internalType": "address",
							"name": "bettor",
							"type": "address"
						},
						{
							"indexed": false,
							"internalType": "uint256",
							"name": "amount",
							"type": "uint256"
						},
						{
							"indexed": false,
							"internalType": "uint8",
							"name": "option",
							"type": "uint8"
						}
					],
					"name": "BetPlaced",
					"type": "event"
				},
				{
					"anonymous": false,
					"inputs": [
						{
							"indexed": true,
							"internalType": "uint256",
							"name": "betId",
							"type": "uint256"
						}
					],
					"name": "BettingClosed",
					"type": "event"
				},
				{
					"anonymous": false,
					"inputs": [
						{
							"indexed": true,
							"internalType": "uint256",
							"name": "betId",
							"type": "uint256"
						},
						{
							"indexed": false,
							"internalType": "uint8",
							"name": "winningOption",
							"type": "uint8"
						}
					],
					"name": "BettingResolved",
					"type": "event"
				},
				{
					"inputs": [
						{
							"internalType": "uint256",
							"name": "_betId",
							"type": "uint256"
						}
					],
					"name": "cancelBet",
					"outputs": [],
					"stateMutability": "nonpayable",
					"type": "function"
				},
				{
					"inputs": [
						{
							"internalType": "uint256",
							"name": "_betId",
							"type": "uint256"
						}
					],
					"name": "closeBetting",
					"outputs": [],
					"stateMutability": "nonpayable",
					"type": "function"
				},
				{
					"inputs": [
						{
							"internalType": "string",
							"name": "_title",
							"type": "string"
						},
						{
							"internalType": "uint8",
							"name": "_numOptions",
							"type": "uint8"
						},
						{
							"internalType": "string[]",
							"name": "_optionNames",
							"type": "string[]"
						},
						{
							"internalType": "uint256",
							"name": "_minimumBetAmount",
							"type": "uint256"
						},
						{
							"internalType": "address",
							"name": "_tokenAddress",
							"type": "address"
						}
					],
					"name": "createBetInstance",
					"outputs": [],
					"stateMutability": "nonpayable",
					"type": "function"
				},
				{
					"inputs": [
						{
							"internalType": "uint256",
							"name": "_betId",
							"type": "uint256"
						},
						{
							"internalType": "uint8",
							"name": "_winningOption",
							"type": "uint8"
						}
					],
					"name": "distributeWinnings",
					"outputs": [],
					"stateMutability": "nonpayable",
					"type": "function"
				},
				{
					"inputs": [],
					"name": "getAllOpenBets",
					"outputs": [
						{
							"internalType": "uint256[]",
							"name": "openBetIds",
							"type": "uint256[]"
						},
						{
							"internalType": "string[]",
							"name": "titles",
							"type": "string[]"
						},
						{
							"internalType": "string[][]",
							"name": "options",
							"type": "string[][]"
						},
						{
							"internalType": "uint256[]",
							"name": "minimumBetAmounts",
							"type": "uint256[]"
						},
						{
							"internalType": "address[]",
							"name": "creators",
							"type": "address[]"
						}
					],
					"stateMutability": "view",
					"type": "function"
				},
				{
					"inputs": [
						{
							"internalType": "uint256",
							"name": "_betId",
							"type": "uint256"
						}
					],
					"name": "getBetInfo",
					"outputs": [
						{
							"internalType": "address",
							"name": "creator",
							"type": "address"
						},
						{
							"internalType": "string",
							"name": "title",
							"type": "string"
						},
						{
							"internalType": "string[]",
							"name": "options",
							"type": "string[]"
						},
						{
							"internalType": "bool",
							"name": "isOpen",
							"type": "bool"
						},
						{
							"internalType": "bool",
							"name": "isResolved",
							"type": "bool"
						},
						{
							"internalType": "uint256",
							"name": "totalAmountBet",
							"type": "uint256"
						},
						{
							"internalType": "uint256[]",
							"name": "totalAmounts",
							"type": "uint256[]"
						},
						{
							"internalType": "address",
							"name": "tokenAddress",
							"type": "address"
						},
						{
							"internalType": "uint8",
							"name": "winningOption",
							"type": "uint8"
						},
						{
							"internalType": "bool",
							"name": "isCanceled",
							"type": "bool"
						}
					],
					"stateMutability": "view",
					"type": "function"
				},
				{
					"inputs": [
						{
							"internalType": "address",
							"name": "_bettor",
							"type": "address"
						}
					],
					"name": "getOpenBetsByAddress",
					"outputs": [
						{
							"internalType": "uint256[]",
							"name": "openBetIds",
							"type": "uint256[]"
						},
						{
							"internalType": "string[]",
							"name": "titles",
							"type": "string[]"
						},
						{
							"internalType": "uint256[]",
							"name": "amounts",
							"type": "uint256[]"
						},
						{
							"internalType": "string[][]",
							"name": "options",
							"type": "string[][]"
						}
					],
					"stateMutability": "view",
					"type": "function"
				},
				{
					"inputs": [],
					"name": "owner",
					"outputs": [
						{
							"internalType": "address",
							"name": "",
							"type": "address"
						}
					],
					"stateMutability": "view",
					"type": "function"
				},
				{
					"inputs": [
						{
							"internalType": "uint256",
							"name": "_betId",
							"type": "uint256"
						},
						{
							"internalType": "uint256",
							"name": "_amount",
							"type": "uint256"
						},
						{
							"internalType": "uint8",
							"name": "_option",
							"type": "uint8"
						}
					],
					"name": "placeBet",
					"outputs": [],
					"stateMutability": "nonpayable",
					"type": "function"
				}
			],
			"devdoc": {
				"kind": "dev",
				"methods": {},
				"version": 1
			},
			"evm": {
				"assembly": "    /* \"packages/chainlink_smart_contracts/bet.sol\":337:14089  contract WagerlyPlatform {... */\n  mstore(0x40, 0x80)\n    /* \"packages/chainlink_smart_contracts/bet.sol\":648:649  1 */\n  0x01\n    /* \"packages/chainlink_smart_contracts/bet.sol\":620:649  uint256 private nextBetId = 1 */\n  dup1\n  sstore\n    /* \"packages/chainlink_smart_contracts/bet.sol\":2853:2902  constructor() {... */\n  callvalue\n  dup1\n  iszero\n  tag_1\n  jumpi\n  0x00\n  dup1\n  revert\ntag_1:\n  pop\n    /* \"packages/chainlink_smart_contracts/bet.sol\":2885:2895  msg.sender */\n  caller\n    /* \"packages/chainlink_smart_contracts/bet.sol\":2877:2882  owner */\n  0x00\n  dup1\n    /* \"packages/chainlink_smart_contracts/bet.sol\":2877:2895  owner = msg.sender */\n  0x0100\n  exp\n  dup2\n  sload\n  dup2\n  0xffffffffffffffffffffffffffffffffffffffff\n  mul\n  not\n  and\n  swap1\n  dup4\n  0xffffffffffffffffffffffffffffffffffffffff\n  and\n  mul\n  or\n  swap1\n  sstore\n  pop\n    /* \"packages/chainlink_smart_contracts/bet.sol\":337:14089  contract WagerlyPlatform {... */\n  dataSize(sub_0)\n  dup1\n  dataOffset(sub_0)\n  0x00\n  codecopy\n  0x00\n  return\nstop\n\nsub_0: assembly {\n        /* \"packages/chainlink_smart_contracts/bet.sol\":337:14089  contract WagerlyPlatform {... */\n      mstore(0x40, 0x80)\n      callvalue\n      dup1\n      iszero\n      tag_1\n      jumpi\n      0x00\n      dup1\n      revert\n    tag_1:\n      pop\n      jumpi(tag_2, lt(calldatasize, 0x04))\n      shr(0xe0, calldataload(0x00))\n      dup1\n      0x9e14427e\n      gt\n      tag_12\n      jumpi\n      dup1\n      0x9e14427e\n      eq\n      tag_7\n      jumpi\n      dup1\n      0xb4ad06a1\n      eq\n      tag_8\n      jumpi\n      dup1\n      0xd65edb4d\n      eq\n      tag_9\n      jumpi\n      dup1\n      0xf1368748\n      eq\n      tag_10\n      jumpi\n      dup1\n      0xf41408b5\n      eq\n      tag_11\n      jumpi\n      jump(tag_2)\n    tag_12:\n      dup1\n      0x250e5adc\n      eq\n      tag_3\n      jumpi\n      dup1\n      0x357401f5\n      eq\n      tag_4\n      jumpi\n      dup1\n      0x79141f80\n      eq\n      tag_5\n      jumpi\n      dup1\n      0x8da5cb5b\n      eq\n      tag_6\n      jumpi\n    tag_2:\n      0x00\n      dup1\n      revert\n        /* \"packages/chainlink_smart_contracts/bet.sol\":2984:4493  function createBetInstance(... */\n    tag_3:\n      tag_13\n      0x04\n      dup1\n      calldatasize\n      sub\n      dup2\n      add\n      swap1\n      tag_14\n      swap2\n      swap1\n      tag_15\n      jump\t// in\n    tag_14:\n      tag_16\n      jump\t// in\n    tag_13:\n      stop\n        /* \"packages/chainlink_smart_contracts/bet.sol\":8037:9564  function cancelBet(uint256 _betId) external onlyCreator(_betId) {... */\n    tag_4:\n      tag_17\n      0x04\n      dup1\n      calldatasize\n      sub\n      dup2\n      add\n      swap1\n      tag_18\n      swap2\n      swap1\n      tag_19\n      jump\t// in\n    tag_18:\n      tag_20\n      jump\t// in\n    tag_17:\n      stop\n        /* \"packages/chainlink_smart_contracts/bet.sol\":9635:10966  function getBetInfo(uint256 _betId) external view returns (... */\n    tag_5:\n      tag_21\n      0x04\n      dup1\n      calldatasize\n      sub\n      dup2\n      add\n      swap1\n      tag_22\n      swap2\n      swap1\n      tag_19\n      jump\t// in\n    tag_22:\n      tag_23\n      jump\t// in\n    tag_21:\n      mload(0x40)\n      tag_24\n      swap11\n      swap10\n      swap9\n      swap8\n      swap7\n      swap6\n      swap5\n      swap4\n      swap3\n      swap2\n      swap1\n      tag_25\n      jump\t// in\n    tag_24:\n      mload(0x40)\n      dup1\n      swap2\n      sub\n      swap1\n      return\n        /* \"packages/chainlink_smart_contracts/bet.sol\":401:421  address public owner */\n    tag_6:\n      tag_26\n      tag_27\n      jump\t// in\n    tag_26:\n      mload(0x40)\n      tag_28\n      swap2\n      swap1\n      tag_29\n      jump\t// in\n    tag_28:\n      mload(0x40)\n      dup1\n      swap2\n      sub\n      swap1\n      return\n        /* \"packages/chainlink_smart_contracts/bet.sol\":4554:5508  function placeBet(uint256 _betId, uint256 _amount, uint8 _option) external {... */\n    tag_7:\n      tag_30\n      0x04\n      dup1\n      calldatasize\n      sub\n      dup2\n      add\n      swap1\n      tag_31\n      swap2\n      swap1\n      tag_32\n      jump\t// in\n    tag_31:\n      tag_33\n      jump\t// in\n    tag_30:\n      stop\n        /* \"packages/chainlink_smart_contracts/bet.sol\":5600:5837  function closeBetting(uint256 _betId) external onlyCreator(_betId) {... */\n    tag_8:\n      tag_34\n      0x04\n      dup1\n      calldatasize\n      sub\n      dup2\n      add\n      swap1\n      tag_35\n      swap2\n      swap1\n      tag_19\n      jump\t// in\n    tag_35:\n      tag_36\n      jump\t// in\n    tag_34:\n      stop\n        /* \"packages/chainlink_smart_contracts/bet.sol\":12689:14087  function getAllOpenBets() external view returns (... */\n    tag_9:\n      tag_37\n      tag_38\n      jump\t// in\n    tag_37:\n      mload(0x40)\n      tag_39\n      swap6\n      swap5\n      swap4\n      swap3\n      swap2\n      swap1\n      tag_40\n      jump\t// in\n    tag_39:\n      mload(0x40)\n      dup1\n      swap2\n      sub\n      swap1\n      return\n        /* \"packages/chainlink_smart_contracts/bet.sol\":5908:7946  function distributeWinnings(uint256 _betId, uint8 _winningOption) external onlyCreator(_betId) {... */\n    tag_10:\n      tag_41\n      0x04\n      dup1\n      calldatasize\n      sub\n      dup2\n      add\n      swap1\n      tag_42\n      swap2\n      swap1\n      tag_43\n      jump\t// in\n    tag_42:\n      tag_44\n      jump\t// in\n    tag_41:\n      stop\n        /* \"packages/chainlink_smart_contracts/bet.sol\":11037:12627  function getOpenBetsByAddress(address _bettor) external view returns (... */\n    tag_11:\n      tag_45\n      0x04\n      dup1\n      calldatasize\n      sub\n      dup2\n      add\n      swap1\n      tag_46\n      swap2\n      swap1\n      tag_47\n      jump\t// in\n    tag_46:\n      tag_48\n      jump\t// in\n    tag_45:\n      mload(0x40)\n      tag_49\n      swap5\n      swap4\n      swap3\n      swap2\n      swap1\n      tag_50\n      jump\t// in\n    tag_49:\n      mload(0x40)\n      dup1\n      swap2\n      sub\n      swap1\n      return\n        /* \"packages/chainlink_smart_contracts/bet.sol\":2984:4493  function createBetInstance(... */\n    tag_16:\n        /* \"packages/chainlink_smart_contracts/bet.sol\":2695:2700  owner */\n      0x00\n      dup1\n      sload\n      swap1\n      0x0100\n      exp\n      swap1\n      div\n      0xffffffffffffffffffffffffffffffffffffffff\n      and\n        /* \"packages/chainlink_smart_contracts/bet.sol\":2681:2700  msg.sender == owner */\n      0xffffffffffffffffffffffffffffffffffffffff\n      and\n        /* \"packages/chainlink_smart_contracts/bet.sol\":2681:2691  msg.sender */\n      caller\n        /* \"packages/chainlink_smart_contracts/bet.sol\":2681:2700  msg.sender == owner */\n      0xffffffffffffffffffffffffffffffffffffffff\n      and\n      eq\n        /* \"packages/chainlink_smart_contracts/bet.sol\":2673:2747  require(msg.sender == owner, \"Not authorized, only owner can create bets\") */\n      tag_52\n      jumpi\n      mload(0x40)\n      0x08c379a000000000000000000000000000000000000000000000000000000000\n      dup2\n      mstore\n      0x04\n      add\n      tag_53\n      swap1\n      tag_54\n      jump\t// in\n    tag_53:\n      mload(0x40)\n      dup1\n      swap2\n      sub\n      swap1\n      revert\n    tag_52:\n        /* \"packages/chainlink_smart_contracts/bet.sol\":3281:3282  2 */\n      0x02\n        /* \"packages/chainlink_smart_contracts/bet.sol\":3266:3277  _numOptions */\n      dup6\n        /* \"packages/chainlink_smart_contracts/bet.sol\":3266:3282  _numOptions >= 2 */\n      0xff\n      and\n      lt\n      iszero\n        /* \"packages/chainlink_smart_contracts/bet.sol\":3266:3302  _numOptions >= 2 && _numOptions <= 5 */\n      dup1\n      iszero\n      tag_56\n      jumpi\n      pop\n        /* \"packages/chainlink_smart_contracts/bet.sol\":3301:3302  5 */\n      0x05\n        /* \"packages/chainlink_smart_contracts/bet.sol\":3286:3297  _numOptions */\n      dup6\n        /* \"packages/chainlink_smart_contracts/bet.sol\":3286:3302  _numOptions <= 5 */\n      0xff\n      and\n      gt\n      iszero\n        /* \"packages/chainlink_smart_contracts/bet.sol\":3266:3302  _numOptions >= 2 && _numOptions <= 5 */\n    tag_56:\n        /* \"packages/chainlink_smart_contracts/bet.sol\":3258:3332  require(_numOptions >= 2 && _numOptions <= 5, \"Invalid number of options\") */\n      tag_57\n      jumpi\n      mload(0x40)\n      0x08c379a000000000000000000000000000000000000000000000000000000000\n      dup2\n      mstore\n      0x04\n      add\n      tag_58\n      swap1\n      tag_59\n      jump\t// in\n    tag_58:\n      mload(0x40)\n      dup1\n      swap2\n      sub\n      swap1\n      revert\n    tag_57:\n        /* \"packages/chainlink_smart_contracts/bet.sol\":3373:3384  _numOptions */\n      dup5\n        /* \"packages/chainlink_smart_contracts/bet.sol\":3350:3384  _optionNames.length == _numOptions */\n      0xff\n      and\n        /* \"packages/chainlink_smart_contracts/bet.sol\":3350:3362  _optionNames */\n      dup5\n      dup5\n        /* \"packages/chainlink_smart_contracts/bet.sol\":3350:3369  _optionNames.length */\n      swap1\n      pop\n        /* \"packages/chainlink_smart_contracts/bet.sol\":3350:3384  _optionNames.length == _numOptions */\n      eq\n        /* \"packages/chainlink_smart_contracts/bet.sol\":3342:3417  require(_optionNames.length == _numOptions, \"Option names length mismatch\") */\n      tag_60\n      jumpi\n      mload(0x40)\n      0x08c379a000000000000000000000000000000000000000000000000000000000\n      dup2\n      mstore\n      0x04\n      add\n      tag_61\n      swap1\n      tag_62\n      jump\t// in\n    tag_61:\n      mload(0x40)\n      dup1\n      swap2\n      sub\n      swap1\n      revert\n    tag_60:\n        /* \"packages/chainlink_smart_contracts/bet.sol\":3428:3441  uint256 betId */\n      0x00\n        /* \"packages/chainlink_smart_contracts/bet.sol\":3444:3453  nextBetId */\n      sload(0x01)\n        /* \"packages/chainlink_smart_contracts/bet.sol\":3428:3453  uint256 betId = nextBetId */\n      swap1\n      pop\n        /* \"packages/chainlink_smart_contracts/bet.sol\":3464:3473  nextBetId */\n      0x01\n      0x00\n        /* \"packages/chainlink_smart_contracts/bet.sol\":3464:3475  nextBetId++ */\n      dup2\n      sload\n      dup1\n      swap3\n      swap2\n      swap1\n      tag_63\n      swap1\n      tag_64\n      jump\t// in\n    tag_63:\n      swap2\n      swap1\n      pop\n      sstore\n      pop\n        /* \"packages/chainlink_smart_contracts/bet.sol\":3642:3643  0 */\n      0x00\n        /* \"packages/chainlink_smart_contracts/bet.sol\":3603:3644  betInstances[betId].creator != address(0) */\n      0xffffffffffffffffffffffffffffffffffffffff\n      and\n        /* \"packages/chainlink_smart_contracts/bet.sol\":3603:3615  betInstances */\n      0x02\n        /* \"packages/chainlink_smart_contracts/bet.sol\":3603:3622  betInstances[betId] */\n      0x00\n        /* \"packages/chainlink_smart_contracts/bet.sol\":3616:3621  betId */\n      dup4\n        /* \"packages/chainlink_smart_contracts/bet.sol\":3603:3622  betInstances[betId] */\n      dup2\n      mstore\n      0x20\n      add\n      swap1\n      dup2\n      mstore\n      0x20\n      add\n      0x00\n      keccak256\n        /* \"packages/chainlink_smart_contracts/bet.sol\":3603:3630  betInstances[betId].creator */\n      0x08\n      add\n      0x00\n      swap1\n      sload\n      swap1\n      0x0100\n      exp\n      swap1\n      div\n      0xffffffffffffffffffffffffffffffffffffffff\n      and\n        /* \"packages/chainlink_smart_contracts/bet.sol\":3603:3644  betInstances[betId].creator != address(0) */\n      0xffffffffffffffffffffffffffffffffffffffff\n      and\n      eq\n        /* \"packages/chainlink_smart_contracts/bet.sol\":3599:3721  if (betInstances[betId].creator != address(0)) {... */\n      tag_65\n      jumpi\n        /* \"packages/chainlink_smart_contracts/bet.sol\":3660:3710  revert(\"Bet instance with this ID already exists\") */\n      mload(0x40)\n      0x08c379a000000000000000000000000000000000000000000000000000000000\n      dup2\n      mstore\n      0x04\n      add\n      tag_66\n      swap1\n      tag_67\n      jump\t// in\n    tag_66:\n      mload(0x40)\n      dup1\n      swap2\n      sub\n      swap1\n      revert\n        /* \"packages/chainlink_smart_contracts/bet.sol\":3599:3721  if (betInstances[betId].creator != address(0)) {... */\n    tag_65:\n        /* \"packages/chainlink_smart_contracts/bet.sol\":3770:3801  BetInstance storage newInstance */\n      0x00\n        /* \"packages/chainlink_smart_contracts/bet.sol\":3804:3816  betInstances */\n      0x02\n        /* \"packages/chainlink_smart_contracts/bet.sol\":3804:3823  betInstances[betId] */\n      0x00\n        /* \"packages/chainlink_smart_contracts/bet.sol\":3817:3822  betId */\n      dup4\n        /* \"packages/chainlink_smart_contracts/bet.sol\":3804:3823  betInstances[betId] */\n      dup2\n      mstore\n      0x20\n      add\n      swap1\n      dup2\n      mstore\n      0x20\n      add\n      0x00\n      keccak256\n        /* \"packages/chainlink_smart_contracts/bet.sol\":3770:3823  BetInstance storage newInstance = betInstances[betId] */\n      swap1\n      pop\n        /* \"packages/chainlink_smart_contracts/bet.sol\":3850:3855  betId */\n      dup2\n        /* \"packages/chainlink_smart_contracts/bet.sol\":3833:3844  newInstance */\n      dup2\n        /* \"packages/chainlink_smart_contracts/bet.sol\":3833:3847  newInstance.id */\n      0x00\n      add\n        /* \"packages/chainlink_smart_contracts/bet.sol\":3833:3855  newInstance.id = betId */\n      dup2\n      swap1\n      sstore\n      pop\n        /* \"packages/chainlink_smart_contracts/bet.sol\":3885:3891  _title */\n      dup9\n      dup9\n        /* \"packages/chainlink_smart_contracts/bet.sol\":3865:3876  newInstance */\n      dup3\n        /* \"packages/chainlink_smart_contracts/bet.sol\":3865:3882  newInstance.title */\n      0x01\n      add\n        /* \"packages/chainlink_smart_contracts/bet.sol\":3865:3891  newInstance.title = _title */\n      swap2\n      dup3\n      tag_68\n      swap3\n      swap2\n      swap1\n      tag_69\n      jump\t// in\n    tag_68:\n      pop\n        /* \"packages/chainlink_smart_contracts/bet.sol\":3940:3957  _minimumBetAmount */\n      dup4\n        /* \"packages/chainlink_smart_contracts/bet.sol\":3909:3920  newInstance */\n      dup2\n        /* \"packages/chainlink_smart_contracts/bet.sol\":3909:3937  newInstance.minimumBetAmount */\n      0x04\n      add\n        /* \"packages/chainlink_smart_contracts/bet.sol\":3909:3957  newInstance.minimumBetAmount = _minimumBetAmount */\n      dup2\n      swap1\n      sstore\n      pop\n        /* \"packages/chainlink_smart_contracts/bet.sol\":3989:3999  msg.sender */\n      caller\n        /* \"packages/chainlink_smart_contracts/bet.sol\":3967:3978  newInstance */\n      dup2\n        /* \"packages/chainlink_smart_contracts/bet.sol\":3967:3986  newInstance.creator */\n      0x08\n      add\n      0x00\n        /* \"packages/chainlink_smart_contracts/bet.sol\":3967:3999  newInstance.creator = msg.sender */\n      0x0100\n      exp\n      dup2\n      sload\n      dup2\n      0xffffffffffffffffffffffffffffffffffffffff\n      mul\n      not\n      and\n      swap1\n      dup4\n      0xffffffffffffffffffffffffffffffffffffffff\n      and\n      mul\n      or\n      swap1\n      sstore\n      pop\n        /* \"packages/chainlink_smart_contracts/bet.sol\":4078:4091  _tokenAddress */\n      dup3\n        /* \"packages/chainlink_smart_contracts/bet.sol\":4051:4062  newInstance */\n      dup2\n        /* \"packages/chainlink_smart_contracts/bet.sol\":4051:4075  newInstance.tokenAddress */\n      0x05\n      add\n      0x00\n        /* \"packages/chainlink_smart_contracts/bet.sol\":4051:4091  newInstance.tokenAddress = _tokenAddress */\n      0x0100\n      exp\n      dup2\n      sload\n      dup2\n      0xffffffffffffffffffffffffffffffffffffffff\n      mul\n      not\n      and\n      swap1\n      dup4\n      0xffffffffffffffffffffffffffffffffffffffff\n      and\n      mul\n      or\n      swap1\n      sstore\n      pop\n        /* \"packages/chainlink_smart_contracts/bet.sol\":4142:4153  _numOptions */\n      dup7\n        /* \"packages/chainlink_smart_contracts/bet.sol\":4128:4154  new uint256[](_numOptions) */\n      0xff\n      and\n      0xffffffffffffffff\n      dup2\n      gt\n      iszero\n      tag_70\n      jumpi\n      tag_71\n      tag_72\n      jump\t// in\n    tag_71:\n    tag_70:\n      mload(0x40)\n      swap1\n      dup1\n      dup3\n      mstore\n      dup1\n      0x20\n      mul\n      0x20\n      add\n      dup3\n      add\n      0x40\n      mstore\n      dup1\n      iszero\n      tag_73\n      jumpi\n      dup2\n      0x20\n      add\n      0x20\n      dup3\n      mul\n      dup1\n      calldatasize\n      dup4\n      calldatacopy\n      dup1\n      dup3\n      add\n      swap2\n      pop\n      pop\n      swap1\n      pop\n    tag_73:\n      pop\n        /* \"packages/chainlink_smart_contracts/bet.sol\":4101:4112  newInstance */\n      dup2\n        /* \"packages/chainlink_smart_contracts/bet.sol\":4101:4125  newInstance.totalAmounts */\n      0x03\n      add\n        /* \"packages/chainlink_smart_contracts/bet.sol\":4101:4154  newInstance.totalAmounts = new uint256[](_numOptions) */\n      swap1\n      dup1\n      mload\n      swap1\n      0x20\n      add\n      swap1\n      tag_74\n      swap3\n      swap2\n      swap1\n      tag_75\n      jump\t// in\n    tag_74:\n      pop\n        /* \"packages/chainlink_smart_contracts/bet.sol\":4223:4230  uint8 i */\n      0x00\n        /* \"packages/chainlink_smart_contracts/bet.sol\":4218:4324  for (uint8 i = 0; i < _numOptions; i++) {... */\n    tag_76:\n        /* \"packages/chainlink_smart_contracts/bet.sol\":4240:4251  _numOptions */\n      dup8\n        /* \"packages/chainlink_smart_contracts/bet.sol\":4236:4251  i < _numOptions */\n      0xff\n      and\n        /* \"packages/chainlink_smart_contracts/bet.sol\":4236:4237  i */\n      dup2\n        /* \"packages/chainlink_smart_contracts/bet.sol\":4236:4251  i < _numOptions */\n      0xff\n      and\n      lt\n        /* \"packages/chainlink_smart_contracts/bet.sol\":4218:4324  for (uint8 i = 0; i < _numOptions; i++) {... */\n      iszero\n      tag_77\n      jumpi\n        /* \"packages/chainlink_smart_contracts/bet.sol\":4272:4283  newInstance */\n      dup2\n        /* \"packages/chainlink_smart_contracts/bet.sol\":4272:4291  newInstance.options */\n      0x02\n      add\n        /* \"packages/chainlink_smart_contracts/bet.sol\":4297:4309  _optionNames */\n      dup8\n      dup8\n        /* \"packages/chainlink_smart_contracts/bet.sol\":4310:4311  i */\n      dup4\n        /* \"packages/chainlink_smart_contracts/bet.sol\":4297:4312  _optionNames[i] */\n      0xff\n      and\n      dup2\n      dup2\n      lt\n      tag_79\n      jumpi\n      tag_80\n      tag_81\n      jump\t// in\n    tag_80:\n    tag_79:\n      swap1\n      pop\n      0x20\n      mul\n      dup2\n      add\n      swap1\n      tag_82\n      swap2\n      swap1\n      tag_83\n      jump\t// in\n    tag_82:\n        /* \"packages/chainlink_smart_contracts/bet.sol\":4272:4313  newInstance.options.push(_optionNames[i]) */\n      swap1\n      swap2\n      dup1\n      0x01\n      dup2\n      sload\n      add\n      dup1\n      dup3\n      sstore\n      dup1\n      swap2\n      pop\n      pop\n      0x01\n      swap1\n      sub\n      swap1\n      0x00\n      mstore\n      keccak256(0x00, 0x20)\n      add\n      0x00\n      swap1\n      swap2\n      swap3\n      swap1\n      swap2\n      swap3\n      swap1\n      swap2\n      swap3\n      swap1\n      swap2\n      swap3\n      pop\n      swap2\n      dup3\n      tag_85\n      swap3\n      swap2\n      swap1\n      tag_69\n      jump\t// in\n    tag_85:\n      pop\n        /* \"packages/chainlink_smart_contracts/bet.sol\":4253:4256  i++ */\n      dup1\n      dup1\n      0x01\n      add\n      swap2\n      pop\n      pop\n        /* \"packages/chainlink_smart_contracts/bet.sol\":4218:4324  for (uint8 i = 0; i < _numOptions; i++) {... */\n      jump(tag_76)\n    tag_77:\n      pop\n        /* \"packages/chainlink_smart_contracts/bet.sol\":4424:4429  betId */\n      dup2\n        /* \"packages/chainlink_smart_contracts/bet.sol\":4393:4486  BetInstanceCreated(msg.sender, betId, _title, _optionNames, _minimumBetAmount, _tokenAddress) */\n      0x718bc754bfb694aa9753415d4cd8d5b5dc3946b046b68b3455507d5142a07a19\n        /* \"packages/chainlink_smart_contracts/bet.sol\":4412:4422  msg.sender */\n      caller\n        /* \"packages/chainlink_smart_contracts/bet.sol\":4431:4437  _title */\n      dup12\n      dup12\n        /* \"packages/chainlink_smart_contracts/bet.sol\":4439:4451  _optionNames */\n      dup11\n      dup11\n        /* \"packages/chainlink_smart_contracts/bet.sol\":4453:4470  _minimumBetAmount */\n      dup11\n        /* \"packages/chainlink_smart_contracts/bet.sol\":4472:4485  _tokenAddress */\n      dup11\n        /* \"packages/chainlink_smart_contracts/bet.sol\":4393:4486  BetInstanceCreated(msg.sender, betId, _title, _optionNames, _minimumBetAmount, _tokenAddress) */\n      mload(0x40)\n      tag_86\n      swap8\n      swap7\n      swap6\n      swap5\n      swap4\n      swap3\n      swap2\n      swap1\n      tag_87\n      jump\t// in\n    tag_86:\n      mload(0x40)\n      dup1\n      swap2\n      sub\n      swap1\n      log2\n        /* \"packages/chainlink_smart_contracts/bet.sol\":3204:4493  {  // Only the owner can create bet instances... */\n      pop\n      pop\n        /* \"packages/chainlink_smart_contracts/bet.sol\":2984:4493  function createBetInstance(... */\n      pop\n      pop\n      pop\n      pop\n      pop\n      pop\n      pop\n      jump\t// out\n        /* \"packages/chainlink_smart_contracts/bet.sol\":8037:9564  function cancelBet(uint256 _betId) external onlyCreator(_betId) {... */\n    tag_20:\n        /* \"packages/chainlink_smart_contracts/bet.sol\":8093:8099  _betId */\n      dup1\n        /* \"packages/chainlink_smart_contracts/bet.sol\":2475:2487  betInstances */\n      0x02\n        /* \"packages/chainlink_smart_contracts/bet.sol\":2475:2495  betInstances[_betId] */\n      0x00\n        /* \"packages/chainlink_smart_contracts/bet.sol\":2488:2494  _betId */\n      dup3\n        /* \"packages/chainlink_smart_contracts/bet.sol\":2475:2495  betInstances[_betId] */\n      dup2\n      mstore\n      0x20\n      add\n      swap1\n      dup2\n      mstore\n      0x20\n      add\n      0x00\n      keccak256\n        /* \"packages/chainlink_smart_contracts/bet.sol\":2475:2503  betInstances[_betId].creator */\n      0x08\n      add\n      0x00\n      swap1\n      sload\n      swap1\n      0x0100\n      exp\n      swap1\n      div\n      0xffffffffffffffffffffffffffffffffffffffff\n      and\n        /* \"packages/chainlink_smart_contracts/bet.sol\":2461:2503  msg.sender != betInstances[_betId].creator */\n      0xffffffffffffffffffffffffffffffffffffffff\n      and\n        /* \"packages/chainlink_smart_contracts/bet.sol\":2461:2471  msg.sender */\n      caller\n        /* \"packages/chainlink_smart_contracts/bet.sol\":2461:2503  msg.sender != betInstances[_betId].creator */\n      0xffffffffffffffffffffffffffffffffffffffff\n      and\n      eq\n        /* \"packages/chainlink_smart_contracts/bet.sol\":2457:2554  if (msg.sender != betInstances[_betId].creator) {... */\n      tag_89\n      jumpi\n        /* \"packages/chainlink_smart_contracts/bet.sol\":2519:2543  revert(\"Not authorized\") */\n      mload(0x40)\n      0x08c379a000000000000000000000000000000000000000000000000000000000\n      dup2\n      mstore\n      0x04\n      add\n      tag_90\n      swap1\n      tag_91\n      jump\t// in\n    tag_90:\n      mload(0x40)\n      dup1\n      swap2\n      sub\n      swap1\n      revert\n        /* \"packages/chainlink_smart_contracts/bet.sol\":2457:2554  if (msg.sender != betInstances[_betId].creator) {... */\n    tag_89:\n        /* \"packages/chainlink_smart_contracts/bet.sol\":8111:8142  BetInstance storage betInstance */\n      0x00\n        /* \"packages/chainlink_smart_contracts/bet.sol\":8145:8157  betInstances */\n      0x02\n        /* \"packages/chainlink_smart_contracts/bet.sol\":8145:8165  betInstances[_betId] */\n      0x00\n        /* \"packages/chainlink_smart_contracts/bet.sol\":8158:8164  _betId */\n      dup5\n        /* \"packages/chainlink_smart_contracts/bet.sol\":8145:8165  betInstances[_betId] */\n      dup2\n      mstore\n      0x20\n      add\n      swap1\n      dup2\n      mstore\n      0x20\n      add\n      0x00\n      keccak256\n        /* \"packages/chainlink_smart_contracts/bet.sol\":8111:8165  BetInstance storage betInstance = betInstances[_betId] */\n      swap1\n      pop\n        /* \"packages/chainlink_smart_contracts/bet.sol\":8184:8195  betInstance */\n      dup1\n        /* \"packages/chainlink_smart_contracts/bet.sol\":8184:8206  betInstance.isResolved */\n      0x08\n      add\n      0x15\n      swap1\n      sload\n      swap1\n      0x0100\n      exp\n      swap1\n      div\n      0xff\n      and\n        /* \"packages/chainlink_smart_contracts/bet.sol\":8183:8206  !betInstance.isResolved */\n      iszero\n        /* \"packages/chainlink_smart_contracts/bet.sol\":8175:8235  require(!betInstance.isResolved, \"Betting already resolved\") */\n      tag_93\n      jumpi\n      mload(0x40)\n      0x08c379a000000000000000000000000000000000000000000000000000000000\n      dup2\n      mstore\n      0x04\n      add\n      tag_94\n      swap1\n      tag_95\n      jump\t// in\n    tag_94:\n      mload(0x40)\n      dup1\n      swap2\n      sub\n      swap1\n      revert\n    tag_93:\n        /* \"packages/chainlink_smart_contracts/bet.sol\":8270:8274  true */\n      0x01\n        /* \"packages/chainlink_smart_contracts/bet.sol\":8245:8256  betInstance */\n      dup2\n        /* \"packages/chainlink_smart_contracts/bet.sol\":8245:8267  betInstance.isCanceled */\n      0x08\n      add\n      0x17\n        /* \"packages/chainlink_smart_contracts/bet.sol\":8245:8274  betInstance.isCanceled = true */\n      0x0100\n      exp\n      dup2\n      sload\n      dup2\n      0xff\n      mul\n      not\n      and\n      swap1\n      dup4\n      iszero\n      iszero\n      mul\n      or\n      swap1\n      sstore\n      pop\n        /* \"packages/chainlink_smart_contracts/bet.sol\":8345:8357  IERC20 token */\n      0x00\n        /* \"packages/chainlink_smart_contracts/bet.sol\":8367:8378  betInstance */\n      dup2\n        /* \"packages/chainlink_smart_contracts/bet.sol\":8367:8391  betInstance.tokenAddress */\n      0x05\n      add\n      0x00\n      swap1\n      sload\n      swap1\n      0x0100\n      exp\n      swap1\n      div\n      0xffffffffffffffffffffffffffffffffffffffff\n      and\n        /* \"packages/chainlink_smart_contracts/bet.sol\":8345:8392  IERC20 token = IERC20(betInstance.tokenAddress) */\n      swap1\n      pop\n        /* \"packages/chainlink_smart_contracts/bet.sol\":8459:8490  uint256 totalAmountToDistribute */\n      0x00\n        /* \"packages/chainlink_smart_contracts/bet.sol\":8509:8516  uint8 i */\n      dup1\n        /* \"packages/chainlink_smart_contracts/bet.sol\":8504:8643  for (uint8 i = 0; i < betInstance.totalAmounts.length; i++) {... */\n    tag_96:\n        /* \"packages/chainlink_smart_contracts/bet.sol\":8526:8537  betInstance */\n      dup4\n        /* \"packages/chainlink_smart_contracts/bet.sol\":8526:8550  betInstance.totalAmounts */\n      0x03\n      add\n        /* \"packages/chainlink_smart_contracts/bet.sol\":8526:8557  betInstance.totalAmounts.length */\n      dup1\n      sload\n      swap1\n      pop\n        /* \"packages/chainlink_smart_contracts/bet.sol\":8522:8523  i */\n      dup2\n        /* \"packages/chainlink_smart_contracts/bet.sol\":8522:8557  i < betInstance.totalAmounts.length */\n      0xff\n      and\n      lt\n        /* \"packages/chainlink_smart_contracts/bet.sol\":8504:8643  for (uint8 i = 0; i < betInstance.totalAmounts.length; i++) {... */\n      iszero\n      tag_97\n      jumpi\n        /* \"packages/chainlink_smart_contracts/bet.sol\":8605:8616  betInstance */\n      dup4\n        /* \"packages/chainlink_smart_contracts/bet.sol\":8605:8629  betInstance.totalAmounts */\n      0x03\n      add\n        /* \"packages/chainlink_smart_contracts/bet.sol\":8630:8631  i */\n      dup2\n        /* \"packages/chainlink_smart_contracts/bet.sol\":8605:8632  betInstance.totalAmounts[i] */\n      0xff\n      and\n      dup2\n      sload\n      dup2\n      lt\n      tag_99\n      jumpi\n      tag_100\n      tag_81\n      jump\t// in\n    tag_100:\n    tag_99:\n      swap1\n      0x00\n      mstore\n      keccak256(0x00, 0x20)\n      add\n      sload\n        /* \"packages/chainlink_smart_contracts/bet.sol\":8578:8632  totalAmountToDistribute += betInstance.totalAmounts[i] */\n      dup3\n      tag_102\n      swap2\n      swap1\n      tag_103\n      jump\t// in\n    tag_102:\n      swap2\n      pop\n        /* \"packages/chainlink_smart_contracts/bet.sol\":8559:8562  i++ */\n      dup1\n      dup1\n      tag_104\n      swap1\n      tag_105\n      jump\t// in\n    tag_104:\n      swap2\n      pop\n      pop\n        /* \"packages/chainlink_smart_contracts/bet.sol\":8504:8643  for (uint8 i = 0; i < betInstance.totalAmounts.length; i++) {... */\n      jump(tag_96)\n    tag_97:\n      pop\n        /* \"packages/chainlink_smart_contracts/bet.sol\":8653:8664  uint256 fee */\n      0x00\n        /* \"packages/chainlink_smart_contracts/bet.sol\":8693:8696  100 */\n      0x64\n        /* \"packages/chainlink_smart_contracts/bet.sol\":8667:8690  totalAmountToDistribute */\n      dup3\n        /* \"packages/chainlink_smart_contracts/bet.sol\":8667:8696  totalAmountToDistribute / 100 */\n      tag_106\n      swap2\n      swap1\n      tag_107\n      jump\t// in\n    tag_106:\n        /* \"packages/chainlink_smart_contracts/bet.sol\":8653:8696  uint256 fee = totalAmountToDistribute / 100 */\n      swap1\n      pop\n        /* \"packages/chainlink_smart_contracts/bet.sol\":8706:8724  uint256 creatorFee */\n      0x00\n        /* \"packages/chainlink_smart_contracts/bet.sol\":8727:8730  fee */\n      dup2\n        /* \"packages/chainlink_smart_contracts/bet.sol\":8706:8730  uint256 creatorFee = fee */\n      swap1\n      pop\n        /* \"packages/chainlink_smart_contracts/bet.sol\":8740:8763  uint256 remainingAmount */\n      0x00\n        /* \"packages/chainlink_smart_contracts/bet.sol\":8798:8808  creatorFee */\n      dup2\n        /* \"packages/chainlink_smart_contracts/bet.sol\":8792:8795  fee */\n      dup4\n        /* \"packages/chainlink_smart_contracts/bet.sol\":8766:8789  totalAmountToDistribute */\n      dup6\n        /* \"packages/chainlink_smart_contracts/bet.sol\":8766:8795  totalAmountToDistribute - fee */\n      tag_108\n      swap2\n      swap1\n      tag_109\n      jump\t// in\n    tag_108:\n        /* \"packages/chainlink_smart_contracts/bet.sol\":8766:8808  totalAmountToDistribute - fee - creatorFee */\n      tag_110\n      swap2\n      swap1\n      tag_109\n      jump\t// in\n    tag_110:\n        /* \"packages/chainlink_smart_contracts/bet.sol\":8740:8808  uint256 remainingAmount = totalAmountToDistribute - fee - creatorFee */\n      swap1\n      pop\n        /* \"packages/chainlink_smart_contracts/bet.sol\":8835:8840  token */\n      dup5\n        /* \"packages/chainlink_smart_contracts/bet.sol\":8835:8849  token.transfer */\n      0xffffffffffffffffffffffffffffffffffffffff\n      and\n      0xa9059cbb\n        /* \"packages/chainlink_smart_contracts/bet.sol\":529:571  0x9b63FA365019Dd7bdF8cBED2823480F808391970 */\n      0x9b63fa365019dd7bdf8cbed2823480f808391970\n        /* \"packages/chainlink_smart_contracts/bet.sol\":8863:8866  fee */\n      dup6\n        /* \"packages/chainlink_smart_contracts/bet.sol\":8835:8867  token.transfer(FEE_ADDRESS, fee) */\n      mload(0x40)\n      dup4\n      0xffffffff\n      and\n      0xe0\n      shl\n      dup2\n      mstore\n      0x04\n      add\n      tag_111\n      swap3\n      swap2\n      swap1\n      tag_112\n      jump\t// in\n    tag_111:\n      0x20\n      mload(0x40)\n      dup1\n      dup4\n      sub\n      dup2\n      0x00\n      dup8\n      gas\n      call\n      iszero\n      dup1\n      iszero\n      tag_114\n      jumpi\n      returndatasize\n      0x00\n      dup1\n      returndatacopy\n      revert(0x00, returndatasize)\n    tag_114:\n      pop\n      pop\n      pop\n      pop\n      mload(0x40)\n      returndatasize\n      not(0x1f)\n      0x1f\n      dup3\n      add\n      and\n      dup3\n      add\n      dup1\n      0x40\n      mstore\n      pop\n      dup2\n      add\n      swap1\n      tag_115\n      swap2\n      swap1\n      tag_116\n      jump\t// in\n    tag_115:\n        /* \"packages/chainlink_smart_contracts/bet.sol\":8827:8891  require(token.transfer(FEE_ADDRESS, fee), \"Fee transfer failed\") */\n      tag_117\n      jumpi\n      mload(0x40)\n      0x08c379a000000000000000000000000000000000000000000000000000000000\n      dup2\n      mstore\n      0x04\n      add\n      tag_118\n      swap1\n      tag_119\n      jump\t// in\n    tag_118:\n      mload(0x40)\n      dup1\n      swap2\n      sub\n      swap1\n      revert\n    tag_117:\n        /* \"packages/chainlink_smart_contracts/bet.sol\":8909:8914  token */\n      dup5\n        /* \"packages/chainlink_smart_contracts/bet.sol\":8909:8923  token.transfer */\n      0xffffffffffffffffffffffffffffffffffffffff\n      and\n      0xa9059cbb\n        /* \"packages/chainlink_smart_contracts/bet.sol\":8924:8935  betInstance */\n      dup8\n        /* \"packages/chainlink_smart_contracts/bet.sol\":8924:8943  betInstance.creator */\n      0x08\n      add\n      0x00\n      swap1\n      sload\n      swap1\n      0x0100\n      exp\n      swap1\n      div\n      0xffffffffffffffffffffffffffffffffffffffff\n      and\n        /* \"packages/chainlink_smart_contracts/bet.sol\":8945:8955  creatorFee */\n      dup5\n        /* \"packages/chainlink_smart_contracts/bet.sol\":8909:8956  token.transfer(betInstance.creator, creatorFee) */\n      mload(0x40)\n      dup4\n      0xffffffff\n      and\n      0xe0\n      shl\n      dup2\n      mstore\n      0x04\n      add\n      tag_120\n      swap3\n      swap2\n      swap1\n      tag_112\n      jump\t// in\n    tag_120:\n      0x20\n      mload(0x40)\n      dup1\n      dup4\n      sub\n      dup2\n      0x00\n      dup8\n      gas\n      call\n      iszero\n      dup1\n      iszero\n      tag_122\n      jumpi\n      returndatasize\n      0x00\n      dup1\n      returndatacopy\n      revert(0x00, returndatasize)\n    tag_122:\n      pop\n      pop\n      pop\n      pop\n      mload(0x40)\n      returndatasize\n      not(0x1f)\n      0x1f\n      dup3\n      add\n      and\n      dup3\n      add\n      dup1\n      0x40\n      mstore\n      pop\n      dup2\n      add\n      swap1\n      tag_123\n      swap2\n      swap1\n      tag_116\n      jump\t// in\n    tag_123:\n        /* \"packages/chainlink_smart_contracts/bet.sol\":8901:8988  require(token.transfer(betInstance.creator, creatorFee), \"Creator fee transfer failed\") */\n      tag_124\n      jumpi\n      mload(0x40)\n      0x08c379a000000000000000000000000000000000000000000000000000000000\n      dup2\n      mstore\n      0x04\n      add\n      tag_125\n      swap1\n      tag_126\n      jump\t// in\n    tag_125:\n      mload(0x40)\n      dup1\n      swap2\n      sub\n      swap1\n      revert\n    tag_124:\n        /* \"packages/chainlink_smart_contracts/bet.sol\":9034:9043  uint256 i */\n      0x00\n        /* \"packages/chainlink_smart_contracts/bet.sol\":9029:9522  for (uint256 i = 0; i < betInstance.bettors.length; i++) {... */\n    tag_127:\n        /* \"packages/chainlink_smart_contracts/bet.sol\":9053:9064  betInstance */\n      dup7\n        /* \"packages/chainlink_smart_contracts/bet.sol\":9053:9072  betInstance.bettors */\n      0x07\n      add\n        /* \"packages/chainlink_smart_contracts/bet.sol\":9053:9079  betInstance.bettors.length */\n      dup1\n      sload\n      swap1\n      pop\n        /* \"packages/chainlink_smart_contracts/bet.sol\":9049:9050  i */\n      dup2\n        /* \"packages/chainlink_smart_contracts/bet.sol\":9049:9079  i < betInstance.bettors.length */\n      lt\n        /* \"packages/chainlink_smart_contracts/bet.sol\":9029:9522  for (uint256 i = 0; i < betInstance.bettors.length; i++) {... */\n      iszero\n      tag_128\n      jumpi\n        /* \"packages/chainlink_smart_contracts/bet.sol\":9100:9114  address bettor */\n      0x00\n        /* \"packages/chainlink_smart_contracts/bet.sol\":9117:9128  betInstance */\n      dup8\n        /* \"packages/chainlink_smart_contracts/bet.sol\":9117:9136  betInstance.bettors */\n      0x07\n      add\n        /* \"packages/chainlink_smart_contracts/bet.sol\":9137:9138  i */\n      dup3\n        /* \"packages/chainlink_smart_contracts/bet.sol\":9117:9139  betInstance.bettors[i] */\n      dup2\n      sload\n      dup2\n      lt\n      tag_130\n      jumpi\n      tag_131\n      tag_81\n      jump\t// in\n    tag_131:\n    tag_130:\n      swap1\n      0x00\n      mstore\n      keccak256(0x00, 0x20)\n      add\n      0x00\n      swap1\n      sload\n      swap1\n      0x0100\n      exp\n      swap1\n      div\n      0xffffffffffffffffffffffffffffffffffffffff\n      and\n        /* \"packages/chainlink_smart_contracts/bet.sol\":9100:9139  address bettor = betInstance.bettors[i] */\n      swap1\n      pop\n        /* \"packages/chainlink_smart_contracts/bet.sol\":9153:9171  Bet[] storage bets */\n      0x00\n        /* \"packages/chainlink_smart_contracts/bet.sol\":9174:9185  betInstance */\n      dup9\n        /* \"packages/chainlink_smart_contracts/bet.sol\":9174:9190  betInstance.bets */\n      0x06\n      add\n        /* \"packages/chainlink_smart_contracts/bet.sol\":9174:9198  betInstance.bets[bettor] */\n      0x00\n        /* \"packages/chainlink_smart_contracts/bet.sol\":9191:9197  bettor */\n      dup4\n        /* \"packages/chainlink_smart_contracts/bet.sol\":9174:9198  betInstance.bets[bettor] */\n      0xffffffffffffffffffffffffffffffffffffffff\n      and\n      0xffffffffffffffffffffffffffffffffffffffff\n      and\n      dup2\n      mstore\n      0x20\n      add\n      swap1\n      dup2\n      mstore\n      0x20\n      add\n      0x00\n      keccak256\n        /* \"packages/chainlink_smart_contracts/bet.sol\":9153:9198  Bet[] storage bets = betInstance.bets[bettor] */\n      swap1\n      pop\n        /* \"packages/chainlink_smart_contracts/bet.sol\":9217:9224  uint8 j */\n      0x00\n        /* \"packages/chainlink_smart_contracts/bet.sol\":9212:9512  for (uint8 j = 0; j < bets.length; j++) {... */\n    tag_133:\n        /* \"packages/chainlink_smart_contracts/bet.sol\":9234:9238  bets */\n      dup2\n        /* \"packages/chainlink_smart_contracts/bet.sol\":9234:9245  bets.length */\n      dup1\n      sload\n      swap1\n      pop\n        /* \"packages/chainlink_smart_contracts/bet.sol\":9230:9231  j */\n      dup2\n        /* \"packages/chainlink_smart_contracts/bet.sol\":9230:9245  j < bets.length */\n      0xff\n      and\n      lt\n        /* \"packages/chainlink_smart_contracts/bet.sol\":9212:9512  for (uint8 j = 0; j < bets.length; j++) {... */\n      iszero\n      tag_134\n      jumpi\n        /* \"packages/chainlink_smart_contracts/bet.sol\":9270:9287  uint256 betAmount */\n      0x00\n        /* \"packages/chainlink_smart_contracts/bet.sol\":9290:9294  bets */\n      dup3\n        /* \"packages/chainlink_smart_contracts/bet.sol\":9295:9296  j */\n      dup3\n        /* \"packages/chainlink_smart_contracts/bet.sol\":9290:9297  bets[j] */\n      0xff\n      and\n      dup2\n      sload\n      dup2\n      lt\n      tag_136\n      jumpi\n      tag_137\n      tag_81\n      jump\t// in\n    tag_137:\n    tag_136:\n      swap1\n      0x00\n      mstore\n      keccak256(0x00, 0x20)\n      swap1\n      0x02\n      mul\n      add\n        /* \"packages/chainlink_smart_contracts/bet.sol\":9290:9304  bets[j].amount */\n      0x01\n      add\n      sload\n        /* \"packages/chainlink_smart_contracts/bet.sol\":9270:9304  uint256 betAmount = bets[j].amount */\n      swap1\n      pop\n        /* \"packages/chainlink_smart_contracts/bet.sol\":9322:9346  uint256 amountToTransfer */\n      0x00\n        /* \"packages/chainlink_smart_contracts/bet.sol\":9381:9404  totalAmountToDistribute */\n      dup10\n        /* \"packages/chainlink_smart_contracts/bet.sol\":9362:9377  remainingAmount */\n      dup8\n        /* \"packages/chainlink_smart_contracts/bet.sol\":9350:9359  betAmount */\n      dup4\n        /* \"packages/chainlink_smart_contracts/bet.sol\":9350:9377  betAmount * remainingAmount */\n      tag_139\n      swap2\n      swap1\n      tag_140\n      jump\t// in\n    tag_139:\n        /* \"packages/chainlink_smart_contracts/bet.sol\":9349:9404  (betAmount * remainingAmount) / totalAmountToDistribute */\n      tag_141\n      swap2\n      swap1\n      tag_107\n      jump\t// in\n    tag_141:\n        /* \"packages/chainlink_smart_contracts/bet.sol\":9322:9404  uint256 amountToTransfer = (betAmount * remainingAmount) / totalAmountToDistribute */\n      swap1\n      pop\n        /* \"packages/chainlink_smart_contracts/bet.sol\":9430:9435  token */\n      dup11\n        /* \"packages/chainlink_smart_contracts/bet.sol\":9430:9444  token.transfer */\n      0xffffffffffffffffffffffffffffffffffffffff\n      and\n      0xa9059cbb\n        /* \"packages/chainlink_smart_contracts/bet.sol\":9445:9451  bettor */\n      dup7\n        /* \"packages/chainlink_smart_contracts/bet.sol\":9453:9469  amountToTransfer */\n      dup4\n        /* \"packages/chainlink_smart_contracts/bet.sol\":9430:9470  token.transfer(bettor, amountToTransfer) */\n      mload(0x40)\n      dup4\n      0xffffffff\n      and\n      0xe0\n      shl\n      dup2\n      mstore\n      0x04\n      add\n      tag_142\n      swap3\n      swap2\n      swap1\n      tag_112\n      jump\t// in\n    tag_142:\n      0x20\n      mload(0x40)\n      dup1\n      dup4\n      sub\n      dup2\n      0x00\n      dup8\n      gas\n      call\n      iszero\n      dup1\n      iszero\n      tag_144\n      jumpi\n      returndatasize\n      0x00\n      dup1\n      returndatacopy\n      revert(0x00, returndatasize)\n    tag_144:\n      pop\n      pop\n      pop\n      pop\n      mload(0x40)\n      returndatasize\n      not(0x1f)\n      0x1f\n      dup3\n      add\n      and\n      dup3\n      add\n      dup1\n      0x40\n      mstore\n      pop\n      dup2\n      add\n      swap1\n      tag_145\n      swap2\n      swap1\n      tag_116\n      jump\t// in\n    tag_145:\n        /* \"packages/chainlink_smart_contracts/bet.sol\":9422:9497  require(token.transfer(bettor, amountToTransfer), \"Bettor transfer failed\") */\n      tag_146\n      jumpi\n      mload(0x40)\n      0x08c379a000000000000000000000000000000000000000000000000000000000\n      dup2\n      mstore\n      0x04\n      add\n      tag_147\n      swap1\n      tag_148\n      jump\t// in\n    tag_147:\n      mload(0x40)\n      dup1\n      swap2\n      sub\n      swap1\n      revert\n    tag_146:\n        /* \"packages/chainlink_smart_contracts/bet.sol\":9252:9512  {... */\n      pop\n      pop\n        /* \"packages/chainlink_smart_contracts/bet.sol\":9247:9250  j++ */\n      dup1\n      dup1\n      tag_149\n      swap1\n      tag_105\n      jump\t// in\n    tag_149:\n      swap2\n      pop\n      pop\n        /* \"packages/chainlink_smart_contracts/bet.sol\":9212:9512  for (uint8 j = 0; j < bets.length; j++) {... */\n      jump(tag_133)\n    tag_134:\n      pop\n        /* \"packages/chainlink_smart_contracts/bet.sol\":9086:9522  {... */\n      pop\n      pop\n        /* \"packages/chainlink_smart_contracts/bet.sol\":9081:9084  i++ */\n      dup1\n      dup1\n      0x01\n      add\n      swap2\n      pop\n      pop\n        /* \"packages/chainlink_smart_contracts/bet.sol\":9029:9522  for (uint256 i = 0; i < betInstance.bettors.length; i++) {... */\n      jump(tag_127)\n    tag_128:\n      pop\n        /* \"packages/chainlink_smart_contracts/bet.sol\":9550:9556  _betId */\n      dup8\n        /* \"packages/chainlink_smart_contracts/bet.sol\":9537:9557  BetCancelled(_betId) */\n      0xe3906e8d1e2167ef706b023e6e83af697db5cd38f233c71bf5021b26b316c3a2\n      mload(0x40)\n      mload(0x40)\n      dup1\n      swap2\n      sub\n      swap1\n      log2\n        /* \"packages/chainlink_smart_contracts/bet.sol\":8101:9564  {... */\n      pop\n      pop\n      pop\n      pop\n      pop\n      pop\n        /* \"packages/chainlink_smart_contracts/bet.sol\":8037:9564  function cancelBet(uint256 _betId) external onlyCreator(_betId) {... */\n      pop\n      pop\n      jump\t// out\n        /* \"packages/chainlink_smart_contracts/bet.sol\":9635:10966  function getBetInfo(uint256 _betId) external view returns (... */\n    tag_23:\n        /* \"packages/chainlink_smart_contracts/bet.sol\":9703:9718  address creator */\n      0x00\n        /* \"packages/chainlink_smart_contracts/bet.sol\":9728:9747  string memory title */\n      0x60\n        /* \"packages/chainlink_smart_contracts/bet.sol\":9766:9789  string[] memory options */\n      dup1\n        /* \"packages/chainlink_smart_contracts/bet.sol\":9799:9810  bool isOpen */\n      0x00\n        /* \"packages/chainlink_smart_contracts/bet.sol\":9820:9835  bool isResolved */\n      dup1\n        /* \"packages/chainlink_smart_contracts/bet.sol\":9845:9867  uint256 totalAmountBet */\n      0x00\n        /* \"packages/chainlink_smart_contracts/bet.sol\":9877:9906  uint256[] memory totalAmounts */\n      0x60\n        /* \"packages/chainlink_smart_contracts/bet.sol\":9916:9936  address tokenAddress */\n      0x00\n        /* \"packages/chainlink_smart_contracts/bet.sol\":9946:9965  uint8 winningOption */\n      dup1\n        /* \"packages/chainlink_smart_contracts/bet.sol\":9975:9990  bool isCanceled */\n      0x00\n        /* \"packages/chainlink_smart_contracts/bet.sol\":10007:10038  BetInstance storage betInstance */\n      dup1\n        /* \"packages/chainlink_smart_contracts/bet.sol\":10041:10053  betInstances */\n      0x02\n        /* \"packages/chainlink_smart_contracts/bet.sol\":10041:10061  betInstances[_betId] */\n      0x00\n        /* \"packages/chainlink_smart_contracts/bet.sol\":10054:10060  _betId */\n      dup14\n        /* \"packages/chainlink_smart_contracts/bet.sol\":10041:10061  betInstances[_betId] */\n      dup2\n      mstore\n      0x20\n      add\n      swap1\n      dup2\n      mstore\n      0x20\n      add\n      0x00\n      keccak256\n        /* \"packages/chainlink_smart_contracts/bet.sol\":10007:10061  BetInstance storage betInstance = betInstances[_betId] */\n      swap1\n      pop\n        /* \"packages/chainlink_smart_contracts/bet.sol\":10082:10093  betInstance */\n      dup1\n        /* \"packages/chainlink_smart_contracts/bet.sol\":10082:10101  betInstance.creator */\n      0x08\n      add\n      0x00\n      swap1\n      sload\n      swap1\n      0x0100\n      exp\n      swap1\n      div\n      0xffffffffffffffffffffffffffffffffffffffff\n      and\n        /* \"packages/chainlink_smart_contracts/bet.sol\":10072:10101  creator = betInstance.creator */\n      swap11\n      pop\n        /* \"packages/chainlink_smart_contracts/bet.sol\":10119:10130  betInstance */\n      dup1\n        /* \"packages/chainlink_smart_contracts/bet.sol\":10119:10136  betInstance.title */\n      0x01\n      add\n        /* \"packages/chainlink_smart_contracts/bet.sol\":10111:10136  title = betInstance.title */\n      dup1\n      sload\n      tag_151\n      swap1\n      tag_152\n      jump\t// in\n    tag_151:\n      dup1\n      0x1f\n      add\n      0x20\n      dup1\n      swap2\n      div\n      mul\n      0x20\n      add\n      mload(0x40)\n      swap1\n      dup2\n      add\n      0x40\n      mstore\n      dup1\n      swap3\n      swap2\n      swap1\n      dup2\n      dup2\n      mstore\n      0x20\n      add\n      dup3\n      dup1\n      sload\n      tag_153\n      swap1\n      tag_152\n      jump\t// in\n    tag_153:\n      dup1\n      iszero\n      tag_154\n      jumpi\n      dup1\n      0x1f\n      lt\n      tag_155\n      jumpi\n      0x0100\n      dup1\n      dup4\n      sload\n      div\n      mul\n      dup4\n      mstore\n      swap2\n      0x20\n      add\n      swap2\n      jump(tag_154)\n    tag_155:\n      dup3\n      add\n      swap2\n      swap1\n      0x00\n      mstore\n      keccak256(0x00, 0x20)\n      swap1\n    tag_156:\n      dup2\n      sload\n      dup2\n      mstore\n      swap1\n      0x01\n      add\n      swap1\n      0x20\n      add\n      dup1\n      dup4\n      gt\n      tag_156\n      jumpi\n      dup3\n      swap1\n      sub\n      0x1f\n      and\n      dup3\n      add\n      swap2\n    tag_154:\n      pop\n      pop\n      pop\n      pop\n      pop\n      swap10\n      pop\n        /* \"packages/chainlink_smart_contracts/bet.sol\":10166:10177  betInstance */\n      dup1\n        /* \"packages/chainlink_smart_contracts/bet.sol\":10166:10185  betInstance.options */\n      0x02\n      add\n        /* \"packages/chainlink_smart_contracts/bet.sol\":10156:10185  options = betInstance.options */\n      dup1\n      sload\n      dup1\n      0x20\n      mul\n      0x20\n      add\n      mload(0x40)\n      swap1\n      dup2\n      add\n      0x40\n      mstore\n      dup1\n      swap3\n      swap2\n      swap1\n      dup2\n      dup2\n      mstore\n      0x20\n      add\n      0x00\n      swap1\n    tag_157:\n      dup3\n      dup3\n      lt\n      iszero\n      tag_158\n      jumpi\n      dup4\n      dup3\n      swap1\n      0x00\n      mstore\n      keccak256(0x00, 0x20)\n      add\n      dup1\n      sload\n      tag_160\n      swap1\n      tag_152\n      jump\t// in\n    tag_160:\n      dup1\n      0x1f\n      add\n      0x20\n      dup1\n      swap2\n      div\n      mul\n      0x20\n      add\n      mload(0x40)\n      swap1\n      dup2\n      add\n      0x40\n      mstore\n      dup1\n      swap3\n      swap2\n      swap1\n      dup2\n      dup2\n      mstore\n      0x20\n      add\n      dup3\n      dup1\n      sload\n      tag_161\n      swap1\n      tag_152\n      jump\t// in\n    tag_161:\n      dup1\n      iszero\n      tag_162\n      jumpi\n      dup1\n      0x1f\n      lt\n      tag_163\n      jumpi\n      0x0100\n      dup1\n      dup4\n      sload\n      div\n      mul\n      dup4\n      mstore\n      swap2\n      0x20\n      add\n      swap2\n      jump(tag_162)\n    tag_163:\n      dup3\n      add\n      swap2\n      swap1\n      0x00\n      mstore\n      keccak256(0x00, 0x20)\n      swap1\n    tag_164:\n      dup2\n      sload\n      dup2\n      mstore\n      swap1\n      0x01\n      add\n      swap1\n      0x20\n      add\n      dup1\n      dup4\n      gt\n      tag_164\n      jumpi\n      dup3\n      swap1\n      sub\n      0x1f\n      and\n      dup3\n      add\n      swap2\n    tag_162:\n      pop\n      pop\n      pop\n      pop\n      pop\n      dup2\n      mstore\n      0x20\n      add\n      swap1\n      0x01\n      add\n      swap1\n      jump(tag_157)\n    tag_158:\n      pop\n      pop\n      pop\n      pop\n      swap9\n      pop\n        /* \"packages/chainlink_smart_contracts/bet.sol\":10204:10215  betInstance */\n      dup1\n        /* \"packages/chainlink_smart_contracts/bet.sol\":10204:10222  betInstance.isOpen */\n      0x08\n      add\n      0x14\n      swap1\n      sload\n      swap1\n      0x0100\n      exp\n      swap1\n      div\n      0xff\n      and\n        /* \"packages/chainlink_smart_contracts/bet.sol\":10195:10222  isOpen = betInstance.isOpen */\n      swap8\n      pop\n        /* \"packages/chainlink_smart_contracts/bet.sol\":10245:10256  betInstance */\n      dup1\n        /* \"packages/chainlink_smart_contracts/bet.sol\":10245:10267  betInstance.isResolved */\n      0x08\n      add\n      0x15\n      swap1\n      sload\n      swap1\n      0x0100\n      exp\n      swap1\n      div\n      0xff\n      and\n        /* \"packages/chainlink_smart_contracts/bet.sol\":10232:10267  isResolved = betInstance.isResolved */\n      swap7\n      pop\n        /* \"packages/chainlink_smart_contracts/bet.sol\":10307:10318  betInstance */\n      dup1\n        /* \"packages/chainlink_smart_contracts/bet.sol\":10307:10331  betInstance.totalAmounts */\n      0x03\n      add\n        /* \"packages/chainlink_smart_contracts/bet.sol\":10307:10338  betInstance.totalAmounts.length */\n      dup1\n      sload\n      swap1\n      pop\n        /* \"packages/chainlink_smart_contracts/bet.sol\":10293:10339  new uint256[](betInstance.totalAmounts.length) */\n      0xffffffffffffffff\n      dup2\n      gt\n      iszero\n      tag_165\n      jumpi\n      tag_166\n      tag_72\n      jump\t// in\n    tag_166:\n    tag_165:\n      mload(0x40)\n      swap1\n      dup1\n      dup3\n      mstore\n      dup1\n      0x20\n      mul\n      0x20\n      add\n      dup3\n      add\n      0x40\n      mstore\n      dup1\n      iszero\n      tag_167\n      jumpi\n      dup2\n      0x20\n      add\n      0x20\n      dup3\n      mul\n      dup1\n      calldatasize\n      dup4\n      calldatacopy\n      dup1\n      dup3\n      add\n      swap2\n      pop\n      pop\n      swap1\n      pop\n    tag_167:\n      pop\n        /* \"packages/chainlink_smart_contracts/bet.sol\":10278:10339  totalAmounts = new uint256[](betInstance.totalAmounts.length) */\n      swap5\n      pop\n        /* \"packages/chainlink_smart_contracts/bet.sol\":10366:10367  0 */\n      0x00\n        /* \"packages/chainlink_smart_contracts/bet.sol\":10349:10367  totalAmountBet = 0 */\n      swap6\n      pop\n        /* \"packages/chainlink_smart_contracts/bet.sol\":10382:10389  uint8 i */\n      0x00\n        /* \"packages/chainlink_smart_contracts/bet.sol\":10377:10566  for (uint8 i = 0; i < betInstance.totalAmounts.length; i++) {... */\n    tag_168:\n        /* \"packages/chainlink_smart_contracts/bet.sol\":10399:10410  betInstance */\n      dup2\n        /* \"packages/chainlink_smart_contracts/bet.sol\":10399:10423  betInstance.totalAmounts */\n      0x03\n      add\n        /* \"packages/chainlink_smart_contracts/bet.sol\":10399:10430  betInstance.totalAmounts.length */\n      dup1\n      sload\n      swap1\n      pop\n        /* \"packages/chainlink_smart_contracts/bet.sol\":10395:10396  i */\n      dup2\n        /* \"packages/chainlink_smart_contracts/bet.sol\":10395:10430  i < betInstance.totalAmounts.length */\n      0xff\n      and\n      lt\n        /* \"packages/chainlink_smart_contracts/bet.sol\":10377:10566  for (uint8 i = 0; i < betInstance.totalAmounts.length; i++) {... */\n      iszero\n      tag_169\n      jumpi\n        /* \"packages/chainlink_smart_contracts/bet.sol\":10469:10480  betInstance */\n      dup2\n        /* \"packages/chainlink_smart_contracts/bet.sol\":10469:10493  betInstance.totalAmounts */\n      0x03\n      add\n        /* \"packages/chainlink_smart_contracts/bet.sol\":10494:10495  i */\n      dup2\n        /* \"packages/chainlink_smart_contracts/bet.sol\":10469:10496  betInstance.totalAmounts[i] */\n      0xff\n      and\n      dup2\n      sload\n      dup2\n      lt\n      tag_171\n      jumpi\n      tag_172\n      tag_81\n      jump\t// in\n    tag_172:\n    tag_171:\n      swap1\n      0x00\n      mstore\n      keccak256(0x00, 0x20)\n      add\n      sload\n        /* \"packages/chainlink_smart_contracts/bet.sol\":10451:10463  totalAmounts */\n      dup7\n        /* \"packages/chainlink_smart_contracts/bet.sol\":10464:10465  i */\n      dup3\n        /* \"packages/chainlink_smart_contracts/bet.sol\":10451:10466  totalAmounts[i] */\n      0xff\n      and\n      dup2\n      mload\n      dup2\n      lt\n      tag_174\n      jumpi\n      tag_175\n      tag_81\n      jump\t// in\n    tag_175:\n    tag_174:\n      0x20\n      mul\n      0x20\n      add\n      add\n        /* \"packages/chainlink_smart_contracts/bet.sol\":10451:10496  totalAmounts[i] = betInstance.totalAmounts[i] */\n      dup2\n      dup2\n      mstore\n      pop\n      pop\n        /* \"packages/chainlink_smart_contracts/bet.sol\":10528:10539  betInstance */\n      dup2\n        /* \"packages/chainlink_smart_contracts/bet.sol\":10528:10552  betInstance.totalAmounts */\n      0x03\n      add\n        /* \"packages/chainlink_smart_contracts/bet.sol\":10553:10554  i */\n      dup2\n        /* \"packages/chainlink_smart_contracts/bet.sol\":10528:10555  betInstance.totalAmounts[i] */\n      0xff\n      and\n      dup2\n      sload\n      dup2\n      lt\n      tag_176\n      jumpi\n      tag_177\n      tag_81\n      jump\t// in\n    tag_177:\n    tag_176:\n      swap1\n      0x00\n      mstore\n      keccak256(0x00, 0x20)\n      add\n      sload\n        /* \"packages/chainlink_smart_contracts/bet.sol\":10510:10555  totalAmountBet += betInstance.totalAmounts[i] */\n      dup8\n      tag_179\n      swap2\n      swap1\n      tag_103\n      jump\t// in\n    tag_179:\n      swap7\n      pop\n        /* \"packages/chainlink_smart_contracts/bet.sol\":10432:10435  i++ */\n      dup1\n      dup1\n      tag_180\n      swap1\n      tag_105\n      jump\t// in\n    tag_180:\n      swap2\n      pop\n      pop\n        /* \"packages/chainlink_smart_contracts/bet.sol\":10377:10566  for (uint8 i = 0; i < betInstance.totalAmounts.length; i++) {... */\n      jump(tag_168)\n    tag_169:\n      pop\n        /* \"packages/chainlink_smart_contracts/bet.sol\":10591:10602  betInstance */\n      dup1\n        /* \"packages/chainlink_smart_contracts/bet.sol\":10591:10615  betInstance.tokenAddress */\n      0x05\n      add\n      0x00\n      swap1\n      sload\n      swap1\n      0x0100\n      exp\n      swap1\n      div\n      0xffffffffffffffffffffffffffffffffffffffff\n      and\n        /* \"packages/chainlink_smart_contracts/bet.sol\":10576:10615  tokenAddress = betInstance.tokenAddress */\n      swap4\n      pop\n        /* \"packages/chainlink_smart_contracts/bet.sol\":10641:10652  betInstance */\n      dup1\n        /* \"packages/chainlink_smart_contracts/bet.sol\":10641:10663  betInstance.isResolved */\n      0x08\n      add\n      0x15\n      swap1\n      sload\n      swap1\n      0x0100\n      exp\n      swap1\n      div\n      0xff\n      and\n        /* \"packages/chainlink_smart_contracts/bet.sol\":10641:10695  betInstance.isResolved ? betInstance.winningOption : 0 */\n      tag_181\n      jumpi\n        /* \"packages/chainlink_smart_contracts/bet.sol\":10694:10695  0 */\n      0x00\n        /* \"packages/chainlink_smart_contracts/bet.sol\":10641:10695  betInstance.isResolved ? betInstance.winningOption : 0 */\n      jump(tag_182)\n    tag_181:\n        /* \"packages/chainlink_smart_contracts/bet.sol\":10666:10677  betInstance */\n      dup1\n        /* \"packages/chainlink_smart_contracts/bet.sol\":10666:10691  betInstance.winningOption */\n      0x08\n      add\n      0x16\n      swap1\n      sload\n      swap1\n      0x0100\n      exp\n      swap1\n      div\n      0xff\n      and\n        /* \"packages/chainlink_smart_contracts/bet.sol\":10641:10695  betInstance.isResolved ? betInstance.winningOption : 0 */\n    tag_182:\n        /* \"packages/chainlink_smart_contracts/bet.sol\":10625:10695  winningOption = betInstance.isResolved ? betInstance.winningOption : 0 */\n      swap3\n      pop\n        /* \"packages/chainlink_smart_contracts/bet.sol\":10706:10959  return (... */\n      pop\n        /* \"packages/chainlink_smart_contracts/bet.sol\":9635:10966  function getBetInfo(uint256 _betId) external view returns (... */\n      swap2\n      swap4\n      swap6\n      swap8\n      swap10\n      pop\n      swap2\n      swap4\n      swap6\n      swap8\n      swap10\n      jump\t// out\n        /* \"packages/chainlink_smart_contracts/bet.sol\":401:421  address public owner */\n    tag_27:\n      0x00\n      dup1\n      sload\n      swap1\n      0x0100\n      exp\n      swap1\n      div\n      0xffffffffffffffffffffffffffffffffffffffff\n      and\n      dup2\n      jump\t// out\n        /* \"packages/chainlink_smart_contracts/bet.sol\":4554:5508  function placeBet(uint256 _betId, uint256 _amount, uint8 _option) external {... */\n    tag_33:\n        /* \"packages/chainlink_smart_contracts/bet.sol\":4639:4670  BetInstance storage betInstance */\n      0x00\n        /* \"packages/chainlink_smart_contracts/bet.sol\":4673:4685  betInstances */\n      0x02\n        /* \"packages/chainlink_smart_contracts/bet.sol\":4673:4693  betInstances[_betId] */\n      0x00\n        /* \"packages/chainlink_smart_contracts/bet.sol\":4686:4692  _betId */\n      dup6\n        /* \"packages/chainlink_smart_contracts/bet.sol\":4673:4693  betInstances[_betId] */\n      dup2\n      mstore\n      0x20\n      add\n      swap1\n      dup2\n      mstore\n      0x20\n      add\n      0x00\n      keccak256\n        /* \"packages/chainlink_smart_contracts/bet.sol\":4639:4693  BetInstance storage betInstance = betInstances[_betId] */\n      swap1\n      pop\n        /* \"packages/chainlink_smart_contracts/bet.sol\":4711:4722  betInstance */\n      dup1\n        /* \"packages/chainlink_smart_contracts/bet.sol\":4711:4729  betInstance.isOpen */\n      0x08\n      add\n      0x14\n      swap1\n      sload\n      swap1\n      0x0100\n      exp\n      swap1\n      div\n      0xff\n      and\n        /* \"packages/chainlink_smart_contracts/bet.sol\":4703:4751  require(betInstance.isOpen, \"Betting is closed\") */\n      tag_184\n      jumpi\n      mload(0x40)\n      0x08c379a000000000000000000000000000000000000000000000000000000000\n      dup2\n      mstore\n      0x04\n      add\n      tag_185\n      swap1\n      tag_186\n      jump\t// in\n    tag_185:\n      mload(0x40)\n      dup1\n      swap2\n      sub\n      swap1\n      revert\n    tag_184:\n        /* \"packages/chainlink_smart_contracts/bet.sol\":4780:4791  betInstance */\n      dup1\n        /* \"packages/chainlink_smart_contracts/bet.sol\":4780:4808  betInstance.minimumBetAmount */\n      0x04\n      add\n      sload\n        /* \"packages/chainlink_smart_contracts/bet.sol\":4769:4776  _amount */\n      dup4\n        /* \"packages/chainlink_smart_contracts/bet.sol\":4769:4808  _amount >= betInstance.minimumBetAmount */\n      lt\n      iszero\n        /* \"packages/chainlink_smart_contracts/bet.sol\":4761:4844  require(_amount >= betInstance.minimumBetAmount, \"Bet amount is less than minimum\") */\n      tag_187\n      jumpi\n      mload(0x40)\n      0x08c379a000000000000000000000000000000000000000000000000000000000\n      dup2\n      mstore\n      0x04\n      add\n      tag_188\n      swap1\n      tag_189\n      jump\t// in\n    tag_188:\n      mload(0x40)\n      dup1\n      swap2\n      sub\n      swap1\n      revert\n    tag_187:\n        /* \"packages/chainlink_smart_contracts/bet.sol\":4873:4874  1 */\n      0x01\n        /* \"packages/chainlink_smart_contracts/bet.sol\":4862:4869  _option */\n      dup3\n        /* \"packages/chainlink_smart_contracts/bet.sol\":4862:4874  _option >= 1 */\n      0xff\n      and\n      lt\n      iszero\n        /* \"packages/chainlink_smart_contracts/bet.sol\":4862:4915  _option >= 1 && _option <= betInstance.options.length */\n      dup1\n      iszero\n      tag_190\n      jumpi\n      pop\n        /* \"packages/chainlink_smart_contracts/bet.sol\":4889:4900  betInstance */\n      dup1\n        /* \"packages/chainlink_smart_contracts/bet.sol\":4889:4908  betInstance.options */\n      0x02\n      add\n        /* \"packages/chainlink_smart_contracts/bet.sol\":4889:4915  betInstance.options.length */\n      dup1\n      sload\n      swap1\n      pop\n        /* \"packages/chainlink_smart_contracts/bet.sol\":4878:4885  _option */\n      dup3\n        /* \"packages/chainlink_smart_contracts/bet.sol\":4878:4915  _option <= betInstance.options.length */\n      0xff\n      and\n      gt\n      iszero\n        /* \"packages/chainlink_smart_contracts/bet.sol\":4862:4915  _option >= 1 && _option <= betInstance.options.length */\n    tag_190:\n        /* \"packages/chainlink_smart_contracts/bet.sol\":4854:4934  require(_option >= 1 && _option <= betInstance.options.length, \"Invalid option\") */\n      tag_191\n      jumpi\n      mload(0x40)\n      0x08c379a000000000000000000000000000000000000000000000000000000000\n      dup2\n      mstore\n      0x04\n      add\n      tag_192\n      swap1\n      tag_193\n      jump\t// in\n    tag_192:\n      mload(0x40)\n      dup1\n      swap2\n      sub\n      swap1\n      revert\n    tag_191:\n        /* \"packages/chainlink_smart_contracts/bet.sol\":5022:5034  IERC20 token */\n      0x00\n        /* \"packages/chainlink_smart_contracts/bet.sol\":5044:5055  betInstance */\n      dup2\n        /* \"packages/chainlink_smart_contracts/bet.sol\":5044:5068  betInstance.tokenAddress */\n      0x05\n      add\n      0x00\n      swap1\n      sload\n      swap1\n      0x0100\n      exp\n      swap1\n      div\n      0xffffffffffffffffffffffffffffffffffffffff\n      and\n        /* \"packages/chainlink_smart_contracts/bet.sol\":5022:5069  IERC20 token = IERC20(betInstance.tokenAddress) */\n      swap1\n      pop\n        /* \"packages/chainlink_smart_contracts/bet.sol\":5087:5092  token */\n      dup1\n        /* \"packages/chainlink_smart_contracts/bet.sol\":5087:5105  token.transferFrom */\n      0xffffffffffffffffffffffffffffffffffffffff\n      and\n      0x23b872dd\n        /* \"packages/chainlink_smart_contracts/bet.sol\":5106:5116  msg.sender */\n      caller\n        /* \"packages/chainlink_smart_contracts/bet.sol\":5126:5130  this */\n      address\n        /* \"packages/chainlink_smart_contracts/bet.sol\":5133:5140  _amount */\n      dup8\n        /* \"packages/chainlink_smart_contracts/bet.sol\":5087:5141  token.transferFrom(msg.sender, address(this), _amount) */\n      mload(0x40)\n      dup5\n      0xffffffff\n      and\n      0xe0\n      shl\n      dup2\n      mstore\n      0x04\n      add\n      tag_194\n      swap4\n      swap3\n      swap2\n      swap1\n      tag_195\n      jump\t// in\n    tag_194:\n      0x20\n      mload(0x40)\n      dup1\n      dup4\n      sub\n      dup2\n      0x00\n      dup8\n      gas\n      call\n      iszero\n      dup1\n      iszero\n      tag_197\n      jumpi\n      returndatasize\n      0x00\n      dup1\n      returndatacopy\n      revert(0x00, returndatasize)\n    tag_197:\n      pop\n      pop\n      pop\n      pop\n      mload(0x40)\n      returndatasize\n      not(0x1f)\n      0x1f\n      dup3\n      add\n      and\n      dup3\n      add\n      dup1\n      0x40\n      mstore\n      pop\n      dup2\n      add\n      swap1\n      tag_198\n      swap2\n      swap1\n      tag_116\n      jump\t// in\n    tag_198:\n        /* \"packages/chainlink_smart_contracts/bet.sol\":5079:5161  require(token.transferFrom(msg.sender, address(this), _amount), \"Transfer failed\") */\n      tag_199\n      jumpi\n      mload(0x40)\n      0x08c379a000000000000000000000000000000000000000000000000000000000\n      dup2\n      mstore\n      0x04\n      add\n      tag_200\n      swap1\n      tag_201\n      jump\t// in\n    tag_200:\n      mload(0x40)\n      dup1\n      swap2\n      sub\n      swap1\n      revert\n    tag_199:\n        /* \"packages/chainlink_smart_contracts/bet.sol\":5272:5279  _amount */\n      dup4\n        /* \"packages/chainlink_smart_contracts/bet.sol\":5231:5242  betInstance */\n      dup3\n        /* \"packages/chainlink_smart_contracts/bet.sol\":5231:5255  betInstance.totalAmounts */\n      0x03\n      add\n        /* \"packages/chainlink_smart_contracts/bet.sol\":5266:5267  1 */\n      0x01\n        /* \"packages/chainlink_smart_contracts/bet.sol\":5256:5263  _option */\n      dup6\n        /* \"packages/chainlink_smart_contracts/bet.sol\":5256:5267  _option - 1 */\n      tag_202\n      swap2\n      swap1\n      tag_203\n      jump\t// in\n    tag_202:\n        /* \"packages/chainlink_smart_contracts/bet.sol\":5231:5268  betInstance.totalAmounts[_option - 1] */\n      0xff\n      and\n      dup2\n      sload\n      dup2\n      lt\n      tag_204\n      jumpi\n      tag_205\n      tag_81\n      jump\t// in\n    tag_205:\n    tag_204:\n      swap1\n      0x00\n      mstore\n      keccak256(0x00, 0x20)\n      add\n      0x00\n        /* \"packages/chainlink_smart_contracts/bet.sol\":5231:5279  betInstance.totalAmounts[_option - 1] += _amount */\n      dup3\n      dup3\n      sload\n      tag_207\n      swap2\n      swap1\n      tag_103\n      jump\t// in\n    tag_207:\n      swap3\n      pop\n      pop\n      dup2\n      swap1\n      sstore\n      pop\n        /* \"packages/chainlink_smart_contracts/bet.sol\":5289:5300  betInstance */\n      dup2\n        /* \"packages/chainlink_smart_contracts/bet.sol\":5289:5305  betInstance.bets */\n      0x06\n      add\n        /* \"packages/chainlink_smart_contracts/bet.sol\":5289:5317  betInstance.bets[msg.sender] */\n      0x00\n        /* \"packages/chainlink_smart_contracts/bet.sol\":5306:5316  msg.sender */\n      caller\n        /* \"packages/chainlink_smart_contracts/bet.sol\":5289:5317  betInstance.bets[msg.sender] */\n      0xffffffffffffffffffffffffffffffffffffffff\n      and\n      0xffffffffffffffffffffffffffffffffffffffff\n      and\n      dup2\n      mstore\n      0x20\n      add\n      swap1\n      dup2\n      mstore\n      0x20\n      add\n      0x00\n      keccak256\n        /* \"packages/chainlink_smart_contracts/bet.sol\":5323:5347  Bet(msg.sender, _amount) */\n      mload(0x40)\n      dup1\n      0x40\n      add\n      0x40\n      mstore\n      dup1\n        /* \"packages/chainlink_smart_contracts/bet.sol\":5327:5337  msg.sender */\n      caller\n        /* \"packages/chainlink_smart_contracts/bet.sol\":5323:5347  Bet(msg.sender, _amount) */\n      0xffffffffffffffffffffffffffffffffffffffff\n      and\n      dup2\n      mstore\n      0x20\n      add\n        /* \"packages/chainlink_smart_contracts/bet.sol\":5339:5346  _amount */\n      dup7\n        /* \"packages/chainlink_smart_contracts/bet.sol\":5323:5347  Bet(msg.sender, _amount) */\n      dup2\n      mstore\n      pop\n        /* \"packages/chainlink_smart_contracts/bet.sol\":5289:5348  betInstance.bets[msg.sender].push(Bet(msg.sender, _amount)) */\n      swap1\n      dup1\n      0x01\n      dup2\n      sload\n      add\n      dup1\n      dup3\n      sstore\n      dup1\n      swap2\n      pop\n      pop\n      0x01\n      swap1\n      sub\n      swap1\n      0x00\n      mstore\n      keccak256(0x00, 0x20)\n      swap1\n      0x02\n      mul\n      add\n      0x00\n      swap1\n      swap2\n      swap1\n      swap2\n      swap1\n      swap2\n      pop\n      0x00\n      dup3\n      add\n      mload\n      dup2\n      0x00\n      add\n      exp(0x0100, 0x00)\n      dup2\n      sload\n      dup2\n      0xffffffffffffffffffffffffffffffffffffffff\n      mul\n      not\n      and\n      swap1\n      dup4\n      0xffffffffffffffffffffffffffffffffffffffff\n      and\n      mul\n      or\n      swap1\n      sstore\n      pop\n      0x20\n      dup3\n      add\n      mload\n      dup2\n      0x01\n      add\n      sstore\n      pop\n      pop\n        /* \"packages/chainlink_smart_contracts/bet.sol\":5358:5369  betInstance */\n      dup2\n        /* \"packages/chainlink_smart_contracts/bet.sol\":5358:5377  betInstance.bettors */\n      0x07\n      add\n        /* \"packages/chainlink_smart_contracts/bet.sol\":5383:5393  msg.sender */\n      caller\n        /* \"packages/chainlink_smart_contracts/bet.sol\":5358:5394  betInstance.bettors.push(msg.sender) */\n      swap1\n      dup1\n      0x01\n      dup2\n      sload\n      add\n      dup1\n      dup3\n      sstore\n      dup1\n      swap2\n      pop\n      pop\n      0x01\n      swap1\n      sub\n      swap1\n      0x00\n      mstore\n      keccak256(0x00, 0x20)\n      add\n      0x00\n      swap1\n      swap2\n      swap1\n      swap2\n      swap1\n      swap2\n      0x0100\n      exp\n      dup2\n      sload\n      dup2\n      0xffffffffffffffffffffffffffffffffffffffff\n      mul\n      not\n      and\n      swap1\n      dup4\n      0xffffffffffffffffffffffffffffffffffffffff\n      and\n      mul\n      or\n      swap1\n      sstore\n      pop\n        /* \"packages/chainlink_smart_contracts/bet.sol\":5472:5482  msg.sender */\n      caller\n        /* \"packages/chainlink_smart_contracts/bet.sol\":5454:5501  BetPlaced(_betId, msg.sender, _amount, _option) */\n      0xffffffffffffffffffffffffffffffffffffffff\n      and\n        /* \"packages/chainlink_smart_contracts/bet.sol\":5464:5470  _betId */\n      dup6\n        /* \"packages/chainlink_smart_contracts/bet.sol\":5454:5501  BetPlaced(_betId, msg.sender, _amount, _option) */\n      0xe90186097616cbeb30ffc786b44501e1362f5e0a316a96c5ab82a0551f9d2f05\n        /* \"packages/chainlink_smart_contracts/bet.sol\":5484:5491  _amount */\n      dup7\n        /* \"packages/chainlink_smart_contracts/bet.sol\":5493:5500  _option */\n      dup7\n        /* \"packages/chainlink_smart_contracts/bet.sol\":5454:5501  BetPlaced(_betId, msg.sender, _amount, _option) */\n      mload(0x40)\n      tag_210\n      swap3\n      swap2\n      swap1\n      tag_211\n      jump\t// in\n    tag_210:\n      mload(0x40)\n      dup1\n      swap2\n      sub\n      swap1\n      log3\n        /* \"packages/chainlink_smart_contracts/bet.sol\":4629:5508  {... */\n      pop\n      pop\n        /* \"packages/chainlink_smart_contracts/bet.sol\":4554:5508  function placeBet(uint256 _betId, uint256 _amount, uint8 _option) external {... */\n      pop\n      pop\n      pop\n      jump\t// out\n        /* \"packages/chainlink_smart_contracts/bet.sol\":5600:5837  function closeBetting(uint256 _betId) external onlyCreator(_betId) {... */\n    tag_36:\n        /* \"packages/chainlink_smart_contracts/bet.sol\":5659:5665  _betId */\n      dup1\n        /* \"packages/chainlink_smart_contracts/bet.sol\":2475:2487  betInstances */\n      0x02\n        /* \"packages/chainlink_smart_contracts/bet.sol\":2475:2495  betInstances[_betId] */\n      0x00\n        /* \"packages/chainlink_smart_contracts/bet.sol\":2488:2494  _betId */\n      dup3\n        /* \"packages/chainlink_smart_contracts/bet.sol\":2475:2495  betInstances[_betId] */\n      dup2\n      mstore\n      0x20\n      add\n      swap1\n      dup2\n      mstore\n      0x20\n      add\n      0x00\n      keccak256\n        /* \"packages/chainlink_smart_contracts/bet.sol\":2475:2503  betInstances[_betId].creator */\n      0x08\n      add\n      0x00\n      swap1\n      sload\n      swap1\n      0x0100\n      exp\n      swap1\n      div\n      0xffffffffffffffffffffffffffffffffffffffff\n      and\n        /* \"packages/chainlink_smart_contracts/bet.sol\":2461:2503  msg.sender != betInstances[_betId].creator */\n      0xffffffffffffffffffffffffffffffffffffffff\n      and\n        /* \"packages/chainlink_smart_contracts/bet.sol\":2461:2471  msg.sender */\n      caller\n        /* \"packages/chainlink_smart_contracts/bet.sol\":2461:2503  msg.sender != betInstances[_betId].creator */\n      0xffffffffffffffffffffffffffffffffffffffff\n      and\n      eq\n        /* \"packages/chainlink_smart_contracts/bet.sol\":2457:2554  if (msg.sender != betInstances[_betId].creator) {... */\n      tag_213\n      jumpi\n        /* \"packages/chainlink_smart_contracts/bet.sol\":2519:2543  revert(\"Not authorized\") */\n      mload(0x40)\n      0x08c379a000000000000000000000000000000000000000000000000000000000\n      dup2\n      mstore\n      0x04\n      add\n      tag_214\n      swap1\n      tag_91\n      jump\t// in\n    tag_214:\n      mload(0x40)\n      dup1\n      swap2\n      sub\n      swap1\n      revert\n        /* \"packages/chainlink_smart_contracts/bet.sol\":2457:2554  if (msg.sender != betInstances[_betId].creator) {... */\n    tag_213:\n        /* \"packages/chainlink_smart_contracts/bet.sol\":5677:5708  BetInstance storage betInstance */\n      0x00\n        /* \"packages/chainlink_smart_contracts/bet.sol\":5711:5723  betInstances */\n      0x02\n        /* \"packages/chainlink_smart_contracts/bet.sol\":5711:5731  betInstances[_betId] */\n      0x00\n        /* \"packages/chainlink_smart_contracts/bet.sol\":5724:5730  _betId */\n      dup5\n        /* \"packages/chainlink_smart_contracts/bet.sol\":5711:5731  betInstances[_betId] */\n      dup2\n      mstore\n      0x20\n      add\n      swap1\n      dup2\n      mstore\n      0x20\n      add\n      0x00\n      keccak256\n        /* \"packages/chainlink_smart_contracts/bet.sol\":5677:5731  BetInstance storage betInstance = betInstances[_betId] */\n      swap1\n      pop\n        /* \"packages/chainlink_smart_contracts/bet.sol\":5762:5767  false */\n      0x00\n        /* \"packages/chainlink_smart_contracts/bet.sol\":5741:5752  betInstance */\n      dup2\n        /* \"packages/chainlink_smart_contracts/bet.sol\":5741:5759  betInstance.isOpen */\n      0x08\n      add\n      0x14\n        /* \"packages/chainlink_smart_contracts/bet.sol\":5741:5767  betInstance.isOpen = false */\n      0x0100\n      exp\n      dup2\n      sload\n      dup2\n      0xff\n      mul\n      not\n      and\n      swap1\n      dup4\n      iszero\n      iszero\n      mul\n      or\n      swap1\n      sstore\n      pop\n        /* \"packages/chainlink_smart_contracts/bet.sol\":5823:5829  _betId */\n      dup3\n        /* \"packages/chainlink_smart_contracts/bet.sol\":5809:5830  BettingClosed(_betId) */\n      0xeb7ecc3aa4dd407c7207677a2cbf861441d5c5e6c0dc70ad9692a980385c20d6\n      mload(0x40)\n      mload(0x40)\n      dup1\n      swap2\n      sub\n      swap1\n      log2\n        /* \"packages/chainlink_smart_contracts/bet.sol\":5667:5837  {... */\n      pop\n        /* \"packages/chainlink_smart_contracts/bet.sol\":5600:5837  function closeBetting(uint256 _betId) external onlyCreator(_betId) {... */\n      pop\n      pop\n      jump\t// out\n        /* \"packages/chainlink_smart_contracts/bet.sol\":12689:14087  function getAllOpenBets() external view returns (... */\n    tag_38:\n        /* \"packages/chainlink_smart_contracts/bet.sol\":12747:12774  uint256[] memory openBetIds */\n      0x60\n        /* \"packages/chainlink_smart_contracts/bet.sol\":12785:12807  string[] memory titles */\n      dup1\n        /* \"packages/chainlink_smart_contracts/bet.sol\":12818:12843  string[][] memory options */\n      0x60\n        /* \"packages/chainlink_smart_contracts/bet.sol\":12854:12888  uint256[] memory minimumBetAmounts */\n      dup1\n        /* \"packages/chainlink_smart_contracts/bet.sol\":12899:12924  address[] memory creators */\n      0x60\n        /* \"packages/chainlink_smart_contracts/bet.sol\":12941:12961  uint256 openBetCount */\n      0x00\n        /* \"packages/chainlink_smart_contracts/bet.sol\":13012:13021  uint256 i */\n      dup1\n        /* \"packages/chainlink_smart_contracts/bet.sol\":13024:13025  1 */\n      0x01\n        /* \"packages/chainlink_smart_contracts/bet.sol\":13012:13025  uint256 i = 1 */\n      swap1\n      pop\n        /* \"packages/chainlink_smart_contracts/bet.sol\":13007:13205  for (uint256 i = 1; i < nextBetId; i++) {... */\n    tag_217:\n        /* \"packages/chainlink_smart_contracts/bet.sol\":13031:13040  nextBetId */\n      sload(0x01)\n        /* \"packages/chainlink_smart_contracts/bet.sol\":13027:13028  i */\n      dup2\n        /* \"packages/chainlink_smart_contracts/bet.sol\":13027:13040  i < nextBetId */\n      lt\n        /* \"packages/chainlink_smart_contracts/bet.sol\":13007:13205  for (uint256 i = 1; i < nextBetId; i++) {... */\n      iszero\n      tag_218\n      jumpi\n        /* \"packages/chainlink_smart_contracts/bet.sol\":13061:13092  BetInstance storage betInstance */\n      0x00\n        /* \"packages/chainlink_smart_contracts/bet.sol\":13095:13107  betInstances */\n      0x02\n        /* \"packages/chainlink_smart_contracts/bet.sol\":13095:13110  betInstances[i] */\n      0x00\n        /* \"packages/chainlink_smart_contracts/bet.sol\":13108:13109  i */\n      dup4\n        /* \"packages/chainlink_smart_contracts/bet.sol\":13095:13110  betInstances[i] */\n      dup2\n      mstore\n      0x20\n      add\n      swap1\n      dup2\n      mstore\n      0x20\n      add\n      0x00\n      keccak256\n        /* \"packages/chainlink_smart_contracts/bet.sol\":13061:13110  BetInstance storage betInstance = betInstances[i] */\n      swap1\n      pop\n        /* \"packages/chainlink_smart_contracts/bet.sol\":13128:13139  betInstance */\n      dup1\n        /* \"packages/chainlink_smart_contracts/bet.sol\":13128:13146  betInstance.isOpen */\n      0x08\n      add\n      0x14\n      swap1\n      sload\n      swap1\n      0x0100\n      exp\n      swap1\n      div\n      0xff\n      and\n        /* \"packages/chainlink_smart_contracts/bet.sol\":13124:13195  if (betInstance.isOpen) {... */\n      iszero\n      tag_220\n      jumpi\n        /* \"packages/chainlink_smart_contracts/bet.sol\":13166:13180  openBetCount++ */\n      dup3\n      dup1\n      tag_221\n      swap1\n      tag_64\n      jump\t// in\n    tag_221:\n      swap4\n      pop\n      pop\n        /* \"packages/chainlink_smart_contracts/bet.sol\":13124:13195  if (betInstance.isOpen) {... */\n    tag_220:\n        /* \"packages/chainlink_smart_contracts/bet.sol\":13047:13205  {... */\n      pop\n        /* \"packages/chainlink_smart_contracts/bet.sol\":13042:13045  i++ */\n      dup1\n      dup1\n      0x01\n      add\n      swap2\n      pop\n      pop\n        /* \"packages/chainlink_smart_contracts/bet.sol\":13007:13205  for (uint256 i = 1; i < nextBetId; i++) {... */\n      jump(tag_217)\n    tag_218:\n      pop\n        /* \"packages/chainlink_smart_contracts/bet.sol\":13292:13304  openBetCount */\n      dup1\n        /* \"packages/chainlink_smart_contracts/bet.sol\":13278:13305  new uint256[](openBetCount) */\n      0xffffffffffffffff\n      dup2\n      gt\n      iszero\n      tag_222\n      jumpi\n      tag_223\n      tag_72\n      jump\t// in\n    tag_223:\n    tag_222:\n      mload(0x40)\n      swap1\n      dup1\n      dup3\n      mstore\n      dup1\n      0x20\n      mul\n      0x20\n      add\n      dup3\n      add\n      0x40\n      mstore\n      dup1\n      iszero\n      tag_224\n      jumpi\n      dup2\n      0x20\n      add\n      0x20\n      dup3\n      mul\n      dup1\n      calldatasize\n      dup4\n      calldatacopy\n      dup1\n      dup3\n      add\n      swap2\n      pop\n      pop\n      swap1\n      pop\n    tag_224:\n      pop\n        /* \"packages/chainlink_smart_contracts/bet.sol\":13265:13305  openBetIds = new uint256[](openBetCount) */\n      swap6\n      pop\n        /* \"packages/chainlink_smart_contracts/bet.sol\":13337:13349  openBetCount */\n      dup1\n        /* \"packages/chainlink_smart_contracts/bet.sol\":13324:13350  new string[](openBetCount) */\n      0xffffffffffffffff\n      dup2\n      gt\n      iszero\n      tag_225\n      jumpi\n      tag_226\n      tag_72\n      jump\t// in\n    tag_226:\n    tag_225:\n      mload(0x40)\n      swap1\n      dup1\n      dup3\n      mstore\n      dup1\n      0x20\n      mul\n      0x20\n      add\n      dup3\n      add\n      0x40\n      mstore\n      dup1\n      iszero\n      tag_227\n      jumpi\n      dup2\n      0x20\n      add\n    tag_228:\n      0x60\n      dup2\n      mstore\n      0x20\n      add\n      swap1\n      0x01\n      swap1\n      sub\n      swap1\n      dup2\n      tag_228\n      jumpi\n      swap1\n      pop\n    tag_227:\n      pop\n        /* \"packages/chainlink_smart_contracts/bet.sol\":13315:13350  titles = new string[](openBetCount) */\n      swap5\n      pop\n        /* \"packages/chainlink_smart_contracts/bet.sol\":13385:13397  openBetCount */\n      dup1\n        /* \"packages/chainlink_smart_contracts/bet.sol\":13370:13398  new string[][](openBetCount) */\n      0xffffffffffffffff\n      dup2\n      gt\n      iszero\n      tag_229\n      jumpi\n      tag_230\n      tag_72\n      jump\t// in\n    tag_230:\n    tag_229:\n      mload(0x40)\n      swap1\n      dup1\n      dup3\n      mstore\n      dup1\n      0x20\n      mul\n      0x20\n      add\n      dup3\n      add\n      0x40\n      mstore\n      dup1\n      iszero\n      tag_231\n      jumpi\n      dup2\n      0x20\n      add\n    tag_232:\n      0x60\n      dup2\n      mstore\n      0x20\n      add\n      swap1\n      0x01\n      swap1\n      sub\n      swap1\n      dup2\n      tag_232\n      jumpi\n      swap1\n      pop\n    tag_231:\n      pop\n        /* \"packages/chainlink_smart_contracts/bet.sol\":13360:13398  options = new string[][](openBetCount) */\n      swap4\n      pop\n        /* \"packages/chainlink_smart_contracts/bet.sol\":13442:13454  openBetCount */\n      dup1\n        /* \"packages/chainlink_smart_contracts/bet.sol\":13428:13455  new uint256[](openBetCount) */\n      0xffffffffffffffff\n      dup2\n      gt\n      iszero\n      tag_233\n      jumpi\n      tag_234\n      tag_72\n      jump\t// in\n    tag_234:\n    tag_233:\n      mload(0x40)\n      swap1\n      dup1\n      dup3\n      mstore\n      dup1\n      0x20\n      mul\n      0x20\n      add\n      dup3\n      add\n      0x40\n      mstore\n      dup1\n      iszero\n      tag_235\n      jumpi\n      dup2\n      0x20\n      add\n      0x20\n      dup3\n      mul\n      dup1\n      calldatasize\n      dup4\n      calldatacopy\n      dup1\n      dup3\n      add\n      swap2\n      pop\n      pop\n      swap1\n      pop\n    tag_235:\n      pop\n        /* \"packages/chainlink_smart_contracts/bet.sol\":13408:13455  minimumBetAmounts = new uint256[](openBetCount) */\n      swap3\n      pop\n        /* \"packages/chainlink_smart_contracts/bet.sol\":13490:13502  openBetCount */\n      dup1\n        /* \"packages/chainlink_smart_contracts/bet.sol\":13476:13503  new address[](openBetCount) */\n      0xffffffffffffffff\n      dup2\n      gt\n      iszero\n      tag_236\n      jumpi\n      tag_237\n      tag_72\n      jump\t// in\n    tag_237:\n    tag_236:\n      mload(0x40)\n      swap1\n      dup1\n      dup3\n      mstore\n      dup1\n      0x20\n      mul\n      0x20\n      add\n      dup3\n      add\n      0x40\n      mstore\n      dup1\n      iszero\n      tag_238\n      jumpi\n      dup2\n      0x20\n      add\n      0x20\n      dup3\n      mul\n      dup1\n      calldatasize\n      dup4\n      calldatacopy\n      dup1\n      dup3\n      add\n      swap2\n      pop\n      pop\n      swap1\n      pop\n    tag_238:\n      pop\n        /* \"packages/chainlink_smart_contracts/bet.sol\":13465:13503  creators = new address[](openBetCount) */\n      swap2\n      pop\n        /* \"packages/chainlink_smart_contracts/bet.sol\":13514:13527  uint256 index */\n      0x00\n        /* \"packages/chainlink_smart_contracts/bet.sol\":13608:13617  uint256 i */\n      dup1\n        /* \"packages/chainlink_smart_contracts/bet.sol\":13620:13621  1 */\n      0x01\n        /* \"packages/chainlink_smart_contracts/bet.sol\":13608:13621  uint256 i = 1 */\n      swap1\n      pop\n        /* \"packages/chainlink_smart_contracts/bet.sol\":13603:14081  for (uint256 i = 1; i < nextBetId; i++) {... */\n    tag_239:\n        /* \"packages/chainlink_smart_contracts/bet.sol\":13627:13636  nextBetId */\n      sload(0x01)\n        /* \"packages/chainlink_smart_contracts/bet.sol\":13623:13624  i */\n      dup2\n        /* \"packages/chainlink_smart_contracts/bet.sol\":13623:13636  i < nextBetId */\n      lt\n        /* \"packages/chainlink_smart_contracts/bet.sol\":13603:14081  for (uint256 i = 1; i < nextBetId; i++) {... */\n      iszero\n      tag_240\n      jumpi\n        /* \"packages/chainlink_smart_contracts/bet.sol\":13657:13688  BetInstance storage betInstance */\n      0x00\n        /* \"packages/chainlink_smart_contracts/bet.sol\":13691:13703  betInstances */\n      0x02\n        /* \"packages/chainlink_smart_contracts/bet.sol\":13691:13706  betInstances[i] */\n      0x00\n        /* \"packages/chainlink_smart_contracts/bet.sol\":13704:13705  i */\n      dup4\n        /* \"packages/chainlink_smart_contracts/bet.sol\":13691:13706  betInstances[i] */\n      dup2\n      mstore\n      0x20\n      add\n      swap1\n      dup2\n      mstore\n      0x20\n      add\n      0x00\n      keccak256\n        /* \"packages/chainlink_smart_contracts/bet.sol\":13657:13706  BetInstance storage betInstance = betInstances[i] */\n      swap1\n      pop\n        /* \"packages/chainlink_smart_contracts/bet.sol\":13725:13736  betInstance */\n      dup1\n        /* \"packages/chainlink_smart_contracts/bet.sol\":13725:13743  betInstance.isOpen */\n      0x08\n      add\n      0x14\n      swap1\n      sload\n      swap1\n      0x0100\n      exp\n      swap1\n      div\n      0xff\n      and\n        /* \"packages/chainlink_smart_contracts/bet.sol\":13721:14071  if (betInstance.isOpen) {... */\n      iszero\n      tag_242\n      jumpi\n        /* \"packages/chainlink_smart_contracts/bet.sol\":13783:13794  betInstance */\n      dup1\n        /* \"packages/chainlink_smart_contracts/bet.sol\":13783:13797  betInstance.id */\n      0x00\n      add\n      sload\n        /* \"packages/chainlink_smart_contracts/bet.sol\":13763:13773  openBetIds */\n      dup10\n        /* \"packages/chainlink_smart_contracts/bet.sol\":13774:13779  index */\n      dup5\n        /* \"packages/chainlink_smart_contracts/bet.sol\":13763:13780  openBetIds[index] */\n      dup2\n      mload\n      dup2\n      lt\n      tag_243\n      jumpi\n      tag_244\n      tag_81\n      jump\t// in\n    tag_244:\n    tag_243:\n      0x20\n      mul\n      0x20\n      add\n      add\n        /* \"packages/chainlink_smart_contracts/bet.sol\":13763:13797  openBetIds[index] = betInstance.id */\n      dup2\n      dup2\n      mstore\n      pop\n      pop\n        /* \"packages/chainlink_smart_contracts/bet.sol\":13831:13842  betInstance */\n      dup1\n        /* \"packages/chainlink_smart_contracts/bet.sol\":13831:13848  betInstance.title */\n      0x01\n      add\n        /* \"packages/chainlink_smart_contracts/bet.sol\":13815:13848  titles[index] = betInstance.title */\n      dup1\n      sload\n      tag_245\n      swap1\n      tag_152\n      jump\t// in\n    tag_245:\n      dup1\n      0x1f\n      add\n      0x20\n      dup1\n      swap2\n      div\n      mul\n      0x20\n      add\n      mload(0x40)\n      swap1\n      dup2\n      add\n      0x40\n      mstore\n      dup1\n      swap3\n      swap2\n      swap1\n      dup2\n      dup2\n      mstore\n      0x20\n      add\n      dup3\n      dup1\n      sload\n      tag_246\n      swap1\n      tag_152\n      jump\t// in\n    tag_246:\n      dup1\n      iszero\n      tag_247\n      jumpi\n      dup1\n      0x1f\n      lt\n      tag_248\n      jumpi\n      0x0100\n      dup1\n      dup4\n      sload\n      div\n      mul\n      dup4\n      mstore\n      swap2\n      0x20\n      add\n      swap2\n      jump(tag_247)\n    tag_248:\n      dup3\n      add\n      swap2\n      swap1\n      0x00\n      mstore\n      keccak256(0x00, 0x20)\n      swap1\n    tag_249:\n      dup2\n      sload\n      dup2\n      mstore\n      swap1\n      0x01\n      add\n      swap1\n      0x20\n      add\n      dup1\n      dup4\n      gt\n      tag_249\n      jumpi\n      dup3\n      swap1\n      sub\n      0x1f\n      and\n      dup3\n      add\n      swap2\n    tag_247:\n      pop\n      pop\n      pop\n      pop\n      pop\n        /* \"packages/chainlink_smart_contracts/bet.sol\":13815:13821  titles */\n      dup9\n        /* \"packages/chainlink_smart_contracts/bet.sol\":13822:13827  index */\n      dup5\n        /* \"packages/chainlink_smart_contracts/bet.sol\":13815:13828  titles[index] */\n      dup2\n      mload\n      dup2\n      lt\n      tag_250\n      jumpi\n      tag_251\n      tag_81\n      jump\t// in\n    tag_251:\n    tag_250:\n      0x20\n      mul\n      0x20\n      add\n      add\n        /* \"packages/chainlink_smart_contracts/bet.sol\":13815:13848  titles[index] = betInstance.title */\n      dup2\n      swap1\n      mstore\n      pop\n        /* \"packages/chainlink_smart_contracts/bet.sol\":13883:13894  betInstance */\n      dup1\n        /* \"packages/chainlink_smart_contracts/bet.sol\":13883:13902  betInstance.options */\n      0x02\n      add\n        /* \"packages/chainlink_smart_contracts/bet.sol\":13866:13902  options[index] = betInstance.options */\n      dup1\n      sload\n      dup1\n      0x20\n      mul\n      0x20\n      add\n      mload(0x40)\n      swap1\n      dup2\n      add\n      0x40\n      mstore\n      dup1\n      swap3\n      swap2\n      swap1\n      dup2\n      dup2\n      mstore\n      0x20\n      add\n      0x00\n      swap1\n    tag_252:\n      dup3\n      dup3\n      lt\n      iszero\n      tag_253\n      jumpi\n      dup4\n      dup3\n      swap1\n      0x00\n      mstore\n      keccak256(0x00, 0x20)\n      add\n      dup1\n      sload\n      tag_255\n      swap1\n      tag_152\n      jump\t// in\n    tag_255:\n      dup1\n      0x1f\n      add\n      0x20\n      dup1\n      swap2\n      div\n      mul\n      0x20\n      add\n      mload(0x40)\n      swap1\n      dup2\n      add\n      0x40\n      mstore\n      dup1\n      swap3\n      swap2\n      swap1\n      dup2\n      dup2\n      mstore\n      0x20\n      add\n      dup3\n      dup1\n      sload\n      tag_256\n      swap1\n      tag_152\n      jump\t// in\n    tag_256:\n      dup1\n      iszero\n      tag_257\n      jumpi\n      dup1\n      0x1f\n      lt\n      tag_258\n      jumpi\n      0x0100\n      dup1\n      dup4\n      sload\n      div\n      mul\n      dup4\n      mstore\n      swap2\n      0x20\n      add\n      swap2\n      jump(tag_257)\n    tag_258:\n      dup3\n      add\n      swap2\n      swap1\n      0x00\n      mstore\n      keccak256(0x00, 0x20)\n      swap1\n    tag_259:\n      dup2\n      sload\n      dup2\n      mstore\n      swap1\n      0x01\n      add\n      swap1\n      0x20\n      add\n      dup1\n      dup4\n      gt\n      tag_259\n      jumpi\n      dup3\n      swap1\n      sub\n      0x1f\n      and\n      dup3\n      add\n      swap2\n    tag_257:\n      pop\n      pop\n      pop\n      pop\n      pop\n      dup2\n      mstore\n      0x20\n      add\n      swap1\n      0x01\n      add\n      swap1\n      jump(tag_252)\n    tag_253:\n      pop\n      pop\n      pop\n      pop\n        /* \"packages/chainlink_smart_contracts/bet.sol\":13866:13873  options */\n      dup8\n        /* \"packages/chainlink_smart_contracts/bet.sol\":13874:13879  index */\n      dup5\n        /* \"packages/chainlink_smart_contracts/bet.sol\":13866:13880  options[index] */\n      dup2\n      mload\n      dup2\n      lt\n      tag_260\n      jumpi\n      tag_261\n      tag_81\n      jump\t// in\n    tag_261:\n    tag_260:\n      0x20\n      mul\n      0x20\n      add\n      add\n        /* \"packages/chainlink_smart_contracts/bet.sol\":13866:13902  options[index] = betInstance.options */\n      dup2\n      swap1\n      mstore\n      pop\n        /* \"packages/chainlink_smart_contracts/bet.sol\":13947:13958  betInstance */\n      dup1\n        /* \"packages/chainlink_smart_contracts/bet.sol\":13947:13975  betInstance.minimumBetAmount */\n      0x04\n      add\n      sload\n        /* \"packages/chainlink_smart_contracts/bet.sol\":13920:13937  minimumBetAmounts */\n      dup7\n        /* \"packages/chainlink_smart_contracts/bet.sol\":13938:13943  index */\n      dup5\n        /* \"packages/chainlink_smart_contracts/bet.sol\":13920:13944  minimumBetAmounts[index] */\n      dup2\n      mload\n      dup2\n      lt\n      tag_262\n      jumpi\n      tag_263\n      tag_81\n      jump\t// in\n    tag_263:\n    tag_262:\n      0x20\n      mul\n      0x20\n      add\n      add\n        /* \"packages/chainlink_smart_contracts/bet.sol\":13920:13975  minimumBetAmounts[index] = betInstance.minimumBetAmount */\n      dup2\n      dup2\n      mstore\n      pop\n      pop\n        /* \"packages/chainlink_smart_contracts/bet.sol\":14011:14022  betInstance */\n      dup1\n        /* \"packages/chainlink_smart_contracts/bet.sol\":14011:14030  betInstance.creator */\n      0x08\n      add\n      0x00\n      swap1\n      sload\n      swap1\n      0x0100\n      exp\n      swap1\n      div\n      0xffffffffffffffffffffffffffffffffffffffff\n      and\n        /* \"packages/chainlink_smart_contracts/bet.sol\":13993:14001  creators */\n      dup6\n        /* \"packages/chainlink_smart_contracts/bet.sol\":14002:14007  index */\n      dup5\n        /* \"packages/chainlink_smart_contracts/bet.sol\":13993:14008  creators[index] */\n      dup2\n      mload\n      dup2\n      lt\n      tag_264\n      jumpi\n      tag_265\n      tag_81\n      jump\t// in\n    tag_265:\n    tag_264:\n      0x20\n      mul\n      0x20\n      add\n      add\n        /* \"packages/chainlink_smart_contracts/bet.sol\":13993:14030  creators[index] = betInstance.creator */\n      swap1\n      0xffffffffffffffffffffffffffffffffffffffff\n      and\n      swap1\n      dup2\n      0xffffffffffffffffffffffffffffffffffffffff\n      and\n      dup2\n      mstore\n      pop\n      pop\n        /* \"packages/chainlink_smart_contracts/bet.sol\":14049:14056  index++ */\n      dup3\n      dup1\n      tag_266\n      swap1\n      tag_64\n      jump\t// in\n    tag_266:\n      swap4\n      pop\n      pop\n        /* \"packages/chainlink_smart_contracts/bet.sol\":13721:14071  if (betInstance.isOpen) {... */\n    tag_242:\n        /* \"packages/chainlink_smart_contracts/bet.sol\":13643:14081  {... */\n      pop\n        /* \"packages/chainlink_smart_contracts/bet.sol\":13638:13641  i++ */\n      dup1\n      dup1\n      0x01\n      add\n      swap2\n      pop\n      pop\n        /* \"packages/chainlink_smart_contracts/bet.sol\":13603:14081  for (uint256 i = 1; i < nextBetId; i++) {... */\n      jump(tag_239)\n    tag_240:\n      pop\n        /* \"packages/chainlink_smart_contracts/bet.sol\":12931:14087  {... */\n      pop\n      pop\n        /* \"packages/chainlink_smart_contracts/bet.sol\":12689:14087  function getAllOpenBets() external view returns (... */\n      swap1\n      swap2\n      swap3\n      swap4\n      swap5\n      jump\t// out\n        /* \"packages/chainlink_smart_contracts/bet.sol\":5908:7946  function distributeWinnings(uint256 _betId, uint8 _winningOption) external onlyCreator(_betId) {... */\n    tag_44:\n        /* \"packages/chainlink_smart_contracts/bet.sol\":5995:6001  _betId */\n      dup2\n        /* \"packages/chainlink_smart_contracts/bet.sol\":2475:2487  betInstances */\n      0x02\n        /* \"packages/chainlink_smart_contracts/bet.sol\":2475:2495  betInstances[_betId] */\n      0x00\n        /* \"packages/chainlink_smart_contracts/bet.sol\":2488:2494  _betId */\n      dup3\n        /* \"packages/chainlink_smart_contracts/bet.sol\":2475:2495  betInstances[_betId] */\n      dup2\n      mstore\n      0x20\n      add\n      swap1\n      dup2\n      mstore\n      0x20\n      add\n      0x00\n      keccak256\n        /* \"packages/chainlink_smart_contracts/bet.sol\":2475:2503  betInstances[_betId].creator */\n      0x08\n      add\n      0x00\n      swap1\n      sload\n      swap1\n      0x0100\n      exp\n      swap1\n      div\n      0xffffffffffffffffffffffffffffffffffffffff\n      and\n        /* \"packages/chainlink_smart_contracts/bet.sol\":2461:2503  msg.sender != betInstances[_betId].creator */\n      0xffffffffffffffffffffffffffffffffffffffff\n      and\n        /* \"packages/chainlink_smart_contracts/bet.sol\":2461:2471  msg.sender */\n      caller\n        /* \"packages/chainlink_smart_contracts/bet.sol\":2461:2503  msg.sender != betInstances[_betId].creator */\n      0xffffffffffffffffffffffffffffffffffffffff\n      and\n      eq\n        /* \"packages/chainlink_smart_contracts/bet.sol\":2457:2554  if (msg.sender != betInstances[_betId].creator) {... */\n      tag_268\n      jumpi\n        /* \"packages/chainlink_smart_contracts/bet.sol\":2519:2543  revert(\"Not authorized\") */\n      mload(0x40)\n      0x08c379a000000000000000000000000000000000000000000000000000000000\n      dup2\n      mstore\n      0x04\n      add\n      tag_269\n      swap1\n      tag_91\n      jump\t// in\n    tag_269:\n      mload(0x40)\n      dup1\n      swap2\n      sub\n      swap1\n      revert\n        /* \"packages/chainlink_smart_contracts/bet.sol\":2457:2554  if (msg.sender != betInstances[_betId].creator) {... */\n    tag_268:\n        /* \"packages/chainlink_smart_contracts/bet.sol\":6039:6040  1 */\n      0x01\n        /* \"packages/chainlink_smart_contracts/bet.sol\":6021:6035  _winningOption */\n      dup3\n        /* \"packages/chainlink_smart_contracts/bet.sol\":6021:6040  _winningOption >= 1 */\n      0xff\n      and\n      lt\n      iszero\n        /* \"packages/chainlink_smart_contracts/bet.sol\":6021:6097  _winningOption >= 1 && _winningOption <= betInstances[_betId].options.length */\n      dup1\n      iszero\n      tag_271\n      jumpi\n      pop\n        /* \"packages/chainlink_smart_contracts/bet.sol\":6062:6074  betInstances */\n      0x02\n        /* \"packages/chainlink_smart_contracts/bet.sol\":6062:6082  betInstances[_betId] */\n      0x00\n        /* \"packages/chainlink_smart_contracts/bet.sol\":6075:6081  _betId */\n      dup5\n        /* \"packages/chainlink_smart_contracts/bet.sol\":6062:6082  betInstances[_betId] */\n      dup2\n      mstore\n      0x20\n      add\n      swap1\n      dup2\n      mstore\n      0x20\n      add\n      0x00\n      keccak256\n        /* \"packages/chainlink_smart_contracts/bet.sol\":6062:6090  betInstances[_betId].options */\n      0x02\n      add\n        /* \"packages/chainlink_smart_contracts/bet.sol\":6062:6097  betInstances[_betId].options.length */\n      dup1\n      sload\n      swap1\n      pop\n        /* \"packages/chainlink_smart_contracts/bet.sol\":6044:6058  _winningOption */\n      dup3\n        /* \"packages/chainlink_smart_contracts/bet.sol\":6044:6097  _winningOption <= betInstances[_betId].options.length */\n      0xff\n      and\n      gt\n      iszero\n        /* \"packages/chainlink_smart_contracts/bet.sol\":6021:6097  _winningOption >= 1 && _winningOption <= betInstances[_betId].options.length */\n    tag_271:\n        /* \"packages/chainlink_smart_contracts/bet.sol\":6013:6124  require(_winningOption >= 1 && _winningOption <= betInstances[_betId].options.length, \"Invalid winning option\") */\n      tag_272\n      jumpi\n      mload(0x40)\n      0x08c379a000000000000000000000000000000000000000000000000000000000\n      dup2\n      mstore\n      0x04\n      add\n      tag_273\n      swap1\n      tag_274\n      jump\t// in\n    tag_273:\n      mload(0x40)\n      dup1\n      swap2\n      sub\n      swap1\n      revert\n    tag_272:\n        /* \"packages/chainlink_smart_contracts/bet.sol\":6135:6166  BetInstance storage betInstance */\n      0x00\n        /* \"packages/chainlink_smart_contracts/bet.sol\":6169:6181  betInstances */\n      0x02\n        /* \"packages/chainlink_smart_contracts/bet.sol\":6169:6189  betInstances[_betId] */\n      0x00\n        /* \"packages/chainlink_smart_contracts/bet.sol\":6182:6188  _betId */\n      dup6\n        /* \"packages/chainlink_smart_contracts/bet.sol\":6169:6189  betInstances[_betId] */\n      dup2\n      mstore\n      0x20\n      add\n      swap1\n      dup2\n      mstore\n      0x20\n      add\n      0x00\n      keccak256\n        /* \"packages/chainlink_smart_contracts/bet.sol\":6135:6189  BetInstance storage betInstance = betInstances[_betId] */\n      swap1\n      pop\n        /* \"packages/chainlink_smart_contracts/bet.sol\":6208:6219  betInstance */\n      dup1\n        /* \"packages/chainlink_smart_contracts/bet.sol\":6208:6226  betInstance.isOpen */\n      0x08\n      add\n      0x14\n      swap1\n      sload\n      swap1\n      0x0100\n      exp\n      swap1\n      div\n      0xff\n      and\n        /* \"packages/chainlink_smart_contracts/bet.sol\":6207:6226  !betInstance.isOpen */\n      iszero\n        /* \"packages/chainlink_smart_contracts/bet.sol\":6207:6253  !betInstance.isOpen && !betInstance.isResolved */\n      dup1\n      iszero\n      tag_275\n      jumpi\n      pop\n        /* \"packages/chainlink_smart_contracts/bet.sol\":6231:6242  betInstance */\n      dup1\n        /* \"packages/chainlink_smart_contracts/bet.sol\":6231:6253  betInstance.isResolved */\n      0x08\n      add\n      0x15\n      swap1\n      sload\n      swap1\n      0x0100\n      exp\n      swap1\n      div\n      0xff\n      and\n        /* \"packages/chainlink_smart_contracts/bet.sol\":6230:6253  !betInstance.isResolved */\n      iszero\n        /* \"packages/chainlink_smart_contracts/bet.sol\":6207:6253  !betInstance.isOpen && !betInstance.isResolved */\n    tag_275:\n        /* \"packages/chainlink_smart_contracts/bet.sol\":6199:6297  require(!betInstance.isOpen && !betInstance.isResolved, \"Betting must be closed and not resolved\") */\n      tag_276\n      jumpi\n      mload(0x40)\n      0x08c379a000000000000000000000000000000000000000000000000000000000\n      dup2\n      mstore\n      0x04\n      add\n      tag_277\n      swap1\n      tag_278\n      jump\t// in\n    tag_277:\n      mload(0x40)\n      dup1\n      swap2\n      sub\n      swap1\n      revert\n    tag_276:\n        /* \"packages/chainlink_smart_contracts/bet.sol\":6365:6377  IERC20 token */\n      0x00\n        /* \"packages/chainlink_smart_contracts/bet.sol\":6387:6398  betInstance */\n      dup2\n        /* \"packages/chainlink_smart_contracts/bet.sol\":6387:6411  betInstance.tokenAddress */\n      0x05\n      add\n      0x00\n      swap1\n      sload\n      swap1\n      0x0100\n      exp\n      swap1\n      div\n      0xffffffffffffffffffffffffffffffffffffffff\n      and\n        /* \"packages/chainlink_smart_contracts/bet.sol\":6365:6412  IERC20 token = IERC20(betInstance.tokenAddress) */\n      swap1\n      pop\n        /* \"packages/chainlink_smart_contracts/bet.sol\":6475:6506  uint256 totalAmountToDistribute */\n      0x00\n        /* \"packages/chainlink_smart_contracts/bet.sol\":6525:6532  uint8 i */\n      dup1\n        /* \"packages/chainlink_smart_contracts/bet.sol\":6520:6659  for (uint8 i = 0; i < betInstance.totalAmounts.length; i++) {... */\n    tag_279:\n        /* \"packages/chainlink_smart_contracts/bet.sol\":6542:6553  betInstance */\n      dup4\n        /* \"packages/chainlink_smart_contracts/bet.sol\":6542:6566  betInstance.totalAmounts */\n      0x03\n      add\n        /* \"packages/chainlink_smart_contracts/bet.sol\":6542:6573  betInstance.totalAmounts.length */\n      dup1\n      sload\n      swap1\n      pop\n        /* \"packages/chainlink_smart_contracts/bet.sol\":6538:6539  i */\n      dup2\n        /* \"packages/chainlink_smart_contracts/bet.sol\":6538:6573  i < betInstance.totalAmounts.length */\n      0xff\n      and\n      lt\n        /* \"packages/chainlink_smart_contracts/bet.sol\":6520:6659  for (uint8 i = 0; i < betInstance.totalAmounts.length; i++) {... */\n      iszero\n      tag_280\n      jumpi\n        /* \"packages/chainlink_smart_contracts/bet.sol\":6621:6632  betInstance */\n      dup4\n        /* \"packages/chainlink_smart_contracts/bet.sol\":6621:6645  betInstance.totalAmounts */\n      0x03\n      add\n        /* \"packages/chainlink_smart_contracts/bet.sol\":6646:6647  i */\n      dup2\n        /* \"packages/chainlink_smart_contracts/bet.sol\":6621:6648  betInstance.totalAmounts[i] */\n      0xff\n      and\n      dup2\n      sload\n      dup2\n      lt\n      tag_282\n      jumpi\n      tag_283\n      tag_81\n      jump\t// in\n    tag_283:\n    tag_282:\n      swap1\n      0x00\n      mstore\n      keccak256(0x00, 0x20)\n      add\n      sload\n        /* \"packages/chainlink_smart_contracts/bet.sol\":6594:6648  totalAmountToDistribute += betInstance.totalAmounts[i] */\n      dup3\n      tag_285\n      swap2\n      swap1\n      tag_103\n      jump\t// in\n    tag_285:\n      swap2\n      pop\n        /* \"packages/chainlink_smart_contracts/bet.sol\":6575:6578  i++ */\n      dup1\n      dup1\n      tag_286\n      swap1\n      tag_105\n      jump\t// in\n    tag_286:\n      swap2\n      pop\n      pop\n        /* \"packages/chainlink_smart_contracts/bet.sol\":6520:6659  for (uint8 i = 0; i < betInstance.totalAmounts.length; i++) {... */\n      jump(tag_279)\n    tag_280:\n      pop\n        /* \"packages/chainlink_smart_contracts/bet.sol\":6668:6700  uint256 totalAmountWinningOption */\n      0x00\n        /* \"packages/chainlink_smart_contracts/bet.sol\":6703:6714  betInstance */\n      dup4\n        /* \"packages/chainlink_smart_contracts/bet.sol\":6703:6727  betInstance.totalAmounts */\n      0x03\n      add\n        /* \"packages/chainlink_smart_contracts/bet.sol\":6745:6746  1 */\n      0x01\n        /* \"packages/chainlink_smart_contracts/bet.sol\":6728:6742  _winningOption */\n      dup8\n        /* \"packages/chainlink_smart_contracts/bet.sol\":6728:6746  _winningOption - 1 */\n      tag_287\n      swap2\n      swap1\n      tag_203\n      jump\t// in\n    tag_287:\n        /* \"packages/chainlink_smart_contracts/bet.sol\":6703:6747  betInstance.totalAmounts[_winningOption - 1] */\n      0xff\n      and\n      dup2\n      sload\n      dup2\n      lt\n      tag_288\n      jumpi\n      tag_289\n      tag_81\n      jump\t// in\n    tag_289:\n    tag_288:\n      swap1\n      0x00\n      mstore\n      keccak256(0x00, 0x20)\n      add\n      sload\n        /* \"packages/chainlink_smart_contracts/bet.sol\":6668:6747  uint256 totalAmountWinningOption = betInstance.totalAmounts[_winningOption - 1] */\n      swap1\n      pop\n        /* \"packages/chainlink_smart_contracts/bet.sol\":6829:6840  uint256 fee */\n      0x00\n        /* \"packages/chainlink_smart_contracts/bet.sol\":6869:6872  100 */\n      0x64\n        /* \"packages/chainlink_smart_contracts/bet.sol\":6843:6866  totalAmountToDistribute */\n      dup4\n        /* \"packages/chainlink_smart_contracts/bet.sol\":6843:6872  totalAmountToDistribute / 100 */\n      tag_291\n      swap2\n      swap1\n      tag_107\n      jump\t// in\n    tag_291:\n        /* \"packages/chainlink_smart_contracts/bet.sol\":6829:6872  uint256 fee = totalAmountToDistribute / 100 */\n      swap1\n      pop\n        /* \"packages/chainlink_smart_contracts/bet.sol\":6882:6900  uint256 creatorFee */\n      0x00\n        /* \"packages/chainlink_smart_contracts/bet.sol\":6903:6906  fee */\n      dup2\n        /* \"packages/chainlink_smart_contracts/bet.sol\":6882:6906  uint256 creatorFee = fee */\n      swap1\n      pop\n        /* \"packages/chainlink_smart_contracts/bet.sol\":6916:6939  uint256 remainingAmount */\n      0x00\n        /* \"packages/chainlink_smart_contracts/bet.sol\":6974:6984  creatorFee */\n      dup2\n        /* \"packages/chainlink_smart_contracts/bet.sol\":6968:6971  fee */\n      dup4\n        /* \"packages/chainlink_smart_contracts/bet.sol\":6942:6965  totalAmountToDistribute */\n      dup7\n        /* \"packages/chainlink_smart_contracts/bet.sol\":6942:6971  totalAmountToDistribute - fee */\n      tag_292\n      swap2\n      swap1\n      tag_109\n      jump\t// in\n    tag_292:\n        /* \"packages/chainlink_smart_contracts/bet.sol\":6942:6984  totalAmountToDistribute - fee - creatorFee */\n      tag_293\n      swap2\n      swap1\n      tag_109\n      jump\t// in\n    tag_293:\n        /* \"packages/chainlink_smart_contracts/bet.sol\":6916:6984  uint256 remainingAmount = totalAmountToDistribute - fee - creatorFee */\n      swap1\n      pop\n        /* \"packages/chainlink_smart_contracts/bet.sol\":7011:7016  token */\n      dup6\n        /* \"packages/chainlink_smart_contracts/bet.sol\":7011:7025  token.transfer */\n      0xffffffffffffffffffffffffffffffffffffffff\n      and\n      0xa9059cbb\n        /* \"packages/chainlink_smart_contracts/bet.sol\":529:571  0x9b63FA365019Dd7bdF8cBED2823480F808391970 */\n      0x9b63fa365019dd7bdf8cbed2823480f808391970\n        /* \"packages/chainlink_smart_contracts/bet.sol\":7039:7042  fee */\n      dup6\n        /* \"packages/chainlink_smart_contracts/bet.sol\":7011:7043  token.transfer(FEE_ADDRESS, fee) */\n      mload(0x40)\n      dup4\n      0xffffffff\n      and\n      0xe0\n      shl\n      dup2\n      mstore\n      0x04\n      add\n      tag_294\n      swap3\n      swap2\n      swap1\n      tag_112\n      jump\t// in\n    tag_294:\n      0x20\n      mload(0x40)\n      dup1\n      dup4\n      sub\n      dup2\n      0x00\n      dup8\n      gas\n      call\n      iszero\n      dup1\n      iszero\n      tag_296\n      jumpi\n      returndatasize\n      0x00\n      dup1\n      returndatacopy\n      revert(0x00, returndatasize)\n    tag_296:\n      pop\n      pop\n      pop\n      pop\n      mload(0x40)\n      returndatasize\n      not(0x1f)\n      0x1f\n      dup3\n      add\n      and\n      dup3\n      add\n      dup1\n      0x40\n      mstore\n      pop\n      dup2\n      add\n      swap1\n      tag_297\n      swap2\n      swap1\n      tag_116\n      jump\t// in\n    tag_297:\n        /* \"packages/chainlink_smart_contracts/bet.sol\":7003:7067  require(token.transfer(FEE_ADDRESS, fee), \"Fee transfer failed\") */\n      tag_298\n      jumpi\n      mload(0x40)\n      0x08c379a000000000000000000000000000000000000000000000000000000000\n      dup2\n      mstore\n      0x04\n      add\n      tag_299\n      swap1\n      tag_119\n      jump\t// in\n    tag_299:\n      mload(0x40)\n      dup1\n      swap2\n      sub\n      swap1\n      revert\n    tag_298:\n        /* \"packages/chainlink_smart_contracts/bet.sol\":7085:7090  token */\n      dup6\n        /* \"packages/chainlink_smart_contracts/bet.sol\":7085:7099  token.transfer */\n      0xffffffffffffffffffffffffffffffffffffffff\n      and\n      0xa9059cbb\n        /* \"packages/chainlink_smart_contracts/bet.sol\":7100:7111  betInstance */\n      dup9\n        /* \"packages/chainlink_smart_contracts/bet.sol\":7100:7119  betInstance.creator */\n      0x08\n      add\n      0x00\n      swap1\n      sload\n      swap1\n      0x0100\n      exp\n      swap1\n      div\n      0xffffffffffffffffffffffffffffffffffffffff\n      and\n        /* \"packages/chainlink_smart_contracts/bet.sol\":7121:7131  creatorFee */\n      dup5\n        /* \"packages/chainlink_smart_contracts/bet.sol\":7085:7132  token.transfer(betInstance.creator, creatorFee) */\n      mload(0x40)\n      dup4\n      0xffffffff\n      and\n      0xe0\n      shl\n      dup2\n      mstore\n      0x04\n      add\n      tag_300\n      swap3\n      swap2\n      swap1\n      tag_112\n      jump\t// in\n    tag_300:\n      0x20\n      mload(0x40)\n      dup1\n      dup4\n      sub\n      dup2\n      0x00\n      dup8\n      gas\n      call\n      iszero\n      dup1\n      iszero\n      tag_302\n      jumpi\n      returndatasize\n      0x00\n      dup1\n      returndatacopy\n      revert(0x00, returndatasize)\n    tag_302:\n      pop\n      pop\n      pop\n      pop\n      mload(0x40)\n      returndatasize\n      not(0x1f)\n      0x1f\n      dup3\n      add\n      and\n      dup3\n      add\n      dup1\n      0x40\n      mstore\n      pop\n      dup2\n      add\n      swap1\n      tag_303\n      swap2\n      swap1\n      tag_116\n      jump\t// in\n    tag_303:\n        /* \"packages/chainlink_smart_contracts/bet.sol\":7077:7164  require(token.transfer(betInstance.creator, creatorFee), \"Creator fee transfer failed\") */\n      tag_304\n      jumpi\n      mload(0x40)\n      0x08c379a000000000000000000000000000000000000000000000000000000000\n      dup2\n      mstore\n      0x04\n      add\n      tag_305\n      swap1\n      tag_126\n      jump\t// in\n    tag_305:\n      mload(0x40)\n      dup1\n      swap2\n      sub\n      swap1\n      revert\n    tag_304:\n        /* \"packages/chainlink_smart_contracts/bet.sol\":7238:7247  uint256 i */\n      0x00\n        /* \"packages/chainlink_smart_contracts/bet.sol\":7233:7758  for (uint256 i = 0; i < betInstance.bettors.length; i++) {... */\n    tag_306:\n        /* \"packages/chainlink_smart_contracts/bet.sol\":7257:7268  betInstance */\n      dup8\n        /* \"packages/chainlink_smart_contracts/bet.sol\":7257:7276  betInstance.bettors */\n      0x07\n      add\n        /* \"packages/chainlink_smart_contracts/bet.sol\":7257:7283  betInstance.bettors.length */\n      dup1\n      sload\n      swap1\n      pop\n        /* \"packages/chainlink_smart_contracts/bet.sol\":7253:7254  i */\n      dup2\n        /* \"packages/chainlink_smart_contracts/bet.sol\":7253:7283  i < betInstance.bettors.length */\n      lt\n        /* \"packages/chainlink_smart_contracts/bet.sol\":7233:7758  for (uint256 i = 0; i < betInstance.bettors.length; i++) {... */\n      iszero\n      tag_307\n      jumpi\n        /* \"packages/chainlink_smart_contracts/bet.sol\":7304:7318  address bettor */\n      0x00\n        /* \"packages/chainlink_smart_contracts/bet.sol\":7321:7332  betInstance */\n      dup9\n        /* \"packages/chainlink_smart_contracts/bet.sol\":7321:7340  betInstance.bettors */\n      0x07\n      add\n        /* \"packages/chainlink_smart_contracts/bet.sol\":7341:7342  i */\n      dup3\n        /* \"packages/chainlink_smart_contracts/bet.sol\":7321:7343  betInstance.bettors[i] */\n      dup2\n      sload\n      dup2\n      lt\n      tag_309\n      jumpi\n      tag_310\n      tag_81\n      jump\t// in\n    tag_310:\n    tag_309:\n      swap1\n      0x00\n      mstore\n      keccak256(0x00, 0x20)\n      add\n      0x00\n      swap1\n      sload\n      swap1\n      0x0100\n      exp\n      swap1\n      div\n      0xffffffffffffffffffffffffffffffffffffffff\n      and\n        /* \"packages/chainlink_smart_contracts/bet.sol\":7304:7343  address bettor = betInstance.bettors[i] */\n      swap1\n      pop\n        /* \"packages/chainlink_smart_contracts/bet.sol\":7357:7375  Bet[] storage bets */\n      0x00\n        /* \"packages/chainlink_smart_contracts/bet.sol\":7378:7389  betInstance */\n      dup10\n        /* \"packages/chainlink_smart_contracts/bet.sol\":7378:7394  betInstance.bets */\n      0x06\n      add\n        /* \"packages/chainlink_smart_contracts/bet.sol\":7378:7402  betInstance.bets[bettor] */\n      0x00\n        /* \"packages/chainlink_smart_contracts/bet.sol\":7395:7401  bettor */\n      dup4\n        /* \"packages/chainlink_smart_contracts/bet.sol\":7378:7402  betInstance.bets[bettor] */\n      0xffffffffffffffffffffffffffffffffffffffff\n      and\n      0xffffffffffffffffffffffffffffffffffffffff\n      and\n      dup2\n      mstore\n      0x20\n      add\n      swap1\n      dup2\n      mstore\n      0x20\n      add\n      0x00\n      keccak256\n        /* \"packages/chainlink_smart_contracts/bet.sol\":7357:7402  Bet[] storage bets = betInstance.bets[bettor] */\n      swap1\n      pop\n        /* \"packages/chainlink_smart_contracts/bet.sol\":7421:7428  uint8 j */\n      0x00\n        /* \"packages/chainlink_smart_contracts/bet.sol\":7416:7748  for (uint8 j = 0; j < bets.length; j++) {... */\n    tag_312:\n        /* \"packages/chainlink_smart_contracts/bet.sol\":7438:7442  bets */\n      dup2\n        /* \"packages/chainlink_smart_contracts/bet.sol\":7438:7449  bets.length */\n      dup1\n      sload\n      swap1\n      pop\n        /* \"packages/chainlink_smart_contracts/bet.sol\":7434:7435  j */\n      dup2\n        /* \"packages/chainlink_smart_contracts/bet.sol\":7434:7449  j < bets.length */\n      0xff\n      and\n      lt\n        /* \"packages/chainlink_smart_contracts/bet.sol\":7416:7748  for (uint8 j = 0; j < bets.length; j++) {... */\n      iszero\n      tag_313\n      jumpi\n        /* \"packages/chainlink_smart_contracts/bet.sol\":7504:7505  0 */\n      0x00\n        /* \"packages/chainlink_smart_contracts/bet.sol\":7478:7506  bets[j].bettor != address(0) */\n      0xffffffffffffffffffffffffffffffffffffffff\n      and\n        /* \"packages/chainlink_smart_contracts/bet.sol\":7478:7482  bets */\n      dup3\n        /* \"packages/chainlink_smart_contracts/bet.sol\":7483:7484  j */\n      dup3\n        /* \"packages/chainlink_smart_contracts/bet.sol\":7478:7485  bets[j] */\n      0xff\n      and\n      dup2\n      sload\n      dup2\n      lt\n      tag_315\n      jumpi\n      tag_316\n      tag_81\n      jump\t// in\n    tag_316:\n    tag_315:\n      swap1\n      0x00\n      mstore\n      keccak256(0x00, 0x20)\n      swap1\n      0x02\n      mul\n      add\n        /* \"packages/chainlink_smart_contracts/bet.sol\":7478:7492  bets[j].bettor */\n      0x00\n      add\n      0x00\n      swap1\n      sload\n      swap1\n      0x0100\n      exp\n      swap1\n      div\n      0xffffffffffffffffffffffffffffffffffffffff\n      and\n        /* \"packages/chainlink_smart_contracts/bet.sol\":7478:7506  bets[j].bettor != address(0) */\n      0xffffffffffffffffffffffffffffffffffffffff\n      and\n      eq\n        /* \"packages/chainlink_smart_contracts/bet.sol\":7474:7734  if (bets[j].bettor != address(0)) {... */\n      tag_318\n      jumpi\n        /* \"packages/chainlink_smart_contracts/bet.sol\":7530:7554  uint256 amountToTransfer */\n      0x00\n        /* \"packages/chainlink_smart_contracts/bet.sol\":7594:7618  totalAmountWinningOption */\n      dup9\n        /* \"packages/chainlink_smart_contracts/bet.sol\":7575:7590  remainingAmount */\n      dup7\n        /* \"packages/chainlink_smart_contracts/bet.sol\":7558:7562  bets */\n      dup5\n        /* \"packages/chainlink_smart_contracts/bet.sol\":7563:7564  j */\n      dup5\n        /* \"packages/chainlink_smart_contracts/bet.sol\":7558:7565  bets[j] */\n      0xff\n      and\n      dup2\n      sload\n      dup2\n      lt\n      tag_319\n      jumpi\n      tag_320\n      tag_81\n      jump\t// in\n    tag_320:\n    tag_319:\n      swap1\n      0x00\n      mstore\n      keccak256(0x00, 0x20)\n      swap1\n      0x02\n      mul\n      add\n        /* \"packages/chainlink_smart_contracts/bet.sol\":7558:7572  bets[j].amount */\n      0x01\n      add\n      sload\n        /* \"packages/chainlink_smart_contracts/bet.sol\":7558:7590  bets[j].amount * remainingAmount */\n      tag_322\n      swap2\n      swap1\n      tag_140\n      jump\t// in\n    tag_322:\n        /* \"packages/chainlink_smart_contracts/bet.sol\":7557:7618  (bets[j].amount * remainingAmount) / totalAmountWinningOption */\n      tag_323\n      swap2\n      swap1\n      tag_107\n      jump\t// in\n    tag_323:\n        /* \"packages/chainlink_smart_contracts/bet.sol\":7530:7618  uint256 amountToTransfer = (bets[j].amount * remainingAmount) / totalAmountWinningOption */\n      swap1\n      pop\n        /* \"packages/chainlink_smart_contracts/bet.sol\":7648:7653  token */\n      dup11\n        /* \"packages/chainlink_smart_contracts/bet.sol\":7648:7662  token.transfer */\n      0xffffffffffffffffffffffffffffffffffffffff\n      and\n      0xa9059cbb\n        /* \"packages/chainlink_smart_contracts/bet.sol\":7663:7669  bettor */\n      dup6\n        /* \"packages/chainlink_smart_contracts/bet.sol\":7671:7687  amountToTransfer */\n      dup4\n        /* \"packages/chainlink_smart_contracts/bet.sol\":7648:7688  token.transfer(bettor, amountToTransfer) */\n      mload(0x40)\n      dup4\n      0xffffffff\n      and\n      0xe0\n      shl\n      dup2\n      mstore\n      0x04\n      add\n      tag_324\n      swap3\n      swap2\n      swap1\n      tag_112\n      jump\t// in\n    tag_324:\n      0x20\n      mload(0x40)\n      dup1\n      dup4\n      sub\n      dup2\n      0x00\n      dup8\n      gas\n      call\n      iszero\n      dup1\n      iszero\n      tag_326\n      jumpi\n      returndatasize\n      0x00\n      dup1\n      returndatacopy\n      revert(0x00, returndatasize)\n    tag_326:\n      pop\n      pop\n      pop\n      pop\n      mload(0x40)\n      returndatasize\n      not(0x1f)\n      0x1f\n      dup3\n      add\n      and\n      dup3\n      add\n      dup1\n      0x40\n      mstore\n      pop\n      dup2\n      add\n      swap1\n      tag_327\n      swap2\n      swap1\n      tag_116\n      jump\t// in\n    tag_327:\n        /* \"packages/chainlink_smart_contracts/bet.sol\":7640:7715  require(token.transfer(bettor, amountToTransfer), \"Winner transfer failed\") */\n      tag_328\n      jumpi\n      mload(0x40)\n      0x08c379a000000000000000000000000000000000000000000000000000000000\n      dup2\n      mstore\n      0x04\n      add\n      tag_329\n      swap1\n      tag_330\n      jump\t// in\n    tag_329:\n      mload(0x40)\n      dup1\n      swap2\n      sub\n      swap1\n      revert\n    tag_328:\n        /* \"packages/chainlink_smart_contracts/bet.sol\":7508:7734  {... */\n      pop\n        /* \"packages/chainlink_smart_contracts/bet.sol\":7474:7734  if (bets[j].bettor != address(0)) {... */\n    tag_318:\n        /* \"packages/chainlink_smart_contracts/bet.sol\":7451:7454  j++ */\n      dup1\n      dup1\n      tag_331\n      swap1\n      tag_105\n      jump\t// in\n    tag_331:\n      swap2\n      pop\n      pop\n        /* \"packages/chainlink_smart_contracts/bet.sol\":7416:7748  for (uint8 j = 0; j < bets.length; j++) {... */\n      jump(tag_312)\n    tag_313:\n      pop\n        /* \"packages/chainlink_smart_contracts/bet.sol\":7290:7758  {... */\n      pop\n      pop\n        /* \"packages/chainlink_smart_contracts/bet.sol\":7285:7288  i++ */\n      dup1\n      dup1\n      0x01\n      add\n      swap2\n      pop\n      pop\n        /* \"packages/chainlink_smart_contracts/bet.sol\":7233:7758  for (uint256 i = 0; i < betInstance.bettors.length; i++) {... */\n      jump(tag_306)\n    tag_307:\n      pop\n        /* \"packages/chainlink_smart_contracts/bet.sol\":7829:7833  true */\n      0x01\n        /* \"packages/chainlink_smart_contracts/bet.sol\":7804:7815  betInstance */\n      dup8\n        /* \"packages/chainlink_smart_contracts/bet.sol\":7804:7826  betInstance.isResolved */\n      0x08\n      add\n      0x15\n        /* \"packages/chainlink_smart_contracts/bet.sol\":7804:7833  betInstance.isResolved = true */\n      0x0100\n      exp\n      dup2\n      sload\n      dup2\n      0xff\n      mul\n      not\n      and\n      swap1\n      dup4\n      iszero\n      iszero\n      mul\n      or\n      swap1\n      sstore\n      pop\n        /* \"packages/chainlink_smart_contracts/bet.sol\":7871:7885  _winningOption */\n      dup9\n        /* \"packages/chainlink_smart_contracts/bet.sol\":7843:7854  betInstance */\n      dup8\n        /* \"packages/chainlink_smart_contracts/bet.sol\":7843:7868  betInstance.winningOption */\n      0x08\n      add\n      0x16\n        /* \"packages/chainlink_smart_contracts/bet.sol\":7843:7885  betInstance.winningOption = _winningOption */\n      0x0100\n      exp\n      dup2\n      sload\n      dup2\n      0xff\n      mul\n      not\n      and\n      swap1\n      dup4\n      0xff\n      and\n      mul\n      or\n      swap1\n      sstore\n      pop\n        /* \"packages/chainlink_smart_contracts/bet.sol\":7916:7922  _betId */\n      dup10\n        /* \"packages/chainlink_smart_contracts/bet.sol\":7900:7939  BettingResolved(_betId, _winningOption) */\n      0x28c9277c6636bf00b5d22b2287c0f37926ae23a6825d5801e10a7183bb69045c\n        /* \"packages/chainlink_smart_contracts/bet.sol\":7924:7938  _winningOption */\n      dup11\n        /* \"packages/chainlink_smart_contracts/bet.sol\":7900:7939  BettingResolved(_betId, _winningOption) */\n      mload(0x40)\n      tag_332\n      swap2\n      swap1\n      tag_333\n      jump\t// in\n    tag_332:\n      mload(0x40)\n      dup1\n      swap2\n      sub\n      swap1\n      log2\n        /* \"packages/chainlink_smart_contracts/bet.sol\":6003:7946  {... */\n      pop\n      pop\n      pop\n      pop\n      pop\n      pop\n      pop\n        /* \"packages/chainlink_smart_contracts/bet.sol\":5908:7946  function distributeWinnings(uint256 _betId, uint8 _winningOption) external onlyCreator(_betId) {... */\n      pop\n      pop\n      pop\n      jump\t// out\n        /* \"packages/chainlink_smart_contracts/bet.sol\":11037:12627  function getOpenBetsByAddress(address _bettor) external view returns (... */\n    tag_48:\n        /* \"packages/chainlink_smart_contracts/bet.sol\":11116:11143  uint256[] memory openBetIds */\n      0x60\n        /* \"packages/chainlink_smart_contracts/bet.sol\":11154:11176  string[] memory titles */\n      dup1\n        /* \"packages/chainlink_smart_contracts/bet.sol\":11187:11211  uint256[] memory amounts */\n      0x60\n        /* \"packages/chainlink_smart_contracts/bet.sol\":11222:11247  string[][] memory options */\n      dup1\n        /* \"packages/chainlink_smart_contracts/bet.sol\":11264:11284  uint256 openBetCount */\n      0x00\n        /* \"packages/chainlink_smart_contracts/bet.sol\":11350:11359  uint256 i */\n      dup1\n        /* \"packages/chainlink_smart_contracts/bet.sol\":11362:11363  1 */\n      0x01\n        /* \"packages/chainlink_smart_contracts/bet.sol\":11350:11363  uint256 i = 1 */\n      swap1\n      pop\n        /* \"packages/chainlink_smart_contracts/bet.sol\":11345:11583  for (uint256 i = 1; i < nextBetId; i++) {... */\n    tag_335:\n        /* \"packages/chainlink_smart_contracts/bet.sol\":11369:11378  nextBetId */\n      sload(0x01)\n        /* \"packages/chainlink_smart_contracts/bet.sol\":11365:11366  i */\n      dup2\n        /* \"packages/chainlink_smart_contracts/bet.sol\":11365:11378  i < nextBetId */\n      lt\n        /* \"packages/chainlink_smart_contracts/bet.sol\":11345:11583  for (uint256 i = 1; i < nextBetId; i++) {... */\n      iszero\n      tag_336\n      jumpi\n        /* \"packages/chainlink_smart_contracts/bet.sol\":11399:11430  BetInstance storage betInstance */\n      0x00\n        /* \"packages/chainlink_smart_contracts/bet.sol\":11433:11445  betInstances */\n      0x02\n        /* \"packages/chainlink_smart_contracts/bet.sol\":11433:11448  betInstances[i] */\n      0x00\n        /* \"packages/chainlink_smart_contracts/bet.sol\":11446:11447  i */\n      dup4\n        /* \"packages/chainlink_smart_contracts/bet.sol\":11433:11448  betInstances[i] */\n      dup2\n      mstore\n      0x20\n      add\n      swap1\n      dup2\n      mstore\n      0x20\n      add\n      0x00\n      keccak256\n        /* \"packages/chainlink_smart_contracts/bet.sol\":11399:11448  BetInstance storage betInstance = betInstances[i] */\n      swap1\n      pop\n        /* \"packages/chainlink_smart_contracts/bet.sol\":11466:11477  betInstance */\n      dup1\n        /* \"packages/chainlink_smart_contracts/bet.sol\":11466:11484  betInstance.isOpen */\n      0x08\n      add\n      0x14\n      swap1\n      sload\n      swap1\n      0x0100\n      exp\n      swap1\n      div\n      0xff\n      and\n        /* \"packages/chainlink_smart_contracts/bet.sol\":11466:11524  betInstance.isOpen && betInstance.bets[_bettor].length > 0 */\n      dup1\n      iszero\n      tag_338\n      jumpi\n      pop\n        /* \"packages/chainlink_smart_contracts/bet.sol\":11523:11524  0 */\n      0x00\n        /* \"packages/chainlink_smart_contracts/bet.sol\":11488:11499  betInstance */\n      dup2\n        /* \"packages/chainlink_smart_contracts/bet.sol\":11488:11504  betInstance.bets */\n      0x06\n      add\n        /* \"packages/chainlink_smart_contracts/bet.sol\":11488:11513  betInstance.bets[_bettor] */\n      0x00\n        /* \"packages/chainlink_smart_contracts/bet.sol\":11505:11512  _bettor */\n      dup11\n        /* \"packages/chainlink_smart_contracts/bet.sol\":11488:11513  betInstance.bets[_bettor] */\n      0xffffffffffffffffffffffffffffffffffffffff\n      and\n      0xffffffffffffffffffffffffffffffffffffffff\n      and\n      dup2\n      mstore\n      0x20\n      add\n      swap1\n      dup2\n      mstore\n      0x20\n      add\n      0x00\n      keccak256\n        /* \"packages/chainlink_smart_contracts/bet.sol\":11488:11520  betInstance.bets[_bettor].length */\n      dup1\n      sload\n      swap1\n      pop\n        /* \"packages/chainlink_smart_contracts/bet.sol\":11488:11524  betInstance.bets[_bettor].length > 0 */\n      gt\n        /* \"packages/chainlink_smart_contracts/bet.sol\":11466:11524  betInstance.isOpen && betInstance.bets[_bettor].length > 0 */\n    tag_338:\n        /* \"packages/chainlink_smart_contracts/bet.sol\":11462:11573  if (betInstance.isOpen && betInstance.bets[_bettor].length > 0) {... */\n      iszero\n      tag_339\n      jumpi\n        /* \"packages/chainlink_smart_contracts/bet.sol\":11544:11558  openBetCount++ */\n      dup3\n      dup1\n      tag_340\n      swap1\n      tag_64\n      jump\t// in\n    tag_340:\n      swap4\n      pop\n      pop\n        /* \"packages/chainlink_smart_contracts/bet.sol\":11462:11573  if (betInstance.isOpen && betInstance.bets[_bettor].length > 0) {... */\n    tag_339:\n        /* \"packages/chainlink_smart_contracts/bet.sol\":11385:11583  {... */\n      pop\n        /* \"packages/chainlink_smart_contracts/bet.sol\":11380:11383  i++ */\n      dup1\n      dup1\n      0x01\n      add\n      swap2\n      pop\n      pop\n        /* \"packages/chainlink_smart_contracts/bet.sol\":11345:11583  for (uint256 i = 1; i < nextBetId; i++) {... */\n      jump(tag_335)\n    tag_336:\n      pop\n        /* \"packages/chainlink_smart_contracts/bet.sol\":11670:11682  openBetCount */\n      dup1\n        /* \"packages/chainlink_smart_contracts/bet.sol\":11656:11683  new uint256[](openBetCount) */\n      0xffffffffffffffff\n      dup2\n      gt\n      iszero\n      tag_341\n      jumpi\n      tag_342\n      tag_72\n      jump\t// in\n    tag_342:\n    tag_341:\n      mload(0x40)\n      swap1\n      dup1\n      dup3\n      mstore\n      dup1\n      0x20\n      mul\n      0x20\n      add\n      dup3\n      add\n      0x40\n      mstore\n      dup1\n      iszero\n      tag_343\n      jumpi\n      dup2\n      0x20\n      add\n      0x20\n      dup3\n      mul\n      dup1\n      calldatasize\n      dup4\n      calldatacopy\n      dup1\n      dup3\n      add\n      swap2\n      pop\n      pop\n      swap1\n      pop\n    tag_343:\n      pop\n        /* \"packages/chainlink_smart_contracts/bet.sol\":11643:11683  openBetIds = new uint256[](openBetCount) */\n      swap5\n      pop\n        /* \"packages/chainlink_smart_contracts/bet.sol\":11715:11727  openBetCount */\n      dup1\n        /* \"packages/chainlink_smart_contracts/bet.sol\":11702:11728  new string[](openBetCount) */\n      0xffffffffffffffff\n      dup2\n      gt\n      iszero\n      tag_344\n      jumpi\n      tag_345\n      tag_72\n      jump\t// in\n    tag_345:\n    tag_344:\n      mload(0x40)\n      swap1\n      dup1\n      dup3\n      mstore\n      dup1\n      0x20\n      mul\n      0x20\n      add\n      dup3\n      add\n      0x40\n      mstore\n      dup1\n      iszero\n      tag_346\n      jumpi\n      dup2\n      0x20\n      add\n    tag_347:\n      0x60\n      dup2\n      mstore\n      0x20\n      add\n      swap1\n      0x01\n      swap1\n      sub\n      swap1\n      dup2\n      tag_347\n      jumpi\n      swap1\n      pop\n    tag_346:\n      pop\n        /* \"packages/chainlink_smart_contracts/bet.sol\":11693:11728  titles = new string[](openBetCount) */\n      swap4\n      pop\n        /* \"packages/chainlink_smart_contracts/bet.sol\":11762:11774  openBetCount */\n      dup1\n        /* \"packages/chainlink_smart_contracts/bet.sol\":11748:11775  new uint256[](openBetCount) */\n      0xffffffffffffffff\n      dup2\n      gt\n      iszero\n      tag_348\n      jumpi\n      tag_349\n      tag_72\n      jump\t// in\n    tag_349:\n    tag_348:\n      mload(0x40)\n      swap1\n      dup1\n      dup3\n      mstore\n      dup1\n      0x20\n      mul\n      0x20\n      add\n      dup3\n      add\n      0x40\n      mstore\n      dup1\n      iszero\n      tag_350\n      jumpi\n      dup2\n      0x20\n      add\n      0x20\n      dup3\n      mul\n      dup1\n      calldatasize\n      dup4\n      calldatacopy\n      dup1\n      dup3\n      add\n      swap2\n      pop\n      pop\n      swap1\n      pop\n    tag_350:\n      pop\n        /* \"packages/chainlink_smart_contracts/bet.sol\":11738:11775  amounts = new uint256[](openBetCount) */\n      swap3\n      pop\n        /* \"packages/chainlink_smart_contracts/bet.sol\":11810:11822  openBetCount */\n      dup1\n        /* \"packages/chainlink_smart_contracts/bet.sol\":11795:11823  new string[][](openBetCount) */\n      0xffffffffffffffff\n      dup2\n      gt\n      iszero\n      tag_351\n      jumpi\n      tag_352\n      tag_72\n      jump\t// in\n    tag_352:\n    tag_351:\n      mload(0x40)\n      swap1\n      dup1\n      dup3\n      mstore\n      dup1\n      0x20\n      mul\n      0x20\n      add\n      dup3\n      add\n      0x40\n      mstore\n      dup1\n      iszero\n      tag_353\n      jumpi\n      dup2\n      0x20\n      add\n    tag_354:\n      0x60\n      dup2\n      mstore\n      0x20\n      add\n      swap1\n      0x01\n      swap1\n      sub\n      swap1\n      dup2\n      tag_354\n      jumpi\n      swap1\n      pop\n    tag_353:\n      pop\n        /* \"packages/chainlink_smart_contracts/bet.sol\":11785:11823  options = new string[][](openBetCount) */\n      swap2\n      pop\n        /* \"packages/chainlink_smart_contracts/bet.sol\":11834:11847  uint256 index */\n      0x00\n        /* \"packages/chainlink_smart_contracts/bet.sol\":11928:11937  uint256 i */\n      dup1\n        /* \"packages/chainlink_smart_contracts/bet.sol\":11940:11941  1 */\n      0x01\n        /* \"packages/chainlink_smart_contracts/bet.sol\":11928:11941  uint256 i = 1 */\n      swap1\n      pop\n        /* \"packages/chainlink_smart_contracts/bet.sol\":11923:12621  for (uint256 i = 1; i < nextBetId; i++) {... */\n    tag_355:\n        /* \"packages/chainlink_smart_contracts/bet.sol\":11947:11956  nextBetId */\n      sload(0x01)\n        /* \"packages/chainlink_smart_contracts/bet.sol\":11943:11944  i */\n      dup2\n        /* \"packages/chainlink_smart_contracts/bet.sol\":11943:11956  i < nextBetId */\n      lt\n        /* \"packages/chainlink_smart_contracts/bet.sol\":11923:12621  for (uint256 i = 1; i < nextBetId; i++) {... */\n      iszero\n      tag_356\n      jumpi\n        /* \"packages/chainlink_smart_contracts/bet.sol\":11977:12008  BetInstance storage betInstance */\n      0x00\n        /* \"packages/chainlink_smart_contracts/bet.sol\":12011:12023  betInstances */\n      0x02\n        /* \"packages/chainlink_smart_contracts/bet.sol\":12011:12026  betInstances[i] */\n      0x00\n        /* \"packages/chainlink_smart_contracts/bet.sol\":12024:12025  i */\n      dup4\n        /* \"packages/chainlink_smart_contracts/bet.sol\":12011:12026  betInstances[i] */\n      dup2\n      mstore\n      0x20\n      add\n      swap1\n      dup2\n      mstore\n      0x20\n      add\n      0x00\n      keccak256\n        /* \"packages/chainlink_smart_contracts/bet.sol\":11977:12026  BetInstance storage betInstance = betInstances[i] */\n      swap1\n      pop\n        /* \"packages/chainlink_smart_contracts/bet.sol\":12045:12056  betInstance */\n      dup1\n        /* \"packages/chainlink_smart_contracts/bet.sol\":12045:12063  betInstance.isOpen */\n      0x08\n      add\n      0x14\n      swap1\n      sload\n      swap1\n      0x0100\n      exp\n      swap1\n      div\n      0xff\n      and\n        /* \"packages/chainlink_smart_contracts/bet.sol\":12045:12103  betInstance.isOpen && betInstance.bets[_bettor].length > 0 */\n      dup1\n      iszero\n      tag_358\n      jumpi\n      pop\n        /* \"packages/chainlink_smart_contracts/bet.sol\":12102:12103  0 */\n      0x00\n        /* \"packages/chainlink_smart_contracts/bet.sol\":12067:12078  betInstance */\n      dup2\n        /* \"packages/chainlink_smart_contracts/bet.sol\":12067:12083  betInstance.bets */\n      0x06\n      add\n        /* \"packages/chainlink_smart_contracts/bet.sol\":12067:12092  betInstance.bets[_bettor] */\n      0x00\n        /* \"packages/chainlink_smart_contracts/bet.sol\":12084:12091  _bettor */\n      dup12\n        /* \"packages/chainlink_smart_contracts/bet.sol\":12067:12092  betInstance.bets[_bettor] */\n      0xffffffffffffffffffffffffffffffffffffffff\n      and\n      0xffffffffffffffffffffffffffffffffffffffff\n      and\n      dup2\n      mstore\n      0x20\n      add\n      swap1\n      dup2\n      mstore\n      0x20\n      add\n      0x00\n      keccak256\n        /* \"packages/chainlink_smart_contracts/bet.sol\":12067:12099  betInstance.bets[_bettor].length */\n      dup1\n      sload\n      swap1\n      pop\n        /* \"packages/chainlink_smart_contracts/bet.sol\":12067:12103  betInstance.bets[_bettor].length > 0 */\n      gt\n        /* \"packages/chainlink_smart_contracts/bet.sol\":12045:12103  betInstance.isOpen && betInstance.bets[_bettor].length > 0 */\n    tag_358:\n        /* \"packages/chainlink_smart_contracts/bet.sol\":12041:12611  if (betInstance.isOpen && betInstance.bets[_bettor].length > 0) {... */\n      iszero\n      tag_359\n      jumpi\n        /* \"packages/chainlink_smart_contracts/bet.sol\":12143:12154  betInstance */\n      dup1\n        /* \"packages/chainlink_smart_contracts/bet.sol\":12143:12157  betInstance.id */\n      0x00\n      add\n      sload\n        /* \"packages/chainlink_smart_contracts/bet.sol\":12123:12133  openBetIds */\n      dup9\n        /* \"packages/chainlink_smart_contracts/bet.sol\":12134:12139  index */\n      dup5\n        /* \"packages/chainlink_smart_contracts/bet.sol\":12123:12140  openBetIds[index] */\n      dup2\n      mload\n      dup2\n      lt\n      tag_360\n      jumpi\n      tag_361\n      tag_81\n      jump\t// in\n    tag_361:\n    tag_360:\n      0x20\n      mul\n      0x20\n      add\n      add\n        /* \"packages/chainlink_smart_contracts/bet.sol\":12123:12157  openBetIds[index] = betInstance.id */\n      dup2\n      dup2\n      mstore\n      pop\n      pop\n        /* \"packages/chainlink_smart_contracts/bet.sol\":12191:12202  betInstance */\n      dup1\n        /* \"packages/chainlink_smart_contracts/bet.sol\":12191:12208  betInstance.title */\n      0x01\n      add\n        /* \"packages/chainlink_smart_contracts/bet.sol\":12175:12208  titles[index] = betInstance.title */\n      dup1\n      sload\n      tag_362\n      swap1\n      tag_152\n      jump\t// in\n    tag_362:\n      dup1\n      0x1f\n      add\n      0x20\n      dup1\n      swap2\n      div\n      mul\n      0x20\n      add\n      mload(0x40)\n      swap1\n      dup2\n      add\n      0x40\n      mstore\n      dup1\n      swap3\n      swap2\n      swap1\n      dup2\n      dup2\n      mstore\n      0x20\n      add\n      dup3\n      dup1\n      sload\n      tag_363\n      swap1\n      tag_152\n      jump\t// in\n    tag_363:\n      dup1\n      iszero\n      tag_364\n      jumpi\n      dup1\n      0x1f\n      lt\n      tag_365\n      jumpi\n      0x0100\n      dup1\n      dup4\n      sload\n      div\n      mul\n      dup4\n      mstore\n      swap2\n      0x20\n      add\n      swap2\n      jump(tag_364)\n    tag_365:\n      dup3\n      add\n      swap2\n      swap1\n      0x00\n      mstore\n      keccak256(0x00, 0x20)\n      swap1\n    tag_366:\n      dup2\n      sload\n      dup2\n      mstore\n      swap1\n      0x01\n      add\n      swap1\n      0x20\n      add\n      dup1\n      dup4\n      gt\n      tag_366\n      jumpi\n      dup3\n      swap1\n      sub\n      0x1f\n      and\n      dup3\n      add\n      swap2\n    tag_364:\n      pop\n      pop\n      pop\n      pop\n      pop\n        /* \"packages/chainlink_smart_contracts/bet.sol\":12175:12181  titles */\n      dup8\n        /* \"packages/chainlink_smart_contracts/bet.sol\":12182:12187  index */\n      dup5\n        /* \"packages/chainlink_smart_contracts/bet.sol\":12175:12188  titles[index] */\n      dup2\n      mload\n      dup2\n      lt\n      tag_367\n      jumpi\n      tag_368\n      tag_81\n      jump\t// in\n    tag_368:\n    tag_367:\n      0x20\n      mul\n      0x20\n      add\n      add\n        /* \"packages/chainlink_smart_contracts/bet.sol\":12175:12208  titles[index] = betInstance.title */\n      dup2\n      swap1\n      mstore\n      pop\n        /* \"packages/chainlink_smart_contracts/bet.sol\":12227:12255  uint256 totalAmountBetByUser */\n      0x00\n        /* \"packages/chainlink_smart_contracts/bet.sol\":12277:12295  Bet[] storage bets */\n      dup1\n        /* \"packages/chainlink_smart_contracts/bet.sol\":12298:12309  betInstance */\n      dup3\n        /* \"packages/chainlink_smart_contracts/bet.sol\":12298:12314  betInstance.bets */\n      0x06\n      add\n        /* \"packages/chainlink_smart_contracts/bet.sol\":12298:12323  betInstance.bets[_bettor] */\n      0x00\n        /* \"packages/chainlink_smart_contracts/bet.sol\":12315:12322  _bettor */\n      dup13\n        /* \"packages/chainlink_smart_contracts/bet.sol\":12298:12323  betInstance.bets[_bettor] */\n      0xffffffffffffffffffffffffffffffffffffffff\n      and\n      0xffffffffffffffffffffffffffffffffffffffff\n      and\n      dup2\n      mstore\n      0x20\n      add\n      swap1\n      dup2\n      mstore\n      0x20\n      add\n      0x00\n      keccak256\n        /* \"packages/chainlink_smart_contracts/bet.sol\":12277:12323  Bet[] storage bets = betInstance.bets[_bettor] */\n      swap1\n      pop\n        /* \"packages/chainlink_smart_contracts/bet.sol\":12346:12355  uint256 j */\n      0x00\n        /* \"packages/chainlink_smart_contracts/bet.sol\":12341:12462  for (uint256 j = 0; j < bets.length; j++) {... */\n    tag_369:\n        /* \"packages/chainlink_smart_contracts/bet.sol\":12365:12369  bets */\n      dup2\n        /* \"packages/chainlink_smart_contracts/bet.sol\":12365:12376  bets.length */\n      dup1\n      sload\n      swap1\n      pop\n        /* \"packages/chainlink_smart_contracts/bet.sol\":12361:12362  j */\n      dup2\n        /* \"packages/chainlink_smart_contracts/bet.sol\":12361:12376  j < bets.length */\n      lt\n        /* \"packages/chainlink_smart_contracts/bet.sol\":12341:12462  for (uint256 j = 0; j < bets.length; j++) {... */\n      iszero\n      tag_370\n      jumpi\n        /* \"packages/chainlink_smart_contracts/bet.sol\":12429:12433  bets */\n      dup2\n        /* \"packages/chainlink_smart_contracts/bet.sol\":12434:12435  j */\n      dup2\n        /* \"packages/chainlink_smart_contracts/bet.sol\":12429:12436  bets[j] */\n      dup2\n      sload\n      dup2\n      lt\n      tag_372\n      jumpi\n      tag_373\n      tag_81\n      jump\t// in\n    tag_373:\n    tag_372:\n      swap1\n      0x00\n      mstore\n      keccak256(0x00, 0x20)\n      swap1\n      0x02\n      mul\n      add\n        /* \"packages/chainlink_smart_contracts/bet.sol\":12429:12443  bets[j].amount */\n      0x01\n      add\n      sload\n        /* \"packages/chainlink_smart_contracts/bet.sol\":12405:12443  totalAmountBetByUser += bets[j].amount */\n      dup4\n      tag_375\n      swap2\n      swap1\n      tag_103\n      jump\t// in\n    tag_375:\n      swap3\n      pop\n        /* \"packages/chainlink_smart_contracts/bet.sol\":12378:12381  j++ */\n      dup1\n      dup1\n      0x01\n      add\n      swap2\n      pop\n      pop\n        /* \"packages/chainlink_smart_contracts/bet.sol\":12341:12462  for (uint256 j = 0; j < bets.length; j++) {... */\n      jump(tag_369)\n    tag_370:\n      pop\n        /* \"packages/chainlink_smart_contracts/bet.sol\":12496:12516  totalAmountBetByUser */\n      dup2\n        /* \"packages/chainlink_smart_contracts/bet.sol\":12479:12486  amounts */\n      dup9\n        /* \"packages/chainlink_smart_contracts/bet.sol\":12487:12492  index */\n      dup7\n        /* \"packages/chainlink_smart_contracts/bet.sol\":12479:12493  amounts[index] */\n      dup2\n      mload\n      dup2\n      lt\n      tag_376\n      jumpi\n      tag_377\n      tag_81\n      jump\t// in\n    tag_377:\n    tag_376:\n      0x20\n      mul\n      0x20\n      add\n      add\n        /* \"packages/chainlink_smart_contracts/bet.sol\":12479:12516  amounts[index] = totalAmountBetByUser */\n      dup2\n      dup2\n      mstore\n      pop\n      pop\n        /* \"packages/chainlink_smart_contracts/bet.sol\":12551:12562  betInstance */\n      dup3\n        /* \"packages/chainlink_smart_contracts/bet.sol\":12551:12570  betInstance.options */\n      0x02\n      add\n        /* \"packages/chainlink_smart_contracts/bet.sol\":12534:12570  options[index] = betInstance.options */\n      dup1\n      sload\n      dup1\n      0x20\n      mul\n      0x20\n      add\n      mload(0x40)\n      swap1\n      dup2\n      add\n      0x40\n      mstore\n      dup1\n      swap3\n      swap2\n      swap1\n      dup2\n      dup2\n      mstore\n      0x20\n      add\n      0x00\n      swap1\n    tag_378:\n      dup3\n      dup3\n      lt\n      iszero\n      tag_379\n      jumpi\n      dup4\n      dup3\n      swap1\n      0x00\n      mstore\n      keccak256(0x00, 0x20)\n      add\n      dup1\n      sload\n      tag_381\n      swap1\n      tag_152\n      jump\t// in\n    tag_381:\n      dup1\n      0x1f\n      add\n      0x20\n      dup1\n      swap2\n      div\n      mul\n      0x20\n      add\n      mload(0x40)\n      swap1\n      dup2\n      add\n      0x40\n      mstore\n      dup1\n      swap3\n      swap2\n      swap1\n      dup2\n      dup2\n      mstore\n      0x20\n      add\n      dup3\n      dup1\n      sload\n      tag_382\n      swap1\n      tag_152\n      jump\t// in\n    tag_382:\n      dup1\n      iszero\n      tag_383\n      jumpi\n      dup1\n      0x1f\n      lt\n      tag_384\n      jumpi\n      0x0100\n      dup1\n      dup4\n      sload\n      div\n      mul\n      dup4\n      mstore\n      swap2\n      0x20\n      add\n      swap2\n      jump(tag_383)\n    tag_384:\n      dup3\n      add\n      swap2\n      swap1\n      0x00\n      mstore\n      keccak256(0x00, 0x20)\n      swap1\n    tag_385:\n      dup2\n      sload\n      dup2\n      mstore\n      swap1\n      0x01\n      add\n      swap1\n      0x20\n      add\n      dup1\n      dup4\n      gt\n      tag_385\n      jumpi\n      dup3\n      swap1\n      sub\n      0x1f\n      and\n      dup3\n      add\n      swap2\n    tag_383:\n      pop\n      pop\n      pop\n      pop\n      pop\n      dup2\n      mstore\n      0x20\n      add\n      swap1\n      0x01\n      add\n      swap1\n      jump(tag_378)\n    tag_379:\n      pop\n      pop\n      pop\n      pop\n        /* \"packages/chainlink_smart_contracts/bet.sol\":12534:12541  options */\n      dup8\n        /* \"packages/chainlink_smart_contracts/bet.sol\":12542:12547  index */\n      dup7\n        /* \"packages/chainlink_smart_contracts/bet.sol\":12534:12548  options[index] */\n      dup2\n      mload\n      dup2\n      lt\n      tag_386\n      jumpi\n      tag_387\n      tag_81\n      jump\t// in\n    tag_387:\n    tag_386:\n      0x20\n      mul\n      0x20\n      add\n      add\n        /* \"packages/chainlink_smart_contracts/bet.sol\":12534:12570  options[index] = betInstance.options */\n      dup2\n      swap1\n      mstore\n      pop\n        /* \"packages/chainlink_smart_contracts/bet.sol\":12589:12596  index++ */\n      dup5\n      dup1\n      tag_388\n      swap1\n      tag_64\n      jump\t// in\n    tag_388:\n      swap6\n      pop\n      pop\n        /* \"packages/chainlink_smart_contracts/bet.sol\":12105:12611  {... */\n      pop\n      pop\n        /* \"packages/chainlink_smart_contracts/bet.sol\":12041:12611  if (betInstance.isOpen && betInstance.bets[_bettor].length > 0) {... */\n    tag_359:\n        /* \"packages/chainlink_smart_contracts/bet.sol\":11963:12621  {... */\n      pop\n        /* \"packages/chainlink_smart_contracts/bet.sol\":11958:11961  i++ */\n      dup1\n      dup1\n      0x01\n      add\n      swap2\n      pop\n      pop\n        /* \"packages/chainlink_smart_contracts/bet.sol\":11923:12621  for (uint256 i = 1; i < nextBetId; i++) {... */\n      jump(tag_355)\n    tag_356:\n      pop\n        /* \"packages/chainlink_smart_contracts/bet.sol\":11254:12627  {... */\n      pop\n      pop\n        /* \"packages/chainlink_smart_contracts/bet.sol\":11037:12627  function getOpenBetsByAddress(address _bettor) external view returns (... */\n      swap2\n      swap4\n      pop\n      swap2\n      swap4\n      jump\t// out\n    tag_75:\n      dup3\n      dup1\n      sload\n      dup3\n      dup3\n      sstore\n      swap1\n      0x00\n      mstore\n      keccak256(0x00, 0x20)\n      swap1\n      dup2\n      add\n      swap3\n      dup3\n      iszero\n      tag_389\n      jumpi\n      swap2\n      0x20\n      mul\n      dup3\n      add\n    tag_390:\n      dup3\n      dup2\n      gt\n      iszero\n      tag_391\n      jumpi\n      dup3\n      mload\n      dup3\n      sstore\n      swap2\n      0x20\n      add\n      swap2\n      swap1\n      0x01\n      add\n      swap1\n      jump(tag_390)\n    tag_391:\n    tag_389:\n      pop\n      swap1\n      pop\n      tag_392\n      swap2\n      swap1\n      tag_393\n      jump\t// in\n    tag_392:\n      pop\n      swap1\n      jump\t// out\n    tag_393:\n    tag_394:\n      dup1\n      dup3\n      gt\n      iszero\n      tag_395\n      jumpi\n      0x00\n      dup2\n      0x00\n      swap1\n      sstore\n      pop\n      0x01\n      add\n      jump(tag_394)\n    tag_395:\n      pop\n      swap1\n      jump\t// out\n        /* \"#utility.yul\":88:205   */\n    tag_397:\n        /* \"#utility.yul\":197:198   */\n      0x00\n        /* \"#utility.yul\":194:195   */\n      dup1\n        /* \"#utility.yul\":187:199   */\n      revert\n        /* \"#utility.yul\":211:328   */\n    tag_398:\n        /* \"#utility.yul\":320:321   */\n      0x00\n        /* \"#utility.yul\":317:318   */\n      dup1\n        /* \"#utility.yul\":310:322   */\n      revert\n        /* \"#utility.yul\":334:451   */\n    tag_399:\n        /* \"#utility.yul\":443:444   */\n      0x00\n        /* \"#utility.yul\":440:441   */\n      dup1\n        /* \"#utility.yul\":433:445   */\n      revert\n        /* \"#utility.yul\":457:574   */\n    tag_400:\n        /* \"#utility.yul\":566:567   */\n      0x00\n        /* \"#utility.yul\":563:564   */\n      dup1\n        /* \"#utility.yul\":556:568   */\n      revert\n        /* \"#utility.yul\":580:697   */\n    tag_401:\n        /* \"#utility.yul\":689:690   */\n      0x00\n        /* \"#utility.yul\":686:687   */\n      dup1\n        /* \"#utility.yul\":679:691   */\n      revert\n        /* \"#utility.yul\":717:1270   */\n    tag_402:\n        /* \"#utility.yul\":775:783   */\n      0x00\n        /* \"#utility.yul\":785:791   */\n      dup1\n        /* \"#utility.yul\":835:838   */\n      dup4\n        /* \"#utility.yul\":828:832   */\n      0x1f\n        /* \"#utility.yul\":820:826   */\n      dup5\n        /* \"#utility.yul\":816:833   */\n      add\n        /* \"#utility.yul\":812:839   */\n      slt\n        /* \"#utility.yul\":802:924   */\n      tag_529\n      jumpi\n        /* \"#utility.yul\":843:922   */\n      tag_530\n      tag_399\n      jump\t// in\n    tag_530:\n        /* \"#utility.yul\":802:924   */\n    tag_529:\n        /* \"#utility.yul\":956:962   */\n      dup3\n        /* \"#utility.yul\":943:963   */\n      calldataload\n        /* \"#utility.yul\":933:963   */\n      swap1\n      pop\n        /* \"#utility.yul\":986:1004   */\n      0xffffffffffffffff\n        /* \"#utility.yul\":978:984   */\n      dup2\n        /* \"#utility.yul\":975:1005   */\n      gt\n        /* \"#utility.yul\":972:1089   */\n      iszero\n      tag_531\n      jumpi\n        /* \"#utility.yul\":1008:1087   */\n      tag_532\n      tag_400\n      jump\t// in\n    tag_532:\n        /* \"#utility.yul\":972:1089   */\n    tag_531:\n        /* \"#utility.yul\":1122:1126   */\n      0x20\n        /* \"#utility.yul\":1114:1120   */\n      dup4\n        /* \"#utility.yul\":1110:1127   */\n      add\n        /* \"#utility.yul\":1098:1127   */\n      swap2\n      pop\n        /* \"#utility.yul\":1176:1179   */\n      dup4\n        /* \"#utility.yul\":1168:1172   */\n      0x01\n        /* \"#utility.yul\":1160:1166   */\n      dup3\n        /* \"#utility.yul\":1156:1173   */\n      mul\n        /* \"#utility.yul\":1146:1154   */\n      dup4\n        /* \"#utility.yul\":1142:1174   */\n      add\n        /* \"#utility.yul\":1139:1180   */\n      gt\n        /* \"#utility.yul\":1136:1264   */\n      iszero\n      tag_533\n      jumpi\n        /* \"#utility.yul\":1183:1262   */\n      tag_534\n      tag_401\n      jump\t// in\n    tag_534:\n        /* \"#utility.yul\":1136:1264   */\n    tag_533:\n        /* \"#utility.yul\":717:1270   */\n      swap3\n      pop\n      swap3\n      swap1\n      pop\n      jump\t// out\n        /* \"#utility.yul\":1276:1362   */\n    tag_403:\n        /* \"#utility.yul\":1311:1318   */\n      0x00\n        /* \"#utility.yul\":1351:1355   */\n      0xff\n        /* \"#utility.yul\":1344:1349   */\n      dup3\n        /* \"#utility.yul\":1340:1356   */\n      and\n        /* \"#utility.yul\":1329:1356   */\n      swap1\n      pop\n        /* \"#utility.yul\":1276:1362   */\n      swap2\n      swap1\n      pop\n      jump\t// out\n        /* \"#utility.yul\":1368:1486   */\n    tag_404:\n        /* \"#utility.yul\":1439:1461   */\n      tag_537\n        /* \"#utility.yul\":1455:1460   */\n      dup2\n        /* \"#utility.yul\":1439:1461   */\n      tag_403\n      jump\t// in\n    tag_537:\n        /* \"#utility.yul\":1432:1437   */\n      dup2\n        /* \"#utility.yul\":1429:1462   */\n      eq\n        /* \"#utility.yul\":1419:1480   */\n      tag_538\n      jumpi\n        /* \"#utility.yul\":1476:1477   */\n      0x00\n        /* \"#utility.yul\":1473:1474   */\n      dup1\n        /* \"#utility.yul\":1466:1478   */\n      revert\n        /* \"#utility.yul\":1419:1480   */\n    tag_538:\n        /* \"#utility.yul\":1368:1486   */\n      pop\n      jump\t// out\n        /* \"#utility.yul\":1492:1627   */\n    tag_405:\n        /* \"#utility.yul\":1536:1541   */\n      0x00\n        /* \"#utility.yul\":1574:1580   */\n      dup2\n        /* \"#utility.yul\":1561:1581   */\n      calldataload\n        /* \"#utility.yul\":1552:1581   */\n      swap1\n      pop\n        /* \"#utility.yul\":1590:1621   */\n      tag_540\n        /* \"#utility.yul\":1615:1620   */\n      dup2\n        /* \"#utility.yul\":1590:1621   */\n      tag_404\n      jump\t// in\n    tag_540:\n        /* \"#utility.yul\":1492:1627   */\n      swap3\n      swap2\n      pop\n      pop\n      jump\t// out\n        /* \"#utility.yul\":1649:2229   */\n    tag_406:\n        /* \"#utility.yul\":1734:1742   */\n      0x00\n        /* \"#utility.yul\":1744:1750   */\n      dup1\n        /* \"#utility.yul\":1794:1797   */\n      dup4\n        /* \"#utility.yul\":1787:1791   */\n      0x1f\n        /* \"#utility.yul\":1779:1785   */\n      dup5\n        /* \"#utility.yul\":1775:1792   */\n      add\n        /* \"#utility.yul\":1771:1798   */\n      slt\n        /* \"#utility.yul\":1761:1883   */\n      tag_542\n      jumpi\n        /* \"#utility.yul\":1802:1881   */\n      tag_543\n      tag_399\n      jump\t// in\n    tag_543:\n        /* \"#utility.yul\":1761:1883   */\n    tag_542:\n        /* \"#utility.yul\":1915:1921   */\n      dup3\n        /* \"#utility.yul\":1902:1922   */\n      calldataload\n        /* \"#utility.yul\":1892:1922   */\n      swap1\n      pop\n        /* \"#utility.yul\":1945:1963   */\n      0xffffffffffffffff\n        /* \"#utility.yul\":1937:1943   */\n      dup2\n        /* \"#utility.yul\":1934:1964   */\n      gt\n        /* \"#utility.yul\":1931:2048   */\n      iszero\n      tag_544\n      jumpi\n        /* \"#utility.yul\":1967:2046   */\n      tag_545\n      tag_400\n      jump\t// in\n    tag_545:\n        /* \"#utility.yul\":1931:2048   */\n    tag_544:\n        /* \"#utility.yul\":2081:2085   */\n      0x20\n        /* \"#utility.yul\":2073:2079   */\n      dup4\n        /* \"#utility.yul\":2069:2086   */\n      add\n        /* \"#utility.yul\":2057:2086   */\n      swap2\n      pop\n        /* \"#utility.yul\":2135:2138   */\n      dup4\n        /* \"#utility.yul\":2127:2131   */\n      0x20\n        /* \"#utility.yul\":2119:2125   */\n      dup3\n        /* \"#utility.yul\":2115:2132   */\n      mul\n        /* \"#utility.yul\":2105:2113   */\n      dup4\n        /* \"#utility.yul\":2101:2133   */\n      add\n        /* \"#utility.yul\":2098:2139   */\n      gt\n        /* \"#utility.yul\":2095:2223   */\n      iszero\n      tag_546\n      jumpi\n        /* \"#utility.yul\":2142:2221   */\n      tag_547\n      tag_401\n      jump\t// in\n    tag_547:\n        /* \"#utility.yul\":2095:2223   */\n    tag_546:\n        /* \"#utility.yul\":1649:2229   */\n      swap3\n      pop\n      swap3\n      swap1\n      pop\n      jump\t// out\n        /* \"#utility.yul\":2235:2312   */\n    tag_407:\n        /* \"#utility.yul\":2272:2279   */\n      0x00\n        /* \"#utility.yul\":2301:2306   */\n      dup2\n        /* \"#utility.yul\":2290:2306   */\n      swap1\n      pop\n        /* \"#utility.yul\":2235:2312   */\n      swap2\n      swap1\n      pop\n      jump\t// out\n        /* \"#utility.yul\":2318:2440   */\n    tag_408:\n        /* \"#utility.yul\":2391:2415   */\n      tag_550\n        /* \"#utility.yul\":2409:2414   */\n      dup2\n        /* \"#utility.yul\":2391:2415   */\n      tag_407\n      jump\t// in\n    tag_550:\n        /* \"#utility.yul\":2384:2389   */\n      dup2\n        /* \"#utility.yul\":2381:2416   */\n      eq\n        /* \"#utility.yul\":2371:2434   */\n      tag_551\n      jumpi\n        /* \"#utility.yul\":2430:2431   */\n      0x00\n        /* \"#utility.yul\":2427:2428   */\n      dup1\n        /* \"#utility.yul\":2420:2432   */\n      revert\n        /* \"#utility.yul\":2371:2434   */\n    tag_551:\n        /* \"#utility.yul\":2318:2440   */\n      pop\n      jump\t// out\n        /* \"#utility.yul\":2446:2585   */\n    tag_409:\n        /* \"#utility.yul\":2492:2497   */\n      0x00\n        /* \"#utility.yul\":2530:2536   */\n      dup2\n        /* \"#utility.yul\":2517:2537   */\n      calldataload\n        /* \"#utility.yul\":2508:2537   */\n      swap1\n      pop\n        /* \"#utility.yul\":2546:2579   */\n      tag_553\n        /* \"#utility.yul\":2573:2578   */\n      dup2\n        /* \"#utility.yul\":2546:2579   */\n      tag_408\n      jump\t// in\n    tag_553:\n        /* \"#utility.yul\":2446:2585   */\n      swap3\n      swap2\n      pop\n      pop\n      jump\t// out\n        /* \"#utility.yul\":2591:2717   */\n    tag_410:\n        /* \"#utility.yul\":2628:2635   */\n      0x00\n        /* \"#utility.yul\":2668:2710   */\n      0xffffffffffffffffffffffffffffffffffffffff\n        /* \"#utility.yul\":2661:2666   */\n      dup3\n        /* \"#utility.yul\":2657:2711   */\n      and\n        /* \"#utility.yul\":2646:2711   */\n      swap1\n      pop\n        /* \"#utility.yul\":2591:2717   */\n      swap2\n      swap1\n      pop\n      jump\t// out\n        /* \"#utility.yul\":2723:2819   */\n    tag_411:\n        /* \"#utility.yul\":2760:2767   */\n      0x00\n        /* \"#utility.yul\":2789:2813   */\n      tag_556\n        /* \"#utility.yul\":2807:2812   */\n      dup3\n        /* \"#utility.yul\":2789:2813   */\n      tag_410\n      jump\t// in\n    tag_556:\n        /* \"#utility.yul\":2778:2813   */\n      swap1\n      pop\n        /* \"#utility.yul\":2723:2819   */\n      swap2\n      swap1\n      pop\n      jump\t// out\n        /* \"#utility.yul\":2825:2947   */\n    tag_412:\n        /* \"#utility.yul\":2898:2922   */\n      tag_558\n        /* \"#utility.yul\":2916:2921   */\n      dup2\n        /* \"#utility.yul\":2898:2922   */\n      tag_411\n      jump\t// in\n    tag_558:\n        /* \"#utility.yul\":2891:2896   */\n      dup2\n        /* \"#utility.yul\":2888:2923   */\n      eq\n        /* \"#utility.yul\":2878:2941   */\n      tag_559\n      jumpi\n        /* \"#utility.yul\":2937:2938   */\n      0x00\n        /* \"#utility.yul\":2934:2935   */\n      dup1\n        /* \"#utility.yul\":2927:2939   */\n      revert\n        /* \"#utility.yul\":2878:2941   */\n    tag_559:\n        /* \"#utility.yul\":2825:2947   */\n      pop\n      jump\t// out\n        /* \"#utility.yul\":2953:3092   */\n    tag_413:\n        /* \"#utility.yul\":2999:3004   */\n      0x00\n        /* \"#utility.yul\":3037:3043   */\n      dup2\n        /* \"#utility.yul\":3024:3044   */\n      calldataload\n        /* \"#utility.yul\":3015:3044   */\n      swap1\n      pop\n        /* \"#utility.yul\":3053:3086   */\n      tag_561\n        /* \"#utility.yul\":3080:3085   */\n      dup2\n        /* \"#utility.yul\":3053:3086   */\n      tag_412\n      jump\t// in\n    tag_561:\n        /* \"#utility.yul\":2953:3092   */\n      swap3\n      swap2\n      pop\n      pop\n      jump\t// out\n        /* \"#utility.yul\":3098:4459   */\n    tag_15:\n        /* \"#utility.yul\":3242:3248   */\n      0x00\n        /* \"#utility.yul\":3250:3256   */\n      dup1\n        /* \"#utility.yul\":3258:3264   */\n      0x00\n        /* \"#utility.yul\":3266:3272   */\n      dup1\n        /* \"#utility.yul\":3274:3280   */\n      0x00\n        /* \"#utility.yul\":3282:3288   */\n      dup1\n        /* \"#utility.yul\":3290:3296   */\n      0x00\n        /* \"#utility.yul\":3339:3342   */\n      0xa0\n        /* \"#utility.yul\":3327:3336   */\n      dup9\n        /* \"#utility.yul\":3318:3325   */\n      dup11\n        /* \"#utility.yul\":3314:3337   */\n      sub\n        /* \"#utility.yul\":3310:3343   */\n      slt\n        /* \"#utility.yul\":3307:3427   */\n      iszero\n      tag_563\n      jumpi\n        /* \"#utility.yul\":3346:3425   */\n      tag_564\n      tag_397\n      jump\t// in\n    tag_564:\n        /* \"#utility.yul\":3307:3427   */\n    tag_563:\n        /* \"#utility.yul\":3494:3495   */\n      0x00\n        /* \"#utility.yul\":3483:3492   */\n      dup9\n        /* \"#utility.yul\":3479:3496   */\n      add\n        /* \"#utility.yul\":3466:3497   */\n      calldataload\n        /* \"#utility.yul\":3524:3542   */\n      0xffffffffffffffff\n        /* \"#utility.yul\":3516:3522   */\n      dup2\n        /* \"#utility.yul\":3513:3543   */\n      gt\n        /* \"#utility.yul\":3510:3627   */\n      iszero\n      tag_565\n      jumpi\n        /* \"#utility.yul\":3546:3625   */\n      tag_566\n      tag_398\n      jump\t// in\n    tag_566:\n        /* \"#utility.yul\":3510:3627   */\n    tag_565:\n        /* \"#utility.yul\":3659:3724   */\n      tag_567\n        /* \"#utility.yul\":3716:3723   */\n      dup11\n        /* \"#utility.yul\":3707:3713   */\n      dup3\n        /* \"#utility.yul\":3696:3705   */\n      dup12\n        /* \"#utility.yul\":3692:3714   */\n      add\n        /* \"#utility.yul\":3659:3724   */\n      tag_402\n      jump\t// in\n    tag_567:\n        /* \"#utility.yul\":3641:3724   */\n      swap8\n      pop\n      swap8\n      pop\n        /* \"#utility.yul\":3437:3734   */\n      pop\n        /* \"#utility.yul\":3773:3775   */\n      0x20\n        /* \"#utility.yul\":3799:3850   */\n      tag_568\n        /* \"#utility.yul\":3842:3849   */\n      dup11\n        /* \"#utility.yul\":3833:3839   */\n      dup3\n        /* \"#utility.yul\":3822:3831   */\n      dup12\n        /* \"#utility.yul\":3818:3840   */\n      add\n        /* \"#utility.yul\":3799:3850   */\n      tag_405\n      jump\t// in\n    tag_568:\n        /* \"#utility.yul\":3789:3850   */\n      swap6\n      pop\n        /* \"#utility.yul\":3744:3860   */\n      pop\n        /* \"#utility.yul\":3927:3929   */\n      0x40\n        /* \"#utility.yul\":3916:3925   */\n      dup9\n        /* \"#utility.yul\":3912:3930   */\n      add\n        /* \"#utility.yul\":3899:3931   */\n      calldataload\n        /* \"#utility.yul\":3958:3976   */\n      0xffffffffffffffff\n        /* \"#utility.yul\":3950:3956   */\n      dup2\n        /* \"#utility.yul\":3947:3977   */\n      gt\n        /* \"#utility.yul\":3944:4061   */\n      iszero\n      tag_569\n      jumpi\n        /* \"#utility.yul\":3980:4059   */\n      tag_570\n      tag_398\n      jump\t// in\n    tag_570:\n        /* \"#utility.yul\":3944:4061   */\n    tag_569:\n        /* \"#utility.yul\":4093:4185   */\n      tag_571\n        /* \"#utility.yul\":4177:4184   */\n      dup11\n        /* \"#utility.yul\":4168:4174   */\n      dup3\n        /* \"#utility.yul\":4157:4166   */\n      dup12\n        /* \"#utility.yul\":4153:4175   */\n      add\n        /* \"#utility.yul\":4093:4185   */\n      tag_406\n      jump\t// in\n    tag_571:\n        /* \"#utility.yul\":4075:4185   */\n      swap5\n      pop\n      swap5\n      pop\n        /* \"#utility.yul\":3870:4195   */\n      pop\n        /* \"#utility.yul\":4234:4236   */\n      0x60\n        /* \"#utility.yul\":4260:4313   */\n      tag_572\n        /* \"#utility.yul\":4305:4312   */\n      dup11\n        /* \"#utility.yul\":4296:4302   */\n      dup3\n        /* \"#utility.yul\":4285:4294   */\n      dup12\n        /* \"#utility.yul\":4281:4303   */\n      add\n        /* \"#utility.yul\":4260:4313   */\n      tag_409\n      jump\t// in\n    tag_572:\n        /* \"#utility.yul\":4250:4313   */\n      swap3\n      pop\n        /* \"#utility.yul\":4205:4323   */\n      pop\n        /* \"#utility.yul\":4362:4365   */\n      0x80\n        /* \"#utility.yul\":4389:4442   */\n      tag_573\n        /* \"#utility.yul\":4434:4441   */\n      dup11\n        /* \"#utility.yul\":4425:4431   */\n      dup3\n        /* \"#utility.yul\":4414:4423   */\n      dup12\n        /* \"#utility.yul\":4410:4432   */\n      add\n        /* \"#utility.yul\":4389:4442   */\n      tag_413\n      jump\t// in\n    tag_573:\n        /* \"#utility.yul\":4379:4442   */\n      swap2\n      pop\n        /* \"#utility.yul\":4333:4452   */\n      pop\n        /* \"#utility.yul\":3098:4459   */\n      swap3\n      swap6\n      swap9\n      swap2\n      swap5\n      swap8\n      pop\n      swap3\n      swap6\n      pop\n      jump\t// out\n        /* \"#utility.yul\":4465:4794   */\n    tag_19:\n        /* \"#utility.yul\":4524:4530   */\n      0x00\n        /* \"#utility.yul\":4573:4575   */\n      0x20\n        /* \"#utility.yul\":4561:4570   */\n      dup3\n        /* \"#utility.yul\":4552:4559   */\n      dup5\n        /* \"#utility.yul\":4548:4571   */\n      sub\n        /* \"#utility.yul\":4544:4576   */\n      slt\n        /* \"#utility.yul\":4541:4660   */\n      iszero\n      tag_575\n      jumpi\n        /* \"#utility.yul\":4579:4658   */\n      tag_576\n      tag_397\n      jump\t// in\n    tag_576:\n        /* \"#utility.yul\":4541:4660   */\n    tag_575:\n        /* \"#utility.yul\":4699:4700   */\n      0x00\n        /* \"#utility.yul\":4724:4777   */\n      tag_577\n        /* \"#utility.yul\":4769:4776   */\n      dup5\n        /* \"#utility.yul\":4760:4766   */\n      dup3\n        /* \"#utility.yul\":4749:4758   */\n      dup6\n        /* \"#utility.yul\":4745:4767   */\n      add\n        /* \"#utility.yul\":4724:4777   */\n      tag_409\n      jump\t// in\n    tag_577:\n        /* \"#utility.yul\":4714:4777   */\n      swap2\n      pop\n        /* \"#utility.yul\":4670:4787   */\n      pop\n        /* \"#utility.yul\":4465:4794   */\n      swap3\n      swap2\n      pop\n      pop\n      jump\t// out\n        /* \"#utility.yul\":4800:4918   */\n    tag_414:\n        /* \"#utility.yul\":4887:4911   */\n      tag_579\n        /* \"#utility.yul\":4905:4910   */\n      dup2\n        /* \"#utility.yul\":4887:4911   */\n      tag_411\n      jump\t// in\n    tag_579:\n        /* \"#utility.yul\":4882:4885   */\n      dup3\n        /* \"#utility.yul\":4875:4912   */\n      mstore\n        /* \"#utility.yul\":4800:4918   */\n      pop\n      pop\n      jump\t// out\n        /* \"#utility.yul\":4924:5023   */\n    tag_415:\n        /* \"#utility.yul\":4976:4982   */\n      0x00\n        /* \"#utility.yul\":5010:5015   */\n      dup2\n        /* \"#utility.yul\":5004:5016   */\n      mload\n        /* \"#utility.yul\":4994:5016   */\n      swap1\n      pop\n        /* \"#utility.yul\":4924:5023   */\n      swap2\n      swap1\n      pop\n      jump\t// out\n        /* \"#utility.yul\":5029:5198   */\n    tag_416:\n        /* \"#utility.yul\":5113:5124   */\n      0x00\n        /* \"#utility.yul\":5147:5153   */\n      dup3\n        /* \"#utility.yul\":5142:5145   */\n      dup3\n        /* \"#utility.yul\":5135:5154   */\n      mstore\n        /* \"#utility.yul\":5187:5191   */\n      0x20\n        /* \"#utility.yul\":5182:5185   */\n      dup3\n        /* \"#utility.yul\":5178:5192   */\n      add\n        /* \"#utility.yul\":5163:5192   */\n      swap1\n      pop\n        /* \"#utility.yul\":5029:5198   */\n      swap3\n      swap2\n      pop\n      pop\n      jump\t// out\n        /* \"#utility.yul\":5204:5343   */\n    tag_417:\n        /* \"#utility.yul\":5293:5299   */\n      dup3\n        /* \"#utility.yul\":5288:5291   */\n      dup2\n        /* \"#utility.yul\":5283:5286   */\n      dup4\n        /* \"#utility.yul\":5277:5300   */\n      mcopy\n        /* \"#utility.yul\":5334:5335   */\n      0x00\n        /* \"#utility.yul\":5325:5331   */\n      dup4\n        /* \"#utility.yul\":5320:5323   */\n      dup4\n        /* \"#utility.yul\":5316:5332   */\n      add\n        /* \"#utility.yul\":5309:5336   */\n      mstore\n        /* \"#utility.yul\":5204:5343   */\n      pop\n      pop\n      pop\n      jump\t// out\n        /* \"#utility.yul\":5349:5451   */\n    tag_418:\n        /* \"#utility.yul\":5390:5396   */\n      0x00\n        /* \"#utility.yul\":5441:5443   */\n      0x1f\n        /* \"#utility.yul\":5437:5444   */\n      not\n        /* \"#utility.yul\":5432:5434   */\n      0x1f\n        /* \"#utility.yul\":5425:5430   */\n      dup4\n        /* \"#utility.yul\":5421:5435   */\n      add\n        /* \"#utility.yul\":5417:5445   */\n      and\n        /* \"#utility.yul\":5407:5445   */\n      swap1\n      pop\n        /* \"#utility.yul\":5349:5451   */\n      swap2\n      swap1\n      pop\n      jump\t// out\n        /* \"#utility.yul\":5457:5834   */\n    tag_419:\n        /* \"#utility.yul\":5545:5548   */\n      0x00\n        /* \"#utility.yul\":5573:5612   */\n      tag_585\n        /* \"#utility.yul\":5606:5611   */\n      dup3\n        /* \"#utility.yul\":5573:5612   */\n      tag_415\n      jump\t// in\n    tag_585:\n        /* \"#utility.yul\":5628:5699   */\n      tag_586\n        /* \"#utility.yul\":5692:5698   */\n      dup2\n        /* \"#utility.yul\":5687:5690   */\n      dup6\n        /* \"#utility.yul\":5628:5699   */\n      tag_416\n      jump\t// in\n    tag_586:\n        /* \"#utility.yul\":5621:5699   */\n      swap4\n      pop\n        /* \"#utility.yul\":5708:5773   */\n      tag_587\n        /* \"#utility.yul\":5766:5772   */\n      dup2\n        /* \"#utility.yul\":5761:5764   */\n      dup6\n        /* \"#utility.yul\":5754:5758   */\n      0x20\n        /* \"#utility.yul\":5747:5752   */\n      dup7\n        /* \"#utility.yul\":5743:5759   */\n      add\n        /* \"#utility.yul\":5708:5773   */\n      tag_417\n      jump\t// in\n    tag_587:\n        /* \"#utility.yul\":5798:5827   */\n      tag_588\n        /* \"#utility.yul\":5820:5826   */\n      dup2\n        /* \"#utility.yul\":5798:5827   */\n      tag_418\n      jump\t// in\n    tag_588:\n        /* \"#utility.yul\":5793:5796   */\n      dup5\n        /* \"#utility.yul\":5789:5828   */\n      add\n        /* \"#utility.yul\":5782:5828   */\n      swap2\n      pop\n        /* \"#utility.yul\":5549:5834   */\n      pop\n        /* \"#utility.yul\":5457:5834   */\n      swap3\n      swap2\n      pop\n      pop\n      jump\t// out\n        /* \"#utility.yul\":5840:5964   */\n    tag_420:\n        /* \"#utility.yul\":5917:5923   */\n      0x00\n        /* \"#utility.yul\":5951:5956   */\n      dup2\n        /* \"#utility.yul\":5945:5957   */\n      mload\n        /* \"#utility.yul\":5935:5957   */\n      swap1\n      pop\n        /* \"#utility.yul\":5840:5964   */\n      swap2\n      swap1\n      pop\n      jump\t// out\n        /* \"#utility.yul\":5970:6164   */\n    tag_421:\n        /* \"#utility.yul\":6079:6090   */\n      0x00\n        /* \"#utility.yul\":6113:6119   */\n      dup3\n        /* \"#utility.yul\":6108:6111   */\n      dup3\n        /* \"#utility.yul\":6101:6120   */\n      mstore\n        /* \"#utility.yul\":6153:6157   */\n      0x20\n        /* \"#utility.yul\":6148:6151   */\n      dup3\n        /* \"#utility.yul\":6144:6158   */\n      add\n        /* \"#utility.yul\":6129:6158   */\n      swap1\n      pop\n        /* \"#utility.yul\":5970:6164   */\n      swap3\n      swap2\n      pop\n      pop\n      jump\t// out\n        /* \"#utility.yul\":6170:6312   */\n    tag_422:\n        /* \"#utility.yul\":6247:6251   */\n      0x00\n        /* \"#utility.yul\":6270:6273   */\n      dup2\n        /* \"#utility.yul\":6262:6273   */\n      swap1\n      pop\n        /* \"#utility.yul\":6300:6304   */\n      0x20\n        /* \"#utility.yul\":6295:6298   */\n      dup3\n        /* \"#utility.yul\":6291:6305   */\n      add\n        /* \"#utility.yul\":6283:6305   */\n      swap1\n      pop\n        /* \"#utility.yul\":6170:6312   */\n      swap2\n      swap1\n      pop\n      jump\t// out\n        /* \"#utility.yul\":6318:6477   */\n    tag_423:\n        /* \"#utility.yul\":6392:6403   */\n      0x00\n        /* \"#utility.yul\":6426:6432   */\n      dup3\n        /* \"#utility.yul\":6421:6424   */\n      dup3\n        /* \"#utility.yul\":6414:6433   */\n      mstore\n        /* \"#utility.yul\":6466:6470   */\n      0x20\n        /* \"#utility.yul\":6461:6464   */\n      dup3\n        /* \"#utility.yul\":6457:6471   */\n      add\n        /* \"#utility.yul\":6442:6471   */\n      swap1\n      pop\n        /* \"#utility.yul\":6318:6477   */\n      swap3\n      swap2\n      pop\n      pop\n      jump\t// out\n        /* \"#utility.yul\":6483:6840   */\n    tag_424:\n        /* \"#utility.yul\":6561:6564   */\n      0x00\n        /* \"#utility.yul\":6589:6628   */\n      tag_594\n        /* \"#utility.yul\":6622:6627   */\n      dup3\n        /* \"#utility.yul\":6589:6628   */\n      tag_415\n      jump\t// in\n    tag_594:\n        /* \"#utility.yul\":6644:6705   */\n      tag_595\n        /* \"#utility.yul\":6698:6704   */\n      dup2\n        /* \"#utility.yul\":6693:6696   */\n      dup6\n        /* \"#utility.yul\":6644:6705   */\n      tag_423\n      jump\t// in\n    tag_595:\n        /* \"#utility.yul\":6637:6705   */\n      swap4\n      pop\n        /* \"#utility.yul\":6714:6779   */\n      tag_596\n        /* \"#utility.yul\":6772:6778   */\n      dup2\n        /* \"#utility.yul\":6767:6770   */\n      dup6\n        /* \"#utility.yul\":6760:6764   */\n      0x20\n        /* \"#utility.yul\":6753:6758   */\n      dup7\n        /* \"#utility.yul\":6749:6765   */\n      add\n        /* \"#utility.yul\":6714:6779   */\n      tag_417\n      jump\t// in\n    tag_596:\n        /* \"#utility.yul\":6804:6833   */\n      tag_597\n        /* \"#utility.yul\":6826:6832   */\n      dup2\n        /* \"#utility.yul\":6804:6833   */\n      tag_418\n      jump\t// in\n    tag_597:\n        /* \"#utility.yul\":6799:6802   */\n      dup5\n        /* \"#utility.yul\":6795:6834   */\n      add\n        /* \"#utility.yul\":6788:6834   */\n      swap2\n      pop\n        /* \"#utility.yul\":6565:6840   */\n      pop\n        /* \"#utility.yul\":6483:6840   */\n      swap3\n      swap2\n      pop\n      pop\n      jump\t// out\n        /* \"#utility.yul\":6846:7042   */\n    tag_425:\n        /* \"#utility.yul\":6935:6945   */\n      0x00\n        /* \"#utility.yul\":6970:7036   */\n      tag_599\n        /* \"#utility.yul\":7032:7035   */\n      dup4\n        /* \"#utility.yul\":7024:7030   */\n      dup4\n        /* \"#utility.yul\":6970:7036   */\n      tag_424\n      jump\t// in\n    tag_599:\n        /* \"#utility.yul\":6956:7036   */\n      swap1\n      pop\n        /* \"#utility.yul\":6846:7042   */\n      swap3\n      swap2\n      pop\n      pop\n      jump\t// out\n        /* \"#utility.yul\":7048:7171   */\n    tag_426:\n        /* \"#utility.yul\":7128:7132   */\n      0x00\n        /* \"#utility.yul\":7160:7164   */\n      0x20\n        /* \"#utility.yul\":7155:7158   */\n      dup3\n        /* \"#utility.yul\":7151:7165   */\n      add\n        /* \"#utility.yul\":7143:7165   */\n      swap1\n      pop\n        /* \"#utility.yul\":7048:7171   */\n      swap2\n      swap1\n      pop\n      jump\t// out\n        /* \"#utility.yul\":7205:8196   */\n    tag_427:\n        /* \"#utility.yul\":7344:7347   */\n      0x00\n        /* \"#utility.yul\":7373:7437   */\n      tag_602\n        /* \"#utility.yul\":7431:7436   */\n      dup3\n        /* \"#utility.yul\":7373:7437   */\n      tag_420\n      jump\t// in\n    tag_602:\n        /* \"#utility.yul\":7453:7549   */\n      tag_603\n        /* \"#utility.yul\":7542:7548   */\n      dup2\n        /* \"#utility.yul\":7537:7540   */\n      dup6\n        /* \"#utility.yul\":7453:7549   */\n      tag_421\n      jump\t// in\n    tag_603:\n        /* \"#utility.yul\":7446:7549   */\n      swap4\n      pop\n        /* \"#utility.yul\":7575:7578   */\n      dup4\n        /* \"#utility.yul\":7620:7624   */\n      0x20\n        /* \"#utility.yul\":7612:7618   */\n      dup3\n        /* \"#utility.yul\":7608:7625   */\n      mul\n        /* \"#utility.yul\":7603:7606   */\n      dup6\n        /* \"#utility.yul\":7599:7626   */\n      add\n        /* \"#utility.yul\":7650:7716   */\n      tag_604\n        /* \"#utility.yul\":7710:7715   */\n      dup6\n        /* \"#utility.yul\":7650:7716   */\n      tag_422\n      jump\t// in\n    tag_604:\n        /* \"#utility.yul\":7739:7746   */\n      dup1\n        /* \"#utility.yul\":7770:7771   */\n      0x00\n        /* \"#utility.yul\":7755:8151   */\n    tag_605:\n        /* \"#utility.yul\":7780:7786   */\n      dup6\n        /* \"#utility.yul\":7777:7778   */\n      dup2\n        /* \"#utility.yul\":7774:7787   */\n      lt\n        /* \"#utility.yul\":7755:8151   */\n      iszero\n      tag_607\n      jumpi\n        /* \"#utility.yul\":7851:7860   */\n      dup5\n        /* \"#utility.yul\":7845:7849   */\n      dup5\n        /* \"#utility.yul\":7841:7861   */\n      sub\n        /* \"#utility.yul\":7836:7839   */\n      dup10\n        /* \"#utility.yul\":7829:7862   */\n      mstore\n        /* \"#utility.yul\":7902:7908   */\n      dup2\n        /* \"#utility.yul\":7896:7909   */\n      mload\n        /* \"#utility.yul\":7930:8014   */\n      tag_608\n        /* \"#utility.yul\":8009:8013   */\n      dup6\n        /* \"#utility.yul\":7994:8007   */\n      dup3\n        /* \"#utility.yul\":7930:8014   */\n      tag_425\n      jump\t// in\n    tag_608:\n        /* \"#utility.yul\":7922:8014   */\n      swap5\n      pop\n        /* \"#utility.yul\":8037:8107   */\n      tag_609\n        /* \"#utility.yul\":8100:8106   */\n      dup4\n        /* \"#utility.yul\":8037:8107   */\n      tag_426\n      jump\t// in\n    tag_609:\n        /* \"#utility.yul\":8027:8107   */\n      swap3\n      pop\n        /* \"#utility.yul\":8136:8140   */\n      0x20\n        /* \"#utility.yul\":8131:8134   */\n      dup11\n        /* \"#utility.yul\":8127:8141   */\n      add\n        /* \"#utility.yul\":8120:8141   */\n      swap10\n      pop\n        /* \"#utility.yul\":7815:8151   */\n      pop\n        /* \"#utility.yul\":7802:7803   */\n      0x01\n        /* \"#utility.yul\":7799:7800   */\n      dup2\n        /* \"#utility.yul\":7795:7804   */\n      add\n        /* \"#utility.yul\":7790:7804   */\n      swap1\n      pop\n        /* \"#utility.yul\":7755:8151   */\n      jump(tag_605)\n    tag_607:\n        /* \"#utility.yul\":7759:7773   */\n      pop\n        /* \"#utility.yul\":8167:8171   */\n      dup3\n        /* \"#utility.yul\":8160:8171   */\n      swap8\n      pop\n        /* \"#utility.yul\":8187:8190   */\n      dup8\n        /* \"#utility.yul\":8180:8190   */\n      swap6\n      pop\n        /* \"#utility.yul\":7349:8196   */\n      pop\n      pop\n      pop\n      pop\n      pop\n        /* \"#utility.yul\":7205:8196   */\n      swap3\n      swap2\n      pop\n      pop\n      jump\t// out\n        /* \"#utility.yul\":8202:8292   */\n    tag_428:\n        /* \"#utility.yul\":8236:8243   */\n      0x00\n        /* \"#utility.yul\":8279:8284   */\n      dup2\n        /* \"#utility.yul\":8272:8285   */\n      iszero\n        /* \"#utility.yul\":8265:8286   */\n      iszero\n        /* \"#utility.yul\":8254:8286   */\n      swap1\n      pop\n        /* \"#utility.yul\":8202:8292   */\n      swap2\n      swap1\n      pop\n      jump\t// out\n        /* \"#utility.yul\":8298:8407   */\n    tag_429:\n        /* \"#utility.yul\":8379:8400   */\n      tag_612\n        /* \"#utility.yul\":8394:8399   */\n      dup2\n        /* \"#utility.yul\":8379:8400   */\n      tag_428\n      jump\t// in\n    tag_612:\n        /* \"#utility.yul\":8374:8377   */\n      dup3\n        /* \"#utility.yul\":8367:8401   */\n      mstore\n        /* \"#utility.yul\":8298:8407   */\n      pop\n      pop\n      jump\t// out\n        /* \"#utility.yul\":8413:8531   */\n    tag_430:\n        /* \"#utility.yul\":8500:8524   */\n      tag_614\n        /* \"#utility.yul\":8518:8523   */\n      dup2\n        /* \"#utility.yul\":8500:8524   */\n      tag_407\n      jump\t// in\n    tag_614:\n        /* \"#utility.yul\":8495:8498   */\n      dup3\n        /* \"#utility.yul\":8488:8525   */\n      mstore\n        /* \"#utility.yul\":8413:8531   */\n      pop\n      pop\n      jump\t// out\n        /* \"#utility.yul\":8537:8651   */\n    tag_431:\n        /* \"#utility.yul\":8604:8610   */\n      0x00\n        /* \"#utility.yul\":8638:8643   */\n      dup2\n        /* \"#utility.yul\":8632:8644   */\n      mload\n        /* \"#utility.yul\":8622:8644   */\n      swap1\n      pop\n        /* \"#utility.yul\":8537:8651   */\n      swap2\n      swap1\n      pop\n      jump\t// out\n        /* \"#utility.yul\":8657:8841   */\n    tag_432:\n        /* \"#utility.yul\":8756:8767   */\n      0x00\n        /* \"#utility.yul\":8790:8796   */\n      dup3\n        /* \"#utility.yul\":8785:8788   */\n      dup3\n        /* \"#utility.yul\":8778:8797   */\n      mstore\n        /* \"#utility.yul\":8830:8834   */\n      0x20\n        /* \"#utility.yul\":8825:8828   */\n      dup3\n        /* \"#utility.yul\":8821:8835   */\n      add\n        /* \"#utility.yul\":8806:8835   */\n      swap1\n      pop\n        /* \"#utility.yul\":8657:8841   */\n      swap3\n      swap2\n      pop\n      pop\n      jump\t// out\n        /* \"#utility.yul\":8847:8979   */\n    tag_433:\n        /* \"#utility.yul\":8914:8918   */\n      0x00\n        /* \"#utility.yul\":8937:8940   */\n      dup2\n        /* \"#utility.yul\":8929:8940   */\n      swap1\n      pop\n        /* \"#utility.yul\":8967:8971   */\n      0x20\n        /* \"#utility.yul\":8962:8965   */\n      dup3\n        /* \"#utility.yul\":8958:8972   */\n      add\n        /* \"#utility.yul\":8950:8972   */\n      swap1\n      pop\n        /* \"#utility.yul\":8847:8979   */\n      swap2\n      swap1\n      pop\n      jump\t// out\n        /* \"#utility.yul\":8985:9093   */\n    tag_434:\n        /* \"#utility.yul\":9062:9086   */\n      tag_619\n        /* \"#utility.yul\":9080:9085   */\n      dup2\n        /* \"#utility.yul\":9062:9086   */\n      tag_407\n      jump\t// in\n    tag_619:\n        /* \"#utility.yul\":9057:9060   */\n      dup3\n        /* \"#utility.yul\":9050:9087   */\n      mstore\n        /* \"#utility.yul\":8985:9093   */\n      pop\n      pop\n      jump\t// out\n        /* \"#utility.yul\":9099:9278   */\n    tag_435:\n        /* \"#utility.yul\":9168:9178   */\n      0x00\n        /* \"#utility.yul\":9189:9235   */\n      tag_621\n        /* \"#utility.yul\":9231:9234   */\n      dup4\n        /* \"#utility.yul\":9223:9229   */\n      dup4\n        /* \"#utility.yul\":9189:9235   */\n      tag_434\n      jump\t// in\n    tag_621:\n        /* \"#utility.yul\":9267:9271   */\n      0x20\n        /* \"#utility.yul\":9262:9265   */\n      dup4\n        /* \"#utility.yul\":9258:9272   */\n      add\n        /* \"#utility.yul\":9244:9272   */\n      swap1\n      pop\n        /* \"#utility.yul\":9099:9278   */\n      swap3\n      swap2\n      pop\n      pop\n      jump\t// out\n        /* \"#utility.yul\":9284:9397   */\n    tag_436:\n        /* \"#utility.yul\":9354:9358   */\n      0x00\n        /* \"#utility.yul\":9386:9390   */\n      0x20\n        /* \"#utility.yul\":9381:9384   */\n      dup3\n        /* \"#utility.yul\":9377:9391   */\n      add\n        /* \"#utility.yul\":9369:9391   */\n      swap1\n      pop\n        /* \"#utility.yul\":9284:9397   */\n      swap2\n      swap1\n      pop\n      jump\t// out\n        /* \"#utility.yul\":9433:10165   */\n    tag_437:\n        /* \"#utility.yul\":9552:9555   */\n      0x00\n        /* \"#utility.yul\":9581:9635   */\n      tag_624\n        /* \"#utility.yul\":9629:9634   */\n      dup3\n        /* \"#utility.yul\":9581:9635   */\n      tag_431\n      jump\t// in\n    tag_624:\n        /* \"#utility.yul\":9651:9737   */\n      tag_625\n        /* \"#utility.yul\":9730:9736   */\n      dup2\n        /* \"#utility.yul\":9725:9728   */\n      dup6\n        /* \"#utility.yul\":9651:9737   */\n      tag_432\n      jump\t// in\n    tag_625:\n        /* \"#utility.yul\":9644:9737   */\n      swap4\n      pop\n        /* \"#utility.yul\":9761:9817   */\n      tag_626\n        /* \"#utility.yul\":9811:9816   */\n      dup4\n        /* \"#utility.yul\":9761:9817   */\n      tag_433\n      jump\t// in\n    tag_626:\n        /* \"#utility.yul\":9840:9847   */\n      dup1\n        /* \"#utility.yul\":9871:9872   */\n      0x00\n        /* \"#utility.yul\":9856:10140   */\n    tag_627:\n        /* \"#utility.yul\":9881:9887   */\n      dup4\n        /* \"#utility.yul\":9878:9879   */\n      dup2\n        /* \"#utility.yul\":9875:9888   */\n      lt\n        /* \"#utility.yul\":9856:10140   */\n      iszero\n      tag_629\n      jumpi\n        /* \"#utility.yul\":9957:9963   */\n      dup2\n        /* \"#utility.yul\":9951:9964   */\n      mload\n        /* \"#utility.yul\":9984:10047   */\n      tag_630\n        /* \"#utility.yul\":10043:10046   */\n      dup9\n        /* \"#utility.yul\":10028:10041   */\n      dup3\n        /* \"#utility.yul\":9984:10047   */\n      tag_435\n      jump\t// in\n    tag_630:\n        /* \"#utility.yul\":9977:10047   */\n      swap8\n      pop\n        /* \"#utility.yul\":10070:10130   */\n      tag_631\n        /* \"#utility.yul\":10123:10129   */\n      dup4\n        /* \"#utility.yul\":10070:10130   */\n      tag_436\n      jump\t// in\n    tag_631:\n        /* \"#utility.yul\":10060:10130   */\n      swap3\n      pop\n        /* \"#utility.yul\":9916:10140   */\n      pop\n        /* \"#utility.yul\":9903:9904   */\n      0x01\n        /* \"#utility.yul\":9900:9901   */\n      dup2\n        /* \"#utility.yul\":9896:9905   */\n      add\n        /* \"#utility.yul\":9891:9905   */\n      swap1\n      pop\n        /* \"#utility.yul\":9856:10140   */\n      jump(tag_627)\n    tag_629:\n        /* \"#utility.yul\":9860:9874   */\n      pop\n        /* \"#utility.yul\":10156:10159   */\n      dup6\n        /* \"#utility.yul\":10149:10159   */\n      swap4\n      pop\n        /* \"#utility.yul\":9557:10165   */\n      pop\n      pop\n      pop\n        /* \"#utility.yul\":9433:10165   */\n      swap3\n      swap2\n      pop\n      pop\n      jump\t// out\n        /* \"#utility.yul\":10171:10283   */\n    tag_438:\n        /* \"#utility.yul\":10254:10276   */\n      tag_633\n        /* \"#utility.yul\":10270:10275   */\n      dup2\n        /* \"#utility.yul\":10254:10276   */\n      tag_403\n      jump\t// in\n    tag_633:\n        /* \"#utility.yul\":10249:10252   */\n      dup3\n        /* \"#utility.yul\":10242:10277   */\n      mstore\n        /* \"#utility.yul\":10171:10283   */\n      pop\n      pop\n      jump\t// out\n        /* \"#utility.yul\":10289:11897   */\n    tag_25:\n        /* \"#utility.yul\":10752:10756   */\n      0x00\n        /* \"#utility.yul\":10790:10793   */\n      0x0140\n        /* \"#utility.yul\":10779:10788   */\n      dup3\n        /* \"#utility.yul\":10775:10794   */\n      add\n        /* \"#utility.yul\":10767:10794   */\n      swap1\n      pop\n        /* \"#utility.yul\":10804:10875   */\n      tag_635\n        /* \"#utility.yul\":10872:10873   */\n      0x00\n        /* \"#utility.yul\":10861:10870   */\n      dup4\n        /* \"#utility.yul\":10857:10874   */\n      add\n        /* \"#utility.yul\":10848:10854   */\n      dup14\n        /* \"#utility.yul\":10804:10875   */\n      tag_414\n      jump\t// in\n    tag_635:\n        /* \"#utility.yul\":10922:10931   */\n      dup2\n        /* \"#utility.yul\":10916:10920   */\n      dup2\n        /* \"#utility.yul\":10912:10932   */\n      sub\n        /* \"#utility.yul\":10907:10909   */\n      0x20\n        /* \"#utility.yul\":10896:10905   */\n      dup4\n        /* \"#utility.yul\":10892:10910   */\n      add\n        /* \"#utility.yul\":10885:10933   */\n      mstore\n        /* \"#utility.yul\":10950:11028   */\n      tag_636\n        /* \"#utility.yul\":11023:11027   */\n      dup2\n        /* \"#utility.yul\":11014:11020   */\n      dup13\n        /* \"#utility.yul\":10950:11028   */\n      tag_419\n      jump\t// in\n    tag_636:\n        /* \"#utility.yul\":10942:11028   */\n      swap1\n      pop\n        /* \"#utility.yul\":11075:11084   */\n      dup2\n        /* \"#utility.yul\":11069:11073   */\n      dup2\n        /* \"#utility.yul\":11065:11085   */\n      sub\n        /* \"#utility.yul\":11060:11062   */\n      0x40\n        /* \"#utility.yul\":11049:11058   */\n      dup4\n        /* \"#utility.yul\":11045:11063   */\n      add\n        /* \"#utility.yul\":11038:11086   */\n      mstore\n        /* \"#utility.yul\":11103:11231   */\n      tag_637\n        /* \"#utility.yul\":11226:11230   */\n      dup2\n        /* \"#utility.yul\":11217:11223   */\n      dup12\n        /* \"#utility.yul\":11103:11231   */\n      tag_427\n      jump\t// in\n    tag_637:\n        /* \"#utility.yul\":11095:11231   */\n      swap1\n      pop\n        /* \"#utility.yul\":11241:11307   */\n      tag_638\n        /* \"#utility.yul\":11303:11305   */\n      0x60\n        /* \"#utility.yul\":11292:11301   */\n      dup4\n        /* \"#utility.yul\":11288:11306   */\n      add\n        /* \"#utility.yul\":11279:11285   */\n      dup11\n        /* \"#utility.yul\":11241:11307   */\n      tag_429\n      jump\t// in\n    tag_638:\n        /* \"#utility.yul\":11317:11384   */\n      tag_639\n        /* \"#utility.yul\":11379:11382   */\n      0x80\n        /* \"#utility.yul\":11368:11377   */\n      dup4\n        /* \"#utility.yul\":11364:11383   */\n      add\n        /* \"#utility.yul\":11355:11361   */\n      dup10\n        /* \"#utility.yul\":11317:11384   */\n      tag_429\n      jump\t// in\n    tag_639:\n        /* \"#utility.yul\":11394:11467   */\n      tag_640\n        /* \"#utility.yul\":11462:11465   */\n      0xa0\n        /* \"#utility.yul\":11451:11460   */\n      dup4\n        /* \"#utility.yul\":11447:11466   */\n      add\n        /* \"#utility.yul\":11438:11444   */\n      dup9\n        /* \"#utility.yul\":11394:11467   */\n      tag_430\n      jump\t// in\n    tag_640:\n        /* \"#utility.yul\":11515:11524   */\n      dup2\n        /* \"#utility.yul\":11509:11513   */\n      dup2\n        /* \"#utility.yul\":11505:11525   */\n      sub\n        /* \"#utility.yul\":11499:11502   */\n      0xc0\n        /* \"#utility.yul\":11488:11497   */\n      dup4\n        /* \"#utility.yul\":11484:11503   */\n      add\n        /* \"#utility.yul\":11477:11526   */\n      mstore\n        /* \"#utility.yul\":11543:11651   */\n      tag_641\n        /* \"#utility.yul\":11646:11650   */\n      dup2\n        /* \"#utility.yul\":11637:11643   */\n      dup8\n        /* \"#utility.yul\":11543:11651   */\n      tag_437\n      jump\t// in\n    tag_641:\n        /* \"#utility.yul\":11535:11651   */\n      swap1\n      pop\n        /* \"#utility.yul\":11661:11734   */\n      tag_642\n        /* \"#utility.yul\":11729:11732   */\n      0xe0\n        /* \"#utility.yul\":11718:11727   */\n      dup4\n        /* \"#utility.yul\":11714:11733   */\n      add\n        /* \"#utility.yul\":11705:11711   */\n      dup7\n        /* \"#utility.yul\":11661:11734   */\n      tag_414\n      jump\t// in\n    tag_642:\n        /* \"#utility.yul\":11744:11813   */\n      tag_643\n        /* \"#utility.yul\":11808:11811   */\n      0x0100\n        /* \"#utility.yul\":11797:11806   */\n      dup4\n        /* \"#utility.yul\":11793:11812   */\n      add\n        /* \"#utility.yul\":11784:11790   */\n      dup6\n        /* \"#utility.yul\":11744:11813   */\n      tag_438\n      jump\t// in\n    tag_643:\n        /* \"#utility.yul\":11823:11890   */\n      tag_644\n        /* \"#utility.yul\":11885:11888   */\n      0x0120\n        /* \"#utility.yul\":11874:11883   */\n      dup4\n        /* \"#utility.yul\":11870:11889   */\n      add\n        /* \"#utility.yul\":11861:11867   */\n      dup5\n        /* \"#utility.yul\":11823:11890   */\n      tag_429\n      jump\t// in\n    tag_644:\n        /* \"#utility.yul\":10289:11897   */\n      swap12\n      swap11\n      pop\n      pop\n      pop\n      pop\n      pop\n      pop\n      pop\n      pop\n      pop\n      pop\n      pop\n      jump\t// out\n        /* \"#utility.yul\":11903:12125   */\n    tag_29:\n        /* \"#utility.yul\":11996:12000   */\n      0x00\n        /* \"#utility.yul\":12034:12036   */\n      0x20\n        /* \"#utility.yul\":12023:12032   */\n      dup3\n        /* \"#utility.yul\":12019:12037   */\n      add\n        /* \"#utility.yul\":12011:12037   */\n      swap1\n      pop\n        /* \"#utility.yul\":12047:12118   */\n      tag_646\n        /* \"#utility.yul\":12115:12116   */\n      0x00\n        /* \"#utility.yul\":12104:12113   */\n      dup4\n        /* \"#utility.yul\":12100:12117   */\n      add\n        /* \"#utility.yul\":12091:12097   */\n      dup5\n        /* \"#utility.yul\":12047:12118   */\n      tag_414\n      jump\t// in\n    tag_646:\n        /* \"#utility.yul\":11903:12125   */\n      swap3\n      swap2\n      pop\n      pop\n      jump\t// out\n        /* \"#utility.yul\":12131:12746   */\n    tag_32:\n        /* \"#utility.yul\":12206:12212   */\n      0x00\n        /* \"#utility.yul\":12214:12220   */\n      dup1\n        /* \"#utility.yul\":12222:12228   */\n      0x00\n        /* \"#utility.yul\":12271:12273   */\n      0x60\n        /* \"#utility.yul\":12259:12268   */\n      dup5\n        /* \"#utility.yul\":12250:12257   */\n      dup7\n        /* \"#utility.yul\":12246:12269   */\n      sub\n        /* \"#utility.yul\":12242:12274   */\n      slt\n        /* \"#utility.yul\":12239:12358   */\n      iszero\n      tag_648\n      jumpi\n        /* \"#utility.yul\":12277:12356   */\n      tag_649\n      tag_397\n      jump\t// in\n    tag_649:\n        /* \"#utility.yul\":12239:12358   */\n    tag_648:\n        /* \"#utility.yul\":12397:12398   */\n      0x00\n        /* \"#utility.yul\":12422:12475   */\n      tag_650\n        /* \"#utility.yul\":12467:12474   */\n      dup7\n        /* \"#utility.yul\":12458:12464   */\n      dup3\n        /* \"#utility.yul\":12447:12456   */\n      dup8\n        /* \"#utility.yul\":12443:12465   */\n      add\n        /* \"#utility.yul\":12422:12475   */\n      tag_409\n      jump\t// in\n    tag_650:\n        /* \"#utility.yul\":12412:12475   */\n      swap4\n      pop\n        /* \"#utility.yul\":12368:12485   */\n      pop\n        /* \"#utility.yul\":12524:12526   */\n      0x20\n        /* \"#utility.yul\":12550:12603   */\n      tag_651\n        /* \"#utility.yul\":12595:12602   */\n      dup7\n        /* \"#utility.yul\":12586:12592   */\n      dup3\n        /* \"#utility.yul\":12575:12584   */\n      dup8\n        /* \"#utility.yul\":12571:12593   */\n      add\n        /* \"#utility.yul\":12550:12603   */\n      tag_409\n      jump\t// in\n    tag_651:\n        /* \"#utility.yul\":12540:12603   */\n      swap3\n      pop\n        /* \"#utility.yul\":12495:12613   */\n      pop\n        /* \"#utility.yul\":12652:12654   */\n      0x40\n        /* \"#utility.yul\":12678:12729   */\n      tag_652\n        /* \"#utility.yul\":12721:12728   */\n      dup7\n        /* \"#utility.yul\":12712:12718   */\n      dup3\n        /* \"#utility.yul\":12701:12710   */\n      dup8\n        /* \"#utility.yul\":12697:12719   */\n      add\n        /* \"#utility.yul\":12678:12729   */\n      tag_405\n      jump\t// in\n    tag_652:\n        /* \"#utility.yul\":12668:12729   */\n      swap2\n      pop\n        /* \"#utility.yul\":12623:12739   */\n      pop\n        /* \"#utility.yul\":12131:12746   */\n      swap3\n      pop\n      swap3\n      pop\n      swap3\n      jump\t// out\n        /* \"#utility.yul\":12752:12901   */\n    tag_439:\n        /* \"#utility.yul\":12854:12860   */\n      0x00\n        /* \"#utility.yul\":12888:12893   */\n      dup2\n        /* \"#utility.yul\":12882:12894   */\n      mload\n        /* \"#utility.yul\":12872:12894   */\n      swap1\n      pop\n        /* \"#utility.yul\":12752:12901   */\n      swap2\n      swap1\n      pop\n      jump\t// out\n        /* \"#utility.yul\":12907:13126   */\n    tag_440:\n        /* \"#utility.yul\":13041:13052   */\n      0x00\n        /* \"#utility.yul\":13075:13081   */\n      dup3\n        /* \"#utility.yul\":13070:13073   */\n      dup3\n        /* \"#utility.yul\":13063:13082   */\n      mstore\n        /* \"#utility.yul\":13115:13119   */\n      0x20\n        /* \"#utility.yul\":13110:13113   */\n      dup3\n        /* \"#utility.yul\":13106:13120   */\n      add\n        /* \"#utility.yul\":13091:13120   */\n      swap1\n      pop\n        /* \"#utility.yul\":12907:13126   */\n      swap3\n      swap2\n      pop\n      pop\n      jump\t// out\n        /* \"#utility.yul\":13132:13299   */\n    tag_441:\n        /* \"#utility.yul\":13234:13238   */\n      0x00\n        /* \"#utility.yul\":13257:13260   */\n      dup2\n        /* \"#utility.yul\":13249:13260   */\n      swap1\n      pop\n        /* \"#utility.yul\":13287:13291   */\n      0x20\n        /* \"#utility.yul\":13282:13285   */\n      dup3\n        /* \"#utility.yul\":13278:13292   */\n      add\n        /* \"#utility.yul\":13270:13292   */\n      swap1\n      pop\n        /* \"#utility.yul\":13132:13299   */\n      swap2\n      swap1\n      pop\n      jump\t// out\n        /* \"#utility.yul\":13305:13489   */\n    tag_442:\n        /* \"#utility.yul\":13404:13415   */\n      0x00\n        /* \"#utility.yul\":13438:13444   */\n      dup3\n        /* \"#utility.yul\":13433:13436   */\n      dup3\n        /* \"#utility.yul\":13426:13445   */\n      mstore\n        /* \"#utility.yul\":13478:13482   */\n      0x20\n        /* \"#utility.yul\":13473:13476   */\n      dup3\n        /* \"#utility.yul\":13469:13483   */\n      add\n        /* \"#utility.yul\":13454:13483   */\n      swap1\n      pop\n        /* \"#utility.yul\":13305:13489   */\n      swap3\n      swap2\n      pop\n      pop\n      jump\t// out\n        /* \"#utility.yul\":13523:14494   */\n    tag_443:\n        /* \"#utility.yul\":13652:13655   */\n      0x00\n        /* \"#utility.yul\":13681:13745   */\n      tag_658\n        /* \"#utility.yul\":13739:13744   */\n      dup3\n        /* \"#utility.yul\":13681:13745   */\n      tag_420\n      jump\t// in\n    tag_658:\n        /* \"#utility.yul\":13761:13847   */\n      tag_659\n        /* \"#utility.yul\":13840:13846   */\n      dup2\n        /* \"#utility.yul\":13835:13838   */\n      dup6\n        /* \"#utility.yul\":13761:13847   */\n      tag_442\n      jump\t// in\n    tag_659:\n        /* \"#utility.yul\":13754:13847   */\n      swap4\n      pop\n        /* \"#utility.yul\":13873:13876   */\n      dup4\n        /* \"#utility.yul\":13918:13922   */\n      0x20\n        /* \"#utility.yul\":13910:13916   */\n      dup3\n        /* \"#utility.yul\":13906:13923   */\n      mul\n        /* \"#utility.yul\":13901:13904   */\n      dup6\n        /* \"#utility.yul\":13897:13924   */\n      add\n        /* \"#utility.yul\":13948:14014   */\n      tag_660\n        /* \"#utility.yul\":14008:14013   */\n      dup6\n        /* \"#utility.yul\":13948:14014   */\n      tag_422\n      jump\t// in\n    tag_660:\n        /* \"#utility.yul\":14037:14044   */\n      dup1\n        /* \"#utility.yul\":14068:14069   */\n      0x00\n        /* \"#utility.yul\":14053:14449   */\n    tag_661:\n        /* \"#utility.yul\":14078:14084   */\n      dup6\n        /* \"#utility.yul\":14075:14076   */\n      dup2\n        /* \"#utility.yul\":14072:14085   */\n      lt\n        /* \"#utility.yul\":14053:14449   */\n      iszero\n      tag_663\n      jumpi\n        /* \"#utility.yul\":14149:14158   */\n      dup5\n        /* \"#utility.yul\":14143:14147   */\n      dup5\n        /* \"#utility.yul\":14139:14159   */\n      sub\n        /* \"#utility.yul\":14134:14137   */\n      dup10\n        /* \"#utility.yul\":14127:14160   */\n      mstore\n        /* \"#utility.yul\":14200:14206   */\n      dup2\n        /* \"#utility.yul\":14194:14207   */\n      mload\n        /* \"#utility.yul\":14228:14312   */\n      tag_664\n        /* \"#utility.yul\":14307:14311   */\n      dup6\n        /* \"#utility.yul\":14292:14305   */\n      dup3\n        /* \"#utility.yul\":14228:14312   */\n      tag_425\n      jump\t// in\n    tag_664:\n        /* \"#utility.yul\":14220:14312   */\n      swap5\n      pop\n        /* \"#utility.yul\":14335:14405   */\n      tag_665\n        /* \"#utility.yul\":14398:14404   */\n      dup4\n        /* \"#utility.yul\":14335:14405   */\n      tag_426\n      jump\t// in\n    tag_665:\n        /* \"#utility.yul\":14325:14405   */\n      swap3\n      pop\n        /* \"#utility.yul\":14434:14438   */\n      0x20\n        /* \"#utility.yul\":14429:14432   */\n      dup11\n        /* \"#utility.yul\":14425:14439   */\n      add\n        /* \"#utility.yul\":14418:14439   */\n      swap10\n      pop\n        /* \"#utility.yul\":14113:14449   */\n      pop\n        /* \"#utility.yul\":14100:14101   */\n      0x01\n        /* \"#utility.yul\":14097:14098   */\n      dup2\n        /* \"#utility.yul\":14093:14102   */\n      add\n        /* \"#utility.yul\":14088:14102   */\n      swap1\n      pop\n        /* \"#utility.yul\":14053:14449   */\n      jump(tag_661)\n    tag_663:\n        /* \"#utility.yul\":14057:14071   */\n      pop\n        /* \"#utility.yul\":14465:14469   */\n      dup3\n        /* \"#utility.yul\":14458:14469   */\n      swap8\n      pop\n        /* \"#utility.yul\":14485:14488   */\n      dup8\n        /* \"#utility.yul\":14478:14488   */\n      swap6\n      pop\n        /* \"#utility.yul\":13657:14494   */\n      pop\n      pop\n      pop\n      pop\n      pop\n        /* \"#utility.yul\":13523:14494   */\n      swap3\n      swap2\n      pop\n      pop\n      jump\t// out\n        /* \"#utility.yul\":14500:14796   */\n    tag_444:\n        /* \"#utility.yul\":14639:14649   */\n      0x00\n        /* \"#utility.yul\":14674:14790   */\n      tag_667\n        /* \"#utility.yul\":14786:14789   */\n      dup4\n        /* \"#utility.yul\":14778:14784   */\n      dup4\n        /* \"#utility.yul\":14674:14790   */\n      tag_443\n      jump\t// in\n    tag_667:\n        /* \"#utility.yul\":14660:14790   */\n      swap1\n      pop\n        /* \"#utility.yul\":14500:14796   */\n      swap3\n      swap2\n      pop\n      pop\n      jump\t// out\n        /* \"#utility.yul\":14802:14950   */\n    tag_445:\n        /* \"#utility.yul\":14907:14911   */\n      0x00\n        /* \"#utility.yul\":14939:14943   */\n      0x20\n        /* \"#utility.yul\":14934:14937   */\n      dup3\n        /* \"#utility.yul\":14930:14944   */\n      add\n        /* \"#utility.yul\":14922:14944   */\n      swap1\n      pop\n        /* \"#utility.yul\":14802:14950   */\n      swap2\n      swap1\n      pop\n      jump\t// out\n        /* \"#utility.yul\":14988:16179   */\n    tag_446:\n        /* \"#utility.yul\":15177:15180   */\n      0x00\n        /* \"#utility.yul\":15206:15295   */\n      tag_670\n        /* \"#utility.yul\":15289:15294   */\n      dup3\n        /* \"#utility.yul\":15206:15295   */\n      tag_439\n      jump\t// in\n    tag_670:\n        /* \"#utility.yul\":15311:15432   */\n      tag_671\n        /* \"#utility.yul\":15425:15431   */\n      dup2\n        /* \"#utility.yul\":15420:15423   */\n      dup6\n        /* \"#utility.yul\":15311:15432   */\n      tag_440\n      jump\t// in\n    tag_671:\n        /* \"#utility.yul\":15304:15432   */\n      swap4\n      pop\n        /* \"#utility.yul\":15458:15461   */\n      dup4\n        /* \"#utility.yul\":15503:15507   */\n      0x20\n        /* \"#utility.yul\":15495:15501   */\n      dup3\n        /* \"#utility.yul\":15491:15508   */\n      mul\n        /* \"#utility.yul\":15486:15489   */\n      dup6\n        /* \"#utility.yul\":15482:15509   */\n      add\n        /* \"#utility.yul\":15533:15624   */\n      tag_672\n        /* \"#utility.yul\":15618:15623   */\n      dup6\n        /* \"#utility.yul\":15533:15624   */\n      tag_441\n      jump\t// in\n    tag_672:\n        /* \"#utility.yul\":15647:15654   */\n      dup1\n        /* \"#utility.yul\":15678:15679   */\n      0x00\n        /* \"#utility.yul\":15663:16134   */\n    tag_673:\n        /* \"#utility.yul\":15688:15694   */\n      dup6\n        /* \"#utility.yul\":15685:15686   */\n      dup2\n        /* \"#utility.yul\":15682:15695   */\n      lt\n        /* \"#utility.yul\":15663:16134   */\n      iszero\n      tag_675\n      jumpi\n        /* \"#utility.yul\":15759:15768   */\n      dup5\n        /* \"#utility.yul\":15753:15757   */\n      dup5\n        /* \"#utility.yul\":15749:15769   */\n      sub\n        /* \"#utility.yul\":15744:15747   */\n      dup10\n        /* \"#utility.yul\":15737:15770   */\n      mstore\n        /* \"#utility.yul\":15810:15816   */\n      dup2\n        /* \"#utility.yul\":15804:15817   */\n      mload\n        /* \"#utility.yul\":15838:15972   */\n      tag_676\n        /* \"#utility.yul\":15967:15971   */\n      dup6\n        /* \"#utility.yul\":15952:15965   */\n      dup3\n        /* \"#utility.yul\":15838:15972   */\n      tag_444\n      jump\t// in\n    tag_676:\n        /* \"#utility.yul\":15830:15972   */\n      swap5\n      pop\n        /* \"#utility.yul\":15995:16090   */\n      tag_677\n        /* \"#utility.yul\":16083:16089   */\n      dup4\n        /* \"#utility.yul\":15995:16090   */\n      tag_445\n      jump\t// in\n    tag_677:\n        /* \"#utility.yul\":15985:16090   */\n      swap3\n      pop\n        /* \"#utility.yul\":16119:16123   */\n      0x20\n        /* \"#utility.yul\":16114:16117   */\n      dup11\n        /* \"#utility.yul\":16110:16124   */\n      add\n        /* \"#utility.yul\":16103:16124   */\n      swap10\n      pop\n        /* \"#utility.yul\":15723:16134   */\n      pop\n        /* \"#utility.yul\":15710:15711   */\n      0x01\n        /* \"#utility.yul\":15707:15708   */\n      dup2\n        /* \"#utility.yul\":15703:15712   */\n      add\n        /* \"#utility.yul\":15698:15712   */\n      swap1\n      pop\n        /* \"#utility.yul\":15663:16134   */\n      jump(tag_673)\n    tag_675:\n        /* \"#utility.yul\":15667:15681   */\n      pop\n        /* \"#utility.yul\":16150:16154   */\n      dup3\n        /* \"#utility.yul\":16143:16154   */\n      swap8\n      pop\n        /* \"#utility.yul\":16170:16173   */\n      dup8\n        /* \"#utility.yul\":16163:16173   */\n      swap6\n      pop\n        /* \"#utility.yul\":15182:16179   */\n      pop\n      pop\n      pop\n      pop\n      pop\n        /* \"#utility.yul\":14988:16179   */\n      swap3\n      swap2\n      pop\n      pop\n      jump\t// out\n        /* \"#utility.yul\":16185:16299   */\n    tag_447:\n        /* \"#utility.yul\":16252:16258   */\n      0x00\n        /* \"#utility.yul\":16286:16291   */\n      dup2\n        /* \"#utility.yul\":16280:16292   */\n      mload\n        /* \"#utility.yul\":16270:16292   */\n      swap1\n      pop\n        /* \"#utility.yul\":16185:16299   */\n      swap2\n      swap1\n      pop\n      jump\t// out\n        /* \"#utility.yul\":16305:16489   */\n    tag_448:\n        /* \"#utility.yul\":16404:16415   */\n      0x00\n        /* \"#utility.yul\":16438:16444   */\n      dup3\n        /* \"#utility.yul\":16433:16436   */\n      dup3\n        /* \"#utility.yul\":16426:16445   */\n      mstore\n        /* \"#utility.yul\":16478:16482   */\n      0x20\n        /* \"#utility.yul\":16473:16476   */\n      dup3\n        /* \"#utility.yul\":16469:16483   */\n      add\n        /* \"#utility.yul\":16454:16483   */\n      swap1\n      pop\n        /* \"#utility.yul\":16305:16489   */\n      swap3\n      swap2\n      pop\n      pop\n      jump\t// out\n        /* \"#utility.yul\":16495:16627   */\n    tag_449:\n        /* \"#utility.yul\":16562:16566   */\n      0x00\n        /* \"#utility.yul\":16585:16588   */\n      dup2\n        /* \"#utility.yul\":16577:16588   */\n      swap1\n      pop\n        /* \"#utility.yul\":16615:16619   */\n      0x20\n        /* \"#utility.yul\":16610:16613   */\n      dup3\n        /* \"#utility.yul\":16606:16620   */\n      add\n        /* \"#utility.yul\":16598:16620   */\n      swap1\n      pop\n        /* \"#utility.yul\":16495:16627   */\n      swap2\n      swap1\n      pop\n      jump\t// out\n        /* \"#utility.yul\":16633:16741   */\n    tag_450:\n        /* \"#utility.yul\":16710:16734   */\n      tag_682\n        /* \"#utility.yul\":16728:16733   */\n      dup2\n        /* \"#utility.yul\":16710:16734   */\n      tag_411\n      jump\t// in\n    tag_682:\n        /* \"#utility.yul\":16705:16708   */\n      dup3\n        /* \"#utility.yul\":16698:16735   */\n      mstore\n        /* \"#utility.yul\":16633:16741   */\n      pop\n      pop\n      jump\t// out\n        /* \"#utility.yul\":16747:16926   */\n    tag_451:\n        /* \"#utility.yul\":16816:16826   */\n      0x00\n        /* \"#utility.yul\":16837:16883   */\n      tag_684\n        /* \"#utility.yul\":16879:16882   */\n      dup4\n        /* \"#utility.yul\":16871:16877   */\n      dup4\n        /* \"#utility.yul\":16837:16883   */\n      tag_450\n      jump\t// in\n    tag_684:\n        /* \"#utility.yul\":16915:16919   */\n      0x20\n        /* \"#utility.yul\":16910:16913   */\n      dup4\n        /* \"#utility.yul\":16906:16920   */\n      add\n        /* \"#utility.yul\":16892:16920   */\n      swap1\n      pop\n        /* \"#utility.yul\":16747:16926   */\n      swap3\n      swap2\n      pop\n      pop\n      jump\t// out\n        /* \"#utility.yul\":16932:17045   */\n    tag_452:\n        /* \"#utility.yul\":17002:17006   */\n      0x00\n        /* \"#utility.yul\":17034:17038   */\n      0x20\n        /* \"#utility.yul\":17029:17032   */\n      dup3\n        /* \"#utility.yul\":17025:17039   */\n      add\n        /* \"#utility.yul\":17017:17039   */\n      swap1\n      pop\n        /* \"#utility.yul\":16932:17045   */\n      swap2\n      swap1\n      pop\n      jump\t// out\n        /* \"#utility.yul\":17081:17813   */\n    tag_453:\n        /* \"#utility.yul\":17200:17203   */\n      0x00\n        /* \"#utility.yul\":17229:17283   */\n      tag_687\n        /* \"#utility.yul\":17277:17282   */\n      dup3\n        /* \"#utility.yul\":17229:17283   */\n      tag_447\n      jump\t// in\n    tag_687:\n        /* \"#utility.yul\":17299:17385   */\n      tag_688\n        /* \"#utility.yul\":17378:17384   */\n      dup2\n        /* \"#utility.yul\":17373:17376   */\n      dup6\n        /* \"#utility.yul\":17299:17385   */\n      tag_448\n      jump\t// in\n    tag_688:\n        /* \"#utility.yul\":17292:17385   */\n      swap4\n      pop\n        /* \"#utility.yul\":17409:17465   */\n      tag_689\n        /* \"#utility.yul\":17459:17464   */\n      dup4\n        /* \"#utility.yul\":17409:17465   */\n      tag_449\n      jump\t// in\n    tag_689:\n        /* \"#utility.yul\":17488:17495   */\n      dup1\n        /* \"#utility.yul\":17519:17520   */\n      0x00\n        /* \"#utility.yul\":17504:17788   */\n    tag_690:\n        /* \"#utility.yul\":17529:17535   */\n      dup4\n        /* \"#utility.yul\":17526:17527   */\n      dup2\n        /* \"#utility.yul\":17523:17536   */\n      lt\n        /* \"#utility.yul\":17504:17788   */\n      iszero\n      tag_692\n      jumpi\n        /* \"#utility.yul\":17605:17611   */\n      dup2\n        /* \"#utility.yul\":17599:17612   */\n      mload\n        /* \"#utility.yul\":17632:17695   */\n      tag_693\n        /* \"#utility.yul\":17691:17694   */\n      dup9\n        /* \"#utility.yul\":17676:17689   */\n      dup3\n        /* \"#utility.yul\":17632:17695   */\n      tag_451\n      jump\t// in\n    tag_693:\n        /* \"#utility.yul\":17625:17695   */\n      swap8\n      pop\n        /* \"#utility.yul\":17718:17778   */\n      tag_694\n        /* \"#utility.yul\":17771:17777   */\n      dup4\n        /* \"#utility.yul\":17718:17778   */\n      tag_452\n      jump\t// in\n    tag_694:\n        /* \"#utility.yul\":17708:17778   */\n      swap3\n      pop\n        /* \"#utility.yul\":17564:17788   */\n      pop\n        /* \"#utility.yul\":17551:17552   */\n      0x01\n        /* \"#utility.yul\":17548:17549   */\n      dup2\n        /* \"#utility.yul\":17544:17553   */\n      add\n        /* \"#utility.yul\":17539:17553   */\n      swap1\n      pop\n        /* \"#utility.yul\":17504:17788   */\n      jump(tag_690)\n    tag_692:\n        /* \"#utility.yul\":17508:17522   */\n      pop\n        /* \"#utility.yul\":17804:17807   */\n      dup6\n        /* \"#utility.yul\":17797:17807   */\n      swap4\n      pop\n        /* \"#utility.yul\":17205:17813   */\n      pop\n      pop\n      pop\n        /* \"#utility.yul\":17081:17813   */\n      swap3\n      swap2\n      pop\n      pop\n      jump\t// out\n        /* \"#utility.yul\":17819:19418   */\n    tag_40:\n        /* \"#utility.yul\":18364:18368   */\n      0x00\n        /* \"#utility.yul\":18402:18405   */\n      0xa0\n        /* \"#utility.yul\":18391:18400   */\n      dup3\n        /* \"#utility.yul\":18387:18406   */\n      add\n        /* \"#utility.yul\":18379:18406   */\n      swap1\n      pop\n        /* \"#utility.yul\":18452:18461   */\n      dup2\n        /* \"#utility.yul\":18446:18450   */\n      dup2\n        /* \"#utility.yul\":18442:18462   */\n      sub\n        /* \"#utility.yul\":18438:18439   */\n      0x00\n        /* \"#utility.yul\":18427:18436   */\n      dup4\n        /* \"#utility.yul\":18423:18440   */\n      add\n        /* \"#utility.yul\":18416:18463   */\n      mstore\n        /* \"#utility.yul\":18480:18588   */\n      tag_696\n        /* \"#utility.yul\":18583:18587   */\n      dup2\n        /* \"#utility.yul\":18574:18580   */\n      dup9\n        /* \"#utility.yul\":18480:18588   */\n      tag_437\n      jump\t// in\n    tag_696:\n        /* \"#utility.yul\":18472:18588   */\n      swap1\n      pop\n        /* \"#utility.yul\":18635:18644   */\n      dup2\n        /* \"#utility.yul\":18629:18633   */\n      dup2\n        /* \"#utility.yul\":18625:18645   */\n      sub\n        /* \"#utility.yul\":18620:18622   */\n      0x20\n        /* \"#utility.yul\":18609:18618   */\n      dup4\n        /* \"#utility.yul\":18605:18623   */\n      add\n        /* \"#utility.yul\":18598:18646   */\n      mstore\n        /* \"#utility.yul\":18663:18791   */\n      tag_697\n        /* \"#utility.yul\":18786:18790   */\n      dup2\n        /* \"#utility.yul\":18777:18783   */\n      dup8\n        /* \"#utility.yul\":18663:18791   */\n      tag_427\n      jump\t// in\n    tag_697:\n        /* \"#utility.yul\":18655:18791   */\n      swap1\n      pop\n        /* \"#utility.yul\":18838:18847   */\n      dup2\n        /* \"#utility.yul\":18832:18836   */\n      dup2\n        /* \"#utility.yul\":18828:18848   */\n      sub\n        /* \"#utility.yul\":18823:18825   */\n      0x40\n        /* \"#utility.yul\":18812:18821   */\n      dup4\n        /* \"#utility.yul\":18808:18826   */\n      add\n        /* \"#utility.yul\":18801:18849   */\n      mstore\n        /* \"#utility.yul\":18866:19044   */\n      tag_698\n        /* \"#utility.yul\":19039:19043   */\n      dup2\n        /* \"#utility.yul\":19030:19036   */\n      dup7\n        /* \"#utility.yul\":18866:19044   */\n      tag_446\n      jump\t// in\n    tag_698:\n        /* \"#utility.yul\":18858:19044   */\n      swap1\n      pop\n        /* \"#utility.yul\":19091:19100   */\n      dup2\n        /* \"#utility.yul\":19085:19089   */\n      dup2\n        /* \"#utility.yul\":19081:19101   */\n      sub\n        /* \"#utility.yul\":19076:19078   */\n      0x60\n        /* \"#utility.yul\":19065:19074   */\n      dup4\n        /* \"#utility.yul\":19061:19079   */\n      add\n        /* \"#utility.yul\":19054:19102   */\n      mstore\n        /* \"#utility.yul\":19119:19227   */\n      tag_699\n        /* \"#utility.yul\":19222:19226   */\n      dup2\n        /* \"#utility.yul\":19213:19219   */\n      dup6\n        /* \"#utility.yul\":19119:19227   */\n      tag_437\n      jump\t// in\n    tag_699:\n        /* \"#utility.yul\":19111:19227   */\n      swap1\n      pop\n        /* \"#utility.yul\":19275:19284   */\n      dup2\n        /* \"#utility.yul\":19269:19273   */\n      dup2\n        /* \"#utility.yul\":19265:19285   */\n      sub\n        /* \"#utility.yul\":19259:19262   */\n      0x80\n        /* \"#utility.yul\":19248:19257   */\n      dup4\n        /* \"#utility.yul\":19244:19263   */\n      add\n        /* \"#utility.yul\":19237:19286   */\n      mstore\n        /* \"#utility.yul\":19303:19411   */\n      tag_700\n        /* \"#utility.yul\":19406:19410   */\n      dup2\n        /* \"#utility.yul\":19397:19403   */\n      dup5\n        /* \"#utility.yul\":19303:19411   */\n      tag_453\n      jump\t// in\n    tag_700:\n        /* \"#utility.yul\":19295:19411   */\n      swap1\n      pop\n        /* \"#utility.yul\":17819:19418   */\n      swap7\n      swap6\n      pop\n      pop\n      pop\n      pop\n      pop\n      pop\n      jump\t// out\n        /* \"#utility.yul\":19424:19894   */\n    tag_43:\n        /* \"#utility.yul\":19490:19496   */\n      0x00\n        /* \"#utility.yul\":19498:19504   */\n      dup1\n        /* \"#utility.yul\":19547:19549   */\n      0x40\n        /* \"#utility.yul\":19535:19544   */\n      dup4\n        /* \"#utility.yul\":19526:19533   */\n      dup6\n        /* \"#utility.yul\":19522:19545   */\n      sub\n        /* \"#utility.yul\":19518:19550   */\n      slt\n        /* \"#utility.yul\":19515:19634   */\n      iszero\n      tag_702\n      jumpi\n        /* \"#utility.yul\":19553:19632   */\n      tag_703\n      tag_397\n      jump\t// in\n    tag_703:\n        /* \"#utility.yul\":19515:19634   */\n    tag_702:\n        /* \"#utility.yul\":19673:19674   */\n      0x00\n        /* \"#utility.yul\":19698:19751   */\n      tag_704\n        /* \"#utility.yul\":19743:19750   */\n      dup6\n        /* \"#utility.yul\":19734:19740   */\n      dup3\n        /* \"#utility.yul\":19723:19732   */\n      dup7\n        /* \"#utility.yul\":19719:19741   */\n      add\n        /* \"#utility.yul\":19698:19751   */\n      tag_409\n      jump\t// in\n    tag_704:\n        /* \"#utility.yul\":19688:19751   */\n      swap3\n      pop\n        /* \"#utility.yul\":19644:19761   */\n      pop\n        /* \"#utility.yul\":19800:19802   */\n      0x20\n        /* \"#utility.yul\":19826:19877   */\n      tag_705\n        /* \"#utility.yul\":19869:19876   */\n      dup6\n        /* \"#utility.yul\":19860:19866   */\n      dup3\n        /* \"#utility.yul\":19849:19858   */\n      dup7\n        /* \"#utility.yul\":19845:19867   */\n      add\n        /* \"#utility.yul\":19826:19877   */\n      tag_405\n      jump\t// in\n    tag_705:\n        /* \"#utility.yul\":19816:19877   */\n      swap2\n      pop\n        /* \"#utility.yul\":19771:19887   */\n      pop\n        /* \"#utility.yul\":19424:19894   */\n      swap3\n      pop\n      swap3\n      swap1\n      pop\n      jump\t// out\n        /* \"#utility.yul\":19900:20229   */\n    tag_47:\n        /* \"#utility.yul\":19959:19965   */\n      0x00\n        /* \"#utility.yul\":20008:20010   */\n      0x20\n        /* \"#utility.yul\":19996:20005   */\n      dup3\n        /* \"#utility.yul\":19987:19994   */\n      dup5\n        /* \"#utility.yul\":19983:20006   */\n      sub\n        /* \"#utility.yul\":19979:20011   */\n      slt\n        /* \"#utility.yul\":19976:20095   */\n      iszero\n      tag_707\n      jumpi\n        /* \"#utility.yul\":20014:20093   */\n      tag_708\n      tag_397\n      jump\t// in\n    tag_708:\n        /* \"#utility.yul\":19976:20095   */\n    tag_707:\n        /* \"#utility.yul\":20134:20135   */\n      0x00\n        /* \"#utility.yul\":20159:20212   */\n      tag_709\n        /* \"#utility.yul\":20204:20211   */\n      dup5\n        /* \"#utility.yul\":20195:20201   */\n      dup3\n        /* \"#utility.yul\":20184:20193   */\n      dup6\n        /* \"#utility.yul\":20180:20202   */\n      add\n        /* \"#utility.yul\":20159:20212   */\n      tag_413\n      jump\t// in\n    tag_709:\n        /* \"#utility.yul\":20149:20212   */\n      swap2\n      pop\n        /* \"#utility.yul\":20105:20222   */\n      pop\n        /* \"#utility.yul\":19900:20229   */\n      swap3\n      swap2\n      pop\n      pop\n      jump\t// out\n        /* \"#utility.yul\":20235:21572   */\n    tag_50:\n        /* \"#utility.yul\":20702:20706   */\n      0x00\n        /* \"#utility.yul\":20740:20743   */\n      0x80\n        /* \"#utility.yul\":20729:20738   */\n      dup3\n        /* \"#utility.yul\":20725:20744   */\n      add\n        /* \"#utility.yul\":20717:20744   */\n      swap1\n      pop\n        /* \"#utility.yul\":20790:20799   */\n      dup2\n        /* \"#utility.yul\":20784:20788   */\n      dup2\n        /* \"#utility.yul\":20780:20800   */\n      sub\n        /* \"#utility.yul\":20776:20777   */\n      0x00\n        /* \"#utility.yul\":20765:20774   */\n      dup4\n        /* \"#utility.yul\":20761:20778   */\n      add\n        /* \"#utility.yul\":20754:20801   */\n      mstore\n        /* \"#utility.yul\":20818:20926   */\n      tag_711\n        /* \"#utility.yul\":20921:20925   */\n      dup2\n        /* \"#utility.yul\":20912:20918   */\n      dup8\n        /* \"#utility.yul\":20818:20926   */\n      tag_437\n      jump\t// in\n    tag_711:\n        /* \"#utility.yul\":20810:20926   */\n      swap1\n      pop\n        /* \"#utility.yul\":20973:20982   */\n      dup2\n        /* \"#utility.yul\":20967:20971   */\n      dup2\n        /* \"#utility.yul\":20963:20983   */\n      sub\n        /* \"#utility.yul\":20958:20960   */\n      0x20\n        /* \"#utility.yul\":20947:20956   */\n      dup4\n        /* \"#utility.yul\":20943:20961   */\n      add\n        /* \"#utility.yul\":20936:20984   */\n      mstore\n        /* \"#utility.yul\":21001:21129   */\n      tag_712\n        /* \"#utility.yul\":21124:21128   */\n      dup2\n        /* \"#utility.yul\":21115:21121   */\n      dup7\n        /* \"#utility.yul\":21001:21129   */\n      tag_427\n      jump\t// in\n    tag_712:\n        /* \"#utility.yul\":20993:21129   */\n      swap1\n      pop\n        /* \"#utility.yul\":21176:21185   */\n      dup2\n        /* \"#utility.yul\":21170:21174   */\n      dup2\n        /* \"#utility.yul\":21166:21186   */\n      sub\n        /* \"#utility.yul\":21161:21163   */\n      0x40\n        /* \"#utility.yul\":21150:21159   */\n      dup4\n        /* \"#utility.yul\":21146:21164   */\n      add\n        /* \"#utility.yul\":21139:21187   */\n      mstore\n        /* \"#utility.yul\":21204:21312   */\n      tag_713\n        /* \"#utility.yul\":21307:21311   */\n      dup2\n        /* \"#utility.yul\":21298:21304   */\n      dup6\n        /* \"#utility.yul\":21204:21312   */\n      tag_437\n      jump\t// in\n    tag_713:\n        /* \"#utility.yul\":21196:21312   */\n      swap1\n      pop\n        /* \"#utility.yul\":21359:21368   */\n      dup2\n        /* \"#utility.yul\":21353:21357   */\n      dup2\n        /* \"#utility.yul\":21349:21369   */\n      sub\n        /* \"#utility.yul\":21344:21346   */\n      0x60\n        /* \"#utility.yul\":21333:21342   */\n      dup4\n        /* \"#utility.yul\":21329:21347   */\n      add\n        /* \"#utility.yul\":21322:21370   */\n      mstore\n        /* \"#utility.yul\":21387:21565   */\n      tag_714\n        /* \"#utility.yul\":21560:21564   */\n      dup2\n        /* \"#utility.yul\":21551:21557   */\n      dup5\n        /* \"#utility.yul\":21387:21565   */\n      tag_446\n      jump\t// in\n    tag_714:\n        /* \"#utility.yul\":21379:21565   */\n      swap1\n      pop\n        /* \"#utility.yul\":20235:21572   */\n      swap6\n      swap5\n      pop\n      pop\n      pop\n      pop\n      pop\n      jump\t// out\n        /* \"#utility.yul\":21578:21807   */\n    tag_454:\n        /* \"#utility.yul\":21718:21752   */\n      0x4e6f7420617574686f72697a65642c206f6e6c79206f776e65722063616e2063\n        /* \"#utility.yul\":21714:21715   */\n      0x00\n        /* \"#utility.yul\":21706:21712   */\n      dup3\n        /* \"#utility.yul\":21702:21716   */\n      add\n        /* \"#utility.yul\":21695:21753   */\n      mstore\n        /* \"#utility.yul\":21787:21799   */\n      0x7265617465206265747300000000000000000000000000000000000000000000\n        /* \"#utility.yul\":21782:21784   */\n      0x20\n        /* \"#utility.yul\":21774:21780   */\n      dup3\n        /* \"#utility.yul\":21770:21785   */\n      add\n        /* \"#utility.yul\":21763:21800   */\n      mstore\n        /* \"#utility.yul\":21578:21807   */\n      pop\n      jump\t// out\n        /* \"#utility.yul\":21813:22179   */\n    tag_455:\n        /* \"#utility.yul\":21955:21958   */\n      0x00\n        /* \"#utility.yul\":21976:22043   */\n      tag_717\n        /* \"#utility.yul\":22040:22042   */\n      0x2a\n        /* \"#utility.yul\":22035:22038   */\n      dup4\n        /* \"#utility.yul\":21976:22043   */\n      tag_416\n      jump\t// in\n    tag_717:\n        /* \"#utility.yul\":21969:22043   */\n      swap2\n      pop\n        /* \"#utility.yul\":22052:22145   */\n      tag_718\n        /* \"#utility.yul\":22141:22144   */\n      dup3\n        /* \"#utility.yul\":22052:22145   */\n      tag_454\n      jump\t// in\n    tag_718:\n        /* \"#utility.yul\":22170:22172   */\n      0x40\n        /* \"#utility.yul\":22165:22168   */\n      dup3\n        /* \"#utility.yul\":22161:22173   */\n      add\n        /* \"#utility.yul\":22154:22173   */\n      swap1\n      pop\n        /* \"#utility.yul\":21813:22179   */\n      swap2\n      swap1\n      pop\n      jump\t// out\n        /* \"#utility.yul\":22185:22604   */\n    tag_54:\n        /* \"#utility.yul\":22351:22355   */\n      0x00\n        /* \"#utility.yul\":22389:22391   */\n      0x20\n        /* \"#utility.yul\":22378:22387   */\n      dup3\n        /* \"#utility.yul\":22374:22392   */\n      add\n        /* \"#utility.yul\":22366:22392   */\n      swap1\n      pop\n        /* \"#utility.yul\":22438:22447   */\n      dup2\n        /* \"#utility.yul\":22432:22436   */\n      dup2\n        /* \"#utility.yul\":22428:22448   */\n      sub\n        /* \"#utility.yul\":22424:22425   */\n      0x00\n        /* \"#utility.yul\":22413:22422   */\n      dup4\n        /* \"#utility.yul\":22409:22426   */\n      add\n        /* \"#utility.yul\":22402:22449   */\n      mstore\n        /* \"#utility.yul\":22466:22597   */\n      tag_720\n        /* \"#utility.yul\":22592:22596   */\n      dup2\n        /* \"#utility.yul\":22466:22597   */\n      tag_455\n      jump\t// in\n    tag_720:\n        /* \"#utility.yul\":22458:22597   */\n      swap1\n      pop\n        /* \"#utility.yul\":22185:22604   */\n      swap2\n      swap1\n      pop\n      jump\t// out\n        /* \"#utility.yul\":22610:22785   */\n    tag_456:\n        /* \"#utility.yul\":22750:22777   */\n      0x496e76616c6964206e756d626572206f66206f7074696f6e7300000000000000\n        /* \"#utility.yul\":22746:22747   */\n      0x00\n        /* \"#utility.yul\":22738:22744   */\n      dup3\n        /* \"#utility.yul\":22734:22748   */\n      add\n        /* \"#utility.yul\":22727:22778   */\n      mstore\n        /* \"#utility.yul\":22610:22785   */\n      pop\n      jump\t// out\n        /* \"#utility.yul\":22791:23157   */\n    tag_457:\n        /* \"#utility.yul\":22933:22936   */\n      0x00\n        /* \"#utility.yul\":22954:23021   */\n      tag_723\n        /* \"#utility.yul\":23018:23020   */\n      0x19\n        /* \"#utility.yul\":23013:23016   */\n      dup4\n        /* \"#utility.yul\":22954:23021   */\n      tag_416\n      jump\t// in\n    tag_723:\n        /* \"#utility.yul\":22947:23021   */\n      swap2\n      pop\n        /* \"#utility.yul\":23030:23123   */\n      tag_724\n        /* \"#utility.yul\":23119:23122   */\n      dup3\n        /* \"#utility.yul\":23030:23123   */\n      tag_456\n      jump\t// in\n    tag_724:\n        /* \"#utility.yul\":23148:23150   */\n      0x20\n        /* \"#utility.yul\":23143:23146   */\n      dup3\n        /* \"#utility.yul\":23139:23151   */\n      add\n        /* \"#utility.yul\":23132:23151   */\n      swap1\n      pop\n        /* \"#utility.yul\":22791:23157   */\n      swap2\n      swap1\n      pop\n      jump\t// out\n        /* \"#utility.yul\":23163:23582   */\n    tag_59:\n        /* \"#utility.yul\":23329:23333   */\n      0x00\n        /* \"#utility.yul\":23367:23369   */\n      0x20\n        /* \"#utility.yul\":23356:23365   */\n      dup3\n        /* \"#utility.yul\":23352:23370   */\n      add\n        /* \"#utility.yul\":23344:23370   */\n      swap1\n      pop\n        /* \"#utility.yul\":23416:23425   */\n      dup2\n        /* \"#utility.yul\":23410:23414   */\n      dup2\n        /* \"#utility.yul\":23406:23426   */\n      sub\n        /* \"#utility.yul\":23402:23403   */\n      0x00\n        /* \"#utility.yul\":23391:23400   */\n      dup4\n        /* \"#utility.yul\":23387:23404   */\n      add\n        /* \"#utility.yul\":23380:23427   */\n      mstore\n        /* \"#utility.yul\":23444:23575   */\n      tag_726\n        /* \"#utility.yul\":23570:23574   */\n      dup2\n        /* \"#utility.yul\":23444:23575   */\n      tag_457\n      jump\t// in\n    tag_726:\n        /* \"#utility.yul\":23436:23575   */\n      swap1\n      pop\n        /* \"#utility.yul\":23163:23582   */\n      swap2\n      swap1\n      pop\n      jump\t// out\n        /* \"#utility.yul\":23588:23766   */\n    tag_458:\n        /* \"#utility.yul\":23728:23758   */\n      0x4f7074696f6e206e616d6573206c656e677468206d69736d6174636800000000\n        /* \"#utility.yul\":23724:23725   */\n      0x00\n        /* \"#utility.yul\":23716:23722   */\n      dup3\n        /* \"#utility.yul\":23712:23726   */\n      add\n        /* \"#utility.yul\":23705:23759   */\n      mstore\n        /* \"#utility.yul\":23588:23766   */\n      pop\n      jump\t// out\n        /* \"#utility.yul\":23772:24138   */\n    tag_459:\n        /* \"#utility.yul\":23914:23917   */\n      0x00\n        /* \"#utility.yul\":23935:24002   */\n      tag_729\n        /* \"#utility.yul\":23999:24001   */\n      0x1c\n        /* \"#utility.yul\":23994:23997   */\n      dup4\n        /* \"#utility.yul\":23935:24002   */\n      tag_416\n      jump\t// in\n    tag_729:\n        /* \"#utility.yul\":23928:24002   */\n      swap2\n      pop\n        /* \"#utility.yul\":24011:24104   */\n      tag_730\n        /* \"#utility.yul\":24100:24103   */\n      dup3\n        /* \"#utility.yul\":24011:24104   */\n      tag_458\n      jump\t// in\n    tag_730:\n        /* \"#utility.yul\":24129:24131   */\n      0x20\n        /* \"#utility.yul\":24124:24127   */\n      dup3\n        /* \"#utility.yul\":24120:24132   */\n      add\n        /* \"#utility.yul\":24113:24132   */\n      swap1\n      pop\n        /* \"#utility.yul\":23772:24138   */\n      swap2\n      swap1\n      pop\n      jump\t// out\n        /* \"#utility.yul\":24144:24563   */\n    tag_62:\n        /* \"#utility.yul\":24310:24314   */\n      0x00\n        /* \"#utility.yul\":24348:24350   */\n      0x20\n        /* \"#utility.yul\":24337:24346   */\n      dup3\n        /* \"#utility.yul\":24333:24351   */\n      add\n        /* \"#utility.yul\":24325:24351   */\n      swap1\n      pop\n        /* \"#utility.yul\":24397:24406   */\n      dup2\n        /* \"#utility.yul\":24391:24395   */\n      dup2\n        /* \"#utility.yul\":24387:24407   */\n      sub\n        /* \"#utility.yul\":24383:24384   */\n      0x00\n        /* \"#utility.yul\":24372:24381   */\n      dup4\n        /* \"#utility.yul\":24368:24385   */\n      add\n        /* \"#utility.yul\":24361:24408   */\n      mstore\n        /* \"#utility.yul\":24425:24556   */\n      tag_732\n        /* \"#utility.yul\":24551:24555   */\n      dup2\n        /* \"#utility.yul\":24425:24556   */\n      tag_459\n      jump\t// in\n    tag_732:\n        /* \"#utility.yul\":24417:24556   */\n      swap1\n      pop\n        /* \"#utility.yul\":24144:24563   */\n      swap2\n      swap1\n      pop\n      jump\t// out\n        /* \"#utility.yul\":24569:24749   */\n    tag_460:\n        /* \"#utility.yul\":24617:24694   */\n      0x4e487b7100000000000000000000000000000000000000000000000000000000\n        /* \"#utility.yul\":24614:24615   */\n      0x00\n        /* \"#utility.yul\":24607:24695   */\n      mstore\n        /* \"#utility.yul\":24714:24718   */\n      0x11\n        /* \"#utility.yul\":24711:24712   */\n      0x04\n        /* \"#utility.yul\":24704:24719   */\n      mstore\n        /* \"#utility.yul\":24738:24742   */\n      0x24\n        /* \"#utility.yul\":24735:24736   */\n      0x00\n        /* \"#utility.yul\":24728:24743   */\n      revert\n        /* \"#utility.yul\":24755:24988   */\n    tag_64:\n        /* \"#utility.yul\":24794:24797   */\n      0x00\n        /* \"#utility.yul\":24817:24841   */\n      tag_735\n        /* \"#utility.yul\":24835:24840   */\n      dup3\n        /* \"#utility.yul\":24817:24841   */\n      tag_407\n      jump\t// in\n    tag_735:\n        /* \"#utility.yul\":24808:24841   */\n      swap2\n      pop\n        /* \"#utility.yul\":24863:24929   */\n      0xffffffffffffffffffffffffffffffffffffffffffffffffffffffffffffffff\n        /* \"#utility.yul\":24856:24861   */\n      dup3\n        /* \"#utility.yul\":24853:24930   */\n      sub\n        /* \"#utility.yul\":24850:24953   */\n      tag_736\n      jumpi\n        /* \"#utility.yul\":24933:24951   */\n      tag_737\n      tag_460\n      jump\t// in\n    tag_737:\n        /* \"#utility.yul\":24850:24953   */\n    tag_736:\n        /* \"#utility.yul\":24980:24981   */\n      0x01\n        /* \"#utility.yul\":24973:24978   */\n      dup3\n        /* \"#utility.yul\":24969:24982   */\n      add\n        /* \"#utility.yul\":24962:24982   */\n      swap1\n      pop\n        /* \"#utility.yul\":24755:24988   */\n      swap2\n      swap1\n      pop\n      jump\t// out\n        /* \"#utility.yul\":24994:25221   */\n    tag_461:\n        /* \"#utility.yul\":25134:25168   */\n      0x42657420696e7374616e63652077697468207468697320494420616c72656164\n        /* \"#utility.yul\":25130:25131   */\n      0x00\n        /* \"#utility.yul\":25122:25128   */\n      dup3\n        /* \"#utility.yul\":25118:25132   */\n      add\n        /* \"#utility.yul\":25111:25169   */\n      mstore\n        /* \"#utility.yul\":25203:25213   */\n      0x7920657869737473000000000000000000000000000000000000000000000000\n        /* \"#utility.yul\":25198:25200   */\n      0x20\n        /* \"#utility.yul\":25190:25196   */\n      dup3\n        /* \"#utility.yul\":25186:25201   */\n      add\n        /* \"#utility.yul\":25179:25214   */\n      mstore\n        /* \"#utility.yul\":24994:25221   */\n      pop\n      jump\t// out\n        /* \"#utility.yul\":25227:25593   */\n    tag_462:\n        /* \"#utility.yul\":25369:25372   */\n      0x00\n        /* \"#utility.yul\":25390:25457   */\n      tag_740\n        /* \"#utility.yul\":25454:25456   */\n      0x28\n        /* \"#utility.yul\":25449:25452   */\n      dup4\n        /* \"#utility.yul\":25390:25457   */\n      tag_416\n      jump\t// in\n    tag_740:\n        /* \"#utility.yul\":25383:25457   */\n      swap2\n      pop\n        /* \"#utility.yul\":25466:25559   */\n      tag_741\n        /* \"#utility.yul\":25555:25558   */\n      dup3\n        /* \"#utility.yul\":25466:25559   */\n      tag_461\n      jump\t// in\n    tag_741:\n        /* \"#utility.yul\":25584:25586   */\n      0x40\n        /* \"#utility.yul\":25579:25582   */\n      dup3\n        /* \"#utility.yul\":25575:25587   */\n      add\n        /* \"#utility.yul\":25568:25587   */\n      swap1\n      pop\n        /* \"#utility.yul\":25227:25593   */\n      swap2\n      swap1\n      pop\n      jump\t// out\n        /* \"#utility.yul\":25599:26018   */\n    tag_67:\n        /* \"#utility.yul\":25765:25769   */\n      0x00\n        /* \"#utility.yul\":25803:25805   */\n      0x20\n        /* \"#utility.yul\":25792:25801   */\n      dup3\n        /* \"#utility.yul\":25788:25806   */\n      add\n        /* \"#utility.yul\":25780:25806   */\n      swap1\n      pop\n        /* \"#utility.yul\":25852:25861   */\n      dup2\n        /* \"#utility.yul\":25846:25850   */\n      dup2\n        /* \"#utility.yul\":25842:25862   */\n      sub\n        /* \"#utility.yul\":25838:25839   */\n      0x00\n        /* \"#utility.yul\":25827:25836   */\n      dup4\n        /* \"#utility.yul\":25823:25840   */\n      add\n        /* \"#utility.yul\":25816:25863   */\n      mstore\n        /* \"#utility.yul\":25880:26011   */\n      tag_743\n        /* \"#utility.yul\":26006:26010   */\n      dup2\n        /* \"#utility.yul\":25880:26011   */\n      tag_462\n      jump\t// in\n    tag_743:\n        /* \"#utility.yul\":25872:26011   */\n      swap1\n      pop\n        /* \"#utility.yul\":25599:26018   */\n      swap2\n      swap1\n      pop\n      jump\t// out\n        /* \"#utility.yul\":26024:26121   */\n    tag_463:\n        /* \"#utility.yul\":26083:26089   */\n      0x00\n        /* \"#utility.yul\":26111:26114   */\n      dup3\n        /* \"#utility.yul\":26101:26114   */\n      swap1\n      pop\n        /* \"#utility.yul\":26024:26121   */\n      swap3\n      swap2\n      pop\n      pop\n      jump\t// out\n        /* \"#utility.yul\":26127:26307   */\n    tag_72:\n        /* \"#utility.yul\":26175:26252   */\n      0x4e487b7100000000000000000000000000000000000000000000000000000000\n        /* \"#utility.yul\":26172:26173   */\n      0x00\n        /* \"#utility.yul\":26165:26253   */\n      mstore\n        /* \"#utility.yul\":26272:26276   */\n      0x41\n        /* \"#utility.yul\":26269:26270   */\n      0x04\n        /* \"#utility.yul\":26262:26277   */\n      mstore\n        /* \"#utility.yul\":26296:26300   */\n      0x24\n        /* \"#utility.yul\":26293:26294   */\n      0x00\n        /* \"#utility.yul\":26286:26301   */\n      revert\n        /* \"#utility.yul\":26313:26493   */\n    tag_464:\n        /* \"#utility.yul\":26361:26438   */\n      0x4e487b7100000000000000000000000000000000000000000000000000000000\n        /* \"#utility.yul\":26358:26359   */\n      0x00\n        /* \"#utility.yul\":26351:26439   */\n      mstore\n        /* \"#utility.yul\":26458:26462   */\n      0x22\n        /* \"#utility.yul\":26455:26456   */\n      0x04\n        /* \"#utility.yul\":26448:26463   */\n      mstore\n        /* \"#utility.yul\":26482:26486   */\n      0x24\n        /* \"#utility.yul\":26479:26480   */\n      0x00\n        /* \"#utility.yul\":26472:26487   */\n      revert\n        /* \"#utility.yul\":26499:26819   */\n    tag_152:\n        /* \"#utility.yul\":26543:26549   */\n      0x00\n        /* \"#utility.yul\":26580:26581   */\n      0x02\n        /* \"#utility.yul\":26574:26578   */\n      dup3\n        /* \"#utility.yul\":26570:26582   */\n      div\n        /* \"#utility.yul\":26560:26582   */\n      swap1\n      pop\n        /* \"#utility.yul\":26627:26628   */\n      0x01\n        /* \"#utility.yul\":26621:26625   */\n      dup3\n        /* \"#utility.yul\":26617:26629   */\n      and\n        /* \"#utility.yul\":26648:26666   */\n      dup1\n        /* \"#utility.yul\":26638:26719   */\n      tag_748\n      jumpi\n        /* \"#utility.yul\":26704:26708   */\n      0x7f\n        /* \"#utility.yul\":26696:26702   */\n      dup3\n        /* \"#utility.yul\":26692:26709   */\n      and\n        /* \"#utility.yul\":26682:26709   */\n      swap2\n      pop\n        /* \"#utility.yul\":26638:26719   */\n    tag_748:\n        /* \"#utility.yul\":26766:26768   */\n      0x20\n        /* \"#utility.yul\":26758:26764   */\n      dup3\n        /* \"#utility.yul\":26755:26769   */\n      lt\n        /* \"#utility.yul\":26735:26753   */\n      dup2\n        /* \"#utility.yul\":26732:26770   */\n      sub\n        /* \"#utility.yul\":26729:26813   */\n      tag_749\n      jumpi\n        /* \"#utility.yul\":26785:26803   */\n      tag_750\n      tag_464\n      jump\t// in\n    tag_750:\n        /* \"#utility.yul\":26729:26813   */\n    tag_749:\n        /* \"#utility.yul\":26550:26819   */\n      pop\n        /* \"#utility.yul\":26499:26819   */\n      swap2\n      swap1\n      pop\n      jump\t// out\n        /* \"#utility.yul\":26825:26966   */\n    tag_465:\n        /* \"#utility.yul\":26874:26878   */\n      0x00\n        /* \"#utility.yul\":26897:26900   */\n      dup2\n        /* \"#utility.yul\":26889:26900   */\n      swap1\n      pop\n        /* \"#utility.yul\":26920:26923   */\n      dup2\n        /* \"#utility.yul\":26917:26918   */\n      0x00\n        /* \"#utility.yul\":26910:26924   */\n      mstore\n        /* \"#utility.yul\":26954:26958   */\n      0x20\n        /* \"#utility.yul\":26951:26952   */\n      0x00\n        /* \"#utility.yul\":26941:26959   */\n      keccak256\n        /* \"#utility.yul\":26933:26959   */\n      swap1\n      pop\n        /* \"#utility.yul\":26825:26966   */\n      swap2\n      swap1\n      pop\n      jump\t// out\n        /* \"#utility.yul\":26972:27065   */\n    tag_466:\n        /* \"#utility.yul\":27009:27015   */\n      0x00\n        /* \"#utility.yul\":27056:27058   */\n      0x20\n        /* \"#utility.yul\":27051:27053   */\n      0x1f\n        /* \"#utility.yul\":27044:27049   */\n      dup4\n        /* \"#utility.yul\":27040:27054   */\n      add\n        /* \"#utility.yul\":27036:27059   */\n      div\n        /* \"#utility.yul\":27026:27059   */\n      swap1\n      pop\n        /* \"#utility.yul\":26972:27065   */\n      swap2\n      swap1\n      pop\n      jump\t// out\n        /* \"#utility.yul\":27071:27178   */\n    tag_467:\n        /* \"#utility.yul\":27115:27123   */\n      0x00\n        /* \"#utility.yul\":27165:27170   */\n      dup3\n        /* \"#utility.yul\":27159:27163   */\n      dup3\n        /* \"#utility.yul\":27155:27171   */\n      shl\n        /* \"#utility.yul\":27134:27171   */\n      swap1\n      pop\n        /* \"#utility.yul\":27071:27178   */\n      swap3\n      swap2\n      pop\n      pop\n      jump\t// out\n        /* \"#utility.yul\":27184:27577   */\n    tag_468:\n        /* \"#utility.yul\":27253:27259   */\n      0x00\n        /* \"#utility.yul\":27303:27304   */\n      0x08\n        /* \"#utility.yul\":27291:27301   */\n      dup4\n        /* \"#utility.yul\":27287:27305   */\n      mul\n        /* \"#utility.yul\":27326:27423   */\n      tag_755\n        /* \"#utility.yul\":27356:27422   */\n      0xffffffffffffffffffffffffffffffffffffffffffffffffffffffffffffffff\n        /* \"#utility.yul\":27345:27354   */\n      dup3\n        /* \"#utility.yul\":27326:27423   */\n      tag_467\n      jump\t// in\n    tag_755:\n        /* \"#utility.yul\":27444:27483   */\n      tag_756\n        /* \"#utility.yul\":27474:27482   */\n      dup7\n        /* \"#utility.yul\":27463:27472   */\n      dup4\n        /* \"#utility.yul\":27444:27483   */\n      tag_467\n      jump\t// in\n    tag_756:\n        /* \"#utility.yul\":27432:27483   */\n      swap6\n      pop\n        /* \"#utility.yul\":27516:27520   */\n      dup1\n        /* \"#utility.yul\":27512:27521   */\n      not\n        /* \"#utility.yul\":27505:27510   */\n      dup5\n        /* \"#utility.yul\":27501:27522   */\n      and\n        /* \"#utility.yul\":27492:27522   */\n      swap4\n      pop\n        /* \"#utility.yul\":27565:27569   */\n      dup1\n        /* \"#utility.yul\":27555:27563   */\n      dup7\n        /* \"#utility.yul\":27551:27570   */\n      and\n        /* \"#utility.yul\":27544:27549   */\n      dup5\n        /* \"#utility.yul\":27541:27571   */\n      or\n        /* \"#utility.yul\":27531:27571   */\n      swap3\n      pop\n        /* \"#utility.yul\":27260:27577   */\n      pop\n      pop\n        /* \"#utility.yul\":27184:27577   */\n      swap4\n      swap3\n      pop\n      pop\n      pop\n      jump\t// out\n        /* \"#utility.yul\":27583:27643   */\n    tag_469:\n        /* \"#utility.yul\":27611:27614   */\n      0x00\n        /* \"#utility.yul\":27632:27637   */\n      dup2\n        /* \"#utility.yul\":27625:27637   */\n      swap1\n      pop\n        /* \"#utility.yul\":27583:27643   */\n      swap2\n      swap1\n      pop\n      jump\t// out\n        /* \"#utility.yul\":27649:27791   */\n    tag_470:\n        /* \"#utility.yul\":27699:27708   */\n      0x00\n        /* \"#utility.yul\":27732:27785   */\n      tag_759\n        /* \"#utility.yul\":27750:27784   */\n      tag_760\n        /* \"#utility.yul\":27759:27783   */\n      tag_761\n        /* \"#utility.yul\":27777:27782   */\n      dup5\n        /* \"#utility.yul\":27759:27783   */\n      tag_407\n      jump\t// in\n    tag_761:\n        /* \"#utility.yul\":27750:27784   */\n      tag_469\n      jump\t// in\n    tag_760:\n        /* \"#utility.yul\":27732:27785   */\n      tag_407\n      jump\t// in\n    tag_759:\n        /* \"#utility.yul\":27719:27785   */\n      swap1\n      pop\n        /* \"#utility.yul\":27649:27791   */\n      swap2\n      swap1\n      pop\n      jump\t// out\n        /* \"#utility.yul\":27797:27872   */\n    tag_471:\n        /* \"#utility.yul\":27840:27843   */\n      0x00\n        /* \"#utility.yul\":27861:27866   */\n      dup2\n        /* \"#utility.yul\":27854:27866   */\n      swap1\n      pop\n        /* \"#utility.yul\":27797:27872   */\n      swap2\n      swap1\n      pop\n      jump\t// out\n        /* \"#utility.yul\":27878:28147   */\n    tag_472:\n        /* \"#utility.yul\":27988:28027   */\n      tag_764\n        /* \"#utility.yul\":28019:28026   */\n      dup4\n        /* \"#utility.yul\":27988:28027   */\n      tag_470\n      jump\t// in\n    tag_764:\n        /* \"#utility.yul\":28049:28140   */\n      tag_765\n        /* \"#utility.yul\":28098:28139   */\n      tag_766\n        /* \"#utility.yul\":28122:28138   */\n      dup3\n        /* \"#utility.yul\":28098:28139   */\n      tag_471\n      jump\t// in\n    tag_766:\n        /* \"#utility.yul\":28090:28096   */\n      dup5\n        /* \"#utility.yul\":28083:28087   */\n      dup5\n        /* \"#utility.yul\":28077:28088   */\n      sload\n        /* \"#utility.yul\":28049:28140   */\n      tag_468\n      jump\t// in\n    tag_765:\n        /* \"#utility.yul\":28043:28047   */\n      dup3\n        /* \"#utility.yul\":28036:28141   */\n      sstore\n        /* \"#utility.yul\":27954:28147   */\n      pop\n        /* \"#utility.yul\":27878:28147   */\n      pop\n      pop\n      pop\n      jump\t// out\n        /* \"#utility.yul\":28153:28226   */\n    tag_473:\n        /* \"#utility.yul\":28198:28201   */\n      0x00\n        /* \"#utility.yul\":28153:28226   */\n      swap1\n      jump\t// out\n        /* \"#utility.yul\":28232:28421   */\n    tag_474:\n        /* \"#utility.yul\":28309:28341   */\n      tag_769\n      tag_473\n      jump\t// in\n    tag_769:\n        /* \"#utility.yul\":28350:28415   */\n      tag_770\n        /* \"#utility.yul\":28408:28414   */\n      dup2\n        /* \"#utility.yul\":28400:28406   */\n      dup5\n        /* \"#utility.yul\":28394:28398   */\n      dup5\n        /* \"#utility.yul\":28350:28415   */\n      tag_472\n      jump\t// in\n    tag_770:\n        /* \"#utility.yul\":28285:28421   */\n      pop\n        /* \"#utility.yul\":28232:28421   */\n      pop\n      pop\n      jump\t// out\n        /* \"#utility.yul\":28427:28613   */\n    tag_475:\n        /* \"#utility.yul\":28487:28607   */\n    tag_772:\n        /* \"#utility.yul\":28504:28507   */\n      dup2\n        /* \"#utility.yul\":28497:28502   */\n      dup2\n        /* \"#utility.yul\":28494:28508   */\n      lt\n        /* \"#utility.yul\":28487:28607   */\n      iszero\n      tag_774\n      jumpi\n        /* \"#utility.yul\":28558:28597   */\n      tag_775\n        /* \"#utility.yul\":28595:28596   */\n      0x00\n        /* \"#utility.yul\":28588:28593   */\n      dup3\n        /* \"#utility.yul\":28558:28597   */\n      tag_474\n      jump\t// in\n    tag_775:\n        /* \"#utility.yul\":28531:28532   */\n      0x01\n        /* \"#utility.yul\":28524:28529   */\n      dup2\n        /* \"#utility.yul\":28520:28533   */\n      add\n        /* \"#utility.yul\":28511:28533   */\n      swap1\n      pop\n        /* \"#utility.yul\":28487:28607   */\n      jump(tag_772)\n    tag_774:\n        /* \"#utility.yul\":28427:28613   */\n      pop\n      pop\n      jump\t// out\n        /* \"#utility.yul\":28619:29162   */\n    tag_476:\n        /* \"#utility.yul\":28720:28722   */\n      0x1f\n        /* \"#utility.yul\":28715:28718   */\n      dup3\n        /* \"#utility.yul\":28712:28723   */\n      gt\n        /* \"#utility.yul\":28709:29155   */\n      iszero\n      tag_777\n      jumpi\n        /* \"#utility.yul\":28754:28792   */\n      tag_778\n        /* \"#utility.yul\":28786:28791   */\n      dup2\n        /* \"#utility.yul\":28754:28792   */\n      tag_465\n      jump\t// in\n    tag_778:\n        /* \"#utility.yul\":28838:28867   */\n      tag_779\n        /* \"#utility.yul\":28856:28866   */\n      dup5\n        /* \"#utility.yul\":28838:28867   */\n      tag_466\n      jump\t// in\n    tag_779:\n        /* \"#utility.yul\":28828:28836   */\n      dup2\n        /* \"#utility.yul\":28824:28868   */\n      add\n        /* \"#utility.yul\":29021:29023   */\n      0x20\n        /* \"#utility.yul\":29009:29019   */\n      dup6\n        /* \"#utility.yul\":29006:29024   */\n      lt\n        /* \"#utility.yul\":29003:29052   */\n      iszero\n      tag_780\n      jumpi\n        /* \"#utility.yul\":29042:29050   */\n      dup2\n        /* \"#utility.yul\":29027:29050   */\n      swap1\n      pop\n        /* \"#utility.yul\":29003:29052   */\n    tag_780:\n        /* \"#utility.yul\":29065:29145   */\n      tag_781\n        /* \"#utility.yul\":29121:29143   */\n      tag_782\n        /* \"#utility.yul\":29139:29142   */\n      dup6\n        /* \"#utility.yul\":29121:29143   */\n      tag_466\n      jump\t// in\n    tag_782:\n        /* \"#utility.yul\":29111:29119   */\n      dup4\n        /* \"#utility.yul\":29107:29144   */\n      add\n        /* \"#utility.yul\":29094:29105   */\n      dup3\n        /* \"#utility.yul\":29065:29145   */\n      tag_475\n      jump\t// in\n    tag_781:\n        /* \"#utility.yul\":28724:29155   */\n      pop\n      pop\n        /* \"#utility.yul\":28709:29155   */\n    tag_777:\n        /* \"#utility.yul\":28619:29162   */\n      pop\n      pop\n      pop\n      jump\t// out\n        /* \"#utility.yul\":29168:29285   */\n    tag_477:\n        /* \"#utility.yul\":29222:29230   */\n      0x00\n        /* \"#utility.yul\":29272:29277   */\n      dup3\n        /* \"#utility.yul\":29266:29270   */\n      dup3\n        /* \"#utility.yul\":29262:29278   */\n      shr\n        /* \"#utility.yul\":29241:29278   */\n      swap1\n      pop\n        /* \"#utility.yul\":29168:29285   */\n      swap3\n      swap2\n      pop\n      pop\n      jump\t// out\n        /* \"#utility.yul\":29291:29460   */\n    tag_478:\n        /* \"#utility.yul\":29335:29341   */\n      0x00\n        /* \"#utility.yul\":29368:29419   */\n      tag_785\n        /* \"#utility.yul\":29416:29417   */\n      0x00\n        /* \"#utility.yul\":29412:29418   */\n      not\n        /* \"#utility.yul\":29404:29409   */\n      dup5\n        /* \"#utility.yul\":29401:29402   */\n      0x08\n        /* \"#utility.yul\":29397:29410   */\n      mul\n        /* \"#utility.yul\":29368:29419   */\n      tag_477\n      jump\t// in\n    tag_785:\n        /* \"#utility.yul\":29364:29420   */\n      not\n        /* \"#utility.yul\":29449:29453   */\n      dup1\n        /* \"#utility.yul\":29443:29447   */\n      dup4\n        /* \"#utility.yul\":29439:29454   */\n      and\n        /* \"#utility.yul\":29429:29454   */\n      swap2\n      pop\n        /* \"#utility.yul\":29342:29460   */\n      pop\n        /* \"#utility.yul\":29291:29460   */\n      swap3\n      swap2\n      pop\n      pop\n      jump\t// out\n        /* \"#utility.yul\":29465:29760   */\n    tag_479:\n        /* \"#utility.yul\":29541:29545   */\n      0x00\n        /* \"#utility.yul\":29687:29716   */\n      tag_787\n        /* \"#utility.yul\":29712:29715   */\n      dup4\n        /* \"#utility.yul\":29706:29710   */\n      dup4\n        /* \"#utility.yul\":29687:29716   */\n      tag_478\n      jump\t// in\n    tag_787:\n        /* \"#utility.yul\":29679:29716   */\n      swap2\n      pop\n        /* \"#utility.yul\":29749:29752   */\n      dup3\n        /* \"#utility.yul\":29746:29747   */\n      0x02\n        /* \"#utility.yul\":29742:29753   */\n      mul\n        /* \"#utility.yul\":29736:29740   */\n      dup3\n        /* \"#utility.yul\":29733:29754   */\n      or\n        /* \"#utility.yul\":29725:29754   */\n      swap1\n      pop\n        /* \"#utility.yul\":29465:29760   */\n      swap3\n      swap2\n      pop\n      pop\n      jump\t// out\n        /* \"#utility.yul\":29765:31168   */\n    tag_69:\n        /* \"#utility.yul\":29889:29933   */\n      tag_789\n        /* \"#utility.yul\":29929:29932   */\n      dup4\n        /* \"#utility.yul\":29924:29927   */\n      dup4\n        /* \"#utility.yul\":29889:29933   */\n      tag_463\n      jump\t// in\n    tag_789:\n        /* \"#utility.yul\":29998:30016   */\n      0xffffffffffffffff\n        /* \"#utility.yul\":29990:29996   */\n      dup2\n        /* \"#utility.yul\":29987:30017   */\n      gt\n        /* \"#utility.yul\":29984:30040   */\n      iszero\n      tag_790\n      jumpi\n        /* \"#utility.yul\":30020:30038   */\n      tag_791\n      tag_72\n      jump\t// in\n    tag_791:\n        /* \"#utility.yul\":29984:30040   */\n    tag_790:\n        /* \"#utility.yul\":30064:30102   */\n      tag_792\n        /* \"#utility.yul\":30096:30100   */\n      dup3\n        /* \"#utility.yul\":30090:30101   */\n      sload\n        /* \"#utility.yul\":30064:30102   */\n      tag_152\n      jump\t// in\n    tag_792:\n        /* \"#utility.yul\":30149:30216   */\n      tag_793\n        /* \"#utility.yul\":30209:30215   */\n      dup3\n        /* \"#utility.yul\":30201:30207   */\n      dup3\n        /* \"#utility.yul\":30195:30199   */\n      dup6\n        /* \"#utility.yul\":30149:30216   */\n      tag_476\n      jump\t// in\n    tag_793:\n        /* \"#utility.yul\":30243:30244   */\n      0x00\n        /* \"#utility.yul\":30272:30274   */\n      0x1f\n        /* \"#utility.yul\":30264:30270   */\n      dup4\n        /* \"#utility.yul\":30261:30275   */\n      gt\n        /* \"#utility.yul\":30289:30290   */\n      0x01\n        /* \"#utility.yul\":30284:30916   */\n      dup2\n      eq\n      tag_795\n      jumpi\n        /* \"#utility.yul\":30960:30961   */\n      0x00\n        /* \"#utility.yul\":30977:30983   */\n      dup5\n        /* \"#utility.yul\":30974:31058   */\n      iszero\n      tag_796\n      jumpi\n        /* \"#utility.yul\":31033:31042   */\n      dup3\n        /* \"#utility.yul\":31028:31031   */\n      dup8\n        /* \"#utility.yul\":31024:31043   */\n      add\n        /* \"#utility.yul\":31011:31044   */\n      calldataload\n        /* \"#utility.yul\":31002:31044   */\n      swap1\n      pop\n        /* \"#utility.yul\":30974:31058   */\n    tag_796:\n        /* \"#utility.yul\":31084:31151   */\n      tag_797\n        /* \"#utility.yul\":31144:31150   */\n      dup6\n        /* \"#utility.yul\":31137:31142   */\n      dup3\n        /* \"#utility.yul\":31084:31151   */\n      tag_479\n      jump\t// in\n    tag_797:\n        /* \"#utility.yul\":31078:31082   */\n      dup7\n        /* \"#utility.yul\":31071:31152   */\n      sstore\n        /* \"#utility.yul\":30933:31162   */\n      pop\n        /* \"#utility.yul\":30254:31162   */\n      jump(tag_794)\n        /* \"#utility.yul\":30284:30916   */\n    tag_795:\n        /* \"#utility.yul\":30336:30340   */\n      0x1f\n        /* \"#utility.yul\":30332:30341   */\n      not\n        /* \"#utility.yul\":30324:30330   */\n      dup5\n        /* \"#utility.yul\":30320:30342   */\n      and\n        /* \"#utility.yul\":30370:30407   */\n      tag_798\n        /* \"#utility.yul\":30402:30406   */\n      dup7\n        /* \"#utility.yul\":30370:30407   */\n      tag_465\n      jump\t// in\n    tag_798:\n        /* \"#utility.yul\":30429:30430   */\n      0x00\n        /* \"#utility.yul\":30443:30658   */\n    tag_799:\n        /* \"#utility.yul\":30457:30464   */\n      dup3\n        /* \"#utility.yul\":30454:30455   */\n      dup2\n        /* \"#utility.yul\":30451:30465   */\n      lt\n        /* \"#utility.yul\":30443:30658   */\n      iszero\n      tag_801\n      jumpi\n        /* \"#utility.yul\":30543:30552   */\n      dup5\n        /* \"#utility.yul\":30538:30541   */\n      dup10\n        /* \"#utility.yul\":30534:30553   */\n      add\n        /* \"#utility.yul\":30521:30554   */\n      calldataload\n        /* \"#utility.yul\":30513:30519   */\n      dup3\n        /* \"#utility.yul\":30506:30555   */\n      sstore\n        /* \"#utility.yul\":30594:30595   */\n      0x01\n        /* \"#utility.yul\":30586:30592   */\n      dup3\n        /* \"#utility.yul\":30582:30596   */\n      add\n        /* \"#utility.yul\":30572:30596   */\n      swap2\n      pop\n        /* \"#utility.yul\":30641:30643   */\n      0x20\n        /* \"#utility.yul\":30630:30639   */\n      dup6\n        /* \"#utility.yul\":30626:30644   */\n      add\n        /* \"#utility.yul\":30613:30644   */\n      swap5\n      pop\n        /* \"#utility.yul\":30480:30484   */\n      0x20\n        /* \"#utility.yul\":30477:30478   */\n      dup2\n        /* \"#utility.yul\":30473:30485   */\n      add\n        /* \"#utility.yul\":30468:30485   */\n      swap1\n      pop\n        /* \"#utility.yul\":30443:30658   */\n      jump(tag_799)\n    tag_801:\n        /* \"#utility.yul\":30686:30692   */\n      dup7\n        /* \"#utility.yul\":30677:30684   */\n      dup4\n        /* \"#utility.yul\":30674:30693   */\n      lt\n        /* \"#utility.yul\":30671:30857   */\n      iszero\n      tag_802\n      jumpi\n        /* \"#utility.yul\":30751:30760   */\n      dup5\n        /* \"#utility.yul\":30746:30749   */\n      dup10\n        /* \"#utility.yul\":30742:30761   */\n      add\n        /* \"#utility.yul\":30729:30762   */\n      calldataload\n        /* \"#utility.yul\":30794:30842   */\n      tag_803\n        /* \"#utility.yul\":30836:30840   */\n      0x1f\n        /* \"#utility.yul\":30828:30834   */\n      dup10\n        /* \"#utility.yul\":30824:30841   */\n      and\n        /* \"#utility.yul\":30813:30822   */\n      dup3\n        /* \"#utility.yul\":30794:30842   */\n      tag_478\n      jump\t// in\n    tag_803:\n        /* \"#utility.yul\":30786:30792   */\n      dup4\n        /* \"#utility.yul\":30779:30843   */\n      sstore\n        /* \"#utility.yul\":30694:30857   */\n      pop\n        /* \"#utility.yul\":30671:30857   */\n    tag_802:\n        /* \"#utility.yul\":30903:30904   */\n      0x01\n        /* \"#utility.yul\":30899:30900   */\n      0x02\n        /* \"#utility.yul\":30891:30897   */\n      dup9\n        /* \"#utility.yul\":30887:30901   */\n      mul\n        /* \"#utility.yul\":30883:30905   */\n      add\n        /* \"#utility.yul\":30877:30881   */\n      dup9\n        /* \"#utility.yul\":30870:30906   */\n      sstore\n        /* \"#utility.yul\":30291:30916   */\n      pop\n      pop\n      pop\n        /* \"#utility.yul\":30254:31162   */\n    tag_794:\n      pop\n        /* \"#utility.yul\":29864:31168   */\n      pop\n      pop\n      pop\n        /* \"#utility.yul\":29765:31168   */\n      pop\n      pop\n      pop\n      jump\t// out\n        /* \"#utility.yul\":31174:31354   */\n    tag_81:\n        /* \"#utility.yul\":31222:31299   */\n      0x4e487b7100000000000000000000000000000000000000000000000000000000\n        /* \"#utility.yul\":31219:31220   */\n      0x00\n        /* \"#utility.yul\":31212:31300   */\n      mstore\n        /* \"#utility.yul\":31319:31323   */\n      0x32\n        /* \"#utility.yul\":31316:31317   */\n      0x04\n        /* \"#utility.yul\":31309:31324   */\n      mstore\n        /* \"#utility.yul\":31343:31347   */\n      0x24\n        /* \"#utility.yul\":31340:31341   */\n      0x00\n        /* \"#utility.yul\":31333:31348   */\n      revert\n        /* \"#utility.yul\":31360:31477   */\n    tag_480:\n        /* \"#utility.yul\":31469:31470   */\n      0x00\n        /* \"#utility.yul\":31466:31467   */\n      dup1\n        /* \"#utility.yul\":31459:31471   */\n      revert\n        /* \"#utility.yul\":31483:31600   */\n    tag_481:\n        /* \"#utility.yul\":31592:31593   */\n      0x00\n        /* \"#utility.yul\":31589:31590   */\n      dup1\n        /* \"#utility.yul\":31582:31594   */\n      revert\n        /* \"#utility.yul\":31606:31723   */\n    tag_482:\n        /* \"#utility.yul\":31715:31716   */\n      0x00\n        /* \"#utility.yul\":31712:31713   */\n      dup1\n        /* \"#utility.yul\":31705:31717   */\n      revert\n        /* \"#utility.yul\":31729:32454   */\n    tag_83:\n        /* \"#utility.yul\":31807:31811   */\n      0x00\n        /* \"#utility.yul\":31813:31819   */\n      dup1\n        /* \"#utility.yul\":31869:31880   */\n      dup4\n        /* \"#utility.yul\":31856:31881   */\n      calldataload\n        /* \"#utility.yul\":31969:31970   */\n      0x01\n        /* \"#utility.yul\":31963:31967   */\n      0x20\n        /* \"#utility.yul\":31959:31971   */\n      sub\n        /* \"#utility.yul\":31948:31956   */\n      dup5\n        /* \"#utility.yul\":31932:31946   */\n      calldatasize\n        /* \"#utility.yul\":31928:31957   */\n      sub\n        /* \"#utility.yul\":31924:31972   */\n      sub\n        /* \"#utility.yul\":31904:31922   */\n      dup2\n        /* \"#utility.yul\":31900:31973   */\n      slt\n        /* \"#utility.yul\":31890:32058   */\n      tag_809\n      jumpi\n        /* \"#utility.yul\":31977:32056   */\n      tag_810\n      tag_480\n      jump\t// in\n    tag_810:\n        /* \"#utility.yul\":31890:32058   */\n    tag_809:\n        /* \"#utility.yul\":32089:32107   */\n      dup1\n        /* \"#utility.yul\":32079:32087   */\n      dup5\n        /* \"#utility.yul\":32075:32108   */\n      add\n        /* \"#utility.yul\":32067:32108   */\n      swap3\n      pop\n        /* \"#utility.yul\":32141:32145   */\n      dup3\n        /* \"#utility.yul\":32128:32146   */\n      calldataload\n        /* \"#utility.yul\":32118:32146   */\n      swap2\n      pop\n        /* \"#utility.yul\":32169:32187   */\n      0xffffffffffffffff\n        /* \"#utility.yul\":32161:32167   */\n      dup3\n        /* \"#utility.yul\":32158:32188   */\n      gt\n        /* \"#utility.yul\":32155:32272   */\n      iszero\n      tag_811\n      jumpi\n        /* \"#utility.yul\":32191:32270   */\n      tag_812\n      tag_481\n      jump\t// in\n    tag_812:\n        /* \"#utility.yul\":32155:32272   */\n    tag_811:\n        /* \"#utility.yul\":32299:32301   */\n      0x20\n        /* \"#utility.yul\":32293:32297   */\n      dup4\n        /* \"#utility.yul\":32289:32302   */\n      add\n        /* \"#utility.yul\":32281:32302   */\n      swap3\n      pop\n        /* \"#utility.yul\":32356:32360   */\n      0x01\n        /* \"#utility.yul\":32348:32354   */\n      dup3\n        /* \"#utility.yul\":32344:32361   */\n      mul\n        /* \"#utility.yul\":32328:32342   */\n      calldatasize\n        /* \"#utility.yul\":32324:32362   */\n      sub\n        /* \"#utility.yul\":32318:32322   */\n      dup4\n        /* \"#utility.yul\":32314:32363   */\n      sgt\n        /* \"#utility.yul\":32311:32447   */\n      iszero\n      tag_813\n      jumpi\n        /* \"#utility.yul\":32366:32445   */\n      tag_814\n      tag_482\n      jump\t// in\n    tag_814:\n        /* \"#utility.yul\":32311:32447   */\n    tag_813:\n        /* \"#utility.yul\":31820:32454   */\n      pop\n        /* \"#utility.yul\":31729:32454   */\n      swap3\n      pop\n      swap3\n      swap1\n      pop\n      jump\t// out\n        /* \"#utility.yul\":32460:32608   */\n    tag_483:\n        /* \"#utility.yul\":32558:32564   */\n      dup3\n        /* \"#utility.yul\":32553:32556   */\n      dup2\n        /* \"#utility.yul\":32548:32551   */\n      dup4\n        /* \"#utility.yul\":32535:32565   */\n      calldatacopy\n        /* \"#utility.yul\":32599:32600   */\n      0x00\n        /* \"#utility.yul\":32590:32596   */\n      dup4\n        /* \"#utility.yul\":32585:32588   */\n      dup4\n        /* \"#utility.yul\":32581:32597   */\n      add\n        /* \"#utility.yul\":32574:32601   */\n      mstore\n        /* \"#utility.yul\":32460:32608   */\n      pop\n      pop\n      pop\n      jump\t// out\n        /* \"#utility.yul\":32638:32955   */\n    tag_484:\n        /* \"#utility.yul\":32736:32739   */\n      0x00\n        /* \"#utility.yul\":32757:32828   */\n      tag_817\n        /* \"#utility.yul\":32821:32827   */\n      dup4\n        /* \"#utility.yul\":32816:32819   */\n      dup6\n        /* \"#utility.yul\":32757:32828   */\n      tag_416\n      jump\t// in\n    tag_817:\n        /* \"#utility.yul\":32750:32828   */\n      swap4\n      pop\n        /* \"#utility.yul\":32838:32894   */\n      tag_818\n        /* \"#utility.yul\":32887:32893   */\n      dup4\n        /* \"#utility.yul\":32882:32885   */\n      dup6\n        /* \"#utility.yul\":32875:32880   */\n      dup5\n        /* \"#utility.yul\":32838:32894   */\n      tag_483\n      jump\t// in\n    tag_818:\n        /* \"#utility.yul\":32919:32948   */\n      tag_819\n        /* \"#utility.yul\":32941:32947   */\n      dup4\n        /* \"#utility.yul\":32919:32948   */\n      tag_418\n      jump\t// in\n    tag_819:\n        /* \"#utility.yul\":32914:32917   */\n      dup5\n        /* \"#utility.yul\":32910:32949   */\n      add\n        /* \"#utility.yul\":32903:32949   */\n      swap1\n      pop\n        /* \"#utility.yul\":32638:32955   */\n      swap4\n      swap3\n      pop\n      pop\n      pop\n      jump\t// out\n        /* \"#utility.yul\":32961:33075   */\n    tag_485:\n        /* \"#utility.yul\":33042:33046   */\n      0x00\n        /* \"#utility.yul\":33065:33068   */\n      dup2\n        /* \"#utility.yul\":33057:33068   */\n      swap1\n      pop\n        /* \"#utility.yul\":32961:33075   */\n      swap2\n      swap1\n      pop\n      jump\t// out\n        /* \"#utility.yul\":33105:33402   */\n    tag_486:\n        /* \"#utility.yul\":33193:33196   */\n      0x00\n        /* \"#utility.yul\":33214:33275   */\n      tag_822\n        /* \"#utility.yul\":33268:33274   */\n      dup4\n        /* \"#utility.yul\":33263:33266   */\n      dup6\n        /* \"#utility.yul\":33214:33275   */\n      tag_423\n      jump\t// in\n    tag_822:\n        /* \"#utility.yul\":33207:33275   */\n      swap4\n      pop\n        /* \"#utility.yul\":33285:33341   */\n      tag_823\n        /* \"#utility.yul\":33334:33340   */\n      dup4\n        /* \"#utility.yul\":33329:33332   */\n      dup6\n        /* \"#utility.yul\":33322:33327   */\n      dup5\n        /* \"#utility.yul\":33285:33341   */\n      tag_483\n      jump\t// in\n    tag_823:\n        /* \"#utility.yul\":33366:33395   */\n      tag_824\n        /* \"#utility.yul\":33388:33394   */\n      dup4\n        /* \"#utility.yul\":33366:33395   */\n      tag_418\n      jump\t// in\n    tag_824:\n        /* \"#utility.yul\":33361:33364   */\n      dup5\n        /* \"#utility.yul\":33357:33396   */\n      add\n        /* \"#utility.yul\":33350:33396   */\n      swap1\n      pop\n        /* \"#utility.yul\":33105:33402   */\n      swap4\n      swap3\n      pop\n      pop\n      pop\n      jump\t// out\n        /* \"#utility.yul\":33408:33624   */\n    tag_487:\n        /* \"#utility.yul\":33507:33517   */\n      0x00\n        /* \"#utility.yul\":33542:33618   */\n      tag_826\n        /* \"#utility.yul\":33614:33617   */\n      dup5\n        /* \"#utility.yul\":33606:33612   */\n      dup5\n        /* \"#utility.yul\":33598:33604   */\n      dup5\n        /* \"#utility.yul\":33542:33618   */\n      tag_486\n      jump\t// in\n    tag_826:\n        /* \"#utility.yul\":33528:33618   */\n      swap1\n      pop\n        /* \"#utility.yul\":33408:33624   */\n      swap4\n      swap3\n      pop\n      pop\n      pop\n      jump\t// out\n        /* \"#utility.yul\":33630:33747   */\n    tag_488:\n        /* \"#utility.yul\":33739:33740   */\n      0x00\n        /* \"#utility.yul\":33736:33737   */\n      dup1\n        /* \"#utility.yul\":33729:33741   */\n      revert\n        /* \"#utility.yul\":33753:33870   */\n    tag_489:\n        /* \"#utility.yul\":33862:33863   */\n      0x00\n        /* \"#utility.yul\":33859:33860   */\n      dup1\n        /* \"#utility.yul\":33852:33864   */\n      revert\n        /* \"#utility.yul\":33876:33993   */\n    tag_490:\n        /* \"#utility.yul\":33985:33986   */\n      0x00\n        /* \"#utility.yul\":33982:33983   */\n      dup1\n        /* \"#utility.yul\":33975:33987   */\n      revert\n        /* \"#utility.yul\":33999:34711   */\n    tag_491:\n        /* \"#utility.yul\":34064:34069   */\n      0x00\n        /* \"#utility.yul\":34071:34077   */\n      dup1\n        /* \"#utility.yul\":34127:34130   */\n      dup4\n        /* \"#utility.yul\":34114:34131   */\n      calldataload\n        /* \"#utility.yul\":34219:34220   */\n      0x01\n        /* \"#utility.yul\":34213:34217   */\n      0x20\n        /* \"#utility.yul\":34209:34221   */\n      sub\n        /* \"#utility.yul\":34198:34206   */\n      dup5\n        /* \"#utility.yul\":34182:34196   */\n      calldatasize\n        /* \"#utility.yul\":34178:34207   */\n      sub\n        /* \"#utility.yul\":34174:34222   */\n      sub\n        /* \"#utility.yul\":34154:34172   */\n      dup2\n        /* \"#utility.yul\":34150:34223   */\n      slt\n        /* \"#utility.yul\":34140:34308   */\n      tag_831\n      jumpi\n        /* \"#utility.yul\":34227:34306   */\n      tag_832\n      tag_490\n      jump\t// in\n    tag_832:\n        /* \"#utility.yul\":34140:34308   */\n    tag_831:\n        /* \"#utility.yul\":34350:34358   */\n      dup4\n        /* \"#utility.yul\":34330:34348   */\n      dup2\n        /* \"#utility.yul\":34326:34359   */\n      add\n        /* \"#utility.yul\":34317:34359   */\n      swap3\n      pop\n        /* \"#utility.yul\":34392:34397   */\n      dup3\n        /* \"#utility.yul\":34379:34398   */\n      calldataload\n        /* \"#utility.yul\":34369:34398   */\n      swap2\n      pop\n        /* \"#utility.yul\":34427:34431   */\n      0x20\n        /* \"#utility.yul\":34420:34425   */\n      dup4\n        /* \"#utility.yul\":34416:34432   */\n      add\n        /* \"#utility.yul\":34407:34432   */\n      swap3\n      pop\n        /* \"#utility.yul\":34455:34473   */\n      0xffffffffffffffff\n        /* \"#utility.yul\":34447:34453   */\n      dup3\n        /* \"#utility.yul\":34444:34474   */\n      gt\n        /* \"#utility.yul\":34441:34558   */\n      iszero\n      tag_833\n      jumpi\n        /* \"#utility.yul\":34477:34556   */\n      tag_834\n      tag_488\n      jump\t// in\n    tag_834:\n        /* \"#utility.yul\":34441:34558   */\n    tag_833:\n        /* \"#utility.yul\":34613:34617   */\n      0x01\n        /* \"#utility.yul\":34605:34611   */\n      dup3\n        /* \"#utility.yul\":34601:34618   */\n      mul\n        /* \"#utility.yul\":34585:34599   */\n      calldatasize\n        /* \"#utility.yul\":34581:34619   */\n      sub\n        /* \"#utility.yul\":34574:34579   */\n      dup4\n        /* \"#utility.yul\":34570:34620   */\n      sgt\n        /* \"#utility.yul\":34567:34704   */\n      iszero\n      tag_835\n      jumpi\n        /* \"#utility.yul\":34623:34702   */\n      tag_836\n      tag_489\n      jump\t// in\n    tag_836:\n        /* \"#utility.yul\":34567:34704   */\n    tag_835:\n        /* \"#utility.yul\":34078:34711   */\n      pop\n        /* \"#utility.yul\":33999:34711   */\n      swap3\n      pop\n      swap3\n      swap1\n      pop\n      jump\t// out\n        /* \"#utility.yul\":34717:34844   */\n    tag_492:\n        /* \"#utility.yul\":34801:34805   */\n      0x00\n        /* \"#utility.yul\":34833:34837   */\n      0x20\n        /* \"#utility.yul\":34828:34831   */\n      dup3\n        /* \"#utility.yul\":34824:34838   */\n      add\n        /* \"#utility.yul\":34816:34838   */\n      swap1\n      pop\n        /* \"#utility.yul\":34717:34844   */\n      swap2\n      swap1\n      pop\n      jump\t// out\n        /* \"#utility.yul\":34878:35876   */\n    tag_493:\n        /* \"#utility.yul\":35029:35032   */\n      0x00\n        /* \"#utility.yul\":35052:35148   */\n      tag_839\n        /* \"#utility.yul\":35141:35147   */\n      dup4\n        /* \"#utility.yul\":35136:35139   */\n      dup6\n        /* \"#utility.yul\":35052:35148   */\n      tag_421\n      jump\t// in\n    tag_839:\n        /* \"#utility.yul\":35045:35148   */\n      swap4\n      pop\n        /* \"#utility.yul\":35174:35177   */\n      dup4\n        /* \"#utility.yul\":35219:35223   */\n      0x20\n        /* \"#utility.yul\":35211:35217   */\n      dup5\n        /* \"#utility.yul\":35207:35224   */\n      mul\n        /* \"#utility.yul\":35202:35205   */\n      dup6\n        /* \"#utility.yul\":35198:35225   */\n      add\n        /* \"#utility.yul\":35249:35319   */\n      tag_840\n        /* \"#utility.yul\":35313:35318   */\n      dup5\n        /* \"#utility.yul\":35249:35319   */\n      tag_485\n      jump\t// in\n    tag_840:\n        /* \"#utility.yul\":35342:35349   */\n      dup1\n        /* \"#utility.yul\":35373:35374   */\n      0x00\n        /* \"#utility.yul\":35358:35831   */\n    tag_841:\n        /* \"#utility.yul\":35383:35389   */\n      dup8\n        /* \"#utility.yul\":35380:35381   */\n      dup2\n        /* \"#utility.yul\":35377:35390   */\n      lt\n        /* \"#utility.yul\":35358:35831   */\n      iszero\n      tag_843\n      jumpi\n        /* \"#utility.yul\":35454:35463   */\n      dup5\n        /* \"#utility.yul\":35448:35452   */\n      dup5\n        /* \"#utility.yul\":35444:35464   */\n      sub\n        /* \"#utility.yul\":35439:35442   */\n      dup10\n        /* \"#utility.yul\":35432:35465   */\n      mstore\n        /* \"#utility.yul\":35514:35568   */\n      tag_844\n        /* \"#utility.yul\":35561:35567   */\n      dup3\n        /* \"#utility.yul\":35552:35559   */\n      dup5\n        /* \"#utility.yul\":35514:35568   */\n      tag_491\n      jump\t// in\n    tag_844:\n        /* \"#utility.yul\":35589:35690   */\n      tag_845\n        /* \"#utility.yul\":35685:35689   */\n      dup7\n        /* \"#utility.yul\":35670:35683   */\n      dup3\n        /* \"#utility.yul\":35655:35668   */\n      dup5\n        /* \"#utility.yul\":35589:35690   */\n      tag_487\n      jump\t// in\n    tag_845:\n        /* \"#utility.yul\":35581:35690   */\n      swap6\n      pop\n        /* \"#utility.yul\":35713:35787   */\n      tag_846\n        /* \"#utility.yul\":35780:35786   */\n      dup5\n        /* \"#utility.yul\":35713:35787   */\n      tag_492\n      jump\t// in\n    tag_846:\n        /* \"#utility.yul\":35703:35787   */\n      swap4\n      pop\n        /* \"#utility.yul\":35816:35820   */\n      0x20\n        /* \"#utility.yul\":35811:35814   */\n      dup12\n        /* \"#utility.yul\":35807:35821   */\n      add\n        /* \"#utility.yul\":35800:35821   */\n      swap11\n      pop\n        /* \"#utility.yul\":35418:35831   */\n      pop\n      pop\n        /* \"#utility.yul\":35405:35406   */\n      0x01\n        /* \"#utility.yul\":35402:35403   */\n      dup2\n        /* \"#utility.yul\":35398:35407   */\n      add\n        /* \"#utility.yul\":35393:35407   */\n      swap1\n      pop\n        /* \"#utility.yul\":35358:35831   */\n      jump(tag_841)\n    tag_843:\n        /* \"#utility.yul\":35362:35376   */\n      pop\n        /* \"#utility.yul\":35847:35851   */\n      dup3\n        /* \"#utility.yul\":35840:35851   */\n      swap8\n      pop\n        /* \"#utility.yul\":35867:35870   */\n      dup8\n        /* \"#utility.yul\":35860:35870   */\n      swap5\n      pop\n        /* \"#utility.yul\":35034:35876   */\n      pop\n      pop\n      pop\n      pop\n        /* \"#utility.yul\":34878:35876   */\n      swap4\n      swap3\n      pop\n      pop\n      pop\n      jump\t// out\n        /* \"#utility.yul\":35882:36872   */\n    tag_87:\n        /* \"#utility.yul\":36199:36203   */\n      0x00\n        /* \"#utility.yul\":36237:36240   */\n      0xa0\n        /* \"#utility.yul\":36226:36235   */\n      dup3\n        /* \"#utility.yul\":36222:36241   */\n      add\n        /* \"#utility.yul\":36214:36241   */\n      swap1\n      pop\n        /* \"#utility.yul\":36251:36322   */\n      tag_848\n        /* \"#utility.yul\":36319:36320   */\n      0x00\n        /* \"#utility.yul\":36308:36317   */\n      dup4\n        /* \"#utility.yul\":36304:36321   */\n      add\n        /* \"#utility.yul\":36295:36301   */\n      dup11\n        /* \"#utility.yul\":36251:36322   */\n      tag_414\n      jump\t// in\n    tag_848:\n        /* \"#utility.yul\":36369:36378   */\n      dup2\n        /* \"#utility.yul\":36363:36367   */\n      dup2\n        /* \"#utility.yul\":36359:36379   */\n      sub\n        /* \"#utility.yul\":36354:36356   */\n      0x20\n        /* \"#utility.yul\":36343:36352   */\n      dup4\n        /* \"#utility.yul\":36339:36357   */\n      add\n        /* \"#utility.yul\":36332:36380   */\n      mstore\n        /* \"#utility.yul\":36397:36485   */\n      tag_849\n        /* \"#utility.yul\":36480:36484   */\n      dup2\n        /* \"#utility.yul\":36471:36477   */\n      dup9\n        /* \"#utility.yul\":36463:36469   */\n      dup11\n        /* \"#utility.yul\":36397:36485   */\n      tag_484\n      jump\t// in\n    tag_849:\n        /* \"#utility.yul\":36389:36485   */\n      swap1\n      pop\n        /* \"#utility.yul\":36532:36541   */\n      dup2\n        /* \"#utility.yul\":36526:36530   */\n      dup2\n        /* \"#utility.yul\":36522:36542   */\n      sub\n        /* \"#utility.yul\":36517:36519   */\n      0x40\n        /* \"#utility.yul\":36506:36515   */\n      dup4\n        /* \"#utility.yul\":36502:36520   */\n      add\n        /* \"#utility.yul\":36495:36543   */\n      mstore\n        /* \"#utility.yul\":36560:36700   */\n      tag_850\n        /* \"#utility.yul\":36695:36699   */\n      dup2\n        /* \"#utility.yul\":36686:36692   */\n      dup7\n        /* \"#utility.yul\":36678:36684   */\n      dup9\n        /* \"#utility.yul\":36560:36700   */\n      tag_493\n      jump\t// in\n    tag_850:\n        /* \"#utility.yul\":36552:36700   */\n      swap1\n      pop\n        /* \"#utility.yul\":36710:36782   */\n      tag_851\n        /* \"#utility.yul\":36778:36780   */\n      0x60\n        /* \"#utility.yul\":36767:36776   */\n      dup4\n        /* \"#utility.yul\":36763:36781   */\n      add\n        /* \"#utility.yul\":36754:36760   */\n      dup6\n        /* \"#utility.yul\":36710:36782   */\n      tag_430\n      jump\t// in\n    tag_851:\n        /* \"#utility.yul\":36792:36865   */\n      tag_852\n        /* \"#utility.yul\":36860:36863   */\n      0x80\n        /* \"#utility.yul\":36849:36858   */\n      dup4\n        /* \"#utility.yul\":36845:36864   */\n      add\n        /* \"#utility.yul\":36836:36842   */\n      dup5\n        /* \"#utility.yul\":36792:36865   */\n      tag_414\n      jump\t// in\n    tag_852:\n        /* \"#utility.yul\":35882:36872   */\n      swap9\n      swap8\n      pop\n      pop\n      pop\n      pop\n      pop\n      pop\n      pop\n      pop\n      jump\t// out\n        /* \"#utility.yul\":36878:37042   */\n    tag_494:\n        /* \"#utility.yul\":37018:37034   */\n      0x4e6f7420617574686f72697a6564000000000000000000000000000000000000\n        /* \"#utility.yul\":37014:37015   */\n      0x00\n        /* \"#utility.yul\":37006:37012   */\n      dup3\n        /* \"#utility.yul\":37002:37016   */\n      add\n        /* \"#utility.yul\":36995:37035   */\n      mstore\n        /* \"#utility.yul\":36878:37042   */\n      pop\n      jump\t// out\n        /* \"#utility.yul\":37048:37414   */\n    tag_495:\n        /* \"#utility.yul\":37190:37193   */\n      0x00\n        /* \"#utility.yul\":37211:37278   */\n      tag_855\n        /* \"#utility.yul\":37275:37277   */\n      0x0e\n        /* \"#utility.yul\":37270:37273   */\n      dup4\n        /* \"#utility.yul\":37211:37278   */\n      tag_416\n      jump\t// in\n    tag_855:\n        /* \"#utility.yul\":37204:37278   */\n      swap2\n      pop\n        /* \"#utility.yul\":37287:37380   */\n      tag_856\n        /* \"#utility.yul\":37376:37379   */\n      dup3\n        /* \"#utility.yul\":37287:37380   */\n      tag_494\n      jump\t// in\n    tag_856:\n        /* \"#utility.yul\":37405:37407   */\n      0x20\n        /* \"#utility.yul\":37400:37403   */\n      dup3\n        /* \"#utility.yul\":37396:37408   */\n      add\n        /* \"#utility.yul\":37389:37408   */\n      swap1\n      pop\n        /* \"#utility.yul\":37048:37414   */\n      swap2\n      swap1\n      pop\n      jump\t// out\n        /* \"#utility.yul\":37420:37839   */\n    tag_91:\n        /* \"#utility.yul\":37586:37590   */\n      0x00\n        /* \"#utility.yul\":37624:37626   */\n      0x20\n        /* \"#utility.yul\":37613:37622   */\n      dup3\n        /* \"#utility.yul\":37609:37627   */\n      add\n        /* \"#utility.yul\":37601:37627   */\n      swap1\n      pop\n        /* \"#utility.yul\":37673:37682   */\n      dup2\n        /* \"#utility.yul\":37667:37671   */\n      dup2\n        /* \"#utility.yul\":37663:37683   */\n      sub\n        /* \"#utility.yul\":37659:37660   */\n      0x00\n        /* \"#utility.yul\":37648:37657   */\n      dup4\n        /* \"#utility.yul\":37644:37661   */\n      add\n        /* \"#utility.yul\":37637:37684   */\n      mstore\n        /* \"#utility.yul\":37701:37832   */\n      tag_858\n        /* \"#utility.yul\":37827:37831   */\n      dup2\n        /* \"#utility.yul\":37701:37832   */\n      tag_495\n      jump\t// in\n    tag_858:\n        /* \"#utility.yul\":37693:37832   */\n      swap1\n      pop\n        /* \"#utility.yul\":37420:37839   */\n      swap2\n      swap1\n      pop\n      jump\t// out\n        /* \"#utility.yul\":37845:38019   */\n    tag_496:\n        /* \"#utility.yul\":37985:38011   */\n      0x42657474696e6720616c7265616479207265736f6c7665640000000000000000\n        /* \"#utility.yul\":37981:37982   */\n      0x00\n        /* \"#utility.yul\":37973:37979   */\n      dup3\n        /* \"#utility.yul\":37969:37983   */\n      add\n        /* \"#utility.yul\":37962:38012   */\n      mstore\n        /* \"#utility.yul\":37845:38019   */\n      pop\n      jump\t// out\n        /* \"#utility.yul\":38025:38391   */\n    tag_497:\n        /* \"#utility.yul\":38167:38170   */\n      0x00\n        /* \"#utility.yul\":38188:38255   */\n      tag_861\n        /* \"#utility.yul\":38252:38254   */\n      0x18\n        /* \"#utility.yul\":38247:38250   */\n      dup4\n        /* \"#utility.yul\":38188:38255   */\n      tag_416\n      jump\t// in\n    tag_861:\n        /* \"#utility.yul\":38181:38255   */\n      swap2\n      pop\n        /* \"#utility.yul\":38264:38357   */\n      tag_862\n        /* \"#utility.yul\":38353:38356   */\n      dup3\n        /* \"#utility.yul\":38264:38357   */\n      tag_496\n      jump\t// in\n    tag_862:\n        /* \"#utility.yul\":38382:38384   */\n      0x20\n        /* \"#utility.yul\":38377:38380   */\n      dup3\n        /* \"#utility.yul\":38373:38385   */\n      add\n        /* \"#utility.yul\":38366:38385   */\n      swap1\n      pop\n        /* \"#utility.yul\":38025:38391   */\n      swap2\n      swap1\n      pop\n      jump\t// out\n        /* \"#utility.yul\":38397:38816   */\n    tag_95:\n        /* \"#utility.yul\":38563:38567   */\n      0x00\n        /* \"#utility.yul\":38601:38603   */\n      0x20\n        /* \"#utility.yul\":38590:38599   */\n      dup3\n        /* \"#utility.yul\":38586:38604   */\n      add\n        /* \"#utility.yul\":38578:38604   */\n      swap1\n      pop\n        /* \"#utility.yul\":38650:38659   */\n      dup2\n        /* \"#utility.yul\":38644:38648   */\n      dup2\n        /* \"#utility.yul\":38640:38660   */\n      sub\n        /* \"#utility.yul\":38636:38637   */\n      0x00\n        /* \"#utility.yul\":38625:38634   */\n      dup4\n        /* \"#utility.yul\":38621:38638   */\n      add\n        /* \"#utility.yul\":38614:38661   */\n      mstore\n        /* \"#utility.yul\":38678:38809   */\n      tag_864\n        /* \"#utility.yul\":38804:38808   */\n      dup2\n        /* \"#utility.yul\":38678:38809   */\n      tag_497\n      jump\t// in\n    tag_864:\n        /* \"#utility.yul\":38670:38809   */\n      swap1\n      pop\n        /* \"#utility.yul\":38397:38816   */\n      swap2\n      swap1\n      pop\n      jump\t// out\n        /* \"#utility.yul\":38822:39013   */\n    tag_103:\n        /* \"#utility.yul\":38862:38865   */\n      0x00\n        /* \"#utility.yul\":38881:38901   */\n      tag_866\n        /* \"#utility.yul\":38899:38900   */\n      dup3\n        /* \"#utility.yul\":38881:38901   */\n      tag_407\n      jump\t// in\n    tag_866:\n        /* \"#utility.yul\":38876:38901   */\n      swap2\n      pop\n        /* \"#utility.yul\":38915:38935   */\n      tag_867\n        /* \"#utility.yul\":38933:38934   */\n      dup4\n        /* \"#utility.yul\":38915:38935   */\n      tag_407\n      jump\t// in\n    tag_867:\n        /* \"#utility.yul\":38910:38935   */\n      swap3\n      pop\n        /* \"#utility.yul\":38958:38959   */\n      dup3\n        /* \"#utility.yul\":38955:38956   */\n      dup3\n        /* \"#utility.yul\":38951:38960   */\n      add\n        /* \"#utility.yul\":38944:38960   */\n      swap1\n      pop\n        /* \"#utility.yul\":38979:38982   */\n      dup1\n        /* \"#utility.yul\":38976:38977   */\n      dup3\n        /* \"#utility.yul\":38973:38983   */\n      gt\n        /* \"#utility.yul\":38970:39006   */\n      iszero\n      tag_868\n      jumpi\n        /* \"#utility.yul\":38986:39004   */\n      tag_869\n      tag_460\n      jump\t// in\n    tag_869:\n        /* \"#utility.yul\":38970:39006   */\n    tag_868:\n        /* \"#utility.yul\":38822:39013   */\n      swap3\n      swap2\n      pop\n      pop\n      jump\t// out\n        /* \"#utility.yul\":39019:39186   */\n    tag_105:\n        /* \"#utility.yul\":39056:39059   */\n      0x00\n        /* \"#utility.yul\":39079:39101   */\n      tag_871\n        /* \"#utility.yul\":39095:39100   */\n      dup3\n        /* \"#utility.yul\":39079:39101   */\n      tag_403\n      jump\t// in\n    tag_871:\n        /* \"#utility.yul\":39070:39101   */\n      swap2\n      pop\n        /* \"#utility.yul\":39123:39127   */\n      0xff\n        /* \"#utility.yul\":39116:39121   */\n      dup3\n        /* \"#utility.yul\":39113:39128   */\n      sub\n        /* \"#utility.yul\":39110:39151   */\n      tag_872\n      jumpi\n        /* \"#utility.yul\":39131:39149   */\n      tag_873\n      tag_460\n      jump\t// in\n    tag_873:\n        /* \"#utility.yul\":39110:39151   */\n    tag_872:\n        /* \"#utility.yul\":39178:39179   */\n      0x01\n        /* \"#utility.yul\":39171:39176   */\n      dup3\n        /* \"#utility.yul\":39167:39180   */\n      add\n        /* \"#utility.yul\":39160:39180   */\n      swap1\n      pop\n        /* \"#utility.yul\":39019:39186   */\n      swap2\n      swap1\n      pop\n      jump\t// out\n        /* \"#utility.yul\":39192:39372   */\n    tag_498:\n        /* \"#utility.yul\":39240:39317   */\n      0x4e487b7100000000000000000000000000000000000000000000000000000000\n        /* \"#utility.yul\":39237:39238   */\n      0x00\n        /* \"#utility.yul\":39230:39318   */\n      mstore\n        /* \"#utility.yul\":39337:39341   */\n      0x12\n        /* \"#utility.yul\":39334:39335   */\n      0x04\n        /* \"#utility.yul\":39327:39342   */\n      mstore\n        /* \"#utility.yul\":39361:39365   */\n      0x24\n        /* \"#utility.yul\":39358:39359   */\n      0x00\n        /* \"#utility.yul\":39351:39366   */\n      revert\n        /* \"#utility.yul\":39378:39563   */\n    tag_107:\n        /* \"#utility.yul\":39418:39419   */\n      0x00\n        /* \"#utility.yul\":39435:39455   */\n      tag_876\n        /* \"#utility.yul\":39453:39454   */\n      dup3\n        /* \"#utility.yul\":39435:39455   */\n      tag_407\n      jump\t// in\n    tag_876:\n        /* \"#utility.yul\":39430:39455   */\n      swap2\n      pop\n        /* \"#utility.yul\":39469:39489   */\n      tag_877\n        /* \"#utility.yul\":39487:39488   */\n      dup4\n        /* \"#utility.yul\":39469:39489   */\n      tag_407\n      jump\t// in\n    tag_877:\n        /* \"#utility.yul\":39464:39489   */\n      swap3\n      pop\n        /* \"#utility.yul\":39508:39509   */\n      dup3\n        /* \"#utility.yul\":39498:39533   */\n      tag_878\n      jumpi\n        /* \"#utility.yul\":39513:39531   */\n      tag_879\n      tag_498\n      jump\t// in\n    tag_879:\n        /* \"#utility.yul\":39498:39533   */\n    tag_878:\n        /* \"#utility.yul\":39555:39556   */\n      dup3\n        /* \"#utility.yul\":39552:39553   */\n      dup3\n        /* \"#utility.yul\":39548:39557   */\n      div\n        /* \"#utility.yul\":39543:39557   */\n      swap1\n      pop\n        /* \"#utility.yul\":39378:39563   */\n      swap3\n      swap2\n      pop\n      pop\n      jump\t// out\n        /* \"#utility.yul\":39569:39763   */\n    tag_109:\n        /* \"#utility.yul\":39609:39613   */\n      0x00\n        /* \"#utility.yul\":39629:39649   */\n      tag_881\n        /* \"#utility.yul\":39647:39648   */\n      dup3\n        /* \"#utility.yul\":39629:39649   */\n      tag_407\n      jump\t// in\n    tag_881:\n        /* \"#utility.yul\":39624:39649   */\n      swap2\n      pop\n        /* \"#utility.yul\":39663:39683   */\n      tag_882\n        /* \"#utility.yul\":39681:39682   */\n      dup4\n        /* \"#utility.yul\":39663:39683   */\n      tag_407\n      jump\t// in\n    tag_882:\n        /* \"#utility.yul\":39658:39683   */\n      swap3\n      pop\n        /* \"#utility.yul\":39707:39708   */\n      dup3\n        /* \"#utility.yul\":39704:39705   */\n      dup3\n        /* \"#utility.yul\":39700:39709   */\n      sub\n        /* \"#utility.yul\":39692:39709   */\n      swap1\n      pop\n        /* \"#utility.yul\":39731:39732   */\n      dup2\n        /* \"#utility.yul\":39725:39729   */\n      dup2\n        /* \"#utility.yul\":39722:39733   */\n      gt\n        /* \"#utility.yul\":39719:39756   */\n      iszero\n      tag_883\n      jumpi\n        /* \"#utility.yul\":39736:39754   */\n      tag_884\n      tag_460\n      jump\t// in\n    tag_884:\n        /* \"#utility.yul\":39719:39756   */\n    tag_883:\n        /* \"#utility.yul\":39569:39763   */\n      swap3\n      swap2\n      pop\n      pop\n      jump\t// out\n        /* \"#utility.yul\":39769:40101   */\n    tag_112:\n        /* \"#utility.yul\":39890:39894   */\n      0x00\n        /* \"#utility.yul\":39928:39930   */\n      0x40\n        /* \"#utility.yul\":39917:39926   */\n      dup3\n        /* \"#utility.yul\":39913:39931   */\n      add\n        /* \"#utility.yul\":39905:39931   */\n      swap1\n      pop\n        /* \"#utility.yul\":39941:40012   */\n      tag_886\n        /* \"#utility.yul\":40009:40010   */\n      0x00\n        /* \"#utility.yul\":39998:40007   */\n      dup4\n        /* \"#utility.yul\":39994:40011   */\n      add\n        /* \"#utility.yul\":39985:39991   */\n      dup6\n        /* \"#utility.yul\":39941:40012   */\n      tag_414\n      jump\t// in\n    tag_886:\n        /* \"#utility.yul\":40022:40094   */\n      tag_887\n        /* \"#utility.yul\":40090:40092   */\n      0x20\n        /* \"#utility.yul\":40079:40088   */\n      dup4\n        /* \"#utility.yul\":40075:40093   */\n      add\n        /* \"#utility.yul\":40066:40072   */\n      dup5\n        /* \"#utility.yul\":40022:40094   */\n      tag_430\n      jump\t// in\n    tag_887:\n        /* \"#utility.yul\":39769:40101   */\n      swap4\n      swap3\n      pop\n      pop\n      pop\n      jump\t// out\n        /* \"#utility.yul\":40107:40223   */\n    tag_499:\n        /* \"#utility.yul\":40177:40198   */\n      tag_889\n        /* \"#utility.yul\":40192:40197   */\n      dup2\n        /* \"#utility.yul\":40177:40198   */\n      tag_428\n      jump\t// in\n    tag_889:\n        /* \"#utility.yul\":40170:40175   */\n      dup2\n        /* \"#utility.yul\":40167:40199   */\n      eq\n        /* \"#utility.yul\":40157:40217   */\n      tag_890\n      jumpi\n        /* \"#utility.yul\":40213:40214   */\n      0x00\n        /* \"#utility.yul\":40210:40211   */\n      dup1\n        /* \"#utility.yul\":40203:40215   */\n      revert\n        /* \"#utility.yul\":40157:40217   */\n    tag_890:\n        /* \"#utility.yul\":40107:40223   */\n      pop\n      jump\t// out\n        /* \"#utility.yul\":40229:40366   */\n    tag_500:\n        /* \"#utility.yul\":40283:40288   */\n      0x00\n        /* \"#utility.yul\":40314:40320   */\n      dup2\n        /* \"#utility.yul\":40308:40321   */\n      mload\n        /* \"#utility.yul\":40299:40321   */\n      swap1\n      pop\n        /* \"#utility.yul\":40330:40360   */\n      tag_892\n        /* \"#utility.yul\":40354:40359   */\n      dup2\n        /* \"#utility.yul\":40330:40360   */\n      tag_499\n      jump\t// in\n    tag_892:\n        /* \"#utility.yul\":40229:40366   */\n      swap3\n      swap2\n      pop\n      pop\n      jump\t// out\n        /* \"#utility.yul\":40372:40717   */\n    tag_116:\n        /* \"#utility.yul\":40439:40445   */\n      0x00\n        /* \"#utility.yul\":40488:40490   */\n      0x20\n        /* \"#utility.yul\":40476:40485   */\n      dup3\n        /* \"#utility.yul\":40467:40474   */\n      dup5\n        /* \"#utility.yul\":40463:40486   */\n      sub\n        /* \"#utility.yul\":40459:40491   */\n      slt\n        /* \"#utility.yul\":40456:40575   */\n      iszero\n      tag_894\n      jumpi\n        /* \"#utility.yul\":40494:40573   */\n      tag_895\n      tag_397\n      jump\t// in\n    tag_895:\n        /* \"#utility.yul\":40456:40575   */\n    tag_894:\n        /* \"#utility.yul\":40614:40615   */\n      0x00\n        /* \"#utility.yul\":40639:40700   */\n      tag_896\n        /* \"#utility.yul\":40692:40699   */\n      dup5\n        /* \"#utility.yul\":40683:40689   */\n      dup3\n        /* \"#utility.yul\":40672:40681   */\n      dup6\n        /* \"#utility.yul\":40668:40690   */\n      add\n        /* \"#utility.yul\":40639:40700   */\n      tag_500\n      jump\t// in\n    tag_896:\n        /* \"#utility.yul\":40629:40700   */\n      swap2\n      pop\n        /* \"#utility.yul\":40585:40710   */\n      pop\n        /* \"#utility.yul\":40372:40717   */\n      swap3\n      swap2\n      pop\n      pop\n      jump\t// out\n        /* \"#utility.yul\":40723:40892   */\n    tag_501:\n        /* \"#utility.yul\":40863:40884   */\n      0x466565207472616e73666572206661696c656400000000000000000000000000\n        /* \"#utility.yul\":40859:40860   */\n      0x00\n        /* \"#utility.yul\":40851:40857   */\n      dup3\n        /* \"#utility.yul\":40847:40861   */\n      add\n        /* \"#utility.yul\":40840:40885   */\n      mstore\n        /* \"#utility.yul\":40723:40892   */\n      pop\n      jump\t// out\n        /* \"#utility.yul\":40898:41264   */\n    tag_502:\n        /* \"#utility.yul\":41040:41043   */\n      0x00\n        /* \"#utility.yul\":41061:41128   */\n      tag_899\n        /* \"#utility.yul\":41125:41127   */\n      0x13\n        /* \"#utility.yul\":41120:41123   */\n      dup4\n        /* \"#utility.yul\":41061:41128   */\n      tag_416\n      jump\t// in\n    tag_899:\n        /* \"#utility.yul\":41054:41128   */\n      swap2\n      pop\n        /* \"#utility.yul\":41137:41230   */\n      tag_900\n        /* \"#utility.yul\":41226:41229   */\n      dup3\n        /* \"#utility.yul\":41137:41230   */\n      tag_501\n      jump\t// in\n    tag_900:\n        /* \"#utility.yul\":41255:41257   */\n      0x20\n        /* \"#utility.yul\":41250:41253   */\n      dup3\n        /* \"#utility.yul\":41246:41258   */\n      add\n        /* \"#utility.yul\":41239:41258   */\n      swap1\n      pop\n        /* \"#utility.yul\":40898:41264   */\n      swap2\n      swap1\n      pop\n      jump\t// out\n        /* \"#utility.yul\":41270:41689   */\n    tag_119:\n        /* \"#utility.yul\":41436:41440   */\n      0x00\n        /* \"#utility.yul\":41474:41476   */\n      0x20\n        /* \"#utility.yul\":41463:41472   */\n      dup3\n        /* \"#utility.yul\":41459:41477   */\n      add\n        /* \"#utility.yul\":41451:41477   */\n      swap1\n      pop\n        /* \"#utility.yul\":41523:41532   */\n      dup2\n        /* \"#utility.yul\":41517:41521   */\n      dup2\n        /* \"#utility.yul\":41513:41533   */\n      sub\n        /* \"#utility.yul\":41509:41510   */\n      0x00\n        /* \"#utility.yul\":41498:41507   */\n      dup4\n        /* \"#utility.yul\":41494:41511   */\n      add\n        /* \"#utility.yul\":41487:41534   */\n      mstore\n        /* \"#utility.yul\":41551:41682   */\n      tag_902\n        /* \"#utility.yul\":41677:41681   */\n      dup2\n        /* \"#utility.yul\":41551:41682   */\n      tag_502\n      jump\t// in\n    tag_902:\n        /* \"#utility.yul\":41543:41682   */\n      swap1\n      pop\n        /* \"#utility.yul\":41270:41689   */\n      swap2\n      swap1\n      pop\n      jump\t// out\n        /* \"#utility.yul\":41695:41872   */\n    tag_503:\n        /* \"#utility.yul\":41835:41864   */\n      0x43726561746f7220666565207472616e73666572206661696c65640000000000\n        /* \"#utility.yul\":41831:41832   */\n      0x00\n        /* \"#utility.yul\":41823:41829   */\n      dup3\n        /* \"#utility.yul\":41819:41833   */\n      add\n        /* \"#utility.yul\":41812:41865   */\n      mstore\n        /* \"#utility.yul\":41695:41872   */\n      pop\n      jump\t// out\n        /* \"#utility.yul\":41878:42244   */\n    tag_504:\n        /* \"#utility.yul\":42020:42023   */\n      0x00\n        /* \"#utility.yul\":42041:42108   */\n      tag_905\n        /* \"#utility.yul\":42105:42107   */\n      0x1b\n        /* \"#utility.yul\":42100:42103   */\n      dup4\n        /* \"#utility.yul\":42041:42108   */\n      tag_416\n      jump\t// in\n    tag_905:\n        /* \"#utility.yul\":42034:42108   */\n      swap2\n      pop\n        /* \"#utility.yul\":42117:42210   */\n      tag_906\n        /* \"#utility.yul\":42206:42209   */\n      dup3\n        /* \"#utility.yul\":42117:42210   */\n      tag_503\n      jump\t// in\n    tag_906:\n        /* \"#utility.yul\":42235:42237   */\n      0x20\n        /* \"#utility.yul\":42230:42233   */\n      dup3\n        /* \"#utility.yul\":42226:42238   */\n      add\n        /* \"#utility.yul\":42219:42238   */\n      swap1\n      pop\n        /* \"#utility.yul\":41878:42244   */\n      swap2\n      swap1\n      pop\n      jump\t// out\n        /* \"#utility.yul\":42250:42669   */\n    tag_126:\n        /* \"#utility.yul\":42416:42420   */\n      0x00\n        /* \"#utility.yul\":42454:42456   */\n      0x20\n        /* \"#utility.yul\":42443:42452   */\n      dup3\n        /* \"#utility.yul\":42439:42457   */\n      add\n        /* \"#utility.yul\":42431:42457   */\n      swap1\n      pop\n        /* \"#utility.yul\":42503:42512   */\n      dup2\n        /* \"#utility.yul\":42497:42501   */\n      dup2\n        /* \"#utility.yul\":42493:42513   */\n      sub\n        /* \"#utility.yul\":42489:42490   */\n      0x00\n        /* \"#utility.yul\":42478:42487   */\n      dup4\n        /* \"#utility.yul\":42474:42491   */\n      add\n        /* \"#utility.yul\":42467:42514   */\n      mstore\n        /* \"#utility.yul\":42531:42662   */\n      tag_908\n        /* \"#utility.yul\":42657:42661   */\n      dup2\n        /* \"#utility.yul\":42531:42662   */\n      tag_504\n      jump\t// in\n    tag_908:\n        /* \"#utility.yul\":42523:42662   */\n      swap1\n      pop\n        /* \"#utility.yul\":42250:42669   */\n      swap2\n      swap1\n      pop\n      jump\t// out\n        /* \"#utility.yul\":42675:43085   */\n    tag_140:\n        /* \"#utility.yul\":42715:42722   */\n      0x00\n        /* \"#utility.yul\":42738:42758   */\n      tag_910\n        /* \"#utility.yul\":42756:42757   */\n      dup3\n        /* \"#utility.yul\":42738:42758   */\n      tag_407\n      jump\t// in\n    tag_910:\n        /* \"#utility.yul\":42733:42758   */\n      swap2\n      pop\n        /* \"#utility.yul\":42772:42792   */\n      tag_911\n        /* \"#utility.yul\":42790:42791   */\n      dup4\n        /* \"#utility.yul\":42772:42792   */\n      tag_407\n      jump\t// in\n    tag_911:\n        /* \"#utility.yul\":42767:42792   */\n      swap3\n      pop\n        /* \"#utility.yul\":42827:42828   */\n      dup3\n        /* \"#utility.yul\":42824:42825   */\n      dup3\n        /* \"#utility.yul\":42820:42829   */\n      mul\n        /* \"#utility.yul\":42849:42879   */\n      tag_912\n        /* \"#utility.yul\":42867:42878   */\n      dup2\n        /* \"#utility.yul\":42849:42879   */\n      tag_407\n      jump\t// in\n    tag_912:\n        /* \"#utility.yul\":42838:42879   */\n      swap2\n      pop\n        /* \"#utility.yul\":43028:43029   */\n      dup3\n        /* \"#utility.yul\":43019:43026   */\n      dup3\n        /* \"#utility.yul\":43015:43030   */\n      div\n        /* \"#utility.yul\":43012:43013   */\n      dup5\n        /* \"#utility.yul\":43009:43031   */\n      eq\n        /* \"#utility.yul\":42989:42990   */\n      dup4\n        /* \"#utility.yul\":42982:42991   */\n      iszero\n        /* \"#utility.yul\":42962:43045   */\n      or\n        /* \"#utility.yul\":42939:43078   */\n      tag_913\n      jumpi\n        /* \"#utility.yul\":43058:43076   */\n      tag_914\n      tag_460\n      jump\t// in\n    tag_914:\n        /* \"#utility.yul\":42939:43078   */\n    tag_913:\n        /* \"#utility.yul\":42723:43085   */\n      pop\n        /* \"#utility.yul\":42675:43085   */\n      swap3\n      swap2\n      pop\n      pop\n      jump\t// out\n        /* \"#utility.yul\":43091:43263   */\n    tag_505:\n        /* \"#utility.yul\":43231:43255   */\n      0x426574746f72207472616e73666572206661696c656400000000000000000000\n        /* \"#utility.yul\":43227:43228   */\n      0x00\n        /* \"#utility.yul\":43219:43225   */\n      dup3\n        /* \"#utility.yul\":43215:43229   */\n      add\n        /* \"#utility.yul\":43208:43256   */\n      mstore\n        /* \"#utility.yul\":43091:43263   */\n      pop\n      jump\t// out\n        /* \"#utility.yul\":43269:43635   */\n    tag_506:\n        /* \"#utility.yul\":43411:43414   */\n      0x00\n        /* \"#utility.yul\":43432:43499   */\n      tag_917\n        /* \"#utility.yul\":43496:43498   */\n      0x16\n        /* \"#utility.yul\":43491:43494   */\n      dup4\n        /* \"#utility.yul\":43432:43499   */\n      tag_416\n      jump\t// in\n    tag_917:\n        /* \"#utility.yul\":43425:43499   */\n      swap2\n      pop\n        /* \"#utility.yul\":43508:43601   */\n      tag_918\n        /* \"#utility.yul\":43597:43600   */\n      dup3\n        /* \"#utility.yul\":43508:43601   */\n      tag_505\n      jump\t// in\n    tag_918:\n        /* \"#utility.yul\":43626:43628   */\n      0x20\n        /* \"#utility.yul\":43621:43624   */\n      dup3\n        /* \"#utility.yul\":43617:43629   */\n      add\n        /* \"#utility.yul\":43610:43629   */\n      swap1\n      pop\n        /* \"#utility.yul\":43269:43635   */\n      swap2\n      swap1\n      pop\n      jump\t// out\n        /* \"#utility.yul\":43641:44060   */\n    tag_148:\n        /* \"#utility.yul\":43807:43811   */\n      0x00\n        /* \"#utility.yul\":43845:43847   */\n      0x20\n        /* \"#utility.yul\":43834:43843   */\n      dup3\n        /* \"#utility.yul\":43830:43848   */\n      add\n        /* \"#utility.yul\":43822:43848   */\n      swap1\n      pop\n        /* \"#utility.yul\":43894:43903   */\n      dup2\n        /* \"#utility.yul\":43888:43892   */\n      dup2\n        /* \"#utility.yul\":43884:43904   */\n      sub\n        /* \"#utility.yul\":43880:43881   */\n      0x00\n        /* \"#utility.yul\":43869:43878   */\n      dup4\n        /* \"#utility.yul\":43865:43882   */\n      add\n        /* \"#utility.yul\":43858:43905   */\n      mstore\n        /* \"#utility.yul\":43922:44053   */\n      tag_920\n        /* \"#utility.yul\":44048:44052   */\n      dup2\n        /* \"#utility.yul\":43922:44053   */\n      tag_506\n      jump\t// in\n    tag_920:\n        /* \"#utility.yul\":43914:44053   */\n      swap1\n      pop\n        /* \"#utility.yul\":43641:44060   */\n      swap2\n      swap1\n      pop\n      jump\t// out\n        /* \"#utility.yul\":44066:44233   */\n    tag_507:\n        /* \"#utility.yul\":44206:44225   */\n      0x42657474696e6720697320636c6f736564000000000000000000000000000000\n        /* \"#utility.yul\":44202:44203   */\n      0x00\n        /* \"#utility.yul\":44194:44200   */\n      dup3\n        /* \"#utility.yul\":44190:44204   */\n      add\n        /* \"#utility.yul\":44183:44226   */\n      mstore\n        /* \"#utility.yul\":44066:44233   */\n      pop\n      jump\t// out\n        /* \"#utility.yul\":44239:44605   */\n    tag_508:\n        /* \"#utility.yul\":44381:44384   */\n      0x00\n        /* \"#utility.yul\":44402:44469   */\n      tag_923\n        /* \"#utility.yul\":44466:44468   */\n      0x11\n        /* \"#utility.yul\":44461:44464   */\n      dup4\n        /* \"#utility.yul\":44402:44469   */\n      tag_416\n      jump\t// in\n    tag_923:\n        /* \"#utility.yul\":44395:44469   */\n      swap2\n      pop\n        /* \"#utility.yul\":44478:44571   */\n      tag_924\n        /* \"#utility.yul\":44567:44570   */\n      dup3\n        /* \"#utility.yul\":44478:44571   */\n      tag_507\n      jump\t// in\n    tag_924:\n        /* \"#utility.yul\":44596:44598   */\n      0x20\n        /* \"#utility.yul\":44591:44594   */\n      dup3\n        /* \"#utility.yul\":44587:44599   */\n      add\n        /* \"#utility.yul\":44580:44599   */\n      swap1\n      pop\n        /* \"#utility.yul\":44239:44605   */\n      swap2\n      swap1\n      pop\n      jump\t// out\n        /* \"#utility.yul\":44611:45030   */\n    tag_186:\n        /* \"#utility.yul\":44777:44781   */\n      0x00\n        /* \"#utility.yul\":44815:44817   */\n      0x20\n        /* \"#utility.yul\":44804:44813   */\n      dup3\n        /* \"#utility.yul\":44800:44818   */\n      add\n        /* \"#utility.yul\":44792:44818   */\n      swap1\n      pop\n        /* \"#utility.yul\":44864:44873   */\n      dup2\n        /* \"#utility.yul\":44858:44862   */\n      dup2\n        /* \"#utility.yul\":44854:44874   */\n      sub\n        /* \"#utility.yul\":44850:44851   */\n      0x00\n        /* \"#utility.yul\":44839:44848   */\n      dup4\n        /* \"#utility.yul\":44835:44852   */\n      add\n        /* \"#utility.yul\":44828:44875   */\n      mstore\n        /* \"#utility.yul\":44892:45023   */\n      tag_926\n        /* \"#utility.yul\":45018:45022   */\n      dup2\n        /* \"#utility.yul\":44892:45023   */\n      tag_508\n      jump\t// in\n    tag_926:\n        /* \"#utility.yul\":44884:45023   */\n      swap1\n      pop\n        /* \"#utility.yul\":44611:45030   */\n      swap2\n      swap1\n      pop\n      jump\t// out\n        /* \"#utility.yul\":45036:45217   */\n    tag_509:\n        /* \"#utility.yul\":45176:45209   */\n      0x42657420616d6f756e74206973206c657373207468616e206d696e696d756d00\n        /* \"#utility.yul\":45172:45173   */\n      0x00\n        /* \"#utility.yul\":45164:45170   */\n      dup3\n        /* \"#utility.yul\":45160:45174   */\n      add\n        /* \"#utility.yul\":45153:45210   */\n      mstore\n        /* \"#utility.yul\":45036:45217   */\n      pop\n      jump\t// out\n        /* \"#utility.yul\":45223:45589   */\n    tag_510:\n        /* \"#utility.yul\":45365:45368   */\n      0x00\n        /* \"#utility.yul\":45386:45453   */\n      tag_929\n        /* \"#utility.yul\":45450:45452   */\n      0x1f\n        /* \"#utility.yul\":45445:45448   */\n      dup4\n        /* \"#utility.yul\":45386:45453   */\n      tag_416\n      jump\t// in\n    tag_929:\n        /* \"#utility.yul\":45379:45453   */\n      swap2\n      pop\n        /* \"#utility.yul\":45462:45555   */\n      tag_930\n        /* \"#utility.yul\":45551:45554   */\n      dup3\n        /* \"#utility.yul\":45462:45555   */\n      tag_509\n      jump\t// in\n    tag_930:\n        /* \"#utility.yul\":45580:45582   */\n      0x20\n        /* \"#utility.yul\":45575:45578   */\n      dup3\n        /* \"#utility.yul\":45571:45583   */\n      add\n        /* \"#utility.yul\":45564:45583   */\n      swap1\n      pop\n        /* \"#utility.yul\":45223:45589   */\n      swap2\n      swap1\n      pop\n      jump\t// out\n        /* \"#utility.yul\":45595:46014   */\n    tag_189:\n        /* \"#utility.yul\":45761:45765   */\n      0x00\n        /* \"#utility.yul\":45799:45801   */\n      0x20\n        /* \"#utility.yul\":45788:45797   */\n      dup3\n        /* \"#utility.yul\":45784:45802   */\n      add\n        /* \"#utility.yul\":45776:45802   */\n      swap1\n      pop\n        /* \"#utility.yul\":45848:45857   */\n      dup2\n        /* \"#utility.yul\":45842:45846   */\n      dup2\n        /* \"#utility.yul\":45838:45858   */\n      sub\n        /* \"#utility.yul\":45834:45835   */\n      0x00\n        /* \"#utility.yul\":45823:45832   */\n      dup4\n        /* \"#utility.yul\":45819:45836   */\n      add\n        /* \"#utility.yul\":45812:45859   */\n      mstore\n        /* \"#utility.yul\":45876:46007   */\n      tag_932\n        /* \"#utility.yul\":46002:46006   */\n      dup2\n        /* \"#utility.yul\":45876:46007   */\n      tag_510\n      jump\t// in\n    tag_932:\n        /* \"#utility.yul\":45868:46007   */\n      swap1\n      pop\n        /* \"#utility.yul\":45595:46014   */\n      swap2\n      swap1\n      pop\n      jump\t// out\n        /* \"#utility.yul\":46020:46184   */\n    tag_511:\n        /* \"#utility.yul\":46160:46176   */\n      0x496e76616c6964206f7074696f6e000000000000000000000000000000000000\n        /* \"#utility.yul\":46156:46157   */\n      0x00\n        /* \"#utility.yul\":46148:46154   */\n      dup3\n        /* \"#utility.yul\":46144:46158   */\n      add\n        /* \"#utility.yul\":46137:46177   */\n      mstore\n        /* \"#utility.yul\":46020:46184   */\n      pop\n      jump\t// out\n        /* \"#utility.yul\":46190:46556   */\n    tag_512:\n        /* \"#utility.yul\":46332:46335   */\n      0x00\n        /* \"#utility.yul\":46353:46420   */\n      tag_935\n        /* \"#utility.yul\":46417:46419   */\n      0x0e\n        /* \"#utility.yul\":46412:46415   */\n      dup4\n        /* \"#utility.yul\":46353:46420   */\n      tag_416\n      jump\t// in\n    tag_935:\n        /* \"#utility.yul\":46346:46420   */\n      swap2\n      pop\n        /* \"#utility.yul\":46429:46522   */\n      tag_936\n        /* \"#utility.yul\":46518:46521   */\n      dup3\n        /* \"#utility.yul\":46429:46522   */\n      tag_511\n      jump\t// in\n    tag_936:\n        /* \"#utility.yul\":46547:46549   */\n      0x20\n        /* \"#utility.yul\":46542:46545   */\n      dup3\n        /* \"#utility.yul\":46538:46550   */\n      add\n        /* \"#utility.yul\":46531:46550   */\n      swap1\n      pop\n        /* \"#utility.yul\":46190:46556   */\n      swap2\n      swap1\n      pop\n      jump\t// out\n        /* \"#utility.yul\":46562:46981   */\n    tag_193:\n        /* \"#utility.yul\":46728:46732   */\n      0x00\n        /* \"#utility.yul\":46766:46768   */\n      0x20\n        /* \"#utility.yul\":46755:46764   */\n      dup3\n        /* \"#utility.yul\":46751:46769   */\n      add\n        /* \"#utility.yul\":46743:46769   */\n      swap1\n      pop\n        /* \"#utility.yul\":46815:46824   */\n      dup2\n        /* \"#utility.yul\":46809:46813   */\n      dup2\n        /* \"#utility.yul\":46805:46825   */\n      sub\n        /* \"#utility.yul\":46801:46802   */\n      0x00\n        /* \"#utility.yul\":46790:46799   */\n      dup4\n        /* \"#utility.yul\":46786:46803   */\n      add\n        /* \"#utility.yul\":46779:46826   */\n      mstore\n        /* \"#utility.yul\":46843:46974   */\n      tag_938\n        /* \"#utility.yul\":46969:46973   */\n      dup2\n        /* \"#utility.yul\":46843:46974   */\n      tag_512\n      jump\t// in\n    tag_938:\n        /* \"#utility.yul\":46835:46974   */\n      swap1\n      pop\n        /* \"#utility.yul\":46562:46981   */\n      swap2\n      swap1\n      pop\n      jump\t// out\n        /* \"#utility.yul\":46987:47429   */\n    tag_195:\n        /* \"#utility.yul\":47136:47140   */\n      0x00\n        /* \"#utility.yul\":47174:47176   */\n      0x60\n        /* \"#utility.yul\":47163:47172   */\n      dup3\n        /* \"#utility.yul\":47159:47177   */\n      add\n        /* \"#utility.yul\":47151:47177   */\n      swap1\n      pop\n        /* \"#utility.yul\":47187:47258   */\n      tag_940\n        /* \"#utility.yul\":47255:47256   */\n      0x00\n        /* \"#utility.yul\":47244:47253   */\n      dup4\n        /* \"#utility.yul\":47240:47257   */\n      add\n        /* \"#utility.yul\":47231:47237   */\n      dup7\n        /* \"#utility.yul\":47187:47258   */\n      tag_414\n      jump\t// in\n    tag_940:\n        /* \"#utility.yul\":47268:47340   */\n      tag_941\n        /* \"#utility.yul\":47336:47338   */\n      0x20\n        /* \"#utility.yul\":47325:47334   */\n      dup4\n        /* \"#utility.yul\":47321:47339   */\n      add\n        /* \"#utility.yul\":47312:47318   */\n      dup6\n        /* \"#utility.yul\":47268:47340   */\n      tag_414\n      jump\t// in\n    tag_941:\n        /* \"#utility.yul\":47350:47422   */\n      tag_942\n        /* \"#utility.yul\":47418:47420   */\n      0x40\n        /* \"#utility.yul\":47407:47416   */\n      dup4\n        /* \"#utility.yul\":47403:47421   */\n      add\n        /* \"#utility.yul\":47394:47400   */\n      dup5\n        /* \"#utility.yul\":47350:47422   */\n      tag_430\n      jump\t// in\n    tag_942:\n        /* \"#utility.yul\":46987:47429   */\n      swap5\n      swap4\n      pop\n      pop\n      pop\n      pop\n      jump\t// out\n        /* \"#utility.yul\":47435:47600   */\n    tag_513:\n        /* \"#utility.yul\":47575:47592   */\n      0x5472616e73666572206661696c65640000000000000000000000000000000000\n        /* \"#utility.yul\":47571:47572   */\n      0x00\n        /* \"#utility.yul\":47563:47569   */\n      dup3\n        /* \"#utility.yul\":47559:47573   */\n      add\n        /* \"#utility.yul\":47552:47593   */\n      mstore\n        /* \"#utility.yul\":47435:47600   */\n      pop\n      jump\t// out\n        /* \"#utility.yul\":47606:47972   */\n    tag_514:\n        /* \"#utility.yul\":47748:47751   */\n      0x00\n        /* \"#utility.yul\":47769:47836   */\n      tag_945\n        /* \"#utility.yul\":47833:47835   */\n      0x0f\n        /* \"#utility.yul\":47828:47831   */\n      dup4\n        /* \"#utility.yul\":47769:47836   */\n      tag_416\n      jump\t// in\n    tag_945:\n        /* \"#utility.yul\":47762:47836   */\n      swap2\n      pop\n        /* \"#utility.yul\":47845:47938   */\n      tag_946\n        /* \"#utility.yul\":47934:47937   */\n      dup3\n        /* \"#utility.yul\":47845:47938   */\n      tag_513\n      jump\t// in\n    tag_946:\n        /* \"#utility.yul\":47963:47965   */\n      0x20\n        /* \"#utility.yul\":47958:47961   */\n      dup3\n        /* \"#utility.yul\":47954:47966   */\n      add\n        /* \"#utility.yul\":47947:47966   */\n      swap1\n      pop\n        /* \"#utility.yul\":47606:47972   */\n      swap2\n      swap1\n      pop\n      jump\t// out\n        /* \"#utility.yul\":47978:48397   */\n    tag_201:\n        /* \"#utility.yul\":48144:48148   */\n      0x00\n        /* \"#utility.yul\":48182:48184   */\n      0x20\n        /* \"#utility.yul\":48171:48180   */\n      dup3\n        /* \"#utility.yul\":48167:48185   */\n      add\n        /* \"#utility.yul\":48159:48185   */\n      swap1\n      pop\n        /* \"#utility.yul\":48231:48240   */\n      dup2\n        /* \"#utility.yul\":48225:48229   */\n      dup2\n        /* \"#utility.yul\":48221:48241   */\n      sub\n        /* \"#utility.yul\":48217:48218   */\n      0x00\n        /* \"#utility.yul\":48206:48215   */\n      dup4\n        /* \"#utility.yul\":48202:48219   */\n      add\n        /* \"#utility.yul\":48195:48242   */\n      mstore\n        /* \"#utility.yul\":48259:48390   */\n      tag_948\n        /* \"#utility.yul\":48385:48389   */\n      dup2\n        /* \"#utility.yul\":48259:48390   */\n      tag_514\n      jump\t// in\n    tag_948:\n        /* \"#utility.yul\":48251:48390   */\n      swap1\n      pop\n        /* \"#utility.yul\":47978:48397   */\n      swap2\n      swap1\n      pop\n      jump\t// out\n        /* \"#utility.yul\":48403:48594   */\n    tag_203:\n        /* \"#utility.yul\":48441:48445   */\n      0x00\n        /* \"#utility.yul\":48461:48479   */\n      tag_950\n        /* \"#utility.yul\":48477:48478   */\n      dup3\n        /* \"#utility.yul\":48461:48479   */\n      tag_403\n      jump\t// in\n    tag_950:\n        /* \"#utility.yul\":48456:48479   */\n      swap2\n      pop\n        /* \"#utility.yul\":48493:48511   */\n      tag_951\n        /* \"#utility.yul\":48509:48510   */\n      dup4\n        /* \"#utility.yul\":48493:48511   */\n      tag_403\n      jump\t// in\n    tag_951:\n        /* \"#utility.yul\":48488:48511   */\n      swap3\n      pop\n        /* \"#utility.yul\":48535:48536   */\n      dup3\n        /* \"#utility.yul\":48532:48533   */\n      dup3\n        /* \"#utility.yul\":48528:48537   */\n      sub\n        /* \"#utility.yul\":48520:48537   */\n      swap1\n      pop\n        /* \"#utility.yul\":48559:48563   */\n      0xff\n        /* \"#utility.yul\":48553:48557   */\n      dup2\n        /* \"#utility.yul\":48550:48564   */\n      gt\n        /* \"#utility.yul\":48547:48587   */\n      iszero\n      tag_952\n      jumpi\n        /* \"#utility.yul\":48567:48585   */\n      tag_953\n      tag_460\n      jump\t// in\n    tag_953:\n        /* \"#utility.yul\":48547:48587   */\n    tag_952:\n        /* \"#utility.yul\":48403:48594   */\n      swap3\n      swap2\n      pop\n      pop\n      jump\t// out\n        /* \"#utility.yul\":48600:48924   */\n    tag_211:\n        /* \"#utility.yul\":48717:48721   */\n      0x00\n        /* \"#utility.yul\":48755:48757   */\n      0x40\n        /* \"#utility.yul\":48744:48753   */\n      dup3\n        /* \"#utility.yul\":48740:48758   */\n      add\n        /* \"#utility.yul\":48732:48758   */\n      swap1\n      pop\n        /* \"#utility.yul\":48768:48839   */\n      tag_955\n        /* \"#utility.yul\":48836:48837   */\n      0x00\n        /* \"#utility.yul\":48825:48834   */\n      dup4\n        /* \"#utility.yul\":48821:48838   */\n      add\n        /* \"#utility.yul\":48812:48818   */\n      dup6\n        /* \"#utility.yul\":48768:48839   */\n      tag_430\n      jump\t// in\n    tag_955:\n        /* \"#utility.yul\":48849:48917   */\n      tag_956\n        /* \"#utility.yul\":48913:48915   */\n      0x20\n        /* \"#utility.yul\":48902:48911   */\n      dup4\n        /* \"#utility.yul\":48898:48916   */\n      add\n        /* \"#utility.yul\":48889:48895   */\n      dup5\n        /* \"#utility.yul\":48849:48917   */\n      tag_438\n      jump\t// in\n    tag_956:\n        /* \"#utility.yul\":48600:48924   */\n      swap4\n      swap3\n      pop\n      pop\n      pop\n      jump\t// out\n        /* \"#utility.yul\":48930:49102   */\n    tag_515:\n        /* \"#utility.yul\":49070:49094   */\n      0x496e76616c69642077696e6e696e67206f7074696f6e00000000000000000000\n        /* \"#utility.yul\":49066:49067   */\n      0x00\n        /* \"#utility.yul\":49058:49064   */\n      dup3\n        /* \"#utility.yul\":49054:49068   */\n      add\n        /* \"#utility.yul\":49047:49095   */\n      mstore\n        /* \"#utility.yul\":48930:49102   */\n      pop\n      jump\t// out\n        /* \"#utility.yul\":49108:49474   */\n    tag_516:\n        /* \"#utility.yul\":49250:49253   */\n      0x00\n        /* \"#utility.yul\":49271:49338   */\n      tag_959\n        /* \"#utility.yul\":49335:49337   */\n      0x16\n        /* \"#utility.yul\":49330:49333   */\n      dup4\n        /* \"#utility.yul\":49271:49338   */\n      tag_416\n      jump\t// in\n    tag_959:\n        /* \"#utility.yul\":49264:49338   */\n      swap2\n      pop\n        /* \"#utility.yul\":49347:49440   */\n      tag_960\n        /* \"#utility.yul\":49436:49439   */\n      dup3\n        /* \"#utility.yul\":49347:49440   */\n      tag_515\n      jump\t// in\n    tag_960:\n        /* \"#utility.yul\":49465:49467   */\n      0x20\n        /* \"#utility.yul\":49460:49463   */\n      dup3\n        /* \"#utility.yul\":49456:49468   */\n      add\n        /* \"#utility.yul\":49449:49468   */\n      swap1\n      pop\n        /* \"#utility.yul\":49108:49474   */\n      swap2\n      swap1\n      pop\n      jump\t// out\n        /* \"#utility.yul\":49480:49899   */\n    tag_274:\n        /* \"#utility.yul\":49646:49650   */\n      0x00\n        /* \"#utility.yul\":49684:49686   */\n      0x20\n        /* \"#utility.yul\":49673:49682   */\n      dup3\n        /* \"#utility.yul\":49669:49687   */\n      add\n        /* \"#utility.yul\":49661:49687   */\n      swap1\n      pop\n        /* \"#utility.yul\":49733:49742   */\n      dup2\n        /* \"#utility.yul\":49727:49731   */\n      dup2\n        /* \"#utility.yul\":49723:49743   */\n      sub\n        /* \"#utility.yul\":49719:49720   */\n      0x00\n        /* \"#utility.yul\":49708:49717   */\n      dup4\n        /* \"#utility.yul\":49704:49721   */\n      add\n        /* \"#utility.yul\":49697:49744   */\n      mstore\n        /* \"#utility.yul\":49761:49892   */\n      tag_962\n        /* \"#utility.yul\":49887:49891   */\n      dup2\n        /* \"#utility.yul\":49761:49892   */\n      tag_516\n      jump\t// in\n    tag_962:\n        /* \"#utility.yul\":49753:49892   */\n      swap1\n      pop\n        /* \"#utility.yul\":49480:49899   */\n      swap2\n      swap1\n      pop\n      jump\t// out\n        /* \"#utility.yul\":49905:50131   */\n    tag_517:\n        /* \"#utility.yul\":50045:50079   */\n      0x42657474696e67206d75737420626520636c6f73656420616e64206e6f742072\n        /* \"#utility.yul\":50041:50042   */\n      0x00\n        /* \"#utility.yul\":50033:50039   */\n      dup3\n        /* \"#utility.yul\":50029:50043   */\n      add\n        /* \"#utility.yul\":50022:50080   */\n      mstore\n        /* \"#utility.yul\":50114:50123   */\n      0x65736f6c76656400000000000000000000000000000000000000000000000000\n        /* \"#utility.yul\":50109:50111   */\n      0x20\n        /* \"#utility.yul\":50101:50107   */\n      dup3\n        /* \"#utility.yul\":50097:50112   */\n      add\n        /* \"#utility.yul\":50090:50124   */\n      mstore\n        /* \"#utility.yul\":49905:50131   */\n      pop\n      jump\t// out\n        /* \"#utility.yul\":50137:50503   */\n    tag_518:\n        /* \"#utility.yul\":50279:50282   */\n      0x00\n        /* \"#utility.yul\":50300:50367   */\n      tag_965\n        /* \"#utility.yul\":50364:50366   */\n      0x27\n        /* \"#utility.yul\":50359:50362   */\n      dup4\n        /* \"#utility.yul\":50300:50367   */\n      tag_416\n      jump\t// in\n    tag_965:\n        /* \"#utility.yul\":50293:50367   */\n      swap2\n      pop\n        /* \"#utility.yul\":50376:50469   */\n      tag_966\n        /* \"#utility.yul\":50465:50468   */\n      dup3\n        /* \"#utility.yul\":50376:50469   */\n      tag_517\n      jump\t// in\n    tag_966:\n        /* \"#utility.yul\":50494:50496   */\n      0x40\n        /* \"#utility.yul\":50489:50492   */\n      dup3\n        /* \"#utility.yul\":50485:50497   */\n      add\n        /* \"#utility.yul\":50478:50497   */\n      swap1\n      pop\n        /* \"#utility.yul\":50137:50503   */\n      swap2\n      swap1\n      pop\n      jump\t// out\n        /* \"#utility.yul\":50509:50928   */\n    tag_278:\n        /* \"#utility.yul\":50675:50679   */\n      0x00\n        /* \"#utility.yul\":50713:50715   */\n      0x20\n        /* \"#utility.yul\":50702:50711   */\n      dup3\n        /* \"#utility.yul\":50698:50716   */\n      add\n        /* \"#utility.yul\":50690:50716   */\n      swap1\n      pop\n        /* \"#utility.yul\":50762:50771   */\n      dup2\n        /* \"#utility.yul\":50756:50760   */\n      dup2\n        /* \"#utility.yul\":50752:50772   */\n      sub\n        /* \"#utility.yul\":50748:50749   */\n      0x00\n        /* \"#utility.yul\":50737:50746   */\n      dup4\n        /* \"#utility.yul\":50733:50750   */\n      add\n        /* \"#utility.yul\":50726:50773   */\n      mstore\n        /* \"#utility.yul\":50790:50921   */\n      tag_968\n        /* \"#utility.yul\":50916:50920   */\n      dup2\n        /* \"#utility.yul\":50790:50921   */\n      tag_518\n      jump\t// in\n    tag_968:\n        /* \"#utility.yul\":50782:50921   */\n      swap1\n      pop\n        /* \"#utility.yul\":50509:50928   */\n      swap2\n      swap1\n      pop\n      jump\t// out\n        /* \"#utility.yul\":50934:51106   */\n    tag_519:\n        /* \"#utility.yul\":51074:51098   */\n      0x57696e6e6572207472616e73666572206661696c656400000000000000000000\n        /* \"#utility.yul\":51070:51071   */\n      0x00\n        /* \"#utility.yul\":51062:51068   */\n      dup3\n        /* \"#utility.yul\":51058:51072   */\n      add\n        /* \"#utility.yul\":51051:51099   */\n      mstore\n        /* \"#utility.yul\":50934:51106   */\n      pop\n      jump\t// out\n        /* \"#utility.yul\":51112:51478   */\n    tag_520:\n        /* \"#utility.yul\":51254:51257   */\n      0x00\n        /* \"#utility.yul\":51275:51342   */\n      tag_971\n        /* \"#utility.yul\":51339:51341   */\n      0x16\n        /* \"#utility.yul\":51334:51337   */\n      dup4\n        /* \"#utility.yul\":51275:51342   */\n      tag_416\n      jump\t// in\n    tag_971:\n        /* \"#utility.yul\":51268:51342   */\n      swap2\n      pop\n        /* \"#utility.yul\":51351:51444   */\n      tag_972\n        /* \"#utility.yul\":51440:51443   */\n      dup3\n        /* \"#utility.yul\":51351:51444   */\n      tag_519\n      jump\t// in\n    tag_972:\n        /* \"#utility.yul\":51469:51471   */\n      0x20\n        /* \"#utility.yul\":51464:51467   */\n      dup3\n        /* \"#utility.yul\":51460:51472   */\n      add\n        /* \"#utility.yul\":51453:51472   */\n      swap1\n      pop\n        /* \"#utility.yul\":51112:51478   */\n      swap2\n      swap1\n      pop\n      jump\t// out\n        /* \"#utility.yul\":51484:51903   */\n    tag_330:\n        /* \"#utility.yul\":51650:51654   */\n      0x00\n        /* \"#utility.yul\":51688:51690   */\n      0x20\n        /* \"#utility.yul\":51677:51686   */\n      dup3\n        /* \"#utility.yul\":51673:51691   */\n      add\n        /* \"#utility.yul\":51665:51691   */\n      swap1\n      pop\n        /* \"#utility.yul\":51737:51746   */\n      dup2\n        /* \"#utility.yul\":51731:51735   */\n      dup2\n        /* \"#utility.yul\":51727:51747   */\n      sub\n        /* \"#utility.yul\":51723:51724   */\n      0x00\n        /* \"#utility.yul\":51712:51721   */\n      dup4\n        /* \"#utility.yul\":51708:51725   */\n      add\n        /* \"#utility.yul\":51701:51748   */\n      mstore\n        /* \"#utility.yul\":51765:51896   */\n      tag_974\n        /* \"#utility.yul\":51891:51895   */\n      dup2\n        /* \"#utility.yul\":51765:51896   */\n      tag_520\n      jump\t// in\n    tag_974:\n        /* \"#utility.yul\":51757:51896   */\n      swap1\n      pop\n        /* \"#utility.yul\":51484:51903   */\n      swap2\n      swap1\n      pop\n      jump\t// out\n        /* \"#utility.yul\":51909:52123   */\n    tag_333:\n        /* \"#utility.yul\":51998:52002   */\n      0x00\n        /* \"#utility.yul\":52036:52038   */\n      0x20\n        /* \"#utility.yul\":52025:52034   */\n      dup3\n        /* \"#utility.yul\":52021:52039   */\n      add\n        /* \"#utility.yul\":52013:52039   */\n      swap1\n      pop\n        /* \"#utility.yul\":52049:52116   */\n      tag_976\n        /* \"#utility.yul\":52113:52114   */\n      0x00\n        /* \"#utility.yul\":52102:52111   */\n      dup4\n        /* \"#utility.yul\":52098:52115   */\n      add\n        /* \"#utility.yul\":52089:52095   */\n      dup5\n        /* \"#utility.yul\":52049:52116   */\n      tag_438\n      jump\t// in\n    tag_976:\n        /* \"#utility.yul\":51909:52123   */\n      swap3\n      swap2\n      pop\n      pop\n      jump\t// out\n\n    auxdata: 0xa26469706673582212202b7655f46cc2d319e7491ac2ac8cb1f9b0fdf9ef753857b936049094cffaf32864736f6c634300081a0033\n}\n",
				"bytecode": {
					"linkReferences": {},
					"object": "6080604052600180553480156012575f80fd5b50335f806101000a81548173ffffffffffffffffffffffffffffffffffffffff021916908373ffffffffffffffffffffffffffffffffffffffff160217905550613c758061005f5f395ff3fe608060405234801561000f575f80fd5b5060043610610091575f3560e01c80639e14427e116100645780639e14427e14610124578063b4ad06a114610140578063d65edb4d1461015c578063f13687481461017e578063f41408b51461019a57610091565b8063250e5adc14610095578063357401f5146100b157806379141f80146100cd5780638da5cb5b14610106575b5f80fd5b6100af60048036038101906100aa919061257e565b6101cd565b005b6100cb60048036038101906100c69190612635565b6105a8565b005b6100e760048036038101906100e29190612635565b610b24565b6040516100fd9a999897969594939291906128d1565b60405180910390f35b61010e610e45565b60405161011b9190612980565b60405180910390f35b61013e60048036038101906101399190612999565b610e68565b005b61015a60048036038101906101559190612635565b611231565b005b610164611335565b604051610175959493929190612bde565b60405180910390f35b61019860048036038101906101939190612c52565b6117c9565b005b6101b460048036038101906101af9190612c90565b611e9a565b6040516101c49493929190612cbb565b60405180910390f35b5f8054906101000a900473ffffffffffffffffffffffffffffffffffffffff1673ffffffffffffffffffffffffffffffffffffffff163373ffffffffffffffffffffffffffffffffffffffff161461025a576040517f08c379a000000000000000000000000000000000000000000000000000000000815260040161025190612d8a565b60405180910390fd5b60028560ff1610158015610272575060058560ff1611155b6102b1576040517f08c379a00000000000000000000000000000000000000000000000000000000081526004016102a890612df2565b60405180910390fd5b8460ff1684849050146102f9576040517f08c379a00000000000000000000000000000000000000000000000000000000081526004016102f090612e5a565b60405180910390fd5b5f600154905060015f81548092919061031190612ea5565b91905055505f73ffffffffffffffffffffffffffffffffffffffff1660025f8381526020019081526020015f206008015f9054906101000a900473ffffffffffffffffffffffffffffffffffffffff1673ffffffffffffffffffffffffffffffffffffffff16146103b7576040517f08c379a00000000000000000000000000000000000000000000000000000000081526004016103ae90612f5c565b60405180910390fd5b5f60025f8381526020019081526020015f20905081815f018190555088888260010191826103e69291906131ab565b5083816004018190555033816008015f6101000a81548173ffffffffffffffffffffffffffffffffffffffff021916908373ffffffffffffffffffffffffffffffffffffffff16021790555082816005015f6101000a81548173ffffffffffffffffffffffffffffffffffffffff021916908373ffffffffffffffffffffffffffffffffffffffff1602179055508660ff1667ffffffffffffffff81111561049157610490612f84565b5b6040519080825280602002602001820160405280156104bf5781602001602082028036833780820191505090505b508160030190805190602001906104d7929190612397565b505f5b8760ff168160ff161015610558578160020187878360ff1681811061050257610501613278565b5b905060200281019061051491906132b1565b90918060018154018082558091505060019003905f5260205f20015f90919290919290919290919250918261054a9291906131ab565b5080806001019150506104da565b50817f718bc754bfb694aa9753415d4cd8d5b5dc3946b046b68b3455507d5142a07a19338b8b8a8a8a8a6040516105959796959493929190613485565b60405180910390a2505050505050505050565b8060025f8281526020019081526020015f206008015f9054906101000a900473ffffffffffffffffffffffffffffffffffffffff1673ffffffffffffffffffffffffffffffffffffffff163373ffffffffffffffffffffffffffffffffffffffff161461064a576040517f08c379a000000000000000000000000000000000000000000000000000000000815260040161064190613532565b60405180910390fd5b5f60025f8481526020019081526020015f2090508060080160159054906101000a900460ff16156106b0576040517f08c379a00000000000000000000000000000000000000000000000000000000081526004016106a79061359a565b60405180910390fd5b60018160080160176101000a81548160ff0219169083151502179055505f816005015f9054906101000a900473ffffffffffffffffffffffffffffffffffffffff1690505f805b83600301805490508160ff16101561074b57836003018160ff168154811061072257610721613278565b5b905f5260205f2001548261073691906135b8565b91508080610743906135eb565b9150506106f7565b505f60648261075a9190613640565b90505f8190505f81838561076e9190613670565b6107789190613670565b90508473ffffffffffffffffffffffffffffffffffffffff1663a9059cbb739b63fa365019dd7bdf8cbed2823480f808391970856040518363ffffffff1660e01b81526004016107c99291906136a3565b6020604051808303815f875af11580156107e5573d5f803e3d5ffd5b505050506040513d601f19601f8201168201806040525081019061080991906136f4565b610848576040517f08c379a000000000000000000000000000000000000000000000000000000000815260040161083f90613769565b60405180910390fd5b8473ffffffffffffffffffffffffffffffffffffffff1663a9059cbb876008015f9054906101000a900473ffffffffffffffffffffffffffffffffffffffff16846040518363ffffffff1660e01b81526004016108a69291906136a3565b6020604051808303815f875af11580156108c2573d5f803e3d5ffd5b505050506040513d601f19601f820116820180604052508101906108e691906136f4565b610925576040517f08c379a000000000000000000000000000000000000000000000000000000000815260040161091c906137d1565b60405180910390fd5b5f5b8660070180549050811015610aec575f87600701828154811061094d5761094c613278565b5b905f5260205f20015f9054906101000a900473ffffffffffffffffffffffffffffffffffffffff1690505f886006015f8373ffffffffffffffffffffffffffffffffffffffff1673ffffffffffffffffffffffffffffffffffffffff1681526020019081526020015f2090505f5b81805490508160ff161015610adc575f828260ff16815481106109e1576109e0613278565b5b905f5260205f2090600202016001015490505f898783610a0191906137ef565b610a0b9190613640565b90508a73ffffffffffffffffffffffffffffffffffffffff1663a9059cbb86836040518363ffffffff1660e01b8152600401610a489291906136a3565b6020604051808303815f875af1158015610a64573d5f803e3d5ffd5b505050506040513d601f19601f82011682018060405250810190610a8891906136f4565b610ac7576040517f08c379a0000000000000000000000000000000000000000000000000000000008152600401610abe9061387a565b60405180910390fd5b50508080610ad4906135eb565b9150506109bb565b5050508080600101915050610927565b50877fe3906e8d1e2167ef706b023e6e83af697db5cd38f233c71bf5021b26b316c3a260405160405180910390a25050505050505050565b5f6060805f805f60605f805f8060025f8d81526020019081526020015f209050806008015f9054906101000a900473ffffffffffffffffffffffffffffffffffffffff169a50806001018054610b7990612fde565b80601f0160208091040260200160405190810160405280929190818152602001828054610ba590612fde565b8015610bf05780601f10610bc757610100808354040283529160200191610bf0565b820191905f5260205f20905b815481529060010190602001808311610bd357829003601f168201915b5050505050995080600201805480602002602001604051908101604052809291908181526020015f905b82821015610cc2578382905f5260205f20018054610c3790612fde565b80601f0160208091040260200160405190810160405280929190818152602001828054610c6390612fde565b8015610cae5780601f10610c8557610100808354040283529160200191610cae565b820191905f5260205f20905b815481529060010190602001808311610c9157829003601f168201915b505050505081526020019060010190610c1a565b5050505098508060080160149054906101000a900460ff1697508060080160159054906101000a900460ff169650806003018054905067ffffffffffffffff811115610d1157610d10612f84565b5b604051908082528060200260200182016040528015610d3f5781602001602082028036833780820191505090505b5094505f95505f5b81600301805490508160ff161015610ddf57816003018160ff1681548110610d7257610d71613278565b5b905f5260205f200154868260ff1681518110610d9157610d90613278565b5b602002602001018181525050816003018160ff1681548110610db657610db5613278565b5b905f5260205f20015487610dca91906135b8565b96508080610dd7906135eb565b915050610d47565b50806005015f9054906101000a900473ffffffffffffffffffffffffffffffffffffffff1693508060080160159054906101000a900460ff16610e22575f610e35565b8060080160169054906101000a900460ff165b9250509193959799509193959799565b5f8054906101000a900473ffffffffffffffffffffffffffffffffffffffff1681565b5f60025f8581526020019081526020015f2090508060080160149054906101000a900460ff16610ecd576040517f08c379a0000000000000000000000000000000000000000000000000000000008152600401610ec4906138e2565b60405180910390fd5b8060040154831015610f14576040517f08c379a0000000000000000000000000000000000000000000000000000000008152600401610f0b9061394a565b60405180910390fd5b60018260ff1610158015610f32575080600201805490508260ff1611155b610f71576040517f08c379a0000000000000000000000000000000000000000000000000000000008152600401610f68906139b2565b60405180910390fd5b5f816005015f9054906101000a900473ffffffffffffffffffffffffffffffffffffffff1690508073ffffffffffffffffffffffffffffffffffffffff166323b872dd3330876040518463ffffffff1660e01b8152600401610fd5939291906139d0565b6020604051808303815f875af1158015610ff1573d5f803e3d5ffd5b505050506040513d601f19601f8201168201806040525081019061101591906136f4565b611054576040517f08c379a000000000000000000000000000000000000000000000000000000000815260040161104b90613a4f565b60405180910390fd5b83826003016001856110669190613a6d565b60ff168154811061107a57611079613278565b5b905f5260205f20015f82825461109091906135b8565b92505081905550816006015f3373ffffffffffffffffffffffffffffffffffffffff1673ffffffffffffffffffffffffffffffffffffffff1681526020019081526020015f2060405180604001604052803373ffffffffffffffffffffffffffffffffffffffff16815260200186815250908060018154018082558091505060019003905f5260205f2090600202015f909190919091505f820151815f015f6101000a81548173ffffffffffffffffffffffffffffffffffffffff021916908373ffffffffffffffffffffffffffffffffffffffff1602179055506020820151816001015550508160070133908060018154018082558091505060019003905f5260205f20015f9091909190916101000a81548173ffffffffffffffffffffffffffffffffffffffff021916908373ffffffffffffffffffffffffffffffffffffffff1602179055503373ffffffffffffffffffffffffffffffffffffffff16857fe90186097616cbeb30ffc786b44501e1362f5e0a316a96c5ab82a0551f9d2f058686604051611222929190613aa1565b60405180910390a35050505050565b8060025f8281526020019081526020015f206008015f9054906101000a900473ffffffffffffffffffffffffffffffffffffffff1673ffffffffffffffffffffffffffffffffffffffff163373ffffffffffffffffffffffffffffffffffffffff16146112d3576040517f08c379a00000000000000000000000000000000000000000000000000000000081526004016112ca90613532565b60405180910390fd5b5f60025f8481526020019081526020015f2090505f8160080160146101000a81548160ff021916908315150217905550827feb7ecc3aa4dd407c7207677a2cbf861441d5c5e6c0dc70ad9692a980385c20d660405160405180910390a2505050565b60608060608060605f80600190505b600154811015611396575f60025f8381526020019081526020015f2090508060080160149054906101000a900460ff161561138857828061138490612ea5565b9350505b508080600101915050611344565b508067ffffffffffffffff8111156113b1576113b0612f84565b5b6040519080825280602002602001820160405280156113df5781602001602082028036833780820191505090505b5095508067ffffffffffffffff8111156113fc576113fb612f84565b5b60405190808252806020026020018201604052801561142f57816020015b606081526020019060019003908161141a5790505b5094508067ffffffffffffffff81111561144c5761144b612f84565b5b60405190808252806020026020018201604052801561147f57816020015b606081526020019060019003908161146a5790505b5093508067ffffffffffffffff81111561149c5761149b612f84565b5b6040519080825280602002602001820160405280156114ca5781602001602082028036833780820191505090505b5092508067ffffffffffffffff8111156114e7576114e6612f84565b5b6040519080825280602002602001820160405280156115155781602001602082028036833780820191505090505b5091505f80600190505b6001548110156117bf575f60025f8381526020019081526020015f2090508060080160149054906101000a900460ff16156117b157805f015489848151811061156b5761156a613278565b5b60200260200101818152505080600101805461158690612fde565b80601f01602080910402602001604051908101604052809291908181526020018280546115b290612fde565b80156115fd5780601f106115d4576101008083540402835291602001916115fd565b820191905f5260205f20905b8154815290600101906020018083116115e057829003601f168201915b505050505088848151811061161557611614613278565b5b602002602001018190525080600201805480602002602001604051908101604052809291908181526020015f905b828210156116eb578382905f5260205f2001805461166090612fde565b80601f016020809104026020016040519081016040528092919081815260200182805461168c90612fde565b80156116d75780601f106116ae576101008083540402835291602001916116d7565b820191905f5260205f20905b8154815290600101906020018083116116ba57829003601f168201915b505050505081526020019060010190611643565b5050505087848151811061170257611701613278565b5b6020026020010181905250806004015486848151811061172557611724613278565b5b602002602001018181525050806008015f9054906101000a900473ffffffffffffffffffffffffffffffffffffffff1685848151811061176857611767613278565b5b602002602001019073ffffffffffffffffffffffffffffffffffffffff16908173ffffffffffffffffffffffffffffffffffffffff168152505082806117ad90612ea5565b9350505b50808060010191505061151f565b5050509091929394565b8160025f8281526020019081526020015f206008015f9054906101000a900473ffffffffffffffffffffffffffffffffffffffff1673ffffffffffffffffffffffffffffffffffffffff163373ffffffffffffffffffffffffffffffffffffffff161461186b576040517f08c379a000000000000000000000000000000000000000000000000000000000815260040161186290613532565b60405180910390fd5b60018260ff1610158015611899575060025f8481526020019081526020015f20600201805490508260ff1611155b6118d8576040517f08c379a00000000000000000000000000000000000000000000000000000000081526004016118cf90613b12565b60405180910390fd5b5f60025f8581526020019081526020015f2090508060080160149054906101000a900460ff1615801561191a57508060080160159054906101000a900460ff16155b611959576040517f08c379a000000000000000000000000000000000000000000000000000000000815260040161195090613ba0565b60405180910390fd5b5f816005015f9054906101000a900473ffffffffffffffffffffffffffffffffffffffff1690505f805b83600301805490508160ff1610156119d757836003018160ff16815481106119ae576119ad613278565b5b905f5260205f200154826119c291906135b8565b915080806119cf906135eb565b915050611983565b505f836003016001876119ea9190613a6d565b60ff16815481106119fe576119fd613278565b5b905f5260205f20015490505f606483611a179190613640565b90505f8190505f818386611a2b9190613670565b611a359190613670565b90508573ffffffffffffffffffffffffffffffffffffffff1663a9059cbb739b63fa365019dd7bdf8cbed2823480f808391970856040518363ffffffff1660e01b8152600401611a869291906136a3565b6020604051808303815f875af1158015611aa2573d5f803e3d5ffd5b505050506040513d601f19601f82011682018060405250810190611ac691906136f4565b611b05576040517f08c379a0000000000000000000000000000000000000000000000000000000008152600401611afc90613769565b60405180910390fd5b8573ffffffffffffffffffffffffffffffffffffffff1663a9059cbb886008015f9054906101000a900473ffffffffffffffffffffffffffffffffffffffff16846040518363ffffffff1660e01b8152600401611b639291906136a3565b6020604051808303815f875af1158015611b7f573d5f803e3d5ffd5b505050506040513d601f19601f82011682018060405250810190611ba391906136f4565b611be2576040517f08c379a0000000000000000000000000000000000000000000000000000000008152600401611bd9906137d1565b60405180910390fd5b5f5b8760070180549050811015611e1b575f886007018281548110611c0a57611c09613278565b5b905f5260205f20015f9054906101000a900473ffffffffffffffffffffffffffffffffffffffff1690505f896006015f8373ffffffffffffffffffffffffffffffffffffffff1673ffffffffffffffffffffffffffffffffffffffff1681526020019081526020015f2090505f5b81805490508160ff161015611e0b575f73ffffffffffffffffffffffffffffffffffffffff16828260ff1681548110611cb457611cb3613278565b5b905f5260205f2090600202015f015f9054906101000a900473ffffffffffffffffffffffffffffffffffffffff1673ffffffffffffffffffffffffffffffffffffffff1614611df8575f8886848460ff1681548110611d1657611d15613278565b5b905f5260205f20906002020160010154611d3091906137ef565b611d3a9190613640565b90508a73ffffffffffffffffffffffffffffffffffffffff1663a9059cbb85836040518363ffffffff1660e01b8152600401611d779291906136a3565b6020604051808303815f875af1158015611d93573d5f803e3d5ffd5b505050506040513d601f19601f82011682018060405250810190611db791906136f4565b611df6576040517f08c379a0000000000000000000000000000000000000000000000000000000008152600401611ded90613c08565b60405180910390fd5b505b8080611e03906135eb565b915050611c78565b5050508080600101915050611be4565b5060018760080160156101000a81548160ff021916908315150217905550888760080160166101000a81548160ff021916908360ff160217905550897f28c9277c6636bf00b5d22b2287c0f37926ae23a6825d5801e10a7183bb69045c8a604051611e869190613c26565b60405180910390a250505050505050505050565b6060806060805f80600190505b600154811015611f46575f60025f8381526020019081526020015f2090508060080160149054906101000a900460ff168015611f2457505f816006015f8a73ffffffffffffffffffffffffffffffffffffffff1673ffffffffffffffffffffffffffffffffffffffff1681526020019081526020015f2080549050115b15611f38578280611f3490612ea5565b9350505b508080600101915050611ea7565b508067ffffffffffffffff811115611f6157611f60612f84565b5b604051908082528060200260200182016040528015611f8f5781602001602082028036833780820191505090505b5094508067ffffffffffffffff811115611fac57611fab612f84565b5b604051908082528060200260200182016040528015611fdf57816020015b6060815260200190600190039081611fca5790505b5093508067ffffffffffffffff811115611ffc57611ffb612f84565b5b60405190808252806020026020018201604052801561202a5781602001602082028036833780820191505090505b5092508067ffffffffffffffff81111561204757612046612f84565b5b60405190808252806020026020018201604052801561207a57816020015b60608152602001906001900390816120655790505b5091505f80600190505b60015481101561238d575f60025f8381526020019081526020015f2090508060080160149054906101000a900460ff16801561210157505f816006015f8b73ffffffffffffffffffffffffffffffffffffffff1673ffffffffffffffffffffffffffffffffffffffff1681526020019081526020015f2080549050115b1561237f57805f015488848151811061211d5761211c613278565b5b60200260200101818152505080600101805461213890612fde565b80601f016020809104026020016040519081016040528092919081815260200182805461216490612fde565b80156121af5780601f10612186576101008083540402835291602001916121af565b820191905f5260205f20905b81548152906001019060200180831161219257829003601f168201915b50505050508784815181106121c7576121c6613278565b5b60200260200101819052505f80826006015f8c73ffffffffffffffffffffffffffffffffffffffff1673ffffffffffffffffffffffffffffffffffffffff1681526020019081526020015f2090505f5b81805490508110156122605781818154811061223657612235613278565b5b905f5260205f209060020201600101548361225191906135b8565b92508080600101915050612217565b508188868151811061227557612274613278565b5b60200260200101818152505082600201805480602002602001604051908101604052809291908181526020015f905b8282101561234c578382905f5260205f200180546122c190612fde565b80601f01602080910402602001604051908101604052809291908181526020018280546122ed90612fde565b80156123385780601f1061230f57610100808354040283529160200191612338565b820191905f5260205f20905b81548152906001019060200180831161231b57829003601f168201915b5050505050815260200190600101906122a4565b5050505087868151811061236357612362613278565b5b6020026020010181905250848061237990612ea5565b95505050505b508080600101915050612084565b5050509193509193565b828054828255905f5260205f209081019282156123d1579160200282015b828111156123d05782518255916020019190600101906123b5565b5b5090506123de91906123e2565b5090565b5b808211156123f9575f815f9055506001016123e3565b5090565b5f80fd5b5f80fd5b5f80fd5b5f80fd5b5f80fd5b5f8083601f84011261242657612425612405565b5b8235905067ffffffffffffffff81111561244357612442612409565b5b60208301915083600182028301111561245f5761245e61240d565b5b9250929050565b5f60ff82169050919050565b61247b81612466565b8114612485575f80fd5b50565b5f8135905061249681612472565b92915050565b5f8083601f8401126124b1576124b0612405565b5b8235905067ffffffffffffffff8111156124ce576124cd612409565b5b6020830191508360208202830111156124ea576124e961240d565b5b9250929050565b5f819050919050565b612503816124f1565b811461250d575f80fd5b50565b5f8135905061251e816124fa565b92915050565b5f73ffffffffffffffffffffffffffffffffffffffff82169050919050565b5f61254d82612524565b9050919050565b61255d81612543565b8114612567575f80fd5b50565b5f8135905061257881612554565b92915050565b5f805f805f805f60a0888a031215612599576125986123fd565b5b5f88013567ffffffffffffffff8111156125b6576125b5612401565b5b6125c28a828b01612411565b975097505060206125d58a828b01612488565b955050604088013567ffffffffffffffff8111156125f6576125f5612401565b5b6126028a828b0161249c565b945094505060606126158a828b01612510565b92505060806126268a828b0161256a565b91505092959891949750929550565b5f6020828403121561264a576126496123fd565b5b5f61265784828501612510565b91505092915050565b61266981612543565b82525050565b5f81519050919050565b5f82825260208201905092915050565b8281835e5f83830152505050565b5f601f19601f8301169050919050565b5f6126b18261266f565b6126bb8185612679565b93506126cb818560208601612689565b6126d481612697565b840191505092915050565b5f81519050919050565b5f82825260208201905092915050565b5f819050602082019050919050565b5f82825260208201905092915050565b5f6127228261266f565b61272c8185612708565b935061273c818560208601612689565b61274581612697565b840191505092915050565b5f61275b8383612718565b905092915050565b5f602082019050919050565b5f612779826126df565b61278381856126e9565b935083602082028501612795856126f9565b805f5b858110156127d057848403895281516127b18582612750565b94506127bc83612763565b925060208a01995050600181019050612798565b50829750879550505050505092915050565b5f8115159050919050565b6127f6816127e2565b82525050565b612805816124f1565b82525050565b5f81519050919050565b5f82825260208201905092915050565b5f819050602082019050919050565b61283d816124f1565b82525050565b5f61284e8383612834565b60208301905092915050565b5f602082019050919050565b5f6128708261280b565b61287a8185612815565b935061288583612825565b805f5b838110156128b557815161289c8882612843565b97506128a78361285a565b925050600181019050612888565b5085935050505092915050565b6128cb81612466565b82525050565b5f610140820190506128e55f83018d612660565b81810360208301526128f7818c6126a7565b9050818103604083015261290b818b61276f565b905061291a606083018a6127ed565b61292760808301896127ed565b61293460a08301886127fc565b81810360c08301526129468187612866565b905061295560e0830186612660565b6129636101008301856128c2565b6129716101208301846127ed565b9b9a5050505050505050505050565b5f6020820190506129935f830184612660565b92915050565b5f805f606084860312156129b0576129af6123fd565b5b5f6129bd86828701612510565b93505060206129ce86828701612510565b92505060406129df86828701612488565b9150509250925092565b5f81519050919050565b5f82825260208201905092915050565b5f819050602082019050919050565b5f82825260208201905092915050565b5f612a2c826126df565b612a368185612a12565b935083602082028501612a48856126f9565b805f5b85811015612a835784840389528151612a648582612750565b9450612a6f83612763565b925060208a01995050600181019050612a4b565b50829750879550505050505092915050565b5f612aa08383612a22565b905092915050565b5f602082019050919050565b5f612abe826129e9565b612ac881856129f3565b935083602082028501612ada85612a03565b805f5b85811015612b155784840389528151612af68582612a95565b9450612b0183612aa8565b925060208a01995050600181019050612add565b50829750879550505050505092915050565b5f81519050919050565b5f82825260208201905092915050565b5f819050602082019050919050565b612b5981612543565b82525050565b5f612b6a8383612b50565b60208301905092915050565b5f602082019050919050565b5f612b8c82612b27565b612b968185612b31565b9350612ba183612b41565b805f5b83811015612bd1578151612bb88882612b5f565b9750612bc383612b76565b925050600181019050612ba4565b5085935050505092915050565b5f60a0820190508181035f830152612bf68188612866565b90508181036020830152612c0a818761276f565b90508181036040830152612c1e8186612ab4565b90508181036060830152612c328185612866565b90508181036080830152612c468184612b82565b90509695505050505050565b5f8060408385031215612c6857612c676123fd565b5b5f612c7585828601612510565b9250506020612c8685828601612488565b9150509250929050565b5f60208284031215612ca557612ca46123fd565b5b5f612cb28482850161256a565b91505092915050565b5f6080820190508181035f830152612cd38187612866565b90508181036020830152612ce7818661276f565b90508181036040830152612cfb8185612866565b90508181036060830152612d0f8184612ab4565b905095945050505050565b7f4e6f7420617574686f72697a65642c206f6e6c79206f776e65722063616e20635f8201527f7265617465206265747300000000000000000000000000000000000000000000602082015250565b5f612d74602a83612679565b9150612d7f82612d1a565b604082019050919050565b5f6020820190508181035f830152612da181612d68565b9050919050565b7f496e76616c6964206e756d626572206f66206f7074696f6e73000000000000005f82015250565b5f612ddc601983612679565b9150612de782612da8565b602082019050919050565b5f6020820190508181035f830152612e0981612dd0565b9050919050565b7f4f7074696f6e206e616d6573206c656e677468206d69736d61746368000000005f82015250565b5f612e44601c83612679565b9150612e4f82612e10565b602082019050919050565b5f6020820190508181035f830152612e7181612e38565b9050919050565b7f4e487b71000000000000000000000000000000000000000000000000000000005f52601160045260245ffd5b5f612eaf826124f1565b91507fffffffffffffffffffffffffffffffffffffffffffffffffffffffffffffffff8203612ee157612ee0612e78565b5b600182019050919050565b7f42657420696e7374616e63652077697468207468697320494420616c726561645f8201527f7920657869737473000000000000000000000000000000000000000000000000602082015250565b5f612f46602883612679565b9150612f5182612eec565b604082019050919050565b5f6020820190508181035f830152612f7381612f3a565b9050919050565b5f82905092915050565b7f4e487b71000000000000000000000000000000000000000000000000000000005f52604160045260245ffd5b7f4e487b71000000000000000000000000000000000000000000000000000000005f52602260045260245ffd5b5f6002820490506001821680612ff557607f821691505b60208210810361300857613007612fb1565b5b50919050565b5f819050815f5260205f209050919050565b5f6020601f8301049050919050565b5f82821b905092915050565b5f6008830261306a7fffffffffffffffffffffffffffffffffffffffffffffffffffffffffffffffff8261302f565b613074868361302f565b95508019841693508086168417925050509392505050565b5f819050919050565b5f6130af6130aa6130a5846124f1565b61308c565b6124f1565b9050919050565b5f819050919050565b6130c883613095565b6130dc6130d4826130b6565b84845461303b565b825550505050565b5f90565b6130f06130e4565b6130fb8184846130bf565b505050565b5b8181101561311e576131135f826130e8565b600181019050613101565b5050565b601f821115613163576131348161300e565b61313d84613020565b8101602085101561314c578190505b61316061315885613020565b830182613100565b50505b505050565b5f82821c905092915050565b5f6131835f1984600802613168565b1980831691505092915050565b5f61319b8383613174565b9150826002028217905092915050565b6131b58383612f7a565b67ffffffffffffffff8111156131ce576131cd612f84565b5b6131d88254612fde565b6131e3828285613122565b5f601f831160018114613210575f84156131fe578287013590505b6132088582613190565b86555061326f565b601f19841661321e8661300e565b5f5b8281101561324557848901358255600182019150602085019450602081019050613220565b86831015613262578489013561325e601f891682613174565b8355505b6001600288020188555050505b50505050505050565b7f4e487b71000000000000000000000000000000000000000000000000000000005f52603260045260245ffd5b5f80fd5b5f80fd5b5f80fd5b5f80833560016020038436030381126132cd576132cc6132a5565b5b80840192508235915067ffffffffffffffff8211156132ef576132ee6132a9565b5b60208301925060018202360383131561330b5761330a6132ad565b5b509250929050565b828183375f83830152505050565b5f61332c8385612679565b9350613339838584613313565b61334283612697565b840190509392505050565b5f819050919050565b5f6133618385612708565b935061336e838584613313565b61337783612697565b840190509392505050565b5f61338e848484613356565b90509392505050565b5f80fd5b5f80fd5b5f80fd5b5f80833560016020038436030381126133bf576133be61339f565b5b83810192508235915060208301925067ffffffffffffffff8211156133e7576133e6613397565b5b6001820236038313156133fd576133fc61339b565b5b509250929050565b5f602082019050919050565b5f61341c83856126e9565b93508360208402850161342e8461334d565b805f5b8781101561347357848403895261344882846133a3565b613453868284613382565b955061345e84613405565b935060208b019a505050600181019050613431565b50829750879450505050509392505050565b5f60a0820190506134985f83018a612660565b81810360208301526134ab81888a613321565b905081810360408301526134c0818688613411565b90506134cf60608301856127fc565b6134dc6080830184612660565b98975050505050505050565b7f4e6f7420617574686f72697a65640000000000000000000000000000000000005f82015250565b5f61351c600e83612679565b9150613527826134e8565b602082019050919050565b5f6020820190508181035f83015261354981613510565b9050919050565b7f42657474696e6720616c7265616479207265736f6c76656400000000000000005f82015250565b5f613584601883612679565b915061358f82613550565b602082019050919050565b5f6020820190508181035f8301526135b181613578565b9050919050565b5f6135c2826124f1565b91506135cd836124f1565b92508282019050808211156135e5576135e4612e78565b5b92915050565b5f6135f582612466565b915060ff820361360857613607612e78565b5b600182019050919050565b7f4e487b71000000000000000000000000000000000000000000000000000000005f52601260045260245ffd5b5f61364a826124f1565b9150613655836124f1565b92508261366557613664613613565b5b828204905092915050565b5f61367a826124f1565b9150613685836124f1565b925082820390508181111561369d5761369c612e78565b5b92915050565b5f6040820190506136b65f830185612660565b6136c360208301846127fc565b9392505050565b6136d3816127e2565b81146136dd575f80fd5b50565b5f815190506136ee816136ca565b92915050565b5f60208284031215613709576137086123fd565b5b5f613716848285016136e0565b91505092915050565b7f466565207472616e73666572206661696c6564000000000000000000000000005f82015250565b5f613753601383612679565b915061375e8261371f565b602082019050919050565b5f6020820190508181035f83015261378081613747565b9050919050565b7f43726561746f7220666565207472616e73666572206661696c656400000000005f82015250565b5f6137bb601b83612679565b91506137c682613787565b602082019050919050565b5f6020820190508181035f8301526137e8816137af565b9050919050565b5f6137f9826124f1565b9150613804836124f1565b9250828202613812816124f1565b9150828204841483151761382957613828612e78565b5b5092915050565b7f426574746f72207472616e73666572206661696c6564000000000000000000005f82015250565b5f613864601683612679565b915061386f82613830565b602082019050919050565b5f6020820190508181035f83015261389181613858565b9050919050565b7f42657474696e6720697320636c6f7365640000000000000000000000000000005f82015250565b5f6138cc601183612679565b91506138d782613898565b602082019050919050565b5f6020820190508181035f8301526138f9816138c0565b9050919050565b7f42657420616d6f756e74206973206c657373207468616e206d696e696d756d005f82015250565b5f613934601f83612679565b915061393f82613900565b602082019050919050565b5f6020820190508181035f83015261396181613928565b9050919050565b7f496e76616c6964206f7074696f6e0000000000000000000000000000000000005f82015250565b5f61399c600e83612679565b91506139a782613968565b602082019050919050565b5f6020820190508181035f8301526139c981613990565b9050919050565b5f6060820190506139e35f830186612660565b6139f06020830185612660565b6139fd60408301846127fc565b949350505050565b7f5472616e73666572206661696c656400000000000000000000000000000000005f82015250565b5f613a39600f83612679565b9150613a4482613a05565b602082019050919050565b5f6020820190508181035f830152613a6681613a2d565b9050919050565b5f613a7782612466565b9150613a8283612466565b9250828203905060ff811115613a9b57613a9a612e78565b5b92915050565b5f604082019050613ab45f8301856127fc565b613ac160208301846128c2565b9392505050565b7f496e76616c69642077696e6e696e67206f7074696f6e000000000000000000005f82015250565b5f613afc601683612679565b9150613b0782613ac8565b602082019050919050565b5f6020820190508181035f830152613b2981613af0565b9050919050565b7f42657474696e67206d75737420626520636c6f73656420616e64206e6f7420725f8201527f65736f6c76656400000000000000000000000000000000000000000000000000602082015250565b5f613b8a602783612679565b9150613b9582613b30565b604082019050919050565b5f6020820190508181035f830152613bb781613b7e565b9050919050565b7f57696e6e6572207472616e73666572206661696c6564000000000000000000005f82015250565b5f613bf2601683612679565b9150613bfd82613bbe565b602082019050919050565b5f6020820190508181035f830152613c1f81613be6565b9050919050565b5f602082019050613c395f8301846128c2565b9291505056fea26469706673582212202b7655f46cc2d319e7491ac2ac8cb1f9b0fdf9ef753857b936049094cffaf32864736f6c634300081a0033",
					"opcodes": "PUSH1 0x80 PUSH1 0x40 MSTORE PUSH1 0x1 DUP1 SSTORE CALLVALUE DUP1 ISZERO PUSH1 0x12 JUMPI PUSH0 DUP1 REVERT JUMPDEST POP CALLER PUSH0 DUP1 PUSH2 0x100 EXP DUP2 SLOAD DUP2 PUSH20 0xFFFFFFFFFFFFFFFFFFFFFFFFFFFFFFFFFFFFFFFF MUL NOT AND SWAP1 DUP4 PUSH20 0xFFFFFFFFFFFFFFFFFFFFFFFFFFFFFFFFFFFFFFFF AND MUL OR SWAP1 SSTORE POP PUSH2 0x3C75 DUP1 PUSH2 0x5F PUSH0 CODECOPY PUSH0 RETURN INVALID PUSH1 0x80 PUSH1 0x40 MSTORE CALLVALUE DUP1 ISZERO PUSH2 0xF JUMPI PUSH0 DUP1 REVERT JUMPDEST POP PUSH1 0x4 CALLDATASIZE LT PUSH2 0x91 JUMPI PUSH0 CALLDATALOAD PUSH1 0xE0 SHR DUP1 PUSH4 0x9E14427E GT PUSH2 0x64 JUMPI DUP1 PUSH4 0x9E14427E EQ PUSH2 0x124 JUMPI DUP1 PUSH4 0xB4AD06A1 EQ PUSH2 0x140 JUMPI DUP1 PUSH4 0xD65EDB4D EQ PUSH2 0x15C JUMPI DUP1 PUSH4 0xF1368748 EQ PUSH2 0x17E JUMPI DUP1 PUSH4 0xF41408B5 EQ PUSH2 0x19A JUMPI PUSH2 0x91 JUMP JUMPDEST DUP1 PUSH4 0x250E5ADC EQ PUSH2 0x95 JUMPI DUP1 PUSH4 0x357401F5 EQ PUSH2 0xB1 JUMPI DUP1 PUSH4 0x79141F80 EQ PUSH2 0xCD JUMPI DUP1 PUSH4 0x8DA5CB5B EQ PUSH2 0x106 JUMPI JUMPDEST PUSH0 DUP1 REVERT JUMPDEST PUSH2 0xAF PUSH1 0x4 DUP1 CALLDATASIZE SUB DUP2 ADD SWAP1 PUSH2 0xAA SWAP2 SWAP1 PUSH2 0x257E JUMP JUMPDEST PUSH2 0x1CD JUMP JUMPDEST STOP JUMPDEST PUSH2 0xCB PUSH1 0x4 DUP1 CALLDATASIZE SUB DUP2 ADD SWAP1 PUSH2 0xC6 SWAP2 SWAP1 PUSH2 0x2635 JUMP JUMPDEST PUSH2 0x5A8 JUMP JUMPDEST STOP JUMPDEST PUSH2 0xE7 PUSH1 0x4 DUP1 CALLDATASIZE SUB DUP2 ADD SWAP1 PUSH2 0xE2 SWAP2 SWAP1 PUSH2 0x2635 JUMP JUMPDEST PUSH2 0xB24 JUMP JUMPDEST PUSH1 0x40 MLOAD PUSH2 0xFD SWAP11 SWAP10 SWAP9 SWAP8 SWAP7 SWAP6 SWAP5 SWAP4 SWAP3 SWAP2 SWAP1 PUSH2 0x28D1 JUMP JUMPDEST PUSH1 0x40 MLOAD DUP1 SWAP2 SUB SWAP1 RETURN JUMPDEST PUSH2 0x10E PUSH2 0xE45 JUMP JUMPDEST PUSH1 0x40 MLOAD PUSH2 0x11B SWAP2 SWAP1 PUSH2 0x2980 JUMP JUMPDEST PUSH1 0x40 MLOAD DUP1 SWAP2 SUB SWAP1 RETURN JUMPDEST PUSH2 0x13E PUSH1 0x4 DUP1 CALLDATASIZE SUB DUP2 ADD SWAP1 PUSH2 0x139 SWAP2 SWAP1 PUSH2 0x2999 JUMP JUMPDEST PUSH2 0xE68 JUMP JUMPDEST STOP JUMPDEST PUSH2 0x15A PUSH1 0x4 DUP1 CALLDATASIZE SUB DUP2 ADD SWAP1 PUSH2 0x155 SWAP2 SWAP1 PUSH2 0x2635 JUMP JUMPDEST PUSH2 0x1231 JUMP JUMPDEST STOP JUMPDEST PUSH2 0x164 PUSH2 0x1335 JUMP JUMPDEST PUSH1 0x40 MLOAD PUSH2 0x175 SWAP6 SWAP5 SWAP4 SWAP3 SWAP2 SWAP1 PUSH2 0x2BDE JUMP JUMPDEST PUSH1 0x40 MLOAD DUP1 SWAP2 SUB SWAP1 RETURN JUMPDEST PUSH2 0x198 PUSH1 0x4 DUP1 CALLDATASIZE SUB DUP2 ADD SWAP1 PUSH2 0x193 SWAP2 SWAP1 PUSH2 0x2C52 JUMP JUMPDEST PUSH2 0x17C9 JUMP JUMPDEST STOP JUMPDEST PUSH2 0x1B4 PUSH1 0x4 DUP1 CALLDATASIZE SUB DUP2 ADD SWAP1 PUSH2 0x1AF SWAP2 SWAP1 PUSH2 0x2C90 JUMP JUMPDEST PUSH2 0x1E9A JUMP JUMPDEST PUSH1 0x40 MLOAD PUSH2 0x1C4 SWAP5 SWAP4 SWAP3 SWAP2 SWAP1 PUSH2 0x2CBB JUMP JUMPDEST PUSH1 0x40 MLOAD DUP1 SWAP2 SUB SWAP1 RETURN JUMPDEST PUSH0 DUP1 SLOAD SWAP1 PUSH2 0x100 EXP SWAP1 DIV PUSH20 0xFFFFFFFFFFFFFFFFFFFFFFFFFFFFFFFFFFFFFFFF AND PUSH20 0xFFFFFFFFFFFFFFFFFFFFFFFFFFFFFFFFFFFFFFFF AND CALLER PUSH20 0xFFFFFFFFFFFFFFFFFFFFFFFFFFFFFFFFFFFFFFFF AND EQ PUSH2 0x25A JUMPI PUSH1 0x40 MLOAD PUSH32 0x8C379A000000000000000000000000000000000000000000000000000000000 DUP2 MSTORE PUSH1 0x4 ADD PUSH2 0x251 SWAP1 PUSH2 0x2D8A JUMP JUMPDEST PUSH1 0x40 MLOAD DUP1 SWAP2 SUB SWAP1 REVERT JUMPDEST PUSH1 0x2 DUP6 PUSH1 0xFF AND LT ISZERO DUP1 ISZERO PUSH2 0x272 JUMPI POP PUSH1 0x5 DUP6 PUSH1 0xFF AND GT ISZERO JUMPDEST PUSH2 0x2B1 JUMPI PUSH1 0x40 MLOAD PUSH32 0x8C379A000000000000000000000000000000000000000000000000000000000 DUP2 MSTORE PUSH1 0x4 ADD PUSH2 0x2A8 SWAP1 PUSH2 0x2DF2 JUMP JUMPDEST PUSH1 0x40 MLOAD DUP1 SWAP2 SUB SWAP1 REVERT JUMPDEST DUP5 PUSH1 0xFF AND DUP5 DUP5 SWAP1 POP EQ PUSH2 0x2F9 JUMPI PUSH1 0x40 MLOAD PUSH32 0x8C379A000000000000000000000000000000000000000000000000000000000 DUP2 MSTORE PUSH1 0x4 ADD PUSH2 0x2F0 SWAP1 PUSH2 0x2E5A JUMP JUMPDEST PUSH1 0x40 MLOAD DUP1 SWAP2 SUB SWAP1 REVERT JUMPDEST PUSH0 PUSH1 0x1 SLOAD SWAP1 POP PUSH1 0x1 PUSH0 DUP2 SLOAD DUP1 SWAP3 SWAP2 SWAP1 PUSH2 0x311 SWAP1 PUSH2 0x2EA5 JUMP JUMPDEST SWAP2 SWAP1 POP SSTORE POP PUSH0 PUSH20 0xFFFFFFFFFFFFFFFFFFFFFFFFFFFFFFFFFFFFFFFF AND PUSH1 0x2 PUSH0 DUP4 DUP2 MSTORE PUSH1 0x20 ADD SWAP1 DUP2 MSTORE PUSH1 0x20 ADD PUSH0 KECCAK256 PUSH1 0x8 ADD PUSH0 SWAP1 SLOAD SWAP1 PUSH2 0x100 EXP SWAP1 DIV PUSH20 0xFFFFFFFFFFFFFFFFFFFFFFFFFFFFFFFFFFFFFFFF AND PUSH20 0xFFFFFFFFFFFFFFFFFFFFFFFFFFFFFFFFFFFFFFFF AND EQ PUSH2 0x3B7 JUMPI PUSH1 0x40 MLOAD PUSH32 0x8C379A000000000000000000000000000000000000000000000000000000000 DUP2 MSTORE PUSH1 0x4 ADD PUSH2 0x3AE SWAP1 PUSH2 0x2F5C JUMP JUMPDEST PUSH1 0x40 MLOAD DUP1 SWAP2 SUB SWAP1 REVERT JUMPDEST PUSH0 PUSH1 0x2 PUSH0 DUP4 DUP2 MSTORE PUSH1 0x20 ADD SWAP1 DUP2 MSTORE PUSH1 0x20 ADD PUSH0 KECCAK256 SWAP1 POP DUP2 DUP2 PUSH0 ADD DUP2 SWAP1 SSTORE POP DUP9 DUP9 DUP3 PUSH1 0x1 ADD SWAP2 DUP3 PUSH2 0x3E6 SWAP3 SWAP2 SWAP1 PUSH2 0x31AB JUMP JUMPDEST POP DUP4 DUP2 PUSH1 0x4 ADD DUP2 SWAP1 SSTORE POP CALLER DUP2 PUSH1 0x8 ADD PUSH0 PUSH2 0x100 EXP DUP2 SLOAD DUP2 PUSH20 0xFFFFFFFFFFFFFFFFFFFFFFFFFFFFFFFFFFFFFFFF MUL NOT AND SWAP1 DUP4 PUSH20 0xFFFFFFFFFFFFFFFFFFFFFFFFFFFFFFFFFFFFFFFF AND MUL OR SWAP1 SSTORE POP DUP3 DUP2 PUSH1 0x5 ADD PUSH0 PUSH2 0x100 EXP DUP2 SLOAD DUP2 PUSH20 0xFFFFFFFFFFFFFFFFFFFFFFFFFFFFFFFFFFFFFFFF MUL NOT AND SWAP1 DUP4 PUSH20 0xFFFFFFFFFFFFFFFFFFFFFFFFFFFFFFFFFFFFFFFF AND MUL OR SWAP1 SSTORE POP DUP7 PUSH1 0xFF AND PUSH8 0xFFFFFFFFFFFFFFFF DUP2 GT ISZERO PUSH2 0x491 JUMPI PUSH2 0x490 PUSH2 0x2F84 JUMP JUMPDEST JUMPDEST PUSH1 0x40 MLOAD SWAP1 DUP1 DUP3 MSTORE DUP1 PUSH1 0x20 MUL PUSH1 0x20 ADD DUP3 ADD PUSH1 0x40 MSTORE DUP1 ISZERO PUSH2 0x4BF JUMPI DUP2 PUSH1 0x20 ADD PUSH1 0x20 DUP3 MUL DUP1 CALLDATASIZE DUP4 CALLDATACOPY DUP1 DUP3 ADD SWAP2 POP POP SWAP1 POP JUMPDEST POP DUP2 PUSH1 0x3 ADD SWAP1 DUP1 MLOAD SWAP1 PUSH1 0x20 ADD SWAP1 PUSH2 0x4D7 SWAP3 SWAP2 SWAP1 PUSH2 0x2397 JUMP JUMPDEST POP PUSH0 JUMPDEST DUP8 PUSH1 0xFF AND DUP2 PUSH1 0xFF AND LT ISZERO PUSH2 0x558 JUMPI DUP2 PUSH1 0x2 ADD DUP8 DUP8 DUP4 PUSH1 0xFF AND DUP2 DUP2 LT PUSH2 0x502 JUMPI PUSH2 0x501 PUSH2 0x3278 JUMP JUMPDEST JUMPDEST SWAP1 POP PUSH1 0x20 MUL DUP2 ADD SWAP1 PUSH2 0x514 SWAP2 SWAP1 PUSH2 0x32B1 JUMP JUMPDEST SWAP1 SWAP2 DUP1 PUSH1 0x1 DUP2 SLOAD ADD DUP1 DUP3 SSTORE DUP1 SWAP2 POP POP PUSH1 0x1 SWAP1 SUB SWAP1 PUSH0 MSTORE PUSH1 0x20 PUSH0 KECCAK256 ADD PUSH0 SWAP1 SWAP2 SWAP3 SWAP1 SWAP2 SWAP3 SWAP1 SWAP2 SWAP3 SWAP1 SWAP2 SWAP3 POP SWAP2 DUP3 PUSH2 0x54A SWAP3 SWAP2 SWAP1 PUSH2 0x31AB JUMP JUMPDEST POP DUP1 DUP1 PUSH1 0x1 ADD SWAP2 POP POP PUSH2 0x4DA JUMP JUMPDEST POP DUP2 PUSH32 0x718BC754BFB694AA9753415D4CD8D5B5DC3946B046B68B3455507D5142A07A19 CALLER DUP12 DUP12 DUP11 DUP11 DUP11 DUP11 PUSH1 0x40 MLOAD PUSH2 0x595 SWAP8 SWAP7 SWAP6 SWAP5 SWAP4 SWAP3 SWAP2 SWAP1 PUSH2 0x3485 JUMP JUMPDEST PUSH1 0x40 MLOAD DUP1 SWAP2 SUB SWAP1 LOG2 POP POP POP POP POP POP POP POP POP JUMP JUMPDEST DUP1 PUSH1 0x2 PUSH0 DUP3 DUP2 MSTORE PUSH1 0x20 ADD SWAP1 DUP2 MSTORE PUSH1 0x20 ADD PUSH0 KECCAK256 PUSH1 0x8 ADD PUSH0 SWAP1 SLOAD SWAP1 PUSH2 0x100 EXP SWAP1 DIV PUSH20 0xFFFFFFFFFFFFFFFFFFFFFFFFFFFFFFFFFFFFFFFF AND PUSH20 0xFFFFFFFFFFFFFFFFFFFFFFFFFFFFFFFFFFFFFFFF AND CALLER PUSH20 0xFFFFFFFFFFFFFFFFFFFFFFFFFFFFFFFFFFFFFFFF AND EQ PUSH2 0x64A JUMPI PUSH1 0x40 MLOAD PUSH32 0x8C379A000000000000000000000000000000000000000000000000000000000 DUP2 MSTORE PUSH1 0x4 ADD PUSH2 0x641 SWAP1 PUSH2 0x3532 JUMP JUMPDEST PUSH1 0x40 MLOAD DUP1 SWAP2 SUB SWAP1 REVERT JUMPDEST PUSH0 PUSH1 0x2 PUSH0 DUP5 DUP2 MSTORE PUSH1 0x20 ADD SWAP1 DUP2 MSTORE PUSH1 0x20 ADD PUSH0 KECCAK256 SWAP1 POP DUP1 PUSH1 0x8 ADD PUSH1 0x15 SWAP1 SLOAD SWAP1 PUSH2 0x100 EXP SWAP1 DIV PUSH1 0xFF AND ISZERO PUSH2 0x6B0 JUMPI PUSH1 0x40 MLOAD PUSH32 0x8C379A000000000000000000000000000000000000000000000000000000000 DUP2 MSTORE PUSH1 0x4 ADD PUSH2 0x6A7 SWAP1 PUSH2 0x359A JUMP JUMPDEST PUSH1 0x40 MLOAD DUP1 SWAP2 SUB SWAP1 REVERT JUMPDEST PUSH1 0x1 DUP2 PUSH1 0x8 ADD PUSH1 0x17 PUSH2 0x100 EXP DUP2 SLOAD DUP2 PUSH1 0xFF MUL NOT AND SWAP1 DUP4 ISZERO ISZERO MUL OR SWAP1 SSTORE POP PUSH0 DUP2 PUSH1 0x5 ADD PUSH0 SWAP1 SLOAD SWAP1 PUSH2 0x100 EXP SWAP1 DIV PUSH20 0xFFFFFFFFFFFFFFFFFFFFFFFFFFFFFFFFFFFFFFFF AND SWAP1 POP PUSH0 DUP1 JUMPDEST DUP4 PUSH1 0x3 ADD DUP1 SLOAD SWAP1 POP DUP2 PUSH1 0xFF AND LT ISZERO PUSH2 0x74B JUMPI DUP4 PUSH1 0x3 ADD DUP2 PUSH1 0xFF AND DUP2 SLOAD DUP2 LT PUSH2 0x722 JUMPI PUSH2 0x721 PUSH2 0x3278 JUMP JUMPDEST JUMPDEST SWAP1 PUSH0 MSTORE PUSH1 0x20 PUSH0 KECCAK256 ADD SLOAD DUP3 PUSH2 0x736 SWAP2 SWAP1 PUSH2 0x35B8 JUMP JUMPDEST SWAP2 POP DUP1 DUP1 PUSH2 0x743 SWAP1 PUSH2 0x35EB JUMP JUMPDEST SWAP2 POP POP PUSH2 0x6F7 JUMP JUMPDEST POP PUSH0 PUSH1 0x64 DUP3 PUSH2 0x75A SWAP2 SWAP1 PUSH2 0x3640 JUMP JUMPDEST SWAP1 POP PUSH0 DUP2 SWAP1 POP PUSH0 DUP2 DUP4 DUP6 PUSH2 0x76E SWAP2 SWAP1 PUSH2 0x3670 JUMP JUMPDEST PUSH2 0x778 SWAP2 SWAP1 PUSH2 0x3670 JUMP JUMPDEST SWAP1 POP DUP5 PUSH20 0xFFFFFFFFFFFFFFFFFFFFFFFFFFFFFFFFFFFFFFFF AND PUSH4 0xA9059CBB PUSH20 0x9B63FA365019DD7BDF8CBED2823480F808391970 DUP6 PUSH1 0x40 MLOAD DUP4 PUSH4 0xFFFFFFFF AND PUSH1 0xE0 SHL DUP2 MSTORE PUSH1 0x4 ADD PUSH2 0x7C9 SWAP3 SWAP2 SWAP1 PUSH2 0x36A3 JUMP JUMPDEST PUSH1 0x20 PUSH1 0x40 MLOAD DUP1 DUP4 SUB DUP2 PUSH0 DUP8 GAS CALL ISZERO DUP1 ISZERO PUSH2 0x7E5 JUMPI RETURNDATASIZE PUSH0 DUP1 RETURNDATACOPY RETURNDATASIZE PUSH0 REVERT JUMPDEST POP POP POP POP PUSH1 0x40 MLOAD RETURNDATASIZE PUSH1 0x1F NOT PUSH1 0x1F DUP3 ADD AND DUP3 ADD DUP1 PUSH1 0x40 MSTORE POP DUP2 ADD SWAP1 PUSH2 0x809 SWAP2 SWAP1 PUSH2 0x36F4 JUMP JUMPDEST PUSH2 0x848 JUMPI PUSH1 0x40 MLOAD PUSH32 0x8C379A000000000000000000000000000000000000000000000000000000000 DUP2 MSTORE PUSH1 0x4 ADD PUSH2 0x83F SWAP1 PUSH2 0x3769 JUMP JUMPDEST PUSH1 0x40 MLOAD DUP1 SWAP2 SUB SWAP1 REVERT JUMPDEST DUP5 PUSH20 0xFFFFFFFFFFFFFFFFFFFFFFFFFFFFFFFFFFFFFFFF AND PUSH4 0xA9059CBB DUP8 PUSH1 0x8 ADD PUSH0 SWAP1 SLOAD SWAP1 PUSH2 0x100 EXP SWAP1 DIV PUSH20 0xFFFFFFFFFFFFFFFFFFFFFFFFFFFFFFFFFFFFFFFF AND DUP5 PUSH1 0x40 MLOAD DUP4 PUSH4 0xFFFFFFFF AND PUSH1 0xE0 SHL DUP2 MSTORE PUSH1 0x4 ADD PUSH2 0x8A6 SWAP3 SWAP2 SWAP1 PUSH2 0x36A3 JUMP JUMPDEST PUSH1 0x20 PUSH1 0x40 MLOAD DUP1 DUP4 SUB DUP2 PUSH0 DUP8 GAS CALL ISZERO DUP1 ISZERO PUSH2 0x8C2 JUMPI RETURNDATASIZE PUSH0 DUP1 RETURNDATACOPY RETURNDATASIZE PUSH0 REVERT JUMPDEST POP POP POP POP PUSH1 0x40 MLOAD RETURNDATASIZE PUSH1 0x1F NOT PUSH1 0x1F DUP3 ADD AND DUP3 ADD DUP1 PUSH1 0x40 MSTORE POP DUP2 ADD SWAP1 PUSH2 0x8E6 SWAP2 SWAP1 PUSH2 0x36F4 JUMP JUMPDEST PUSH2 0x925 JUMPI PUSH1 0x40 MLOAD PUSH32 0x8C379A000000000000000000000000000000000000000000000000000000000 DUP2 MSTORE PUSH1 0x4 ADD PUSH2 0x91C SWAP1 PUSH2 0x37D1 JUMP JUMPDEST PUSH1 0x40 MLOAD DUP1 SWAP2 SUB SWAP1 REVERT JUMPDEST PUSH0 JUMPDEST DUP7 PUSH1 0x7 ADD DUP1 SLOAD SWAP1 POP DUP2 LT ISZERO PUSH2 0xAEC JUMPI PUSH0 DUP8 PUSH1 0x7 ADD DUP3 DUP2 SLOAD DUP2 LT PUSH2 0x94D JUMPI PUSH2 0x94C PUSH2 0x3278 JUMP JUMPDEST JUMPDEST SWAP1 PUSH0 MSTORE PUSH1 0x20 PUSH0 KECCAK256 ADD PUSH0 SWAP1 SLOAD SWAP1 PUSH2 0x100 EXP SWAP1 DIV PUSH20 0xFFFFFFFFFFFFFFFFFFFFFFFFFFFFFFFFFFFFFFFF AND SWAP1 POP PUSH0 DUP9 PUSH1 0x6 ADD PUSH0 DUP4 PUSH20 0xFFFFFFFFFFFFFFFFFFFFFFFFFFFFFFFFFFFFFFFF AND PUSH20 0xFFFFFFFFFFFFFFFFFFFFFFFFFFFFFFFFFFFFFFFF AND DUP2 MSTORE PUSH1 0x20 ADD SWAP1 DUP2 MSTORE PUSH1 0x20 ADD PUSH0 KECCAK256 SWAP1 POP PUSH0 JUMPDEST DUP2 DUP1 SLOAD SWAP1 POP DUP2 PUSH1 0xFF AND LT ISZERO PUSH2 0xADC JUMPI PUSH0 DUP3 DUP3 PUSH1 0xFF AND DUP2 SLOAD DUP2 LT PUSH2 0x9E1 JUMPI PUSH2 0x9E0 PUSH2 0x3278 JUMP JUMPDEST JUMPDEST SWAP1 PUSH0 MSTORE PUSH1 0x20 PUSH0 KECCAK256 SWAP1 PUSH1 0x2 MUL ADD PUSH1 0x1 ADD SLOAD SWAP1 POP PUSH0 DUP10 DUP8 DUP4 PUSH2 0xA01 SWAP2 SWAP1 PUSH2 0x37EF JUMP JUMPDEST PUSH2 0xA0B SWAP2 SWAP1 PUSH2 0x3640 JUMP JUMPDEST SWAP1 POP DUP11 PUSH20 0xFFFFFFFFFFFFFFFFFFFFFFFFFFFFFFFFFFFFFFFF AND PUSH4 0xA9059CBB DUP7 DUP4 PUSH1 0x40 MLOAD DUP4 PUSH4 0xFFFFFFFF AND PUSH1 0xE0 SHL DUP2 MSTORE PUSH1 0x4 ADD PUSH2 0xA48 SWAP3 SWAP2 SWAP1 PUSH2 0x36A3 JUMP JUMPDEST PUSH1 0x20 PUSH1 0x40 MLOAD DUP1 DUP4 SUB DUP2 PUSH0 DUP8 GAS CALL ISZERO DUP1 ISZERO PUSH2 0xA64 JUMPI RETURNDATASIZE PUSH0 DUP1 RETURNDATACOPY RETURNDATASIZE PUSH0 REVERT JUMPDEST POP POP POP POP PUSH1 0x40 MLOAD RETURNDATASIZE PUSH1 0x1F NOT PUSH1 0x1F DUP3 ADD AND DUP3 ADD DUP1 PUSH1 0x40 MSTORE POP DUP2 ADD SWAP1 PUSH2 0xA88 SWAP2 SWAP1 PUSH2 0x36F4 JUMP JUMPDEST PUSH2 0xAC7 JUMPI PUSH1 0x40 MLOAD PUSH32 0x8C379A000000000000000000000000000000000000000000000000000000000 DUP2 MSTORE PUSH1 0x4 ADD PUSH2 0xABE SWAP1 PUSH2 0x387A JUMP JUMPDEST PUSH1 0x40 MLOAD DUP1 SWAP2 SUB SWAP1 REVERT JUMPDEST POP POP DUP1 DUP1 PUSH2 0xAD4 SWAP1 PUSH2 0x35EB JUMP JUMPDEST SWAP2 POP POP PUSH2 0x9BB JUMP JUMPDEST POP POP POP DUP1 DUP1 PUSH1 0x1 ADD SWAP2 POP POP PUSH2 0x927 JUMP JUMPDEST POP DUP8 PUSH32 0xE3906E8D1E2167EF706B023E6E83AF697DB5CD38F233C71BF5021B26B316C3A2 PUSH1 0x40 MLOAD PUSH1 0x40 MLOAD DUP1 SWAP2 SUB SWAP1 LOG2 POP POP POP POP POP POP POP POP JUMP JUMPDEST PUSH0 PUSH1 0x60 DUP1 PUSH0 DUP1 PUSH0 PUSH1 0x60 PUSH0 DUP1 PUSH0 DUP1 PUSH1 0x2 PUSH0 DUP14 DUP2 MSTORE PUSH1 0x20 ADD SWAP1 DUP2 MSTORE PUSH1 0x20 ADD PUSH0 KECCAK256 SWAP1 POP DUP1 PUSH1 0x8 ADD PUSH0 SWAP1 SLOAD SWAP1 PUSH2 0x100 EXP SWAP1 DIV PUSH20 0xFFFFFFFFFFFFFFFFFFFFFFFFFFFFFFFFFFFFFFFF AND SWAP11 POP DUP1 PUSH1 0x1 ADD DUP1 SLOAD PUSH2 0xB79 SWAP1 PUSH2 0x2FDE JUMP JUMPDEST DUP1 PUSH1 0x1F ADD PUSH1 0x20 DUP1 SWAP2 DIV MUL PUSH1 0x20 ADD PUSH1 0x40 MLOAD SWAP1 DUP2 ADD PUSH1 0x40 MSTORE DUP1 SWAP3 SWAP2 SWAP1 DUP2 DUP2 MSTORE PUSH1 0x20 ADD DUP3 DUP1 SLOAD PUSH2 0xBA5 SWAP1 PUSH2 0x2FDE JUMP JUMPDEST DUP1 ISZERO PUSH2 0xBF0 JUMPI DUP1 PUSH1 0x1F LT PUSH2 0xBC7 JUMPI PUSH2 0x100 DUP1 DUP4 SLOAD DIV MUL DUP4 MSTORE SWAP2 PUSH1 0x20 ADD SWAP2 PUSH2 0xBF0 JUMP JUMPDEST DUP3 ADD SWAP2 SWAP1 PUSH0 MSTORE PUSH1 0x20 PUSH0 KECCAK256 SWAP1 JUMPDEST DUP2 SLOAD DUP2 MSTORE SWAP1 PUSH1 0x1 ADD SWAP1 PUSH1 0x20 ADD DUP1 DUP4 GT PUSH2 0xBD3 JUMPI DUP3 SWAP1 SUB PUSH1 0x1F AND DUP3 ADD SWAP2 JUMPDEST POP POP POP POP POP SWAP10 POP DUP1 PUSH1 0x2 ADD DUP1 SLOAD DUP1 PUSH1 0x20 MUL PUSH1 0x20 ADD PUSH1 0x40 MLOAD SWAP1 DUP2 ADD PUSH1 0x40 MSTORE DUP1 SWAP3 SWAP2 SWAP1 DUP2 DUP2 MSTORE PUSH1 0x20 ADD PUSH0 SWAP1 JUMPDEST DUP3 DUP3 LT ISZERO PUSH2 0xCC2 JUMPI DUP4 DUP3 SWAP1 PUSH0 MSTORE PUSH1 0x20 PUSH0 KECCAK256 ADD DUP1 SLOAD PUSH2 0xC37 SWAP1 PUSH2 0x2FDE JUMP JUMPDEST DUP1 PUSH1 0x1F ADD PUSH1 0x20 DUP1 SWAP2 DIV MUL PUSH1 0x20 ADD PUSH1 0x40 MLOAD SWAP1 DUP2 ADD PUSH1 0x40 MSTORE DUP1 SWAP3 SWAP2 SWAP1 DUP2 DUP2 MSTORE PUSH1 0x20 ADD DUP3 DUP1 SLOAD PUSH2 0xC63 SWAP1 PUSH2 0x2FDE JUMP JUMPDEST DUP1 ISZERO PUSH2 0xCAE JUMPI DUP1 PUSH1 0x1F LT PUSH2 0xC85 JUMPI PUSH2 0x100 DUP1 DUP4 SLOAD DIV MUL DUP4 MSTORE SWAP2 PUSH1 0x20 ADD SWAP2 PUSH2 0xCAE JUMP JUMPDEST DUP3 ADD SWAP2 SWAP1 PUSH0 MSTORE PUSH1 0x20 PUSH0 KECCAK256 SWAP1 JUMPDEST DUP2 SLOAD DUP2 MSTORE SWAP1 PUSH1 0x1 ADD SWAP1 PUSH1 0x20 ADD DUP1 DUP4 GT PUSH2 0xC91 JUMPI DUP3 SWAP1 SUB PUSH1 0x1F AND DUP3 ADD SWAP2 JUMPDEST POP POP POP POP POP DUP2 MSTORE PUSH1 0x20 ADD SWAP1 PUSH1 0x1 ADD SWAP1 PUSH2 0xC1A JUMP JUMPDEST POP POP POP POP SWAP9 POP DUP1 PUSH1 0x8 ADD PUSH1 0x14 SWAP1 SLOAD SWAP1 PUSH2 0x100 EXP SWAP1 DIV PUSH1 0xFF AND SWAP8 POP DUP1 PUSH1 0x8 ADD PUSH1 0x15 SWAP1 SLOAD SWAP1 PUSH2 0x100 EXP SWAP1 DIV PUSH1 0xFF AND SWAP7 POP DUP1 PUSH1 0x3 ADD DUP1 SLOAD SWAP1 POP PUSH8 0xFFFFFFFFFFFFFFFF DUP2 GT ISZERO PUSH2 0xD11 JUMPI PUSH2 0xD10 PUSH2 0x2F84 JUMP JUMPDEST JUMPDEST PUSH1 0x40 MLOAD SWAP1 DUP1 DUP3 MSTORE DUP1 PUSH1 0x20 MUL PUSH1 0x20 ADD DUP3 ADD PUSH1 0x40 MSTORE DUP1 ISZERO PUSH2 0xD3F JUMPI DUP2 PUSH1 0x20 ADD PUSH1 0x20 DUP3 MUL DUP1 CALLDATASIZE DUP4 CALLDATACOPY DUP1 DUP3 ADD SWAP2 POP POP SWAP1 POP JUMPDEST POP SWAP5 POP PUSH0 SWAP6 POP PUSH0 JUMPDEST DUP2 PUSH1 0x3 ADD DUP1 SLOAD SWAP1 POP DUP2 PUSH1 0xFF AND LT ISZERO PUSH2 0xDDF JUMPI DUP2 PUSH1 0x3 ADD DUP2 PUSH1 0xFF AND DUP2 SLOAD DUP2 LT PUSH2 0xD72 JUMPI PUSH2 0xD71 PUSH2 0x3278 JUMP JUMPDEST JUMPDEST SWAP1 PUSH0 MSTORE PUSH1 0x20 PUSH0 KECCAK256 ADD SLOAD DUP7 DUP3 PUSH1 0xFF AND DUP2 MLOAD DUP2 LT PUSH2 0xD91 JUMPI PUSH2 0xD90 PUSH2 0x3278 JUMP JUMPDEST JUMPDEST PUSH1 0x20 MUL PUSH1 0x20 ADD ADD DUP2 DUP2 MSTORE POP POP DUP2 PUSH1 0x3 ADD DUP2 PUSH1 0xFF AND DUP2 SLOAD DUP2 LT PUSH2 0xDB6 JUMPI PUSH2 0xDB5 PUSH2 0x3278 JUMP JUMPDEST JUMPDEST SWAP1 PUSH0 MSTORE PUSH1 0x20 PUSH0 KECCAK256 ADD SLOAD DUP8 PUSH2 0xDCA SWAP2 SWAP1 PUSH2 0x35B8 JUMP JUMPDEST SWAP7 POP DUP1 DUP1 PUSH2 0xDD7 SWAP1 PUSH2 0x35EB JUMP JUMPDEST SWAP2 POP POP PUSH2 0xD47 JUMP JUMPDEST POP DUP1 PUSH1 0x5 ADD PUSH0 SWAP1 SLOAD SWAP1 PUSH2 0x100 EXP SWAP1 DIV PUSH20 0xFFFFFFFFFFFFFFFFFFFFFFFFFFFFFFFFFFFFFFFF AND SWAP4 POP DUP1 PUSH1 0x8 ADD PUSH1 0x15 SWAP1 SLOAD SWAP1 PUSH2 0x100 EXP SWAP1 DIV PUSH1 0xFF AND PUSH2 0xE22 JUMPI PUSH0 PUSH2 0xE35 JUMP JUMPDEST DUP1 PUSH1 0x8 ADD PUSH1 0x16 SWAP1 SLOAD SWAP1 PUSH2 0x100 EXP SWAP1 DIV PUSH1 0xFF AND JUMPDEST SWAP3 POP POP SWAP2 SWAP4 SWAP6 SWAP8 SWAP10 POP SWAP2 SWAP4 SWAP6 SWAP8 SWAP10 JUMP JUMPDEST PUSH0 DUP1 SLOAD SWAP1 PUSH2 0x100 EXP SWAP1 DIV PUSH20 0xFFFFFFFFFFFFFFFFFFFFFFFFFFFFFFFFFFFFFFFF AND DUP2 JUMP JUMPDEST PUSH0 PUSH1 0x2 PUSH0 DUP6 DUP2 MSTORE PUSH1 0x20 ADD SWAP1 DUP2 MSTORE PUSH1 0x20 ADD PUSH0 KECCAK256 SWAP1 POP DUP1 PUSH1 0x8 ADD PUSH1 0x14 SWAP1 SLOAD SWAP1 PUSH2 0x100 EXP SWAP1 DIV PUSH1 0xFF AND PUSH2 0xECD JUMPI PUSH1 0x40 MLOAD PUSH32 0x8C379A000000000000000000000000000000000000000000000000000000000 DUP2 MSTORE PUSH1 0x4 ADD PUSH2 0xEC4 SWAP1 PUSH2 0x38E2 JUMP JUMPDEST PUSH1 0x40 MLOAD DUP1 SWAP2 SUB SWAP1 REVERT JUMPDEST DUP1 PUSH1 0x4 ADD SLOAD DUP4 LT ISZERO PUSH2 0xF14 JUMPI PUSH1 0x40 MLOAD PUSH32 0x8C379A000000000000000000000000000000000000000000000000000000000 DUP2 MSTORE PUSH1 0x4 ADD PUSH2 0xF0B SWAP1 PUSH2 0x394A JUMP JUMPDEST PUSH1 0x40 MLOAD DUP1 SWAP2 SUB SWAP1 REVERT JUMPDEST PUSH1 0x1 DUP3 PUSH1 0xFF AND LT ISZERO DUP1 ISZERO PUSH2 0xF32 JUMPI POP DUP1 PUSH1 0x2 ADD DUP1 SLOAD SWAP1 POP DUP3 PUSH1 0xFF AND GT ISZERO JUMPDEST PUSH2 0xF71 JUMPI PUSH1 0x40 MLOAD PUSH32 0x8C379A000000000000000000000000000000000000000000000000000000000 DUP2 MSTORE PUSH1 0x4 ADD PUSH2 0xF68 SWAP1 PUSH2 0x39B2 JUMP JUMPDEST PUSH1 0x40 MLOAD DUP1 SWAP2 SUB SWAP1 REVERT JUMPDEST PUSH0 DUP2 PUSH1 0x5 ADD PUSH0 SWAP1 SLOAD SWAP1 PUSH2 0x100 EXP SWAP1 DIV PUSH20 0xFFFFFFFFFFFFFFFFFFFFFFFFFFFFFFFFFFFFFFFF AND SWAP1 POP DUP1 PUSH20 0xFFFFFFFFFFFFFFFFFFFFFFFFFFFFFFFFFFFFFFFF AND PUSH4 0x23B872DD CALLER ADDRESS DUP8 PUSH1 0x40 MLOAD DUP5 PUSH4 0xFFFFFFFF AND PUSH1 0xE0 SHL DUP2 MSTORE PUSH1 0x4 ADD PUSH2 0xFD5 SWAP4 SWAP3 SWAP2 SWAP1 PUSH2 0x39D0 JUMP JUMPDEST PUSH1 0x20 PUSH1 0x40 MLOAD DUP1 DUP4 SUB DUP2 PUSH0 DUP8 GAS CALL ISZERO DUP1 ISZERO PUSH2 0xFF1 JUMPI RETURNDATASIZE PUSH0 DUP1 RETURNDATACOPY RETURNDATASIZE PUSH0 REVERT JUMPDEST POP POP POP POP PUSH1 0x40 MLOAD RETURNDATASIZE PUSH1 0x1F NOT PUSH1 0x1F DUP3 ADD AND DUP3 ADD DUP1 PUSH1 0x40 MSTORE POP DUP2 ADD SWAP1 PUSH2 0x1015 SWAP2 SWAP1 PUSH2 0x36F4 JUMP JUMPDEST PUSH2 0x1054 JUMPI PUSH1 0x40 MLOAD PUSH32 0x8C379A000000000000000000000000000000000000000000000000000000000 DUP2 MSTORE PUSH1 0x4 ADD PUSH2 0x104B SWAP1 PUSH2 0x3A4F JUMP JUMPDEST PUSH1 0x40 MLOAD DUP1 SWAP2 SUB SWAP1 REVERT JUMPDEST DUP4 DUP3 PUSH1 0x3 ADD PUSH1 0x1 DUP6 PUSH2 0x1066 SWAP2 SWAP1 PUSH2 0x3A6D JUMP JUMPDEST PUSH1 0xFF AND DUP2 SLOAD DUP2 LT PUSH2 0x107A JUMPI PUSH2 0x1079 PUSH2 0x3278 JUMP JUMPDEST JUMPDEST SWAP1 PUSH0 MSTORE PUSH1 0x20 PUSH0 KECCAK256 ADD PUSH0 DUP3 DUP3 SLOAD PUSH2 0x1090 SWAP2 SWAP1 PUSH2 0x35B8 JUMP JUMPDEST SWAP3 POP POP DUP2 SWAP1 SSTORE POP DUP2 PUSH1 0x6 ADD PUSH0 CALLER PUSH20 0xFFFFFFFFFFFFFFFFFFFFFFFFFFFFFFFFFFFFFFFF AND PUSH20 0xFFFFFFFFFFFFFFFFFFFFFFFFFFFFFFFFFFFFFFFF AND DUP2 MSTORE PUSH1 0x20 ADD SWAP1 DUP2 MSTORE PUSH1 0x20 ADD PUSH0 KECCAK256 PUSH1 0x40 MLOAD DUP1 PUSH1 0x40 ADD PUSH1 0x40 MSTORE DUP1 CALLER PUSH20 0xFFFFFFFFFFFFFFFFFFFFFFFFFFFFFFFFFFFFFFFF AND DUP2 MSTORE PUSH1 0x20 ADD DUP7 DUP2 MSTORE POP SWAP1 DUP1 PUSH1 0x1 DUP2 SLOAD ADD DUP1 DUP3 SSTORE DUP1 SWAP2 POP POP PUSH1 0x1 SWAP1 SUB SWAP1 PUSH0 MSTORE PUSH1 0x20 PUSH0 KECCAK256 SWAP1 PUSH1 0x2 MUL ADD PUSH0 SWAP1 SWAP2 SWAP1 SWAP2 SWAP1 SWAP2 POP PUSH0 DUP3 ADD MLOAD DUP2 PUSH0 ADD PUSH0 PUSH2 0x100 EXP DUP2 SLOAD DUP2 PUSH20 0xFFFFFFFFFFFFFFFFFFFFFFFFFFFFFFFFFFFFFFFF MUL NOT AND SWAP1 DUP4 PUSH20 0xFFFFFFFFFFFFFFFFFFFFFFFFFFFFFFFFFFFFFFFF AND MUL OR SWAP1 SSTORE POP PUSH1 0x20 DUP3 ADD MLOAD DUP2 PUSH1 0x1 ADD SSTORE POP POP DUP2 PUSH1 0x7 ADD CALLER SWAP1 DUP1 PUSH1 0x1 DUP2 SLOAD ADD DUP1 DUP3 SSTORE DUP1 SWAP2 POP POP PUSH1 0x1 SWAP1 SUB SWAP1 PUSH0 MSTORE PUSH1 0x20 PUSH0 KECCAK256 ADD PUSH0 SWAP1 SWAP2 SWAP1 SWAP2 SWAP1 SWAP2 PUSH2 0x100 EXP DUP2 SLOAD DUP2 PUSH20 0xFFFFFFFFFFFFFFFFFFFFFFFFFFFFFFFFFFFFFFFF MUL NOT AND SWAP1 DUP4 PUSH20 0xFFFFFFFFFFFFFFFFFFFFFFFFFFFFFFFFFFFFFFFF AND MUL OR SWAP1 SSTORE POP CALLER PUSH20 0xFFFFFFFFFFFFFFFFFFFFFFFFFFFFFFFFFFFFFFFF AND DUP6 PUSH32 0xE90186097616CBEB30FFC786B44501E1362F5E0A316A96C5AB82A0551F9D2F05 DUP7 DUP7 PUSH1 0x40 MLOAD PUSH2 0x1222 SWAP3 SWAP2 SWAP1 PUSH2 0x3AA1 JUMP JUMPDEST PUSH1 0x40 MLOAD DUP1 SWAP2 SUB SWAP1 LOG3 POP POP POP POP POP JUMP JUMPDEST DUP1 PUSH1 0x2 PUSH0 DUP3 DUP2 MSTORE PUSH1 0x20 ADD SWAP1 DUP2 MSTORE PUSH1 0x20 ADD PUSH0 KECCAK256 PUSH1 0x8 ADD PUSH0 SWAP1 SLOAD SWAP1 PUSH2 0x100 EXP SWAP1 DIV PUSH20 0xFFFFFFFFFFFFFFFFFFFFFFFFFFFFFFFFFFFFFFFF AND PUSH20 0xFFFFFFFFFFFFFFFFFFFFFFFFFFFFFFFFFFFFFFFF AND CALLER PUSH20 0xFFFFFFFFFFFFFFFFFFFFFFFFFFFFFFFFFFFFFFFF AND EQ PUSH2 0x12D3 JUMPI PUSH1 0x40 MLOAD PUSH32 0x8C379A000000000000000000000000000000000000000000000000000000000 DUP2 MSTORE PUSH1 0x4 ADD PUSH2 0x12CA SWAP1 PUSH2 0x3532 JUMP JUMPDEST PUSH1 0x40 MLOAD DUP1 SWAP2 SUB SWAP1 REVERT JUMPDEST PUSH0 PUSH1 0x2 PUSH0 DUP5 DUP2 MSTORE PUSH1 0x20 ADD SWAP1 DUP2 MSTORE PUSH1 0x20 ADD PUSH0 KECCAK256 SWAP1 POP PUSH0 DUP2 PUSH1 0x8 ADD PUSH1 0x14 PUSH2 0x100 EXP DUP2 SLOAD DUP2 PUSH1 0xFF MUL NOT AND SWAP1 DUP4 ISZERO ISZERO MUL OR SWAP1 SSTORE POP DUP3 PUSH32 0xEB7ECC3AA4DD407C7207677A2CBF861441D5C5E6C0DC70AD9692A980385C20D6 PUSH1 0x40 MLOAD PUSH1 0x40 MLOAD DUP1 SWAP2 SUB SWAP1 LOG2 POP POP POP JUMP JUMPDEST PUSH1 0x60 DUP1 PUSH1 0x60 DUP1 PUSH1 0x60 PUSH0 DUP1 PUSH1 0x1 SWAP1 POP JUMPDEST PUSH1 0x1 SLOAD DUP2 LT ISZERO PUSH2 0x1396 JUMPI PUSH0 PUSH1 0x2 PUSH0 DUP4 DUP2 MSTORE PUSH1 0x20 ADD SWAP1 DUP2 MSTORE PUSH1 0x20 ADD PUSH0 KECCAK256 SWAP1 POP DUP1 PUSH1 0x8 ADD PUSH1 0x14 SWAP1 SLOAD SWAP1 PUSH2 0x100 EXP SWAP1 DIV PUSH1 0xFF AND ISZERO PUSH2 0x1388 JUMPI DUP3 DUP1 PUSH2 0x1384 SWAP1 PUSH2 0x2EA5 JUMP JUMPDEST SWAP4 POP POP JUMPDEST POP DUP1 DUP1 PUSH1 0x1 ADD SWAP2 POP POP PUSH2 0x1344 JUMP JUMPDEST POP DUP1 PUSH8 0xFFFFFFFFFFFFFFFF DUP2 GT ISZERO PUSH2 0x13B1 JUMPI PUSH2 0x13B0 PUSH2 0x2F84 JUMP JUMPDEST JUMPDEST PUSH1 0x40 MLOAD SWAP1 DUP1 DUP3 MSTORE DUP1 PUSH1 0x20 MUL PUSH1 0x20 ADD DUP3 ADD PUSH1 0x40 MSTORE DUP1 ISZERO PUSH2 0x13DF JUMPI DUP2 PUSH1 0x20 ADD PUSH1 0x20 DUP3 MUL DUP1 CALLDATASIZE DUP4 CALLDATACOPY DUP1 DUP3 ADD SWAP2 POP POP SWAP1 POP JUMPDEST POP SWAP6 POP DUP1 PUSH8 0xFFFFFFFFFFFFFFFF DUP2 GT ISZERO PUSH2 0x13FC JUMPI PUSH2 0x13FB PUSH2 0x2F84 JUMP JUMPDEST JUMPDEST PUSH1 0x40 MLOAD SWAP1 DUP1 DUP3 MSTORE DUP1 PUSH1 0x20 MUL PUSH1 0x20 ADD DUP3 ADD PUSH1 0x40 MSTORE DUP1 ISZERO PUSH2 0x142F JUMPI DUP2 PUSH1 0x20 ADD JUMPDEST PUSH1 0x60 DUP2 MSTORE PUSH1 0x20 ADD SWAP1 PUSH1 0x1 SWAP1 SUB SWAP1 DUP2 PUSH2 0x141A JUMPI SWAP1 POP JUMPDEST POP SWAP5 POP DUP1 PUSH8 0xFFFFFFFFFFFFFFFF DUP2 GT ISZERO PUSH2 0x144C JUMPI PUSH2 0x144B PUSH2 0x2F84 JUMP JUMPDEST JUMPDEST PUSH1 0x40 MLOAD SWAP1 DUP1 DUP3 MSTORE DUP1 PUSH1 0x20 MUL PUSH1 0x20 ADD DUP3 ADD PUSH1 0x40 MSTORE DUP1 ISZERO PUSH2 0x147F JUMPI DUP2 PUSH1 0x20 ADD JUMPDEST PUSH1 0x60 DUP2 MSTORE PUSH1 0x20 ADD SWAP1 PUSH1 0x1 SWAP1 SUB SWAP1 DUP2 PUSH2 0x146A JUMPI SWAP1 POP JUMPDEST POP SWAP4 POP DUP1 PUSH8 0xFFFFFFFFFFFFFFFF DUP2 GT ISZERO PUSH2 0x149C JUMPI PUSH2 0x149B PUSH2 0x2F84 JUMP JUMPDEST JUMPDEST PUSH1 0x40 MLOAD SWAP1 DUP1 DUP3 MSTORE DUP1 PUSH1 0x20 MUL PUSH1 0x20 ADD DUP3 ADD PUSH1 0x40 MSTORE DUP1 ISZERO PUSH2 0x14CA JUMPI DUP2 PUSH1 0x20 ADD PUSH1 0x20 DUP3 MUL DUP1 CALLDATASIZE DUP4 CALLDATACOPY DUP1 DUP3 ADD SWAP2 POP POP SWAP1 POP JUMPDEST POP SWAP3 POP DUP1 PUSH8 0xFFFFFFFFFFFFFFFF DUP2 GT ISZERO PUSH2 0x14E7 JUMPI PUSH2 0x14E6 PUSH2 0x2F84 JUMP JUMPDEST JUMPDEST PUSH1 0x40 MLOAD SWAP1 DUP1 DUP3 MSTORE DUP1 PUSH1 0x20 MUL PUSH1 0x20 ADD DUP3 ADD PUSH1 0x40 MSTORE DUP1 ISZERO PUSH2 0x1515 JUMPI DUP2 PUSH1 0x20 ADD PUSH1 0x20 DUP3 MUL DUP1 CALLDATASIZE DUP4 CALLDATACOPY DUP1 DUP3 ADD SWAP2 POP POP SWAP1 POP JUMPDEST POP SWAP2 POP PUSH0 DUP1 PUSH1 0x1 SWAP1 POP JUMPDEST PUSH1 0x1 SLOAD DUP2 LT ISZERO PUSH2 0x17BF JUMPI PUSH0 PUSH1 0x2 PUSH0 DUP4 DUP2 MSTORE PUSH1 0x20 ADD SWAP1 DUP2 MSTORE PUSH1 0x20 ADD PUSH0 KECCAK256 SWAP1 POP DUP1 PUSH1 0x8 ADD PUSH1 0x14 SWAP1 SLOAD SWAP1 PUSH2 0x100 EXP SWAP1 DIV PUSH1 0xFF AND ISZERO PUSH2 0x17B1 JUMPI DUP1 PUSH0 ADD SLOAD DUP10 DUP5 DUP2 MLOAD DUP2 LT PUSH2 0x156B JUMPI PUSH2 0x156A PUSH2 0x3278 JUMP JUMPDEST JUMPDEST PUSH1 0x20 MUL PUSH1 0x20 ADD ADD DUP2 DUP2 MSTORE POP POP DUP1 PUSH1 0x1 ADD DUP1 SLOAD PUSH2 0x1586 SWAP1 PUSH2 0x2FDE JUMP JUMPDEST DUP1 PUSH1 0x1F ADD PUSH1 0x20 DUP1 SWAP2 DIV MUL PUSH1 0x20 ADD PUSH1 0x40 MLOAD SWAP1 DUP2 ADD PUSH1 0x40 MSTORE DUP1 SWAP3 SWAP2 SWAP1 DUP2 DUP2 MSTORE PUSH1 0x20 ADD DUP3 DUP1 SLOAD PUSH2 0x15B2 SWAP1 PUSH2 0x2FDE JUMP JUMPDEST DUP1 ISZERO PUSH2 0x15FD JUMPI DUP1 PUSH1 0x1F LT PUSH2 0x15D4 JUMPI PUSH2 0x100 DUP1 DUP4 SLOAD DIV MUL DUP4 MSTORE SWAP2 PUSH1 0x20 ADD SWAP2 PUSH2 0x15FD JUMP JUMPDEST DUP3 ADD SWAP2 SWAP1 PUSH0 MSTORE PUSH1 0x20 PUSH0 KECCAK256 SWAP1 JUMPDEST DUP2 SLOAD DUP2 MSTORE SWAP1 PUSH1 0x1 ADD SWAP1 PUSH1 0x20 ADD DUP1 DUP4 GT PUSH2 0x15E0 JUMPI DUP3 SWAP1 SUB PUSH1 0x1F AND DUP3 ADD SWAP2 JUMPDEST POP POP POP POP POP DUP9 DUP5 DUP2 MLOAD DUP2 LT PUSH2 0x1615 JUMPI PUSH2 0x1614 PUSH2 0x3278 JUMP JUMPDEST JUMPDEST PUSH1 0x20 MUL PUSH1 0x20 ADD ADD DUP2 SWAP1 MSTORE POP DUP1 PUSH1 0x2 ADD DUP1 SLOAD DUP1 PUSH1 0x20 MUL PUSH1 0x20 ADD PUSH1 0x40 MLOAD SWAP1 DUP2 ADD PUSH1 0x40 MSTORE DUP1 SWAP3 SWAP2 SWAP1 DUP2 DUP2 MSTORE PUSH1 0x20 ADD PUSH0 SWAP1 JUMPDEST DUP3 DUP3 LT ISZERO PUSH2 0x16EB JUMPI DUP4 DUP3 SWAP1 PUSH0 MSTORE PUSH1 0x20 PUSH0 KECCAK256 ADD DUP1 SLOAD PUSH2 0x1660 SWAP1 PUSH2 0x2FDE JUMP JUMPDEST DUP1 PUSH1 0x1F ADD PUSH1 0x20 DUP1 SWAP2 DIV MUL PUSH1 0x20 ADD PUSH1 0x40 MLOAD SWAP1 DUP2 ADD PUSH1 0x40 MSTORE DUP1 SWAP3 SWAP2 SWAP1 DUP2 DUP2 MSTORE PUSH1 0x20 ADD DUP3 DUP1 SLOAD PUSH2 0x168C SWAP1 PUSH2 0x2FDE JUMP JUMPDEST DUP1 ISZERO PUSH2 0x16D7 JUMPI DUP1 PUSH1 0x1F LT PUSH2 0x16AE JUMPI PUSH2 0x100 DUP1 DUP4 SLOAD DIV MUL DUP4 MSTORE SWAP2 PUSH1 0x20 ADD SWAP2 PUSH2 0x16D7 JUMP JUMPDEST DUP3 ADD SWAP2 SWAP1 PUSH0 MSTORE PUSH1 0x20 PUSH0 KECCAK256 SWAP1 JUMPDEST DUP2 SLOAD DUP2 MSTORE SWAP1 PUSH1 0x1 ADD SWAP1 PUSH1 0x20 ADD DUP1 DUP4 GT PUSH2 0x16BA JUMPI DUP3 SWAP1 SUB PUSH1 0x1F AND DUP3 ADD SWAP2 JUMPDEST POP POP POP POP POP DUP2 MSTORE PUSH1 0x20 ADD SWAP1 PUSH1 0x1 ADD SWAP1 PUSH2 0x1643 JUMP JUMPDEST POP POP POP POP DUP8 DUP5 DUP2 MLOAD DUP2 LT PUSH2 0x1702 JUMPI PUSH2 0x1701 PUSH2 0x3278 JUMP JUMPDEST JUMPDEST PUSH1 0x20 MUL PUSH1 0x20 ADD ADD DUP2 SWAP1 MSTORE POP DUP1 PUSH1 0x4 ADD SLOAD DUP7 DUP5 DUP2 MLOAD DUP2 LT PUSH2 0x1725 JUMPI PUSH2 0x1724 PUSH2 0x3278 JUMP JUMPDEST JUMPDEST PUSH1 0x20 MUL PUSH1 0x20 ADD ADD DUP2 DUP2 MSTORE POP POP DUP1 PUSH1 0x8 ADD PUSH0 SWAP1 SLOAD SWAP1 PUSH2 0x100 EXP SWAP1 DIV PUSH20 0xFFFFFFFFFFFFFFFFFFFFFFFFFFFFFFFFFFFFFFFF AND DUP6 DUP5 DUP2 MLOAD DUP2 LT PUSH2 0x1768 JUMPI PUSH2 0x1767 PUSH2 0x3278 JUMP JUMPDEST JUMPDEST PUSH1 0x20 MUL PUSH1 0x20 ADD ADD SWAP1 PUSH20 0xFFFFFFFFFFFFFFFFFFFFFFFFFFFFFFFFFFFFFFFF AND SWAP1 DUP2 PUSH20 0xFFFFFFFFFFFFFFFFFFFFFFFFFFFFFFFFFFFFFFFF AND DUP2 MSTORE POP POP DUP3 DUP1 PUSH2 0x17AD SWAP1 PUSH2 0x2EA5 JUMP JUMPDEST SWAP4 POP POP JUMPDEST POP DUP1 DUP1 PUSH1 0x1 ADD SWAP2 POP POP PUSH2 0x151F JUMP JUMPDEST POP POP POP SWAP1 SWAP2 SWAP3 SWAP4 SWAP5 JUMP JUMPDEST DUP2 PUSH1 0x2 PUSH0 DUP3 DUP2 MSTORE PUSH1 0x20 ADD SWAP1 DUP2 MSTORE PUSH1 0x20 ADD PUSH0 KECCAK256 PUSH1 0x8 ADD PUSH0 SWAP1 SLOAD SWAP1 PUSH2 0x100 EXP SWAP1 DIV PUSH20 0xFFFFFFFFFFFFFFFFFFFFFFFFFFFFFFFFFFFFFFFF AND PUSH20 0xFFFFFFFFFFFFFFFFFFFFFFFFFFFFFFFFFFFFFFFF AND CALLER PUSH20 0xFFFFFFFFFFFFFFFFFFFFFFFFFFFFFFFFFFFFFFFF AND EQ PUSH2 0x186B JUMPI PUSH1 0x40 MLOAD PUSH32 0x8C379A000000000000000000000000000000000000000000000000000000000 DUP2 MSTORE PUSH1 0x4 ADD PUSH2 0x1862 SWAP1 PUSH2 0x3532 JUMP JUMPDEST PUSH1 0x40 MLOAD DUP1 SWAP2 SUB SWAP1 REVERT JUMPDEST PUSH1 0x1 DUP3 PUSH1 0xFF AND LT ISZERO DUP1 ISZERO PUSH2 0x1899 JUMPI POP PUSH1 0x2 PUSH0 DUP5 DUP2 MSTORE PUSH1 0x20 ADD SWAP1 DUP2 MSTORE PUSH1 0x20 ADD PUSH0 KECCAK256 PUSH1 0x2 ADD DUP1 SLOAD SWAP1 POP DUP3 PUSH1 0xFF AND GT ISZERO JUMPDEST PUSH2 0x18D8 JUMPI PUSH1 0x40 MLOAD PUSH32 0x8C379A000000000000000000000000000000000000000000000000000000000 DUP2 MSTORE PUSH1 0x4 ADD PUSH2 0x18CF SWAP1 PUSH2 0x3B12 JUMP JUMPDEST PUSH1 0x40 MLOAD DUP1 SWAP2 SUB SWAP1 REVERT JUMPDEST PUSH0 PUSH1 0x2 PUSH0 DUP6 DUP2 MSTORE PUSH1 0x20 ADD SWAP1 DUP2 MSTORE PUSH1 0x20 ADD PUSH0 KECCAK256 SWAP1 POP DUP1 PUSH1 0x8 ADD PUSH1 0x14 SWAP1 SLOAD SWAP1 PUSH2 0x100 EXP SWAP1 DIV PUSH1 0xFF AND ISZERO DUP1 ISZERO PUSH2 0x191A JUMPI POP DUP1 PUSH1 0x8 ADD PUSH1 0x15 SWAP1 SLOAD SWAP1 PUSH2 0x100 EXP SWAP1 DIV PUSH1 0xFF AND ISZERO JUMPDEST PUSH2 0x1959 JUMPI PUSH1 0x40 MLOAD PUSH32 0x8C379A000000000000000000000000000000000000000000000000000000000 DUP2 MSTORE PUSH1 0x4 ADD PUSH2 0x1950 SWAP1 PUSH2 0x3BA0 JUMP JUMPDEST PUSH1 0x40 MLOAD DUP1 SWAP2 SUB SWAP1 REVERT JUMPDEST PUSH0 DUP2 PUSH1 0x5 ADD PUSH0 SWAP1 SLOAD SWAP1 PUSH2 0x100 EXP SWAP1 DIV PUSH20 0xFFFFFFFFFFFFFFFFFFFFFFFFFFFFFFFFFFFFFFFF AND SWAP1 POP PUSH0 DUP1 JUMPDEST DUP4 PUSH1 0x3 ADD DUP1 SLOAD SWAP1 POP DUP2 PUSH1 0xFF AND LT ISZERO PUSH2 0x19D7 JUMPI DUP4 PUSH1 0x3 ADD DUP2 PUSH1 0xFF AND DUP2 SLOAD DUP2 LT PUSH2 0x19AE JUMPI PUSH2 0x19AD PUSH2 0x3278 JUMP JUMPDEST JUMPDEST SWAP1 PUSH0 MSTORE PUSH1 0x20 PUSH0 KECCAK256 ADD SLOAD DUP3 PUSH2 0x19C2 SWAP2 SWAP1 PUSH2 0x35B8 JUMP JUMPDEST SWAP2 POP DUP1 DUP1 PUSH2 0x19CF SWAP1 PUSH2 0x35EB JUMP JUMPDEST SWAP2 POP POP PUSH2 0x1983 JUMP JUMPDEST POP PUSH0 DUP4 PUSH1 0x3 ADD PUSH1 0x1 DUP8 PUSH2 0x19EA SWAP2 SWAP1 PUSH2 0x3A6D JUMP JUMPDEST PUSH1 0xFF AND DUP2 SLOAD DUP2 LT PUSH2 0x19FE JUMPI PUSH2 0x19FD PUSH2 0x3278 JUMP JUMPDEST JUMPDEST SWAP1 PUSH0 MSTORE PUSH1 0x20 PUSH0 KECCAK256 ADD SLOAD SWAP1 POP PUSH0 PUSH1 0x64 DUP4 PUSH2 0x1A17 SWAP2 SWAP1 PUSH2 0x3640 JUMP JUMPDEST SWAP1 POP PUSH0 DUP2 SWAP1 POP PUSH0 DUP2 DUP4 DUP7 PUSH2 0x1A2B SWAP2 SWAP1 PUSH2 0x3670 JUMP JUMPDEST PUSH2 0x1A35 SWAP2 SWAP1 PUSH2 0x3670 JUMP JUMPDEST SWAP1 POP DUP6 PUSH20 0xFFFFFFFFFFFFFFFFFFFFFFFFFFFFFFFFFFFFFFFF AND PUSH4 0xA9059CBB PUSH20 0x9B63FA365019DD7BDF8CBED2823480F808391970 DUP6 PUSH1 0x40 MLOAD DUP4 PUSH4 0xFFFFFFFF AND PUSH1 0xE0 SHL DUP2 MSTORE PUSH1 0x4 ADD PUSH2 0x1A86 SWAP3 SWAP2 SWAP1 PUSH2 0x36A3 JUMP JUMPDEST PUSH1 0x20 PUSH1 0x40 MLOAD DUP1 DUP4 SUB DUP2 PUSH0 DUP8 GAS CALL ISZERO DUP1 ISZERO PUSH2 0x1AA2 JUMPI RETURNDATASIZE PUSH0 DUP1 RETURNDATACOPY RETURNDATASIZE PUSH0 REVERT JUMPDEST POP POP POP POP PUSH1 0x40 MLOAD RETURNDATASIZE PUSH1 0x1F NOT PUSH1 0x1F DUP3 ADD AND DUP3 ADD DUP1 PUSH1 0x40 MSTORE POP DUP2 ADD SWAP1 PUSH2 0x1AC6 SWAP2 SWAP1 PUSH2 0x36F4 JUMP JUMPDEST PUSH2 0x1B05 JUMPI PUSH1 0x40 MLOAD PUSH32 0x8C379A000000000000000000000000000000000000000000000000000000000 DUP2 MSTORE PUSH1 0x4 ADD PUSH2 0x1AFC SWAP1 PUSH2 0x3769 JUMP JUMPDEST PUSH1 0x40 MLOAD DUP1 SWAP2 SUB SWAP1 REVERT JUMPDEST DUP6 PUSH20 0xFFFFFFFFFFFFFFFFFFFFFFFFFFFFFFFFFFFFFFFF AND PUSH4 0xA9059CBB DUP9 PUSH1 0x8 ADD PUSH0 SWAP1 SLOAD SWAP1 PUSH2 0x100 EXP SWAP1 DIV PUSH20 0xFFFFFFFFFFFFFFFFFFFFFFFFFFFFFFFFFFFFFFFF AND DUP5 PUSH1 0x40 MLOAD DUP4 PUSH4 0xFFFFFFFF AND PUSH1 0xE0 SHL DUP2 MSTORE PUSH1 0x4 ADD PUSH2 0x1B63 SWAP3 SWAP2 SWAP1 PUSH2 0x36A3 JUMP JUMPDEST PUSH1 0x20 PUSH1 0x40 MLOAD DUP1 DUP4 SUB DUP2 PUSH0 DUP8 GAS CALL ISZERO DUP1 ISZERO PUSH2 0x1B7F JUMPI RETURNDATASIZE PUSH0 DUP1 RETURNDATACOPY RETURNDATASIZE PUSH0 REVERT JUMPDEST POP POP POP POP PUSH1 0x40 MLOAD RETURNDATASIZE PUSH1 0x1F NOT PUSH1 0x1F DUP3 ADD AND DUP3 ADD DUP1 PUSH1 0x40 MSTORE POP DUP2 ADD SWAP1 PUSH2 0x1BA3 SWAP2 SWAP1 PUSH2 0x36F4 JUMP JUMPDEST PUSH2 0x1BE2 JUMPI PUSH1 0x40 MLOAD PUSH32 0x8C379A000000000000000000000000000000000000000000000000000000000 DUP2 MSTORE PUSH1 0x4 ADD PUSH2 0x1BD9 SWAP1 PUSH2 0x37D1 JUMP JUMPDEST PUSH1 0x40 MLOAD DUP1 SWAP2 SUB SWAP1 REVERT JUMPDEST PUSH0 JUMPDEST DUP8 PUSH1 0x7 ADD DUP1 SLOAD SWAP1 POP DUP2 LT ISZERO PUSH2 0x1E1B JUMPI PUSH0 DUP9 PUSH1 0x7 ADD DUP3 DUP2 SLOAD DUP2 LT PUSH2 0x1C0A JUMPI PUSH2 0x1C09 PUSH2 0x3278 JUMP JUMPDEST JUMPDEST SWAP1 PUSH0 MSTORE PUSH1 0x20 PUSH0 KECCAK256 ADD PUSH0 SWAP1 SLOAD SWAP1 PUSH2 0x100 EXP SWAP1 DIV PUSH20 0xFFFFFFFFFFFFFFFFFFFFFFFFFFFFFFFFFFFFFFFF AND SWAP1 POP PUSH0 DUP10 PUSH1 0x6 ADD PUSH0 DUP4 PUSH20 0xFFFFFFFFFFFFFFFFFFFFFFFFFFFFFFFFFFFFFFFF AND PUSH20 0xFFFFFFFFFFFFFFFFFFFFFFFFFFFFFFFFFFFFFFFF AND DUP2 MSTORE PUSH1 0x20 ADD SWAP1 DUP2 MSTORE PUSH1 0x20 ADD PUSH0 KECCAK256 SWAP1 POP PUSH0 JUMPDEST DUP2 DUP1 SLOAD SWAP1 POP DUP2 PUSH1 0xFF AND LT ISZERO PUSH2 0x1E0B JUMPI PUSH0 PUSH20 0xFFFFFFFFFFFFFFFFFFFFFFFFFFFFFFFFFFFFFFFF AND DUP3 DUP3 PUSH1 0xFF AND DUP2 SLOAD DUP2 LT PUSH2 0x1CB4 JUMPI PUSH2 0x1CB3 PUSH2 0x3278 JUMP JUMPDEST JUMPDEST SWAP1 PUSH0 MSTORE PUSH1 0x20 PUSH0 KECCAK256 SWAP1 PUSH1 0x2 MUL ADD PUSH0 ADD PUSH0 SWAP1 SLOAD SWAP1 PUSH2 0x100 EXP SWAP1 DIV PUSH20 0xFFFFFFFFFFFFFFFFFFFFFFFFFFFFFFFFFFFFFFFF AND PUSH20 0xFFFFFFFFFFFFFFFFFFFFFFFFFFFFFFFFFFFFFFFF AND EQ PUSH2 0x1DF8 JUMPI PUSH0 DUP9 DUP7 DUP5 DUP5 PUSH1 0xFF AND DUP2 SLOAD DUP2 LT PUSH2 0x1D16 JUMPI PUSH2 0x1D15 PUSH2 0x3278 JUMP JUMPDEST JUMPDEST SWAP1 PUSH0 MSTORE PUSH1 0x20 PUSH0 KECCAK256 SWAP1 PUSH1 0x2 MUL ADD PUSH1 0x1 ADD SLOAD PUSH2 0x1D30 SWAP2 SWAP1 PUSH2 0x37EF JUMP JUMPDEST PUSH2 0x1D3A SWAP2 SWAP1 PUSH2 0x3640 JUMP JUMPDEST SWAP1 POP DUP11 PUSH20 0xFFFFFFFFFFFFFFFFFFFFFFFFFFFFFFFFFFFFFFFF AND PUSH4 0xA9059CBB DUP6 DUP4 PUSH1 0x40 MLOAD DUP4 PUSH4 0xFFFFFFFF AND PUSH1 0xE0 SHL DUP2 MSTORE PUSH1 0x4 ADD PUSH2 0x1D77 SWAP3 SWAP2 SWAP1 PUSH2 0x36A3 JUMP JUMPDEST PUSH1 0x20 PUSH1 0x40 MLOAD DUP1 DUP4 SUB DUP2 PUSH0 DUP8 GAS CALL ISZERO DUP1 ISZERO PUSH2 0x1D93 JUMPI RETURNDATASIZE PUSH0 DUP1 RETURNDATACOPY RETURNDATASIZE PUSH0 REVERT JUMPDEST POP POP POP POP PUSH1 0x40 MLOAD RETURNDATASIZE PUSH1 0x1F NOT PUSH1 0x1F DUP3 ADD AND DUP3 ADD DUP1 PUSH1 0x40 MSTORE POP DUP2 ADD SWAP1 PUSH2 0x1DB7 SWAP2 SWAP1 PUSH2 0x36F4 JUMP JUMPDEST PUSH2 0x1DF6 JUMPI PUSH1 0x40 MLOAD PUSH32 0x8C379A000000000000000000000000000000000000000000000000000000000 DUP2 MSTORE PUSH1 0x4 ADD PUSH2 0x1DED SWAP1 PUSH2 0x3C08 JUMP JUMPDEST PUSH1 0x40 MLOAD DUP1 SWAP2 SUB SWAP1 REVERT JUMPDEST POP JUMPDEST DUP1 DUP1 PUSH2 0x1E03 SWAP1 PUSH2 0x35EB JUMP JUMPDEST SWAP2 POP POP PUSH2 0x1C78 JUMP JUMPDEST POP POP POP DUP1 DUP1 PUSH1 0x1 ADD SWAP2 POP POP PUSH2 0x1BE4 JUMP JUMPDEST POP PUSH1 0x1 DUP8 PUSH1 0x8 ADD PUSH1 0x15 PUSH2 0x100 EXP DUP2 SLOAD DUP2 PUSH1 0xFF MUL NOT AND SWAP1 DUP4 ISZERO ISZERO MUL OR SWAP1 SSTORE POP DUP9 DUP8 PUSH1 0x8 ADD PUSH1 0x16 PUSH2 0x100 EXP DUP2 SLOAD DUP2 PUSH1 0xFF MUL NOT AND SWAP1 DUP4 PUSH1 0xFF AND MUL OR SWAP1 SSTORE POP DUP10 PUSH32 0x28C9277C6636BF00B5D22B2287C0F37926AE23A6825D5801E10A7183BB69045C DUP11 PUSH1 0x40 MLOAD PUSH2 0x1E86 SWAP2 SWAP1 PUSH2 0x3C26 JUMP JUMPDEST PUSH1 0x40 MLOAD DUP1 SWAP2 SUB SWAP1 LOG2 POP POP POP POP POP POP POP POP POP POP JUMP JUMPDEST PUSH1 0x60 DUP1 PUSH1 0x60 DUP1 PUSH0 DUP1 PUSH1 0x1 SWAP1 POP JUMPDEST PUSH1 0x1 SLOAD DUP2 LT ISZERO PUSH2 0x1F46 JUMPI PUSH0 PUSH1 0x2 PUSH0 DUP4 DUP2 MSTORE PUSH1 0x20 ADD SWAP1 DUP2 MSTORE PUSH1 0x20 ADD PUSH0 KECCAK256 SWAP1 POP DUP1 PUSH1 0x8 ADD PUSH1 0x14 SWAP1 SLOAD SWAP1 PUSH2 0x100 EXP SWAP1 DIV PUSH1 0xFF AND DUP1 ISZERO PUSH2 0x1F24 JUMPI POP PUSH0 DUP2 PUSH1 0x6 ADD PUSH0 DUP11 PUSH20 0xFFFFFFFFFFFFFFFFFFFFFFFFFFFFFFFFFFFFFFFF AND PUSH20 0xFFFFFFFFFFFFFFFFFFFFFFFFFFFFFFFFFFFFFFFF AND DUP2 MSTORE PUSH1 0x20 ADD SWAP1 DUP2 MSTORE PUSH1 0x20 ADD PUSH0 KECCAK256 DUP1 SLOAD SWAP1 POP GT JUMPDEST ISZERO PUSH2 0x1F38 JUMPI DUP3 DUP1 PUSH2 0x1F34 SWAP1 PUSH2 0x2EA5 JUMP JUMPDEST SWAP4 POP POP JUMPDEST POP DUP1 DUP1 PUSH1 0x1 ADD SWAP2 POP POP PUSH2 0x1EA7 JUMP JUMPDEST POP DUP1 PUSH8 0xFFFFFFFFFFFFFFFF DUP2 GT ISZERO PUSH2 0x1F61 JUMPI PUSH2 0x1F60 PUSH2 0x2F84 JUMP JUMPDEST JUMPDEST PUSH1 0x40 MLOAD SWAP1 DUP1 DUP3 MSTORE DUP1 PUSH1 0x20 MUL PUSH1 0x20 ADD DUP3 ADD PUSH1 0x40 MSTORE DUP1 ISZERO PUSH2 0x1F8F JUMPI DUP2 PUSH1 0x20 ADD PUSH1 0x20 DUP3 MUL DUP1 CALLDATASIZE DUP4 CALLDATACOPY DUP1 DUP3 ADD SWAP2 POP POP SWAP1 POP JUMPDEST POP SWAP5 POP DUP1 PUSH8 0xFFFFFFFFFFFFFFFF DUP2 GT ISZERO PUSH2 0x1FAC JUMPI PUSH2 0x1FAB PUSH2 0x2F84 JUMP JUMPDEST JUMPDEST PUSH1 0x40 MLOAD SWAP1 DUP1 DUP3 MSTORE DUP1 PUSH1 0x20 MUL PUSH1 0x20 ADD DUP3 ADD PUSH1 0x40 MSTORE DUP1 ISZERO PUSH2 0x1FDF JUMPI DUP2 PUSH1 0x20 ADD JUMPDEST PUSH1 0x60 DUP2 MSTORE PUSH1 0x20 ADD SWAP1 PUSH1 0x1 SWAP1 SUB SWAP1 DUP2 PUSH2 0x1FCA JUMPI SWAP1 POP JUMPDEST POP SWAP4 POP DUP1 PUSH8 0xFFFFFFFFFFFFFFFF DUP2 GT ISZERO PUSH2 0x1FFC JUMPI PUSH2 0x1FFB PUSH2 0x2F84 JUMP JUMPDEST JUMPDEST PUSH1 0x40 MLOAD SWAP1 DUP1 DUP3 MSTORE DUP1 PUSH1 0x20 MUL PUSH1 0x20 ADD DUP3 ADD PUSH1 0x40 MSTORE DUP1 ISZERO PUSH2 0x202A JUMPI DUP2 PUSH1 0x20 ADD PUSH1 0x20 DUP3 MUL DUP1 CALLDATASIZE DUP4 CALLDATACOPY DUP1 DUP3 ADD SWAP2 POP POP SWAP1 POP JUMPDEST POP SWAP3 POP DUP1 PUSH8 0xFFFFFFFFFFFFFFFF DUP2 GT ISZERO PUSH2 0x2047 JUMPI PUSH2 0x2046 PUSH2 0x2F84 JUMP JUMPDEST JUMPDEST PUSH1 0x40 MLOAD SWAP1 DUP1 DUP3 MSTORE DUP1 PUSH1 0x20 MUL PUSH1 0x20 ADD DUP3 ADD PUSH1 0x40 MSTORE DUP1 ISZERO PUSH2 0x207A JUMPI DUP2 PUSH1 0x20 ADD JUMPDEST PUSH1 0x60 DUP2 MSTORE PUSH1 0x20 ADD SWAP1 PUSH1 0x1 SWAP1 SUB SWAP1 DUP2 PUSH2 0x2065 JUMPI SWAP1 POP JUMPDEST POP SWAP2 POP PUSH0 DUP1 PUSH1 0x1 SWAP1 POP JUMPDEST PUSH1 0x1 SLOAD DUP2 LT ISZERO PUSH2 0x238D JUMPI PUSH0 PUSH1 0x2 PUSH0 DUP4 DUP2 MSTORE PUSH1 0x20 ADD SWAP1 DUP2 MSTORE PUSH1 0x20 ADD PUSH0 KECCAK256 SWAP1 POP DUP1 PUSH1 0x8 ADD PUSH1 0x14 SWAP1 SLOAD SWAP1 PUSH2 0x100 EXP SWAP1 DIV PUSH1 0xFF AND DUP1 ISZERO PUSH2 0x2101 JUMPI POP PUSH0 DUP2 PUSH1 0x6 ADD PUSH0 DUP12 PUSH20 0xFFFFFFFFFFFFFFFFFFFFFFFFFFFFFFFFFFFFFFFF AND PUSH20 0xFFFFFFFFFFFFFFFFFFFFFFFFFFFFFFFFFFFFFFFF AND DUP2 MSTORE PUSH1 0x20 ADD SWAP1 DUP2 MSTORE PUSH1 0x20 ADD PUSH0 KECCAK256 DUP1 SLOAD SWAP1 POP GT JUMPDEST ISZERO PUSH2 0x237F JUMPI DUP1 PUSH0 ADD SLOAD DUP9 DUP5 DUP2 MLOAD DUP2 LT PUSH2 0x211D JUMPI PUSH2 0x211C PUSH2 0x3278 JUMP JUMPDEST JUMPDEST PUSH1 0x20 MUL PUSH1 0x20 ADD ADD DUP2 DUP2 MSTORE POP POP DUP1 PUSH1 0x1 ADD DUP1 SLOAD PUSH2 0x2138 SWAP1 PUSH2 0x2FDE JUMP JUMPDEST DUP1 PUSH1 0x1F ADD PUSH1 0x20 DUP1 SWAP2 DIV MUL PUSH1 0x20 ADD PUSH1 0x40 MLOAD SWAP1 DUP2 ADD PUSH1 0x40 MSTORE DUP1 SWAP3 SWAP2 SWAP1 DUP2 DUP2 MSTORE PUSH1 0x20 ADD DUP3 DUP1 SLOAD PUSH2 0x2164 SWAP1 PUSH2 0x2FDE JUMP JUMPDEST DUP1 ISZERO PUSH2 0x21AF JUMPI DUP1 PUSH1 0x1F LT PUSH2 0x2186 JUMPI PUSH2 0x100 DUP1 DUP4 SLOAD DIV MUL DUP4 MSTORE SWAP2 PUSH1 0x20 ADD SWAP2 PUSH2 0x21AF JUMP JUMPDEST DUP3 ADD SWAP2 SWAP1 PUSH0 MSTORE PUSH1 0x20 PUSH0 KECCAK256 SWAP1 JUMPDEST DUP2 SLOAD DUP2 MSTORE SWAP1 PUSH1 0x1 ADD SWAP1 PUSH1 0x20 ADD DUP1 DUP4 GT PUSH2 0x2192 JUMPI DUP3 SWAP1 SUB PUSH1 0x1F AND DUP3 ADD SWAP2 JUMPDEST POP POP POP POP POP DUP8 DUP5 DUP2 MLOAD DUP2 LT PUSH2 0x21C7 JUMPI PUSH2 0x21C6 PUSH2 0x3278 JUMP JUMPDEST JUMPDEST PUSH1 0x20 MUL PUSH1 0x20 ADD ADD DUP2 SWAP1 MSTORE POP PUSH0 DUP1 DUP3 PUSH1 0x6 ADD PUSH0 DUP13 PUSH20 0xFFFFFFFFFFFFFFFFFFFFFFFFFFFFFFFFFFFFFFFF AND PUSH20 0xFFFFFFFFFFFFFFFFFFFFFFFFFFFFFFFFFFFFFFFF AND DUP2 MSTORE PUSH1 0x20 ADD SWAP1 DUP2 MSTORE PUSH1 0x20 ADD PUSH0 KECCAK256 SWAP1 POP PUSH0 JUMPDEST DUP2 DUP1 SLOAD SWAP1 POP DUP2 LT ISZERO PUSH2 0x2260 JUMPI DUP2 DUP2 DUP2 SLOAD DUP2 LT PUSH2 0x2236 JUMPI PUSH2 0x2235 PUSH2 0x3278 JUMP JUMPDEST JUMPDEST SWAP1 PUSH0 MSTORE PUSH1 0x20 PUSH0 KECCAK256 SWAP1 PUSH1 0x2 MUL ADD PUSH1 0x1 ADD SLOAD DUP4 PUSH2 0x2251 SWAP2 SWAP1 PUSH2 0x35B8 JUMP JUMPDEST SWAP3 POP DUP1 DUP1 PUSH1 0x1 ADD SWAP2 POP POP PUSH2 0x2217 JUMP JUMPDEST POP DUP2 DUP9 DUP7 DUP2 MLOAD DUP2 LT PUSH2 0x2275 JUMPI PUSH2 0x2274 PUSH2 0x3278 JUMP JUMPDEST JUMPDEST PUSH1 0x20 MUL PUSH1 0x20 ADD ADD DUP2 DUP2 MSTORE POP POP DUP3 PUSH1 0x2 ADD DUP1 SLOAD DUP1 PUSH1 0x20 MUL PUSH1 0x20 ADD PUSH1 0x40 MLOAD SWAP1 DUP2 ADD PUSH1 0x40 MSTORE DUP1 SWAP3 SWAP2 SWAP1 DUP2 DUP2 MSTORE PUSH1 0x20 ADD PUSH0 SWAP1 JUMPDEST DUP3 DUP3 LT ISZERO PUSH2 0x234C JUMPI DUP4 DUP3 SWAP1 PUSH0 MSTORE PUSH1 0x20 PUSH0 KECCAK256 ADD DUP1 SLOAD PUSH2 0x22C1 SWAP1 PUSH2 0x2FDE JUMP JUMPDEST DUP1 PUSH1 0x1F ADD PUSH1 0x20 DUP1 SWAP2 DIV MUL PUSH1 0x20 ADD PUSH1 0x40 MLOAD SWAP1 DUP2 ADD PUSH1 0x40 MSTORE DUP1 SWAP3 SWAP2 SWAP1 DUP2 DUP2 MSTORE PUSH1 0x20 ADD DUP3 DUP1 SLOAD PUSH2 0x22ED SWAP1 PUSH2 0x2FDE JUMP JUMPDEST DUP1 ISZERO PUSH2 0x2338 JUMPI DUP1 PUSH1 0x1F LT PUSH2 0x230F JUMPI PUSH2 0x100 DUP1 DUP4 SLOAD DIV MUL DUP4 MSTORE SWAP2 PUSH1 0x20 ADD SWAP2 PUSH2 0x2338 JUMP JUMPDEST DUP3 ADD SWAP2 SWAP1 PUSH0 MSTORE PUSH1 0x20 PUSH0 KECCAK256 SWAP1 JUMPDEST DUP2 SLOAD DUP2 MSTORE SWAP1 PUSH1 0x1 ADD SWAP1 PUSH1 0x20 ADD DUP1 DUP4 GT PUSH2 0x231B JUMPI DUP3 SWAP1 SUB PUSH1 0x1F AND DUP3 ADD SWAP2 JUMPDEST POP POP POP POP POP DUP2 MSTORE PUSH1 0x20 ADD SWAP1 PUSH1 0x1 ADD SWAP1 PUSH2 0x22A4 JUMP JUMPDEST POP POP POP POP DUP8 DUP7 DUP2 MLOAD DUP2 LT PUSH2 0x2363 JUMPI PUSH2 0x2362 PUSH2 0x3278 JUMP JUMPDEST JUMPDEST PUSH1 0x20 MUL PUSH1 0x20 ADD ADD DUP2 SWAP1 MSTORE POP DUP5 DUP1 PUSH2 0x2379 SWAP1 PUSH2 0x2EA5 JUMP JUMPDEST SWAP6 POP POP POP POP JUMPDEST POP DUP1 DUP1 PUSH1 0x1 ADD SWAP2 POP POP PUSH2 0x2084 JUMP JUMPDEST POP POP POP SWAP2 SWAP4 POP SWAP2 SWAP4 JUMP JUMPDEST DUP3 DUP1 SLOAD DUP3 DUP3 SSTORE SWAP1 PUSH0 MSTORE PUSH1 0x20 PUSH0 KECCAK256 SWAP1 DUP2 ADD SWAP3 DUP3 ISZERO PUSH2 0x23D1 JUMPI SWAP2 PUSH1 0x20 MUL DUP3 ADD JUMPDEST DUP3 DUP2 GT ISZERO PUSH2 0x23D0 JUMPI DUP3 MLOAD DUP3 SSTORE SWAP2 PUSH1 0x20 ADD SWAP2 SWAP1 PUSH1 0x1 ADD SWAP1 PUSH2 0x23B5 JUMP JUMPDEST JUMPDEST POP SWAP1 POP PUSH2 0x23DE SWAP2 SWAP1 PUSH2 0x23E2 JUMP JUMPDEST POP SWAP1 JUMP JUMPDEST JUMPDEST DUP1 DUP3 GT ISZERO PUSH2 0x23F9 JUMPI PUSH0 DUP2 PUSH0 SWAP1 SSTORE POP PUSH1 0x1 ADD PUSH2 0x23E3 JUMP JUMPDEST POP SWAP1 JUMP JUMPDEST PUSH0 DUP1 REVERT JUMPDEST PUSH0 DUP1 REVERT JUMPDEST PUSH0 DUP1 REVERT JUMPDEST PUSH0 DUP1 REVERT JUMPDEST PUSH0 DUP1 REVERT JUMPDEST PUSH0 DUP1 DUP4 PUSH1 0x1F DUP5 ADD SLT PUSH2 0x2426 JUMPI PUSH2 0x2425 PUSH2 0x2405 JUMP JUMPDEST JUMPDEST DUP3 CALLDATALOAD SWAP1 POP PUSH8 0xFFFFFFFFFFFFFFFF DUP2 GT ISZERO PUSH2 0x2443 JUMPI PUSH2 0x2442 PUSH2 0x2409 JUMP JUMPDEST JUMPDEST PUSH1 0x20 DUP4 ADD SWAP2 POP DUP4 PUSH1 0x1 DUP3 MUL DUP4 ADD GT ISZERO PUSH2 0x245F JUMPI PUSH2 0x245E PUSH2 0x240D JUMP JUMPDEST JUMPDEST SWAP3 POP SWAP3 SWAP1 POP JUMP JUMPDEST PUSH0 PUSH1 0xFF DUP3 AND SWAP1 POP SWAP2 SWAP1 POP JUMP JUMPDEST PUSH2 0x247B DUP2 PUSH2 0x2466 JUMP JUMPDEST DUP2 EQ PUSH2 0x2485 JUMPI PUSH0 DUP1 REVERT JUMPDEST POP JUMP JUMPDEST PUSH0 DUP2 CALLDATALOAD SWAP1 POP PUSH2 0x2496 DUP2 PUSH2 0x2472 JUMP JUMPDEST SWAP3 SWAP2 POP POP JUMP JUMPDEST PUSH0 DUP1 DUP4 PUSH1 0x1F DUP5 ADD SLT PUSH2 0x24B1 JUMPI PUSH2 0x24B0 PUSH2 0x2405 JUMP JUMPDEST JUMPDEST DUP3 CALLDATALOAD SWAP1 POP PUSH8 0xFFFFFFFFFFFFFFFF DUP2 GT ISZERO PUSH2 0x24CE JUMPI PUSH2 0x24CD PUSH2 0x2409 JUMP JUMPDEST JUMPDEST PUSH1 0x20 DUP4 ADD SWAP2 POP DUP4 PUSH1 0x20 DUP3 MUL DUP4 ADD GT ISZERO PUSH2 0x24EA JUMPI PUSH2 0x24E9 PUSH2 0x240D JUMP JUMPDEST JUMPDEST SWAP3 POP SWAP3 SWAP1 POP JUMP JUMPDEST PUSH0 DUP2 SWAP1 POP SWAP2 SWAP1 POP JUMP JUMPDEST PUSH2 0x2503 DUP2 PUSH2 0x24F1 JUMP JUMPDEST DUP2 EQ PUSH2 0x250D JUMPI PUSH0 DUP1 REVERT JUMPDEST POP JUMP JUMPDEST PUSH0 DUP2 CALLDATALOAD SWAP1 POP PUSH2 0x251E DUP2 PUSH2 0x24FA JUMP JUMPDEST SWAP3 SWAP2 POP POP JUMP JUMPDEST PUSH0 PUSH20 0xFFFFFFFFFFFFFFFFFFFFFFFFFFFFFFFFFFFFFFFF DUP3 AND SWAP1 POP SWAP2 SWAP1 POP JUMP JUMPDEST PUSH0 PUSH2 0x254D DUP3 PUSH2 0x2524 JUMP JUMPDEST SWAP1 POP SWAP2 SWAP1 POP JUMP JUMPDEST PUSH2 0x255D DUP2 PUSH2 0x2543 JUMP JUMPDEST DUP2 EQ PUSH2 0x2567 JUMPI PUSH0 DUP1 REVERT JUMPDEST POP JUMP JUMPDEST PUSH0 DUP2 CALLDATALOAD SWAP1 POP PUSH2 0x2578 DUP2 PUSH2 0x2554 JUMP JUMPDEST SWAP3 SWAP2 POP POP JUMP JUMPDEST PUSH0 DUP1 PUSH0 DUP1 PUSH0 DUP1 PUSH0 PUSH1 0xA0 DUP9 DUP11 SUB SLT ISZERO PUSH2 0x2599 JUMPI PUSH2 0x2598 PUSH2 0x23FD JUMP JUMPDEST JUMPDEST PUSH0 DUP9 ADD CALLDATALOAD PUSH8 0xFFFFFFFFFFFFFFFF DUP2 GT ISZERO PUSH2 0x25B6 JUMPI PUSH2 0x25B5 PUSH2 0x2401 JUMP JUMPDEST JUMPDEST PUSH2 0x25C2 DUP11 DUP3 DUP12 ADD PUSH2 0x2411 JUMP JUMPDEST SWAP8 POP SWAP8 POP POP PUSH1 0x20 PUSH2 0x25D5 DUP11 DUP3 DUP12 ADD PUSH2 0x2488 JUMP JUMPDEST SWAP6 POP POP PUSH1 0x40 DUP9 ADD CALLDATALOAD PUSH8 0xFFFFFFFFFFFFFFFF DUP2 GT ISZERO PUSH2 0x25F6 JUMPI PUSH2 0x25F5 PUSH2 0x2401 JUMP JUMPDEST JUMPDEST PUSH2 0x2602 DUP11 DUP3 DUP12 ADD PUSH2 0x249C JUMP JUMPDEST SWAP5 POP SWAP5 POP POP PUSH1 0x60 PUSH2 0x2615 DUP11 DUP3 DUP12 ADD PUSH2 0x2510 JUMP JUMPDEST SWAP3 POP POP PUSH1 0x80 PUSH2 0x2626 DUP11 DUP3 DUP12 ADD PUSH2 0x256A JUMP JUMPDEST SWAP2 POP POP SWAP3 SWAP6 SWAP9 SWAP2 SWAP5 SWAP8 POP SWAP3 SWAP6 POP JUMP JUMPDEST PUSH0 PUSH1 0x20 DUP3 DUP5 SUB SLT ISZERO PUSH2 0x264A JUMPI PUSH2 0x2649 PUSH2 0x23FD JUMP JUMPDEST JUMPDEST PUSH0 PUSH2 0x2657 DUP5 DUP3 DUP6 ADD PUSH2 0x2510 JUMP JUMPDEST SWAP2 POP POP SWAP3 SWAP2 POP POP JUMP JUMPDEST PUSH2 0x2669 DUP2 PUSH2 0x2543 JUMP JUMPDEST DUP3 MSTORE POP POP JUMP JUMPDEST PUSH0 DUP2 MLOAD SWAP1 POP SWAP2 SWAP1 POP JUMP JUMPDEST PUSH0 DUP3 DUP3 MSTORE PUSH1 0x20 DUP3 ADD SWAP1 POP SWAP3 SWAP2 POP POP JUMP JUMPDEST DUP3 DUP2 DUP4 MCOPY PUSH0 DUP4 DUP4 ADD MSTORE POP POP POP JUMP JUMPDEST PUSH0 PUSH1 0x1F NOT PUSH1 0x1F DUP4 ADD AND SWAP1 POP SWAP2 SWAP1 POP JUMP JUMPDEST PUSH0 PUSH2 0x26B1 DUP3 PUSH2 0x266F JUMP JUMPDEST PUSH2 0x26BB DUP2 DUP6 PUSH2 0x2679 JUMP JUMPDEST SWAP4 POP PUSH2 0x26CB DUP2 DUP6 PUSH1 0x20 DUP7 ADD PUSH2 0x2689 JUMP JUMPDEST PUSH2 0x26D4 DUP2 PUSH2 0x2697 JUMP JUMPDEST DUP5 ADD SWAP2 POP POP SWAP3 SWAP2 POP POP JUMP JUMPDEST PUSH0 DUP2 MLOAD SWAP1 POP SWAP2 SWAP1 POP JUMP JUMPDEST PUSH0 DUP3 DUP3 MSTORE PUSH1 0x20 DUP3 ADD SWAP1 POP SWAP3 SWAP2 POP POP JUMP JUMPDEST PUSH0 DUP2 SWAP1 POP PUSH1 0x20 DUP3 ADD SWAP1 POP SWAP2 SWAP1 POP JUMP JUMPDEST PUSH0 DUP3 DUP3 MSTORE PUSH1 0x20 DUP3 ADD SWAP1 POP SWAP3 SWAP2 POP POP JUMP JUMPDEST PUSH0 PUSH2 0x2722 DUP3 PUSH2 0x266F JUMP JUMPDEST PUSH2 0x272C DUP2 DUP6 PUSH2 0x2708 JUMP JUMPDEST SWAP4 POP PUSH2 0x273C DUP2 DUP6 PUSH1 0x20 DUP7 ADD PUSH2 0x2689 JUMP JUMPDEST PUSH2 0x2745 DUP2 PUSH2 0x2697 JUMP JUMPDEST DUP5 ADD SWAP2 POP POP SWAP3 SWAP2 POP POP JUMP JUMPDEST PUSH0 PUSH2 0x275B DUP4 DUP4 PUSH2 0x2718 JUMP JUMPDEST SWAP1 POP SWAP3 SWAP2 POP POP JUMP JUMPDEST PUSH0 PUSH1 0x20 DUP3 ADD SWAP1 POP SWAP2 SWAP1 POP JUMP JUMPDEST PUSH0 PUSH2 0x2779 DUP3 PUSH2 0x26DF JUMP JUMPDEST PUSH2 0x2783 DUP2 DUP6 PUSH2 0x26E9 JUMP JUMPDEST SWAP4 POP DUP4 PUSH1 0x20 DUP3 MUL DUP6 ADD PUSH2 0x2795 DUP6 PUSH2 0x26F9 JUMP JUMPDEST DUP1 PUSH0 JUMPDEST DUP6 DUP2 LT ISZERO PUSH2 0x27D0 JUMPI DUP5 DUP5 SUB DUP10 MSTORE DUP2 MLOAD PUSH2 0x27B1 DUP6 DUP3 PUSH2 0x2750 JUMP JUMPDEST SWAP5 POP PUSH2 0x27BC DUP4 PUSH2 0x2763 JUMP JUMPDEST SWAP3 POP PUSH1 0x20 DUP11 ADD SWAP10 POP POP PUSH1 0x1 DUP2 ADD SWAP1 POP PUSH2 0x2798 JUMP JUMPDEST POP DUP3 SWAP8 POP DUP8 SWAP6 POP POP POP POP POP POP SWAP3 SWAP2 POP POP JUMP JUMPDEST PUSH0 DUP2 ISZERO ISZERO SWAP1 POP SWAP2 SWAP1 POP JUMP JUMPDEST PUSH2 0x27F6 DUP2 PUSH2 0x27E2 JUMP JUMPDEST DUP3 MSTORE POP POP JUMP JUMPDEST PUSH2 0x2805 DUP2 PUSH2 0x24F1 JUMP JUMPDEST DUP3 MSTORE POP POP JUMP JUMPDEST PUSH0 DUP2 MLOAD SWAP1 POP SWAP2 SWAP1 POP JUMP JUMPDEST PUSH0 DUP3 DUP3 MSTORE PUSH1 0x20 DUP3 ADD SWAP1 POP SWAP3 SWAP2 POP POP JUMP JUMPDEST PUSH0 DUP2 SWAP1 POP PUSH1 0x20 DUP3 ADD SWAP1 POP SWAP2 SWAP1 POP JUMP JUMPDEST PUSH2 0x283D DUP2 PUSH2 0x24F1 JUMP JUMPDEST DUP3 MSTORE POP POP JUMP JUMPDEST PUSH0 PUSH2 0x284E DUP4 DUP4 PUSH2 0x2834 JUMP JUMPDEST PUSH1 0x20 DUP4 ADD SWAP1 POP SWAP3 SWAP2 POP POP JUMP JUMPDEST PUSH0 PUSH1 0x20 DUP3 ADD SWAP1 POP SWAP2 SWAP1 POP JUMP JUMPDEST PUSH0 PUSH2 0x2870 DUP3 PUSH2 0x280B JUMP JUMPDEST PUSH2 0x287A DUP2 DUP6 PUSH2 0x2815 JUMP JUMPDEST SWAP4 POP PUSH2 0x2885 DUP4 PUSH2 0x2825 JUMP JUMPDEST DUP1 PUSH0 JUMPDEST DUP4 DUP2 LT ISZERO PUSH2 0x28B5 JUMPI DUP2 MLOAD PUSH2 0x289C DUP9 DUP3 PUSH2 0x2843 JUMP JUMPDEST SWAP8 POP PUSH2 0x28A7 DUP4 PUSH2 0x285A JUMP JUMPDEST SWAP3 POP POP PUSH1 0x1 DUP2 ADD SWAP1 POP PUSH2 0x2888 JUMP JUMPDEST POP DUP6 SWAP4 POP POP POP POP SWAP3 SWAP2 POP POP JUMP JUMPDEST PUSH2 0x28CB DUP2 PUSH2 0x2466 JUMP JUMPDEST DUP3 MSTORE POP POP JUMP JUMPDEST PUSH0 PUSH2 0x140 DUP3 ADD SWAP1 POP PUSH2 0x28E5 PUSH0 DUP4 ADD DUP14 PUSH2 0x2660 JUMP JUMPDEST DUP2 DUP2 SUB PUSH1 0x20 DUP4 ADD MSTORE PUSH2 0x28F7 DUP2 DUP13 PUSH2 0x26A7 JUMP JUMPDEST SWAP1 POP DUP2 DUP2 SUB PUSH1 0x40 DUP4 ADD MSTORE PUSH2 0x290B DUP2 DUP12 PUSH2 0x276F JUMP JUMPDEST SWAP1 POP PUSH2 0x291A PUSH1 0x60 DUP4 ADD DUP11 PUSH2 0x27ED JUMP JUMPDEST PUSH2 0x2927 PUSH1 0x80 DUP4 ADD DUP10 PUSH2 0x27ED JUMP JUMPDEST PUSH2 0x2934 PUSH1 0xA0 DUP4 ADD DUP9 PUSH2 0x27FC JUMP JUMPDEST DUP2 DUP2 SUB PUSH1 0xC0 DUP4 ADD MSTORE PUSH2 0x2946 DUP2 DUP8 PUSH2 0x2866 JUMP JUMPDEST SWAP1 POP PUSH2 0x2955 PUSH1 0xE0 DUP4 ADD DUP7 PUSH2 0x2660 JUMP JUMPDEST PUSH2 0x2963 PUSH2 0x100 DUP4 ADD DUP6 PUSH2 0x28C2 JUMP JUMPDEST PUSH2 0x2971 PUSH2 0x120 DUP4 ADD DUP5 PUSH2 0x27ED JUMP JUMPDEST SWAP12 SWAP11 POP POP POP POP POP POP POP POP POP POP POP JUMP JUMPDEST PUSH0 PUSH1 0x20 DUP3 ADD SWAP1 POP PUSH2 0x2993 PUSH0 DUP4 ADD DUP5 PUSH2 0x2660 JUMP JUMPDEST SWAP3 SWAP2 POP POP JUMP JUMPDEST PUSH0 DUP1 PUSH0 PUSH1 0x60 DUP5 DUP7 SUB SLT ISZERO PUSH2 0x29B0 JUMPI PUSH2 0x29AF PUSH2 0x23FD JUMP JUMPDEST JUMPDEST PUSH0 PUSH2 0x29BD DUP7 DUP3 DUP8 ADD PUSH2 0x2510 JUMP JUMPDEST SWAP4 POP POP PUSH1 0x20 PUSH2 0x29CE DUP7 DUP3 DUP8 ADD PUSH2 0x2510 JUMP JUMPDEST SWAP3 POP POP PUSH1 0x40 PUSH2 0x29DF DUP7 DUP3 DUP8 ADD PUSH2 0x2488 JUMP JUMPDEST SWAP2 POP POP SWAP3 POP SWAP3 POP SWAP3 JUMP JUMPDEST PUSH0 DUP2 MLOAD SWAP1 POP SWAP2 SWAP1 POP JUMP JUMPDEST PUSH0 DUP3 DUP3 MSTORE PUSH1 0x20 DUP3 ADD SWAP1 POP SWAP3 SWAP2 POP POP JUMP JUMPDEST PUSH0 DUP2 SWAP1 POP PUSH1 0x20 DUP3 ADD SWAP1 POP SWAP2 SWAP1 POP JUMP JUMPDEST PUSH0 DUP3 DUP3 MSTORE PUSH1 0x20 DUP3 ADD SWAP1 POP SWAP3 SWAP2 POP POP JUMP JUMPDEST PUSH0 PUSH2 0x2A2C DUP3 PUSH2 0x26DF JUMP JUMPDEST PUSH2 0x2A36 DUP2 DUP6 PUSH2 0x2A12 JUMP JUMPDEST SWAP4 POP DUP4 PUSH1 0x20 DUP3 MUL DUP6 ADD PUSH2 0x2A48 DUP6 PUSH2 0x26F9 JUMP JUMPDEST DUP1 PUSH0 JUMPDEST DUP6 DUP2 LT ISZERO PUSH2 0x2A83 JUMPI DUP5 DUP5 SUB DUP10 MSTORE DUP2 MLOAD PUSH2 0x2A64 DUP6 DUP3 PUSH2 0x2750 JUMP JUMPDEST SWAP5 POP PUSH2 0x2A6F DUP4 PUSH2 0x2763 JUMP JUMPDEST SWAP3 POP PUSH1 0x20 DUP11 ADD SWAP10 POP POP PUSH1 0x1 DUP2 ADD SWAP1 POP PUSH2 0x2A4B JUMP JUMPDEST POP DUP3 SWAP8 POP DUP8 SWAP6 POP POP POP POP POP POP SWAP3 SWAP2 POP POP JUMP JUMPDEST PUSH0 PUSH2 0x2AA0 DUP4 DUP4 PUSH2 0x2A22 JUMP JUMPDEST SWAP1 POP SWAP3 SWAP2 POP POP JUMP JUMPDEST PUSH0 PUSH1 0x20 DUP3 ADD SWAP1 POP SWAP2 SWAP1 POP JUMP JUMPDEST PUSH0 PUSH2 0x2ABE DUP3 PUSH2 0x29E9 JUMP JUMPDEST PUSH2 0x2AC8 DUP2 DUP6 PUSH2 0x29F3 JUMP JUMPDEST SWAP4 POP DUP4 PUSH1 0x20 DUP3 MUL DUP6 ADD PUSH2 0x2ADA DUP6 PUSH2 0x2A03 JUMP JUMPDEST DUP1 PUSH0 JUMPDEST DUP6 DUP2 LT ISZERO PUSH2 0x2B15 JUMPI DUP5 DUP5 SUB DUP10 MSTORE DUP2 MLOAD PUSH2 0x2AF6 DUP6 DUP3 PUSH2 0x2A95 JUMP JUMPDEST SWAP5 POP PUSH2 0x2B01 DUP4 PUSH2 0x2AA8 JUMP JUMPDEST SWAP3 POP PUSH1 0x20 DUP11 ADD SWAP10 POP POP PUSH1 0x1 DUP2 ADD SWAP1 POP PUSH2 0x2ADD JUMP JUMPDEST POP DUP3 SWAP8 POP DUP8 SWAP6 POP POP POP POP POP POP SWAP3 SWAP2 POP POP JUMP JUMPDEST PUSH0 DUP2 MLOAD SWAP1 POP SWAP2 SWAP1 POP JUMP JUMPDEST PUSH0 DUP3 DUP3 MSTORE PUSH1 0x20 DUP3 ADD SWAP1 POP SWAP3 SWAP2 POP POP JUMP JUMPDEST PUSH0 DUP2 SWAP1 POP PUSH1 0x20 DUP3 ADD SWAP1 POP SWAP2 SWAP1 POP JUMP JUMPDEST PUSH2 0x2B59 DUP2 PUSH2 0x2543 JUMP JUMPDEST DUP3 MSTORE POP POP JUMP JUMPDEST PUSH0 PUSH2 0x2B6A DUP4 DUP4 PUSH2 0x2B50 JUMP JUMPDEST PUSH1 0x20 DUP4 ADD SWAP1 POP SWAP3 SWAP2 POP POP JUMP JUMPDEST PUSH0 PUSH1 0x20 DUP3 ADD SWAP1 POP SWAP2 SWAP1 POP JUMP JUMPDEST PUSH0 PUSH2 0x2B8C DUP3 PUSH2 0x2B27 JUMP JUMPDEST PUSH2 0x2B96 DUP2 DUP6 PUSH2 0x2B31 JUMP JUMPDEST SWAP4 POP PUSH2 0x2BA1 DUP4 PUSH2 0x2B41 JUMP JUMPDEST DUP1 PUSH0 JUMPDEST DUP4 DUP2 LT ISZERO PUSH2 0x2BD1 JUMPI DUP2 MLOAD PUSH2 0x2BB8 DUP9 DUP3 PUSH2 0x2B5F JUMP JUMPDEST SWAP8 POP PUSH2 0x2BC3 DUP4 PUSH2 0x2B76 JUMP JUMPDEST SWAP3 POP POP PUSH1 0x1 DUP2 ADD SWAP1 POP PUSH2 0x2BA4 JUMP JUMPDEST POP DUP6 SWAP4 POP POP POP POP SWAP3 SWAP2 POP POP JUMP JUMPDEST PUSH0 PUSH1 0xA0 DUP3 ADD SWAP1 POP DUP2 DUP2 SUB PUSH0 DUP4 ADD MSTORE PUSH2 0x2BF6 DUP2 DUP9 PUSH2 0x2866 JUMP JUMPDEST SWAP1 POP DUP2 DUP2 SUB PUSH1 0x20 DUP4 ADD MSTORE PUSH2 0x2C0A DUP2 DUP8 PUSH2 0x276F JUMP JUMPDEST SWAP1 POP DUP2 DUP2 SUB PUSH1 0x40 DUP4 ADD MSTORE PUSH2 0x2C1E DUP2 DUP7 PUSH2 0x2AB4 JUMP JUMPDEST SWAP1 POP DUP2 DUP2 SUB PUSH1 0x60 DUP4 ADD MSTORE PUSH2 0x2C32 DUP2 DUP6 PUSH2 0x2866 JUMP JUMPDEST SWAP1 POP DUP2 DUP2 SUB PUSH1 0x80 DUP4 ADD MSTORE PUSH2 0x2C46 DUP2 DUP5 PUSH2 0x2B82 JUMP JUMPDEST SWAP1 POP SWAP7 SWAP6 POP POP POP POP POP POP JUMP JUMPDEST PUSH0 DUP1 PUSH1 0x40 DUP4 DUP6 SUB SLT ISZERO PUSH2 0x2C68 JUMPI PUSH2 0x2C67 PUSH2 0x23FD JUMP JUMPDEST JUMPDEST PUSH0 PUSH2 0x2C75 DUP6 DUP3 DUP7 ADD PUSH2 0x2510 JUMP JUMPDEST SWAP3 POP POP PUSH1 0x20 PUSH2 0x2C86 DUP6 DUP3 DUP7 ADD PUSH2 0x2488 JUMP JUMPDEST SWAP2 POP POP SWAP3 POP SWAP3 SWAP1 POP JUMP JUMPDEST PUSH0 PUSH1 0x20 DUP3 DUP5 SUB SLT ISZERO PUSH2 0x2CA5 JUMPI PUSH2 0x2CA4 PUSH2 0x23FD JUMP JUMPDEST JUMPDEST PUSH0 PUSH2 0x2CB2 DUP5 DUP3 DUP6 ADD PUSH2 0x256A JUMP JUMPDEST SWAP2 POP POP SWAP3 SWAP2 POP POP JUMP JUMPDEST PUSH0 PUSH1 0x80 DUP3 ADD SWAP1 POP DUP2 DUP2 SUB PUSH0 DUP4 ADD MSTORE PUSH2 0x2CD3 DUP2 DUP8 PUSH2 0x2866 JUMP JUMPDEST SWAP1 POP DUP2 DUP2 SUB PUSH1 0x20 DUP4 ADD MSTORE PUSH2 0x2CE7 DUP2 DUP7 PUSH2 0x276F JUMP JUMPDEST SWAP1 POP DUP2 DUP2 SUB PUSH1 0x40 DUP4 ADD MSTORE PUSH2 0x2CFB DUP2 DUP6 PUSH2 0x2866 JUMP JUMPDEST SWAP1 POP DUP2 DUP2 SUB PUSH1 0x60 DUP4 ADD MSTORE PUSH2 0x2D0F DUP2 DUP5 PUSH2 0x2AB4 JUMP JUMPDEST SWAP1 POP SWAP6 SWAP5 POP POP POP POP POP JUMP JUMPDEST PUSH32 0x4E6F7420617574686F72697A65642C206F6E6C79206F776E65722063616E2063 PUSH0 DUP3 ADD MSTORE PUSH32 0x7265617465206265747300000000000000000000000000000000000000000000 PUSH1 0x20 DUP3 ADD MSTORE POP JUMP JUMPDEST PUSH0 PUSH2 0x2D74 PUSH1 0x2A DUP4 PUSH2 0x2679 JUMP JUMPDEST SWAP2 POP PUSH2 0x2D7F DUP3 PUSH2 0x2D1A JUMP JUMPDEST PUSH1 0x40 DUP3 ADD SWAP1 POP SWAP2 SWAP1 POP JUMP JUMPDEST PUSH0 PUSH1 0x20 DUP3 ADD SWAP1 POP DUP2 DUP2 SUB PUSH0 DUP4 ADD MSTORE PUSH2 0x2DA1 DUP2 PUSH2 0x2D68 JUMP JUMPDEST SWAP1 POP SWAP2 SWAP1 POP JUMP JUMPDEST PUSH32 0x496E76616C6964206E756D626572206F66206F7074696F6E7300000000000000 PUSH0 DUP3 ADD MSTORE POP JUMP JUMPDEST PUSH0 PUSH2 0x2DDC PUSH1 0x19 DUP4 PUSH2 0x2679 JUMP JUMPDEST SWAP2 POP PUSH2 0x2DE7 DUP3 PUSH2 0x2DA8 JUMP JUMPDEST PUSH1 0x20 DUP3 ADD SWAP1 POP SWAP2 SWAP1 POP JUMP JUMPDEST PUSH0 PUSH1 0x20 DUP3 ADD SWAP1 POP DUP2 DUP2 SUB PUSH0 DUP4 ADD MSTORE PUSH2 0x2E09 DUP2 PUSH2 0x2DD0 JUMP JUMPDEST SWAP1 POP SWAP2 SWAP1 POP JUMP JUMPDEST PUSH32 0x4F7074696F6E206E616D6573206C656E677468206D69736D6174636800000000 PUSH0 DUP3 ADD MSTORE POP JUMP JUMPDEST PUSH0 PUSH2 0x2E44 PUSH1 0x1C DUP4 PUSH2 0x2679 JUMP JUMPDEST SWAP2 POP PUSH2 0x2E4F DUP3 PUSH2 0x2E10 JUMP JUMPDEST PUSH1 0x20 DUP3 ADD SWAP1 POP SWAP2 SWAP1 POP JUMP JUMPDEST PUSH0 PUSH1 0x20 DUP3 ADD SWAP1 POP DUP2 DUP2 SUB PUSH0 DUP4 ADD MSTORE PUSH2 0x2E71 DUP2 PUSH2 0x2E38 JUMP JUMPDEST SWAP1 POP SWAP2 SWAP1 POP JUMP JUMPDEST PUSH32 0x4E487B7100000000000000000000000000000000000000000000000000000000 PUSH0 MSTORE PUSH1 0x11 PUSH1 0x4 MSTORE PUSH1 0x24 PUSH0 REVERT JUMPDEST PUSH0 PUSH2 0x2EAF DUP3 PUSH2 0x24F1 JUMP JUMPDEST SWAP2 POP PUSH32 0xFFFFFFFFFFFFFFFFFFFFFFFFFFFFFFFFFFFFFFFFFFFFFFFFFFFFFFFFFFFFFFFF DUP3 SUB PUSH2 0x2EE1 JUMPI PUSH2 0x2EE0 PUSH2 0x2E78 JUMP JUMPDEST JUMPDEST PUSH1 0x1 DUP3 ADD SWAP1 POP SWAP2 SWAP1 POP JUMP JUMPDEST PUSH32 0x42657420696E7374616E63652077697468207468697320494420616C72656164 PUSH0 DUP3 ADD MSTORE PUSH32 0x7920657869737473000000000000000000000000000000000000000000000000 PUSH1 0x20 DUP3 ADD MSTORE POP JUMP JUMPDEST PUSH0 PUSH2 0x2F46 PUSH1 0x28 DUP4 PUSH2 0x2679 JUMP JUMPDEST SWAP2 POP PUSH2 0x2F51 DUP3 PUSH2 0x2EEC JUMP JUMPDEST PUSH1 0x40 DUP3 ADD SWAP1 POP SWAP2 SWAP1 POP JUMP JUMPDEST PUSH0 PUSH1 0x20 DUP3 ADD SWAP1 POP DUP2 DUP2 SUB PUSH0 DUP4 ADD MSTORE PUSH2 0x2F73 DUP2 PUSH2 0x2F3A JUMP JUMPDEST SWAP1 POP SWAP2 SWAP1 POP JUMP JUMPDEST PUSH0 DUP3 SWAP1 POP SWAP3 SWAP2 POP POP JUMP JUMPDEST PUSH32 0x4E487B7100000000000000000000000000000000000000000000000000000000 PUSH0 MSTORE PUSH1 0x41 PUSH1 0x4 MSTORE PUSH1 0x24 PUSH0 REVERT JUMPDEST PUSH32 0x4E487B7100000000000000000000000000000000000000000000000000000000 PUSH0 MSTORE PUSH1 0x22 PUSH1 0x4 MSTORE PUSH1 0x24 PUSH0 REVERT JUMPDEST PUSH0 PUSH1 0x2 DUP3 DIV SWAP1 POP PUSH1 0x1 DUP3 AND DUP1 PUSH2 0x2FF5 JUMPI PUSH1 0x7F DUP3 AND SWAP2 POP JUMPDEST PUSH1 0x20 DUP3 LT DUP2 SUB PUSH2 0x3008 JUMPI PUSH2 0x3007 PUSH2 0x2FB1 JUMP JUMPDEST JUMPDEST POP SWAP2 SWAP1 POP JUMP JUMPDEST PUSH0 DUP2 SWAP1 POP DUP2 PUSH0 MSTORE PUSH1 0x20 PUSH0 KECCAK256 SWAP1 POP SWAP2 SWAP1 POP JUMP JUMPDEST PUSH0 PUSH1 0x20 PUSH1 0x1F DUP4 ADD DIV SWAP1 POP SWAP2 SWAP1 POP JUMP JUMPDEST PUSH0 DUP3 DUP3 SHL SWAP1 POP SWAP3 SWAP2 POP POP JUMP JUMPDEST PUSH0 PUSH1 0x8 DUP4 MUL PUSH2 0x306A PUSH32 0xFFFFFFFFFFFFFFFFFFFFFFFFFFFFFFFFFFFFFFFFFFFFFFFFFFFFFFFFFFFFFFFF DUP3 PUSH2 0x302F JUMP JUMPDEST PUSH2 0x3074 DUP7 DUP4 PUSH2 0x302F JUMP JUMPDEST SWAP6 POP DUP1 NOT DUP5 AND SWAP4 POP DUP1 DUP7 AND DUP5 OR SWAP3 POP POP POP SWAP4 SWAP3 POP POP POP JUMP JUMPDEST PUSH0 DUP2 SWAP1 POP SWAP2 SWAP1 POP JUMP JUMPDEST PUSH0 PUSH2 0x30AF PUSH2 0x30AA PUSH2 0x30A5 DUP5 PUSH2 0x24F1 JUMP JUMPDEST PUSH2 0x308C JUMP JUMPDEST PUSH2 0x24F1 JUMP JUMPDEST SWAP1 POP SWAP2 SWAP1 POP JUMP JUMPDEST PUSH0 DUP2 SWAP1 POP SWAP2 SWAP1 POP JUMP JUMPDEST PUSH2 0x30C8 DUP4 PUSH2 0x3095 JUMP JUMPDEST PUSH2 0x30DC PUSH2 0x30D4 DUP3 PUSH2 0x30B6 JUMP JUMPDEST DUP5 DUP5 SLOAD PUSH2 0x303B JUMP JUMPDEST DUP3 SSTORE POP POP POP POP JUMP JUMPDEST PUSH0 SWAP1 JUMP JUMPDEST PUSH2 0x30F0 PUSH2 0x30E4 JUMP JUMPDEST PUSH2 0x30FB DUP2 DUP5 DUP5 PUSH2 0x30BF JUMP JUMPDEST POP POP POP JUMP JUMPDEST JUMPDEST DUP2 DUP2 LT ISZERO PUSH2 0x311E JUMPI PUSH2 0x3113 PUSH0 DUP3 PUSH2 0x30E8 JUMP JUMPDEST PUSH1 0x1 DUP2 ADD SWAP1 POP PUSH2 0x3101 JUMP JUMPDEST POP POP JUMP JUMPDEST PUSH1 0x1F DUP3 GT ISZERO PUSH2 0x3163 JUMPI PUSH2 0x3134 DUP2 PUSH2 0x300E JUMP JUMPDEST PUSH2 0x313D DUP5 PUSH2 0x3020 JUMP JUMPDEST DUP2 ADD PUSH1 0x20 DUP6 LT ISZERO PUSH2 0x314C JUMPI DUP2 SWAP1 POP JUMPDEST PUSH2 0x3160 PUSH2 0x3158 DUP6 PUSH2 0x3020 JUMP JUMPDEST DUP4 ADD DUP3 PUSH2 0x3100 JUMP JUMPDEST POP POP JUMPDEST POP POP POP JUMP JUMPDEST PUSH0 DUP3 DUP3 SHR SWAP1 POP SWAP3 SWAP2 POP POP JUMP JUMPDEST PUSH0 PUSH2 0x3183 PUSH0 NOT DUP5 PUSH1 0x8 MUL PUSH2 0x3168 JUMP JUMPDEST NOT DUP1 DUP4 AND SWAP2 POP POP SWAP3 SWAP2 POP POP JUMP JUMPDEST PUSH0 PUSH2 0x319B DUP4 DUP4 PUSH2 0x3174 JUMP JUMPDEST SWAP2 POP DUP3 PUSH1 0x2 MUL DUP3 OR SWAP1 POP SWAP3 SWAP2 POP POP JUMP JUMPDEST PUSH2 0x31B5 DUP4 DUP4 PUSH2 0x2F7A JUMP JUMPDEST PUSH8 0xFFFFFFFFFFFFFFFF DUP2 GT ISZERO PUSH2 0x31CE JUMPI PUSH2 0x31CD PUSH2 0x2F84 JUMP JUMPDEST JUMPDEST PUSH2 0x31D8 DUP3 SLOAD PUSH2 0x2FDE JUMP JUMPDEST PUSH2 0x31E3 DUP3 DUP3 DUP6 PUSH2 0x3122 JUMP JUMPDEST PUSH0 PUSH1 0x1F DUP4 GT PUSH1 0x1 DUP2 EQ PUSH2 0x3210 JUMPI PUSH0 DUP5 ISZERO PUSH2 0x31FE JUMPI DUP3 DUP8 ADD CALLDATALOAD SWAP1 POP JUMPDEST PUSH2 0x3208 DUP6 DUP3 PUSH2 0x3190 JUMP JUMPDEST DUP7 SSTORE POP PUSH2 0x326F JUMP JUMPDEST PUSH1 0x1F NOT DUP5 AND PUSH2 0x321E DUP7 PUSH2 0x300E JUMP JUMPDEST PUSH0 JUMPDEST DUP3 DUP2 LT ISZERO PUSH2 0x3245 JUMPI DUP5 DUP10 ADD CALLDATALOAD DUP3 SSTORE PUSH1 0x1 DUP3 ADD SWAP2 POP PUSH1 0x20 DUP6 ADD SWAP5 POP PUSH1 0x20 DUP2 ADD SWAP1 POP PUSH2 0x3220 JUMP JUMPDEST DUP7 DUP4 LT ISZERO PUSH2 0x3262 JUMPI DUP5 DUP10 ADD CALLDATALOAD PUSH2 0x325E PUSH1 0x1F DUP10 AND DUP3 PUSH2 0x3174 JUMP JUMPDEST DUP4 SSTORE POP JUMPDEST PUSH1 0x1 PUSH1 0x2 DUP9 MUL ADD DUP9 SSTORE POP POP POP JUMPDEST POP POP POP POP POP POP POP JUMP JUMPDEST PUSH32 0x4E487B7100000000000000000000000000000000000000000000000000000000 PUSH0 MSTORE PUSH1 0x32 PUSH1 0x4 MSTORE PUSH1 0x24 PUSH0 REVERT JUMPDEST PUSH0 DUP1 REVERT JUMPDEST PUSH0 DUP1 REVERT JUMPDEST PUSH0 DUP1 REVERT JUMPDEST PUSH0 DUP1 DUP4 CALLDATALOAD PUSH1 0x1 PUSH1 0x20 SUB DUP5 CALLDATASIZE SUB SUB DUP2 SLT PUSH2 0x32CD JUMPI PUSH2 0x32CC PUSH2 0x32A5 JUMP JUMPDEST JUMPDEST DUP1 DUP5 ADD SWAP3 POP DUP3 CALLDATALOAD SWAP2 POP PUSH8 0xFFFFFFFFFFFFFFFF DUP3 GT ISZERO PUSH2 0x32EF JUMPI PUSH2 0x32EE PUSH2 0x32A9 JUMP JUMPDEST JUMPDEST PUSH1 0x20 DUP4 ADD SWAP3 POP PUSH1 0x1 DUP3 MUL CALLDATASIZE SUB DUP4 SGT ISZERO PUSH2 0x330B JUMPI PUSH2 0x330A PUSH2 0x32AD JUMP JUMPDEST JUMPDEST POP SWAP3 POP SWAP3 SWAP1 POP JUMP JUMPDEST DUP3 DUP2 DUP4 CALLDATACOPY PUSH0 DUP4 DUP4 ADD MSTORE POP POP POP JUMP JUMPDEST PUSH0 PUSH2 0x332C DUP4 DUP6 PUSH2 0x2679 JUMP JUMPDEST SWAP4 POP PUSH2 0x3339 DUP4 DUP6 DUP5 PUSH2 0x3313 JUMP JUMPDEST PUSH2 0x3342 DUP4 PUSH2 0x2697 JUMP JUMPDEST DUP5 ADD SWAP1 POP SWAP4 SWAP3 POP POP POP JUMP JUMPDEST PUSH0 DUP2 SWAP1 POP SWAP2 SWAP1 POP JUMP JUMPDEST PUSH0 PUSH2 0x3361 DUP4 DUP6 PUSH2 0x2708 JUMP JUMPDEST SWAP4 POP PUSH2 0x336E DUP4 DUP6 DUP5 PUSH2 0x3313 JUMP JUMPDEST PUSH2 0x3377 DUP4 PUSH2 0x2697 JUMP JUMPDEST DUP5 ADD SWAP1 POP SWAP4 SWAP3 POP POP POP JUMP JUMPDEST PUSH0 PUSH2 0x338E DUP5 DUP5 DUP5 PUSH2 0x3356 JUMP JUMPDEST SWAP1 POP SWAP4 SWAP3 POP POP POP JUMP JUMPDEST PUSH0 DUP1 REVERT JUMPDEST PUSH0 DUP1 REVERT JUMPDEST PUSH0 DUP1 REVERT JUMPDEST PUSH0 DUP1 DUP4 CALLDATALOAD PUSH1 0x1 PUSH1 0x20 SUB DUP5 CALLDATASIZE SUB SUB DUP2 SLT PUSH2 0x33BF JUMPI PUSH2 0x33BE PUSH2 0x339F JUMP JUMPDEST JUMPDEST DUP4 DUP2 ADD SWAP3 POP DUP3 CALLDATALOAD SWAP2 POP PUSH1 0x20 DUP4 ADD SWAP3 POP PUSH8 0xFFFFFFFFFFFFFFFF DUP3 GT ISZERO PUSH2 0x33E7 JUMPI PUSH2 0x33E6 PUSH2 0x3397 JUMP JUMPDEST JUMPDEST PUSH1 0x1 DUP3 MUL CALLDATASIZE SUB DUP4 SGT ISZERO PUSH2 0x33FD JUMPI PUSH2 0x33FC PUSH2 0x339B JUMP JUMPDEST JUMPDEST POP SWAP3 POP SWAP3 SWAP1 POP JUMP JUMPDEST PUSH0 PUSH1 0x20 DUP3 ADD SWAP1 POP SWAP2 SWAP1 POP JUMP JUMPDEST PUSH0 PUSH2 0x341C DUP4 DUP6 PUSH2 0x26E9 JUMP JUMPDEST SWAP4 POP DUP4 PUSH1 0x20 DUP5 MUL DUP6 ADD PUSH2 0x342E DUP5 PUSH2 0x334D JUMP JUMPDEST DUP1 PUSH0 JUMPDEST DUP8 DUP2 LT ISZERO PUSH2 0x3473 JUMPI DUP5 DUP5 SUB DUP10 MSTORE PUSH2 0x3448 DUP3 DUP5 PUSH2 0x33A3 JUMP JUMPDEST PUSH2 0x3453 DUP7 DUP3 DUP5 PUSH2 0x3382 JUMP JUMPDEST SWAP6 POP PUSH2 0x345E DUP5 PUSH2 0x3405 JUMP JUMPDEST SWAP4 POP PUSH1 0x20 DUP12 ADD SWAP11 POP POP POP PUSH1 0x1 DUP2 ADD SWAP1 POP PUSH2 0x3431 JUMP JUMPDEST POP DUP3 SWAP8 POP DUP8 SWAP5 POP POP POP POP POP SWAP4 SWAP3 POP POP POP JUMP JUMPDEST PUSH0 PUSH1 0xA0 DUP3 ADD SWAP1 POP PUSH2 0x3498 PUSH0 DUP4 ADD DUP11 PUSH2 0x2660 JUMP JUMPDEST DUP2 DUP2 SUB PUSH1 0x20 DUP4 ADD MSTORE PUSH2 0x34AB DUP2 DUP9 DUP11 PUSH2 0x3321 JUMP JUMPDEST SWAP1 POP DUP2 DUP2 SUB PUSH1 0x40 DUP4 ADD MSTORE PUSH2 0x34C0 DUP2 DUP7 DUP9 PUSH2 0x3411 JUMP JUMPDEST SWAP1 POP PUSH2 0x34CF PUSH1 0x60 DUP4 ADD DUP6 PUSH2 0x27FC JUMP JUMPDEST PUSH2 0x34DC PUSH1 0x80 DUP4 ADD DUP5 PUSH2 0x2660 JUMP JUMPDEST SWAP9 SWAP8 POP POP POP POP POP POP POP POP JUMP JUMPDEST PUSH32 0x4E6F7420617574686F72697A6564000000000000000000000000000000000000 PUSH0 DUP3 ADD MSTORE POP JUMP JUMPDEST PUSH0 PUSH2 0x351C PUSH1 0xE DUP4 PUSH2 0x2679 JUMP JUMPDEST SWAP2 POP PUSH2 0x3527 DUP3 PUSH2 0x34E8 JUMP JUMPDEST PUSH1 0x20 DUP3 ADD SWAP1 POP SWAP2 SWAP1 POP JUMP JUMPDEST PUSH0 PUSH1 0x20 DUP3 ADD SWAP1 POP DUP2 DUP2 SUB PUSH0 DUP4 ADD MSTORE PUSH2 0x3549 DUP2 PUSH2 0x3510 JUMP JUMPDEST SWAP1 POP SWAP2 SWAP1 POP JUMP JUMPDEST PUSH32 0x42657474696E6720616C7265616479207265736F6C7665640000000000000000 PUSH0 DUP3 ADD MSTORE POP JUMP JUMPDEST PUSH0 PUSH2 0x3584 PUSH1 0x18 DUP4 PUSH2 0x2679 JUMP JUMPDEST SWAP2 POP PUSH2 0x358F DUP3 PUSH2 0x3550 JUMP JUMPDEST PUSH1 0x20 DUP3 ADD SWAP1 POP SWAP2 SWAP1 POP JUMP JUMPDEST PUSH0 PUSH1 0x20 DUP3 ADD SWAP1 POP DUP2 DUP2 SUB PUSH0 DUP4 ADD MSTORE PUSH2 0x35B1 DUP2 PUSH2 0x3578 JUMP JUMPDEST SWAP1 POP SWAP2 SWAP1 POP JUMP JUMPDEST PUSH0 PUSH2 0x35C2 DUP3 PUSH2 0x24F1 JUMP JUMPDEST SWAP2 POP PUSH2 0x35CD DUP4 PUSH2 0x24F1 JUMP JUMPDEST SWAP3 POP DUP3 DUP3 ADD SWAP1 POP DUP1 DUP3 GT ISZERO PUSH2 0x35E5 JUMPI PUSH2 0x35E4 PUSH2 0x2E78 JUMP JUMPDEST JUMPDEST SWAP3 SWAP2 POP POP JUMP JUMPDEST PUSH0 PUSH2 0x35F5 DUP3 PUSH2 0x2466 JUMP JUMPDEST SWAP2 POP PUSH1 0xFF DUP3 SUB PUSH2 0x3608 JUMPI PUSH2 0x3607 PUSH2 0x2E78 JUMP JUMPDEST JUMPDEST PUSH1 0x1 DUP3 ADD SWAP1 POP SWAP2 SWAP1 POP JUMP JUMPDEST PUSH32 0x4E487B7100000000000000000000000000000000000000000000000000000000 PUSH0 MSTORE PUSH1 0x12 PUSH1 0x4 MSTORE PUSH1 0x24 PUSH0 REVERT JUMPDEST PUSH0 PUSH2 0x364A DUP3 PUSH2 0x24F1 JUMP JUMPDEST SWAP2 POP PUSH2 0x3655 DUP4 PUSH2 0x24F1 JUMP JUMPDEST SWAP3 POP DUP3 PUSH2 0x3665 JUMPI PUSH2 0x3664 PUSH2 0x3613 JUMP JUMPDEST JUMPDEST DUP3 DUP3 DIV SWAP1 POP SWAP3 SWAP2 POP POP JUMP JUMPDEST PUSH0 PUSH2 0x367A DUP3 PUSH2 0x24F1 JUMP JUMPDEST SWAP2 POP PUSH2 0x3685 DUP4 PUSH2 0x24F1 JUMP JUMPDEST SWAP3 POP DUP3 DUP3 SUB SWAP1 POP DUP2 DUP2 GT ISZERO PUSH2 0x369D JUMPI PUSH2 0x369C PUSH2 0x2E78 JUMP JUMPDEST JUMPDEST SWAP3 SWAP2 POP POP JUMP JUMPDEST PUSH0 PUSH1 0x40 DUP3 ADD SWAP1 POP PUSH2 0x36B6 PUSH0 DUP4 ADD DUP6 PUSH2 0x2660 JUMP JUMPDEST PUSH2 0x36C3 PUSH1 0x20 DUP4 ADD DUP5 PUSH2 0x27FC JUMP JUMPDEST SWAP4 SWAP3 POP POP POP JUMP JUMPDEST PUSH2 0x36D3 DUP2 PUSH2 0x27E2 JUMP JUMPDEST DUP2 EQ PUSH2 0x36DD JUMPI PUSH0 DUP1 REVERT JUMPDEST POP JUMP JUMPDEST PUSH0 DUP2 MLOAD SWAP1 POP PUSH2 0x36EE DUP2 PUSH2 0x36CA JUMP JUMPDEST SWAP3 SWAP2 POP POP JUMP JUMPDEST PUSH0 PUSH1 0x20 DUP3 DUP5 SUB SLT ISZERO PUSH2 0x3709 JUMPI PUSH2 0x3708 PUSH2 0x23FD JUMP JUMPDEST JUMPDEST PUSH0 PUSH2 0x3716 DUP5 DUP3 DUP6 ADD PUSH2 0x36E0 JUMP JUMPDEST SWAP2 POP POP SWAP3 SWAP2 POP POP JUMP JUMPDEST PUSH32 0x466565207472616E73666572206661696C656400000000000000000000000000 PUSH0 DUP3 ADD MSTORE POP JUMP JUMPDEST PUSH0 PUSH2 0x3753 PUSH1 0x13 DUP4 PUSH2 0x2679 JUMP JUMPDEST SWAP2 POP PUSH2 0x375E DUP3 PUSH2 0x371F JUMP JUMPDEST PUSH1 0x20 DUP3 ADD SWAP1 POP SWAP2 SWAP1 POP JUMP JUMPDEST PUSH0 PUSH1 0x20 DUP3 ADD SWAP1 POP DUP2 DUP2 SUB PUSH0 DUP4 ADD MSTORE PUSH2 0x3780 DUP2 PUSH2 0x3747 JUMP JUMPDEST SWAP1 POP SWAP2 SWAP1 POP JUMP JUMPDEST PUSH32 0x43726561746F7220666565207472616E73666572206661696C65640000000000 PUSH0 DUP3 ADD MSTORE POP JUMP JUMPDEST PUSH0 PUSH2 0x37BB PUSH1 0x1B DUP4 PUSH2 0x2679 JUMP JUMPDEST SWAP2 POP PUSH2 0x37C6 DUP3 PUSH2 0x3787 JUMP JUMPDEST PUSH1 0x20 DUP3 ADD SWAP1 POP SWAP2 SWAP1 POP JUMP JUMPDEST PUSH0 PUSH1 0x20 DUP3 ADD SWAP1 POP DUP2 DUP2 SUB PUSH0 DUP4 ADD MSTORE PUSH2 0x37E8 DUP2 PUSH2 0x37AF JUMP JUMPDEST SWAP1 POP SWAP2 SWAP1 POP JUMP JUMPDEST PUSH0 PUSH2 0x37F9 DUP3 PUSH2 0x24F1 JUMP JUMPDEST SWAP2 POP PUSH2 0x3804 DUP4 PUSH2 0x24F1 JUMP JUMPDEST SWAP3 POP DUP3 DUP3 MUL PUSH2 0x3812 DUP2 PUSH2 0x24F1 JUMP JUMPDEST SWAP2 POP DUP3 DUP3 DIV DUP5 EQ DUP4 ISZERO OR PUSH2 0x3829 JUMPI PUSH2 0x3828 PUSH2 0x2E78 JUMP JUMPDEST JUMPDEST POP SWAP3 SWAP2 POP POP JUMP JUMPDEST PUSH32 0x426574746F72207472616E73666572206661696C656400000000000000000000 PUSH0 DUP3 ADD MSTORE POP JUMP JUMPDEST PUSH0 PUSH2 0x3864 PUSH1 0x16 DUP4 PUSH2 0x2679 JUMP JUMPDEST SWAP2 POP PUSH2 0x386F DUP3 PUSH2 0x3830 JUMP JUMPDEST PUSH1 0x20 DUP3 ADD SWAP1 POP SWAP2 SWAP1 POP JUMP JUMPDEST PUSH0 PUSH1 0x20 DUP3 ADD SWAP1 POP DUP2 DUP2 SUB PUSH0 DUP4 ADD MSTORE PUSH2 0x3891 DUP2 PUSH2 0x3858 JUMP JUMPDEST SWAP1 POP SWAP2 SWAP1 POP JUMP JUMPDEST PUSH32 0x42657474696E6720697320636C6F736564000000000000000000000000000000 PUSH0 DUP3 ADD MSTORE POP JUMP JUMPDEST PUSH0 PUSH2 0x38CC PUSH1 0x11 DUP4 PUSH2 0x2679 JUMP JUMPDEST SWAP2 POP PUSH2 0x38D7 DUP3 PUSH2 0x3898 JUMP JUMPDEST PUSH1 0x20 DUP3 ADD SWAP1 POP SWAP2 SWAP1 POP JUMP JUMPDEST PUSH0 PUSH1 0x20 DUP3 ADD SWAP1 POP DUP2 DUP2 SUB PUSH0 DUP4 ADD MSTORE PUSH2 0x38F9 DUP2 PUSH2 0x38C0 JUMP JUMPDEST SWAP1 POP SWAP2 SWAP1 POP JUMP JUMPDEST PUSH32 0x42657420616D6F756E74206973206C657373207468616E206D696E696D756D00 PUSH0 DUP3 ADD MSTORE POP JUMP JUMPDEST PUSH0 PUSH2 0x3934 PUSH1 0x1F DUP4 PUSH2 0x2679 JUMP JUMPDEST SWAP2 POP PUSH2 0x393F DUP3 PUSH2 0x3900 JUMP JUMPDEST PUSH1 0x20 DUP3 ADD SWAP1 POP SWAP2 SWAP1 POP JUMP JUMPDEST PUSH0 PUSH1 0x20 DUP3 ADD SWAP1 POP DUP2 DUP2 SUB PUSH0 DUP4 ADD MSTORE PUSH2 0x3961 DUP2 PUSH2 0x3928 JUMP JUMPDEST SWAP1 POP SWAP2 SWAP1 POP JUMP JUMPDEST PUSH32 0x496E76616C6964206F7074696F6E000000000000000000000000000000000000 PUSH0 DUP3 ADD MSTORE POP JUMP JUMPDEST PUSH0 PUSH2 0x399C PUSH1 0xE DUP4 PUSH2 0x2679 JUMP JUMPDEST SWAP2 POP PUSH2 0x39A7 DUP3 PUSH2 0x3968 JUMP JUMPDEST PUSH1 0x20 DUP3 ADD SWAP1 POP SWAP2 SWAP1 POP JUMP JUMPDEST PUSH0 PUSH1 0x20 DUP3 ADD SWAP1 POP DUP2 DUP2 SUB PUSH0 DUP4 ADD MSTORE PUSH2 0x39C9 DUP2 PUSH2 0x3990 JUMP JUMPDEST SWAP1 POP SWAP2 SWAP1 POP JUMP JUMPDEST PUSH0 PUSH1 0x60 DUP3 ADD SWAP1 POP PUSH2 0x39E3 PUSH0 DUP4 ADD DUP7 PUSH2 0x2660 JUMP JUMPDEST PUSH2 0x39F0 PUSH1 0x20 DUP4 ADD DUP6 PUSH2 0x2660 JUMP JUMPDEST PUSH2 0x39FD PUSH1 0x40 DUP4 ADD DUP5 PUSH2 0x27FC JUMP JUMPDEST SWAP5 SWAP4 POP POP POP POP JUMP JUMPDEST PUSH32 0x5472616E73666572206661696C65640000000000000000000000000000000000 PUSH0 DUP3 ADD MSTORE POP JUMP JUMPDEST PUSH0 PUSH2 0x3A39 PUSH1 0xF DUP4 PUSH2 0x2679 JUMP JUMPDEST SWAP2 POP PUSH2 0x3A44 DUP3 PUSH2 0x3A05 JUMP JUMPDEST PUSH1 0x20 DUP3 ADD SWAP1 POP SWAP2 SWAP1 POP JUMP JUMPDEST PUSH0 PUSH1 0x20 DUP3 ADD SWAP1 POP DUP2 DUP2 SUB PUSH0 DUP4 ADD MSTORE PUSH2 0x3A66 DUP2 PUSH2 0x3A2D JUMP JUMPDEST SWAP1 POP SWAP2 SWAP1 POP JUMP JUMPDEST PUSH0 PUSH2 0x3A77 DUP3 PUSH2 0x2466 JUMP JUMPDEST SWAP2 POP PUSH2 0x3A82 DUP4 PUSH2 0x2466 JUMP JUMPDEST SWAP3 POP DUP3 DUP3 SUB SWAP1 POP PUSH1 0xFF DUP2 GT ISZERO PUSH2 0x3A9B JUMPI PUSH2 0x3A9A PUSH2 0x2E78 JUMP JUMPDEST JUMPDEST SWAP3 SWAP2 POP POP JUMP JUMPDEST PUSH0 PUSH1 0x40 DUP3 ADD SWAP1 POP PUSH2 0x3AB4 PUSH0 DUP4 ADD DUP6 PUSH2 0x27FC JUMP JUMPDEST PUSH2 0x3AC1 PUSH1 0x20 DUP4 ADD DUP5 PUSH2 0x28C2 JUMP JUMPDEST SWAP4 SWAP3 POP POP POP JUMP JUMPDEST PUSH32 0x496E76616C69642077696E6E696E67206F7074696F6E00000000000000000000 PUSH0 DUP3 ADD MSTORE POP JUMP JUMPDEST PUSH0 PUSH2 0x3AFC PUSH1 0x16 DUP4 PUSH2 0x2679 JUMP JUMPDEST SWAP2 POP PUSH2 0x3B07 DUP3 PUSH2 0x3AC8 JUMP JUMPDEST PUSH1 0x20 DUP3 ADD SWAP1 POP SWAP2 SWAP1 POP JUMP JUMPDEST PUSH0 PUSH1 0x20 DUP3 ADD SWAP1 POP DUP2 DUP2 SUB PUSH0 DUP4 ADD MSTORE PUSH2 0x3B29 DUP2 PUSH2 0x3AF0 JUMP JUMPDEST SWAP1 POP SWAP2 SWAP1 POP JUMP JUMPDEST PUSH32 0x42657474696E67206D75737420626520636C6F73656420616E64206E6F742072 PUSH0 DUP3 ADD MSTORE PUSH32 0x65736F6C76656400000000000000000000000000000000000000000000000000 PUSH1 0x20 DUP3 ADD MSTORE POP JUMP JUMPDEST PUSH0 PUSH2 0x3B8A PUSH1 0x27 DUP4 PUSH2 0x2679 JUMP JUMPDEST SWAP2 POP PUSH2 0x3B95 DUP3 PUSH2 0x3B30 JUMP JUMPDEST PUSH1 0x40 DUP3 ADD SWAP1 POP SWAP2 SWAP1 POP JUMP JUMPDEST PUSH0 PUSH1 0x20 DUP3 ADD SWAP1 POP DUP2 DUP2 SUB PUSH0 DUP4 ADD MSTORE PUSH2 0x3BB7 DUP2 PUSH2 0x3B7E JUMP JUMPDEST SWAP1 POP SWAP2 SWAP1 POP JUMP JUMPDEST PUSH32 0x57696E6E6572207472616E73666572206661696C656400000000000000000000 PUSH0 DUP3 ADD MSTORE POP JUMP JUMPDEST PUSH0 PUSH2 0x3BF2 PUSH1 0x16 DUP4 PUSH2 0x2679 JUMP JUMPDEST SWAP2 POP PUSH2 0x3BFD DUP3 PUSH2 0x3BBE JUMP JUMPDEST PUSH1 0x20 DUP3 ADD SWAP1 POP SWAP2 SWAP1 POP JUMP JUMPDEST PUSH0 PUSH1 0x20 DUP3 ADD SWAP1 POP DUP2 DUP2 SUB PUSH0 DUP4 ADD MSTORE PUSH2 0x3C1F DUP2 PUSH2 0x3BE6 JUMP JUMPDEST SWAP1 POP SWAP2 SWAP1 POP JUMP JUMPDEST PUSH0 PUSH1 0x20 DUP3 ADD SWAP1 POP PUSH2 0x3C39 PUSH0 DUP4 ADD DUP5 PUSH2 0x28C2 JUMP JUMPDEST SWAP3 SWAP2 POP POP JUMP INVALID LOG2 PUSH5 0x6970667358 0x22 SLT KECCAK256 0x2B PUSH23 0x55F46CC2D319E7491AC2AC8CB1F9B0FDF9EF753857B936 DIV SWAP1 SWAP5 0xCF STATICCALL RETURN 0x28 PUSH5 0x736F6C6343 STOP ADDMOD BYTE STOP CALLER "
				},
				"gasEstimates": {
					"creation": {
						"codeDepositCost": "3095400",
						"executionCost": "49781",
						"totalCost": "3145181"
					},
					"external": {
						"cancelBet(uint256)": "infinite",
						"closeBetting(uint256)": "28244",
						"createBetInstance(string,uint8,string[],uint256,address)": "infinite",
						"distributeWinnings(uint256,uint8)": "infinite",
						"getAllOpenBets()": "infinite",
						"getBetInfo(uint256)": "infinite",
						"getOpenBetsByAddress(address)": "infinite",
						"owner()": "2572",
						"placeBet(uint256,uint256,uint8)": "infinite"
					}
				},
				"methodIdentifiers": {
					"cancelBet(uint256)": "357401f5",
					"closeBetting(uint256)": "b4ad06a1",
					"createBetInstance(string,uint8,string[],uint256,address)": "250e5adc",
					"distributeWinnings(uint256,uint8)": "f1368748",
					"getAllOpenBets()": "d65edb4d",
					"getBetInfo(uint256)": "79141f80",
					"getOpenBetsByAddress(address)": "f41408b5",
					"owner()": "8da5cb5b",
					"placeBet(uint256,uint256,uint8)": "9e14427e"
				}
			},
			"storageLayout": {
				"storage": [
					{
						"astId": 31,
						"contract": "packages/chainlink_smart_contracts/bet.sol:WagerlyPlatform",
						"label": "owner",
						"offset": 0,
						"slot": "0",
						"type": "t_address"
					},
					{
						"astId": 37,
						"contract": "packages/chainlink_smart_contracts/bet.sol:WagerlyPlatform",
						"label": "nextBetId",
						"offset": 0,
						"slot": "1",
						"type": "t_uint256"
					},
					{
						"astId": 81,
						"contract": "packages/chainlink_smart_contracts/bet.sol:WagerlyPlatform",
						"label": "betInstances",
						"offset": 0,
						"slot": "2",
						"type": "t_mapping(t_uint256,t_struct(BetInstance)76_storage)"
					}
				],
				"types": {
					"t_address": {
						"encoding": "inplace",
						"label": "address",
						"numberOfBytes": "20"
					},
					"t_array(t_address)dyn_storage": {
						"base": "t_address",
						"encoding": "dynamic_array",
						"label": "address[]",
						"numberOfBytes": "32"
					},
					"t_array(t_string_storage)dyn_storage": {
						"base": "t_string_storage",
						"encoding": "dynamic_array",
						"label": "string[]",
						"numberOfBytes": "32"
					},
					"t_array(t_struct(Bet)42_storage)dyn_storage": {
						"base": "t_struct(Bet)42_storage",
						"encoding": "dynamic_array",
						"label": "struct WagerlyPlatform.Bet[]",
						"numberOfBytes": "32"
					},
					"t_array(t_uint256)dyn_storage": {
						"base": "t_uint256",
						"encoding": "dynamic_array",
						"label": "uint256[]",
						"numberOfBytes": "32"
					},
					"t_bool": {
						"encoding": "inplace",
						"label": "bool",
						"numberOfBytes": "1"
					},
					"t_mapping(t_address,t_array(t_struct(Bet)42_storage)dyn_storage)": {
						"encoding": "mapping",
						"key": "t_address",
						"label": "mapping(address => struct WagerlyPlatform.Bet[])",
						"numberOfBytes": "32",
						"value": "t_array(t_struct(Bet)42_storage)dyn_storage"
					},
					"t_mapping(t_uint256,t_struct(BetInstance)76_storage)": {
						"encoding": "mapping",
						"key": "t_uint256",
						"label": "mapping(uint256 => struct WagerlyPlatform.BetInstance)",
						"numberOfBytes": "32",
						"value": "t_struct(BetInstance)76_storage"
					},
					"t_string_storage": {
						"encoding": "bytes",
						"label": "string",
						"numberOfBytes": "32"
					},
					"t_struct(Bet)42_storage": {
						"encoding": "inplace",
						"label": "struct WagerlyPlatform.Bet",
						"members": [
							{
								"astId": 39,
								"contract": "packages/chainlink_smart_contracts/bet.sol:WagerlyPlatform",
								"label": "bettor",
								"offset": 0,
								"slot": "0",
								"type": "t_address"
							},
							{
								"astId": 41,
								"contract": "packages/chainlink_smart_contracts/bet.sol:WagerlyPlatform",
								"label": "amount",
								"offset": 0,
								"slot": "1",
								"type": "t_uint256"
							}
						],
						"numberOfBytes": "64"
					},
					"t_struct(BetInstance)76_storage": {
						"encoding": "inplace",
						"label": "struct WagerlyPlatform.BetInstance",
						"members": [
							{
								"astId": 44,
								"contract": "packages/chainlink_smart_contracts/bet.sol:WagerlyPlatform",
								"label": "id",
								"offset": 0,
								"slot": "0",
								"type": "t_uint256"
							},
							{
								"astId": 46,
								"contract": "packages/chainlink_smart_contracts/bet.sol:WagerlyPlatform",
								"label": "title",
								"offset": 0,
								"slot": "1",
								"type": "t_string_storage"
							},
							{
								"astId": 49,
								"contract": "packages/chainlink_smart_contracts/bet.sol:WagerlyPlatform",
								"label": "options",
								"offset": 0,
								"slot": "2",
								"type": "t_array(t_string_storage)dyn_storage"
							},
							{
								"astId": 52,
								"contract": "packages/chainlink_smart_contracts/bet.sol:WagerlyPlatform",
								"label": "totalAmounts",
								"offset": 0,
								"slot": "3",
								"type": "t_array(t_uint256)dyn_storage"
							},
							{
								"astId": 54,
								"contract": "packages/chainlink_smart_contracts/bet.sol:WagerlyPlatform",
								"label": "minimumBetAmount",
								"offset": 0,
								"slot": "4",
								"type": "t_uint256"
							},
							{
								"astId": 56,
								"contract": "packages/chainlink_smart_contracts/bet.sol:WagerlyPlatform",
								"label": "tokenAddress",
								"offset": 0,
								"slot": "5",
								"type": "t_address"
							},
							{
								"astId": 62,
								"contract": "packages/chainlink_smart_contracts/bet.sol:WagerlyPlatform",
								"label": "bets",
								"offset": 0,
								"slot": "6",
								"type": "t_mapping(t_address,t_array(t_struct(Bet)42_storage)dyn_storage)"
							},
							{
								"astId": 65,
								"contract": "packages/chainlink_smart_contracts/bet.sol:WagerlyPlatform",
								"label": "bettors",
								"offset": 0,
								"slot": "7",
								"type": "t_array(t_address)dyn_storage"
							},
							{
								"astId": 67,
								"contract": "packages/chainlink_smart_contracts/bet.sol:WagerlyPlatform",
								"label": "creator",
								"offset": 0,
								"slot": "8",
								"type": "t_address"
							},
							{
								"astId": 69,
								"contract": "packages/chainlink_smart_contracts/bet.sol:WagerlyPlatform",
								"label": "isOpen",
								"offset": 20,
								"slot": "8",
								"type": "t_bool"
							},
							{
								"astId": 71,
								"contract": "packages/chainlink_smart_contracts/bet.sol:WagerlyPlatform",
								"label": "isResolved",
								"offset": 21,
								"slot": "8",
								"type": "t_bool"
							},
							{
								"astId": 73,
								"contract": "packages/chainlink_smart_contracts/bet.sol:WagerlyPlatform",
								"label": "winningOption",
								"offset": 22,
								"slot": "8",
								"type": "t_uint8"
							},
							{
								"astId": 75,
								"contract": "packages/chainlink_smart_contracts/bet.sol:WagerlyPlatform",
								"label": "isCanceled",
								"offset": 23,
								"slot": "8",
								"type": "t_bool"
							}
						],
						"numberOfBytes": "288"
					},
					"t_uint256": {
						"encoding": "inplace",
						"label": "uint256",
						"numberOfBytes": "32"
					},
					"t_uint8": {
						"encoding": "inplace",
						"label": "uint8",
						"numberOfBytes": "1"
					}
				}
			},
			"userdoc": {
				"kind": "user",
				"methods": {},
				"version": 1
			}
		}
	}
}