{
	"packages/kinto_smart_contracts/bet_kinto.sol": {
		"WagerlyKinto": {
			"abi": [
				{
					"inputs": [],
					"stateMutability": "nonpayable",
					"type": "constructor"
				},
				{
					"anonymous": false,
					"inputs": [
						{
							"indexed": true,
							"internalType": "uint256",
							"name": "betId",
							"type": "uint256"
						}
					],
					"name": "BetCancelled",
					"type": "event"
				},
				{
					"anonymous": false,
					"inputs": [
						{
							"indexed": false,
							"internalType": "address",
							"name": "creator",
							"type": "address"
						},
						{
							"indexed": true,
							"internalType": "uint256",
							"name": "betId",
							"type": "uint256"
						},
						{
							"indexed": false,
							"internalType": "string",
							"name": "title",
							"type": "string"
						},
						{
							"indexed": false,
							"internalType": "string[]",
							"name": "options",
							"type": "string[]"
						},
						{
							"indexed": false,
							"internalType": "uint256",
							"name": "minimumBetAmount",
							"type": "uint256"
						}
					],
					"name": "BetInstanceCreated",
					"type": "event"
				},
				{
					"anonymous": false,
					"inputs": [
						{
							"indexed": true,
							"internalType": "uint256",
							"name": "betId",
							"type": "uint256"
						},
						{
							"indexed": true,
							"internalType": "address",
							"name": "bettor",
							"type": "address"
						},
						{
							"indexed": false,
							"internalType": "uint256",
							"name": "amount",
							"type": "uint256"
						},
						{
							"indexed": false,
							"internalType": "uint8",
							"name": "option",
							"type": "uint8"
						}
					],
					"name": "BetPlaced",
					"type": "event"
				},
				{
					"anonymous": false,
					"inputs": [
						{
							"indexed": true,
							"internalType": "uint256",
							"name": "betId",
							"type": "uint256"
						}
					],
					"name": "BettingClosed",
					"type": "event"
				},
				{
					"anonymous": false,
					"inputs": [
						{
							"indexed": true,
							"internalType": "uint256",
							"name": "betId",
							"type": "uint256"
						},
						{
							"indexed": false,
							"internalType": "uint8",
							"name": "winningOption",
							"type": "uint8"
						}
					],
					"name": "BettingResolved",
					"type": "event"
				},
				{
					"inputs": [],
					"name": "KINTO_TOKEN_ADDRESS",
					"outputs": [
						{
							"internalType": "address",
							"name": "",
							"type": "address"
						}
					],
					"stateMutability": "view",
					"type": "function"
				},
				{
					"inputs": [
						{
							"internalType": "uint256",
							"name": "_betId",
							"type": "uint256"
						}
					],
					"name": "cancelBet",
					"outputs": [],
					"stateMutability": "nonpayable",
					"type": "function"
				},
				{
					"inputs": [
						{
							"internalType": "uint256",
							"name": "_betId",
							"type": "uint256"
						}
					],
					"name": "closeBetting",
					"outputs": [],
					"stateMutability": "nonpayable",
					"type": "function"
				},
				{
					"inputs": [
						{
							"internalType": "string",
							"name": "_title",
							"type": "string"
						},
						{
							"internalType": "uint8",
							"name": "_numOptions",
							"type": "uint8"
						},
						{
							"internalType": "string[]",
							"name": "_optionNames",
							"type": "string[]"
						},
						{
							"internalType": "uint256",
							"name": "_minimumBetAmount",
							"type": "uint256"
						}
					],
					"name": "createBetInstance",
					"outputs": [],
					"stateMutability": "nonpayable",
					"type": "function"
				},
				{
					"inputs": [
						{
							"internalType": "uint256",
							"name": "_betId",
							"type": "uint256"
						},
						{
							"internalType": "uint8",
							"name": "_winningOption",
							"type": "uint8"
						}
					],
					"name": "distributeWinnings",
					"outputs": [],
					"stateMutability": "nonpayable",
					"type": "function"
				},
				{
					"inputs": [],
					"name": "getAllOpenBets",
					"outputs": [
						{
							"internalType": "uint256[]",
							"name": "openBetIds",
							"type": "uint256[]"
						},
						{
							"internalType": "string[]",
							"name": "titles",
							"type": "string[]"
						},
						{
							"internalType": "string[][]",
							"name": "options",
							"type": "string[][]"
						},
						{
							"internalType": "uint256[]",
							"name": "minimumBetAmounts",
							"type": "uint256[]"
						},
						{
							"internalType": "address[]",
							"name": "creators",
							"type": "address[]"
						}
					],
					"stateMutability": "view",
					"type": "function"
				},
				{
					"inputs": [
						{
							"internalType": "uint256",
							"name": "_betId",
							"type": "uint256"
						}
					],
					"name": "getBetInfo",
					"outputs": [
						{
							"internalType": "address",
							"name": "creator",
							"type": "address"
						},
						{
							"internalType": "string",
							"name": "title",
							"type": "string"
						},
						{
							"internalType": "string[]",
							"name": "options",
							"type": "string[]"
						},
						{
							"internalType": "bool",
							"name": "isOpen",
							"type": "bool"
						},
						{
							"internalType": "bool",
							"name": "isResolved",
							"type": "bool"
						},
						{
							"internalType": "uint256",
							"name": "totalAmountBet",
							"type": "uint256"
						},
						{
							"internalType": "uint256[]",
							"name": "totalAmounts",
							"type": "uint256[]"
						},
						{
							"internalType": "uint8",
							"name": "winningOption",
							"type": "uint8"
						},
						{
							"internalType": "bool",
							"name": "isCanceled",
							"type": "bool"
						}
					],
					"stateMutability": "view",
					"type": "function"
				},
				{
					"inputs": [
						{
							"internalType": "address",
							"name": "_bettor",
							"type": "address"
						}
					],
					"name": "getOpenBetsByAddress",
					"outputs": [
						{
							"internalType": "uint256[]",
							"name": "openBetIds",
							"type": "uint256[]"
						},
						{
							"internalType": "string[]",
							"name": "titles",
							"type": "string[]"
						},
						{
							"internalType": "uint256[]",
							"name": "amounts",
							"type": "uint256[]"
						},
						{
							"internalType": "string[][]",
							"name": "options",
							"type": "string[][]"
						}
					],
					"stateMutability": "view",
					"type": "function"
				},
				{
					"inputs": [],
					"name": "owner",
					"outputs": [
						{
							"internalType": "address",
							"name": "",
							"type": "address"
						}
					],
					"stateMutability": "view",
					"type": "function"
				},
				{
					"inputs": [
						{
							"internalType": "uint256",
							"name": "_betId",
							"type": "uint256"
						},
						{
							"internalType": "uint256",
							"name": "_amount",
							"type": "uint256"
						},
						{
							"internalType": "uint8",
							"name": "_option",
							"type": "uint8"
						}
					],
					"name": "placeBet",
					"outputs": [],
					"stateMutability": "nonpayable",
					"type": "function"
				}
			],
			"devdoc": {
				"kind": "dev",
				"methods": {},
				"version": 1
			},
			"evm": {
				"assembly": "    /* \"packages/kinto_smart_contracts/bet_kinto.sol\":337:13675  contract WagerlyKinto {... */\n  mstore(0x40, 0x80)\n    /* \"packages/kinto_smart_contracts/bet_kinto.sol\":775:776  1 */\n  0x01\n    /* \"packages/kinto_smart_contracts/bet_kinto.sol\":747:776  uint256 private nextBetId = 1 */\n  dup1\n  sstore\n    /* \"packages/kinto_smart_contracts/bet_kinto.sol\":2878:2927  constructor() {... */\n  callvalue\n  dup1\n  iszero\n  tag_1\n  jumpi\n  0x00\n  dup1\n  revert\ntag_1:\n  pop\n    /* \"packages/kinto_smart_contracts/bet_kinto.sol\":2910:2920  msg.sender */\n  caller\n    /* \"packages/kinto_smart_contracts/bet_kinto.sol\":2902:2907  owner */\n  0x00\n  dup1\n    /* \"packages/kinto_smart_contracts/bet_kinto.sol\":2902:2920  owner = msg.sender */\n  0x0100\n  exp\n  dup2\n  sload\n  dup2\n  0xffffffffffffffffffffffffffffffffffffffff\n  mul\n  not\n  and\n  swap1\n  dup4\n  0xffffffffffffffffffffffffffffffffffffffff\n  and\n  mul\n  or\n  swap1\n  sstore\n  pop\n    /* \"packages/kinto_smart_contracts/bet_kinto.sol\":337:13675  contract WagerlyKinto {... */\n  dataSize(sub_0)\n  dup1\n  dataOffset(sub_0)\n  0x00\n  codecopy\n  0x00\n  return\nstop\n\nsub_0: assembly {\n        /* \"packages/kinto_smart_contracts/bet_kinto.sol\":337:13675  contract WagerlyKinto {... */\n      mstore(0x40, 0x80)\n      callvalue\n      dup1\n      iszero\n      tag_1\n      jumpi\n      0x00\n      dup1\n      revert\n    tag_1:\n      pop\n      jumpi(tag_2, lt(calldatasize, 0x04))\n      shr(0xe0, calldataload(0x00))\n      dup1\n      0xb4ad06a1\n      gt\n      tag_13\n      jumpi\n      dup1\n      0xb4ad06a1\n      eq\n      tag_8\n      jumpi\n      dup1\n      0xb9916adf\n      eq\n      tag_9\n      jumpi\n      dup1\n      0xd65edb4d\n      eq\n      tag_10\n      jumpi\n      dup1\n      0xf1368748\n      eq\n      tag_11\n      jumpi\n      dup1\n      0xf41408b5\n      eq\n      tag_12\n      jumpi\n      jump(tag_2)\n    tag_13:\n      dup1\n      0x1cfec6e0\n      eq\n      tag_3\n      jumpi\n      dup1\n      0x357401f5\n      eq\n      tag_4\n      jumpi\n      dup1\n      0x79141f80\n      eq\n      tag_5\n      jumpi\n      dup1\n      0x8da5cb5b\n      eq\n      tag_6\n      jumpi\n      dup1\n      0x9e14427e\n      eq\n      tag_7\n      jumpi\n    tag_2:\n      0x00\n      dup1\n      revert\n        /* \"packages/kinto_smart_contracts/bet_kinto.sol\":468:556  address public constant KINTO_TOKEN_ADDRESS = 0x010700808D59d2bb92257fCafACfe8e5bFF7aB87 */\n    tag_3:\n      tag_14\n      tag_15\n      jump\t// in\n    tag_14:\n      mload(0x40)\n      tag_16\n      swap2\n      swap1\n      tag_17\n      jump\t// in\n    tag_16:\n      mload(0x40)\n      dup1\n      swap2\n      sub\n      swap1\n      return\n        /* \"packages/kinto_smart_contracts/bet_kinto.sol\":7761:9281  function cancelBet(uint256 _betId) external onlyCreator(_betId) {... */\n    tag_4:\n      tag_18\n      0x04\n      dup1\n      calldatasize\n      sub\n      dup2\n      add\n      swap1\n      tag_19\n      swap2\n      swap1\n      tag_20\n      jump\t// in\n    tag_19:\n      tag_21\n      jump\t// in\n    tag_18:\n      stop\n        /* \"packages/kinto_smart_contracts/bet_kinto.sol\":9352:10559  function getBetInfo(uint256 _betId) external view returns (... */\n    tag_5:\n      tag_22\n      0x04\n      dup1\n      calldatasize\n      sub\n      dup2\n      add\n      swap1\n      tag_23\n      swap2\n      swap1\n      tag_20\n      jump\t// in\n    tag_23:\n      tag_24\n      jump\t// in\n    tag_22:\n      mload(0x40)\n      tag_25\n      swap10\n      swap9\n      swap8\n      swap7\n      swap6\n      swap5\n      swap4\n      swap3\n      swap2\n      swap1\n      tag_26\n      jump\t// in\n    tag_25:\n      mload(0x40)\n      dup1\n      swap2\n      sub\n      swap1\n      return\n        /* \"packages/kinto_smart_contracts/bet_kinto.sol\":394:414  address public owner */\n    tag_6:\n      tag_27\n      tag_28\n      jump\t// in\n    tag_27:\n      mload(0x40)\n      tag_29\n      swap2\n      swap1\n      tag_17\n      jump\t// in\n    tag_29:\n      mload(0x40)\n      dup1\n      swap2\n      sub\n      swap1\n      return\n        /* \"packages/kinto_smart_contracts/bet_kinto.sol\":4268:5239  function placeBet(uint256 _betId, uint256 _amount, uint8 _option) external {... */\n    tag_7:\n      tag_30\n      0x04\n      dup1\n      calldatasize\n      sub\n      dup2\n      add\n      swap1\n      tag_31\n      swap2\n      swap1\n      tag_32\n      jump\t// in\n    tag_31:\n      tag_33\n      jump\t// in\n    tag_30:\n      stop\n        /* \"packages/kinto_smart_contracts/bet_kinto.sol\":5331:5568  function closeBetting(uint256 _betId) external onlyCreator(_betId) {... */\n    tag_8:\n      tag_34\n      0x04\n      dup1\n      calldatasize\n      sub\n      dup2\n      add\n      swap1\n      tag_35\n      swap2\n      swap1\n      tag_20\n      jump\t// in\n    tag_35:\n      tag_36\n      jump\t// in\n    tag_34:\n      stop\n        /* \"packages/kinto_smart_contracts/bet_kinto.sol\":3009:4207  function createBetInstance(... */\n    tag_9:\n      tag_37\n      0x04\n      dup1\n      calldatasize\n      sub\n      dup2\n      add\n      swap1\n      tag_38\n      swap2\n      swap1\n      tag_39\n      jump\t// in\n    tag_38:\n      tag_40\n      jump\t// in\n    tag_37:\n      stop\n        /* \"packages/kinto_smart_contracts/bet_kinto.sol\":12279:13673  function getAllOpenBets() external view returns (... */\n    tag_10:\n      tag_41\n      tag_42\n      jump\t// in\n    tag_41:\n      mload(0x40)\n      tag_43\n      swap6\n      swap5\n      swap4\n      swap3\n      swap2\n      swap1\n      tag_44\n      jump\t// in\n    tag_43:\n      mload(0x40)\n      dup1\n      swap2\n      sub\n      swap1\n      return\n        /* \"packages/kinto_smart_contracts/bet_kinto.sol\":5639:7670  function distributeWinnings(uint256 _betId, uint8 _winningOption) external onlyCreator(_betId) {... */\n    tag_11:\n      tag_45\n      0x04\n      dup1\n      calldatasize\n      sub\n      dup2\n      add\n      swap1\n      tag_46\n      swap2\n      swap1\n      tag_47\n      jump\t// in\n    tag_46:\n      tag_48\n      jump\t// in\n    tag_45:\n      stop\n        /* \"packages/kinto_smart_contracts/bet_kinto.sol\":10630:12217  function getOpenBetsByAddress(address _bettor) external view returns (... */\n    tag_12:\n      tag_49\n      0x04\n      dup1\n      calldatasize\n      sub\n      dup2\n      add\n      swap1\n      tag_50\n      swap2\n      swap1\n      tag_51\n      jump\t// in\n    tag_50:\n      tag_52\n      jump\t// in\n    tag_49:\n      mload(0x40)\n      tag_53\n      swap5\n      swap4\n      swap3\n      swap2\n      swap1\n      tag_54\n      jump\t// in\n    tag_53:\n      mload(0x40)\n      dup1\n      swap2\n      sub\n      swap1\n      return\n        /* \"packages/kinto_smart_contracts/bet_kinto.sol\":468:556  address public constant KINTO_TOKEN_ADDRESS = 0x010700808D59d2bb92257fCafACfe8e5bFF7aB87 */\n    tag_15:\n        /* \"packages/kinto_smart_contracts/bet_kinto.sol\":514:556  0x010700808D59d2bb92257fCafACfe8e5bFF7aB87 */\n      0x010700808d59d2bb92257fcafacfe8e5bff7ab87\n        /* \"packages/kinto_smart_contracts/bet_kinto.sol\":468:556  address public constant KINTO_TOKEN_ADDRESS = 0x010700808D59d2bb92257fCafACfe8e5bFF7aB87 */\n      dup2\n      jump\t// out\n        /* \"packages/kinto_smart_contracts/bet_kinto.sol\":7761:9281  function cancelBet(uint256 _betId) external onlyCreator(_betId) {... */\n    tag_21:\n        /* \"packages/kinto_smart_contracts/bet_kinto.sol\":7817:7823  _betId */\n      dup1\n        /* \"packages/kinto_smart_contracts/bet_kinto.sol\":2500:2512  betInstances */\n      0x02\n        /* \"packages/kinto_smart_contracts/bet_kinto.sol\":2500:2520  betInstances[_betId] */\n      0x00\n        /* \"packages/kinto_smart_contracts/bet_kinto.sol\":2513:2519  _betId */\n      dup3\n        /* \"packages/kinto_smart_contracts/bet_kinto.sol\":2500:2520  betInstances[_betId] */\n      dup2\n      mstore\n      0x20\n      add\n      swap1\n      dup2\n      mstore\n      0x20\n      add\n      0x00\n      keccak256\n        /* \"packages/kinto_smart_contracts/bet_kinto.sol\":2500:2528  betInstances[_betId].creator */\n      0x07\n      add\n      0x00\n      swap1\n      sload\n      swap1\n      0x0100\n      exp\n      swap1\n      div\n      0xffffffffffffffffffffffffffffffffffffffff\n      and\n        /* \"packages/kinto_smart_contracts/bet_kinto.sol\":2486:2528  msg.sender != betInstances[_betId].creator */\n      0xffffffffffffffffffffffffffffffffffffffff\n      and\n        /* \"packages/kinto_smart_contracts/bet_kinto.sol\":2486:2496  msg.sender */\n      caller\n        /* \"packages/kinto_smart_contracts/bet_kinto.sol\":2486:2528  msg.sender != betInstances[_betId].creator */\n      0xffffffffffffffffffffffffffffffffffffffff\n      and\n      eq\n        /* \"packages/kinto_smart_contracts/bet_kinto.sol\":2482:2579  if (msg.sender != betInstances[_betId].creator) {... */\n      tag_56\n      jumpi\n        /* \"packages/kinto_smart_contracts/bet_kinto.sol\":2544:2568  revert(\"Not authorized\") */\n      mload(0x40)\n      0x08c379a000000000000000000000000000000000000000000000000000000000\n      dup2\n      mstore\n      0x04\n      add\n      tag_57\n      swap1\n      tag_58\n      jump\t// in\n    tag_57:\n      mload(0x40)\n      dup1\n      swap2\n      sub\n      swap1\n      revert\n        /* \"packages/kinto_smart_contracts/bet_kinto.sol\":2482:2579  if (msg.sender != betInstances[_betId].creator) {... */\n    tag_56:\n        /* \"packages/kinto_smart_contracts/bet_kinto.sol\":7835:7866  BetInstance storage betInstance */\n      0x00\n        /* \"packages/kinto_smart_contracts/bet_kinto.sol\":7869:7881  betInstances */\n      0x02\n        /* \"packages/kinto_smart_contracts/bet_kinto.sol\":7869:7889  betInstances[_betId] */\n      0x00\n        /* \"packages/kinto_smart_contracts/bet_kinto.sol\":7882:7888  _betId */\n      dup5\n        /* \"packages/kinto_smart_contracts/bet_kinto.sol\":7869:7889  betInstances[_betId] */\n      dup2\n      mstore\n      0x20\n      add\n      swap1\n      dup2\n      mstore\n      0x20\n      add\n      0x00\n      keccak256\n        /* \"packages/kinto_smart_contracts/bet_kinto.sol\":7835:7889  BetInstance storage betInstance = betInstances[_betId] */\n      swap1\n      pop\n        /* \"packages/kinto_smart_contracts/bet_kinto.sol\":7908:7919  betInstance */\n      dup1\n        /* \"packages/kinto_smart_contracts/bet_kinto.sol\":7908:7930  betInstance.isResolved */\n      0x07\n      add\n      0x15\n      swap1\n      sload\n      swap1\n      0x0100\n      exp\n      swap1\n      div\n      0xff\n      and\n        /* \"packages/kinto_smart_contracts/bet_kinto.sol\":7907:7930  !betInstance.isResolved */\n      iszero\n        /* \"packages/kinto_smart_contracts/bet_kinto.sol\":7899:7959  require(!betInstance.isResolved, \"Betting already resolved\") */\n      tag_60\n      jumpi\n      mload(0x40)\n      0x08c379a000000000000000000000000000000000000000000000000000000000\n      dup2\n      mstore\n      0x04\n      add\n      tag_61\n      swap1\n      tag_62\n      jump\t// in\n    tag_61:\n      mload(0x40)\n      dup1\n      swap2\n      sub\n      swap1\n      revert\n    tag_60:\n        /* \"packages/kinto_smart_contracts/bet_kinto.sol\":7994:7998  true */\n      0x01\n        /* \"packages/kinto_smart_contracts/bet_kinto.sol\":7969:7980  betInstance */\n      dup2\n        /* \"packages/kinto_smart_contracts/bet_kinto.sol\":7969:7991  betInstance.isCanceled */\n      0x07\n      add\n      0x17\n        /* \"packages/kinto_smart_contracts/bet_kinto.sol\":7969:7998  betInstance.isCanceled = true */\n      0x0100\n      exp\n      dup2\n      sload\n      dup2\n      0xff\n      mul\n      not\n      and\n      swap1\n      dup4\n      iszero\n      iszero\n      mul\n      or\n      swap1\n      sstore\n      pop\n        /* \"packages/kinto_smart_contracts/bet_kinto.sol\":8075:8087  IERC20 token */\n      0x00\n        /* \"packages/kinto_smart_contracts/bet_kinto.sol\":514:556  0x010700808D59d2bb92257fCafACfe8e5bFF7aB87 */\n      0x010700808d59d2bb92257fcafacfe8e5bff7ab87\n        /* \"packages/kinto_smart_contracts/bet_kinto.sol\":8075:8117  IERC20 token = IERC20(KINTO_TOKEN_ADDRESS) */\n      swap1\n      pop\n        /* \"packages/kinto_smart_contracts/bet_kinto.sol\":8184:8215  uint256 totalAmountToDistribute */\n      0x00\n        /* \"packages/kinto_smart_contracts/bet_kinto.sol\":8234:8241  uint8 i */\n      dup1\n        /* \"packages/kinto_smart_contracts/bet_kinto.sol\":8229:8368  for (uint8 i = 0; i < betInstance.totalAmounts.length; i++) {... */\n    tag_63:\n        /* \"packages/kinto_smart_contracts/bet_kinto.sol\":8251:8262  betInstance */\n      dup4\n        /* \"packages/kinto_smart_contracts/bet_kinto.sol\":8251:8275  betInstance.totalAmounts */\n      0x03\n      add\n        /* \"packages/kinto_smart_contracts/bet_kinto.sol\":8251:8282  betInstance.totalAmounts.length */\n      dup1\n      sload\n      swap1\n      pop\n        /* \"packages/kinto_smart_contracts/bet_kinto.sol\":8247:8248  i */\n      dup2\n        /* \"packages/kinto_smart_contracts/bet_kinto.sol\":8247:8282  i < betInstance.totalAmounts.length */\n      0xff\n      and\n      lt\n        /* \"packages/kinto_smart_contracts/bet_kinto.sol\":8229:8368  for (uint8 i = 0; i < betInstance.totalAmounts.length; i++) {... */\n      iszero\n      tag_64\n      jumpi\n        /* \"packages/kinto_smart_contracts/bet_kinto.sol\":8330:8341  betInstance */\n      dup4\n        /* \"packages/kinto_smart_contracts/bet_kinto.sol\":8330:8354  betInstance.totalAmounts */\n      0x03\n      add\n        /* \"packages/kinto_smart_contracts/bet_kinto.sol\":8355:8356  i */\n      dup2\n        /* \"packages/kinto_smart_contracts/bet_kinto.sol\":8330:8357  betInstance.totalAmounts[i] */\n      0xff\n      and\n      dup2\n      sload\n      dup2\n      lt\n      tag_66\n      jumpi\n      tag_67\n      tag_68\n      jump\t// in\n    tag_67:\n    tag_66:\n      swap1\n      0x00\n      mstore\n      keccak256(0x00, 0x20)\n      add\n      sload\n        /* \"packages/kinto_smart_contracts/bet_kinto.sol\":8303:8357  totalAmountToDistribute += betInstance.totalAmounts[i] */\n      dup3\n      tag_70\n      swap2\n      swap1\n      tag_71\n      jump\t// in\n    tag_70:\n      swap2\n      pop\n        /* \"packages/kinto_smart_contracts/bet_kinto.sol\":8284:8287  i++ */\n      dup1\n      dup1\n      tag_72\n      swap1\n      tag_73\n      jump\t// in\n    tag_72:\n      swap2\n      pop\n      pop\n        /* \"packages/kinto_smart_contracts/bet_kinto.sol\":8229:8368  for (uint8 i = 0; i < betInstance.totalAmounts.length; i++) {... */\n      jump(tag_63)\n    tag_64:\n      pop\n        /* \"packages/kinto_smart_contracts/bet_kinto.sol\":8378:8389  uint256 fee */\n      0x00\n        /* \"packages/kinto_smart_contracts/bet_kinto.sol\":8418:8421  100 */\n      0x64\n        /* \"packages/kinto_smart_contracts/bet_kinto.sol\":8392:8415  totalAmountToDistribute */\n      dup3\n        /* \"packages/kinto_smart_contracts/bet_kinto.sol\":8392:8421  totalAmountToDistribute / 100 */\n      tag_74\n      swap2\n      swap1\n      tag_75\n      jump\t// in\n    tag_74:\n        /* \"packages/kinto_smart_contracts/bet_kinto.sol\":8378:8421  uint256 fee = totalAmountToDistribute / 100 */\n      swap1\n      pop\n        /* \"packages/kinto_smart_contracts/bet_kinto.sol\":8431:8449  uint256 creatorFee */\n      0x00\n        /* \"packages/kinto_smart_contracts/bet_kinto.sol\":8452:8455  fee */\n      dup2\n        /* \"packages/kinto_smart_contracts/bet_kinto.sol\":8431:8455  uint256 creatorFee = fee */\n      swap1\n      pop\n        /* \"packages/kinto_smart_contracts/bet_kinto.sol\":8465:8488  uint256 remainingAmount */\n      0x00\n        /* \"packages/kinto_smart_contracts/bet_kinto.sol\":8523:8533  creatorFee */\n      dup2\n        /* \"packages/kinto_smart_contracts/bet_kinto.sol\":8517:8520  fee */\n      dup4\n        /* \"packages/kinto_smart_contracts/bet_kinto.sol\":8491:8514  totalAmountToDistribute */\n      dup6\n        /* \"packages/kinto_smart_contracts/bet_kinto.sol\":8491:8520  totalAmountToDistribute - fee */\n      tag_76\n      swap2\n      swap1\n      tag_77\n      jump\t// in\n    tag_76:\n        /* \"packages/kinto_smart_contracts/bet_kinto.sol\":8491:8533  totalAmountToDistribute - fee - creatorFee */\n      tag_78\n      swap2\n      swap1\n      tag_77\n      jump\t// in\n    tag_78:\n        /* \"packages/kinto_smart_contracts/bet_kinto.sol\":8465:8533  uint256 remainingAmount = totalAmountToDistribute - fee - creatorFee */\n      swap1\n      pop\n        /* \"packages/kinto_smart_contracts/bet_kinto.sol\":8552:8557  token */\n      dup5\n        /* \"packages/kinto_smart_contracts/bet_kinto.sol\":8552:8566  token.transfer */\n      0xffffffffffffffffffffffffffffffffffffffff\n      and\n      0xa9059cbb\n        /* \"packages/kinto_smart_contracts/bet_kinto.sol\":660:702  0x9b63FA365019Dd7bdF8cBED2823480F808391970 */\n      0x9b63fa365019dd7bdf8cbed2823480f808391970\n        /* \"packages/kinto_smart_contracts/bet_kinto.sol\":8580:8583  fee */\n      dup6\n        /* \"packages/kinto_smart_contracts/bet_kinto.sol\":8552:8584  token.transfer(FEE_ADDRESS, fee) */\n      mload(0x40)\n      dup4\n      0xffffffff\n      and\n      0xe0\n      shl\n      dup2\n      mstore\n      0x04\n      add\n      tag_79\n      swap3\n      swap2\n      swap1\n      tag_80\n      jump\t// in\n    tag_79:\n      0x20\n      mload(0x40)\n      dup1\n      dup4\n      sub\n      dup2\n      0x00\n      dup8\n      gas\n      call\n      iszero\n      dup1\n      iszero\n      tag_82\n      jumpi\n      returndatasize\n      0x00\n      dup1\n      returndatacopy\n      revert(0x00, returndatasize)\n    tag_82:\n      pop\n      pop\n      pop\n      pop\n      mload(0x40)\n      returndatasize\n      not(0x1f)\n      0x1f\n      dup3\n      add\n      and\n      dup3\n      add\n      dup1\n      0x40\n      mstore\n      pop\n      dup2\n      add\n      swap1\n      tag_83\n      swap2\n      swap1\n      tag_84\n      jump\t// in\n    tag_83:\n        /* \"packages/kinto_smart_contracts/bet_kinto.sol\":8544:8608  require(token.transfer(FEE_ADDRESS, fee), \"Fee transfer failed\") */\n      tag_85\n      jumpi\n      mload(0x40)\n      0x08c379a000000000000000000000000000000000000000000000000000000000\n      dup2\n      mstore\n      0x04\n      add\n      tag_86\n      swap1\n      tag_87\n      jump\t// in\n    tag_86:\n      mload(0x40)\n      dup1\n      swap2\n      sub\n      swap1\n      revert\n    tag_85:\n        /* \"packages/kinto_smart_contracts/bet_kinto.sol\":8626:8631  token */\n      dup5\n        /* \"packages/kinto_smart_contracts/bet_kinto.sol\":8626:8640  token.transfer */\n      0xffffffffffffffffffffffffffffffffffffffff\n      and\n      0xa9059cbb\n        /* \"packages/kinto_smart_contracts/bet_kinto.sol\":8641:8652  betInstance */\n      dup8\n        /* \"packages/kinto_smart_contracts/bet_kinto.sol\":8641:8660  betInstance.creator */\n      0x07\n      add\n      0x00\n      swap1\n      sload\n      swap1\n      0x0100\n      exp\n      swap1\n      div\n      0xffffffffffffffffffffffffffffffffffffffff\n      and\n        /* \"packages/kinto_smart_contracts/bet_kinto.sol\":8662:8672  creatorFee */\n      dup5\n        /* \"packages/kinto_smart_contracts/bet_kinto.sol\":8626:8673  token.transfer(betInstance.creator, creatorFee) */\n      mload(0x40)\n      dup4\n      0xffffffff\n      and\n      0xe0\n      shl\n      dup2\n      mstore\n      0x04\n      add\n      tag_88\n      swap3\n      swap2\n      swap1\n      tag_80\n      jump\t// in\n    tag_88:\n      0x20\n      mload(0x40)\n      dup1\n      dup4\n      sub\n      dup2\n      0x00\n      dup8\n      gas\n      call\n      iszero\n      dup1\n      iszero\n      tag_90\n      jumpi\n      returndatasize\n      0x00\n      dup1\n      returndatacopy\n      revert(0x00, returndatasize)\n    tag_90:\n      pop\n      pop\n      pop\n      pop\n      mload(0x40)\n      returndatasize\n      not(0x1f)\n      0x1f\n      dup3\n      add\n      and\n      dup3\n      add\n      dup1\n      0x40\n      mstore\n      pop\n      dup2\n      add\n      swap1\n      tag_91\n      swap2\n      swap1\n      tag_84\n      jump\t// in\n    tag_91:\n        /* \"packages/kinto_smart_contracts/bet_kinto.sol\":8618:8705  require(token.transfer(betInstance.creator, creatorFee), \"Creator fee transfer failed\") */\n      tag_92\n      jumpi\n      mload(0x40)\n      0x08c379a000000000000000000000000000000000000000000000000000000000\n      dup2\n      mstore\n      0x04\n      add\n      tag_93\n      swap1\n      tag_94\n      jump\t// in\n    tag_93:\n      mload(0x40)\n      dup1\n      swap2\n      sub\n      swap1\n      revert\n    tag_92:\n        /* \"packages/kinto_smart_contracts/bet_kinto.sol\":8751:8760  uint256 i */\n      0x00\n        /* \"packages/kinto_smart_contracts/bet_kinto.sol\":8746:9239  for (uint256 i = 0; i < betInstance.bettors.length; i++) {... */\n    tag_95:\n        /* \"packages/kinto_smart_contracts/bet_kinto.sol\":8770:8781  betInstance */\n      dup7\n        /* \"packages/kinto_smart_contracts/bet_kinto.sol\":8770:8789  betInstance.bettors */\n      0x06\n      add\n        /* \"packages/kinto_smart_contracts/bet_kinto.sol\":8770:8796  betInstance.bettors.length */\n      dup1\n      sload\n      swap1\n      pop\n        /* \"packages/kinto_smart_contracts/bet_kinto.sol\":8766:8767  i */\n      dup2\n        /* \"packages/kinto_smart_contracts/bet_kinto.sol\":8766:8796  i < betInstance.bettors.length */\n      lt\n        /* \"packages/kinto_smart_contracts/bet_kinto.sol\":8746:9239  for (uint256 i = 0; i < betInstance.bettors.length; i++) {... */\n      iszero\n      tag_96\n      jumpi\n        /* \"packages/kinto_smart_contracts/bet_kinto.sol\":8817:8831  address bettor */\n      0x00\n        /* \"packages/kinto_smart_contracts/bet_kinto.sol\":8834:8845  betInstance */\n      dup8\n        /* \"packages/kinto_smart_contracts/bet_kinto.sol\":8834:8853  betInstance.bettors */\n      0x06\n      add\n        /* \"packages/kinto_smart_contracts/bet_kinto.sol\":8854:8855  i */\n      dup3\n        /* \"packages/kinto_smart_contracts/bet_kinto.sol\":8834:8856  betInstance.bettors[i] */\n      dup2\n      sload\n      dup2\n      lt\n      tag_98\n      jumpi\n      tag_99\n      tag_68\n      jump\t// in\n    tag_99:\n    tag_98:\n      swap1\n      0x00\n      mstore\n      keccak256(0x00, 0x20)\n      add\n      0x00\n      swap1\n      sload\n      swap1\n      0x0100\n      exp\n      swap1\n      div\n      0xffffffffffffffffffffffffffffffffffffffff\n      and\n        /* \"packages/kinto_smart_contracts/bet_kinto.sol\":8817:8856  address bettor = betInstance.bettors[i] */\n      swap1\n      pop\n        /* \"packages/kinto_smart_contracts/bet_kinto.sol\":8870:8888  Bet[] storage bets */\n      0x00\n        /* \"packages/kinto_smart_contracts/bet_kinto.sol\":8891:8902  betInstance */\n      dup9\n        /* \"packages/kinto_smart_contracts/bet_kinto.sol\":8891:8907  betInstance.bets */\n      0x05\n      add\n        /* \"packages/kinto_smart_contracts/bet_kinto.sol\":8891:8915  betInstance.bets[bettor] */\n      0x00\n        /* \"packages/kinto_smart_contracts/bet_kinto.sol\":8908:8914  bettor */\n      dup4\n        /* \"packages/kinto_smart_contracts/bet_kinto.sol\":8891:8915  betInstance.bets[bettor] */\n      0xffffffffffffffffffffffffffffffffffffffff\n      and\n      0xffffffffffffffffffffffffffffffffffffffff\n      and\n      dup2\n      mstore\n      0x20\n      add\n      swap1\n      dup2\n      mstore\n      0x20\n      add\n      0x00\n      keccak256\n        /* \"packages/kinto_smart_contracts/bet_kinto.sol\":8870:8915  Bet[] storage bets = betInstance.bets[bettor] */\n      swap1\n      pop\n        /* \"packages/kinto_smart_contracts/bet_kinto.sol\":8934:8941  uint8 j */\n      0x00\n        /* \"packages/kinto_smart_contracts/bet_kinto.sol\":8929:9229  for (uint8 j = 0; j < bets.length; j++) {... */\n    tag_101:\n        /* \"packages/kinto_smart_contracts/bet_kinto.sol\":8951:8955  bets */\n      dup2\n        /* \"packages/kinto_smart_contracts/bet_kinto.sol\":8951:8962  bets.length */\n      dup1\n      sload\n      swap1\n      pop\n        /* \"packages/kinto_smart_contracts/bet_kinto.sol\":8947:8948  j */\n      dup2\n        /* \"packages/kinto_smart_contracts/bet_kinto.sol\":8947:8962  j < bets.length */\n      0xff\n      and\n      lt\n        /* \"packages/kinto_smart_contracts/bet_kinto.sol\":8929:9229  for (uint8 j = 0; j < bets.length; j++) {... */\n      iszero\n      tag_102\n      jumpi\n        /* \"packages/kinto_smart_contracts/bet_kinto.sol\":8987:9004  uint256 betAmount */\n      0x00\n        /* \"packages/kinto_smart_contracts/bet_kinto.sol\":9007:9011  bets */\n      dup3\n        /* \"packages/kinto_smart_contracts/bet_kinto.sol\":9012:9013  j */\n      dup3\n        /* \"packages/kinto_smart_contracts/bet_kinto.sol\":9007:9014  bets[j] */\n      0xff\n      and\n      dup2\n      sload\n      dup2\n      lt\n      tag_104\n      jumpi\n      tag_105\n      tag_68\n      jump\t// in\n    tag_105:\n    tag_104:\n      swap1\n      0x00\n      mstore\n      keccak256(0x00, 0x20)\n      swap1\n      0x02\n      mul\n      add\n        /* \"packages/kinto_smart_contracts/bet_kinto.sol\":9007:9021  bets[j].amount */\n      0x01\n      add\n      sload\n        /* \"packages/kinto_smart_contracts/bet_kinto.sol\":8987:9021  uint256 betAmount = bets[j].amount */\n      swap1\n      pop\n        /* \"packages/kinto_smart_contracts/bet_kinto.sol\":9039:9063  uint256 amountToTransfer */\n      0x00\n        /* \"packages/kinto_smart_contracts/bet_kinto.sol\":9098:9121  totalAmountToDistribute */\n      dup10\n        /* \"packages/kinto_smart_contracts/bet_kinto.sol\":9079:9094  remainingAmount */\n      dup8\n        /* \"packages/kinto_smart_contracts/bet_kinto.sol\":9067:9076  betAmount */\n      dup4\n        /* \"packages/kinto_smart_contracts/bet_kinto.sol\":9067:9094  betAmount * remainingAmount */\n      tag_107\n      swap2\n      swap1\n      tag_108\n      jump\t// in\n    tag_107:\n        /* \"packages/kinto_smart_contracts/bet_kinto.sol\":9066:9121  (betAmount * remainingAmount) / totalAmountToDistribute */\n      tag_109\n      swap2\n      swap1\n      tag_75\n      jump\t// in\n    tag_109:\n        /* \"packages/kinto_smart_contracts/bet_kinto.sol\":9039:9121  uint256 amountToTransfer = (betAmount * remainingAmount) / totalAmountToDistribute */\n      swap1\n      pop\n        /* \"packages/kinto_smart_contracts/bet_kinto.sol\":9147:9152  token */\n      dup11\n        /* \"packages/kinto_smart_contracts/bet_kinto.sol\":9147:9161  token.transfer */\n      0xffffffffffffffffffffffffffffffffffffffff\n      and\n      0xa9059cbb\n        /* \"packages/kinto_smart_contracts/bet_kinto.sol\":9162:9168  bettor */\n      dup7\n        /* \"packages/kinto_smart_contracts/bet_kinto.sol\":9170:9186  amountToTransfer */\n      dup4\n        /* \"packages/kinto_smart_contracts/bet_kinto.sol\":9147:9187  token.transfer(bettor, amountToTransfer) */\n      mload(0x40)\n      dup4\n      0xffffffff\n      and\n      0xe0\n      shl\n      dup2\n      mstore\n      0x04\n      add\n      tag_110\n      swap3\n      swap2\n      swap1\n      tag_80\n      jump\t// in\n    tag_110:\n      0x20\n      mload(0x40)\n      dup1\n      dup4\n      sub\n      dup2\n      0x00\n      dup8\n      gas\n      call\n      iszero\n      dup1\n      iszero\n      tag_112\n      jumpi\n      returndatasize\n      0x00\n      dup1\n      returndatacopy\n      revert(0x00, returndatasize)\n    tag_112:\n      pop\n      pop\n      pop\n      pop\n      mload(0x40)\n      returndatasize\n      not(0x1f)\n      0x1f\n      dup3\n      add\n      and\n      dup3\n      add\n      dup1\n      0x40\n      mstore\n      pop\n      dup2\n      add\n      swap1\n      tag_113\n      swap2\n      swap1\n      tag_84\n      jump\t// in\n    tag_113:\n        /* \"packages/kinto_smart_contracts/bet_kinto.sol\":9139:9214  require(token.transfer(bettor, amountToTransfer), \"Bettor transfer failed\") */\n      tag_114\n      jumpi\n      mload(0x40)\n      0x08c379a000000000000000000000000000000000000000000000000000000000\n      dup2\n      mstore\n      0x04\n      add\n      tag_115\n      swap1\n      tag_116\n      jump\t// in\n    tag_115:\n      mload(0x40)\n      dup1\n      swap2\n      sub\n      swap1\n      revert\n    tag_114:\n        /* \"packages/kinto_smart_contracts/bet_kinto.sol\":8969:9229  {... */\n      pop\n      pop\n        /* \"packages/kinto_smart_contracts/bet_kinto.sol\":8964:8967  j++ */\n      dup1\n      dup1\n      tag_117\n      swap1\n      tag_73\n      jump\t// in\n    tag_117:\n      swap2\n      pop\n      pop\n        /* \"packages/kinto_smart_contracts/bet_kinto.sol\":8929:9229  for (uint8 j = 0; j < bets.length; j++) {... */\n      jump(tag_101)\n    tag_102:\n      pop\n        /* \"packages/kinto_smart_contracts/bet_kinto.sol\":8803:9239  {... */\n      pop\n      pop\n        /* \"packages/kinto_smart_contracts/bet_kinto.sol\":8798:8801  i++ */\n      dup1\n      dup1\n      0x01\n      add\n      swap2\n      pop\n      pop\n        /* \"packages/kinto_smart_contracts/bet_kinto.sol\":8746:9239  for (uint256 i = 0; i < betInstance.bettors.length; i++) {... */\n      jump(tag_95)\n    tag_96:\n      pop\n        /* \"packages/kinto_smart_contracts/bet_kinto.sol\":9267:9273  _betId */\n      dup8\n        /* \"packages/kinto_smart_contracts/bet_kinto.sol\":9254:9274  BetCancelled(_betId) */\n      0xe3906e8d1e2167ef706b023e6e83af697db5cd38f233c71bf5021b26b316c3a2\n      mload(0x40)\n      mload(0x40)\n      dup1\n      swap2\n      sub\n      swap1\n      log2\n        /* \"packages/kinto_smart_contracts/bet_kinto.sol\":7825:9281  {... */\n      pop\n      pop\n      pop\n      pop\n      pop\n      pop\n        /* \"packages/kinto_smart_contracts/bet_kinto.sol\":7761:9281  function cancelBet(uint256 _betId) external onlyCreator(_betId) {... */\n      pop\n      pop\n      jump\t// out\n        /* \"packages/kinto_smart_contracts/bet_kinto.sol\":9352:10559  function getBetInfo(uint256 _betId) external view returns (... */\n    tag_24:\n        /* \"packages/kinto_smart_contracts/bet_kinto.sol\":9420:9435  address creator */\n      0x00\n        /* \"packages/kinto_smart_contracts/bet_kinto.sol\":9445:9464  string memory title */\n      0x60\n        /* \"packages/kinto_smart_contracts/bet_kinto.sol\":9474:9497  string[] memory options */\n      dup1\n        /* \"packages/kinto_smart_contracts/bet_kinto.sol\":9507:9518  bool isOpen */\n      0x00\n        /* \"packages/kinto_smart_contracts/bet_kinto.sol\":9528:9543  bool isResolved */\n      dup1\n        /* \"packages/kinto_smart_contracts/bet_kinto.sol\":9553:9575  uint256 totalAmountBet */\n      0x00\n        /* \"packages/kinto_smart_contracts/bet_kinto.sol\":9585:9614  uint256[] memory totalAmounts */\n      0x60\n        /* \"packages/kinto_smart_contracts/bet_kinto.sol\":9624:9643  uint8 winningOption */\n      0x00\n        /* \"packages/kinto_smart_contracts/bet_kinto.sol\":9653:9668  bool isCanceled */\n      dup1\n        /* \"packages/kinto_smart_contracts/bet_kinto.sol\":9685:9716  BetInstance storage betInstance */\n      0x00\n        /* \"packages/kinto_smart_contracts/bet_kinto.sol\":9719:9731  betInstances */\n      0x02\n        /* \"packages/kinto_smart_contracts/bet_kinto.sol\":9719:9739  betInstances[_betId] */\n      0x00\n        /* \"packages/kinto_smart_contracts/bet_kinto.sol\":9732:9738  _betId */\n      dup13\n        /* \"packages/kinto_smart_contracts/bet_kinto.sol\":9719:9739  betInstances[_betId] */\n      dup2\n      mstore\n      0x20\n      add\n      swap1\n      dup2\n      mstore\n      0x20\n      add\n      0x00\n      keccak256\n        /* \"packages/kinto_smart_contracts/bet_kinto.sol\":9685:9739  BetInstance storage betInstance = betInstances[_betId] */\n      swap1\n      pop\n        /* \"packages/kinto_smart_contracts/bet_kinto.sol\":9760:9771  betInstance */\n      dup1\n        /* \"packages/kinto_smart_contracts/bet_kinto.sol\":9760:9779  betInstance.creator */\n      0x07\n      add\n      0x00\n      swap1\n      sload\n      swap1\n      0x0100\n      exp\n      swap1\n      div\n      0xffffffffffffffffffffffffffffffffffffffff\n      and\n        /* \"packages/kinto_smart_contracts/bet_kinto.sol\":9750:9779  creator = betInstance.creator */\n      swap10\n      pop\n        /* \"packages/kinto_smart_contracts/bet_kinto.sol\":9797:9808  betInstance */\n      dup1\n        /* \"packages/kinto_smart_contracts/bet_kinto.sol\":9797:9814  betInstance.title */\n      0x01\n      add\n        /* \"packages/kinto_smart_contracts/bet_kinto.sol\":9789:9814  title = betInstance.title */\n      dup1\n      sload\n      tag_119\n      swap1\n      tag_120\n      jump\t// in\n    tag_119:\n      dup1\n      0x1f\n      add\n      0x20\n      dup1\n      swap2\n      div\n      mul\n      0x20\n      add\n      mload(0x40)\n      swap1\n      dup2\n      add\n      0x40\n      mstore\n      dup1\n      swap3\n      swap2\n      swap1\n      dup2\n      dup2\n      mstore\n      0x20\n      add\n      dup3\n      dup1\n      sload\n      tag_121\n      swap1\n      tag_120\n      jump\t// in\n    tag_121:\n      dup1\n      iszero\n      tag_122\n      jumpi\n      dup1\n      0x1f\n      lt\n      tag_123\n      jumpi\n      0x0100\n      dup1\n      dup4\n      sload\n      div\n      mul\n      dup4\n      mstore\n      swap2\n      0x20\n      add\n      swap2\n      jump(tag_122)\n    tag_123:\n      dup3\n      add\n      swap2\n      swap1\n      0x00\n      mstore\n      keccak256(0x00, 0x20)\n      swap1\n    tag_124:\n      dup2\n      sload\n      dup2\n      mstore\n      swap1\n      0x01\n      add\n      swap1\n      0x20\n      add\n      dup1\n      dup4\n      gt\n      tag_124\n      jumpi\n      dup3\n      swap1\n      sub\n      0x1f\n      and\n      dup3\n      add\n      swap2\n    tag_122:\n      pop\n      pop\n      pop\n      pop\n      pop\n      swap9\n      pop\n        /* \"packages/kinto_smart_contracts/bet_kinto.sol\":9834:9845  betInstance */\n      dup1\n        /* \"packages/kinto_smart_contracts/bet_kinto.sol\":9834:9853  betInstance.options */\n      0x02\n      add\n        /* \"packages/kinto_smart_contracts/bet_kinto.sol\":9824:9853  options = betInstance.options */\n      dup1\n      sload\n      dup1\n      0x20\n      mul\n      0x20\n      add\n      mload(0x40)\n      swap1\n      dup2\n      add\n      0x40\n      mstore\n      dup1\n      swap3\n      swap2\n      swap1\n      dup2\n      dup2\n      mstore\n      0x20\n      add\n      0x00\n      swap1\n    tag_125:\n      dup3\n      dup3\n      lt\n      iszero\n      tag_126\n      jumpi\n      dup4\n      dup3\n      swap1\n      0x00\n      mstore\n      keccak256(0x00, 0x20)\n      add\n      dup1\n      sload\n      tag_128\n      swap1\n      tag_120\n      jump\t// in\n    tag_128:\n      dup1\n      0x1f\n      add\n      0x20\n      dup1\n      swap2\n      div\n      mul\n      0x20\n      add\n      mload(0x40)\n      swap1\n      dup2\n      add\n      0x40\n      mstore\n      dup1\n      swap3\n      swap2\n      swap1\n      dup2\n      dup2\n      mstore\n      0x20\n      add\n      dup3\n      dup1\n      sload\n      tag_129\n      swap1\n      tag_120\n      jump\t// in\n    tag_129:\n      dup1\n      iszero\n      tag_130\n      jumpi\n      dup1\n      0x1f\n      lt\n      tag_131\n      jumpi\n      0x0100\n      dup1\n      dup4\n      sload\n      div\n      mul\n      dup4\n      mstore\n      swap2\n      0x20\n      add\n      swap2\n      jump(tag_130)\n    tag_131:\n      dup3\n      add\n      swap2\n      swap1\n      0x00\n      mstore\n      keccak256(0x00, 0x20)\n      swap1\n    tag_132:\n      dup2\n      sload\n      dup2\n      mstore\n      swap1\n      0x01\n      add\n      swap1\n      0x20\n      add\n      dup1\n      dup4\n      gt\n      tag_132\n      jumpi\n      dup3\n      swap1\n      sub\n      0x1f\n      and\n      dup3\n      add\n      swap2\n    tag_130:\n      pop\n      pop\n      pop\n      pop\n      pop\n      dup2\n      mstore\n      0x20\n      add\n      swap1\n      0x01\n      add\n      swap1\n      jump(tag_125)\n    tag_126:\n      pop\n      pop\n      pop\n      pop\n      swap8\n      pop\n        /* \"packages/kinto_smart_contracts/bet_kinto.sol\":9872:9883  betInstance */\n      dup1\n        /* \"packages/kinto_smart_contracts/bet_kinto.sol\":9872:9890  betInstance.isOpen */\n      0x07\n      add\n      0x14\n      swap1\n      sload\n      swap1\n      0x0100\n      exp\n      swap1\n      div\n      0xff\n      and\n        /* \"packages/kinto_smart_contracts/bet_kinto.sol\":9863:9890  isOpen = betInstance.isOpen */\n      swap7\n      pop\n        /* \"packages/kinto_smart_contracts/bet_kinto.sol\":9913:9924  betInstance */\n      dup1\n        /* \"packages/kinto_smart_contracts/bet_kinto.sol\":9913:9935  betInstance.isResolved */\n      0x07\n      add\n      0x15\n      swap1\n      sload\n      swap1\n      0x0100\n      exp\n      swap1\n      div\n      0xff\n      and\n        /* \"packages/kinto_smart_contracts/bet_kinto.sol\":9900:9935  isResolved = betInstance.isResolved */\n      swap6\n      pop\n        /* \"packages/kinto_smart_contracts/bet_kinto.sol\":9975:9986  betInstance */\n      dup1\n        /* \"packages/kinto_smart_contracts/bet_kinto.sol\":9975:9999  betInstance.totalAmounts */\n      0x03\n      add\n        /* \"packages/kinto_smart_contracts/bet_kinto.sol\":9975:10006  betInstance.totalAmounts.length */\n      dup1\n      sload\n      swap1\n      pop\n        /* \"packages/kinto_smart_contracts/bet_kinto.sol\":9961:10007  new uint256[](betInstance.totalAmounts.length) */\n      0xffffffffffffffff\n      dup2\n      gt\n      iszero\n      tag_133\n      jumpi\n      tag_134\n      tag_135\n      jump\t// in\n    tag_134:\n    tag_133:\n      mload(0x40)\n      swap1\n      dup1\n      dup3\n      mstore\n      dup1\n      0x20\n      mul\n      0x20\n      add\n      dup3\n      add\n      0x40\n      mstore\n      dup1\n      iszero\n      tag_136\n      jumpi\n      dup2\n      0x20\n      add\n      0x20\n      dup3\n      mul\n      dup1\n      calldatasize\n      dup4\n      calldatacopy\n      dup1\n      dup3\n      add\n      swap2\n      pop\n      pop\n      swap1\n      pop\n    tag_136:\n      pop\n        /* \"packages/kinto_smart_contracts/bet_kinto.sol\":9946:10007  totalAmounts = new uint256[](betInstance.totalAmounts.length) */\n      swap4\n      pop\n        /* \"packages/kinto_smart_contracts/bet_kinto.sol\":10034:10035  0 */\n      0x00\n        /* \"packages/kinto_smart_contracts/bet_kinto.sol\":10017:10035  totalAmountBet = 0 */\n      swap5\n      pop\n        /* \"packages/kinto_smart_contracts/bet_kinto.sol\":10050:10057  uint8 i */\n      0x00\n        /* \"packages/kinto_smart_contracts/bet_kinto.sol\":10045:10234  for (uint8 i = 0; i < betInstance.totalAmounts.length; i++) {... */\n    tag_137:\n        /* \"packages/kinto_smart_contracts/bet_kinto.sol\":10067:10078  betInstance */\n      dup2\n        /* \"packages/kinto_smart_contracts/bet_kinto.sol\":10067:10091  betInstance.totalAmounts */\n      0x03\n      add\n        /* \"packages/kinto_smart_contracts/bet_kinto.sol\":10067:10098  betInstance.totalAmounts.length */\n      dup1\n      sload\n      swap1\n      pop\n        /* \"packages/kinto_smart_contracts/bet_kinto.sol\":10063:10064  i */\n      dup2\n        /* \"packages/kinto_smart_contracts/bet_kinto.sol\":10063:10098  i < betInstance.totalAmounts.length */\n      0xff\n      and\n      lt\n        /* \"packages/kinto_smart_contracts/bet_kinto.sol\":10045:10234  for (uint8 i = 0; i < betInstance.totalAmounts.length; i++) {... */\n      iszero\n      tag_138\n      jumpi\n        /* \"packages/kinto_smart_contracts/bet_kinto.sol\":10137:10148  betInstance */\n      dup2\n        /* \"packages/kinto_smart_contracts/bet_kinto.sol\":10137:10161  betInstance.totalAmounts */\n      0x03\n      add\n        /* \"packages/kinto_smart_contracts/bet_kinto.sol\":10162:10163  i */\n      dup2\n        /* \"packages/kinto_smart_contracts/bet_kinto.sol\":10137:10164  betInstance.totalAmounts[i] */\n      0xff\n      and\n      dup2\n      sload\n      dup2\n      lt\n      tag_140\n      jumpi\n      tag_141\n      tag_68\n      jump\t// in\n    tag_141:\n    tag_140:\n      swap1\n      0x00\n      mstore\n      keccak256(0x00, 0x20)\n      add\n      sload\n        /* \"packages/kinto_smart_contracts/bet_kinto.sol\":10119:10131  totalAmounts */\n      dup6\n        /* \"packages/kinto_smart_contracts/bet_kinto.sol\":10132:10133  i */\n      dup3\n        /* \"packages/kinto_smart_contracts/bet_kinto.sol\":10119:10134  totalAmounts[i] */\n      0xff\n      and\n      dup2\n      mload\n      dup2\n      lt\n      tag_143\n      jumpi\n      tag_144\n      tag_68\n      jump\t// in\n    tag_144:\n    tag_143:\n      0x20\n      mul\n      0x20\n      add\n      add\n        /* \"packages/kinto_smart_contracts/bet_kinto.sol\":10119:10164  totalAmounts[i] = betInstance.totalAmounts[i] */\n      dup2\n      dup2\n      mstore\n      pop\n      pop\n        /* \"packages/kinto_smart_contracts/bet_kinto.sol\":10196:10207  betInstance */\n      dup2\n        /* \"packages/kinto_smart_contracts/bet_kinto.sol\":10196:10220  betInstance.totalAmounts */\n      0x03\n      add\n        /* \"packages/kinto_smart_contracts/bet_kinto.sol\":10221:10222  i */\n      dup2\n        /* \"packages/kinto_smart_contracts/bet_kinto.sol\":10196:10223  betInstance.totalAmounts[i] */\n      0xff\n      and\n      dup2\n      sload\n      dup2\n      lt\n      tag_145\n      jumpi\n      tag_146\n      tag_68\n      jump\t// in\n    tag_146:\n    tag_145:\n      swap1\n      0x00\n      mstore\n      keccak256(0x00, 0x20)\n      add\n      sload\n        /* \"packages/kinto_smart_contracts/bet_kinto.sol\":10178:10223  totalAmountBet += betInstance.totalAmounts[i] */\n      dup7\n      tag_148\n      swap2\n      swap1\n      tag_71\n      jump\t// in\n    tag_148:\n      swap6\n      pop\n        /* \"packages/kinto_smart_contracts/bet_kinto.sol\":10100:10103  i++ */\n      dup1\n      dup1\n      tag_149\n      swap1\n      tag_73\n      jump\t// in\n    tag_149:\n      swap2\n      pop\n      pop\n        /* \"packages/kinto_smart_contracts/bet_kinto.sol\":10045:10234  for (uint8 i = 0; i < betInstance.totalAmounts.length; i++) {... */\n      jump(tag_137)\n    tag_138:\n      pop\n        /* \"packages/kinto_smart_contracts/bet_kinto.sol\":10260:10271  betInstance */\n      dup1\n        /* \"packages/kinto_smart_contracts/bet_kinto.sol\":10260:10282  betInstance.isResolved */\n      0x07\n      add\n      0x15\n      swap1\n      sload\n      swap1\n      0x0100\n      exp\n      swap1\n      div\n      0xff\n      and\n        /* \"packages/kinto_smart_contracts/bet_kinto.sol\":10260:10314  betInstance.isResolved ? betInstance.winningOption : 0 */\n      tag_150\n      jumpi\n        /* \"packages/kinto_smart_contracts/bet_kinto.sol\":10313:10314  0 */\n      0x00\n        /* \"packages/kinto_smart_contracts/bet_kinto.sol\":10260:10314  betInstance.isResolved ? betInstance.winningOption : 0 */\n      jump(tag_151)\n    tag_150:\n        /* \"packages/kinto_smart_contracts/bet_kinto.sol\":10285:10296  betInstance */\n      dup1\n        /* \"packages/kinto_smart_contracts/bet_kinto.sol\":10285:10310  betInstance.winningOption */\n      0x07\n      add\n      0x16\n      swap1\n      sload\n      swap1\n      0x0100\n      exp\n      swap1\n      div\n      0xff\n      and\n        /* \"packages/kinto_smart_contracts/bet_kinto.sol\":10260:10314  betInstance.isResolved ? betInstance.winningOption : 0 */\n    tag_151:\n        /* \"packages/kinto_smart_contracts/bet_kinto.sol\":10244:10314  winningOption = betInstance.isResolved ? betInstance.winningOption : 0 */\n      swap3\n      pop\n        /* \"packages/kinto_smart_contracts/bet_kinto.sol\":10325:10552  return (... */\n      pop\n        /* \"packages/kinto_smart_contracts/bet_kinto.sol\":9352:10559  function getBetInfo(uint256 _betId) external view returns (... */\n      swap2\n      swap4\n      swap6\n      swap8\n      swap10\n      swap1\n      swap3\n      swap5\n      swap7\n      swap9\n      pop\n      jump\t// out\n        /* \"packages/kinto_smart_contracts/bet_kinto.sol\":394:414  address public owner */\n    tag_28:\n      0x00\n      dup1\n      sload\n      swap1\n      0x0100\n      exp\n      swap1\n      div\n      0xffffffffffffffffffffffffffffffffffffffff\n      and\n      dup2\n      jump\t// out\n        /* \"packages/kinto_smart_contracts/bet_kinto.sol\":4268:5239  function placeBet(uint256 _betId, uint256 _amount, uint8 _option) external {... */\n    tag_33:\n        /* \"packages/kinto_smart_contracts/bet_kinto.sol\":4353:4384  BetInstance storage betInstance */\n      0x00\n        /* \"packages/kinto_smart_contracts/bet_kinto.sol\":4387:4399  betInstances */\n      0x02\n        /* \"packages/kinto_smart_contracts/bet_kinto.sol\":4387:4407  betInstances[_betId] */\n      0x00\n        /* \"packages/kinto_smart_contracts/bet_kinto.sol\":4400:4406  _betId */\n      dup6\n        /* \"packages/kinto_smart_contracts/bet_kinto.sol\":4387:4407  betInstances[_betId] */\n      dup2\n      mstore\n      0x20\n      add\n      swap1\n      dup2\n      mstore\n      0x20\n      add\n      0x00\n      keccak256\n        /* \"packages/kinto_smart_contracts/bet_kinto.sol\":4353:4407  BetInstance storage betInstance = betInstances[_betId] */\n      swap1\n      pop\n        /* \"packages/kinto_smart_contracts/bet_kinto.sol\":4425:4436  betInstance */\n      dup1\n        /* \"packages/kinto_smart_contracts/bet_kinto.sol\":4425:4443  betInstance.isOpen */\n      0x07\n      add\n      0x14\n      swap1\n      sload\n      swap1\n      0x0100\n      exp\n      swap1\n      div\n      0xff\n      and\n        /* \"packages/kinto_smart_contracts/bet_kinto.sol\":4417:4465  require(betInstance.isOpen, \"Betting is closed\") */\n      tag_153\n      jumpi\n      mload(0x40)\n      0x08c379a000000000000000000000000000000000000000000000000000000000\n      dup2\n      mstore\n      0x04\n      add\n      tag_154\n      swap1\n      tag_155\n      jump\t// in\n    tag_154:\n      mload(0x40)\n      dup1\n      swap2\n      sub\n      swap1\n      revert\n    tag_153:\n        /* \"packages/kinto_smart_contracts/bet_kinto.sol\":4494:4505  betInstance */\n      dup1\n        /* \"packages/kinto_smart_contracts/bet_kinto.sol\":4494:4522  betInstance.minimumBetAmount */\n      0x04\n      add\n      sload\n        /* \"packages/kinto_smart_contracts/bet_kinto.sol\":4483:4490  _amount */\n      dup4\n        /* \"packages/kinto_smart_contracts/bet_kinto.sol\":4483:4522  _amount >= betInstance.minimumBetAmount */\n      lt\n      iszero\n        /* \"packages/kinto_smart_contracts/bet_kinto.sol\":4475:4558  require(_amount >= betInstance.minimumBetAmount, \"Bet amount is less than minimum\") */\n      tag_156\n      jumpi\n      mload(0x40)\n      0x08c379a000000000000000000000000000000000000000000000000000000000\n      dup2\n      mstore\n      0x04\n      add\n      tag_157\n      swap1\n      tag_158\n      jump\t// in\n    tag_157:\n      mload(0x40)\n      dup1\n      swap2\n      sub\n      swap1\n      revert\n    tag_156:\n        /* \"packages/kinto_smart_contracts/bet_kinto.sol\":4587:4588  1 */\n      0x01\n        /* \"packages/kinto_smart_contracts/bet_kinto.sol\":4576:4583  _option */\n      dup3\n        /* \"packages/kinto_smart_contracts/bet_kinto.sol\":4576:4588  _option >= 1 */\n      0xff\n      and\n      lt\n      iszero\n        /* \"packages/kinto_smart_contracts/bet_kinto.sol\":4576:4629  _option >= 1 && _option <= betInstance.options.length */\n      dup1\n      iszero\n      tag_159\n      jumpi\n      pop\n        /* \"packages/kinto_smart_contracts/bet_kinto.sol\":4603:4614  betInstance */\n      dup1\n        /* \"packages/kinto_smart_contracts/bet_kinto.sol\":4603:4622  betInstance.options */\n      0x02\n      add\n        /* \"packages/kinto_smart_contracts/bet_kinto.sol\":4603:4629  betInstance.options.length */\n      dup1\n      sload\n      swap1\n      pop\n        /* \"packages/kinto_smart_contracts/bet_kinto.sol\":4592:4599  _option */\n      dup3\n        /* \"packages/kinto_smart_contracts/bet_kinto.sol\":4592:4629  _option <= betInstance.options.length */\n      0xff\n      and\n      gt\n      iszero\n        /* \"packages/kinto_smart_contracts/bet_kinto.sol\":4576:4629  _option >= 1 && _option <= betInstance.options.length */\n    tag_159:\n        /* \"packages/kinto_smart_contracts/bet_kinto.sol\":4568:4648  require(_option >= 1 && _option <= betInstance.options.length, \"Invalid option\") */\n      tag_160\n      jumpi\n      mload(0x40)\n      0x08c379a000000000000000000000000000000000000000000000000000000000\n      dup2\n      mstore\n      0x04\n      add\n      tag_161\n      swap1\n      tag_162\n      jump\t// in\n    tag_161:\n      mload(0x40)\n      dup1\n      swap2\n      sub\n      swap1\n      revert\n    tag_160:\n        /* \"packages/kinto_smart_contracts/bet_kinto.sol\":4758:4770  IERC20 token */\n      0x00\n        /* \"packages/kinto_smart_contracts/bet_kinto.sol\":514:556  0x010700808D59d2bb92257fCafACfe8e5bFF7aB87 */\n      0x010700808d59d2bb92257fcafacfe8e5bff7ab87\n        /* \"packages/kinto_smart_contracts/bet_kinto.sol\":4758:4800  IERC20 token = IERC20(KINTO_TOKEN_ADDRESS) */\n      swap1\n      pop\n        /* \"packages/kinto_smart_contracts/bet_kinto.sol\":4818:4823  token */\n      dup1\n        /* \"packages/kinto_smart_contracts/bet_kinto.sol\":4818:4836  token.transferFrom */\n      0xffffffffffffffffffffffffffffffffffffffff\n      and\n      0x23b872dd\n        /* \"packages/kinto_smart_contracts/bet_kinto.sol\":4837:4847  msg.sender */\n      caller\n        /* \"packages/kinto_smart_contracts/bet_kinto.sol\":4857:4861  this */\n      address\n        /* \"packages/kinto_smart_contracts/bet_kinto.sol\":4864:4871  _amount */\n      dup8\n        /* \"packages/kinto_smart_contracts/bet_kinto.sol\":4818:4872  token.transferFrom(msg.sender, address(this), _amount) */\n      mload(0x40)\n      dup5\n      0xffffffff\n      and\n      0xe0\n      shl\n      dup2\n      mstore\n      0x04\n      add\n      tag_163\n      swap4\n      swap3\n      swap2\n      swap1\n      tag_164\n      jump\t// in\n    tag_163:\n      0x20\n      mload(0x40)\n      dup1\n      dup4\n      sub\n      dup2\n      0x00\n      dup8\n      gas\n      call\n      iszero\n      dup1\n      iszero\n      tag_166\n      jumpi\n      returndatasize\n      0x00\n      dup1\n      returndatacopy\n      revert(0x00, returndatasize)\n    tag_166:\n      pop\n      pop\n      pop\n      pop\n      mload(0x40)\n      returndatasize\n      not(0x1f)\n      0x1f\n      dup3\n      add\n      and\n      dup3\n      add\n      dup1\n      0x40\n      mstore\n      pop\n      dup2\n      add\n      swap1\n      tag_167\n      swap2\n      swap1\n      tag_84\n      jump\t// in\n    tag_167:\n        /* \"packages/kinto_smart_contracts/bet_kinto.sol\":4810:4892  require(token.transferFrom(msg.sender, address(this), _amount), \"Transfer failed\") */\n      tag_168\n      jumpi\n      mload(0x40)\n      0x08c379a000000000000000000000000000000000000000000000000000000000\n      dup2\n      mstore\n      0x04\n      add\n      tag_169\n      swap1\n      tag_170\n      jump\t// in\n    tag_169:\n      mload(0x40)\n      dup1\n      swap2\n      sub\n      swap1\n      revert\n    tag_168:\n        /* \"packages/kinto_smart_contracts/bet_kinto.sol\":5003:5010  _amount */\n      dup4\n        /* \"packages/kinto_smart_contracts/bet_kinto.sol\":4962:4973  betInstance */\n      dup3\n        /* \"packages/kinto_smart_contracts/bet_kinto.sol\":4962:4986  betInstance.totalAmounts */\n      0x03\n      add\n        /* \"packages/kinto_smart_contracts/bet_kinto.sol\":4997:4998  1 */\n      0x01\n        /* \"packages/kinto_smart_contracts/bet_kinto.sol\":4987:4994  _option */\n      dup6\n        /* \"packages/kinto_smart_contracts/bet_kinto.sol\":4987:4998  _option - 1 */\n      tag_171\n      swap2\n      swap1\n      tag_172\n      jump\t// in\n    tag_171:\n        /* \"packages/kinto_smart_contracts/bet_kinto.sol\":4962:4999  betInstance.totalAmounts[_option - 1] */\n      0xff\n      and\n      dup2\n      sload\n      dup2\n      lt\n      tag_173\n      jumpi\n      tag_174\n      tag_68\n      jump\t// in\n    tag_174:\n    tag_173:\n      swap1\n      0x00\n      mstore\n      keccak256(0x00, 0x20)\n      add\n      0x00\n        /* \"packages/kinto_smart_contracts/bet_kinto.sol\":4962:5010  betInstance.totalAmounts[_option - 1] += _amount */\n      dup3\n      dup3\n      sload\n      tag_176\n      swap2\n      swap1\n      tag_71\n      jump\t// in\n    tag_176:\n      swap3\n      pop\n      pop\n      dup2\n      swap1\n      sstore\n      pop\n        /* \"packages/kinto_smart_contracts/bet_kinto.sol\":5020:5031  betInstance */\n      dup2\n        /* \"packages/kinto_smart_contracts/bet_kinto.sol\":5020:5036  betInstance.bets */\n      0x05\n      add\n        /* \"packages/kinto_smart_contracts/bet_kinto.sol\":5020:5048  betInstance.bets[msg.sender] */\n      0x00\n        /* \"packages/kinto_smart_contracts/bet_kinto.sol\":5037:5047  msg.sender */\n      caller\n        /* \"packages/kinto_smart_contracts/bet_kinto.sol\":5020:5048  betInstance.bets[msg.sender] */\n      0xffffffffffffffffffffffffffffffffffffffff\n      and\n      0xffffffffffffffffffffffffffffffffffffffff\n      and\n      dup2\n      mstore\n      0x20\n      add\n      swap1\n      dup2\n      mstore\n      0x20\n      add\n      0x00\n      keccak256\n        /* \"packages/kinto_smart_contracts/bet_kinto.sol\":5054:5078  Bet(msg.sender, _amount) */\n      mload(0x40)\n      dup1\n      0x40\n      add\n      0x40\n      mstore\n      dup1\n        /* \"packages/kinto_smart_contracts/bet_kinto.sol\":5058:5068  msg.sender */\n      caller\n        /* \"packages/kinto_smart_contracts/bet_kinto.sol\":5054:5078  Bet(msg.sender, _amount) */\n      0xffffffffffffffffffffffffffffffffffffffff\n      and\n      dup2\n      mstore\n      0x20\n      add\n        /* \"packages/kinto_smart_contracts/bet_kinto.sol\":5070:5077  _amount */\n      dup7\n        /* \"packages/kinto_smart_contracts/bet_kinto.sol\":5054:5078  Bet(msg.sender, _amount) */\n      dup2\n      mstore\n      pop\n        /* \"packages/kinto_smart_contracts/bet_kinto.sol\":5020:5079  betInstance.bets[msg.sender].push(Bet(msg.sender, _amount)) */\n      swap1\n      dup1\n      0x01\n      dup2\n      sload\n      add\n      dup1\n      dup3\n      sstore\n      dup1\n      swap2\n      pop\n      pop\n      0x01\n      swap1\n      sub\n      swap1\n      0x00\n      mstore\n      keccak256(0x00, 0x20)\n      swap1\n      0x02\n      mul\n      add\n      0x00\n      swap1\n      swap2\n      swap1\n      swap2\n      swap1\n      swap2\n      pop\n      0x00\n      dup3\n      add\n      mload\n      dup2\n      0x00\n      add\n      exp(0x0100, 0x00)\n      dup2\n      sload\n      dup2\n      0xffffffffffffffffffffffffffffffffffffffff\n      mul\n      not\n      and\n      swap1\n      dup4\n      0xffffffffffffffffffffffffffffffffffffffff\n      and\n      mul\n      or\n      swap1\n      sstore\n      pop\n      0x20\n      dup3\n      add\n      mload\n      dup2\n      0x01\n      add\n      sstore\n      pop\n      pop\n        /* \"packages/kinto_smart_contracts/bet_kinto.sol\":5089:5100  betInstance */\n      dup2\n        /* \"packages/kinto_smart_contracts/bet_kinto.sol\":5089:5108  betInstance.bettors */\n      0x06\n      add\n        /* \"packages/kinto_smart_contracts/bet_kinto.sol\":5114:5124  msg.sender */\n      caller\n        /* \"packages/kinto_smart_contracts/bet_kinto.sol\":5089:5125  betInstance.bettors.push(msg.sender) */\n      swap1\n      dup1\n      0x01\n      dup2\n      sload\n      add\n      dup1\n      dup3\n      sstore\n      dup1\n      swap2\n      pop\n      pop\n      0x01\n      swap1\n      sub\n      swap1\n      0x00\n      mstore\n      keccak256(0x00, 0x20)\n      add\n      0x00\n      swap1\n      swap2\n      swap1\n      swap2\n      swap1\n      swap2\n      0x0100\n      exp\n      dup2\n      sload\n      dup2\n      0xffffffffffffffffffffffffffffffffffffffff\n      mul\n      not\n      and\n      swap1\n      dup4\n      0xffffffffffffffffffffffffffffffffffffffff\n      and\n      mul\n      or\n      swap1\n      sstore\n      pop\n        /* \"packages/kinto_smart_contracts/bet_kinto.sol\":5203:5213  msg.sender */\n      caller\n        /* \"packages/kinto_smart_contracts/bet_kinto.sol\":5185:5232  BetPlaced(_betId, msg.sender, _amount, _option) */\n      0xffffffffffffffffffffffffffffffffffffffff\n      and\n        /* \"packages/kinto_smart_contracts/bet_kinto.sol\":5195:5201  _betId */\n      dup6\n        /* \"packages/kinto_smart_contracts/bet_kinto.sol\":5185:5232  BetPlaced(_betId, msg.sender, _amount, _option) */\n      0xe90186097616cbeb30ffc786b44501e1362f5e0a316a96c5ab82a0551f9d2f05\n        /* \"packages/kinto_smart_contracts/bet_kinto.sol\":5215:5222  _amount */\n      dup7\n        /* \"packages/kinto_smart_contracts/bet_kinto.sol\":5224:5231  _option */\n      dup7\n        /* \"packages/kinto_smart_contracts/bet_kinto.sol\":5185:5232  BetPlaced(_betId, msg.sender, _amount, _option) */\n      mload(0x40)\n      tag_179\n      swap3\n      swap2\n      swap1\n      tag_180\n      jump\t// in\n    tag_179:\n      mload(0x40)\n      dup1\n      swap2\n      sub\n      swap1\n      log3\n        /* \"packages/kinto_smart_contracts/bet_kinto.sol\":4343:5239  {... */\n      pop\n      pop\n        /* \"packages/kinto_smart_contracts/bet_kinto.sol\":4268:5239  function placeBet(uint256 _betId, uint256 _amount, uint8 _option) external {... */\n      pop\n      pop\n      pop\n      jump\t// out\n        /* \"packages/kinto_smart_contracts/bet_kinto.sol\":5331:5568  function closeBetting(uint256 _betId) external onlyCreator(_betId) {... */\n    tag_36:\n        /* \"packages/kinto_smart_contracts/bet_kinto.sol\":5390:5396  _betId */\n      dup1\n        /* \"packages/kinto_smart_contracts/bet_kinto.sol\":2500:2512  betInstances */\n      0x02\n        /* \"packages/kinto_smart_contracts/bet_kinto.sol\":2500:2520  betInstances[_betId] */\n      0x00\n        /* \"packages/kinto_smart_contracts/bet_kinto.sol\":2513:2519  _betId */\n      dup3\n        /* \"packages/kinto_smart_contracts/bet_kinto.sol\":2500:2520  betInstances[_betId] */\n      dup2\n      mstore\n      0x20\n      add\n      swap1\n      dup2\n      mstore\n      0x20\n      add\n      0x00\n      keccak256\n        /* \"packages/kinto_smart_contracts/bet_kinto.sol\":2500:2528  betInstances[_betId].creator */\n      0x07\n      add\n      0x00\n      swap1\n      sload\n      swap1\n      0x0100\n      exp\n      swap1\n      div\n      0xffffffffffffffffffffffffffffffffffffffff\n      and\n        /* \"packages/kinto_smart_contracts/bet_kinto.sol\":2486:2528  msg.sender != betInstances[_betId].creator */\n      0xffffffffffffffffffffffffffffffffffffffff\n      and\n        /* \"packages/kinto_smart_contracts/bet_kinto.sol\":2486:2496  msg.sender */\n      caller\n        /* \"packages/kinto_smart_contracts/bet_kinto.sol\":2486:2528  msg.sender != betInstances[_betId].creator */\n      0xffffffffffffffffffffffffffffffffffffffff\n      and\n      eq\n        /* \"packages/kinto_smart_contracts/bet_kinto.sol\":2482:2579  if (msg.sender != betInstances[_betId].creator) {... */\n      tag_182\n      jumpi\n        /* \"packages/kinto_smart_contracts/bet_kinto.sol\":2544:2568  revert(\"Not authorized\") */\n      mload(0x40)\n      0x08c379a000000000000000000000000000000000000000000000000000000000\n      dup2\n      mstore\n      0x04\n      add\n      tag_183\n      swap1\n      tag_58\n      jump\t// in\n    tag_183:\n      mload(0x40)\n      dup1\n      swap2\n      sub\n      swap1\n      revert\n        /* \"packages/kinto_smart_contracts/bet_kinto.sol\":2482:2579  if (msg.sender != betInstances[_betId].creator) {... */\n    tag_182:\n        /* \"packages/kinto_smart_contracts/bet_kinto.sol\":5408:5439  BetInstance storage betInstance */\n      0x00\n        /* \"packages/kinto_smart_contracts/bet_kinto.sol\":5442:5454  betInstances */\n      0x02\n        /* \"packages/kinto_smart_contracts/bet_kinto.sol\":5442:5462  betInstances[_betId] */\n      0x00\n        /* \"packages/kinto_smart_contracts/bet_kinto.sol\":5455:5461  _betId */\n      dup5\n        /* \"packages/kinto_smart_contracts/bet_kinto.sol\":5442:5462  betInstances[_betId] */\n      dup2\n      mstore\n      0x20\n      add\n      swap1\n      dup2\n      mstore\n      0x20\n      add\n      0x00\n      keccak256\n        /* \"packages/kinto_smart_contracts/bet_kinto.sol\":5408:5462  BetInstance storage betInstance = betInstances[_betId] */\n      swap1\n      pop\n        /* \"packages/kinto_smart_contracts/bet_kinto.sol\":5493:5498  false */\n      0x00\n        /* \"packages/kinto_smart_contracts/bet_kinto.sol\":5472:5483  betInstance */\n      dup2\n        /* \"packages/kinto_smart_contracts/bet_kinto.sol\":5472:5490  betInstance.isOpen */\n      0x07\n      add\n      0x14\n        /* \"packages/kinto_smart_contracts/bet_kinto.sol\":5472:5498  betInstance.isOpen = false */\n      0x0100\n      exp\n      dup2\n      sload\n      dup2\n      0xff\n      mul\n      not\n      and\n      swap1\n      dup4\n      iszero\n      iszero\n      mul\n      or\n      swap1\n      sstore\n      pop\n        /* \"packages/kinto_smart_contracts/bet_kinto.sol\":5554:5560  _betId */\n      dup3\n        /* \"packages/kinto_smart_contracts/bet_kinto.sol\":5540:5561  BettingClosed(_betId) */\n      0xeb7ecc3aa4dd407c7207677a2cbf861441d5c5e6c0dc70ad9692a980385c20d6\n      mload(0x40)\n      mload(0x40)\n      dup1\n      swap2\n      sub\n      swap1\n      log2\n        /* \"packages/kinto_smart_contracts/bet_kinto.sol\":5398:5568  {... */\n      pop\n        /* \"packages/kinto_smart_contracts/bet_kinto.sol\":5331:5568  function closeBetting(uint256 _betId) external onlyCreator(_betId) {... */\n      pop\n      pop\n      jump\t// out\n        /* \"packages/kinto_smart_contracts/bet_kinto.sol\":3009:4207  function createBetInstance(... */\n    tag_40:\n        /* \"packages/kinto_smart_contracts/bet_kinto.sol\":2720:2725  owner */\n      0x00\n      dup1\n      sload\n      swap1\n      0x0100\n      exp\n      swap1\n      div\n      0xffffffffffffffffffffffffffffffffffffffff\n      and\n        /* \"packages/kinto_smart_contracts/bet_kinto.sol\":2706:2725  msg.sender == owner */\n      0xffffffffffffffffffffffffffffffffffffffff\n      and\n        /* \"packages/kinto_smart_contracts/bet_kinto.sol\":2706:2716  msg.sender */\n      caller\n        /* \"packages/kinto_smart_contracts/bet_kinto.sol\":2706:2725  msg.sender == owner */\n      0xffffffffffffffffffffffffffffffffffffffff\n      and\n      eq\n        /* \"packages/kinto_smart_contracts/bet_kinto.sol\":2698:2772  require(msg.sender == owner, \"Not authorized, only owner can create bets\") */\n      tag_186\n      jumpi\n      mload(0x40)\n      0x08c379a000000000000000000000000000000000000000000000000000000000\n      dup2\n      mstore\n      0x04\n      add\n      tag_187\n      swap1\n      tag_188\n      jump\t// in\n    tag_187:\n      mload(0x40)\n      dup1\n      swap2\n      sub\n      swap1\n      revert\n    tag_186:\n        /* \"packages/kinto_smart_contracts/bet_kinto.sol\":3272:3273  2 */\n      0x02\n        /* \"packages/kinto_smart_contracts/bet_kinto.sol\":3257:3268  _numOptions */\n      dup5\n        /* \"packages/kinto_smart_contracts/bet_kinto.sol\":3257:3273  _numOptions >= 2 */\n      0xff\n      and\n      lt\n      iszero\n        /* \"packages/kinto_smart_contracts/bet_kinto.sol\":3257:3293  _numOptions >= 2 && _numOptions <= 5 */\n      dup1\n      iszero\n      tag_190\n      jumpi\n      pop\n        /* \"packages/kinto_smart_contracts/bet_kinto.sol\":3292:3293  5 */\n      0x05\n        /* \"packages/kinto_smart_contracts/bet_kinto.sol\":3277:3288  _numOptions */\n      dup5\n        /* \"packages/kinto_smart_contracts/bet_kinto.sol\":3277:3293  _numOptions <= 5 */\n      0xff\n      and\n      gt\n      iszero\n        /* \"packages/kinto_smart_contracts/bet_kinto.sol\":3257:3293  _numOptions >= 2 && _numOptions <= 5 */\n    tag_190:\n        /* \"packages/kinto_smart_contracts/bet_kinto.sol\":3249:3323  require(_numOptions >= 2 && _numOptions <= 5, \"Invalid number of options\") */\n      tag_191\n      jumpi\n      mload(0x40)\n      0x08c379a000000000000000000000000000000000000000000000000000000000\n      dup2\n      mstore\n      0x04\n      add\n      tag_192\n      swap1\n      tag_193\n      jump\t// in\n    tag_192:\n      mload(0x40)\n      dup1\n      swap2\n      sub\n      swap1\n      revert\n    tag_191:\n        /* \"packages/kinto_smart_contracts/bet_kinto.sol\":3364:3375  _numOptions */\n      dup4\n        /* \"packages/kinto_smart_contracts/bet_kinto.sol\":3341:3375  _optionNames.length == _numOptions */\n      0xff\n      and\n        /* \"packages/kinto_smart_contracts/bet_kinto.sol\":3341:3353  _optionNames */\n      dup4\n      dup4\n        /* \"packages/kinto_smart_contracts/bet_kinto.sol\":3341:3360  _optionNames.length */\n      swap1\n      pop\n        /* \"packages/kinto_smart_contracts/bet_kinto.sol\":3341:3375  _optionNames.length == _numOptions */\n      eq\n        /* \"packages/kinto_smart_contracts/bet_kinto.sol\":3333:3408  require(_optionNames.length == _numOptions, \"Option names length mismatch\") */\n      tag_194\n      jumpi\n      mload(0x40)\n      0x08c379a000000000000000000000000000000000000000000000000000000000\n      dup2\n      mstore\n      0x04\n      add\n      tag_195\n      swap1\n      tag_196\n      jump\t// in\n    tag_195:\n      mload(0x40)\n      dup1\n      swap2\n      sub\n      swap1\n      revert\n    tag_194:\n        /* \"packages/kinto_smart_contracts/bet_kinto.sol\":3419:3432  uint256 betId */\n      0x00\n        /* \"packages/kinto_smart_contracts/bet_kinto.sol\":3435:3444  nextBetId */\n      sload(0x01)\n        /* \"packages/kinto_smart_contracts/bet_kinto.sol\":3419:3444  uint256 betId = nextBetId */\n      swap1\n      pop\n        /* \"packages/kinto_smart_contracts/bet_kinto.sol\":3454:3463  nextBetId */\n      0x01\n      0x00\n        /* \"packages/kinto_smart_contracts/bet_kinto.sol\":3454:3465  nextBetId++ */\n      dup2\n      sload\n      dup1\n      swap3\n      swap2\n      swap1\n      tag_197\n      swap1\n      tag_198\n      jump\t// in\n    tag_197:\n      swap2\n      swap1\n      pop\n      sstore\n      pop\n        /* \"packages/kinto_smart_contracts/bet_kinto.sol\":3557:3588  BetInstance storage newInstance */\n      0x00\n        /* \"packages/kinto_smart_contracts/bet_kinto.sol\":3591:3603  betInstances */\n      0x02\n        /* \"packages/kinto_smart_contracts/bet_kinto.sol\":3591:3610  betInstances[betId] */\n      0x00\n        /* \"packages/kinto_smart_contracts/bet_kinto.sol\":3604:3609  betId */\n      dup4\n        /* \"packages/kinto_smart_contracts/bet_kinto.sol\":3591:3610  betInstances[betId] */\n      dup2\n      mstore\n      0x20\n      add\n      swap1\n      dup2\n      mstore\n      0x20\n      add\n      0x00\n      keccak256\n        /* \"packages/kinto_smart_contracts/bet_kinto.sol\":3557:3610  BetInstance storage newInstance = betInstances[betId] */\n      swap1\n      pop\n        /* \"packages/kinto_smart_contracts/bet_kinto.sol\":3637:3642  betId */\n      dup2\n        /* \"packages/kinto_smart_contracts/bet_kinto.sol\":3620:3631  newInstance */\n      dup2\n        /* \"packages/kinto_smart_contracts/bet_kinto.sol\":3620:3634  newInstance.id */\n      0x00\n      add\n        /* \"packages/kinto_smart_contracts/bet_kinto.sol\":3620:3642  newInstance.id = betId */\n      dup2\n      swap1\n      sstore\n      pop\n        /* \"packages/kinto_smart_contracts/bet_kinto.sol\":3672:3678  _title */\n      dup8\n      dup8\n        /* \"packages/kinto_smart_contracts/bet_kinto.sol\":3652:3663  newInstance */\n      dup3\n        /* \"packages/kinto_smart_contracts/bet_kinto.sol\":3652:3669  newInstance.title */\n      0x01\n      add\n        /* \"packages/kinto_smart_contracts/bet_kinto.sol\":3652:3678  newInstance.title = _title */\n      swap2\n      dup3\n      tag_199\n      swap3\n      swap2\n      swap1\n      tag_200\n      jump\t// in\n    tag_199:\n      pop\n        /* \"packages/kinto_smart_contracts/bet_kinto.sol\":3719:3736  _minimumBetAmount */\n      dup3\n        /* \"packages/kinto_smart_contracts/bet_kinto.sol\":3688:3699  newInstance */\n      dup2\n        /* \"packages/kinto_smart_contracts/bet_kinto.sol\":3688:3716  newInstance.minimumBetAmount */\n      0x04\n      add\n        /* \"packages/kinto_smart_contracts/bet_kinto.sol\":3688:3736  newInstance.minimumBetAmount = _minimumBetAmount */\n      dup2\n      swap1\n      sstore\n      pop\n        /* \"packages/kinto_smart_contracts/bet_kinto.sol\":3768:3778  msg.sender */\n      caller\n        /* \"packages/kinto_smart_contracts/bet_kinto.sol\":3746:3757  newInstance */\n      dup2\n        /* \"packages/kinto_smart_contracts/bet_kinto.sol\":3746:3765  newInstance.creator */\n      0x07\n      add\n      0x00\n        /* \"packages/kinto_smart_contracts/bet_kinto.sol\":3746:3778  newInstance.creator = msg.sender */\n      0x0100\n      exp\n      dup2\n      sload\n      dup2\n      0xffffffffffffffffffffffffffffffffffffffff\n      mul\n      not\n      and\n      swap1\n      dup4\n      0xffffffffffffffffffffffffffffffffffffffff\n      and\n      mul\n      or\n      swap1\n      sstore\n      pop\n        /* \"packages/kinto_smart_contracts/bet_kinto.sol\":3871:3882  _numOptions */\n      dup6\n        /* \"packages/kinto_smart_contracts/bet_kinto.sol\":3857:3883  new uint256[](_numOptions) */\n      0xff\n      and\n      0xffffffffffffffff\n      dup2\n      gt\n      iszero\n      tag_201\n      jumpi\n      tag_202\n      tag_135\n      jump\t// in\n    tag_202:\n    tag_201:\n      mload(0x40)\n      swap1\n      dup1\n      dup3\n      mstore\n      dup1\n      0x20\n      mul\n      0x20\n      add\n      dup3\n      add\n      0x40\n      mstore\n      dup1\n      iszero\n      tag_203\n      jumpi\n      dup2\n      0x20\n      add\n      0x20\n      dup3\n      mul\n      dup1\n      calldatasize\n      dup4\n      calldatacopy\n      dup1\n      dup3\n      add\n      swap2\n      pop\n      pop\n      swap1\n      pop\n    tag_203:\n      pop\n        /* \"packages/kinto_smart_contracts/bet_kinto.sol\":3830:3841  newInstance */\n      dup2\n        /* \"packages/kinto_smart_contracts/bet_kinto.sol\":3830:3854  newInstance.totalAmounts */\n      0x03\n      add\n        /* \"packages/kinto_smart_contracts/bet_kinto.sol\":3830:3883  newInstance.totalAmounts = new uint256[](_numOptions) */\n      swap1\n      dup1\n      mload\n      swap1\n      0x20\n      add\n      swap1\n      tag_204\n      swap3\n      swap2\n      swap1\n      tag_205\n      jump\t// in\n    tag_204:\n      pop\n        /* \"packages/kinto_smart_contracts/bet_kinto.sol\":3952:3959  uint8 i */\n      0x00\n        /* \"packages/kinto_smart_contracts/bet_kinto.sol\":3947:4053  for (uint8 i = 0; i < _numOptions; i++) {... */\n    tag_206:\n        /* \"packages/kinto_smart_contracts/bet_kinto.sol\":3969:3980  _numOptions */\n      dup7\n        /* \"packages/kinto_smart_contracts/bet_kinto.sol\":3965:3980  i < _numOptions */\n      0xff\n      and\n        /* \"packages/kinto_smart_contracts/bet_kinto.sol\":3965:3966  i */\n      dup2\n        /* \"packages/kinto_smart_contracts/bet_kinto.sol\":3965:3980  i < _numOptions */\n      0xff\n      and\n      lt\n        /* \"packages/kinto_smart_contracts/bet_kinto.sol\":3947:4053  for (uint8 i = 0; i < _numOptions; i++) {... */\n      iszero\n      tag_207\n      jumpi\n        /* \"packages/kinto_smart_contracts/bet_kinto.sol\":4001:4012  newInstance */\n      dup2\n        /* \"packages/kinto_smart_contracts/bet_kinto.sol\":4001:4020  newInstance.options */\n      0x02\n      add\n        /* \"packages/kinto_smart_contracts/bet_kinto.sol\":4026:4038  _optionNames */\n      dup7\n      dup7\n        /* \"packages/kinto_smart_contracts/bet_kinto.sol\":4039:4040  i */\n      dup4\n        /* \"packages/kinto_smart_contracts/bet_kinto.sol\":4026:4041  _optionNames[i] */\n      0xff\n      and\n      dup2\n      dup2\n      lt\n      tag_209\n      jumpi\n      tag_210\n      tag_68\n      jump\t// in\n    tag_210:\n    tag_209:\n      swap1\n      pop\n      0x20\n      mul\n      dup2\n      add\n      swap1\n      tag_211\n      swap2\n      swap1\n      tag_212\n      jump\t// in\n    tag_211:\n        /* \"packages/kinto_smart_contracts/bet_kinto.sol\":4001:4042  newInstance.options.push(_optionNames[i]) */\n      swap1\n      swap2\n      dup1\n      0x01\n      dup2\n      sload\n      add\n      dup1\n      dup3\n      sstore\n      dup1\n      swap2\n      pop\n      pop\n      0x01\n      swap1\n      sub\n      swap1\n      0x00\n      mstore\n      keccak256(0x00, 0x20)\n      add\n      0x00\n      swap1\n      swap2\n      swap3\n      swap1\n      swap2\n      swap3\n      swap1\n      swap2\n      swap3\n      swap1\n      swap2\n      swap3\n      pop\n      swap2\n      dup3\n      tag_214\n      swap3\n      swap2\n      swap1\n      tag_200\n      jump\t// in\n    tag_214:\n      pop\n        /* \"packages/kinto_smart_contracts/bet_kinto.sol\":3982:3985  i++ */\n      dup1\n      dup1\n      0x01\n      add\n      swap2\n      pop\n      pop\n        /* \"packages/kinto_smart_contracts/bet_kinto.sol\":3947:4053  for (uint8 i = 0; i < _numOptions; i++) {... */\n      jump(tag_206)\n    tag_207:\n      pop\n        /* \"packages/kinto_smart_contracts/bet_kinto.sol\":4153:4158  betId */\n      dup2\n        /* \"packages/kinto_smart_contracts/bet_kinto.sol\":4122:4200  BetInstanceCreated(msg.sender, betId, _title, _optionNames, _minimumBetAmount) */\n      0x97af99d2c63f75ad7bd47985b34d10e40f7d6fe118ce9f3b2be759a8e1d65e45\n        /* \"packages/kinto_smart_contracts/bet_kinto.sol\":4141:4151  msg.sender */\n      caller\n        /* \"packages/kinto_smart_contracts/bet_kinto.sol\":4160:4166  _title */\n      dup11\n      dup11\n        /* \"packages/kinto_smart_contracts/bet_kinto.sol\":4168:4180  _optionNames */\n      dup10\n      dup10\n        /* \"packages/kinto_smart_contracts/bet_kinto.sol\":4182:4199  _minimumBetAmount */\n      dup10\n        /* \"packages/kinto_smart_contracts/bet_kinto.sol\":4122:4200  BetInstanceCreated(msg.sender, betId, _title, _optionNames, _minimumBetAmount) */\n      mload(0x40)\n      tag_215\n      swap7\n      swap6\n      swap5\n      swap4\n      swap3\n      swap2\n      swap1\n      tag_216\n      jump\t// in\n    tag_215:\n      mload(0x40)\n      dup1\n      swap2\n      sub\n      swap1\n      log2\n        /* \"packages/kinto_smart_contracts/bet_kinto.sol\":3195:4207  {  // Only the owner can create bet instances... */\n      pop\n      pop\n        /* \"packages/kinto_smart_contracts/bet_kinto.sol\":3009:4207  function createBetInstance(... */\n      pop\n      pop\n      pop\n      pop\n      pop\n      pop\n      jump\t// out\n        /* \"packages/kinto_smart_contracts/bet_kinto.sol\":12279:13673  function getAllOpenBets() external view returns (... */\n    tag_42:\n        /* \"packages/kinto_smart_contracts/bet_kinto.sol\":12337:12364  uint256[] memory openBetIds */\n      0x60\n        /* \"packages/kinto_smart_contracts/bet_kinto.sol\":12374:12396  string[] memory titles */\n      dup1\n        /* \"packages/kinto_smart_contracts/bet_kinto.sol\":12406:12431  string[][] memory options */\n      0x60\n        /* \"packages/kinto_smart_contracts/bet_kinto.sol\":12441:12475  uint256[] memory minimumBetAmounts */\n      dup1\n        /* \"packages/kinto_smart_contracts/bet_kinto.sol\":12485:12510  address[] memory creators */\n      0x60\n        /* \"packages/kinto_smart_contracts/bet_kinto.sol\":12527:12547  uint256 openBetCount */\n      0x00\n        /* \"packages/kinto_smart_contracts/bet_kinto.sol\":12598:12607  uint256 i */\n      dup1\n        /* \"packages/kinto_smart_contracts/bet_kinto.sol\":12610:12611  1 */\n      0x01\n        /* \"packages/kinto_smart_contracts/bet_kinto.sol\":12598:12611  uint256 i = 1 */\n      swap1\n      pop\n        /* \"packages/kinto_smart_contracts/bet_kinto.sol\":12593:12791  for (uint256 i = 1; i < nextBetId; i++) {... */\n    tag_218:\n        /* \"packages/kinto_smart_contracts/bet_kinto.sol\":12617:12626  nextBetId */\n      sload(0x01)\n        /* \"packages/kinto_smart_contracts/bet_kinto.sol\":12613:12614  i */\n      dup2\n        /* \"packages/kinto_smart_contracts/bet_kinto.sol\":12613:12626  i < nextBetId */\n      lt\n        /* \"packages/kinto_smart_contracts/bet_kinto.sol\":12593:12791  for (uint256 i = 1; i < nextBetId; i++) {... */\n      iszero\n      tag_219\n      jumpi\n        /* \"packages/kinto_smart_contracts/bet_kinto.sol\":12647:12678  BetInstance storage betInstance */\n      0x00\n        /* \"packages/kinto_smart_contracts/bet_kinto.sol\":12681:12693  betInstances */\n      0x02\n        /* \"packages/kinto_smart_contracts/bet_kinto.sol\":12681:12696  betInstances[i] */\n      0x00\n        /* \"packages/kinto_smart_contracts/bet_kinto.sol\":12694:12695  i */\n      dup4\n        /* \"packages/kinto_smart_contracts/bet_kinto.sol\":12681:12696  betInstances[i] */\n      dup2\n      mstore\n      0x20\n      add\n      swap1\n      dup2\n      mstore\n      0x20\n      add\n      0x00\n      keccak256\n        /* \"packages/kinto_smart_contracts/bet_kinto.sol\":12647:12696  BetInstance storage betInstance = betInstances[i] */\n      swap1\n      pop\n        /* \"packages/kinto_smart_contracts/bet_kinto.sol\":12714:12725  betInstance */\n      dup1\n        /* \"packages/kinto_smart_contracts/bet_kinto.sol\":12714:12732  betInstance.isOpen */\n      0x07\n      add\n      0x14\n      swap1\n      sload\n      swap1\n      0x0100\n      exp\n      swap1\n      div\n      0xff\n      and\n        /* \"packages/kinto_smart_contracts/bet_kinto.sol\":12710:12781  if (betInstance.isOpen) {... */\n      iszero\n      tag_221\n      jumpi\n        /* \"packages/kinto_smart_contracts/bet_kinto.sol\":12752:12766  openBetCount++ */\n      dup3\n      dup1\n      tag_222\n      swap1\n      tag_198\n      jump\t// in\n    tag_222:\n      swap4\n      pop\n      pop\n        /* \"packages/kinto_smart_contracts/bet_kinto.sol\":12710:12781  if (betInstance.isOpen) {... */\n    tag_221:\n        /* \"packages/kinto_smart_contracts/bet_kinto.sol\":12633:12791  {... */\n      pop\n        /* \"packages/kinto_smart_contracts/bet_kinto.sol\":12628:12631  i++ */\n      dup1\n      dup1\n      0x01\n      add\n      swap2\n      pop\n      pop\n        /* \"packages/kinto_smart_contracts/bet_kinto.sol\":12593:12791  for (uint256 i = 1; i < nextBetId; i++) {... */\n      jump(tag_218)\n    tag_219:\n      pop\n        /* \"packages/kinto_smart_contracts/bet_kinto.sol\":12878:12890  openBetCount */\n      dup1\n        /* \"packages/kinto_smart_contracts/bet_kinto.sol\":12864:12891  new uint256[](openBetCount) */\n      0xffffffffffffffff\n      dup2\n      gt\n      iszero\n      tag_223\n      jumpi\n      tag_224\n      tag_135\n      jump\t// in\n    tag_224:\n    tag_223:\n      mload(0x40)\n      swap1\n      dup1\n      dup3\n      mstore\n      dup1\n      0x20\n      mul\n      0x20\n      add\n      dup3\n      add\n      0x40\n      mstore\n      dup1\n      iszero\n      tag_225\n      jumpi\n      dup2\n      0x20\n      add\n      0x20\n      dup3\n      mul\n      dup1\n      calldatasize\n      dup4\n      calldatacopy\n      dup1\n      dup3\n      add\n      swap2\n      pop\n      pop\n      swap1\n      pop\n    tag_225:\n      pop\n        /* \"packages/kinto_smart_contracts/bet_kinto.sol\":12851:12891  openBetIds = new uint256[](openBetCount) */\n      swap6\n      pop\n        /* \"packages/kinto_smart_contracts/bet_kinto.sol\":12923:12935  openBetCount */\n      dup1\n        /* \"packages/kinto_smart_contracts/bet_kinto.sol\":12910:12936  new string[](openBetCount) */\n      0xffffffffffffffff\n      dup2\n      gt\n      iszero\n      tag_226\n      jumpi\n      tag_227\n      tag_135\n      jump\t// in\n    tag_227:\n    tag_226:\n      mload(0x40)\n      swap1\n      dup1\n      dup3\n      mstore\n      dup1\n      0x20\n      mul\n      0x20\n      add\n      dup3\n      add\n      0x40\n      mstore\n      dup1\n      iszero\n      tag_228\n      jumpi\n      dup2\n      0x20\n      add\n    tag_229:\n      0x60\n      dup2\n      mstore\n      0x20\n      add\n      swap1\n      0x01\n      swap1\n      sub\n      swap1\n      dup2\n      tag_229\n      jumpi\n      swap1\n      pop\n    tag_228:\n      pop\n        /* \"packages/kinto_smart_contracts/bet_kinto.sol\":12901:12936  titles = new string[](openBetCount) */\n      swap5\n      pop\n        /* \"packages/kinto_smart_contracts/bet_kinto.sol\":12971:12983  openBetCount */\n      dup1\n        /* \"packages/kinto_smart_contracts/bet_kinto.sol\":12956:12984  new string[][](openBetCount) */\n      0xffffffffffffffff\n      dup2\n      gt\n      iszero\n      tag_230\n      jumpi\n      tag_231\n      tag_135\n      jump\t// in\n    tag_231:\n    tag_230:\n      mload(0x40)\n      swap1\n      dup1\n      dup3\n      mstore\n      dup1\n      0x20\n      mul\n      0x20\n      add\n      dup3\n      add\n      0x40\n      mstore\n      dup1\n      iszero\n      tag_232\n      jumpi\n      dup2\n      0x20\n      add\n    tag_233:\n      0x60\n      dup2\n      mstore\n      0x20\n      add\n      swap1\n      0x01\n      swap1\n      sub\n      swap1\n      dup2\n      tag_233\n      jumpi\n      swap1\n      pop\n    tag_232:\n      pop\n        /* \"packages/kinto_smart_contracts/bet_kinto.sol\":12946:12984  options = new string[][](openBetCount) */\n      swap4\n      pop\n        /* \"packages/kinto_smart_contracts/bet_kinto.sol\":13028:13040  openBetCount */\n      dup1\n        /* \"packages/kinto_smart_contracts/bet_kinto.sol\":13014:13041  new uint256[](openBetCount) */\n      0xffffffffffffffff\n      dup2\n      gt\n      iszero\n      tag_234\n      jumpi\n      tag_235\n      tag_135\n      jump\t// in\n    tag_235:\n    tag_234:\n      mload(0x40)\n      swap1\n      dup1\n      dup3\n      mstore\n      dup1\n      0x20\n      mul\n      0x20\n      add\n      dup3\n      add\n      0x40\n      mstore\n      dup1\n      iszero\n      tag_236\n      jumpi\n      dup2\n      0x20\n      add\n      0x20\n      dup3\n      mul\n      dup1\n      calldatasize\n      dup4\n      calldatacopy\n      dup1\n      dup3\n      add\n      swap2\n      pop\n      pop\n      swap1\n      pop\n    tag_236:\n      pop\n        /* \"packages/kinto_smart_contracts/bet_kinto.sol\":12994:13041  minimumBetAmounts = new uint256[](openBetCount) */\n      swap3\n      pop\n        /* \"packages/kinto_smart_contracts/bet_kinto.sol\":13076:13088  openBetCount */\n      dup1\n        /* \"packages/kinto_smart_contracts/bet_kinto.sol\":13062:13089  new address[](openBetCount) */\n      0xffffffffffffffff\n      dup2\n      gt\n      iszero\n      tag_237\n      jumpi\n      tag_238\n      tag_135\n      jump\t// in\n    tag_238:\n    tag_237:\n      mload(0x40)\n      swap1\n      dup1\n      dup3\n      mstore\n      dup1\n      0x20\n      mul\n      0x20\n      add\n      dup3\n      add\n      0x40\n      mstore\n      dup1\n      iszero\n      tag_239\n      jumpi\n      dup2\n      0x20\n      add\n      0x20\n      dup3\n      mul\n      dup1\n      calldatasize\n      dup4\n      calldatacopy\n      dup1\n      dup3\n      add\n      swap2\n      pop\n      pop\n      swap1\n      pop\n    tag_239:\n      pop\n        /* \"packages/kinto_smart_contracts/bet_kinto.sol\":13051:13089  creators = new address[](openBetCount) */\n      swap2\n      pop\n        /* \"packages/kinto_smart_contracts/bet_kinto.sol\":13100:13113  uint256 index */\n      0x00\n        /* \"packages/kinto_smart_contracts/bet_kinto.sol\":13194:13203  uint256 i */\n      dup1\n        /* \"packages/kinto_smart_contracts/bet_kinto.sol\":13206:13207  1 */\n      0x01\n        /* \"packages/kinto_smart_contracts/bet_kinto.sol\":13194:13207  uint256 i = 1 */\n      swap1\n      pop\n        /* \"packages/kinto_smart_contracts/bet_kinto.sol\":13189:13667  for (uint256 i = 1; i < nextBetId; i++) {... */\n    tag_240:\n        /* \"packages/kinto_smart_contracts/bet_kinto.sol\":13213:13222  nextBetId */\n      sload(0x01)\n        /* \"packages/kinto_smart_contracts/bet_kinto.sol\":13209:13210  i */\n      dup2\n        /* \"packages/kinto_smart_contracts/bet_kinto.sol\":13209:13222  i < nextBetId */\n      lt\n        /* \"packages/kinto_smart_contracts/bet_kinto.sol\":13189:13667  for (uint256 i = 1; i < nextBetId; i++) {... */\n      iszero\n      tag_241\n      jumpi\n        /* \"packages/kinto_smart_contracts/bet_kinto.sol\":13243:13274  BetInstance storage betInstance */\n      0x00\n        /* \"packages/kinto_smart_contracts/bet_kinto.sol\":13277:13289  betInstances */\n      0x02\n        /* \"packages/kinto_smart_contracts/bet_kinto.sol\":13277:13292  betInstances[i] */\n      0x00\n        /* \"packages/kinto_smart_contracts/bet_kinto.sol\":13290:13291  i */\n      dup4\n        /* \"packages/kinto_smart_contracts/bet_kinto.sol\":13277:13292  betInstances[i] */\n      dup2\n      mstore\n      0x20\n      add\n      swap1\n      dup2\n      mstore\n      0x20\n      add\n      0x00\n      keccak256\n        /* \"packages/kinto_smart_contracts/bet_kinto.sol\":13243:13292  BetInstance storage betInstance = betInstances[i] */\n      swap1\n      pop\n        /* \"packages/kinto_smart_contracts/bet_kinto.sol\":13311:13322  betInstance */\n      dup1\n        /* \"packages/kinto_smart_contracts/bet_kinto.sol\":13311:13329  betInstance.isOpen */\n      0x07\n      add\n      0x14\n      swap1\n      sload\n      swap1\n      0x0100\n      exp\n      swap1\n      div\n      0xff\n      and\n        /* \"packages/kinto_smart_contracts/bet_kinto.sol\":13307:13657  if (betInstance.isOpen) {... */\n      iszero\n      tag_243\n      jumpi\n        /* \"packages/kinto_smart_contracts/bet_kinto.sol\":13369:13380  betInstance */\n      dup1\n        /* \"packages/kinto_smart_contracts/bet_kinto.sol\":13369:13383  betInstance.id */\n      0x00\n      add\n      sload\n        /* \"packages/kinto_smart_contracts/bet_kinto.sol\":13349:13359  openBetIds */\n      dup10\n        /* \"packages/kinto_smart_contracts/bet_kinto.sol\":13360:13365  index */\n      dup5\n        /* \"packages/kinto_smart_contracts/bet_kinto.sol\":13349:13366  openBetIds[index] */\n      dup2\n      mload\n      dup2\n      lt\n      tag_244\n      jumpi\n      tag_245\n      tag_68\n      jump\t// in\n    tag_245:\n    tag_244:\n      0x20\n      mul\n      0x20\n      add\n      add\n        /* \"packages/kinto_smart_contracts/bet_kinto.sol\":13349:13383  openBetIds[index] = betInstance.id */\n      dup2\n      dup2\n      mstore\n      pop\n      pop\n        /* \"packages/kinto_smart_contracts/bet_kinto.sol\":13417:13428  betInstance */\n      dup1\n        /* \"packages/kinto_smart_contracts/bet_kinto.sol\":13417:13434  betInstance.title */\n      0x01\n      add\n        /* \"packages/kinto_smart_contracts/bet_kinto.sol\":13401:13434  titles[index] = betInstance.title */\n      dup1\n      sload\n      tag_246\n      swap1\n      tag_120\n      jump\t// in\n    tag_246:\n      dup1\n      0x1f\n      add\n      0x20\n      dup1\n      swap2\n      div\n      mul\n      0x20\n      add\n      mload(0x40)\n      swap1\n      dup2\n      add\n      0x40\n      mstore\n      dup1\n      swap3\n      swap2\n      swap1\n      dup2\n      dup2\n      mstore\n      0x20\n      add\n      dup3\n      dup1\n      sload\n      tag_247\n      swap1\n      tag_120\n      jump\t// in\n    tag_247:\n      dup1\n      iszero\n      tag_248\n      jumpi\n      dup1\n      0x1f\n      lt\n      tag_249\n      jumpi\n      0x0100\n      dup1\n      dup4\n      sload\n      div\n      mul\n      dup4\n      mstore\n      swap2\n      0x20\n      add\n      swap2\n      jump(tag_248)\n    tag_249:\n      dup3\n      add\n      swap2\n      swap1\n      0x00\n      mstore\n      keccak256(0x00, 0x20)\n      swap1\n    tag_250:\n      dup2\n      sload\n      dup2\n      mstore\n      swap1\n      0x01\n      add\n      swap1\n      0x20\n      add\n      dup1\n      dup4\n      gt\n      tag_250\n      jumpi\n      dup3\n      swap1\n      sub\n      0x1f\n      and\n      dup3\n      add\n      swap2\n    tag_248:\n      pop\n      pop\n      pop\n      pop\n      pop\n        /* \"packages/kinto_smart_contracts/bet_kinto.sol\":13401:13407  titles */\n      dup9\n        /* \"packages/kinto_smart_contracts/bet_kinto.sol\":13408:13413  index */\n      dup5\n        /* \"packages/kinto_smart_contracts/bet_kinto.sol\":13401:13414  titles[index] */\n      dup2\n      mload\n      dup2\n      lt\n      tag_251\n      jumpi\n      tag_252\n      tag_68\n      jump\t// in\n    tag_252:\n    tag_251:\n      0x20\n      mul\n      0x20\n      add\n      add\n        /* \"packages/kinto_smart_contracts/bet_kinto.sol\":13401:13434  titles[index] = betInstance.title */\n      dup2\n      swap1\n      mstore\n      pop\n        /* \"packages/kinto_smart_contracts/bet_kinto.sol\":13469:13480  betInstance */\n      dup1\n        /* \"packages/kinto_smart_contracts/bet_kinto.sol\":13469:13488  betInstance.options */\n      0x02\n      add\n        /* \"packages/kinto_smart_contracts/bet_kinto.sol\":13452:13488  options[index] = betInstance.options */\n      dup1\n      sload\n      dup1\n      0x20\n      mul\n      0x20\n      add\n      mload(0x40)\n      swap1\n      dup2\n      add\n      0x40\n      mstore\n      dup1\n      swap3\n      swap2\n      swap1\n      dup2\n      dup2\n      mstore\n      0x20\n      add\n      0x00\n      swap1\n    tag_253:\n      dup3\n      dup3\n      lt\n      iszero\n      tag_254\n      jumpi\n      dup4\n      dup3\n      swap1\n      0x00\n      mstore\n      keccak256(0x00, 0x20)\n      add\n      dup1\n      sload\n      tag_256\n      swap1\n      tag_120\n      jump\t// in\n    tag_256:\n      dup1\n      0x1f\n      add\n      0x20\n      dup1\n      swap2\n      div\n      mul\n      0x20\n      add\n      mload(0x40)\n      swap1\n      dup2\n      add\n      0x40\n      mstore\n      dup1\n      swap3\n      swap2\n      swap1\n      dup2\n      dup2\n      mstore\n      0x20\n      add\n      dup3\n      dup1\n      sload\n      tag_257\n      swap1\n      tag_120\n      jump\t// in\n    tag_257:\n      dup1\n      iszero\n      tag_258\n      jumpi\n      dup1\n      0x1f\n      lt\n      tag_259\n      jumpi\n      0x0100\n      dup1\n      dup4\n      sload\n      div\n      mul\n      dup4\n      mstore\n      swap2\n      0x20\n      add\n      swap2\n      jump(tag_258)\n    tag_259:\n      dup3\n      add\n      swap2\n      swap1\n      0x00\n      mstore\n      keccak256(0x00, 0x20)\n      swap1\n    tag_260:\n      dup2\n      sload\n      dup2\n      mstore\n      swap1\n      0x01\n      add\n      swap1\n      0x20\n      add\n      dup1\n      dup4\n      gt\n      tag_260\n      jumpi\n      dup3\n      swap1\n      sub\n      0x1f\n      and\n      dup3\n      add\n      swap2\n    tag_258:\n      pop\n      pop\n      pop\n      pop\n      pop\n      dup2\n      mstore\n      0x20\n      add\n      swap1\n      0x01\n      add\n      swap1\n      jump(tag_253)\n    tag_254:\n      pop\n      pop\n      pop\n      pop\n        /* \"packages/kinto_smart_contracts/bet_kinto.sol\":13452:13459  options */\n      dup8\n        /* \"packages/kinto_smart_contracts/bet_kinto.sol\":13460:13465  index */\n      dup5\n        /* \"packages/kinto_smart_contracts/bet_kinto.sol\":13452:13466  options[index] */\n      dup2\n      mload\n      dup2\n      lt\n      tag_261\n      jumpi\n      tag_262\n      tag_68\n      jump\t// in\n    tag_262:\n    tag_261:\n      0x20\n      mul\n      0x20\n      add\n      add\n        /* \"packages/kinto_smart_contracts/bet_kinto.sol\":13452:13488  options[index] = betInstance.options */\n      dup2\n      swap1\n      mstore\n      pop\n        /* \"packages/kinto_smart_contracts/bet_kinto.sol\":13533:13544  betInstance */\n      dup1\n        /* \"packages/kinto_smart_contracts/bet_kinto.sol\":13533:13561  betInstance.minimumBetAmount */\n      0x04\n      add\n      sload\n        /* \"packages/kinto_smart_contracts/bet_kinto.sol\":13506:13523  minimumBetAmounts */\n      dup7\n        /* \"packages/kinto_smart_contracts/bet_kinto.sol\":13524:13529  index */\n      dup5\n        /* \"packages/kinto_smart_contracts/bet_kinto.sol\":13506:13530  minimumBetAmounts[index] */\n      dup2\n      mload\n      dup2\n      lt\n      tag_263\n      jumpi\n      tag_264\n      tag_68\n      jump\t// in\n    tag_264:\n    tag_263:\n      0x20\n      mul\n      0x20\n      add\n      add\n        /* \"packages/kinto_smart_contracts/bet_kinto.sol\":13506:13561  minimumBetAmounts[index] = betInstance.minimumBetAmount */\n      dup2\n      dup2\n      mstore\n      pop\n      pop\n        /* \"packages/kinto_smart_contracts/bet_kinto.sol\":13597:13608  betInstance */\n      dup1\n        /* \"packages/kinto_smart_contracts/bet_kinto.sol\":13597:13616  betInstance.creator */\n      0x07\n      add\n      0x00\n      swap1\n      sload\n      swap1\n      0x0100\n      exp\n      swap1\n      div\n      0xffffffffffffffffffffffffffffffffffffffff\n      and\n        /* \"packages/kinto_smart_contracts/bet_kinto.sol\":13579:13587  creators */\n      dup6\n        /* \"packages/kinto_smart_contracts/bet_kinto.sol\":13588:13593  index */\n      dup5\n        /* \"packages/kinto_smart_contracts/bet_kinto.sol\":13579:13594  creators[index] */\n      dup2\n      mload\n      dup2\n      lt\n      tag_265\n      jumpi\n      tag_266\n      tag_68\n      jump\t// in\n    tag_266:\n    tag_265:\n      0x20\n      mul\n      0x20\n      add\n      add\n        /* \"packages/kinto_smart_contracts/bet_kinto.sol\":13579:13616  creators[index] = betInstance.creator */\n      swap1\n      0xffffffffffffffffffffffffffffffffffffffff\n      and\n      swap1\n      dup2\n      0xffffffffffffffffffffffffffffffffffffffff\n      and\n      dup2\n      mstore\n      pop\n      pop\n        /* \"packages/kinto_smart_contracts/bet_kinto.sol\":13635:13642  index++ */\n      dup3\n      dup1\n      tag_267\n      swap1\n      tag_198\n      jump\t// in\n    tag_267:\n      swap4\n      pop\n      pop\n        /* \"packages/kinto_smart_contracts/bet_kinto.sol\":13307:13657  if (betInstance.isOpen) {... */\n    tag_243:\n        /* \"packages/kinto_smart_contracts/bet_kinto.sol\":13229:13667  {... */\n      pop\n        /* \"packages/kinto_smart_contracts/bet_kinto.sol\":13224:13227  i++ */\n      dup1\n      dup1\n      0x01\n      add\n      swap2\n      pop\n      pop\n        /* \"packages/kinto_smart_contracts/bet_kinto.sol\":13189:13667  for (uint256 i = 1; i < nextBetId; i++) {... */\n      jump(tag_240)\n    tag_241:\n      pop\n        /* \"packages/kinto_smart_contracts/bet_kinto.sol\":12517:13673  {... */\n      pop\n      pop\n        /* \"packages/kinto_smart_contracts/bet_kinto.sol\":12279:13673  function getAllOpenBets() external view returns (... */\n      swap1\n      swap2\n      swap3\n      swap4\n      swap5\n      jump\t// out\n        /* \"packages/kinto_smart_contracts/bet_kinto.sol\":5639:7670  function distributeWinnings(uint256 _betId, uint8 _winningOption) external onlyCreator(_betId) {... */\n    tag_48:\n        /* \"packages/kinto_smart_contracts/bet_kinto.sol\":5726:5732  _betId */\n      dup2\n        /* \"packages/kinto_smart_contracts/bet_kinto.sol\":2500:2512  betInstances */\n      0x02\n        /* \"packages/kinto_smart_contracts/bet_kinto.sol\":2500:2520  betInstances[_betId] */\n      0x00\n        /* \"packages/kinto_smart_contracts/bet_kinto.sol\":2513:2519  _betId */\n      dup3\n        /* \"packages/kinto_smart_contracts/bet_kinto.sol\":2500:2520  betInstances[_betId] */\n      dup2\n      mstore\n      0x20\n      add\n      swap1\n      dup2\n      mstore\n      0x20\n      add\n      0x00\n      keccak256\n        /* \"packages/kinto_smart_contracts/bet_kinto.sol\":2500:2528  betInstances[_betId].creator */\n      0x07\n      add\n      0x00\n      swap1\n      sload\n      swap1\n      0x0100\n      exp\n      swap1\n      div\n      0xffffffffffffffffffffffffffffffffffffffff\n      and\n        /* \"packages/kinto_smart_contracts/bet_kinto.sol\":2486:2528  msg.sender != betInstances[_betId].creator */\n      0xffffffffffffffffffffffffffffffffffffffff\n      and\n        /* \"packages/kinto_smart_contracts/bet_kinto.sol\":2486:2496  msg.sender */\n      caller\n        /* \"packages/kinto_smart_contracts/bet_kinto.sol\":2486:2528  msg.sender != betInstances[_betId].creator */\n      0xffffffffffffffffffffffffffffffffffffffff\n      and\n      eq\n        /* \"packages/kinto_smart_contracts/bet_kinto.sol\":2482:2579  if (msg.sender != betInstances[_betId].creator) {... */\n      tag_269\n      jumpi\n        /* \"packages/kinto_smart_contracts/bet_kinto.sol\":2544:2568  revert(\"Not authorized\") */\n      mload(0x40)\n      0x08c379a000000000000000000000000000000000000000000000000000000000\n      dup2\n      mstore\n      0x04\n      add\n      tag_270\n      swap1\n      tag_58\n      jump\t// in\n    tag_270:\n      mload(0x40)\n      dup1\n      swap2\n      sub\n      swap1\n      revert\n        /* \"packages/kinto_smart_contracts/bet_kinto.sol\":2482:2579  if (msg.sender != betInstances[_betId].creator) {... */\n    tag_269:\n        /* \"packages/kinto_smart_contracts/bet_kinto.sol\":5770:5771  1 */\n      0x01\n        /* \"packages/kinto_smart_contracts/bet_kinto.sol\":5752:5766  _winningOption */\n      dup3\n        /* \"packages/kinto_smart_contracts/bet_kinto.sol\":5752:5771  _winningOption >= 1 */\n      0xff\n      and\n      lt\n      iszero\n        /* \"packages/kinto_smart_contracts/bet_kinto.sol\":5752:5828  _winningOption >= 1 && _winningOption <= betInstances[_betId].options.length */\n      dup1\n      iszero\n      tag_272\n      jumpi\n      pop\n        /* \"packages/kinto_smart_contracts/bet_kinto.sol\":5793:5805  betInstances */\n      0x02\n        /* \"packages/kinto_smart_contracts/bet_kinto.sol\":5793:5813  betInstances[_betId] */\n      0x00\n        /* \"packages/kinto_smart_contracts/bet_kinto.sol\":5806:5812  _betId */\n      dup5\n        /* \"packages/kinto_smart_contracts/bet_kinto.sol\":5793:5813  betInstances[_betId] */\n      dup2\n      mstore\n      0x20\n      add\n      swap1\n      dup2\n      mstore\n      0x20\n      add\n      0x00\n      keccak256\n        /* \"packages/kinto_smart_contracts/bet_kinto.sol\":5793:5821  betInstances[_betId].options */\n      0x02\n      add\n        /* \"packages/kinto_smart_contracts/bet_kinto.sol\":5793:5828  betInstances[_betId].options.length */\n      dup1\n      sload\n      swap1\n      pop\n        /* \"packages/kinto_smart_contracts/bet_kinto.sol\":5775:5789  _winningOption */\n      dup3\n        /* \"packages/kinto_smart_contracts/bet_kinto.sol\":5775:5828  _winningOption <= betInstances[_betId].options.length */\n      0xff\n      and\n      gt\n      iszero\n        /* \"packages/kinto_smart_contracts/bet_kinto.sol\":5752:5828  _winningOption >= 1 && _winningOption <= betInstances[_betId].options.length */\n    tag_272:\n        /* \"packages/kinto_smart_contracts/bet_kinto.sol\":5744:5855  require(_winningOption >= 1 && _winningOption <= betInstances[_betId].options.length, \"Invalid winning option\") */\n      tag_273\n      jumpi\n      mload(0x40)\n      0x08c379a000000000000000000000000000000000000000000000000000000000\n      dup2\n      mstore\n      0x04\n      add\n      tag_274\n      swap1\n      tag_275\n      jump\t// in\n    tag_274:\n      mload(0x40)\n      dup1\n      swap2\n      sub\n      swap1\n      revert\n    tag_273:\n        /* \"packages/kinto_smart_contracts/bet_kinto.sol\":5866:5897  BetInstance storage betInstance */\n      0x00\n        /* \"packages/kinto_smart_contracts/bet_kinto.sol\":5900:5912  betInstances */\n      0x02\n        /* \"packages/kinto_smart_contracts/bet_kinto.sol\":5900:5920  betInstances[_betId] */\n      0x00\n        /* \"packages/kinto_smart_contracts/bet_kinto.sol\":5913:5919  _betId */\n      dup6\n        /* \"packages/kinto_smart_contracts/bet_kinto.sol\":5900:5920  betInstances[_betId] */\n      dup2\n      mstore\n      0x20\n      add\n      swap1\n      dup2\n      mstore\n      0x20\n      add\n      0x00\n      keccak256\n        /* \"packages/kinto_smart_contracts/bet_kinto.sol\":5866:5920  BetInstance storage betInstance = betInstances[_betId] */\n      swap1\n      pop\n        /* \"packages/kinto_smart_contracts/bet_kinto.sol\":5939:5950  betInstance */\n      dup1\n        /* \"packages/kinto_smart_contracts/bet_kinto.sol\":5939:5957  betInstance.isOpen */\n      0x07\n      add\n      0x14\n      swap1\n      sload\n      swap1\n      0x0100\n      exp\n      swap1\n      div\n      0xff\n      and\n        /* \"packages/kinto_smart_contracts/bet_kinto.sol\":5938:5957  !betInstance.isOpen */\n      iszero\n        /* \"packages/kinto_smart_contracts/bet_kinto.sol\":5938:5984  !betInstance.isOpen && !betInstance.isResolved */\n      dup1\n      iszero\n      tag_276\n      jumpi\n      pop\n        /* \"packages/kinto_smart_contracts/bet_kinto.sol\":5962:5973  betInstance */\n      dup1\n        /* \"packages/kinto_smart_contracts/bet_kinto.sol\":5962:5984  betInstance.isResolved */\n      0x07\n      add\n      0x15\n      swap1\n      sload\n      swap1\n      0x0100\n      exp\n      swap1\n      div\n      0xff\n      and\n        /* \"packages/kinto_smart_contracts/bet_kinto.sol\":5961:5984  !betInstance.isResolved */\n      iszero\n        /* \"packages/kinto_smart_contracts/bet_kinto.sol\":5938:5984  !betInstance.isOpen && !betInstance.isResolved */\n    tag_276:\n        /* \"packages/kinto_smart_contracts/bet_kinto.sol\":5930:6028  require(!betInstance.isOpen && !betInstance.isResolved, \"Betting must be closed and not resolved\") */\n      tag_277\n      jumpi\n      mload(0x40)\n      0x08c379a000000000000000000000000000000000000000000000000000000000\n      dup2\n      mstore\n      0x04\n      add\n      tag_278\n      swap1\n      tag_279\n      jump\t// in\n    tag_278:\n      mload(0x40)\n      dup1\n      swap2\n      sub\n      swap1\n      revert\n    tag_277:\n        /* \"packages/kinto_smart_contracts/bet_kinto.sol\":6102:6114  IERC20 token */\n      0x00\n        /* \"packages/kinto_smart_contracts/bet_kinto.sol\":514:556  0x010700808D59d2bb92257fCafACfe8e5bFF7aB87 */\n      0x010700808d59d2bb92257fcafacfe8e5bff7ab87\n        /* \"packages/kinto_smart_contracts/bet_kinto.sol\":6102:6144  IERC20 token = IERC20(KINTO_TOKEN_ADDRESS) */\n      swap1\n      pop\n        /* \"packages/kinto_smart_contracts/bet_kinto.sol\":6207:6238  uint256 totalAmountToDistribute */\n      0x00\n        /* \"packages/kinto_smart_contracts/bet_kinto.sol\":6257:6264  uint8 i */\n      dup1\n        /* \"packages/kinto_smart_contracts/bet_kinto.sol\":6252:6391  for (uint8 i = 0; i < betInstance.totalAmounts.length; i++) {... */\n    tag_280:\n        /* \"packages/kinto_smart_contracts/bet_kinto.sol\":6274:6285  betInstance */\n      dup4\n        /* \"packages/kinto_smart_contracts/bet_kinto.sol\":6274:6298  betInstance.totalAmounts */\n      0x03\n      add\n        /* \"packages/kinto_smart_contracts/bet_kinto.sol\":6274:6305  betInstance.totalAmounts.length */\n      dup1\n      sload\n      swap1\n      pop\n        /* \"packages/kinto_smart_contracts/bet_kinto.sol\":6270:6271  i */\n      dup2\n        /* \"packages/kinto_smart_contracts/bet_kinto.sol\":6270:6305  i < betInstance.totalAmounts.length */\n      0xff\n      and\n      lt\n        /* \"packages/kinto_smart_contracts/bet_kinto.sol\":6252:6391  for (uint8 i = 0; i < betInstance.totalAmounts.length; i++) {... */\n      iszero\n      tag_281\n      jumpi\n        /* \"packages/kinto_smart_contracts/bet_kinto.sol\":6353:6364  betInstance */\n      dup4\n        /* \"packages/kinto_smart_contracts/bet_kinto.sol\":6353:6377  betInstance.totalAmounts */\n      0x03\n      add\n        /* \"packages/kinto_smart_contracts/bet_kinto.sol\":6378:6379  i */\n      dup2\n        /* \"packages/kinto_smart_contracts/bet_kinto.sol\":6353:6380  betInstance.totalAmounts[i] */\n      0xff\n      and\n      dup2\n      sload\n      dup2\n      lt\n      tag_283\n      jumpi\n      tag_284\n      tag_68\n      jump\t// in\n    tag_284:\n    tag_283:\n      swap1\n      0x00\n      mstore\n      keccak256(0x00, 0x20)\n      add\n      sload\n        /* \"packages/kinto_smart_contracts/bet_kinto.sol\":6326:6380  totalAmountToDistribute += betInstance.totalAmounts[i] */\n      dup3\n      tag_286\n      swap2\n      swap1\n      tag_71\n      jump\t// in\n    tag_286:\n      swap2\n      pop\n        /* \"packages/kinto_smart_contracts/bet_kinto.sol\":6307:6310  i++ */\n      dup1\n      dup1\n      tag_287\n      swap1\n      tag_73\n      jump\t// in\n    tag_287:\n      swap2\n      pop\n      pop\n        /* \"packages/kinto_smart_contracts/bet_kinto.sol\":6252:6391  for (uint8 i = 0; i < betInstance.totalAmounts.length; i++) {... */\n      jump(tag_280)\n    tag_281:\n      pop\n        /* \"packages/kinto_smart_contracts/bet_kinto.sol\":6400:6432  uint256 totalAmountWinningOption */\n      0x00\n        /* \"packages/kinto_smart_contracts/bet_kinto.sol\":6435:6446  betInstance */\n      dup4\n        /* \"packages/kinto_smart_contracts/bet_kinto.sol\":6435:6459  betInstance.totalAmounts */\n      0x03\n      add\n        /* \"packages/kinto_smart_contracts/bet_kinto.sol\":6477:6478  1 */\n      0x01\n        /* \"packages/kinto_smart_contracts/bet_kinto.sol\":6460:6474  _winningOption */\n      dup8\n        /* \"packages/kinto_smart_contracts/bet_kinto.sol\":6460:6478  _winningOption - 1 */\n      tag_288\n      swap2\n      swap1\n      tag_172\n      jump\t// in\n    tag_288:\n        /* \"packages/kinto_smart_contracts/bet_kinto.sol\":6435:6479  betInstance.totalAmounts[_winningOption - 1] */\n      0xff\n      and\n      dup2\n      sload\n      dup2\n      lt\n      tag_289\n      jumpi\n      tag_290\n      tag_68\n      jump\t// in\n    tag_290:\n    tag_289:\n      swap1\n      0x00\n      mstore\n      keccak256(0x00, 0x20)\n      add\n      sload\n        /* \"packages/kinto_smart_contracts/bet_kinto.sol\":6400:6479  uint256 totalAmountWinningOption = betInstance.totalAmounts[_winningOption - 1] */\n      swap1\n      pop\n        /* \"packages/kinto_smart_contracts/bet_kinto.sol\":6561:6572  uint256 fee */\n      0x00\n        /* \"packages/kinto_smart_contracts/bet_kinto.sol\":6601:6604  100 */\n      0x64\n        /* \"packages/kinto_smart_contracts/bet_kinto.sol\":6575:6598  totalAmountToDistribute */\n      dup4\n        /* \"packages/kinto_smart_contracts/bet_kinto.sol\":6575:6604  totalAmountToDistribute / 100 */\n      tag_292\n      swap2\n      swap1\n      tag_75\n      jump\t// in\n    tag_292:\n        /* \"packages/kinto_smart_contracts/bet_kinto.sol\":6561:6604  uint256 fee = totalAmountToDistribute / 100 */\n      swap1\n      pop\n        /* \"packages/kinto_smart_contracts/bet_kinto.sol\":6614:6632  uint256 creatorFee */\n      0x00\n        /* \"packages/kinto_smart_contracts/bet_kinto.sol\":6635:6638  fee */\n      dup2\n        /* \"packages/kinto_smart_contracts/bet_kinto.sol\":6614:6638  uint256 creatorFee = fee */\n      swap1\n      pop\n        /* \"packages/kinto_smart_contracts/bet_kinto.sol\":6648:6671  uint256 remainingAmount */\n      0x00\n        /* \"packages/kinto_smart_contracts/bet_kinto.sol\":6706:6716  creatorFee */\n      dup2\n        /* \"packages/kinto_smart_contracts/bet_kinto.sol\":6700:6703  fee */\n      dup4\n        /* \"packages/kinto_smart_contracts/bet_kinto.sol\":6674:6697  totalAmountToDistribute */\n      dup7\n        /* \"packages/kinto_smart_contracts/bet_kinto.sol\":6674:6703  totalAmountToDistribute - fee */\n      tag_293\n      swap2\n      swap1\n      tag_77\n      jump\t// in\n    tag_293:\n        /* \"packages/kinto_smart_contracts/bet_kinto.sol\":6674:6716  totalAmountToDistribute - fee - creatorFee */\n      tag_294\n      swap2\n      swap1\n      tag_77\n      jump\t// in\n    tag_294:\n        /* \"packages/kinto_smart_contracts/bet_kinto.sol\":6648:6716  uint256 remainingAmount = totalAmountToDistribute - fee - creatorFee */\n      swap1\n      pop\n        /* \"packages/kinto_smart_contracts/bet_kinto.sol\":6735:6740  token */\n      dup6\n        /* \"packages/kinto_smart_contracts/bet_kinto.sol\":6735:6749  token.transfer */\n      0xffffffffffffffffffffffffffffffffffffffff\n      and\n      0xa9059cbb\n        /* \"packages/kinto_smart_contracts/bet_kinto.sol\":660:702  0x9b63FA365019Dd7bdF8cBED2823480F808391970 */\n      0x9b63fa365019dd7bdf8cbed2823480f808391970\n        /* \"packages/kinto_smart_contracts/bet_kinto.sol\":6763:6766  fee */\n      dup6\n        /* \"packages/kinto_smart_contracts/bet_kinto.sol\":6735:6767  token.transfer(FEE_ADDRESS, fee) */\n      mload(0x40)\n      dup4\n      0xffffffff\n      and\n      0xe0\n      shl\n      dup2\n      mstore\n      0x04\n      add\n      tag_295\n      swap3\n      swap2\n      swap1\n      tag_80\n      jump\t// in\n    tag_295:\n      0x20\n      mload(0x40)\n      dup1\n      dup4\n      sub\n      dup2\n      0x00\n      dup8\n      gas\n      call\n      iszero\n      dup1\n      iszero\n      tag_297\n      jumpi\n      returndatasize\n      0x00\n      dup1\n      returndatacopy\n      revert(0x00, returndatasize)\n    tag_297:\n      pop\n      pop\n      pop\n      pop\n      mload(0x40)\n      returndatasize\n      not(0x1f)\n      0x1f\n      dup3\n      add\n      and\n      dup3\n      add\n      dup1\n      0x40\n      mstore\n      pop\n      dup2\n      add\n      swap1\n      tag_298\n      swap2\n      swap1\n      tag_84\n      jump\t// in\n    tag_298:\n        /* \"packages/kinto_smart_contracts/bet_kinto.sol\":6727:6791  require(token.transfer(FEE_ADDRESS, fee), \"Fee transfer failed\") */\n      tag_299\n      jumpi\n      mload(0x40)\n      0x08c379a000000000000000000000000000000000000000000000000000000000\n      dup2\n      mstore\n      0x04\n      add\n      tag_300\n      swap1\n      tag_87\n      jump\t// in\n    tag_300:\n      mload(0x40)\n      dup1\n      swap2\n      sub\n      swap1\n      revert\n    tag_299:\n        /* \"packages/kinto_smart_contracts/bet_kinto.sol\":6809:6814  token */\n      dup6\n        /* \"packages/kinto_smart_contracts/bet_kinto.sol\":6809:6823  token.transfer */\n      0xffffffffffffffffffffffffffffffffffffffff\n      and\n      0xa9059cbb\n        /* \"packages/kinto_smart_contracts/bet_kinto.sol\":6824:6835  betInstance */\n      dup9\n        /* \"packages/kinto_smart_contracts/bet_kinto.sol\":6824:6843  betInstance.creator */\n      0x07\n      add\n      0x00\n      swap1\n      sload\n      swap1\n      0x0100\n      exp\n      swap1\n      div\n      0xffffffffffffffffffffffffffffffffffffffff\n      and\n        /* \"packages/kinto_smart_contracts/bet_kinto.sol\":6845:6855  creatorFee */\n      dup5\n        /* \"packages/kinto_smart_contracts/bet_kinto.sol\":6809:6856  token.transfer(betInstance.creator, creatorFee) */\n      mload(0x40)\n      dup4\n      0xffffffff\n      and\n      0xe0\n      shl\n      dup2\n      mstore\n      0x04\n      add\n      tag_301\n      swap3\n      swap2\n      swap1\n      tag_80\n      jump\t// in\n    tag_301:\n      0x20\n      mload(0x40)\n      dup1\n      dup4\n      sub\n      dup2\n      0x00\n      dup8\n      gas\n      call\n      iszero\n      dup1\n      iszero\n      tag_303\n      jumpi\n      returndatasize\n      0x00\n      dup1\n      returndatacopy\n      revert(0x00, returndatasize)\n    tag_303:\n      pop\n      pop\n      pop\n      pop\n      mload(0x40)\n      returndatasize\n      not(0x1f)\n      0x1f\n      dup3\n      add\n      and\n      dup3\n      add\n      dup1\n      0x40\n      mstore\n      pop\n      dup2\n      add\n      swap1\n      tag_304\n      swap2\n      swap1\n      tag_84\n      jump\t// in\n    tag_304:\n        /* \"packages/kinto_smart_contracts/bet_kinto.sol\":6801:6888  require(token.transfer(betInstance.creator, creatorFee), \"Creator fee transfer failed\") */\n      tag_305\n      jumpi\n      mload(0x40)\n      0x08c379a000000000000000000000000000000000000000000000000000000000\n      dup2\n      mstore\n      0x04\n      add\n      tag_306\n      swap1\n      tag_94\n      jump\t// in\n    tag_306:\n      mload(0x40)\n      dup1\n      swap2\n      sub\n      swap1\n      revert\n    tag_305:\n        /* \"packages/kinto_smart_contracts/bet_kinto.sol\":6962:6971  uint256 i */\n      0x00\n        /* \"packages/kinto_smart_contracts/bet_kinto.sol\":6957:7482  for (uint256 i = 0; i < betInstance.bettors.length; i++) {... */\n    tag_307:\n        /* \"packages/kinto_smart_contracts/bet_kinto.sol\":6981:6992  betInstance */\n      dup8\n        /* \"packages/kinto_smart_contracts/bet_kinto.sol\":6981:7000  betInstance.bettors */\n      0x06\n      add\n        /* \"packages/kinto_smart_contracts/bet_kinto.sol\":6981:7007  betInstance.bettors.length */\n      dup1\n      sload\n      swap1\n      pop\n        /* \"packages/kinto_smart_contracts/bet_kinto.sol\":6977:6978  i */\n      dup2\n        /* \"packages/kinto_smart_contracts/bet_kinto.sol\":6977:7007  i < betInstance.bettors.length */\n      lt\n        /* \"packages/kinto_smart_contracts/bet_kinto.sol\":6957:7482  for (uint256 i = 0; i < betInstance.bettors.length; i++) {... */\n      iszero\n      tag_308\n      jumpi\n        /* \"packages/kinto_smart_contracts/bet_kinto.sol\":7028:7042  address bettor */\n      0x00\n        /* \"packages/kinto_smart_contracts/bet_kinto.sol\":7045:7056  betInstance */\n      dup9\n        /* \"packages/kinto_smart_contracts/bet_kinto.sol\":7045:7064  betInstance.bettors */\n      0x06\n      add\n        /* \"packages/kinto_smart_contracts/bet_kinto.sol\":7065:7066  i */\n      dup3\n        /* \"packages/kinto_smart_contracts/bet_kinto.sol\":7045:7067  betInstance.bettors[i] */\n      dup2\n      sload\n      dup2\n      lt\n      tag_310\n      jumpi\n      tag_311\n      tag_68\n      jump\t// in\n    tag_311:\n    tag_310:\n      swap1\n      0x00\n      mstore\n      keccak256(0x00, 0x20)\n      add\n      0x00\n      swap1\n      sload\n      swap1\n      0x0100\n      exp\n      swap1\n      div\n      0xffffffffffffffffffffffffffffffffffffffff\n      and\n        /* \"packages/kinto_smart_contracts/bet_kinto.sol\":7028:7067  address bettor = betInstance.bettors[i] */\n      swap1\n      pop\n        /* \"packages/kinto_smart_contracts/bet_kinto.sol\":7081:7099  Bet[] storage bets */\n      0x00\n        /* \"packages/kinto_smart_contracts/bet_kinto.sol\":7102:7113  betInstance */\n      dup10\n        /* \"packages/kinto_smart_contracts/bet_kinto.sol\":7102:7118  betInstance.bets */\n      0x05\n      add\n        /* \"packages/kinto_smart_contracts/bet_kinto.sol\":7102:7126  betInstance.bets[bettor] */\n      0x00\n        /* \"packages/kinto_smart_contracts/bet_kinto.sol\":7119:7125  bettor */\n      dup4\n        /* \"packages/kinto_smart_contracts/bet_kinto.sol\":7102:7126  betInstance.bets[bettor] */\n      0xffffffffffffffffffffffffffffffffffffffff\n      and\n      0xffffffffffffffffffffffffffffffffffffffff\n      and\n      dup2\n      mstore\n      0x20\n      add\n      swap1\n      dup2\n      mstore\n      0x20\n      add\n      0x00\n      keccak256\n        /* \"packages/kinto_smart_contracts/bet_kinto.sol\":7081:7126  Bet[] storage bets = betInstance.bets[bettor] */\n      swap1\n      pop\n        /* \"packages/kinto_smart_contracts/bet_kinto.sol\":7145:7152  uint8 j */\n      0x00\n        /* \"packages/kinto_smart_contracts/bet_kinto.sol\":7140:7472  for (uint8 j = 0; j < bets.length; j++) {... */\n    tag_313:\n        /* \"packages/kinto_smart_contracts/bet_kinto.sol\":7162:7166  bets */\n      dup2\n        /* \"packages/kinto_smart_contracts/bet_kinto.sol\":7162:7173  bets.length */\n      dup1\n      sload\n      swap1\n      pop\n        /* \"packages/kinto_smart_contracts/bet_kinto.sol\":7158:7159  j */\n      dup2\n        /* \"packages/kinto_smart_contracts/bet_kinto.sol\":7158:7173  j < bets.length */\n      0xff\n      and\n      lt\n        /* \"packages/kinto_smart_contracts/bet_kinto.sol\":7140:7472  for (uint8 j = 0; j < bets.length; j++) {... */\n      iszero\n      tag_314\n      jumpi\n        /* \"packages/kinto_smart_contracts/bet_kinto.sol\":7228:7229  0 */\n      0x00\n        /* \"packages/kinto_smart_contracts/bet_kinto.sol\":7202:7230  bets[j].bettor != address(0) */\n      0xffffffffffffffffffffffffffffffffffffffff\n      and\n        /* \"packages/kinto_smart_contracts/bet_kinto.sol\":7202:7206  bets */\n      dup3\n        /* \"packages/kinto_smart_contracts/bet_kinto.sol\":7207:7208  j */\n      dup3\n        /* \"packages/kinto_smart_contracts/bet_kinto.sol\":7202:7209  bets[j] */\n      0xff\n      and\n      dup2\n      sload\n      dup2\n      lt\n      tag_316\n      jumpi\n      tag_317\n      tag_68\n      jump\t// in\n    tag_317:\n    tag_316:\n      swap1\n      0x00\n      mstore\n      keccak256(0x00, 0x20)\n      swap1\n      0x02\n      mul\n      add\n        /* \"packages/kinto_smart_contracts/bet_kinto.sol\":7202:7216  bets[j].bettor */\n      0x00\n      add\n      0x00\n      swap1\n      sload\n      swap1\n      0x0100\n      exp\n      swap1\n      div\n      0xffffffffffffffffffffffffffffffffffffffff\n      and\n        /* \"packages/kinto_smart_contracts/bet_kinto.sol\":7202:7230  bets[j].bettor != address(0) */\n      0xffffffffffffffffffffffffffffffffffffffff\n      and\n      eq\n        /* \"packages/kinto_smart_contracts/bet_kinto.sol\":7198:7458  if (bets[j].bettor != address(0)) {... */\n      tag_319\n      jumpi\n        /* \"packages/kinto_smart_contracts/bet_kinto.sol\":7254:7278  uint256 amountToTransfer */\n      0x00\n        /* \"packages/kinto_smart_contracts/bet_kinto.sol\":7318:7342  totalAmountWinningOption */\n      dup9\n        /* \"packages/kinto_smart_contracts/bet_kinto.sol\":7299:7314  remainingAmount */\n      dup7\n        /* \"packages/kinto_smart_contracts/bet_kinto.sol\":7282:7286  bets */\n      dup5\n        /* \"packages/kinto_smart_contracts/bet_kinto.sol\":7287:7288  j */\n      dup5\n        /* \"packages/kinto_smart_contracts/bet_kinto.sol\":7282:7289  bets[j] */\n      0xff\n      and\n      dup2\n      sload\n      dup2\n      lt\n      tag_320\n      jumpi\n      tag_321\n      tag_68\n      jump\t// in\n    tag_321:\n    tag_320:\n      swap1\n      0x00\n      mstore\n      keccak256(0x00, 0x20)\n      swap1\n      0x02\n      mul\n      add\n        /* \"packages/kinto_smart_contracts/bet_kinto.sol\":7282:7296  bets[j].amount */\n      0x01\n      add\n      sload\n        /* \"packages/kinto_smart_contracts/bet_kinto.sol\":7282:7314  bets[j].amount * remainingAmount */\n      tag_323\n      swap2\n      swap1\n      tag_108\n      jump\t// in\n    tag_323:\n        /* \"packages/kinto_smart_contracts/bet_kinto.sol\":7281:7342  (bets[j].amount * remainingAmount) / totalAmountWinningOption */\n      tag_324\n      swap2\n      swap1\n      tag_75\n      jump\t// in\n    tag_324:\n        /* \"packages/kinto_smart_contracts/bet_kinto.sol\":7254:7342  uint256 amountToTransfer = (bets[j].amount * remainingAmount) / totalAmountWinningOption */\n      swap1\n      pop\n        /* \"packages/kinto_smart_contracts/bet_kinto.sol\":7372:7377  token */\n      dup11\n        /* \"packages/kinto_smart_contracts/bet_kinto.sol\":7372:7386  token.transfer */\n      0xffffffffffffffffffffffffffffffffffffffff\n      and\n      0xa9059cbb\n        /* \"packages/kinto_smart_contracts/bet_kinto.sol\":7387:7393  bettor */\n      dup6\n        /* \"packages/kinto_smart_contracts/bet_kinto.sol\":7395:7411  amountToTransfer */\n      dup4\n        /* \"packages/kinto_smart_contracts/bet_kinto.sol\":7372:7412  token.transfer(bettor, amountToTransfer) */\n      mload(0x40)\n      dup4\n      0xffffffff\n      and\n      0xe0\n      shl\n      dup2\n      mstore\n      0x04\n      add\n      tag_325\n      swap3\n      swap2\n      swap1\n      tag_80\n      jump\t// in\n    tag_325:\n      0x20\n      mload(0x40)\n      dup1\n      dup4\n      sub\n      dup2\n      0x00\n      dup8\n      gas\n      call\n      iszero\n      dup1\n      iszero\n      tag_327\n      jumpi\n      returndatasize\n      0x00\n      dup1\n      returndatacopy\n      revert(0x00, returndatasize)\n    tag_327:\n      pop\n      pop\n      pop\n      pop\n      mload(0x40)\n      returndatasize\n      not(0x1f)\n      0x1f\n      dup3\n      add\n      and\n      dup3\n      add\n      dup1\n      0x40\n      mstore\n      pop\n      dup2\n      add\n      swap1\n      tag_328\n      swap2\n      swap1\n      tag_84\n      jump\t// in\n    tag_328:\n        /* \"packages/kinto_smart_contracts/bet_kinto.sol\":7364:7439  require(token.transfer(bettor, amountToTransfer), \"Winner transfer failed\") */\n      tag_329\n      jumpi\n      mload(0x40)\n      0x08c379a000000000000000000000000000000000000000000000000000000000\n      dup2\n      mstore\n      0x04\n      add\n      tag_330\n      swap1\n      tag_331\n      jump\t// in\n    tag_330:\n      mload(0x40)\n      dup1\n      swap2\n      sub\n      swap1\n      revert\n    tag_329:\n        /* \"packages/kinto_smart_contracts/bet_kinto.sol\":7232:7458  {... */\n      pop\n        /* \"packages/kinto_smart_contracts/bet_kinto.sol\":7198:7458  if (bets[j].bettor != address(0)) {... */\n    tag_319:\n        /* \"packages/kinto_smart_contracts/bet_kinto.sol\":7175:7178  j++ */\n      dup1\n      dup1\n      tag_332\n      swap1\n      tag_73\n      jump\t// in\n    tag_332:\n      swap2\n      pop\n      pop\n        /* \"packages/kinto_smart_contracts/bet_kinto.sol\":7140:7472  for (uint8 j = 0; j < bets.length; j++) {... */\n      jump(tag_313)\n    tag_314:\n      pop\n        /* \"packages/kinto_smart_contracts/bet_kinto.sol\":7014:7482  {... */\n      pop\n      pop\n        /* \"packages/kinto_smart_contracts/bet_kinto.sol\":7009:7012  i++ */\n      dup1\n      dup1\n      0x01\n      add\n      swap2\n      pop\n      pop\n        /* \"packages/kinto_smart_contracts/bet_kinto.sol\":6957:7482  for (uint256 i = 0; i < betInstance.bettors.length; i++) {... */\n      jump(tag_307)\n    tag_308:\n      pop\n        /* \"packages/kinto_smart_contracts/bet_kinto.sol\":7553:7557  true */\n      0x01\n        /* \"packages/kinto_smart_contracts/bet_kinto.sol\":7528:7539  betInstance */\n      dup8\n        /* \"packages/kinto_smart_contracts/bet_kinto.sol\":7528:7550  betInstance.isResolved */\n      0x07\n      add\n      0x15\n        /* \"packages/kinto_smart_contracts/bet_kinto.sol\":7528:7557  betInstance.isResolved = true */\n      0x0100\n      exp\n      dup2\n      sload\n      dup2\n      0xff\n      mul\n      not\n      and\n      swap1\n      dup4\n      iszero\n      iszero\n      mul\n      or\n      swap1\n      sstore\n      pop\n        /* \"packages/kinto_smart_contracts/bet_kinto.sol\":7595:7609  _winningOption */\n      dup9\n        /* \"packages/kinto_smart_contracts/bet_kinto.sol\":7567:7578  betInstance */\n      dup8\n        /* \"packages/kinto_smart_contracts/bet_kinto.sol\":7567:7592  betInstance.winningOption */\n      0x07\n      add\n      0x16\n        /* \"packages/kinto_smart_contracts/bet_kinto.sol\":7567:7609  betInstance.winningOption = _winningOption */\n      0x0100\n      exp\n      dup2\n      sload\n      dup2\n      0xff\n      mul\n      not\n      and\n      swap1\n      dup4\n      0xff\n      and\n      mul\n      or\n      swap1\n      sstore\n      pop\n        /* \"packages/kinto_smart_contracts/bet_kinto.sol\":7640:7646  _betId */\n      dup10\n        /* \"packages/kinto_smart_contracts/bet_kinto.sol\":7624:7663  BettingResolved(_betId, _winningOption) */\n      0x28c9277c6636bf00b5d22b2287c0f37926ae23a6825d5801e10a7183bb69045c\n        /* \"packages/kinto_smart_contracts/bet_kinto.sol\":7648:7662  _winningOption */\n      dup11\n        /* \"packages/kinto_smart_contracts/bet_kinto.sol\":7624:7663  BettingResolved(_betId, _winningOption) */\n      mload(0x40)\n      tag_333\n      swap2\n      swap1\n      tag_334\n      jump\t// in\n    tag_333:\n      mload(0x40)\n      dup1\n      swap2\n      sub\n      swap1\n      log2\n        /* \"packages/kinto_smart_contracts/bet_kinto.sol\":5734:7670  {... */\n      pop\n      pop\n      pop\n      pop\n      pop\n      pop\n      pop\n        /* \"packages/kinto_smart_contracts/bet_kinto.sol\":5639:7670  function distributeWinnings(uint256 _betId, uint8 _winningOption) external onlyCreator(_betId) {... */\n      pop\n      pop\n      pop\n      jump\t// out\n        /* \"packages/kinto_smart_contracts/bet_kinto.sol\":10630:12217  function getOpenBetsByAddress(address _bettor) external view returns (... */\n    tag_52:\n        /* \"packages/kinto_smart_contracts/bet_kinto.sol\":10709:10736  uint256[] memory openBetIds */\n      0x60\n        /* \"packages/kinto_smart_contracts/bet_kinto.sol\":10746:10768  string[] memory titles */\n      dup1\n        /* \"packages/kinto_smart_contracts/bet_kinto.sol\":10778:10802  uint256[] memory amounts */\n      0x60\n        /* \"packages/kinto_smart_contracts/bet_kinto.sol\":10812:10837  string[][] memory options */\n      dup1\n        /* \"packages/kinto_smart_contracts/bet_kinto.sol\":10854:10874  uint256 openBetCount */\n      0x00\n        /* \"packages/kinto_smart_contracts/bet_kinto.sol\":10940:10949  uint256 i */\n      dup1\n        /* \"packages/kinto_smart_contracts/bet_kinto.sol\":10952:10953  1 */\n      0x01\n        /* \"packages/kinto_smart_contracts/bet_kinto.sol\":10940:10953  uint256 i = 1 */\n      swap1\n      pop\n        /* \"packages/kinto_smart_contracts/bet_kinto.sol\":10935:11173  for (uint256 i = 1; i < nextBetId; i++) {... */\n    tag_336:\n        /* \"packages/kinto_smart_contracts/bet_kinto.sol\":10959:10968  nextBetId */\n      sload(0x01)\n        /* \"packages/kinto_smart_contracts/bet_kinto.sol\":10955:10956  i */\n      dup2\n        /* \"packages/kinto_smart_contracts/bet_kinto.sol\":10955:10968  i < nextBetId */\n      lt\n        /* \"packages/kinto_smart_contracts/bet_kinto.sol\":10935:11173  for (uint256 i = 1; i < nextBetId; i++) {... */\n      iszero\n      tag_337\n      jumpi\n        /* \"packages/kinto_smart_contracts/bet_kinto.sol\":10989:11020  BetInstance storage betInstance */\n      0x00\n        /* \"packages/kinto_smart_contracts/bet_kinto.sol\":11023:11035  betInstances */\n      0x02\n        /* \"packages/kinto_smart_contracts/bet_kinto.sol\":11023:11038  betInstances[i] */\n      0x00\n        /* \"packages/kinto_smart_contracts/bet_kinto.sol\":11036:11037  i */\n      dup4\n        /* \"packages/kinto_smart_contracts/bet_kinto.sol\":11023:11038  betInstances[i] */\n      dup2\n      mstore\n      0x20\n      add\n      swap1\n      dup2\n      mstore\n      0x20\n      add\n      0x00\n      keccak256\n        /* \"packages/kinto_smart_contracts/bet_kinto.sol\":10989:11038  BetInstance storage betInstance = betInstances[i] */\n      swap1\n      pop\n        /* \"packages/kinto_smart_contracts/bet_kinto.sol\":11056:11067  betInstance */\n      dup1\n        /* \"packages/kinto_smart_contracts/bet_kinto.sol\":11056:11074  betInstance.isOpen */\n      0x07\n      add\n      0x14\n      swap1\n      sload\n      swap1\n      0x0100\n      exp\n      swap1\n      div\n      0xff\n      and\n        /* \"packages/kinto_smart_contracts/bet_kinto.sol\":11056:11114  betInstance.isOpen && betInstance.bets[_bettor].length > 0 */\n      dup1\n      iszero\n      tag_339\n      jumpi\n      pop\n        /* \"packages/kinto_smart_contracts/bet_kinto.sol\":11113:11114  0 */\n      0x00\n        /* \"packages/kinto_smart_contracts/bet_kinto.sol\":11078:11089  betInstance */\n      dup2\n        /* \"packages/kinto_smart_contracts/bet_kinto.sol\":11078:11094  betInstance.bets */\n      0x05\n      add\n        /* \"packages/kinto_smart_contracts/bet_kinto.sol\":11078:11103  betInstance.bets[_bettor] */\n      0x00\n        /* \"packages/kinto_smart_contracts/bet_kinto.sol\":11095:11102  _bettor */\n      dup11\n        /* \"packages/kinto_smart_contracts/bet_kinto.sol\":11078:11103  betInstance.bets[_bettor] */\n      0xffffffffffffffffffffffffffffffffffffffff\n      and\n      0xffffffffffffffffffffffffffffffffffffffff\n      and\n      dup2\n      mstore\n      0x20\n      add\n      swap1\n      dup2\n      mstore\n      0x20\n      add\n      0x00\n      keccak256\n        /* \"packages/kinto_smart_contracts/bet_kinto.sol\":11078:11110  betInstance.bets[_bettor].length */\n      dup1\n      sload\n      swap1\n      pop\n        /* \"packages/kinto_smart_contracts/bet_kinto.sol\":11078:11114  betInstance.bets[_bettor].length > 0 */\n      gt\n        /* \"packages/kinto_smart_contracts/bet_kinto.sol\":11056:11114  betInstance.isOpen && betInstance.bets[_bettor].length > 0 */\n    tag_339:\n        /* \"packages/kinto_smart_contracts/bet_kinto.sol\":11052:11163  if (betInstance.isOpen && betInstance.bets[_bettor].length > 0) {... */\n      iszero\n      tag_340\n      jumpi\n        /* \"packages/kinto_smart_contracts/bet_kinto.sol\":11134:11148  openBetCount++ */\n      dup3\n      dup1\n      tag_341\n      swap1\n      tag_198\n      jump\t// in\n    tag_341:\n      swap4\n      pop\n      pop\n        /* \"packages/kinto_smart_contracts/bet_kinto.sol\":11052:11163  if (betInstance.isOpen && betInstance.bets[_bettor].length > 0) {... */\n    tag_340:\n        /* \"packages/kinto_smart_contracts/bet_kinto.sol\":10975:11173  {... */\n      pop\n        /* \"packages/kinto_smart_contracts/bet_kinto.sol\":10970:10973  i++ */\n      dup1\n      dup1\n      0x01\n      add\n      swap2\n      pop\n      pop\n        /* \"packages/kinto_smart_contracts/bet_kinto.sol\":10935:11173  for (uint256 i = 1; i < nextBetId; i++) {... */\n      jump(tag_336)\n    tag_337:\n      pop\n        /* \"packages/kinto_smart_contracts/bet_kinto.sol\":11260:11272  openBetCount */\n      dup1\n        /* \"packages/kinto_smart_contracts/bet_kinto.sol\":11246:11273  new uint256[](openBetCount) */\n      0xffffffffffffffff\n      dup2\n      gt\n      iszero\n      tag_342\n      jumpi\n      tag_343\n      tag_135\n      jump\t// in\n    tag_343:\n    tag_342:\n      mload(0x40)\n      swap1\n      dup1\n      dup3\n      mstore\n      dup1\n      0x20\n      mul\n      0x20\n      add\n      dup3\n      add\n      0x40\n      mstore\n      dup1\n      iszero\n      tag_344\n      jumpi\n      dup2\n      0x20\n      add\n      0x20\n      dup3\n      mul\n      dup1\n      calldatasize\n      dup4\n      calldatacopy\n      dup1\n      dup3\n      add\n      swap2\n      pop\n      pop\n      swap1\n      pop\n    tag_344:\n      pop\n        /* \"packages/kinto_smart_contracts/bet_kinto.sol\":11233:11273  openBetIds = new uint256[](openBetCount) */\n      swap5\n      pop\n        /* \"packages/kinto_smart_contracts/bet_kinto.sol\":11305:11317  openBetCount */\n      dup1\n        /* \"packages/kinto_smart_contracts/bet_kinto.sol\":11292:11318  new string[](openBetCount) */\n      0xffffffffffffffff\n      dup2\n      gt\n      iszero\n      tag_345\n      jumpi\n      tag_346\n      tag_135\n      jump\t// in\n    tag_346:\n    tag_345:\n      mload(0x40)\n      swap1\n      dup1\n      dup3\n      mstore\n      dup1\n      0x20\n      mul\n      0x20\n      add\n      dup3\n      add\n      0x40\n      mstore\n      dup1\n      iszero\n      tag_347\n      jumpi\n      dup2\n      0x20\n      add\n    tag_348:\n      0x60\n      dup2\n      mstore\n      0x20\n      add\n      swap1\n      0x01\n      swap1\n      sub\n      swap1\n      dup2\n      tag_348\n      jumpi\n      swap1\n      pop\n    tag_347:\n      pop\n        /* \"packages/kinto_smart_contracts/bet_kinto.sol\":11283:11318  titles = new string[](openBetCount) */\n      swap4\n      pop\n        /* \"packages/kinto_smart_contracts/bet_kinto.sol\":11352:11364  openBetCount */\n      dup1\n        /* \"packages/kinto_smart_contracts/bet_kinto.sol\":11338:11365  new uint256[](openBetCount) */\n      0xffffffffffffffff\n      dup2\n      gt\n      iszero\n      tag_349\n      jumpi\n      tag_350\n      tag_135\n      jump\t// in\n    tag_350:\n    tag_349:\n      mload(0x40)\n      swap1\n      dup1\n      dup3\n      mstore\n      dup1\n      0x20\n      mul\n      0x20\n      add\n      dup3\n      add\n      0x40\n      mstore\n      dup1\n      iszero\n      tag_351\n      jumpi\n      dup2\n      0x20\n      add\n      0x20\n      dup3\n      mul\n      dup1\n      calldatasize\n      dup4\n      calldatacopy\n      dup1\n      dup3\n      add\n      swap2\n      pop\n      pop\n      swap1\n      pop\n    tag_351:\n      pop\n        /* \"packages/kinto_smart_contracts/bet_kinto.sol\":11328:11365  amounts = new uint256[](openBetCount) */\n      swap3\n      pop\n        /* \"packages/kinto_smart_contracts/bet_kinto.sol\":11400:11412  openBetCount */\n      dup1\n        /* \"packages/kinto_smart_contracts/bet_kinto.sol\":11385:11413  new string[][](openBetCount) */\n      0xffffffffffffffff\n      dup2\n      gt\n      iszero\n      tag_352\n      jumpi\n      tag_353\n      tag_135\n      jump\t// in\n    tag_353:\n    tag_352:\n      mload(0x40)\n      swap1\n      dup1\n      dup3\n      mstore\n      dup1\n      0x20\n      mul\n      0x20\n      add\n      dup3\n      add\n      0x40\n      mstore\n      dup1\n      iszero\n      tag_354\n      jumpi\n      dup2\n      0x20\n      add\n    tag_355:\n      0x60\n      dup2\n      mstore\n      0x20\n      add\n      swap1\n      0x01\n      swap1\n      sub\n      swap1\n      dup2\n      tag_355\n      jumpi\n      swap1\n      pop\n    tag_354:\n      pop\n        /* \"packages/kinto_smart_contracts/bet_kinto.sol\":11375:11413  options = new string[][](openBetCount) */\n      swap2\n      pop\n        /* \"packages/kinto_smart_contracts/bet_kinto.sol\":11424:11437  uint256 index */\n      0x00\n        /* \"packages/kinto_smart_contracts/bet_kinto.sol\":11518:11527  uint256 i */\n      dup1\n        /* \"packages/kinto_smart_contracts/bet_kinto.sol\":11530:11531  1 */\n      0x01\n        /* \"packages/kinto_smart_contracts/bet_kinto.sol\":11518:11531  uint256 i = 1 */\n      swap1\n      pop\n        /* \"packages/kinto_smart_contracts/bet_kinto.sol\":11513:12211  for (uint256 i = 1; i < nextBetId; i++) {... */\n    tag_356:\n        /* \"packages/kinto_smart_contracts/bet_kinto.sol\":11537:11546  nextBetId */\n      sload(0x01)\n        /* \"packages/kinto_smart_contracts/bet_kinto.sol\":11533:11534  i */\n      dup2\n        /* \"packages/kinto_smart_contracts/bet_kinto.sol\":11533:11546  i < nextBetId */\n      lt\n        /* \"packages/kinto_smart_contracts/bet_kinto.sol\":11513:12211  for (uint256 i = 1; i < nextBetId; i++) {... */\n      iszero\n      tag_357\n      jumpi\n        /* \"packages/kinto_smart_contracts/bet_kinto.sol\":11567:11598  BetInstance storage betInstance */\n      0x00\n        /* \"packages/kinto_smart_contracts/bet_kinto.sol\":11601:11613  betInstances */\n      0x02\n        /* \"packages/kinto_smart_contracts/bet_kinto.sol\":11601:11616  betInstances[i] */\n      0x00\n        /* \"packages/kinto_smart_contracts/bet_kinto.sol\":11614:11615  i */\n      dup4\n        /* \"packages/kinto_smart_contracts/bet_kinto.sol\":11601:11616  betInstances[i] */\n      dup2\n      mstore\n      0x20\n      add\n      swap1\n      dup2\n      mstore\n      0x20\n      add\n      0x00\n      keccak256\n        /* \"packages/kinto_smart_contracts/bet_kinto.sol\":11567:11616  BetInstance storage betInstance = betInstances[i] */\n      swap1\n      pop\n        /* \"packages/kinto_smart_contracts/bet_kinto.sol\":11635:11646  betInstance */\n      dup1\n        /* \"packages/kinto_smart_contracts/bet_kinto.sol\":11635:11653  betInstance.isOpen */\n      0x07\n      add\n      0x14\n      swap1\n      sload\n      swap1\n      0x0100\n      exp\n      swap1\n      div\n      0xff\n      and\n        /* \"packages/kinto_smart_contracts/bet_kinto.sol\":11635:11693  betInstance.isOpen && betInstance.bets[_bettor].length > 0 */\n      dup1\n      iszero\n      tag_359\n      jumpi\n      pop\n        /* \"packages/kinto_smart_contracts/bet_kinto.sol\":11692:11693  0 */\n      0x00\n        /* \"packages/kinto_smart_contracts/bet_kinto.sol\":11657:11668  betInstance */\n      dup2\n        /* \"packages/kinto_smart_contracts/bet_kinto.sol\":11657:11673  betInstance.bets */\n      0x05\n      add\n        /* \"packages/kinto_smart_contracts/bet_kinto.sol\":11657:11682  betInstance.bets[_bettor] */\n      0x00\n        /* \"packages/kinto_smart_contracts/bet_kinto.sol\":11674:11681  _bettor */\n      dup12\n        /* \"packages/kinto_smart_contracts/bet_kinto.sol\":11657:11682  betInstance.bets[_bettor] */\n      0xffffffffffffffffffffffffffffffffffffffff\n      and\n      0xffffffffffffffffffffffffffffffffffffffff\n      and\n      dup2\n      mstore\n      0x20\n      add\n      swap1\n      dup2\n      mstore\n      0x20\n      add\n      0x00\n      keccak256\n        /* \"packages/kinto_smart_contracts/bet_kinto.sol\":11657:11689  betInstance.bets[_bettor].length */\n      dup1\n      sload\n      swap1\n      pop\n        /* \"packages/kinto_smart_contracts/bet_kinto.sol\":11657:11693  betInstance.bets[_bettor].length > 0 */\n      gt\n        /* \"packages/kinto_smart_contracts/bet_kinto.sol\":11635:11693  betInstance.isOpen && betInstance.bets[_bettor].length > 0 */\n    tag_359:\n        /* \"packages/kinto_smart_contracts/bet_kinto.sol\":11631:12201  if (betInstance.isOpen && betInstance.bets[_bettor].length > 0) {... */\n      iszero\n      tag_360\n      jumpi\n        /* \"packages/kinto_smart_contracts/bet_kinto.sol\":11733:11744  betInstance */\n      dup1\n        /* \"packages/kinto_smart_contracts/bet_kinto.sol\":11733:11747  betInstance.id */\n      0x00\n      add\n      sload\n        /* \"packages/kinto_smart_contracts/bet_kinto.sol\":11713:11723  openBetIds */\n      dup9\n        /* \"packages/kinto_smart_contracts/bet_kinto.sol\":11724:11729  index */\n      dup5\n        /* \"packages/kinto_smart_contracts/bet_kinto.sol\":11713:11730  openBetIds[index] */\n      dup2\n      mload\n      dup2\n      lt\n      tag_361\n      jumpi\n      tag_362\n      tag_68\n      jump\t// in\n    tag_362:\n    tag_361:\n      0x20\n      mul\n      0x20\n      add\n      add\n        /* \"packages/kinto_smart_contracts/bet_kinto.sol\":11713:11747  openBetIds[index] = betInstance.id */\n      dup2\n      dup2\n      mstore\n      pop\n      pop\n        /* \"packages/kinto_smart_contracts/bet_kinto.sol\":11781:11792  betInstance */\n      dup1\n        /* \"packages/kinto_smart_contracts/bet_kinto.sol\":11781:11798  betInstance.title */\n      0x01\n      add\n        /* \"packages/kinto_smart_contracts/bet_kinto.sol\":11765:11798  titles[index] = betInstance.title */\n      dup1\n      sload\n      tag_363\n      swap1\n      tag_120\n      jump\t// in\n    tag_363:\n      dup1\n      0x1f\n      add\n      0x20\n      dup1\n      swap2\n      div\n      mul\n      0x20\n      add\n      mload(0x40)\n      swap1\n      dup2\n      add\n      0x40\n      mstore\n      dup1\n      swap3\n      swap2\n      swap1\n      dup2\n      dup2\n      mstore\n      0x20\n      add\n      dup3\n      dup1\n      sload\n      tag_364\n      swap1\n      tag_120\n      jump\t// in\n    tag_364:\n      dup1\n      iszero\n      tag_365\n      jumpi\n      dup1\n      0x1f\n      lt\n      tag_366\n      jumpi\n      0x0100\n      dup1\n      dup4\n      sload\n      div\n      mul\n      dup4\n      mstore\n      swap2\n      0x20\n      add\n      swap2\n      jump(tag_365)\n    tag_366:\n      dup3\n      add\n      swap2\n      swap1\n      0x00\n      mstore\n      keccak256(0x00, 0x20)\n      swap1\n    tag_367:\n      dup2\n      sload\n      dup2\n      mstore\n      swap1\n      0x01\n      add\n      swap1\n      0x20\n      add\n      dup1\n      dup4\n      gt\n      tag_367\n      jumpi\n      dup3\n      swap1\n      sub\n      0x1f\n      and\n      dup3\n      add\n      swap2\n    tag_365:\n      pop\n      pop\n      pop\n      pop\n      pop\n        /* \"packages/kinto_smart_contracts/bet_kinto.sol\":11765:11771  titles */\n      dup8\n        /* \"packages/kinto_smart_contracts/bet_kinto.sol\":11772:11777  index */\n      dup5\n        /* \"packages/kinto_smart_contracts/bet_kinto.sol\":11765:11778  titles[index] */\n      dup2\n      mload\n      dup2\n      lt\n      tag_368\n      jumpi\n      tag_369\n      tag_68\n      jump\t// in\n    tag_369:\n    tag_368:\n      0x20\n      mul\n      0x20\n      add\n      add\n        /* \"packages/kinto_smart_contracts/bet_kinto.sol\":11765:11798  titles[index] = betInstance.title */\n      dup2\n      swap1\n      mstore\n      pop\n        /* \"packages/kinto_smart_contracts/bet_kinto.sol\":11817:11845  uint256 totalAmountBetByUser */\n      0x00\n        /* \"packages/kinto_smart_contracts/bet_kinto.sol\":11867:11885  Bet[] storage bets */\n      dup1\n        /* \"packages/kinto_smart_contracts/bet_kinto.sol\":11888:11899  betInstance */\n      dup3\n        /* \"packages/kinto_smart_contracts/bet_kinto.sol\":11888:11904  betInstance.bets */\n      0x05\n      add\n        /* \"packages/kinto_smart_contracts/bet_kinto.sol\":11888:11913  betInstance.bets[_bettor] */\n      0x00\n        /* \"packages/kinto_smart_contracts/bet_kinto.sol\":11905:11912  _bettor */\n      dup13\n        /* \"packages/kinto_smart_contracts/bet_kinto.sol\":11888:11913  betInstance.bets[_bettor] */\n      0xffffffffffffffffffffffffffffffffffffffff\n      and\n      0xffffffffffffffffffffffffffffffffffffffff\n      and\n      dup2\n      mstore\n      0x20\n      add\n      swap1\n      dup2\n      mstore\n      0x20\n      add\n      0x00\n      keccak256\n        /* \"packages/kinto_smart_contracts/bet_kinto.sol\":11867:11913  Bet[] storage bets = betInstance.bets[_bettor] */\n      swap1\n      pop\n        /* \"packages/kinto_smart_contracts/bet_kinto.sol\":11936:11945  uint256 j */\n      0x00\n        /* \"packages/kinto_smart_contracts/bet_kinto.sol\":11931:12052  for (uint256 j = 0; j < bets.length; j++) {... */\n    tag_370:\n        /* \"packages/kinto_smart_contracts/bet_kinto.sol\":11955:11959  bets */\n      dup2\n        /* \"packages/kinto_smart_contracts/bet_kinto.sol\":11955:11966  bets.length */\n      dup1\n      sload\n      swap1\n      pop\n        /* \"packages/kinto_smart_contracts/bet_kinto.sol\":11951:11952  j */\n      dup2\n        /* \"packages/kinto_smart_contracts/bet_kinto.sol\":11951:11966  j < bets.length */\n      lt\n        /* \"packages/kinto_smart_contracts/bet_kinto.sol\":11931:12052  for (uint256 j = 0; j < bets.length; j++) {... */\n      iszero\n      tag_371\n      jumpi\n        /* \"packages/kinto_smart_contracts/bet_kinto.sol\":12019:12023  bets */\n      dup2\n        /* \"packages/kinto_smart_contracts/bet_kinto.sol\":12024:12025  j */\n      dup2\n        /* \"packages/kinto_smart_contracts/bet_kinto.sol\":12019:12026  bets[j] */\n      dup2\n      sload\n      dup2\n      lt\n      tag_373\n      jumpi\n      tag_374\n      tag_68\n      jump\t// in\n    tag_374:\n    tag_373:\n      swap1\n      0x00\n      mstore\n      keccak256(0x00, 0x20)\n      swap1\n      0x02\n      mul\n      add\n        /* \"packages/kinto_smart_contracts/bet_kinto.sol\":12019:12033  bets[j].amount */\n      0x01\n      add\n      sload\n        /* \"packages/kinto_smart_contracts/bet_kinto.sol\":11995:12033  totalAmountBetByUser += bets[j].amount */\n      dup4\n      tag_376\n      swap2\n      swap1\n      tag_71\n      jump\t// in\n    tag_376:\n      swap3\n      pop\n        /* \"packages/kinto_smart_contracts/bet_kinto.sol\":11968:11971  j++ */\n      dup1\n      dup1\n      0x01\n      add\n      swap2\n      pop\n      pop\n        /* \"packages/kinto_smart_contracts/bet_kinto.sol\":11931:12052  for (uint256 j = 0; j < bets.length; j++) {... */\n      jump(tag_370)\n    tag_371:\n      pop\n        /* \"packages/kinto_smart_contracts/bet_kinto.sol\":12086:12106  totalAmountBetByUser */\n      dup2\n        /* \"packages/kinto_smart_contracts/bet_kinto.sol\":12069:12076  amounts */\n      dup9\n        /* \"packages/kinto_smart_contracts/bet_kinto.sol\":12077:12082  index */\n      dup7\n        /* \"packages/kinto_smart_contracts/bet_kinto.sol\":12069:12083  amounts[index] */\n      dup2\n      mload\n      dup2\n      lt\n      tag_377\n      jumpi\n      tag_378\n      tag_68\n      jump\t// in\n    tag_378:\n    tag_377:\n      0x20\n      mul\n      0x20\n      add\n      add\n        /* \"packages/kinto_smart_contracts/bet_kinto.sol\":12069:12106  amounts[index] = totalAmountBetByUser */\n      dup2\n      dup2\n      mstore\n      pop\n      pop\n        /* \"packages/kinto_smart_contracts/bet_kinto.sol\":12141:12152  betInstance */\n      dup3\n        /* \"packages/kinto_smart_contracts/bet_kinto.sol\":12141:12160  betInstance.options */\n      0x02\n      add\n        /* \"packages/kinto_smart_contracts/bet_kinto.sol\":12124:12160  options[index] = betInstance.options */\n      dup1\n      sload\n      dup1\n      0x20\n      mul\n      0x20\n      add\n      mload(0x40)\n      swap1\n      dup2\n      add\n      0x40\n      mstore\n      dup1\n      swap3\n      swap2\n      swap1\n      dup2\n      dup2\n      mstore\n      0x20\n      add\n      0x00\n      swap1\n    tag_379:\n      dup3\n      dup3\n      lt\n      iszero\n      tag_380\n      jumpi\n      dup4\n      dup3\n      swap1\n      0x00\n      mstore\n      keccak256(0x00, 0x20)\n      add\n      dup1\n      sload\n      tag_382\n      swap1\n      tag_120\n      jump\t// in\n    tag_382:\n      dup1\n      0x1f\n      add\n      0x20\n      dup1\n      swap2\n      div\n      mul\n      0x20\n      add\n      mload(0x40)\n      swap1\n      dup2\n      add\n      0x40\n      mstore\n      dup1\n      swap3\n      swap2\n      swap1\n      dup2\n      dup2\n      mstore\n      0x20\n      add\n      dup3\n      dup1\n      sload\n      tag_383\n      swap1\n      tag_120\n      jump\t// in\n    tag_383:\n      dup1\n      iszero\n      tag_384\n      jumpi\n      dup1\n      0x1f\n      lt\n      tag_385\n      jumpi\n      0x0100\n      dup1\n      dup4\n      sload\n      div\n      mul\n      dup4\n      mstore\n      swap2\n      0x20\n      add\n      swap2\n      jump(tag_384)\n    tag_385:\n      dup3\n      add\n      swap2\n      swap1\n      0x00\n      mstore\n      keccak256(0x00, 0x20)\n      swap1\n    tag_386:\n      dup2\n      sload\n      dup2\n      mstore\n      swap1\n      0x01\n      add\n      swap1\n      0x20\n      add\n      dup1\n      dup4\n      gt\n      tag_386\n      jumpi\n      dup3\n      swap1\n      sub\n      0x1f\n      and\n      dup3\n      add\n      swap2\n    tag_384:\n      pop\n      pop\n      pop\n      pop\n      pop\n      dup2\n      mstore\n      0x20\n      add\n      swap1\n      0x01\n      add\n      swap1\n      jump(tag_379)\n    tag_380:\n      pop\n      pop\n      pop\n      pop\n        /* \"packages/kinto_smart_contracts/bet_kinto.sol\":12124:12131  options */\n      dup8\n        /* \"packages/kinto_smart_contracts/bet_kinto.sol\":12132:12137  index */\n      dup7\n        /* \"packages/kinto_smart_contracts/bet_kinto.sol\":12124:12138  options[index] */\n      dup2\n      mload\n      dup2\n      lt\n      tag_387\n      jumpi\n      tag_388\n      tag_68\n      jump\t// in\n    tag_388:\n    tag_387:\n      0x20\n      mul\n      0x20\n      add\n      add\n        /* \"packages/kinto_smart_contracts/bet_kinto.sol\":12124:12160  options[index] = betInstance.options */\n      dup2\n      swap1\n      mstore\n      pop\n        /* \"packages/kinto_smart_contracts/bet_kinto.sol\":12179:12186  index++ */\n      dup5\n      dup1\n      tag_389\n      swap1\n      tag_198\n      jump\t// in\n    tag_389:\n      swap6\n      pop\n      pop\n        /* \"packages/kinto_smart_contracts/bet_kinto.sol\":11695:12201  {... */\n      pop\n      pop\n        /* \"packages/kinto_smart_contracts/bet_kinto.sol\":11631:12201  if (betInstance.isOpen && betInstance.bets[_bettor].length > 0) {... */\n    tag_360:\n        /* \"packages/kinto_smart_contracts/bet_kinto.sol\":11553:12211  {... */\n      pop\n        /* \"packages/kinto_smart_contracts/bet_kinto.sol\":11548:11551  i++ */\n      dup1\n      dup1\n      0x01\n      add\n      swap2\n      pop\n      pop\n        /* \"packages/kinto_smart_contracts/bet_kinto.sol\":11513:12211  for (uint256 i = 1; i < nextBetId; i++) {... */\n      jump(tag_356)\n    tag_357:\n      pop\n        /* \"packages/kinto_smart_contracts/bet_kinto.sol\":10844:12217  {... */\n      pop\n      pop\n        /* \"packages/kinto_smart_contracts/bet_kinto.sol\":10630:12217  function getOpenBetsByAddress(address _bettor) external view returns (... */\n      swap2\n      swap4\n      pop\n      swap2\n      swap4\n      jump\t// out\n    tag_205:\n      dup3\n      dup1\n      sload\n      dup3\n      dup3\n      sstore\n      swap1\n      0x00\n      mstore\n      keccak256(0x00, 0x20)\n      swap1\n      dup2\n      add\n      swap3\n      dup3\n      iszero\n      tag_390\n      jumpi\n      swap2\n      0x20\n      mul\n      dup3\n      add\n    tag_391:\n      dup3\n      dup2\n      gt\n      iszero\n      tag_392\n      jumpi\n      dup3\n      mload\n      dup3\n      sstore\n      swap2\n      0x20\n      add\n      swap2\n      swap1\n      0x01\n      add\n      swap1\n      jump(tag_391)\n    tag_392:\n    tag_390:\n      pop\n      swap1\n      pop\n      tag_393\n      swap2\n      swap1\n      tag_394\n      jump\t// in\n    tag_393:\n      pop\n      swap1\n      jump\t// out\n    tag_394:\n    tag_395:\n      dup1\n      dup3\n      gt\n      iszero\n      tag_396\n      jumpi\n      0x00\n      dup2\n      0x00\n      swap1\n      sstore\n      pop\n      0x01\n      add\n      jump(tag_395)\n    tag_396:\n      pop\n      swap1\n      jump\t// out\n        /* \"#utility.yul\":7:133   */\n    tag_397:\n        /* \"#utility.yul\":44:51   */\n      0x00\n        /* \"#utility.yul\":84:126   */\n      0xffffffffffffffffffffffffffffffffffffffff\n        /* \"#utility.yul\":77:82   */\n      dup3\n        /* \"#utility.yul\":73:127   */\n      and\n        /* \"#utility.yul\":62:127   */\n      swap1\n      pop\n        /* \"#utility.yul\":7:133   */\n      swap2\n      swap1\n      pop\n      jump\t// out\n        /* \"#utility.yul\":139:235   */\n    tag_398:\n        /* \"#utility.yul\":176:183   */\n      0x00\n        /* \"#utility.yul\":205:229   */\n      tag_523\n        /* \"#utility.yul\":223:228   */\n      dup3\n        /* \"#utility.yul\":205:229   */\n      tag_397\n      jump\t// in\n    tag_523:\n        /* \"#utility.yul\":194:229   */\n      swap1\n      pop\n        /* \"#utility.yul\":139:235   */\n      swap2\n      swap1\n      pop\n      jump\t// out\n        /* \"#utility.yul\":241:359   */\n    tag_399:\n        /* \"#utility.yul\":328:352   */\n      tag_525\n        /* \"#utility.yul\":346:351   */\n      dup2\n        /* \"#utility.yul\":328:352   */\n      tag_398\n      jump\t// in\n    tag_525:\n        /* \"#utility.yul\":323:326   */\n      dup3\n        /* \"#utility.yul\":316:353   */\n      mstore\n        /* \"#utility.yul\":241:359   */\n      pop\n      pop\n      jump\t// out\n        /* \"#utility.yul\":365:587   */\n    tag_17:\n        /* \"#utility.yul\":458:462   */\n      0x00\n        /* \"#utility.yul\":496:498   */\n      0x20\n        /* \"#utility.yul\":485:494   */\n      dup3\n        /* \"#utility.yul\":481:499   */\n      add\n        /* \"#utility.yul\":473:499   */\n      swap1\n      pop\n        /* \"#utility.yul\":509:580   */\n      tag_527\n        /* \"#utility.yul\":577:578   */\n      0x00\n        /* \"#utility.yul\":566:575   */\n      dup4\n        /* \"#utility.yul\":562:579   */\n      add\n        /* \"#utility.yul\":553:559   */\n      dup5\n        /* \"#utility.yul\":509:580   */\n      tag_399\n      jump\t// in\n    tag_527:\n        /* \"#utility.yul\":365:587   */\n      swap3\n      swap2\n      pop\n      pop\n      jump\t// out\n        /* \"#utility.yul\":674:791   */\n    tag_401:\n        /* \"#utility.yul\":783:784   */\n      0x00\n        /* \"#utility.yul\":780:781   */\n      dup1\n        /* \"#utility.yul\":773:785   */\n      revert\n        /* \"#utility.yul\":797:914   */\n    tag_402:\n        /* \"#utility.yul\":906:907   */\n      0x00\n        /* \"#utility.yul\":903:904   */\n      dup1\n        /* \"#utility.yul\":896:908   */\n      revert\n        /* \"#utility.yul\":920:997   */\n    tag_403:\n        /* \"#utility.yul\":957:964   */\n      0x00\n        /* \"#utility.yul\":986:991   */\n      dup2\n        /* \"#utility.yul\":975:991   */\n      swap1\n      pop\n        /* \"#utility.yul\":920:997   */\n      swap2\n      swap1\n      pop\n      jump\t// out\n        /* \"#utility.yul\":1003:1125   */\n    tag_404:\n        /* \"#utility.yul\":1076:1100   */\n      tag_533\n        /* \"#utility.yul\":1094:1099   */\n      dup2\n        /* \"#utility.yul\":1076:1100   */\n      tag_403\n      jump\t// in\n    tag_533:\n        /* \"#utility.yul\":1069:1074   */\n      dup2\n        /* \"#utility.yul\":1066:1101   */\n      eq\n        /* \"#utility.yul\":1056:1119   */\n      tag_534\n      jumpi\n        /* \"#utility.yul\":1115:1116   */\n      0x00\n        /* \"#utility.yul\":1112:1113   */\n      dup1\n        /* \"#utility.yul\":1105:1117   */\n      revert\n        /* \"#utility.yul\":1056:1119   */\n    tag_534:\n        /* \"#utility.yul\":1003:1125   */\n      pop\n      jump\t// out\n        /* \"#utility.yul\":1131:1270   */\n    tag_405:\n        /* \"#utility.yul\":1177:1182   */\n      0x00\n        /* \"#utility.yul\":1215:1221   */\n      dup2\n        /* \"#utility.yul\":1202:1222   */\n      calldataload\n        /* \"#utility.yul\":1193:1222   */\n      swap1\n      pop\n        /* \"#utility.yul\":1231:1264   */\n      tag_536\n        /* \"#utility.yul\":1258:1263   */\n      dup2\n        /* \"#utility.yul\":1231:1264   */\n      tag_404\n      jump\t// in\n    tag_536:\n        /* \"#utility.yul\":1131:1270   */\n      swap3\n      swap2\n      pop\n      pop\n      jump\t// out\n        /* \"#utility.yul\":1276:1605   */\n    tag_20:\n        /* \"#utility.yul\":1335:1341   */\n      0x00\n        /* \"#utility.yul\":1384:1386   */\n      0x20\n        /* \"#utility.yul\":1372:1381   */\n      dup3\n        /* \"#utility.yul\":1363:1370   */\n      dup5\n        /* \"#utility.yul\":1359:1382   */\n      sub\n        /* \"#utility.yul\":1355:1387   */\n      slt\n        /* \"#utility.yul\":1352:1471   */\n      iszero\n      tag_538\n      jumpi\n        /* \"#utility.yul\":1390:1469   */\n      tag_539\n      tag_401\n      jump\t// in\n    tag_539:\n        /* \"#utility.yul\":1352:1471   */\n    tag_538:\n        /* \"#utility.yul\":1510:1511   */\n      0x00\n        /* \"#utility.yul\":1535:1588   */\n      tag_540\n        /* \"#utility.yul\":1580:1587   */\n      dup5\n        /* \"#utility.yul\":1571:1577   */\n      dup3\n        /* \"#utility.yul\":1560:1569   */\n      dup6\n        /* \"#utility.yul\":1556:1578   */\n      add\n        /* \"#utility.yul\":1535:1588   */\n      tag_405\n      jump\t// in\n    tag_540:\n        /* \"#utility.yul\":1525:1588   */\n      swap2\n      pop\n        /* \"#utility.yul\":1481:1598   */\n      pop\n        /* \"#utility.yul\":1276:1605   */\n      swap3\n      swap2\n      pop\n      pop\n      jump\t// out\n        /* \"#utility.yul\":1611:1710   */\n    tag_406:\n        /* \"#utility.yul\":1663:1669   */\n      0x00\n        /* \"#utility.yul\":1697:1702   */\n      dup2\n        /* \"#utility.yul\":1691:1703   */\n      mload\n        /* \"#utility.yul\":1681:1703   */\n      swap1\n      pop\n        /* \"#utility.yul\":1611:1710   */\n      swap2\n      swap1\n      pop\n      jump\t// out\n        /* \"#utility.yul\":1716:1885   */\n    tag_407:\n        /* \"#utility.yul\":1800:1811   */\n      0x00\n        /* \"#utility.yul\":1834:1840   */\n      dup3\n        /* \"#utility.yul\":1829:1832   */\n      dup3\n        /* \"#utility.yul\":1822:1841   */\n      mstore\n        /* \"#utility.yul\":1874:1878   */\n      0x20\n        /* \"#utility.yul\":1869:1872   */\n      dup3\n        /* \"#utility.yul\":1865:1879   */\n      add\n        /* \"#utility.yul\":1850:1879   */\n      swap1\n      pop\n        /* \"#utility.yul\":1716:1885   */\n      swap3\n      swap2\n      pop\n      pop\n      jump\t// out\n        /* \"#utility.yul\":1891:2030   */\n    tag_408:\n        /* \"#utility.yul\":1980:1986   */\n      dup3\n        /* \"#utility.yul\":1975:1978   */\n      dup2\n        /* \"#utility.yul\":1970:1973   */\n      dup4\n        /* \"#utility.yul\":1964:1987   */\n      mcopy\n        /* \"#utility.yul\":2021:2022   */\n      0x00\n        /* \"#utility.yul\":2012:2018   */\n      dup4\n        /* \"#utility.yul\":2007:2010   */\n      dup4\n        /* \"#utility.yul\":2003:2019   */\n      add\n        /* \"#utility.yul\":1996:2023   */\n      mstore\n        /* \"#utility.yul\":1891:2030   */\n      pop\n      pop\n      pop\n      jump\t// out\n        /* \"#utility.yul\":2036:2138   */\n    tag_409:\n        /* \"#utility.yul\":2077:2083   */\n      0x00\n        /* \"#utility.yul\":2128:2130   */\n      0x1f\n        /* \"#utility.yul\":2124:2131   */\n      not\n        /* \"#utility.yul\":2119:2121   */\n      0x1f\n        /* \"#utility.yul\":2112:2117   */\n      dup4\n        /* \"#utility.yul\":2108:2122   */\n      add\n        /* \"#utility.yul\":2104:2132   */\n      and\n        /* \"#utility.yul\":2094:2132   */\n      swap1\n      pop\n        /* \"#utility.yul\":2036:2138   */\n      swap2\n      swap1\n      pop\n      jump\t// out\n        /* \"#utility.yul\":2144:2521   */\n    tag_410:\n        /* \"#utility.yul\":2232:2235   */\n      0x00\n        /* \"#utility.yul\":2260:2299   */\n      tag_546\n        /* \"#utility.yul\":2293:2298   */\n      dup3\n        /* \"#utility.yul\":2260:2299   */\n      tag_406\n      jump\t// in\n    tag_546:\n        /* \"#utility.yul\":2315:2386   */\n      tag_547\n        /* \"#utility.yul\":2379:2385   */\n      dup2\n        /* \"#utility.yul\":2374:2377   */\n      dup6\n        /* \"#utility.yul\":2315:2386   */\n      tag_407\n      jump\t// in\n    tag_547:\n        /* \"#utility.yul\":2308:2386   */\n      swap4\n      pop\n        /* \"#utility.yul\":2395:2460   */\n      tag_548\n        /* \"#utility.yul\":2453:2459   */\n      dup2\n        /* \"#utility.yul\":2448:2451   */\n      dup6\n        /* \"#utility.yul\":2441:2445   */\n      0x20\n        /* \"#utility.yul\":2434:2439   */\n      dup7\n        /* \"#utility.yul\":2430:2446   */\n      add\n        /* \"#utility.yul\":2395:2460   */\n      tag_408\n      jump\t// in\n    tag_548:\n        /* \"#utility.yul\":2485:2514   */\n      tag_549\n        /* \"#utility.yul\":2507:2513   */\n      dup2\n        /* \"#utility.yul\":2485:2514   */\n      tag_409\n      jump\t// in\n    tag_549:\n        /* \"#utility.yul\":2480:2483   */\n      dup5\n        /* \"#utility.yul\":2476:2515   */\n      add\n        /* \"#utility.yul\":2469:2515   */\n      swap2\n      pop\n        /* \"#utility.yul\":2236:2521   */\n      pop\n        /* \"#utility.yul\":2144:2521   */\n      swap3\n      swap2\n      pop\n      pop\n      jump\t// out\n        /* \"#utility.yul\":2527:2651   */\n    tag_411:\n        /* \"#utility.yul\":2604:2610   */\n      0x00\n        /* \"#utility.yul\":2638:2643   */\n      dup2\n        /* \"#utility.yul\":2632:2644   */\n      mload\n        /* \"#utility.yul\":2622:2644   */\n      swap1\n      pop\n        /* \"#utility.yul\":2527:2651   */\n      swap2\n      swap1\n      pop\n      jump\t// out\n        /* \"#utility.yul\":2657:2851   */\n    tag_412:\n        /* \"#utility.yul\":2766:2777   */\n      0x00\n        /* \"#utility.yul\":2800:2806   */\n      dup3\n        /* \"#utility.yul\":2795:2798   */\n      dup3\n        /* \"#utility.yul\":2788:2807   */\n      mstore\n        /* \"#utility.yul\":2840:2844   */\n      0x20\n        /* \"#utility.yul\":2835:2838   */\n      dup3\n        /* \"#utility.yul\":2831:2845   */\n      add\n        /* \"#utility.yul\":2816:2845   */\n      swap1\n      pop\n        /* \"#utility.yul\":2657:2851   */\n      swap3\n      swap2\n      pop\n      pop\n      jump\t// out\n        /* \"#utility.yul\":2857:2999   */\n    tag_413:\n        /* \"#utility.yul\":2934:2938   */\n      0x00\n        /* \"#utility.yul\":2957:2960   */\n      dup2\n        /* \"#utility.yul\":2949:2960   */\n      swap1\n      pop\n        /* \"#utility.yul\":2987:2991   */\n      0x20\n        /* \"#utility.yul\":2982:2985   */\n      dup3\n        /* \"#utility.yul\":2978:2992   */\n      add\n        /* \"#utility.yul\":2970:2992   */\n      swap1\n      pop\n        /* \"#utility.yul\":2857:2999   */\n      swap2\n      swap1\n      pop\n      jump\t// out\n        /* \"#utility.yul\":3005:3164   */\n    tag_414:\n        /* \"#utility.yul\":3079:3090   */\n      0x00\n        /* \"#utility.yul\":3113:3119   */\n      dup3\n        /* \"#utility.yul\":3108:3111   */\n      dup3\n        /* \"#utility.yul\":3101:3120   */\n      mstore\n        /* \"#utility.yul\":3153:3157   */\n      0x20\n        /* \"#utility.yul\":3148:3151   */\n      dup3\n        /* \"#utility.yul\":3144:3158   */\n      add\n        /* \"#utility.yul\":3129:3158   */\n      swap1\n      pop\n        /* \"#utility.yul\":3005:3164   */\n      swap3\n      swap2\n      pop\n      pop\n      jump\t// out\n        /* \"#utility.yul\":3170:3527   */\n    tag_415:\n        /* \"#utility.yul\":3248:3251   */\n      0x00\n        /* \"#utility.yul\":3276:3315   */\n      tag_555\n        /* \"#utility.yul\":3309:3314   */\n      dup3\n        /* \"#utility.yul\":3276:3315   */\n      tag_406\n      jump\t// in\n    tag_555:\n        /* \"#utility.yul\":3331:3392   */\n      tag_556\n        /* \"#utility.yul\":3385:3391   */\n      dup2\n        /* \"#utility.yul\":3380:3383   */\n      dup6\n        /* \"#utility.yul\":3331:3392   */\n      tag_414\n      jump\t// in\n    tag_556:\n        /* \"#utility.yul\":3324:3392   */\n      swap4\n      pop\n        /* \"#utility.yul\":3401:3466   */\n      tag_557\n        /* \"#utility.yul\":3459:3465   */\n      dup2\n        /* \"#utility.yul\":3454:3457   */\n      dup6\n        /* \"#utility.yul\":3447:3451   */\n      0x20\n        /* \"#utility.yul\":3440:3445   */\n      dup7\n        /* \"#utility.yul\":3436:3452   */\n      add\n        /* \"#utility.yul\":3401:3466   */\n      tag_408\n      jump\t// in\n    tag_557:\n        /* \"#utility.yul\":3491:3520   */\n      tag_558\n        /* \"#utility.yul\":3513:3519   */\n      dup2\n        /* \"#utility.yul\":3491:3520   */\n      tag_409\n      jump\t// in\n    tag_558:\n        /* \"#utility.yul\":3486:3489   */\n      dup5\n        /* \"#utility.yul\":3482:3521   */\n      add\n        /* \"#utility.yul\":3475:3521   */\n      swap2\n      pop\n        /* \"#utility.yul\":3252:3527   */\n      pop\n        /* \"#utility.yul\":3170:3527   */\n      swap3\n      swap2\n      pop\n      pop\n      jump\t// out\n        /* \"#utility.yul\":3533:3729   */\n    tag_416:\n        /* \"#utility.yul\":3622:3632   */\n      0x00\n        /* \"#utility.yul\":3657:3723   */\n      tag_560\n        /* \"#utility.yul\":3719:3722   */\n      dup4\n        /* \"#utility.yul\":3711:3717   */\n      dup4\n        /* \"#utility.yul\":3657:3723   */\n      tag_415\n      jump\t// in\n    tag_560:\n        /* \"#utility.yul\":3643:3723   */\n      swap1\n      pop\n        /* \"#utility.yul\":3533:3729   */\n      swap3\n      swap2\n      pop\n      pop\n      jump\t// out\n        /* \"#utility.yul\":3735:3858   */\n    tag_417:\n        /* \"#utility.yul\":3815:3819   */\n      0x00\n        /* \"#utility.yul\":3847:3851   */\n      0x20\n        /* \"#utility.yul\":3842:3845   */\n      dup3\n        /* \"#utility.yul\":3838:3852   */\n      add\n        /* \"#utility.yul\":3830:3852   */\n      swap1\n      pop\n        /* \"#utility.yul\":3735:3858   */\n      swap2\n      swap1\n      pop\n      jump\t// out\n        /* \"#utility.yul\":3892:4883   */\n    tag_418:\n        /* \"#utility.yul\":4031:4034   */\n      0x00\n        /* \"#utility.yul\":4060:4124   */\n      tag_563\n        /* \"#utility.yul\":4118:4123   */\n      dup3\n        /* \"#utility.yul\":4060:4124   */\n      tag_411\n      jump\t// in\n    tag_563:\n        /* \"#utility.yul\":4140:4236   */\n      tag_564\n        /* \"#utility.yul\":4229:4235   */\n      dup2\n        /* \"#utility.yul\":4224:4227   */\n      dup6\n        /* \"#utility.yul\":4140:4236   */\n      tag_412\n      jump\t// in\n    tag_564:\n        /* \"#utility.yul\":4133:4236   */\n      swap4\n      pop\n        /* \"#utility.yul\":4262:4265   */\n      dup4\n        /* \"#utility.yul\":4307:4311   */\n      0x20\n        /* \"#utility.yul\":4299:4305   */\n      dup3\n        /* \"#utility.yul\":4295:4312   */\n      mul\n        /* \"#utility.yul\":4290:4293   */\n      dup6\n        /* \"#utility.yul\":4286:4313   */\n      add\n        /* \"#utility.yul\":4337:4403   */\n      tag_565\n        /* \"#utility.yul\":4397:4402   */\n      dup6\n        /* \"#utility.yul\":4337:4403   */\n      tag_413\n      jump\t// in\n    tag_565:\n        /* \"#utility.yul\":4426:4433   */\n      dup1\n        /* \"#utility.yul\":4457:4458   */\n      0x00\n        /* \"#utility.yul\":4442:4838   */\n    tag_566:\n        /* \"#utility.yul\":4467:4473   */\n      dup6\n        /* \"#utility.yul\":4464:4465   */\n      dup2\n        /* \"#utility.yul\":4461:4474   */\n      lt\n        /* \"#utility.yul\":4442:4838   */\n      iszero\n      tag_568\n      jumpi\n        /* \"#utility.yul\":4538:4547   */\n      dup5\n        /* \"#utility.yul\":4532:4536   */\n      dup5\n        /* \"#utility.yul\":4528:4548   */\n      sub\n        /* \"#utility.yul\":4523:4526   */\n      dup10\n        /* \"#utility.yul\":4516:4549   */\n      mstore\n        /* \"#utility.yul\":4589:4595   */\n      dup2\n        /* \"#utility.yul\":4583:4596   */\n      mload\n        /* \"#utility.yul\":4617:4701   */\n      tag_569\n        /* \"#utility.yul\":4696:4700   */\n      dup6\n        /* \"#utility.yul\":4681:4694   */\n      dup3\n        /* \"#utility.yul\":4617:4701   */\n      tag_416\n      jump\t// in\n    tag_569:\n        /* \"#utility.yul\":4609:4701   */\n      swap5\n      pop\n        /* \"#utility.yul\":4724:4794   */\n      tag_570\n        /* \"#utility.yul\":4787:4793   */\n      dup4\n        /* \"#utility.yul\":4724:4794   */\n      tag_417\n      jump\t// in\n    tag_570:\n        /* \"#utility.yul\":4714:4794   */\n      swap3\n      pop\n        /* \"#utility.yul\":4823:4827   */\n      0x20\n        /* \"#utility.yul\":4818:4821   */\n      dup11\n        /* \"#utility.yul\":4814:4828   */\n      add\n        /* \"#utility.yul\":4807:4828   */\n      swap10\n      pop\n        /* \"#utility.yul\":4502:4838   */\n      pop\n        /* \"#utility.yul\":4489:4490   */\n      0x01\n        /* \"#utility.yul\":4486:4487   */\n      dup2\n        /* \"#utility.yul\":4482:4491   */\n      add\n        /* \"#utility.yul\":4477:4491   */\n      swap1\n      pop\n        /* \"#utility.yul\":4442:4838   */\n      jump(tag_566)\n    tag_568:\n        /* \"#utility.yul\":4446:4460   */\n      pop\n        /* \"#utility.yul\":4854:4858   */\n      dup3\n        /* \"#utility.yul\":4847:4858   */\n      swap8\n      pop\n        /* \"#utility.yul\":4874:4877   */\n      dup8\n        /* \"#utility.yul\":4867:4877   */\n      swap6\n      pop\n        /* \"#utility.yul\":4036:4883   */\n      pop\n      pop\n      pop\n      pop\n      pop\n        /* \"#utility.yul\":3892:4883   */\n      swap3\n      swap2\n      pop\n      pop\n      jump\t// out\n        /* \"#utility.yul\":4889:4979   */\n    tag_419:\n        /* \"#utility.yul\":4923:4930   */\n      0x00\n        /* \"#utility.yul\":4966:4971   */\n      dup2\n        /* \"#utility.yul\":4959:4972   */\n      iszero\n        /* \"#utility.yul\":4952:4973   */\n      iszero\n        /* \"#utility.yul\":4941:4973   */\n      swap1\n      pop\n        /* \"#utility.yul\":4889:4979   */\n      swap2\n      swap1\n      pop\n      jump\t// out\n        /* \"#utility.yul\":4985:5094   */\n    tag_420:\n        /* \"#utility.yul\":5066:5087   */\n      tag_573\n        /* \"#utility.yul\":5081:5086   */\n      dup2\n        /* \"#utility.yul\":5066:5087   */\n      tag_419\n      jump\t// in\n    tag_573:\n        /* \"#utility.yul\":5061:5064   */\n      dup3\n        /* \"#utility.yul\":5054:5088   */\n      mstore\n        /* \"#utility.yul\":4985:5094   */\n      pop\n      pop\n      jump\t// out\n        /* \"#utility.yul\":5100:5218   */\n    tag_421:\n        /* \"#utility.yul\":5187:5211   */\n      tag_575\n        /* \"#utility.yul\":5205:5210   */\n      dup2\n        /* \"#utility.yul\":5187:5211   */\n      tag_403\n      jump\t// in\n    tag_575:\n        /* \"#utility.yul\":5182:5185   */\n      dup3\n        /* \"#utility.yul\":5175:5212   */\n      mstore\n        /* \"#utility.yul\":5100:5218   */\n      pop\n      pop\n      jump\t// out\n        /* \"#utility.yul\":5224:5338   */\n    tag_422:\n        /* \"#utility.yul\":5291:5297   */\n      0x00\n        /* \"#utility.yul\":5325:5330   */\n      dup2\n        /* \"#utility.yul\":5319:5331   */\n      mload\n        /* \"#utility.yul\":5309:5331   */\n      swap1\n      pop\n        /* \"#utility.yul\":5224:5338   */\n      swap2\n      swap1\n      pop\n      jump\t// out\n        /* \"#utility.yul\":5344:5528   */\n    tag_423:\n        /* \"#utility.yul\":5443:5454   */\n      0x00\n        /* \"#utility.yul\":5477:5483   */\n      dup3\n        /* \"#utility.yul\":5472:5475   */\n      dup3\n        /* \"#utility.yul\":5465:5484   */\n      mstore\n        /* \"#utility.yul\":5517:5521   */\n      0x20\n        /* \"#utility.yul\":5512:5515   */\n      dup3\n        /* \"#utility.yul\":5508:5522   */\n      add\n        /* \"#utility.yul\":5493:5522   */\n      swap1\n      pop\n        /* \"#utility.yul\":5344:5528   */\n      swap3\n      swap2\n      pop\n      pop\n      jump\t// out\n        /* \"#utility.yul\":5534:5666   */\n    tag_424:\n        /* \"#utility.yul\":5601:5605   */\n      0x00\n        /* \"#utility.yul\":5624:5627   */\n      dup2\n        /* \"#utility.yul\":5616:5627   */\n      swap1\n      pop\n        /* \"#utility.yul\":5654:5658   */\n      0x20\n        /* \"#utility.yul\":5649:5652   */\n      dup3\n        /* \"#utility.yul\":5645:5659   */\n      add\n        /* \"#utility.yul\":5637:5659   */\n      swap1\n      pop\n        /* \"#utility.yul\":5534:5666   */\n      swap2\n      swap1\n      pop\n      jump\t// out\n        /* \"#utility.yul\":5672:5780   */\n    tag_425:\n        /* \"#utility.yul\":5749:5773   */\n      tag_580\n        /* \"#utility.yul\":5767:5772   */\n      dup2\n        /* \"#utility.yul\":5749:5773   */\n      tag_403\n      jump\t// in\n    tag_580:\n        /* \"#utility.yul\":5744:5747   */\n      dup3\n        /* \"#utility.yul\":5737:5774   */\n      mstore\n        /* \"#utility.yul\":5672:5780   */\n      pop\n      pop\n      jump\t// out\n        /* \"#utility.yul\":5786:5965   */\n    tag_426:\n        /* \"#utility.yul\":5855:5865   */\n      0x00\n        /* \"#utility.yul\":5876:5922   */\n      tag_582\n        /* \"#utility.yul\":5918:5921   */\n      dup4\n        /* \"#utility.yul\":5910:5916   */\n      dup4\n        /* \"#utility.yul\":5876:5922   */\n      tag_425\n      jump\t// in\n    tag_582:\n        /* \"#utility.yul\":5954:5958   */\n      0x20\n        /* \"#utility.yul\":5949:5952   */\n      dup4\n        /* \"#utility.yul\":5945:5959   */\n      add\n        /* \"#utility.yul\":5931:5959   */\n      swap1\n      pop\n        /* \"#utility.yul\":5786:5965   */\n      swap3\n      swap2\n      pop\n      pop\n      jump\t// out\n        /* \"#utility.yul\":5971:6084   */\n    tag_427:\n        /* \"#utility.yul\":6041:6045   */\n      0x00\n        /* \"#utility.yul\":6073:6077   */\n      0x20\n        /* \"#utility.yul\":6068:6071   */\n      dup3\n        /* \"#utility.yul\":6064:6078   */\n      add\n        /* \"#utility.yul\":6056:6078   */\n      swap1\n      pop\n        /* \"#utility.yul\":5971:6084   */\n      swap2\n      swap1\n      pop\n      jump\t// out\n        /* \"#utility.yul\":6120:6852   */\n    tag_428:\n        /* \"#utility.yul\":6239:6242   */\n      0x00\n        /* \"#utility.yul\":6268:6322   */\n      tag_585\n        /* \"#utility.yul\":6316:6321   */\n      dup3\n        /* \"#utility.yul\":6268:6322   */\n      tag_422\n      jump\t// in\n    tag_585:\n        /* \"#utility.yul\":6338:6424   */\n      tag_586\n        /* \"#utility.yul\":6417:6423   */\n      dup2\n        /* \"#utility.yul\":6412:6415   */\n      dup6\n        /* \"#utility.yul\":6338:6424   */\n      tag_423\n      jump\t// in\n    tag_586:\n        /* \"#utility.yul\":6331:6424   */\n      swap4\n      pop\n        /* \"#utility.yul\":6448:6504   */\n      tag_587\n        /* \"#utility.yul\":6498:6503   */\n      dup4\n        /* \"#utility.yul\":6448:6504   */\n      tag_424\n      jump\t// in\n    tag_587:\n        /* \"#utility.yul\":6527:6534   */\n      dup1\n        /* \"#utility.yul\":6558:6559   */\n      0x00\n        /* \"#utility.yul\":6543:6827   */\n    tag_588:\n        /* \"#utility.yul\":6568:6574   */\n      dup4\n        /* \"#utility.yul\":6565:6566   */\n      dup2\n        /* \"#utility.yul\":6562:6575   */\n      lt\n        /* \"#utility.yul\":6543:6827   */\n      iszero\n      tag_590\n      jumpi\n        /* \"#utility.yul\":6644:6650   */\n      dup2\n        /* \"#utility.yul\":6638:6651   */\n      mload\n        /* \"#utility.yul\":6671:6734   */\n      tag_591\n        /* \"#utility.yul\":6730:6733   */\n      dup9\n        /* \"#utility.yul\":6715:6728   */\n      dup3\n        /* \"#utility.yul\":6671:6734   */\n      tag_426\n      jump\t// in\n    tag_591:\n        /* \"#utility.yul\":6664:6734   */\n      swap8\n      pop\n        /* \"#utility.yul\":6757:6817   */\n      tag_592\n        /* \"#utility.yul\":6810:6816   */\n      dup4\n        /* \"#utility.yul\":6757:6817   */\n      tag_427\n      jump\t// in\n    tag_592:\n        /* \"#utility.yul\":6747:6817   */\n      swap3\n      pop\n        /* \"#utility.yul\":6603:6827   */\n      pop\n        /* \"#utility.yul\":6590:6591   */\n      0x01\n        /* \"#utility.yul\":6587:6588   */\n      dup2\n        /* \"#utility.yul\":6583:6592   */\n      add\n        /* \"#utility.yul\":6578:6592   */\n      swap1\n      pop\n        /* \"#utility.yul\":6543:6827   */\n      jump(tag_588)\n    tag_590:\n        /* \"#utility.yul\":6547:6561   */\n      pop\n        /* \"#utility.yul\":6843:6846   */\n      dup6\n        /* \"#utility.yul\":6836:6846   */\n      swap4\n      pop\n        /* \"#utility.yul\":6244:6852   */\n      pop\n      pop\n      pop\n        /* \"#utility.yul\":6120:6852   */\n      swap3\n      swap2\n      pop\n      pop\n      jump\t// out\n        /* \"#utility.yul\":6858:6944   */\n    tag_429:\n        /* \"#utility.yul\":6893:6900   */\n      0x00\n        /* \"#utility.yul\":6933:6937   */\n      0xff\n        /* \"#utility.yul\":6926:6931   */\n      dup3\n        /* \"#utility.yul\":6922:6938   */\n      and\n        /* \"#utility.yul\":6911:6938   */\n      swap1\n      pop\n        /* \"#utility.yul\":6858:6944   */\n      swap2\n      swap1\n      pop\n      jump\t// out\n        /* \"#utility.yul\":6950:7062   */\n    tag_430:\n        /* \"#utility.yul\":7033:7055   */\n      tag_595\n        /* \"#utility.yul\":7049:7054   */\n      dup2\n        /* \"#utility.yul\":7033:7055   */\n      tag_429\n      jump\t// in\n    tag_595:\n        /* \"#utility.yul\":7028:7031   */\n      dup3\n        /* \"#utility.yul\":7021:7056   */\n      mstore\n        /* \"#utility.yul\":6950:7062   */\n      pop\n      pop\n      jump\t// out\n        /* \"#utility.yul\":7068:8565   */\n    tag_26:\n        /* \"#utility.yul\":7503:7507   */\n      0x00\n        /* \"#utility.yul\":7541:7544   */\n      0x0120\n        /* \"#utility.yul\":7530:7539   */\n      dup3\n        /* \"#utility.yul\":7526:7545   */\n      add\n        /* \"#utility.yul\":7518:7545   */\n      swap1\n      pop\n        /* \"#utility.yul\":7555:7626   */\n      tag_597\n        /* \"#utility.yul\":7623:7624   */\n      0x00\n        /* \"#utility.yul\":7612:7621   */\n      dup4\n        /* \"#utility.yul\":7608:7625   */\n      add\n        /* \"#utility.yul\":7599:7605   */\n      dup13\n        /* \"#utility.yul\":7555:7626   */\n      tag_399\n      jump\t// in\n    tag_597:\n        /* \"#utility.yul\":7673:7682   */\n      dup2\n        /* \"#utility.yul\":7667:7671   */\n      dup2\n        /* \"#utility.yul\":7663:7683   */\n      sub\n        /* \"#utility.yul\":7658:7660   */\n      0x20\n        /* \"#utility.yul\":7647:7656   */\n      dup4\n        /* \"#utility.yul\":7643:7661   */\n      add\n        /* \"#utility.yul\":7636:7684   */\n      mstore\n        /* \"#utility.yul\":7701:7779   */\n      tag_598\n        /* \"#utility.yul\":7774:7778   */\n      dup2\n        /* \"#utility.yul\":7765:7771   */\n      dup12\n        /* \"#utility.yul\":7701:7779   */\n      tag_410\n      jump\t// in\n    tag_598:\n        /* \"#utility.yul\":7693:7779   */\n      swap1\n      pop\n        /* \"#utility.yul\":7826:7835   */\n      dup2\n        /* \"#utility.yul\":7820:7824   */\n      dup2\n        /* \"#utility.yul\":7816:7836   */\n      sub\n        /* \"#utility.yul\":7811:7813   */\n      0x40\n        /* \"#utility.yul\":7800:7809   */\n      dup4\n        /* \"#utility.yul\":7796:7814   */\n      add\n        /* \"#utility.yul\":7789:7837   */\n      mstore\n        /* \"#utility.yul\":7854:7982   */\n      tag_599\n        /* \"#utility.yul\":7977:7981   */\n      dup2\n        /* \"#utility.yul\":7968:7974   */\n      dup11\n        /* \"#utility.yul\":7854:7982   */\n      tag_418\n      jump\t// in\n    tag_599:\n        /* \"#utility.yul\":7846:7982   */\n      swap1\n      pop\n        /* \"#utility.yul\":7992:8058   */\n      tag_600\n        /* \"#utility.yul\":8054:8056   */\n      0x60\n        /* \"#utility.yul\":8043:8052   */\n      dup4\n        /* \"#utility.yul\":8039:8057   */\n      add\n        /* \"#utility.yul\":8030:8036   */\n      dup10\n        /* \"#utility.yul\":7992:8058   */\n      tag_420\n      jump\t// in\n    tag_600:\n        /* \"#utility.yul\":8068:8135   */\n      tag_601\n        /* \"#utility.yul\":8130:8133   */\n      0x80\n        /* \"#utility.yul\":8119:8128   */\n      dup4\n        /* \"#utility.yul\":8115:8134   */\n      add\n        /* \"#utility.yul\":8106:8112   */\n      dup9\n        /* \"#utility.yul\":8068:8135   */\n      tag_420\n      jump\t// in\n    tag_601:\n        /* \"#utility.yul\":8145:8218   */\n      tag_602\n        /* \"#utility.yul\":8213:8216   */\n      0xa0\n        /* \"#utility.yul\":8202:8211   */\n      dup4\n        /* \"#utility.yul\":8198:8217   */\n      add\n        /* \"#utility.yul\":8189:8195   */\n      dup8\n        /* \"#utility.yul\":8145:8218   */\n      tag_421\n      jump\t// in\n    tag_602:\n        /* \"#utility.yul\":8266:8275   */\n      dup2\n        /* \"#utility.yul\":8260:8264   */\n      dup2\n        /* \"#utility.yul\":8256:8276   */\n      sub\n        /* \"#utility.yul\":8250:8253   */\n      0xc0\n        /* \"#utility.yul\":8239:8248   */\n      dup4\n        /* \"#utility.yul\":8235:8254   */\n      add\n        /* \"#utility.yul\":8228:8277   */\n      mstore\n        /* \"#utility.yul\":8294:8402   */\n      tag_603\n        /* \"#utility.yul\":8397:8401   */\n      dup2\n        /* \"#utility.yul\":8388:8394   */\n      dup7\n        /* \"#utility.yul\":8294:8402   */\n      tag_428\n      jump\t// in\n    tag_603:\n        /* \"#utility.yul\":8286:8402   */\n      swap1\n      pop\n        /* \"#utility.yul\":8412:8481   */\n      tag_604\n        /* \"#utility.yul\":8476:8479   */\n      0xe0\n        /* \"#utility.yul\":8465:8474   */\n      dup4\n        /* \"#utility.yul\":8461:8480   */\n      add\n        /* \"#utility.yul\":8452:8458   */\n      dup6\n        /* \"#utility.yul\":8412:8481   */\n      tag_430\n      jump\t// in\n    tag_604:\n        /* \"#utility.yul\":8491:8558   */\n      tag_605\n        /* \"#utility.yul\":8553:8556   */\n      0x0100\n        /* \"#utility.yul\":8542:8551   */\n      dup4\n        /* \"#utility.yul\":8538:8557   */\n      add\n        /* \"#utility.yul\":8529:8535   */\n      dup5\n        /* \"#utility.yul\":8491:8558   */\n      tag_420\n      jump\t// in\n    tag_605:\n        /* \"#utility.yul\":7068:8565   */\n      swap11\n      swap10\n      pop\n      pop\n      pop\n      pop\n      pop\n      pop\n      pop\n      pop\n      pop\n      pop\n      jump\t// out\n        /* \"#utility.yul\":8571:8689   */\n    tag_431:\n        /* \"#utility.yul\":8642:8664   */\n      tag_607\n        /* \"#utility.yul\":8658:8663   */\n      dup2\n        /* \"#utility.yul\":8642:8664   */\n      tag_429\n      jump\t// in\n    tag_607:\n        /* \"#utility.yul\":8635:8640   */\n      dup2\n        /* \"#utility.yul\":8632:8665   */\n      eq\n        /* \"#utility.yul\":8622:8683   */\n      tag_608\n      jumpi\n        /* \"#utility.yul\":8679:8680   */\n      0x00\n        /* \"#utility.yul\":8676:8677   */\n      dup1\n        /* \"#utility.yul\":8669:8681   */\n      revert\n        /* \"#utility.yul\":8622:8683   */\n    tag_608:\n        /* \"#utility.yul\":8571:8689   */\n      pop\n      jump\t// out\n        /* \"#utility.yul\":8695:8830   */\n    tag_432:\n        /* \"#utility.yul\":8739:8744   */\n      0x00\n        /* \"#utility.yul\":8777:8783   */\n      dup2\n        /* \"#utility.yul\":8764:8784   */\n      calldataload\n        /* \"#utility.yul\":8755:8784   */\n      swap1\n      pop\n        /* \"#utility.yul\":8793:8824   */\n      tag_610\n        /* \"#utility.yul\":8818:8823   */\n      dup2\n        /* \"#utility.yul\":8793:8824   */\n      tag_431\n      jump\t// in\n    tag_610:\n        /* \"#utility.yul\":8695:8830   */\n      swap3\n      swap2\n      pop\n      pop\n      jump\t// out\n        /* \"#utility.yul\":8836:9451   */\n    tag_32:\n        /* \"#utility.yul\":8911:8917   */\n      0x00\n        /* \"#utility.yul\":8919:8925   */\n      dup1\n        /* \"#utility.yul\":8927:8933   */\n      0x00\n        /* \"#utility.yul\":8976:8978   */\n      0x60\n        /* \"#utility.yul\":8964:8973   */\n      dup5\n        /* \"#utility.yul\":8955:8962   */\n      dup7\n        /* \"#utility.yul\":8951:8974   */\n      sub\n        /* \"#utility.yul\":8947:8979   */\n      slt\n        /* \"#utility.yul\":8944:9063   */\n      iszero\n      tag_612\n      jumpi\n        /* \"#utility.yul\":8982:9061   */\n      tag_613\n      tag_401\n      jump\t// in\n    tag_613:\n        /* \"#utility.yul\":8944:9063   */\n    tag_612:\n        /* \"#utility.yul\":9102:9103   */\n      0x00\n        /* \"#utility.yul\":9127:9180   */\n      tag_614\n        /* \"#utility.yul\":9172:9179   */\n      dup7\n        /* \"#utility.yul\":9163:9169   */\n      dup3\n        /* \"#utility.yul\":9152:9161   */\n      dup8\n        /* \"#utility.yul\":9148:9170   */\n      add\n        /* \"#utility.yul\":9127:9180   */\n      tag_405\n      jump\t// in\n    tag_614:\n        /* \"#utility.yul\":9117:9180   */\n      swap4\n      pop\n        /* \"#utility.yul\":9073:9190   */\n      pop\n        /* \"#utility.yul\":9229:9231   */\n      0x20\n        /* \"#utility.yul\":9255:9308   */\n      tag_615\n        /* \"#utility.yul\":9300:9307   */\n      dup7\n        /* \"#utility.yul\":9291:9297   */\n      dup3\n        /* \"#utility.yul\":9280:9289   */\n      dup8\n        /* \"#utility.yul\":9276:9298   */\n      add\n        /* \"#utility.yul\":9255:9308   */\n      tag_405\n      jump\t// in\n    tag_615:\n        /* \"#utility.yul\":9245:9308   */\n      swap3\n      pop\n        /* \"#utility.yul\":9200:9318   */\n      pop\n        /* \"#utility.yul\":9357:9359   */\n      0x40\n        /* \"#utility.yul\":9383:9434   */\n      tag_616\n        /* \"#utility.yul\":9426:9433   */\n      dup7\n        /* \"#utility.yul\":9417:9423   */\n      dup3\n        /* \"#utility.yul\":9406:9415   */\n      dup8\n        /* \"#utility.yul\":9402:9424   */\n      add\n        /* \"#utility.yul\":9383:9434   */\n      tag_432\n      jump\t// in\n    tag_616:\n        /* \"#utility.yul\":9373:9434   */\n      swap2\n      pop\n        /* \"#utility.yul\":9328:9444   */\n      pop\n        /* \"#utility.yul\":8836:9451   */\n      swap3\n      pop\n      swap3\n      pop\n      swap3\n      jump\t// out\n        /* \"#utility.yul\":9457:9574   */\n    tag_433:\n        /* \"#utility.yul\":9566:9567   */\n      0x00\n        /* \"#utility.yul\":9563:9564   */\n      dup1\n        /* \"#utility.yul\":9556:9568   */\n      revert\n        /* \"#utility.yul\":9580:9697   */\n    tag_434:\n        /* \"#utility.yul\":9689:9690   */\n      0x00\n        /* \"#utility.yul\":9686:9687   */\n      dup1\n        /* \"#utility.yul\":9679:9691   */\n      revert\n        /* \"#utility.yul\":9703:9820   */\n    tag_435:\n        /* \"#utility.yul\":9812:9813   */\n      0x00\n        /* \"#utility.yul\":9809:9810   */\n      dup1\n        /* \"#utility.yul\":9802:9814   */\n      revert\n        /* \"#utility.yul\":9840:10393   */\n    tag_436:\n        /* \"#utility.yul\":9898:9906   */\n      0x00\n        /* \"#utility.yul\":9908:9914   */\n      dup1\n        /* \"#utility.yul\":9958:9961   */\n      dup4\n        /* \"#utility.yul\":9951:9955   */\n      0x1f\n        /* \"#utility.yul\":9943:9949   */\n      dup5\n        /* \"#utility.yul\":9939:9956   */\n      add\n        /* \"#utility.yul\":9935:9962   */\n      slt\n        /* \"#utility.yul\":9925:10047   */\n      tag_621\n      jumpi\n        /* \"#utility.yul\":9966:10045   */\n      tag_622\n      tag_433\n      jump\t// in\n    tag_622:\n        /* \"#utility.yul\":9925:10047   */\n    tag_621:\n        /* \"#utility.yul\":10079:10085   */\n      dup3\n        /* \"#utility.yul\":10066:10086   */\n      calldataload\n        /* \"#utility.yul\":10056:10086   */\n      swap1\n      pop\n        /* \"#utility.yul\":10109:10127   */\n      0xffffffffffffffff\n        /* \"#utility.yul\":10101:10107   */\n      dup2\n        /* \"#utility.yul\":10098:10128   */\n      gt\n        /* \"#utility.yul\":10095:10212   */\n      iszero\n      tag_623\n      jumpi\n        /* \"#utility.yul\":10131:10210   */\n      tag_624\n      tag_434\n      jump\t// in\n    tag_624:\n        /* \"#utility.yul\":10095:10212   */\n    tag_623:\n        /* \"#utility.yul\":10245:10249   */\n      0x20\n        /* \"#utility.yul\":10237:10243   */\n      dup4\n        /* \"#utility.yul\":10233:10250   */\n      add\n        /* \"#utility.yul\":10221:10250   */\n      swap2\n      pop\n        /* \"#utility.yul\":10299:10302   */\n      dup4\n        /* \"#utility.yul\":10291:10295   */\n      0x01\n        /* \"#utility.yul\":10283:10289   */\n      dup3\n        /* \"#utility.yul\":10279:10296   */\n      mul\n        /* \"#utility.yul\":10269:10277   */\n      dup4\n        /* \"#utility.yul\":10265:10297   */\n      add\n        /* \"#utility.yul\":10262:10303   */\n      gt\n        /* \"#utility.yul\":10259:10387   */\n      iszero\n      tag_625\n      jumpi\n        /* \"#utility.yul\":10306:10385   */\n      tag_626\n      tag_435\n      jump\t// in\n    tag_626:\n        /* \"#utility.yul\":10259:10387   */\n    tag_625:\n        /* \"#utility.yul\":9840:10393   */\n      swap3\n      pop\n      swap3\n      swap1\n      pop\n      jump\t// out\n        /* \"#utility.yul\":10415:10995   */\n    tag_437:\n        /* \"#utility.yul\":10500:10508   */\n      0x00\n        /* \"#utility.yul\":10510:10516   */\n      dup1\n        /* \"#utility.yul\":10560:10563   */\n      dup4\n        /* \"#utility.yul\":10553:10557   */\n      0x1f\n        /* \"#utility.yul\":10545:10551   */\n      dup5\n        /* \"#utility.yul\":10541:10558   */\n      add\n        /* \"#utility.yul\":10537:10564   */\n      slt\n        /* \"#utility.yul\":10527:10649   */\n      tag_628\n      jumpi\n        /* \"#utility.yul\":10568:10647   */\n      tag_629\n      tag_433\n      jump\t// in\n    tag_629:\n        /* \"#utility.yul\":10527:10649   */\n    tag_628:\n        /* \"#utility.yul\":10681:10687   */\n      dup3\n        /* \"#utility.yul\":10668:10688   */\n      calldataload\n        /* \"#utility.yul\":10658:10688   */\n      swap1\n      pop\n        /* \"#utility.yul\":10711:10729   */\n      0xffffffffffffffff\n        /* \"#utility.yul\":10703:10709   */\n      dup2\n        /* \"#utility.yul\":10700:10730   */\n      gt\n        /* \"#utility.yul\":10697:10814   */\n      iszero\n      tag_630\n      jumpi\n        /* \"#utility.yul\":10733:10812   */\n      tag_631\n      tag_434\n      jump\t// in\n    tag_631:\n        /* \"#utility.yul\":10697:10814   */\n    tag_630:\n        /* \"#utility.yul\":10847:10851   */\n      0x20\n        /* \"#utility.yul\":10839:10845   */\n      dup4\n        /* \"#utility.yul\":10835:10852   */\n      add\n        /* \"#utility.yul\":10823:10852   */\n      swap2\n      pop\n        /* \"#utility.yul\":10901:10904   */\n      dup4\n        /* \"#utility.yul\":10893:10897   */\n      0x20\n        /* \"#utility.yul\":10885:10891   */\n      dup3\n        /* \"#utility.yul\":10881:10898   */\n      mul\n        /* \"#utility.yul\":10871:10879   */\n      dup4\n        /* \"#utility.yul\":10867:10899   */\n      add\n        /* \"#utility.yul\":10864:10905   */\n      gt\n        /* \"#utility.yul\":10861:10989   */\n      iszero\n      tag_632\n      jumpi\n        /* \"#utility.yul\":10908:10987   */\n      tag_633\n      tag_435\n      jump\t// in\n    tag_633:\n        /* \"#utility.yul\":10861:10989   */\n    tag_632:\n        /* \"#utility.yul\":10415:10995   */\n      swap3\n      pop\n      swap3\n      swap1\n      pop\n      jump\t// out\n        /* \"#utility.yul\":11001:12216   */\n    tag_39:\n        /* \"#utility.yul\":11136:11142   */\n      0x00\n        /* \"#utility.yul\":11144:11150   */\n      dup1\n        /* \"#utility.yul\":11152:11158   */\n      0x00\n        /* \"#utility.yul\":11160:11166   */\n      dup1\n        /* \"#utility.yul\":11168:11174   */\n      0x00\n        /* \"#utility.yul\":11176:11182   */\n      dup1\n        /* \"#utility.yul\":11225:11228   */\n      0x80\n        /* \"#utility.yul\":11213:11222   */\n      dup8\n        /* \"#utility.yul\":11204:11211   */\n      dup10\n        /* \"#utility.yul\":11200:11223   */\n      sub\n        /* \"#utility.yul\":11196:11229   */\n      slt\n        /* \"#utility.yul\":11193:11313   */\n      iszero\n      tag_635\n      jumpi\n        /* \"#utility.yul\":11232:11311   */\n      tag_636\n      tag_401\n      jump\t// in\n    tag_636:\n        /* \"#utility.yul\":11193:11313   */\n    tag_635:\n        /* \"#utility.yul\":11380:11381   */\n      0x00\n        /* \"#utility.yul\":11369:11378   */\n      dup8\n        /* \"#utility.yul\":11365:11382   */\n      add\n        /* \"#utility.yul\":11352:11383   */\n      calldataload\n        /* \"#utility.yul\":11410:11428   */\n      0xffffffffffffffff\n        /* \"#utility.yul\":11402:11408   */\n      dup2\n        /* \"#utility.yul\":11399:11429   */\n      gt\n        /* \"#utility.yul\":11396:11513   */\n      iszero\n      tag_637\n      jumpi\n        /* \"#utility.yul\":11432:11511   */\n      tag_638\n      tag_402\n      jump\t// in\n    tag_638:\n        /* \"#utility.yul\":11396:11513   */\n    tag_637:\n        /* \"#utility.yul\":11545:11610   */\n      tag_639\n        /* \"#utility.yul\":11602:11609   */\n      dup10\n        /* \"#utility.yul\":11593:11599   */\n      dup3\n        /* \"#utility.yul\":11582:11591   */\n      dup11\n        /* \"#utility.yul\":11578:11600   */\n      add\n        /* \"#utility.yul\":11545:11610   */\n      tag_436\n      jump\t// in\n    tag_639:\n        /* \"#utility.yul\":11527:11610   */\n      swap7\n      pop\n      swap7\n      pop\n        /* \"#utility.yul\":11323:11620   */\n      pop\n        /* \"#utility.yul\":11659:11661   */\n      0x20\n        /* \"#utility.yul\":11685:11736   */\n      tag_640\n        /* \"#utility.yul\":11728:11735   */\n      dup10\n        /* \"#utility.yul\":11719:11725   */\n      dup3\n        /* \"#utility.yul\":11708:11717   */\n      dup11\n        /* \"#utility.yul\":11704:11726   */\n      add\n        /* \"#utility.yul\":11685:11736   */\n      tag_432\n      jump\t// in\n    tag_640:\n        /* \"#utility.yul\":11675:11736   */\n      swap5\n      pop\n        /* \"#utility.yul\":11630:11746   */\n      pop\n        /* \"#utility.yul\":11813:11815   */\n      0x40\n        /* \"#utility.yul\":11802:11811   */\n      dup8\n        /* \"#utility.yul\":11798:11816   */\n      add\n        /* \"#utility.yul\":11785:11817   */\n      calldataload\n        /* \"#utility.yul\":11844:11862   */\n      0xffffffffffffffff\n        /* \"#utility.yul\":11836:11842   */\n      dup2\n        /* \"#utility.yul\":11833:11863   */\n      gt\n        /* \"#utility.yul\":11830:11947   */\n      iszero\n      tag_641\n      jumpi\n        /* \"#utility.yul\":11866:11945   */\n      tag_642\n      tag_402\n      jump\t// in\n    tag_642:\n        /* \"#utility.yul\":11830:11947   */\n    tag_641:\n        /* \"#utility.yul\":11979:12071   */\n      tag_643\n        /* \"#utility.yul\":12063:12070   */\n      dup10\n        /* \"#utility.yul\":12054:12060   */\n      dup3\n        /* \"#utility.yul\":12043:12052   */\n      dup11\n        /* \"#utility.yul\":12039:12061   */\n      add\n        /* \"#utility.yul\":11979:12071   */\n      tag_437\n      jump\t// in\n    tag_643:\n        /* \"#utility.yul\":11961:12071   */\n      swap4\n      pop\n      swap4\n      pop\n        /* \"#utility.yul\":11756:12081   */\n      pop\n        /* \"#utility.yul\":12120:12122   */\n      0x60\n        /* \"#utility.yul\":12146:12199   */\n      tag_644\n        /* \"#utility.yul\":12191:12198   */\n      dup10\n        /* \"#utility.yul\":12182:12188   */\n      dup3\n        /* \"#utility.yul\":12171:12180   */\n      dup11\n        /* \"#utility.yul\":12167:12189   */\n      add\n        /* \"#utility.yul\":12146:12199   */\n      tag_405\n      jump\t// in\n    tag_644:\n        /* \"#utility.yul\":12136:12199   */\n      swap2\n      pop\n        /* \"#utility.yul\":12091:12209   */\n      pop\n        /* \"#utility.yul\":11001:12216   */\n      swap3\n      swap6\n      pop\n      swap3\n      swap6\n      pop\n      swap3\n      swap6\n      jump\t// out\n        /* \"#utility.yul\":12222:12371   */\n    tag_438:\n        /* \"#utility.yul\":12324:12330   */\n      0x00\n        /* \"#utility.yul\":12358:12363   */\n      dup2\n        /* \"#utility.yul\":12352:12364   */\n      mload\n        /* \"#utility.yul\":12342:12364   */\n      swap1\n      pop\n        /* \"#utility.yul\":12222:12371   */\n      swap2\n      swap1\n      pop\n      jump\t// out\n        /* \"#utility.yul\":12377:12596   */\n    tag_439:\n        /* \"#utility.yul\":12511:12522   */\n      0x00\n        /* \"#utility.yul\":12545:12551   */\n      dup3\n        /* \"#utility.yul\":12540:12543   */\n      dup3\n        /* \"#utility.yul\":12533:12552   */\n      mstore\n        /* \"#utility.yul\":12585:12589   */\n      0x20\n        /* \"#utility.yul\":12580:12583   */\n      dup3\n        /* \"#utility.yul\":12576:12590   */\n      add\n        /* \"#utility.yul\":12561:12590   */\n      swap1\n      pop\n        /* \"#utility.yul\":12377:12596   */\n      swap3\n      swap2\n      pop\n      pop\n      jump\t// out\n        /* \"#utility.yul\":12602:12769   */\n    tag_440:\n        /* \"#utility.yul\":12704:12708   */\n      0x00\n        /* \"#utility.yul\":12727:12730   */\n      dup2\n        /* \"#utility.yul\":12719:12730   */\n      swap1\n      pop\n        /* \"#utility.yul\":12757:12761   */\n      0x20\n        /* \"#utility.yul\":12752:12755   */\n      dup3\n        /* \"#utility.yul\":12748:12762   */\n      add\n        /* \"#utility.yul\":12740:12762   */\n      swap1\n      pop\n        /* \"#utility.yul\":12602:12769   */\n      swap2\n      swap1\n      pop\n      jump\t// out\n        /* \"#utility.yul\":12775:12959   */\n    tag_441:\n        /* \"#utility.yul\":12874:12885   */\n      0x00\n        /* \"#utility.yul\":12908:12914   */\n      dup3\n        /* \"#utility.yul\":12903:12906   */\n      dup3\n        /* \"#utility.yul\":12896:12915   */\n      mstore\n        /* \"#utility.yul\":12948:12952   */\n      0x20\n        /* \"#utility.yul\":12943:12946   */\n      dup3\n        /* \"#utility.yul\":12939:12953   */\n      add\n        /* \"#utility.yul\":12924:12953   */\n      swap1\n      pop\n        /* \"#utility.yul\":12775:12959   */\n      swap3\n      swap2\n      pop\n      pop\n      jump\t// out\n        /* \"#utility.yul\":12993:13964   */\n    tag_442:\n        /* \"#utility.yul\":13122:13125   */\n      0x00\n        /* \"#utility.yul\":13151:13215   */\n      tag_650\n        /* \"#utility.yul\":13209:13214   */\n      dup3\n        /* \"#utility.yul\":13151:13215   */\n      tag_411\n      jump\t// in\n    tag_650:\n        /* \"#utility.yul\":13231:13317   */\n      tag_651\n        /* \"#utility.yul\":13310:13316   */\n      dup2\n        /* \"#utility.yul\":13305:13308   */\n      dup6\n        /* \"#utility.yul\":13231:13317   */\n      tag_441\n      jump\t// in\n    tag_651:\n        /* \"#utility.yul\":13224:13317   */\n      swap4\n      pop\n        /* \"#utility.yul\":13343:13346   */\n      dup4\n        /* \"#utility.yul\":13388:13392   */\n      0x20\n        /* \"#utility.yul\":13380:13386   */\n      dup3\n        /* \"#utility.yul\":13376:13393   */\n      mul\n        /* \"#utility.yul\":13371:13374   */\n      dup6\n        /* \"#utility.yul\":13367:13394   */\n      add\n        /* \"#utility.yul\":13418:13484   */\n      tag_652\n        /* \"#utility.yul\":13478:13483   */\n      dup6\n        /* \"#utility.yul\":13418:13484   */\n      tag_413\n      jump\t// in\n    tag_652:\n        /* \"#utility.yul\":13507:13514   */\n      dup1\n        /* \"#utility.yul\":13538:13539   */\n      0x00\n        /* \"#utility.yul\":13523:13919   */\n    tag_653:\n        /* \"#utility.yul\":13548:13554   */\n      dup6\n        /* \"#utility.yul\":13545:13546   */\n      dup2\n        /* \"#utility.yul\":13542:13555   */\n      lt\n        /* \"#utility.yul\":13523:13919   */\n      iszero\n      tag_655\n      jumpi\n        /* \"#utility.yul\":13619:13628   */\n      dup5\n        /* \"#utility.yul\":13613:13617   */\n      dup5\n        /* \"#utility.yul\":13609:13629   */\n      sub\n        /* \"#utility.yul\":13604:13607   */\n      dup10\n        /* \"#utility.yul\":13597:13630   */\n      mstore\n        /* \"#utility.yul\":13670:13676   */\n      dup2\n        /* \"#utility.yul\":13664:13677   */\n      mload\n        /* \"#utility.yul\":13698:13782   */\n      tag_656\n        /* \"#utility.yul\":13777:13781   */\n      dup6\n        /* \"#utility.yul\":13762:13775   */\n      dup3\n        /* \"#utility.yul\":13698:13782   */\n      tag_416\n      jump\t// in\n    tag_656:\n        /* \"#utility.yul\":13690:13782   */\n      swap5\n      pop\n        /* \"#utility.yul\":13805:13875   */\n      tag_657\n        /* \"#utility.yul\":13868:13874   */\n      dup4\n        /* \"#utility.yul\":13805:13875   */\n      tag_417\n      jump\t// in\n    tag_657:\n        /* \"#utility.yul\":13795:13875   */\n      swap3\n      pop\n        /* \"#utility.yul\":13904:13908   */\n      0x20\n        /* \"#utility.yul\":13899:13902   */\n      dup11\n        /* \"#utility.yul\":13895:13909   */\n      add\n        /* \"#utility.yul\":13888:13909   */\n      swap10\n      pop\n        /* \"#utility.yul\":13583:13919   */\n      pop\n        /* \"#utility.yul\":13570:13571   */\n      0x01\n        /* \"#utility.yul\":13567:13568   */\n      dup2\n        /* \"#utility.yul\":13563:13572   */\n      add\n        /* \"#utility.yul\":13558:13572   */\n      swap1\n      pop\n        /* \"#utility.yul\":13523:13919   */\n      jump(tag_653)\n    tag_655:\n        /* \"#utility.yul\":13527:13541   */\n      pop\n        /* \"#utility.yul\":13935:13939   */\n      dup3\n        /* \"#utility.yul\":13928:13939   */\n      swap8\n      pop\n        /* \"#utility.yul\":13955:13958   */\n      dup8\n        /* \"#utility.yul\":13948:13958   */\n      swap6\n      pop\n        /* \"#utility.yul\":13127:13964   */\n      pop\n      pop\n      pop\n      pop\n      pop\n        /* \"#utility.yul\":12993:13964   */\n      swap3\n      swap2\n      pop\n      pop\n      jump\t// out\n        /* \"#utility.yul\":13970:14266   */\n    tag_443:\n        /* \"#utility.yul\":14109:14119   */\n      0x00\n        /* \"#utility.yul\":14144:14260   */\n      tag_659\n        /* \"#utility.yul\":14256:14259   */\n      dup4\n        /* \"#utility.yul\":14248:14254   */\n      dup4\n        /* \"#utility.yul\":14144:14260   */\n      tag_442\n      jump\t// in\n    tag_659:\n        /* \"#utility.yul\":14130:14260   */\n      swap1\n      pop\n        /* \"#utility.yul\":13970:14266   */\n      swap3\n      swap2\n      pop\n      pop\n      jump\t// out\n        /* \"#utility.yul\":14272:14420   */\n    tag_444:\n        /* \"#utility.yul\":14377:14381   */\n      0x00\n        /* \"#utility.yul\":14409:14413   */\n      0x20\n        /* \"#utility.yul\":14404:14407   */\n      dup3\n        /* \"#utility.yul\":14400:14414   */\n      add\n        /* \"#utility.yul\":14392:14414   */\n      swap1\n      pop\n        /* \"#utility.yul\":14272:14420   */\n      swap2\n      swap1\n      pop\n      jump\t// out\n        /* \"#utility.yul\":14458:15649   */\n    tag_445:\n        /* \"#utility.yul\":14647:14650   */\n      0x00\n        /* \"#utility.yul\":14676:14765   */\n      tag_662\n        /* \"#utility.yul\":14759:14764   */\n      dup3\n        /* \"#utility.yul\":14676:14765   */\n      tag_438\n      jump\t// in\n    tag_662:\n        /* \"#utility.yul\":14781:14902   */\n      tag_663\n        /* \"#utility.yul\":14895:14901   */\n      dup2\n        /* \"#utility.yul\":14890:14893   */\n      dup6\n        /* \"#utility.yul\":14781:14902   */\n      tag_439\n      jump\t// in\n    tag_663:\n        /* \"#utility.yul\":14774:14902   */\n      swap4\n      pop\n        /* \"#utility.yul\":14928:14931   */\n      dup4\n        /* \"#utility.yul\":14973:14977   */\n      0x20\n        /* \"#utility.yul\":14965:14971   */\n      dup3\n        /* \"#utility.yul\":14961:14978   */\n      mul\n        /* \"#utility.yul\":14956:14959   */\n      dup6\n        /* \"#utility.yul\":14952:14979   */\n      add\n        /* \"#utility.yul\":15003:15094   */\n      tag_664\n        /* \"#utility.yul\":15088:15093   */\n      dup6\n        /* \"#utility.yul\":15003:15094   */\n      tag_440\n      jump\t// in\n    tag_664:\n        /* \"#utility.yul\":15117:15124   */\n      dup1\n        /* \"#utility.yul\":15148:15149   */\n      0x00\n        /* \"#utility.yul\":15133:15604   */\n    tag_665:\n        /* \"#utility.yul\":15158:15164   */\n      dup6\n        /* \"#utility.yul\":15155:15156   */\n      dup2\n        /* \"#utility.yul\":15152:15165   */\n      lt\n        /* \"#utility.yul\":15133:15604   */\n      iszero\n      tag_667\n      jumpi\n        /* \"#utility.yul\":15229:15238   */\n      dup5\n        /* \"#utility.yul\":15223:15227   */\n      dup5\n        /* \"#utility.yul\":15219:15239   */\n      sub\n        /* \"#utility.yul\":15214:15217   */\n      dup10\n        /* \"#utility.yul\":15207:15240   */\n      mstore\n        /* \"#utility.yul\":15280:15286   */\n      dup2\n        /* \"#utility.yul\":15274:15287   */\n      mload\n        /* \"#utility.yul\":15308:15442   */\n      tag_668\n        /* \"#utility.yul\":15437:15441   */\n      dup6\n        /* \"#utility.yul\":15422:15435   */\n      dup3\n        /* \"#utility.yul\":15308:15442   */\n      tag_443\n      jump\t// in\n    tag_668:\n        /* \"#utility.yul\":15300:15442   */\n      swap5\n      pop\n        /* \"#utility.yul\":15465:15560   */\n      tag_669\n        /* \"#utility.yul\":15553:15559   */\n      dup4\n        /* \"#utility.yul\":15465:15560   */\n      tag_444\n      jump\t// in\n    tag_669:\n        /* \"#utility.yul\":15455:15560   */\n      swap3\n      pop\n        /* \"#utility.yul\":15589:15593   */\n      0x20\n        /* \"#utility.yul\":15584:15587   */\n      dup11\n        /* \"#utility.yul\":15580:15594   */\n      add\n        /* \"#utility.yul\":15573:15594   */\n      swap10\n      pop\n        /* \"#utility.yul\":15193:15604   */\n      pop\n        /* \"#utility.yul\":15180:15181   */\n      0x01\n        /* \"#utility.yul\":15177:15178   */\n      dup2\n        /* \"#utility.yul\":15173:15182   */\n      add\n        /* \"#utility.yul\":15168:15182   */\n      swap1\n      pop\n        /* \"#utility.yul\":15133:15604   */\n      jump(tag_665)\n    tag_667:\n        /* \"#utility.yul\":15137:15151   */\n      pop\n        /* \"#utility.yul\":15620:15624   */\n      dup3\n        /* \"#utility.yul\":15613:15624   */\n      swap8\n      pop\n        /* \"#utility.yul\":15640:15643   */\n      dup8\n        /* \"#utility.yul\":15633:15643   */\n      swap6\n      pop\n        /* \"#utility.yul\":14652:15649   */\n      pop\n      pop\n      pop\n      pop\n      pop\n        /* \"#utility.yul\":14458:15649   */\n      swap3\n      swap2\n      pop\n      pop\n      jump\t// out\n        /* \"#utility.yul\":15655:15769   */\n    tag_446:\n        /* \"#utility.yul\":15722:15728   */\n      0x00\n        /* \"#utility.yul\":15756:15761   */\n      dup2\n        /* \"#utility.yul\":15750:15762   */\n      mload\n        /* \"#utility.yul\":15740:15762   */\n      swap1\n      pop\n        /* \"#utility.yul\":15655:15769   */\n      swap2\n      swap1\n      pop\n      jump\t// out\n        /* \"#utility.yul\":15775:15959   */\n    tag_447:\n        /* \"#utility.yul\":15874:15885   */\n      0x00\n        /* \"#utility.yul\":15908:15914   */\n      dup3\n        /* \"#utility.yul\":15903:15906   */\n      dup3\n        /* \"#utility.yul\":15896:15915   */\n      mstore\n        /* \"#utility.yul\":15948:15952   */\n      0x20\n        /* \"#utility.yul\":15943:15946   */\n      dup3\n        /* \"#utility.yul\":15939:15953   */\n      add\n        /* \"#utility.yul\":15924:15953   */\n      swap1\n      pop\n        /* \"#utility.yul\":15775:15959   */\n      swap3\n      swap2\n      pop\n      pop\n      jump\t// out\n        /* \"#utility.yul\":15965:16097   */\n    tag_448:\n        /* \"#utility.yul\":16032:16036   */\n      0x00\n        /* \"#utility.yul\":16055:16058   */\n      dup2\n        /* \"#utility.yul\":16047:16058   */\n      swap1\n      pop\n        /* \"#utility.yul\":16085:16089   */\n      0x20\n        /* \"#utility.yul\":16080:16083   */\n      dup3\n        /* \"#utility.yul\":16076:16090   */\n      add\n        /* \"#utility.yul\":16068:16090   */\n      swap1\n      pop\n        /* \"#utility.yul\":15965:16097   */\n      swap2\n      swap1\n      pop\n      jump\t// out\n        /* \"#utility.yul\":16103:16211   */\n    tag_449:\n        /* \"#utility.yul\":16180:16204   */\n      tag_674\n        /* \"#utility.yul\":16198:16203   */\n      dup2\n        /* \"#utility.yul\":16180:16204   */\n      tag_398\n      jump\t// in\n    tag_674:\n        /* \"#utility.yul\":16175:16178   */\n      dup3\n        /* \"#utility.yul\":16168:16205   */\n      mstore\n        /* \"#utility.yul\":16103:16211   */\n      pop\n      pop\n      jump\t// out\n        /* \"#utility.yul\":16217:16396   */\n    tag_450:\n        /* \"#utility.yul\":16286:16296   */\n      0x00\n        /* \"#utility.yul\":16307:16353   */\n      tag_676\n        /* \"#utility.yul\":16349:16352   */\n      dup4\n        /* \"#utility.yul\":16341:16347   */\n      dup4\n        /* \"#utility.yul\":16307:16353   */\n      tag_449\n      jump\t// in\n    tag_676:\n        /* \"#utility.yul\":16385:16389   */\n      0x20\n        /* \"#utility.yul\":16380:16383   */\n      dup4\n        /* \"#utility.yul\":16376:16390   */\n      add\n        /* \"#utility.yul\":16362:16390   */\n      swap1\n      pop\n        /* \"#utility.yul\":16217:16396   */\n      swap3\n      swap2\n      pop\n      pop\n      jump\t// out\n        /* \"#utility.yul\":16402:16515   */\n    tag_451:\n        /* \"#utility.yul\":16472:16476   */\n      0x00\n        /* \"#utility.yul\":16504:16508   */\n      0x20\n        /* \"#utility.yul\":16499:16502   */\n      dup3\n        /* \"#utility.yul\":16495:16509   */\n      add\n        /* \"#utility.yul\":16487:16509   */\n      swap1\n      pop\n        /* \"#utility.yul\":16402:16515   */\n      swap2\n      swap1\n      pop\n      jump\t// out\n        /* \"#utility.yul\":16551:17283   */\n    tag_452:\n        /* \"#utility.yul\":16670:16673   */\n      0x00\n        /* \"#utility.yul\":16699:16753   */\n      tag_679\n        /* \"#utility.yul\":16747:16752   */\n      dup3\n        /* \"#utility.yul\":16699:16753   */\n      tag_446\n      jump\t// in\n    tag_679:\n        /* \"#utility.yul\":16769:16855   */\n      tag_680\n        /* \"#utility.yul\":16848:16854   */\n      dup2\n        /* \"#utility.yul\":16843:16846   */\n      dup6\n        /* \"#utility.yul\":16769:16855   */\n      tag_447\n      jump\t// in\n    tag_680:\n        /* \"#utility.yul\":16762:16855   */\n      swap4\n      pop\n        /* \"#utility.yul\":16879:16935   */\n      tag_681\n        /* \"#utility.yul\":16929:16934   */\n      dup4\n        /* \"#utility.yul\":16879:16935   */\n      tag_448\n      jump\t// in\n    tag_681:\n        /* \"#utility.yul\":16958:16965   */\n      dup1\n        /* \"#utility.yul\":16989:16990   */\n      0x00\n        /* \"#utility.yul\":16974:17258   */\n    tag_682:\n        /* \"#utility.yul\":16999:17005   */\n      dup4\n        /* \"#utility.yul\":16996:16997   */\n      dup2\n        /* \"#utility.yul\":16993:17006   */\n      lt\n        /* \"#utility.yul\":16974:17258   */\n      iszero\n      tag_684\n      jumpi\n        /* \"#utility.yul\":17075:17081   */\n      dup2\n        /* \"#utility.yul\":17069:17082   */\n      mload\n        /* \"#utility.yul\":17102:17165   */\n      tag_685\n        /* \"#utility.yul\":17161:17164   */\n      dup9\n        /* \"#utility.yul\":17146:17159   */\n      dup3\n        /* \"#utility.yul\":17102:17165   */\n      tag_450\n      jump\t// in\n    tag_685:\n        /* \"#utility.yul\":17095:17165   */\n      swap8\n      pop\n        /* \"#utility.yul\":17188:17248   */\n      tag_686\n        /* \"#utility.yul\":17241:17247   */\n      dup4\n        /* \"#utility.yul\":17188:17248   */\n      tag_451\n      jump\t// in\n    tag_686:\n        /* \"#utility.yul\":17178:17248   */\n      swap3\n      pop\n        /* \"#utility.yul\":17034:17258   */\n      pop\n        /* \"#utility.yul\":17021:17022   */\n      0x01\n        /* \"#utility.yul\":17018:17019   */\n      dup2\n        /* \"#utility.yul\":17014:17023   */\n      add\n        /* \"#utility.yul\":17009:17023   */\n      swap1\n      pop\n        /* \"#utility.yul\":16974:17258   */\n      jump(tag_682)\n    tag_684:\n        /* \"#utility.yul\":16978:16992   */\n      pop\n        /* \"#utility.yul\":17274:17277   */\n      dup6\n        /* \"#utility.yul\":17267:17277   */\n      swap4\n      pop\n        /* \"#utility.yul\":16675:17283   */\n      pop\n      pop\n      pop\n        /* \"#utility.yul\":16551:17283   */\n      swap3\n      swap2\n      pop\n      pop\n      jump\t// out\n        /* \"#utility.yul\":17289:18888   */\n    tag_44:\n        /* \"#utility.yul\":17834:17838   */\n      0x00\n        /* \"#utility.yul\":17872:17875   */\n      0xa0\n        /* \"#utility.yul\":17861:17870   */\n      dup3\n        /* \"#utility.yul\":17857:17876   */\n      add\n        /* \"#utility.yul\":17849:17876   */\n      swap1\n      pop\n        /* \"#utility.yul\":17922:17931   */\n      dup2\n        /* \"#utility.yul\":17916:17920   */\n      dup2\n        /* \"#utility.yul\":17912:17932   */\n      sub\n        /* \"#utility.yul\":17908:17909   */\n      0x00\n        /* \"#utility.yul\":17897:17906   */\n      dup4\n        /* \"#utility.yul\":17893:17910   */\n      add\n        /* \"#utility.yul\":17886:17933   */\n      mstore\n        /* \"#utility.yul\":17950:18058   */\n      tag_688\n        /* \"#utility.yul\":18053:18057   */\n      dup2\n        /* \"#utility.yul\":18044:18050   */\n      dup9\n        /* \"#utility.yul\":17950:18058   */\n      tag_428\n      jump\t// in\n    tag_688:\n        /* \"#utility.yul\":17942:18058   */\n      swap1\n      pop\n        /* \"#utility.yul\":18105:18114   */\n      dup2\n        /* \"#utility.yul\":18099:18103   */\n      dup2\n        /* \"#utility.yul\":18095:18115   */\n      sub\n        /* \"#utility.yul\":18090:18092   */\n      0x20\n        /* \"#utility.yul\":18079:18088   */\n      dup4\n        /* \"#utility.yul\":18075:18093   */\n      add\n        /* \"#utility.yul\":18068:18116   */\n      mstore\n        /* \"#utility.yul\":18133:18261   */\n      tag_689\n        /* \"#utility.yul\":18256:18260   */\n      dup2\n        /* \"#utility.yul\":18247:18253   */\n      dup8\n        /* \"#utility.yul\":18133:18261   */\n      tag_418\n      jump\t// in\n    tag_689:\n        /* \"#utility.yul\":18125:18261   */\n      swap1\n      pop\n        /* \"#utility.yul\":18308:18317   */\n      dup2\n        /* \"#utility.yul\":18302:18306   */\n      dup2\n        /* \"#utility.yul\":18298:18318   */\n      sub\n        /* \"#utility.yul\":18293:18295   */\n      0x40\n        /* \"#utility.yul\":18282:18291   */\n      dup4\n        /* \"#utility.yul\":18278:18296   */\n      add\n        /* \"#utility.yul\":18271:18319   */\n      mstore\n        /* \"#utility.yul\":18336:18514   */\n      tag_690\n        /* \"#utility.yul\":18509:18513   */\n      dup2\n        /* \"#utility.yul\":18500:18506   */\n      dup7\n        /* \"#utility.yul\":18336:18514   */\n      tag_445\n      jump\t// in\n    tag_690:\n        /* \"#utility.yul\":18328:18514   */\n      swap1\n      pop\n        /* \"#utility.yul\":18561:18570   */\n      dup2\n        /* \"#utility.yul\":18555:18559   */\n      dup2\n        /* \"#utility.yul\":18551:18571   */\n      sub\n        /* \"#utility.yul\":18546:18548   */\n      0x60\n        /* \"#utility.yul\":18535:18544   */\n      dup4\n        /* \"#utility.yul\":18531:18549   */\n      add\n        /* \"#utility.yul\":18524:18572   */\n      mstore\n        /* \"#utility.yul\":18589:18697   */\n      tag_691\n        /* \"#utility.yul\":18692:18696   */\n      dup2\n        /* \"#utility.yul\":18683:18689   */\n      dup6\n        /* \"#utility.yul\":18589:18697   */\n      tag_428\n      jump\t// in\n    tag_691:\n        /* \"#utility.yul\":18581:18697   */\n      swap1\n      pop\n        /* \"#utility.yul\":18745:18754   */\n      dup2\n        /* \"#utility.yul\":18739:18743   */\n      dup2\n        /* \"#utility.yul\":18735:18755   */\n      sub\n        /* \"#utility.yul\":18729:18732   */\n      0x80\n        /* \"#utility.yul\":18718:18727   */\n      dup4\n        /* \"#utility.yul\":18714:18733   */\n      add\n        /* \"#utility.yul\":18707:18756   */\n      mstore\n        /* \"#utility.yul\":18773:18881   */\n      tag_692\n        /* \"#utility.yul\":18876:18880   */\n      dup2\n        /* \"#utility.yul\":18867:18873   */\n      dup5\n        /* \"#utility.yul\":18773:18881   */\n      tag_452\n      jump\t// in\n    tag_692:\n        /* \"#utility.yul\":18765:18881   */\n      swap1\n      pop\n        /* \"#utility.yul\":17289:18888   */\n      swap7\n      swap6\n      pop\n      pop\n      pop\n      pop\n      pop\n      pop\n      jump\t// out\n        /* \"#utility.yul\":18894:19364   */\n    tag_47:\n        /* \"#utility.yul\":18960:18966   */\n      0x00\n        /* \"#utility.yul\":18968:18974   */\n      dup1\n        /* \"#utility.yul\":19017:19019   */\n      0x40\n        /* \"#utility.yul\":19005:19014   */\n      dup4\n        /* \"#utility.yul\":18996:19003   */\n      dup6\n        /* \"#utility.yul\":18992:19015   */\n      sub\n        /* \"#utility.yul\":18988:19020   */\n      slt\n        /* \"#utility.yul\":18985:19104   */\n      iszero\n      tag_694\n      jumpi\n        /* \"#utility.yul\":19023:19102   */\n      tag_695\n      tag_401\n      jump\t// in\n    tag_695:\n        /* \"#utility.yul\":18985:19104   */\n    tag_694:\n        /* \"#utility.yul\":19143:19144   */\n      0x00\n        /* \"#utility.yul\":19168:19221   */\n      tag_696\n        /* \"#utility.yul\":19213:19220   */\n      dup6\n        /* \"#utility.yul\":19204:19210   */\n      dup3\n        /* \"#utility.yul\":19193:19202   */\n      dup7\n        /* \"#utility.yul\":19189:19211   */\n      add\n        /* \"#utility.yul\":19168:19221   */\n      tag_405\n      jump\t// in\n    tag_696:\n        /* \"#utility.yul\":19158:19221   */\n      swap3\n      pop\n        /* \"#utility.yul\":19114:19231   */\n      pop\n        /* \"#utility.yul\":19270:19272   */\n      0x20\n        /* \"#utility.yul\":19296:19347   */\n      tag_697\n        /* \"#utility.yul\":19339:19346   */\n      dup6\n        /* \"#utility.yul\":19330:19336   */\n      dup3\n        /* \"#utility.yul\":19319:19328   */\n      dup7\n        /* \"#utility.yul\":19315:19337   */\n      add\n        /* \"#utility.yul\":19296:19347   */\n      tag_432\n      jump\t// in\n    tag_697:\n        /* \"#utility.yul\":19286:19347   */\n      swap2\n      pop\n        /* \"#utility.yul\":19241:19357   */\n      pop\n        /* \"#utility.yul\":18894:19364   */\n      swap3\n      pop\n      swap3\n      swap1\n      pop\n      jump\t// out\n        /* \"#utility.yul\":19370:19492   */\n    tag_453:\n        /* \"#utility.yul\":19443:19467   */\n      tag_699\n        /* \"#utility.yul\":19461:19466   */\n      dup2\n        /* \"#utility.yul\":19443:19467   */\n      tag_398\n      jump\t// in\n    tag_699:\n        /* \"#utility.yul\":19436:19441   */\n      dup2\n        /* \"#utility.yul\":19433:19468   */\n      eq\n        /* \"#utility.yul\":19423:19486   */\n      tag_700\n      jumpi\n        /* \"#utility.yul\":19482:19483   */\n      0x00\n        /* \"#utility.yul\":19479:19480   */\n      dup1\n        /* \"#utility.yul\":19472:19484   */\n      revert\n        /* \"#utility.yul\":19423:19486   */\n    tag_700:\n        /* \"#utility.yul\":19370:19492   */\n      pop\n      jump\t// out\n        /* \"#utility.yul\":19498:19637   */\n    tag_454:\n        /* \"#utility.yul\":19544:19549   */\n      0x00\n        /* \"#utility.yul\":19582:19588   */\n      dup2\n        /* \"#utility.yul\":19569:19589   */\n      calldataload\n        /* \"#utility.yul\":19560:19589   */\n      swap1\n      pop\n        /* \"#utility.yul\":19598:19631   */\n      tag_702\n        /* \"#utility.yul\":19625:19630   */\n      dup2\n        /* \"#utility.yul\":19598:19631   */\n      tag_453\n      jump\t// in\n    tag_702:\n        /* \"#utility.yul\":19498:19637   */\n      swap3\n      swap2\n      pop\n      pop\n      jump\t// out\n        /* \"#utility.yul\":19643:19972   */\n    tag_51:\n        /* \"#utility.yul\":19702:19708   */\n      0x00\n        /* \"#utility.yul\":19751:19753   */\n      0x20\n        /* \"#utility.yul\":19739:19748   */\n      dup3\n        /* \"#utility.yul\":19730:19737   */\n      dup5\n        /* \"#utility.yul\":19726:19749   */\n      sub\n        /* \"#utility.yul\":19722:19754   */\n      slt\n        /* \"#utility.yul\":19719:19838   */\n      iszero\n      tag_704\n      jumpi\n        /* \"#utility.yul\":19757:19836   */\n      tag_705\n      tag_401\n      jump\t// in\n    tag_705:\n        /* \"#utility.yul\":19719:19838   */\n    tag_704:\n        /* \"#utility.yul\":19877:19878   */\n      0x00\n        /* \"#utility.yul\":19902:19955   */\n      tag_706\n        /* \"#utility.yul\":19947:19954   */\n      dup5\n        /* \"#utility.yul\":19938:19944   */\n      dup3\n        /* \"#utility.yul\":19927:19936   */\n      dup6\n        /* \"#utility.yul\":19923:19945   */\n      add\n        /* \"#utility.yul\":19902:19955   */\n      tag_454\n      jump\t// in\n    tag_706:\n        /* \"#utility.yul\":19892:19955   */\n      swap2\n      pop\n        /* \"#utility.yul\":19848:19965   */\n      pop\n        /* \"#utility.yul\":19643:19972   */\n      swap3\n      swap2\n      pop\n      pop\n      jump\t// out\n        /* \"#utility.yul\":19978:21315   */\n    tag_54:\n        /* \"#utility.yul\":20445:20449   */\n      0x00\n        /* \"#utility.yul\":20483:20486   */\n      0x80\n        /* \"#utility.yul\":20472:20481   */\n      dup3\n        /* \"#utility.yul\":20468:20487   */\n      add\n        /* \"#utility.yul\":20460:20487   */\n      swap1\n      pop\n        /* \"#utility.yul\":20533:20542   */\n      dup2\n        /* \"#utility.yul\":20527:20531   */\n      dup2\n        /* \"#utility.yul\":20523:20543   */\n      sub\n        /* \"#utility.yul\":20519:20520   */\n      0x00\n        /* \"#utility.yul\":20508:20517   */\n      dup4\n        /* \"#utility.yul\":20504:20521   */\n      add\n        /* \"#utility.yul\":20497:20544   */\n      mstore\n        /* \"#utility.yul\":20561:20669   */\n      tag_708\n        /* \"#utility.yul\":20664:20668   */\n      dup2\n        /* \"#utility.yul\":20655:20661   */\n      dup8\n        /* \"#utility.yul\":20561:20669   */\n      tag_428\n      jump\t// in\n    tag_708:\n        /* \"#utility.yul\":20553:20669   */\n      swap1\n      pop\n        /* \"#utility.yul\":20716:20725   */\n      dup2\n        /* \"#utility.yul\":20710:20714   */\n      dup2\n        /* \"#utility.yul\":20706:20726   */\n      sub\n        /* \"#utility.yul\":20701:20703   */\n      0x20\n        /* \"#utility.yul\":20690:20699   */\n      dup4\n        /* \"#utility.yul\":20686:20704   */\n      add\n        /* \"#utility.yul\":20679:20727   */\n      mstore\n        /* \"#utility.yul\":20744:20872   */\n      tag_709\n        /* \"#utility.yul\":20867:20871   */\n      dup2\n        /* \"#utility.yul\":20858:20864   */\n      dup7\n        /* \"#utility.yul\":20744:20872   */\n      tag_418\n      jump\t// in\n    tag_709:\n        /* \"#utility.yul\":20736:20872   */\n      swap1\n      pop\n        /* \"#utility.yul\":20919:20928   */\n      dup2\n        /* \"#utility.yul\":20913:20917   */\n      dup2\n        /* \"#utility.yul\":20909:20929   */\n      sub\n        /* \"#utility.yul\":20904:20906   */\n      0x40\n        /* \"#utility.yul\":20893:20902   */\n      dup4\n        /* \"#utility.yul\":20889:20907   */\n      add\n        /* \"#utility.yul\":20882:20930   */\n      mstore\n        /* \"#utility.yul\":20947:21055   */\n      tag_710\n        /* \"#utility.yul\":21050:21054   */\n      dup2\n        /* \"#utility.yul\":21041:21047   */\n      dup6\n        /* \"#utility.yul\":20947:21055   */\n      tag_428\n      jump\t// in\n    tag_710:\n        /* \"#utility.yul\":20939:21055   */\n      swap1\n      pop\n        /* \"#utility.yul\":21102:21111   */\n      dup2\n        /* \"#utility.yul\":21096:21100   */\n      dup2\n        /* \"#utility.yul\":21092:21112   */\n      sub\n        /* \"#utility.yul\":21087:21089   */\n      0x60\n        /* \"#utility.yul\":21076:21085   */\n      dup4\n        /* \"#utility.yul\":21072:21090   */\n      add\n        /* \"#utility.yul\":21065:21113   */\n      mstore\n        /* \"#utility.yul\":21130:21308   */\n      tag_711\n        /* \"#utility.yul\":21303:21307   */\n      dup2\n        /* \"#utility.yul\":21294:21300   */\n      dup5\n        /* \"#utility.yul\":21130:21308   */\n      tag_445\n      jump\t// in\n    tag_711:\n        /* \"#utility.yul\":21122:21308   */\n      swap1\n      pop\n        /* \"#utility.yul\":19978:21315   */\n      swap6\n      swap5\n      pop\n      pop\n      pop\n      pop\n      pop\n      jump\t// out\n        /* \"#utility.yul\":21321:21485   */\n    tag_455:\n        /* \"#utility.yul\":21461:21477   */\n      0x4e6f7420617574686f72697a6564000000000000000000000000000000000000\n        /* \"#utility.yul\":21457:21458   */\n      0x00\n        /* \"#utility.yul\":21449:21455   */\n      dup3\n        /* \"#utility.yul\":21445:21459   */\n      add\n        /* \"#utility.yul\":21438:21478   */\n      mstore\n        /* \"#utility.yul\":21321:21485   */\n      pop\n      jump\t// out\n        /* \"#utility.yul\":21491:21857   */\n    tag_456:\n        /* \"#utility.yul\":21633:21636   */\n      0x00\n        /* \"#utility.yul\":21654:21721   */\n      tag_714\n        /* \"#utility.yul\":21718:21720   */\n      0x0e\n        /* \"#utility.yul\":21713:21716   */\n      dup4\n        /* \"#utility.yul\":21654:21721   */\n      tag_407\n      jump\t// in\n    tag_714:\n        /* \"#utility.yul\":21647:21721   */\n      swap2\n      pop\n        /* \"#utility.yul\":21730:21823   */\n      tag_715\n        /* \"#utility.yul\":21819:21822   */\n      dup3\n        /* \"#utility.yul\":21730:21823   */\n      tag_455\n      jump\t// in\n    tag_715:\n        /* \"#utility.yul\":21848:21850   */\n      0x20\n        /* \"#utility.yul\":21843:21846   */\n      dup3\n        /* \"#utility.yul\":21839:21851   */\n      add\n        /* \"#utility.yul\":21832:21851   */\n      swap1\n      pop\n        /* \"#utility.yul\":21491:21857   */\n      swap2\n      swap1\n      pop\n      jump\t// out\n        /* \"#utility.yul\":21863:22282   */\n    tag_58:\n        /* \"#utility.yul\":22029:22033   */\n      0x00\n        /* \"#utility.yul\":22067:22069   */\n      0x20\n        /* \"#utility.yul\":22056:22065   */\n      dup3\n        /* \"#utility.yul\":22052:22070   */\n      add\n        /* \"#utility.yul\":22044:22070   */\n      swap1\n      pop\n        /* \"#utility.yul\":22116:22125   */\n      dup2\n        /* \"#utility.yul\":22110:22114   */\n      dup2\n        /* \"#utility.yul\":22106:22126   */\n      sub\n        /* \"#utility.yul\":22102:22103   */\n      0x00\n        /* \"#utility.yul\":22091:22100   */\n      dup4\n        /* \"#utility.yul\":22087:22104   */\n      add\n        /* \"#utility.yul\":22080:22127   */\n      mstore\n        /* \"#utility.yul\":22144:22275   */\n      tag_717\n        /* \"#utility.yul\":22270:22274   */\n      dup2\n        /* \"#utility.yul\":22144:22275   */\n      tag_456\n      jump\t// in\n    tag_717:\n        /* \"#utility.yul\":22136:22275   */\n      swap1\n      pop\n        /* \"#utility.yul\":21863:22282   */\n      swap2\n      swap1\n      pop\n      jump\t// out\n        /* \"#utility.yul\":22288:22462   */\n    tag_457:\n        /* \"#utility.yul\":22428:22454   */\n      0x42657474696e6720616c7265616479207265736f6c7665640000000000000000\n        /* \"#utility.yul\":22424:22425   */\n      0x00\n        /* \"#utility.yul\":22416:22422   */\n      dup3\n        /* \"#utility.yul\":22412:22426   */\n      add\n        /* \"#utility.yul\":22405:22455   */\n      mstore\n        /* \"#utility.yul\":22288:22462   */\n      pop\n      jump\t// out\n        /* \"#utility.yul\":22468:22834   */\n    tag_458:\n        /* \"#utility.yul\":22610:22613   */\n      0x00\n        /* \"#utility.yul\":22631:22698   */\n      tag_720\n        /* \"#utility.yul\":22695:22697   */\n      0x18\n        /* \"#utility.yul\":22690:22693   */\n      dup4\n        /* \"#utility.yul\":22631:22698   */\n      tag_407\n      jump\t// in\n    tag_720:\n        /* \"#utility.yul\":22624:22698   */\n      swap2\n      pop\n        /* \"#utility.yul\":22707:22800   */\n      tag_721\n        /* \"#utility.yul\":22796:22799   */\n      dup3\n        /* \"#utility.yul\":22707:22800   */\n      tag_457\n      jump\t// in\n    tag_721:\n        /* \"#utility.yul\":22825:22827   */\n      0x20\n        /* \"#utility.yul\":22820:22823   */\n      dup3\n        /* \"#utility.yul\":22816:22828   */\n      add\n        /* \"#utility.yul\":22809:22828   */\n      swap1\n      pop\n        /* \"#utility.yul\":22468:22834   */\n      swap2\n      swap1\n      pop\n      jump\t// out\n        /* \"#utility.yul\":22840:23259   */\n    tag_62:\n        /* \"#utility.yul\":23006:23010   */\n      0x00\n        /* \"#utility.yul\":23044:23046   */\n      0x20\n        /* \"#utility.yul\":23033:23042   */\n      dup3\n        /* \"#utility.yul\":23029:23047   */\n      add\n        /* \"#utility.yul\":23021:23047   */\n      swap1\n      pop\n        /* \"#utility.yul\":23093:23102   */\n      dup2\n        /* \"#utility.yul\":23087:23091   */\n      dup2\n        /* \"#utility.yul\":23083:23103   */\n      sub\n        /* \"#utility.yul\":23079:23080   */\n      0x00\n        /* \"#utility.yul\":23068:23077   */\n      dup4\n        /* \"#utility.yul\":23064:23081   */\n      add\n        /* \"#utility.yul\":23057:23104   */\n      mstore\n        /* \"#utility.yul\":23121:23252   */\n      tag_723\n        /* \"#utility.yul\":23247:23251   */\n      dup2\n        /* \"#utility.yul\":23121:23252   */\n      tag_458\n      jump\t// in\n    tag_723:\n        /* \"#utility.yul\":23113:23252   */\n      swap1\n      pop\n        /* \"#utility.yul\":22840:23259   */\n      swap2\n      swap1\n      pop\n      jump\t// out\n        /* \"#utility.yul\":23265:23445   */\n    tag_68:\n        /* \"#utility.yul\":23313:23390   */\n      0x4e487b7100000000000000000000000000000000000000000000000000000000\n        /* \"#utility.yul\":23310:23311   */\n      0x00\n        /* \"#utility.yul\":23303:23391   */\n      mstore\n        /* \"#utility.yul\":23410:23414   */\n      0x32\n        /* \"#utility.yul\":23407:23408   */\n      0x04\n        /* \"#utility.yul\":23400:23415   */\n      mstore\n        /* \"#utility.yul\":23434:23438   */\n      0x24\n        /* \"#utility.yul\":23431:23432   */\n      0x00\n        /* \"#utility.yul\":23424:23439   */\n      revert\n        /* \"#utility.yul\":23451:23631   */\n    tag_459:\n        /* \"#utility.yul\":23499:23576   */\n      0x4e487b7100000000000000000000000000000000000000000000000000000000\n        /* \"#utility.yul\":23496:23497   */\n      0x00\n        /* \"#utility.yul\":23489:23577   */\n      mstore\n        /* \"#utility.yul\":23596:23600   */\n      0x11\n        /* \"#utility.yul\":23593:23594   */\n      0x04\n        /* \"#utility.yul\":23586:23601   */\n      mstore\n        /* \"#utility.yul\":23620:23624   */\n      0x24\n        /* \"#utility.yul\":23617:23618   */\n      0x00\n        /* \"#utility.yul\":23610:23625   */\n      revert\n        /* \"#utility.yul\":23637:23828   */\n    tag_71:\n        /* \"#utility.yul\":23677:23680   */\n      0x00\n        /* \"#utility.yul\":23696:23716   */\n      tag_727\n        /* \"#utility.yul\":23714:23715   */\n      dup3\n        /* \"#utility.yul\":23696:23716   */\n      tag_403\n      jump\t// in\n    tag_727:\n        /* \"#utility.yul\":23691:23716   */\n      swap2\n      pop\n        /* \"#utility.yul\":23730:23750   */\n      tag_728\n        /* \"#utility.yul\":23748:23749   */\n      dup4\n        /* \"#utility.yul\":23730:23750   */\n      tag_403\n      jump\t// in\n    tag_728:\n        /* \"#utility.yul\":23725:23750   */\n      swap3\n      pop\n        /* \"#utility.yul\":23773:23774   */\n      dup3\n        /* \"#utility.yul\":23770:23771   */\n      dup3\n        /* \"#utility.yul\":23766:23775   */\n      add\n        /* \"#utility.yul\":23759:23775   */\n      swap1\n      pop\n        /* \"#utility.yul\":23794:23797   */\n      dup1\n        /* \"#utility.yul\":23791:23792   */\n      dup3\n        /* \"#utility.yul\":23788:23798   */\n      gt\n        /* \"#utility.yul\":23785:23821   */\n      iszero\n      tag_729\n      jumpi\n        /* \"#utility.yul\":23801:23819   */\n      tag_730\n      tag_459\n      jump\t// in\n    tag_730:\n        /* \"#utility.yul\":23785:23821   */\n    tag_729:\n        /* \"#utility.yul\":23637:23828   */\n      swap3\n      swap2\n      pop\n      pop\n      jump\t// out\n        /* \"#utility.yul\":23834:24001   */\n    tag_73:\n        /* \"#utility.yul\":23871:23874   */\n      0x00\n        /* \"#utility.yul\":23894:23916   */\n      tag_732\n        /* \"#utility.yul\":23910:23915   */\n      dup3\n        /* \"#utility.yul\":23894:23916   */\n      tag_429\n      jump\t// in\n    tag_732:\n        /* \"#utility.yul\":23885:23916   */\n      swap2\n      pop\n        /* \"#utility.yul\":23938:23942   */\n      0xff\n        /* \"#utility.yul\":23931:23936   */\n      dup3\n        /* \"#utility.yul\":23928:23943   */\n      sub\n        /* \"#utility.yul\":23925:23966   */\n      tag_733\n      jumpi\n        /* \"#utility.yul\":23946:23964   */\n      tag_734\n      tag_459\n      jump\t// in\n    tag_734:\n        /* \"#utility.yul\":23925:23966   */\n    tag_733:\n        /* \"#utility.yul\":23993:23994   */\n      0x01\n        /* \"#utility.yul\":23986:23991   */\n      dup3\n        /* \"#utility.yul\":23982:23995   */\n      add\n        /* \"#utility.yul\":23975:23995   */\n      swap1\n      pop\n        /* \"#utility.yul\":23834:24001   */\n      swap2\n      swap1\n      pop\n      jump\t// out\n        /* \"#utility.yul\":24007:24187   */\n    tag_460:\n        /* \"#utility.yul\":24055:24132   */\n      0x4e487b7100000000000000000000000000000000000000000000000000000000\n        /* \"#utility.yul\":24052:24053   */\n      0x00\n        /* \"#utility.yul\":24045:24133   */\n      mstore\n        /* \"#utility.yul\":24152:24156   */\n      0x12\n        /* \"#utility.yul\":24149:24150   */\n      0x04\n        /* \"#utility.yul\":24142:24157   */\n      mstore\n        /* \"#utility.yul\":24176:24180   */\n      0x24\n        /* \"#utility.yul\":24173:24174   */\n      0x00\n        /* \"#utility.yul\":24166:24181   */\n      revert\n        /* \"#utility.yul\":24193:24378   */\n    tag_75:\n        /* \"#utility.yul\":24233:24234   */\n      0x00\n        /* \"#utility.yul\":24250:24270   */\n      tag_737\n        /* \"#utility.yul\":24268:24269   */\n      dup3\n        /* \"#utility.yul\":24250:24270   */\n      tag_403\n      jump\t// in\n    tag_737:\n        /* \"#utility.yul\":24245:24270   */\n      swap2\n      pop\n        /* \"#utility.yul\":24284:24304   */\n      tag_738\n        /* \"#utility.yul\":24302:24303   */\n      dup4\n        /* \"#utility.yul\":24284:24304   */\n      tag_403\n      jump\t// in\n    tag_738:\n        /* \"#utility.yul\":24279:24304   */\n      swap3\n      pop\n        /* \"#utility.yul\":24323:24324   */\n      dup3\n        /* \"#utility.yul\":24313:24348   */\n      tag_739\n      jumpi\n        /* \"#utility.yul\":24328:24346   */\n      tag_740\n      tag_460\n      jump\t// in\n    tag_740:\n        /* \"#utility.yul\":24313:24348   */\n    tag_739:\n        /* \"#utility.yul\":24370:24371   */\n      dup3\n        /* \"#utility.yul\":24367:24368   */\n      dup3\n        /* \"#utility.yul\":24363:24372   */\n      div\n        /* \"#utility.yul\":24358:24372   */\n      swap1\n      pop\n        /* \"#utility.yul\":24193:24378   */\n      swap3\n      swap2\n      pop\n      pop\n      jump\t// out\n        /* \"#utility.yul\":24384:24578   */\n    tag_77:\n        /* \"#utility.yul\":24424:24428   */\n      0x00\n        /* \"#utility.yul\":24444:24464   */\n      tag_742\n        /* \"#utility.yul\":24462:24463   */\n      dup3\n        /* \"#utility.yul\":24444:24464   */\n      tag_403\n      jump\t// in\n    tag_742:\n        /* \"#utility.yul\":24439:24464   */\n      swap2\n      pop\n        /* \"#utility.yul\":24478:24498   */\n      tag_743\n        /* \"#utility.yul\":24496:24497   */\n      dup4\n        /* \"#utility.yul\":24478:24498   */\n      tag_403\n      jump\t// in\n    tag_743:\n        /* \"#utility.yul\":24473:24498   */\n      swap3\n      pop\n        /* \"#utility.yul\":24522:24523   */\n      dup3\n        /* \"#utility.yul\":24519:24520   */\n      dup3\n        /* \"#utility.yul\":24515:24524   */\n      sub\n        /* \"#utility.yul\":24507:24524   */\n      swap1\n      pop\n        /* \"#utility.yul\":24546:24547   */\n      dup2\n        /* \"#utility.yul\":24540:24544   */\n      dup2\n        /* \"#utility.yul\":24537:24548   */\n      gt\n        /* \"#utility.yul\":24534:24571   */\n      iszero\n      tag_744\n      jumpi\n        /* \"#utility.yul\":24551:24569   */\n      tag_745\n      tag_459\n      jump\t// in\n    tag_745:\n        /* \"#utility.yul\":24534:24571   */\n    tag_744:\n        /* \"#utility.yul\":24384:24578   */\n      swap3\n      swap2\n      pop\n      pop\n      jump\t// out\n        /* \"#utility.yul\":24584:24916   */\n    tag_80:\n        /* \"#utility.yul\":24705:24709   */\n      0x00\n        /* \"#utility.yul\":24743:24745   */\n      0x40\n        /* \"#utility.yul\":24732:24741   */\n      dup3\n        /* \"#utility.yul\":24728:24746   */\n      add\n        /* \"#utility.yul\":24720:24746   */\n      swap1\n      pop\n        /* \"#utility.yul\":24756:24827   */\n      tag_747\n        /* \"#utility.yul\":24824:24825   */\n      0x00\n        /* \"#utility.yul\":24813:24822   */\n      dup4\n        /* \"#utility.yul\":24809:24826   */\n      add\n        /* \"#utility.yul\":24800:24806   */\n      dup6\n        /* \"#utility.yul\":24756:24827   */\n      tag_399\n      jump\t// in\n    tag_747:\n        /* \"#utility.yul\":24837:24909   */\n      tag_748\n        /* \"#utility.yul\":24905:24907   */\n      0x20\n        /* \"#utility.yul\":24894:24903   */\n      dup4\n        /* \"#utility.yul\":24890:24908   */\n      add\n        /* \"#utility.yul\":24881:24887   */\n      dup5\n        /* \"#utility.yul\":24837:24909   */\n      tag_421\n      jump\t// in\n    tag_748:\n        /* \"#utility.yul\":24584:24916   */\n      swap4\n      swap3\n      pop\n      pop\n      pop\n      jump\t// out\n        /* \"#utility.yul\":24922:25038   */\n    tag_461:\n        /* \"#utility.yul\":24992:25013   */\n      tag_750\n        /* \"#utility.yul\":25007:25012   */\n      dup2\n        /* \"#utility.yul\":24992:25013   */\n      tag_419\n      jump\t// in\n    tag_750:\n        /* \"#utility.yul\":24985:24990   */\n      dup2\n        /* \"#utility.yul\":24982:25014   */\n      eq\n        /* \"#utility.yul\":24972:25032   */\n      tag_751\n      jumpi\n        /* \"#utility.yul\":25028:25029   */\n      0x00\n        /* \"#utility.yul\":25025:25026   */\n      dup1\n        /* \"#utility.yul\":25018:25030   */\n      revert\n        /* \"#utility.yul\":24972:25032   */\n    tag_751:\n        /* \"#utility.yul\":24922:25038   */\n      pop\n      jump\t// out\n        /* \"#utility.yul\":25044:25181   */\n    tag_462:\n        /* \"#utility.yul\":25098:25103   */\n      0x00\n        /* \"#utility.yul\":25129:25135   */\n      dup2\n        /* \"#utility.yul\":25123:25136   */\n      mload\n        /* \"#utility.yul\":25114:25136   */\n      swap1\n      pop\n        /* \"#utility.yul\":25145:25175   */\n      tag_753\n        /* \"#utility.yul\":25169:25174   */\n      dup2\n        /* \"#utility.yul\":25145:25175   */\n      tag_461\n      jump\t// in\n    tag_753:\n        /* \"#utility.yul\":25044:25181   */\n      swap3\n      swap2\n      pop\n      pop\n      jump\t// out\n        /* \"#utility.yul\":25187:25532   */\n    tag_84:\n        /* \"#utility.yul\":25254:25260   */\n      0x00\n        /* \"#utility.yul\":25303:25305   */\n      0x20\n        /* \"#utility.yul\":25291:25300   */\n      dup3\n        /* \"#utility.yul\":25282:25289   */\n      dup5\n        /* \"#utility.yul\":25278:25301   */\n      sub\n        /* \"#utility.yul\":25274:25306   */\n      slt\n        /* \"#utility.yul\":25271:25390   */\n      iszero\n      tag_755\n      jumpi\n        /* \"#utility.yul\":25309:25388   */\n      tag_756\n      tag_401\n      jump\t// in\n    tag_756:\n        /* \"#utility.yul\":25271:25390   */\n    tag_755:\n        /* \"#utility.yul\":25429:25430   */\n      0x00\n        /* \"#utility.yul\":25454:25515   */\n      tag_757\n        /* \"#utility.yul\":25507:25514   */\n      dup5\n        /* \"#utility.yul\":25498:25504   */\n      dup3\n        /* \"#utility.yul\":25487:25496   */\n      dup6\n        /* \"#utility.yul\":25483:25505   */\n      add\n        /* \"#utility.yul\":25454:25515   */\n      tag_462\n      jump\t// in\n    tag_757:\n        /* \"#utility.yul\":25444:25515   */\n      swap2\n      pop\n        /* \"#utility.yul\":25400:25525   */\n      pop\n        /* \"#utility.yul\":25187:25532   */\n      swap3\n      swap2\n      pop\n      pop\n      jump\t// out\n        /* \"#utility.yul\":25538:25707   */\n    tag_463:\n        /* \"#utility.yul\":25678:25699   */\n      0x466565207472616e73666572206661696c656400000000000000000000000000\n        /* \"#utility.yul\":25674:25675   */\n      0x00\n        /* \"#utility.yul\":25666:25672   */\n      dup3\n        /* \"#utility.yul\":25662:25676   */\n      add\n        /* \"#utility.yul\":25655:25700   */\n      mstore\n        /* \"#utility.yul\":25538:25707   */\n      pop\n      jump\t// out\n        /* \"#utility.yul\":25713:26079   */\n    tag_464:\n        /* \"#utility.yul\":25855:25858   */\n      0x00\n        /* \"#utility.yul\":25876:25943   */\n      tag_760\n        /* \"#utility.yul\":25940:25942   */\n      0x13\n        /* \"#utility.yul\":25935:25938   */\n      dup4\n        /* \"#utility.yul\":25876:25943   */\n      tag_407\n      jump\t// in\n    tag_760:\n        /* \"#utility.yul\":25869:25943   */\n      swap2\n      pop\n        /* \"#utility.yul\":25952:26045   */\n      tag_761\n        /* \"#utility.yul\":26041:26044   */\n      dup3\n        /* \"#utility.yul\":25952:26045   */\n      tag_463\n      jump\t// in\n    tag_761:\n        /* \"#utility.yul\":26070:26072   */\n      0x20\n        /* \"#utility.yul\":26065:26068   */\n      dup3\n        /* \"#utility.yul\":26061:26073   */\n      add\n        /* \"#utility.yul\":26054:26073   */\n      swap1\n      pop\n        /* \"#utility.yul\":25713:26079   */\n      swap2\n      swap1\n      pop\n      jump\t// out\n        /* \"#utility.yul\":26085:26504   */\n    tag_87:\n        /* \"#utility.yul\":26251:26255   */\n      0x00\n        /* \"#utility.yul\":26289:26291   */\n      0x20\n        /* \"#utility.yul\":26278:26287   */\n      dup3\n        /* \"#utility.yul\":26274:26292   */\n      add\n        /* \"#utility.yul\":26266:26292   */\n      swap1\n      pop\n        /* \"#utility.yul\":26338:26347   */\n      dup2\n        /* \"#utility.yul\":26332:26336   */\n      dup2\n        /* \"#utility.yul\":26328:26348   */\n      sub\n        /* \"#utility.yul\":26324:26325   */\n      0x00\n        /* \"#utility.yul\":26313:26322   */\n      dup4\n        /* \"#utility.yul\":26309:26326   */\n      add\n        /* \"#utility.yul\":26302:26349   */\n      mstore\n        /* \"#utility.yul\":26366:26497   */\n      tag_763\n        /* \"#utility.yul\":26492:26496   */\n      dup2\n        /* \"#utility.yul\":26366:26497   */\n      tag_464\n      jump\t// in\n    tag_763:\n        /* \"#utility.yul\":26358:26497   */\n      swap1\n      pop\n        /* \"#utility.yul\":26085:26504   */\n      swap2\n      swap1\n      pop\n      jump\t// out\n        /* \"#utility.yul\":26510:26687   */\n    tag_465:\n        /* \"#utility.yul\":26650:26679   */\n      0x43726561746f7220666565207472616e73666572206661696c65640000000000\n        /* \"#utility.yul\":26646:26647   */\n      0x00\n        /* \"#utility.yul\":26638:26644   */\n      dup3\n        /* \"#utility.yul\":26634:26648   */\n      add\n        /* \"#utility.yul\":26627:26680   */\n      mstore\n        /* \"#utility.yul\":26510:26687   */\n      pop\n      jump\t// out\n        /* \"#utility.yul\":26693:27059   */\n    tag_466:\n        /* \"#utility.yul\":26835:26838   */\n      0x00\n        /* \"#utility.yul\":26856:26923   */\n      tag_766\n        /* \"#utility.yul\":26920:26922   */\n      0x1b\n        /* \"#utility.yul\":26915:26918   */\n      dup4\n        /* \"#utility.yul\":26856:26923   */\n      tag_407\n      jump\t// in\n    tag_766:\n        /* \"#utility.yul\":26849:26923   */\n      swap2\n      pop\n        /* \"#utility.yul\":26932:27025   */\n      tag_767\n        /* \"#utility.yul\":27021:27024   */\n      dup3\n        /* \"#utility.yul\":26932:27025   */\n      tag_465\n      jump\t// in\n    tag_767:\n        /* \"#utility.yul\":27050:27052   */\n      0x20\n        /* \"#utility.yul\":27045:27048   */\n      dup3\n        /* \"#utility.yul\":27041:27053   */\n      add\n        /* \"#utility.yul\":27034:27053   */\n      swap1\n      pop\n        /* \"#utility.yul\":26693:27059   */\n      swap2\n      swap1\n      pop\n      jump\t// out\n        /* \"#utility.yul\":27065:27484   */\n    tag_94:\n        /* \"#utility.yul\":27231:27235   */\n      0x00\n        /* \"#utility.yul\":27269:27271   */\n      0x20\n        /* \"#utility.yul\":27258:27267   */\n      dup3\n        /* \"#utility.yul\":27254:27272   */\n      add\n        /* \"#utility.yul\":27246:27272   */\n      swap1\n      pop\n        /* \"#utility.yul\":27318:27327   */\n      dup2\n        /* \"#utility.yul\":27312:27316   */\n      dup2\n        /* \"#utility.yul\":27308:27328   */\n      sub\n        /* \"#utility.yul\":27304:27305   */\n      0x00\n        /* \"#utility.yul\":27293:27302   */\n      dup4\n        /* \"#utility.yul\":27289:27306   */\n      add\n        /* \"#utility.yul\":27282:27329   */\n      mstore\n        /* \"#utility.yul\":27346:27477   */\n      tag_769\n        /* \"#utility.yul\":27472:27476   */\n      dup2\n        /* \"#utility.yul\":27346:27477   */\n      tag_466\n      jump\t// in\n    tag_769:\n        /* \"#utility.yul\":27338:27477   */\n      swap1\n      pop\n        /* \"#utility.yul\":27065:27484   */\n      swap2\n      swap1\n      pop\n      jump\t// out\n        /* \"#utility.yul\":27490:27900   */\n    tag_108:\n        /* \"#utility.yul\":27530:27537   */\n      0x00\n        /* \"#utility.yul\":27553:27573   */\n      tag_771\n        /* \"#utility.yul\":27571:27572   */\n      dup3\n        /* \"#utility.yul\":27553:27573   */\n      tag_403\n      jump\t// in\n    tag_771:\n        /* \"#utility.yul\":27548:27573   */\n      swap2\n      pop\n        /* \"#utility.yul\":27587:27607   */\n      tag_772\n        /* \"#utility.yul\":27605:27606   */\n      dup4\n        /* \"#utility.yul\":27587:27607   */\n      tag_403\n      jump\t// in\n    tag_772:\n        /* \"#utility.yul\":27582:27607   */\n      swap3\n      pop\n        /* \"#utility.yul\":27642:27643   */\n      dup3\n        /* \"#utility.yul\":27639:27640   */\n      dup3\n        /* \"#utility.yul\":27635:27644   */\n      mul\n        /* \"#utility.yul\":27664:27694   */\n      tag_773\n        /* \"#utility.yul\":27682:27693   */\n      dup2\n        /* \"#utility.yul\":27664:27694   */\n      tag_403\n      jump\t// in\n    tag_773:\n        /* \"#utility.yul\":27653:27694   */\n      swap2\n      pop\n        /* \"#utility.yul\":27843:27844   */\n      dup3\n        /* \"#utility.yul\":27834:27841   */\n      dup3\n        /* \"#utility.yul\":27830:27845   */\n      div\n        /* \"#utility.yul\":27827:27828   */\n      dup5\n        /* \"#utility.yul\":27824:27846   */\n      eq\n        /* \"#utility.yul\":27804:27805   */\n      dup4\n        /* \"#utility.yul\":27797:27806   */\n      iszero\n        /* \"#utility.yul\":27777:27860   */\n      or\n        /* \"#utility.yul\":27754:27893   */\n      tag_774\n      jumpi\n        /* \"#utility.yul\":27873:27891   */\n      tag_775\n      tag_459\n      jump\t// in\n    tag_775:\n        /* \"#utility.yul\":27754:27893   */\n    tag_774:\n        /* \"#utility.yul\":27538:27900   */\n      pop\n        /* \"#utility.yul\":27490:27900   */\n      swap3\n      swap2\n      pop\n      pop\n      jump\t// out\n        /* \"#utility.yul\":27906:28078   */\n    tag_467:\n        /* \"#utility.yul\":28046:28070   */\n      0x426574746f72207472616e73666572206661696c656400000000000000000000\n        /* \"#utility.yul\":28042:28043   */\n      0x00\n        /* \"#utility.yul\":28034:28040   */\n      dup3\n        /* \"#utility.yul\":28030:28044   */\n      add\n        /* \"#utility.yul\":28023:28071   */\n      mstore\n        /* \"#utility.yul\":27906:28078   */\n      pop\n      jump\t// out\n        /* \"#utility.yul\":28084:28450   */\n    tag_468:\n        /* \"#utility.yul\":28226:28229   */\n      0x00\n        /* \"#utility.yul\":28247:28314   */\n      tag_778\n        /* \"#utility.yul\":28311:28313   */\n      0x16\n        /* \"#utility.yul\":28306:28309   */\n      dup4\n        /* \"#utility.yul\":28247:28314   */\n      tag_407\n      jump\t// in\n    tag_778:\n        /* \"#utility.yul\":28240:28314   */\n      swap2\n      pop\n        /* \"#utility.yul\":28323:28416   */\n      tag_779\n        /* \"#utility.yul\":28412:28415   */\n      dup3\n        /* \"#utility.yul\":28323:28416   */\n      tag_467\n      jump\t// in\n    tag_779:\n        /* \"#utility.yul\":28441:28443   */\n      0x20\n        /* \"#utility.yul\":28436:28439   */\n      dup3\n        /* \"#utility.yul\":28432:28444   */\n      add\n        /* \"#utility.yul\":28425:28444   */\n      swap1\n      pop\n        /* \"#utility.yul\":28084:28450   */\n      swap2\n      swap1\n      pop\n      jump\t// out\n        /* \"#utility.yul\":28456:28875   */\n    tag_116:\n        /* \"#utility.yul\":28622:28626   */\n      0x00\n        /* \"#utility.yul\":28660:28662   */\n      0x20\n        /* \"#utility.yul\":28649:28658   */\n      dup3\n        /* \"#utility.yul\":28645:28663   */\n      add\n        /* \"#utility.yul\":28637:28663   */\n      swap1\n      pop\n        /* \"#utility.yul\":28709:28718   */\n      dup2\n        /* \"#utility.yul\":28703:28707   */\n      dup2\n        /* \"#utility.yul\":28699:28719   */\n      sub\n        /* \"#utility.yul\":28695:28696   */\n      0x00\n        /* \"#utility.yul\":28684:28693   */\n      dup4\n        /* \"#utility.yul\":28680:28697   */\n      add\n        /* \"#utility.yul\":28673:28720   */\n      mstore\n        /* \"#utility.yul\":28737:28868   */\n      tag_781\n        /* \"#utility.yul\":28863:28867   */\n      dup2\n        /* \"#utility.yul\":28737:28868   */\n      tag_468\n      jump\t// in\n    tag_781:\n        /* \"#utility.yul\":28729:28868   */\n      swap1\n      pop\n        /* \"#utility.yul\":28456:28875   */\n      swap2\n      swap1\n      pop\n      jump\t// out\n        /* \"#utility.yul\":28881:29061   */\n    tag_469:\n        /* \"#utility.yul\":28929:29006   */\n      0x4e487b7100000000000000000000000000000000000000000000000000000000\n        /* \"#utility.yul\":28926:28927   */\n      0x00\n        /* \"#utility.yul\":28919:29007   */\n      mstore\n        /* \"#utility.yul\":29026:29030   */\n      0x22\n        /* \"#utility.yul\":29023:29024   */\n      0x04\n        /* \"#utility.yul\":29016:29031   */\n      mstore\n        /* \"#utility.yul\":29050:29054   */\n      0x24\n        /* \"#utility.yul\":29047:29048   */\n      0x00\n        /* \"#utility.yul\":29040:29055   */\n      revert\n        /* \"#utility.yul\":29067:29387   */\n    tag_120:\n        /* \"#utility.yul\":29111:29117   */\n      0x00\n        /* \"#utility.yul\":29148:29149   */\n      0x02\n        /* \"#utility.yul\":29142:29146   */\n      dup3\n        /* \"#utility.yul\":29138:29150   */\n      div\n        /* \"#utility.yul\":29128:29150   */\n      swap1\n      pop\n        /* \"#utility.yul\":29195:29196   */\n      0x01\n        /* \"#utility.yul\":29189:29193   */\n      dup3\n        /* \"#utility.yul\":29185:29197   */\n      and\n        /* \"#utility.yul\":29216:29234   */\n      dup1\n        /* \"#utility.yul\":29206:29287   */\n      tag_784\n      jumpi\n        /* \"#utility.yul\":29272:29276   */\n      0x7f\n        /* \"#utility.yul\":29264:29270   */\n      dup3\n        /* \"#utility.yul\":29260:29277   */\n      and\n        /* \"#utility.yul\":29250:29277   */\n      swap2\n      pop\n        /* \"#utility.yul\":29206:29287   */\n    tag_784:\n        /* \"#utility.yul\":29334:29336   */\n      0x20\n        /* \"#utility.yul\":29326:29332   */\n      dup3\n        /* \"#utility.yul\":29323:29337   */\n      lt\n        /* \"#utility.yul\":29303:29321   */\n      dup2\n        /* \"#utility.yul\":29300:29338   */\n      sub\n        /* \"#utility.yul\":29297:29381   */\n      tag_785\n      jumpi\n        /* \"#utility.yul\":29353:29371   */\n      tag_786\n      tag_469\n      jump\t// in\n    tag_786:\n        /* \"#utility.yul\":29297:29381   */\n    tag_785:\n        /* \"#utility.yul\":29118:29387   */\n      pop\n        /* \"#utility.yul\":29067:29387   */\n      swap2\n      swap1\n      pop\n      jump\t// out\n        /* \"#utility.yul\":29393:29573   */\n    tag_135:\n        /* \"#utility.yul\":29441:29518   */\n      0x4e487b7100000000000000000000000000000000000000000000000000000000\n        /* \"#utility.yul\":29438:29439   */\n      0x00\n        /* \"#utility.yul\":29431:29519   */\n      mstore\n        /* \"#utility.yul\":29538:29542   */\n      0x41\n        /* \"#utility.yul\":29535:29536   */\n      0x04\n        /* \"#utility.yul\":29528:29543   */\n      mstore\n        /* \"#utility.yul\":29562:29566   */\n      0x24\n        /* \"#utility.yul\":29559:29560   */\n      0x00\n        /* \"#utility.yul\":29552:29567   */\n      revert\n        /* \"#utility.yul\":29579:29746   */\n    tag_470:\n        /* \"#utility.yul\":29719:29738   */\n      0x42657474696e6720697320636c6f736564000000000000000000000000000000\n        /* \"#utility.yul\":29715:29716   */\n      0x00\n        /* \"#utility.yul\":29707:29713   */\n      dup3\n        /* \"#utility.yul\":29703:29717   */\n      add\n        /* \"#utility.yul\":29696:29739   */\n      mstore\n        /* \"#utility.yul\":29579:29746   */\n      pop\n      jump\t// out\n        /* \"#utility.yul\":29752:30118   */\n    tag_471:\n        /* \"#utility.yul\":29894:29897   */\n      0x00\n        /* \"#utility.yul\":29915:29982   */\n      tag_790\n        /* \"#utility.yul\":29979:29981   */\n      0x11\n        /* \"#utility.yul\":29974:29977   */\n      dup4\n        /* \"#utility.yul\":29915:29982   */\n      tag_407\n      jump\t// in\n    tag_790:\n        /* \"#utility.yul\":29908:29982   */\n      swap2\n      pop\n        /* \"#utility.yul\":29991:30084   */\n      tag_791\n        /* \"#utility.yul\":30080:30083   */\n      dup3\n        /* \"#utility.yul\":29991:30084   */\n      tag_470\n      jump\t// in\n    tag_791:\n        /* \"#utility.yul\":30109:30111   */\n      0x20\n        /* \"#utility.yul\":30104:30107   */\n      dup3\n        /* \"#utility.yul\":30100:30112   */\n      add\n        /* \"#utility.yul\":30093:30112   */\n      swap1\n      pop\n        /* \"#utility.yul\":29752:30118   */\n      swap2\n      swap1\n      pop\n      jump\t// out\n        /* \"#utility.yul\":30124:30543   */\n    tag_155:\n        /* \"#utility.yul\":30290:30294   */\n      0x00\n        /* \"#utility.yul\":30328:30330   */\n      0x20\n        /* \"#utility.yul\":30317:30326   */\n      dup3\n        /* \"#utility.yul\":30313:30331   */\n      add\n        /* \"#utility.yul\":30305:30331   */\n      swap1\n      pop\n        /* \"#utility.yul\":30377:30386   */\n      dup2\n        /* \"#utility.yul\":30371:30375   */\n      dup2\n        /* \"#utility.yul\":30367:30387   */\n      sub\n        /* \"#utility.yul\":30363:30364   */\n      0x00\n        /* \"#utility.yul\":30352:30361   */\n      dup4\n        /* \"#utility.yul\":30348:30365   */\n      add\n        /* \"#utility.yul\":30341:30388   */\n      mstore\n        /* \"#utility.yul\":30405:30536   */\n      tag_793\n        /* \"#utility.yul\":30531:30535   */\n      dup2\n        /* \"#utility.yul\":30405:30536   */\n      tag_471\n      jump\t// in\n    tag_793:\n        /* \"#utility.yul\":30397:30536   */\n      swap1\n      pop\n        /* \"#utility.yul\":30124:30543   */\n      swap2\n      swap1\n      pop\n      jump\t// out\n        /* \"#utility.yul\":30549:30730   */\n    tag_472:\n        /* \"#utility.yul\":30689:30722   */\n      0x42657420616d6f756e74206973206c657373207468616e206d696e696d756d00\n        /* \"#utility.yul\":30685:30686   */\n      0x00\n        /* \"#utility.yul\":30677:30683   */\n      dup3\n        /* \"#utility.yul\":30673:30687   */\n      add\n        /* \"#utility.yul\":30666:30723   */\n      mstore\n        /* \"#utility.yul\":30549:30730   */\n      pop\n      jump\t// out\n        /* \"#utility.yul\":30736:31102   */\n    tag_473:\n        /* \"#utility.yul\":30878:30881   */\n      0x00\n        /* \"#utility.yul\":30899:30966   */\n      tag_796\n        /* \"#utility.yul\":30963:30965   */\n      0x1f\n        /* \"#utility.yul\":30958:30961   */\n      dup4\n        /* \"#utility.yul\":30899:30966   */\n      tag_407\n      jump\t// in\n    tag_796:\n        /* \"#utility.yul\":30892:30966   */\n      swap2\n      pop\n        /* \"#utility.yul\":30975:31068   */\n      tag_797\n        /* \"#utility.yul\":31064:31067   */\n      dup3\n        /* \"#utility.yul\":30975:31068   */\n      tag_472\n      jump\t// in\n    tag_797:\n        /* \"#utility.yul\":31093:31095   */\n      0x20\n        /* \"#utility.yul\":31088:31091   */\n      dup3\n        /* \"#utility.yul\":31084:31096   */\n      add\n        /* \"#utility.yul\":31077:31096   */\n      swap1\n      pop\n        /* \"#utility.yul\":30736:31102   */\n      swap2\n      swap1\n      pop\n      jump\t// out\n        /* \"#utility.yul\":31108:31527   */\n    tag_158:\n        /* \"#utility.yul\":31274:31278   */\n      0x00\n        /* \"#utility.yul\":31312:31314   */\n      0x20\n        /* \"#utility.yul\":31301:31310   */\n      dup3\n        /* \"#utility.yul\":31297:31315   */\n      add\n        /* \"#utility.yul\":31289:31315   */\n      swap1\n      pop\n        /* \"#utility.yul\":31361:31370   */\n      dup2\n        /* \"#utility.yul\":31355:31359   */\n      dup2\n        /* \"#utility.yul\":31351:31371   */\n      sub\n        /* \"#utility.yul\":31347:31348   */\n      0x00\n        /* \"#utility.yul\":31336:31345   */\n      dup4\n        /* \"#utility.yul\":31332:31349   */\n      add\n        /* \"#utility.yul\":31325:31372   */\n      mstore\n        /* \"#utility.yul\":31389:31520   */\n      tag_799\n        /* \"#utility.yul\":31515:31519   */\n      dup2\n        /* \"#utility.yul\":31389:31520   */\n      tag_473\n      jump\t// in\n    tag_799:\n        /* \"#utility.yul\":31381:31520   */\n      swap1\n      pop\n        /* \"#utility.yul\":31108:31527   */\n      swap2\n      swap1\n      pop\n      jump\t// out\n        /* \"#utility.yul\":31533:31697   */\n    tag_474:\n        /* \"#utility.yul\":31673:31689   */\n      0x496e76616c6964206f7074696f6e000000000000000000000000000000000000\n        /* \"#utility.yul\":31669:31670   */\n      0x00\n        /* \"#utility.yul\":31661:31667   */\n      dup3\n        /* \"#utility.yul\":31657:31671   */\n      add\n        /* \"#utility.yul\":31650:31690   */\n      mstore\n        /* \"#utility.yul\":31533:31697   */\n      pop\n      jump\t// out\n        /* \"#utility.yul\":31703:32069   */\n    tag_475:\n        /* \"#utility.yul\":31845:31848   */\n      0x00\n        /* \"#utility.yul\":31866:31933   */\n      tag_802\n        /* \"#utility.yul\":31930:31932   */\n      0x0e\n        /* \"#utility.yul\":31925:31928   */\n      dup4\n        /* \"#utility.yul\":31866:31933   */\n      tag_407\n      jump\t// in\n    tag_802:\n        /* \"#utility.yul\":31859:31933   */\n      swap2\n      pop\n        /* \"#utility.yul\":31942:32035   */\n      tag_803\n        /* \"#utility.yul\":32031:32034   */\n      dup3\n        /* \"#utility.yul\":31942:32035   */\n      tag_474\n      jump\t// in\n    tag_803:\n        /* \"#utility.yul\":32060:32062   */\n      0x20\n        /* \"#utility.yul\":32055:32058   */\n      dup3\n        /* \"#utility.yul\":32051:32063   */\n      add\n        /* \"#utility.yul\":32044:32063   */\n      swap1\n      pop\n        /* \"#utility.yul\":31703:32069   */\n      swap2\n      swap1\n      pop\n      jump\t// out\n        /* \"#utility.yul\":32075:32494   */\n    tag_162:\n        /* \"#utility.yul\":32241:32245   */\n      0x00\n        /* \"#utility.yul\":32279:32281   */\n      0x20\n        /* \"#utility.yul\":32268:32277   */\n      dup3\n        /* \"#utility.yul\":32264:32282   */\n      add\n        /* \"#utility.yul\":32256:32282   */\n      swap1\n      pop\n        /* \"#utility.yul\":32328:32337   */\n      dup2\n        /* \"#utility.yul\":32322:32326   */\n      dup2\n        /* \"#utility.yul\":32318:32338   */\n      sub\n        /* \"#utility.yul\":32314:32315   */\n      0x00\n        /* \"#utility.yul\":32303:32312   */\n      dup4\n        /* \"#utility.yul\":32299:32316   */\n      add\n        /* \"#utility.yul\":32292:32339   */\n      mstore\n        /* \"#utility.yul\":32356:32487   */\n      tag_805\n        /* \"#utility.yul\":32482:32486   */\n      dup2\n        /* \"#utility.yul\":32356:32487   */\n      tag_475\n      jump\t// in\n    tag_805:\n        /* \"#utility.yul\":32348:32487   */\n      swap1\n      pop\n        /* \"#utility.yul\":32075:32494   */\n      swap2\n      swap1\n      pop\n      jump\t// out\n        /* \"#utility.yul\":32500:32942   */\n    tag_164:\n        /* \"#utility.yul\":32649:32653   */\n      0x00\n        /* \"#utility.yul\":32687:32689   */\n      0x60\n        /* \"#utility.yul\":32676:32685   */\n      dup3\n        /* \"#utility.yul\":32672:32690   */\n      add\n        /* \"#utility.yul\":32664:32690   */\n      swap1\n      pop\n        /* \"#utility.yul\":32700:32771   */\n      tag_807\n        /* \"#utility.yul\":32768:32769   */\n      0x00\n        /* \"#utility.yul\":32757:32766   */\n      dup4\n        /* \"#utility.yul\":32753:32770   */\n      add\n        /* \"#utility.yul\":32744:32750   */\n      dup7\n        /* \"#utility.yul\":32700:32771   */\n      tag_399\n      jump\t// in\n    tag_807:\n        /* \"#utility.yul\":32781:32853   */\n      tag_808\n        /* \"#utility.yul\":32849:32851   */\n      0x20\n        /* \"#utility.yul\":32838:32847   */\n      dup4\n        /* \"#utility.yul\":32834:32852   */\n      add\n        /* \"#utility.yul\":32825:32831   */\n      dup6\n        /* \"#utility.yul\":32781:32853   */\n      tag_399\n      jump\t// in\n    tag_808:\n        /* \"#utility.yul\":32863:32935   */\n      tag_809\n        /* \"#utility.yul\":32931:32933   */\n      0x40\n        /* \"#utility.yul\":32920:32929   */\n      dup4\n        /* \"#utility.yul\":32916:32934   */\n      add\n        /* \"#utility.yul\":32907:32913   */\n      dup5\n        /* \"#utility.yul\":32863:32935   */\n      tag_421\n      jump\t// in\n    tag_809:\n        /* \"#utility.yul\":32500:32942   */\n      swap5\n      swap4\n      pop\n      pop\n      pop\n      pop\n      jump\t// out\n        /* \"#utility.yul\":32948:33113   */\n    tag_476:\n        /* \"#utility.yul\":33088:33105   */\n      0x5472616e73666572206661696c65640000000000000000000000000000000000\n        /* \"#utility.yul\":33084:33085   */\n      0x00\n        /* \"#utility.yul\":33076:33082   */\n      dup3\n        /* \"#utility.yul\":33072:33086   */\n      add\n        /* \"#utility.yul\":33065:33106   */\n      mstore\n        /* \"#utility.yul\":32948:33113   */\n      pop\n      jump\t// out\n        /* \"#utility.yul\":33119:33485   */\n    tag_477:\n        /* \"#utility.yul\":33261:33264   */\n      0x00\n        /* \"#utility.yul\":33282:33349   */\n      tag_812\n        /* \"#utility.yul\":33346:33348   */\n      0x0f\n        /* \"#utility.yul\":33341:33344   */\n      dup4\n        /* \"#utility.yul\":33282:33349   */\n      tag_407\n      jump\t// in\n    tag_812:\n        /* \"#utility.yul\":33275:33349   */\n      swap2\n      pop\n        /* \"#utility.yul\":33358:33451   */\n      tag_813\n        /* \"#utility.yul\":33447:33450   */\n      dup3\n        /* \"#utility.yul\":33358:33451   */\n      tag_476\n      jump\t// in\n    tag_813:\n        /* \"#utility.yul\":33476:33478   */\n      0x20\n        /* \"#utility.yul\":33471:33474   */\n      dup3\n        /* \"#utility.yul\":33467:33479   */\n      add\n        /* \"#utility.yul\":33460:33479   */\n      swap1\n      pop\n        /* \"#utility.yul\":33119:33485   */\n      swap2\n      swap1\n      pop\n      jump\t// out\n        /* \"#utility.yul\":33491:33910   */\n    tag_170:\n        /* \"#utility.yul\":33657:33661   */\n      0x00\n        /* \"#utility.yul\":33695:33697   */\n      0x20\n        /* \"#utility.yul\":33684:33693   */\n      dup3\n        /* \"#utility.yul\":33680:33698   */\n      add\n        /* \"#utility.yul\":33672:33698   */\n      swap1\n      pop\n        /* \"#utility.yul\":33744:33753   */\n      dup2\n        /* \"#utility.yul\":33738:33742   */\n      dup2\n        /* \"#utility.yul\":33734:33754   */\n      sub\n        /* \"#utility.yul\":33730:33731   */\n      0x00\n        /* \"#utility.yul\":33719:33728   */\n      dup4\n        /* \"#utility.yul\":33715:33732   */\n      add\n        /* \"#utility.yul\":33708:33755   */\n      mstore\n        /* \"#utility.yul\":33772:33903   */\n      tag_815\n        /* \"#utility.yul\":33898:33902   */\n      dup2\n        /* \"#utility.yul\":33772:33903   */\n      tag_477\n      jump\t// in\n    tag_815:\n        /* \"#utility.yul\":33764:33903   */\n      swap1\n      pop\n        /* \"#utility.yul\":33491:33910   */\n      swap2\n      swap1\n      pop\n      jump\t// out\n        /* \"#utility.yul\":33916:34107   */\n    tag_172:\n        /* \"#utility.yul\":33954:33958   */\n      0x00\n        /* \"#utility.yul\":33974:33992   */\n      tag_817\n        /* \"#utility.yul\":33990:33991   */\n      dup3\n        /* \"#utility.yul\":33974:33992   */\n      tag_429\n      jump\t// in\n    tag_817:\n        /* \"#utility.yul\":33969:33992   */\n      swap2\n      pop\n        /* \"#utility.yul\":34006:34024   */\n      tag_818\n        /* \"#utility.yul\":34022:34023   */\n      dup4\n        /* \"#utility.yul\":34006:34024   */\n      tag_429\n      jump\t// in\n    tag_818:\n        /* \"#utility.yul\":34001:34024   */\n      swap3\n      pop\n        /* \"#utility.yul\":34048:34049   */\n      dup3\n        /* \"#utility.yul\":34045:34046   */\n      dup3\n        /* \"#utility.yul\":34041:34050   */\n      sub\n        /* \"#utility.yul\":34033:34050   */\n      swap1\n      pop\n        /* \"#utility.yul\":34072:34076   */\n      0xff\n        /* \"#utility.yul\":34066:34070   */\n      dup2\n        /* \"#utility.yul\":34063:34077   */\n      gt\n        /* \"#utility.yul\":34060:34100   */\n      iszero\n      tag_819\n      jumpi\n        /* \"#utility.yul\":34080:34098   */\n      tag_820\n      tag_459\n      jump\t// in\n    tag_820:\n        /* \"#utility.yul\":34060:34100   */\n    tag_819:\n        /* \"#utility.yul\":33916:34107   */\n      swap3\n      swap2\n      pop\n      pop\n      jump\t// out\n        /* \"#utility.yul\":34113:34437   */\n    tag_180:\n        /* \"#utility.yul\":34230:34234   */\n      0x00\n        /* \"#utility.yul\":34268:34270   */\n      0x40\n        /* \"#utility.yul\":34257:34266   */\n      dup3\n        /* \"#utility.yul\":34253:34271   */\n      add\n        /* \"#utility.yul\":34245:34271   */\n      swap1\n      pop\n        /* \"#utility.yul\":34281:34352   */\n      tag_822\n        /* \"#utility.yul\":34349:34350   */\n      0x00\n        /* \"#utility.yul\":34338:34347   */\n      dup4\n        /* \"#utility.yul\":34334:34351   */\n      add\n        /* \"#utility.yul\":34325:34331   */\n      dup6\n        /* \"#utility.yul\":34281:34352   */\n      tag_421\n      jump\t// in\n    tag_822:\n        /* \"#utility.yul\":34362:34430   */\n      tag_823\n        /* \"#utility.yul\":34426:34428   */\n      0x20\n        /* \"#utility.yul\":34415:34424   */\n      dup4\n        /* \"#utility.yul\":34411:34429   */\n      add\n        /* \"#utility.yul\":34402:34408   */\n      dup5\n        /* \"#utility.yul\":34362:34430   */\n      tag_430\n      jump\t// in\n    tag_823:\n        /* \"#utility.yul\":34113:34437   */\n      swap4\n      swap3\n      pop\n      pop\n      pop\n      jump\t// out\n        /* \"#utility.yul\":34443:34672   */\n    tag_478:\n        /* \"#utility.yul\":34583:34617   */\n      0x4e6f7420617574686f72697a65642c206f6e6c79206f776e65722063616e2063\n        /* \"#utility.yul\":34579:34580   */\n      0x00\n        /* \"#utility.yul\":34571:34577   */\n      dup3\n        /* \"#utility.yul\":34567:34581   */\n      add\n        /* \"#utility.yul\":34560:34618   */\n      mstore\n        /* \"#utility.yul\":34652:34664   */\n      0x7265617465206265747300000000000000000000000000000000000000000000\n        /* \"#utility.yul\":34647:34649   */\n      0x20\n        /* \"#utility.yul\":34639:34645   */\n      dup3\n        /* \"#utility.yul\":34635:34650   */\n      add\n        /* \"#utility.yul\":34628:34665   */\n      mstore\n        /* \"#utility.yul\":34443:34672   */\n      pop\n      jump\t// out\n        /* \"#utility.yul\":34678:35044   */\n    tag_479:\n        /* \"#utility.yul\":34820:34823   */\n      0x00\n        /* \"#utility.yul\":34841:34908   */\n      tag_826\n        /* \"#utility.yul\":34905:34907   */\n      0x2a\n        /* \"#utility.yul\":34900:34903   */\n      dup4\n        /* \"#utility.yul\":34841:34908   */\n      tag_407\n      jump\t// in\n    tag_826:\n        /* \"#utility.yul\":34834:34908   */\n      swap2\n      pop\n        /* \"#utility.yul\":34917:35010   */\n      tag_827\n        /* \"#utility.yul\":35006:35009   */\n      dup3\n        /* \"#utility.yul\":34917:35010   */\n      tag_478\n      jump\t// in\n    tag_827:\n        /* \"#utility.yul\":35035:35037   */\n      0x40\n        /* \"#utility.yul\":35030:35033   */\n      dup3\n        /* \"#utility.yul\":35026:35038   */\n      add\n        /* \"#utility.yul\":35019:35038   */\n      swap1\n      pop\n        /* \"#utility.yul\":34678:35044   */\n      swap2\n      swap1\n      pop\n      jump\t// out\n        /* \"#utility.yul\":35050:35469   */\n    tag_188:\n        /* \"#utility.yul\":35216:35220   */\n      0x00\n        /* \"#utility.yul\":35254:35256   */\n      0x20\n        /* \"#utility.yul\":35243:35252   */\n      dup3\n        /* \"#utility.yul\":35239:35257   */\n      add\n        /* \"#utility.yul\":35231:35257   */\n      swap1\n      pop\n        /* \"#utility.yul\":35303:35312   */\n      dup2\n        /* \"#utility.yul\":35297:35301   */\n      dup2\n        /* \"#utility.yul\":35293:35313   */\n      sub\n        /* \"#utility.yul\":35289:35290   */\n      0x00\n        /* \"#utility.yul\":35278:35287   */\n      dup4\n        /* \"#utility.yul\":35274:35291   */\n      add\n        /* \"#utility.yul\":35267:35314   */\n      mstore\n        /* \"#utility.yul\":35331:35462   */\n      tag_829\n        /* \"#utility.yul\":35457:35461   */\n      dup2\n        /* \"#utility.yul\":35331:35462   */\n      tag_479\n      jump\t// in\n    tag_829:\n        /* \"#utility.yul\":35323:35462   */\n      swap1\n      pop\n        /* \"#utility.yul\":35050:35469   */\n      swap2\n      swap1\n      pop\n      jump\t// out\n        /* \"#utility.yul\":35475:35650   */\n    tag_480:\n        /* \"#utility.yul\":35615:35642   */\n      0x496e76616c6964206e756d626572206f66206f7074696f6e7300000000000000\n        /* \"#utility.yul\":35611:35612   */\n      0x00\n        /* \"#utility.yul\":35603:35609   */\n      dup3\n        /* \"#utility.yul\":35599:35613   */\n      add\n        /* \"#utility.yul\":35592:35643   */\n      mstore\n        /* \"#utility.yul\":35475:35650   */\n      pop\n      jump\t// out\n        /* \"#utility.yul\":35656:36022   */\n    tag_481:\n        /* \"#utility.yul\":35798:35801   */\n      0x00\n        /* \"#utility.yul\":35819:35886   */\n      tag_832\n        /* \"#utility.yul\":35883:35885   */\n      0x19\n        /* \"#utility.yul\":35878:35881   */\n      dup4\n        /* \"#utility.yul\":35819:35886   */\n      tag_407\n      jump\t// in\n    tag_832:\n        /* \"#utility.yul\":35812:35886   */\n      swap2\n      pop\n        /* \"#utility.yul\":35895:35988   */\n      tag_833\n        /* \"#utility.yul\":35984:35987   */\n      dup3\n        /* \"#utility.yul\":35895:35988   */\n      tag_480\n      jump\t// in\n    tag_833:\n        /* \"#utility.yul\":36013:36015   */\n      0x20\n        /* \"#utility.yul\":36008:36011   */\n      dup3\n        /* \"#utility.yul\":36004:36016   */\n      add\n        /* \"#utility.yul\":35997:36016   */\n      swap1\n      pop\n        /* \"#utility.yul\":35656:36022   */\n      swap2\n      swap1\n      pop\n      jump\t// out\n        /* \"#utility.yul\":36028:36447   */\n    tag_193:\n        /* \"#utility.yul\":36194:36198   */\n      0x00\n        /* \"#utility.yul\":36232:36234   */\n      0x20\n        /* \"#utility.yul\":36221:36230   */\n      dup3\n        /* \"#utility.yul\":36217:36235   */\n      add\n        /* \"#utility.yul\":36209:36235   */\n      swap1\n      pop\n        /* \"#utility.yul\":36281:36290   */\n      dup2\n        /* \"#utility.yul\":36275:36279   */\n      dup2\n        /* \"#utility.yul\":36271:36291   */\n      sub\n        /* \"#utility.yul\":36267:36268   */\n      0x00\n        /* \"#utility.yul\":36256:36265   */\n      dup4\n        /* \"#utility.yul\":36252:36269   */\n      add\n        /* \"#utility.yul\":36245:36292   */\n      mstore\n        /* \"#utility.yul\":36309:36440   */\n      tag_835\n        /* \"#utility.yul\":36435:36439   */\n      dup2\n        /* \"#utility.yul\":36309:36440   */\n      tag_481\n      jump\t// in\n    tag_835:\n        /* \"#utility.yul\":36301:36440   */\n      swap1\n      pop\n        /* \"#utility.yul\":36028:36447   */\n      swap2\n      swap1\n      pop\n      jump\t// out\n        /* \"#utility.yul\":36453:36631   */\n    tag_482:\n        /* \"#utility.yul\":36593:36623   */\n      0x4f7074696f6e206e616d6573206c656e677468206d69736d6174636800000000\n        /* \"#utility.yul\":36589:36590   */\n      0x00\n        /* \"#utility.yul\":36581:36587   */\n      dup3\n        /* \"#utility.yul\":36577:36591   */\n      add\n        /* \"#utility.yul\":36570:36624   */\n      mstore\n        /* \"#utility.yul\":36453:36631   */\n      pop\n      jump\t// out\n        /* \"#utility.yul\":36637:37003   */\n    tag_483:\n        /* \"#utility.yul\":36779:36782   */\n      0x00\n        /* \"#utility.yul\":36800:36867   */\n      tag_838\n        /* \"#utility.yul\":36864:36866   */\n      0x1c\n        /* \"#utility.yul\":36859:36862   */\n      dup4\n        /* \"#utility.yul\":36800:36867   */\n      tag_407\n      jump\t// in\n    tag_838:\n        /* \"#utility.yul\":36793:36867   */\n      swap2\n      pop\n        /* \"#utility.yul\":36876:36969   */\n      tag_839\n        /* \"#utility.yul\":36965:36968   */\n      dup3\n        /* \"#utility.yul\":36876:36969   */\n      tag_482\n      jump\t// in\n    tag_839:\n        /* \"#utility.yul\":36994:36996   */\n      0x20\n        /* \"#utility.yul\":36989:36992   */\n      dup3\n        /* \"#utility.yul\":36985:36997   */\n      add\n        /* \"#utility.yul\":36978:36997   */\n      swap1\n      pop\n        /* \"#utility.yul\":36637:37003   */\n      swap2\n      swap1\n      pop\n      jump\t// out\n        /* \"#utility.yul\":37009:37428   */\n    tag_196:\n        /* \"#utility.yul\":37175:37179   */\n      0x00\n        /* \"#utility.yul\":37213:37215   */\n      0x20\n        /* \"#utility.yul\":37202:37211   */\n      dup3\n        /* \"#utility.yul\":37198:37216   */\n      add\n        /* \"#utility.yul\":37190:37216   */\n      swap1\n      pop\n        /* \"#utility.yul\":37262:37271   */\n      dup2\n        /* \"#utility.yul\":37256:37260   */\n      dup2\n        /* \"#utility.yul\":37252:37272   */\n      sub\n        /* \"#utility.yul\":37248:37249   */\n      0x00\n        /* \"#utility.yul\":37237:37246   */\n      dup4\n        /* \"#utility.yul\":37233:37250   */\n      add\n        /* \"#utility.yul\":37226:37273   */\n      mstore\n        /* \"#utility.yul\":37290:37421   */\n      tag_841\n        /* \"#utility.yul\":37416:37420   */\n      dup2\n        /* \"#utility.yul\":37290:37421   */\n      tag_483\n      jump\t// in\n    tag_841:\n        /* \"#utility.yul\":37282:37421   */\n      swap1\n      pop\n        /* \"#utility.yul\":37009:37428   */\n      swap2\n      swap1\n      pop\n      jump\t// out\n        /* \"#utility.yul\":37434:37667   */\n    tag_198:\n        /* \"#utility.yul\":37473:37476   */\n      0x00\n        /* \"#utility.yul\":37496:37520   */\n      tag_843\n        /* \"#utility.yul\":37514:37519   */\n      dup3\n        /* \"#utility.yul\":37496:37520   */\n      tag_403\n      jump\t// in\n    tag_843:\n        /* \"#utility.yul\":37487:37520   */\n      swap2\n      pop\n        /* \"#utility.yul\":37542:37608   */\n      0xffffffffffffffffffffffffffffffffffffffffffffffffffffffffffffffff\n        /* \"#utility.yul\":37535:37540   */\n      dup3\n        /* \"#utility.yul\":37532:37609   */\n      sub\n        /* \"#utility.yul\":37529:37632   */\n      tag_844\n      jumpi\n        /* \"#utility.yul\":37612:37630   */\n      tag_845\n      tag_459\n      jump\t// in\n    tag_845:\n        /* \"#utility.yul\":37529:37632   */\n    tag_844:\n        /* \"#utility.yul\":37659:37660   */\n      0x01\n        /* \"#utility.yul\":37652:37657   */\n      dup3\n        /* \"#utility.yul\":37648:37661   */\n      add\n        /* \"#utility.yul\":37641:37661   */\n      swap1\n      pop\n        /* \"#utility.yul\":37434:37667   */\n      swap2\n      swap1\n      pop\n      jump\t// out\n        /* \"#utility.yul\":37673:37770   */\n    tag_484:\n        /* \"#utility.yul\":37732:37738   */\n      0x00\n        /* \"#utility.yul\":37760:37763   */\n      dup3\n        /* \"#utility.yul\":37750:37763   */\n      swap1\n      pop\n        /* \"#utility.yul\":37673:37770   */\n      swap3\n      swap2\n      pop\n      pop\n      jump\t// out\n        /* \"#utility.yul\":37776:37917   */\n    tag_485:\n        /* \"#utility.yul\":37825:37829   */\n      0x00\n        /* \"#utility.yul\":37848:37851   */\n      dup2\n        /* \"#utility.yul\":37840:37851   */\n      swap1\n      pop\n        /* \"#utility.yul\":37871:37874   */\n      dup2\n        /* \"#utility.yul\":37868:37869   */\n      0x00\n        /* \"#utility.yul\":37861:37875   */\n      mstore\n        /* \"#utility.yul\":37905:37909   */\n      0x20\n        /* \"#utility.yul\":37902:37903   */\n      0x00\n        /* \"#utility.yul\":37892:37910   */\n      keccak256\n        /* \"#utility.yul\":37884:37910   */\n      swap1\n      pop\n        /* \"#utility.yul\":37776:37917   */\n      swap2\n      swap1\n      pop\n      jump\t// out\n        /* \"#utility.yul\":37923:38016   */\n    tag_486:\n        /* \"#utility.yul\":37960:37966   */\n      0x00\n        /* \"#utility.yul\":38007:38009   */\n      0x20\n        /* \"#utility.yul\":38002:38004   */\n      0x1f\n        /* \"#utility.yul\":37995:38000   */\n      dup4\n        /* \"#utility.yul\":37991:38005   */\n      add\n        /* \"#utility.yul\":37987:38010   */\n      div\n        /* \"#utility.yul\":37977:38010   */\n      swap1\n      pop\n        /* \"#utility.yul\":37923:38016   */\n      swap2\n      swap1\n      pop\n      jump\t// out\n        /* \"#utility.yul\":38022:38129   */\n    tag_487:\n        /* \"#utility.yul\":38066:38074   */\n      0x00\n        /* \"#utility.yul\":38116:38121   */\n      dup3\n        /* \"#utility.yul\":38110:38114   */\n      dup3\n        /* \"#utility.yul\":38106:38122   */\n      shl\n        /* \"#utility.yul\":38085:38122   */\n      swap1\n      pop\n        /* \"#utility.yul\":38022:38129   */\n      swap3\n      swap2\n      pop\n      pop\n      jump\t// out\n        /* \"#utility.yul\":38135:38528   */\n    tag_488:\n        /* \"#utility.yul\":38204:38210   */\n      0x00\n        /* \"#utility.yul\":38254:38255   */\n      0x08\n        /* \"#utility.yul\":38242:38252   */\n      dup4\n        /* \"#utility.yul\":38238:38256   */\n      mul\n        /* \"#utility.yul\":38277:38374   */\n      tag_851\n        /* \"#utility.yul\":38307:38373   */\n      0xffffffffffffffffffffffffffffffffffffffffffffffffffffffffffffffff\n        /* \"#utility.yul\":38296:38305   */\n      dup3\n        /* \"#utility.yul\":38277:38374   */\n      tag_487\n      jump\t// in\n    tag_851:\n        /* \"#utility.yul\":38395:38434   */\n      tag_852\n        /* \"#utility.yul\":38425:38433   */\n      dup7\n        /* \"#utility.yul\":38414:38423   */\n      dup4\n        /* \"#utility.yul\":38395:38434   */\n      tag_487\n      jump\t// in\n    tag_852:\n        /* \"#utility.yul\":38383:38434   */\n      swap6\n      pop\n        /* \"#utility.yul\":38467:38471   */\n      dup1\n        /* \"#utility.yul\":38463:38472   */\n      not\n        /* \"#utility.yul\":38456:38461   */\n      dup5\n        /* \"#utility.yul\":38452:38473   */\n      and\n        /* \"#utility.yul\":38443:38473   */\n      swap4\n      pop\n        /* \"#utility.yul\":38516:38520   */\n      dup1\n        /* \"#utility.yul\":38506:38514   */\n      dup7\n        /* \"#utility.yul\":38502:38521   */\n      and\n        /* \"#utility.yul\":38495:38500   */\n      dup5\n        /* \"#utility.yul\":38492:38522   */\n      or\n        /* \"#utility.yul\":38482:38522   */\n      swap3\n      pop\n        /* \"#utility.yul\":38211:38528   */\n      pop\n      pop\n        /* \"#utility.yul\":38135:38528   */\n      swap4\n      swap3\n      pop\n      pop\n      pop\n      jump\t// out\n        /* \"#utility.yul\":38534:38594   */\n    tag_489:\n        /* \"#utility.yul\":38562:38565   */\n      0x00\n        /* \"#utility.yul\":38583:38588   */\n      dup2\n        /* \"#utility.yul\":38576:38588   */\n      swap1\n      pop\n        /* \"#utility.yul\":38534:38594   */\n      swap2\n      swap1\n      pop\n      jump\t// out\n        /* \"#utility.yul\":38600:38742   */\n    tag_490:\n        /* \"#utility.yul\":38650:38659   */\n      0x00\n        /* \"#utility.yul\":38683:38736   */\n      tag_855\n        /* \"#utility.yul\":38701:38735   */\n      tag_856\n        /* \"#utility.yul\":38710:38734   */\n      tag_857\n        /* \"#utility.yul\":38728:38733   */\n      dup5\n        /* \"#utility.yul\":38710:38734   */\n      tag_403\n      jump\t// in\n    tag_857:\n        /* \"#utility.yul\":38701:38735   */\n      tag_489\n      jump\t// in\n    tag_856:\n        /* \"#utility.yul\":38683:38736   */\n      tag_403\n      jump\t// in\n    tag_855:\n        /* \"#utility.yul\":38670:38736   */\n      swap1\n      pop\n        /* \"#utility.yul\":38600:38742   */\n      swap2\n      swap1\n      pop\n      jump\t// out\n        /* \"#utility.yul\":38748:38823   */\n    tag_491:\n        /* \"#utility.yul\":38791:38794   */\n      0x00\n        /* \"#utility.yul\":38812:38817   */\n      dup2\n        /* \"#utility.yul\":38805:38817   */\n      swap1\n      pop\n        /* \"#utility.yul\":38748:38823   */\n      swap2\n      swap1\n      pop\n      jump\t// out\n        /* \"#utility.yul\":38829:39098   */\n    tag_492:\n        /* \"#utility.yul\":38939:38978   */\n      tag_860\n        /* \"#utility.yul\":38970:38977   */\n      dup4\n        /* \"#utility.yul\":38939:38978   */\n      tag_490\n      jump\t// in\n    tag_860:\n        /* \"#utility.yul\":39000:39091   */\n      tag_861\n        /* \"#utility.yul\":39049:39090   */\n      tag_862\n        /* \"#utility.yul\":39073:39089   */\n      dup3\n        /* \"#utility.yul\":39049:39090   */\n      tag_491\n      jump\t// in\n    tag_862:\n        /* \"#utility.yul\":39041:39047   */\n      dup5\n        /* \"#utility.yul\":39034:39038   */\n      dup5\n        /* \"#utility.yul\":39028:39039   */\n      sload\n        /* \"#utility.yul\":39000:39091   */\n      tag_488\n      jump\t// in\n    tag_861:\n        /* \"#utility.yul\":38994:38998   */\n      dup3\n        /* \"#utility.yul\":38987:39092   */\n      sstore\n        /* \"#utility.yul\":38905:39098   */\n      pop\n        /* \"#utility.yul\":38829:39098   */\n      pop\n      pop\n      pop\n      jump\t// out\n        /* \"#utility.yul\":39104:39177   */\n    tag_493:\n        /* \"#utility.yul\":39149:39152   */\n      0x00\n        /* \"#utility.yul\":39104:39177   */\n      swap1\n      jump\t// out\n        /* \"#utility.yul\":39183:39372   */\n    tag_494:\n        /* \"#utility.yul\":39260:39292   */\n      tag_865\n      tag_493\n      jump\t// in\n    tag_865:\n        /* \"#utility.yul\":39301:39366   */\n      tag_866\n        /* \"#utility.yul\":39359:39365   */\n      dup2\n        /* \"#utility.yul\":39351:39357   */\n      dup5\n        /* \"#utility.yul\":39345:39349   */\n      dup5\n        /* \"#utility.yul\":39301:39366   */\n      tag_492\n      jump\t// in\n    tag_866:\n        /* \"#utility.yul\":39236:39372   */\n      pop\n        /* \"#utility.yul\":39183:39372   */\n      pop\n      pop\n      jump\t// out\n        /* \"#utility.yul\":39378:39564   */\n    tag_495:\n        /* \"#utility.yul\":39438:39558   */\n    tag_868:\n        /* \"#utility.yul\":39455:39458   */\n      dup2\n        /* \"#utility.yul\":39448:39453   */\n      dup2\n        /* \"#utility.yul\":39445:39459   */\n      lt\n        /* \"#utility.yul\":39438:39558   */\n      iszero\n      tag_870\n      jumpi\n        /* \"#utility.yul\":39509:39548   */\n      tag_871\n        /* \"#utility.yul\":39546:39547   */\n      0x00\n        /* \"#utility.yul\":39539:39544   */\n      dup3\n        /* \"#utility.yul\":39509:39548   */\n      tag_494\n      jump\t// in\n    tag_871:\n        /* \"#utility.yul\":39482:39483   */\n      0x01\n        /* \"#utility.yul\":39475:39480   */\n      dup2\n        /* \"#utility.yul\":39471:39484   */\n      add\n        /* \"#utility.yul\":39462:39484   */\n      swap1\n      pop\n        /* \"#utility.yul\":39438:39558   */\n      jump(tag_868)\n    tag_870:\n        /* \"#utility.yul\":39378:39564   */\n      pop\n      pop\n      jump\t// out\n        /* \"#utility.yul\":39570:40113   */\n    tag_496:\n        /* \"#utility.yul\":39671:39673   */\n      0x1f\n        /* \"#utility.yul\":39666:39669   */\n      dup3\n        /* \"#utility.yul\":39663:39674   */\n      gt\n        /* \"#utility.yul\":39660:40106   */\n      iszero\n      tag_873\n      jumpi\n        /* \"#utility.yul\":39705:39743   */\n      tag_874\n        /* \"#utility.yul\":39737:39742   */\n      dup2\n        /* \"#utility.yul\":39705:39743   */\n      tag_485\n      jump\t// in\n    tag_874:\n        /* \"#utility.yul\":39789:39818   */\n      tag_875\n        /* \"#utility.yul\":39807:39817   */\n      dup5\n        /* \"#utility.yul\":39789:39818   */\n      tag_486\n      jump\t// in\n    tag_875:\n        /* \"#utility.yul\":39779:39787   */\n      dup2\n        /* \"#utility.yul\":39775:39819   */\n      add\n        /* \"#utility.yul\":39972:39974   */\n      0x20\n        /* \"#utility.yul\":39960:39970   */\n      dup6\n        /* \"#utility.yul\":39957:39975   */\n      lt\n        /* \"#utility.yul\":39954:40003   */\n      iszero\n      tag_876\n      jumpi\n        /* \"#utility.yul\":39993:40001   */\n      dup2\n        /* \"#utility.yul\":39978:40001   */\n      swap1\n      pop\n        /* \"#utility.yul\":39954:40003   */\n    tag_876:\n        /* \"#utility.yul\":40016:40096   */\n      tag_877\n        /* \"#utility.yul\":40072:40094   */\n      tag_878\n        /* \"#utility.yul\":40090:40093   */\n      dup6\n        /* \"#utility.yul\":40072:40094   */\n      tag_486\n      jump\t// in\n    tag_878:\n        /* \"#utility.yul\":40062:40070   */\n      dup4\n        /* \"#utility.yul\":40058:40095   */\n      add\n        /* \"#utility.yul\":40045:40056   */\n      dup3\n        /* \"#utility.yul\":40016:40096   */\n      tag_495\n      jump\t// in\n    tag_877:\n        /* \"#utility.yul\":39675:40106   */\n      pop\n      pop\n        /* \"#utility.yul\":39660:40106   */\n    tag_873:\n        /* \"#utility.yul\":39570:40113   */\n      pop\n      pop\n      pop\n      jump\t// out\n        /* \"#utility.yul\":40119:40236   */\n    tag_497:\n        /* \"#utility.yul\":40173:40181   */\n      0x00\n        /* \"#utility.yul\":40223:40228   */\n      dup3\n        /* \"#utility.yul\":40217:40221   */\n      dup3\n        /* \"#utility.yul\":40213:40229   */\n      shr\n        /* \"#utility.yul\":40192:40229   */\n      swap1\n      pop\n        /* \"#utility.yul\":40119:40236   */\n      swap3\n      swap2\n      pop\n      pop\n      jump\t// out\n        /* \"#utility.yul\":40242:40411   */\n    tag_498:\n        /* \"#utility.yul\":40286:40292   */\n      0x00\n        /* \"#utility.yul\":40319:40370   */\n      tag_881\n        /* \"#utility.yul\":40367:40368   */\n      0x00\n        /* \"#utility.yul\":40363:40369   */\n      not\n        /* \"#utility.yul\":40355:40360   */\n      dup5\n        /* \"#utility.yul\":40352:40353   */\n      0x08\n        /* \"#utility.yul\":40348:40361   */\n      mul\n        /* \"#utility.yul\":40319:40370   */\n      tag_497\n      jump\t// in\n    tag_881:\n        /* \"#utility.yul\":40315:40371   */\n      not\n        /* \"#utility.yul\":40400:40404   */\n      dup1\n        /* \"#utility.yul\":40394:40398   */\n      dup4\n        /* \"#utility.yul\":40390:40405   */\n      and\n        /* \"#utility.yul\":40380:40405   */\n      swap2\n      pop\n        /* \"#utility.yul\":40293:40411   */\n      pop\n        /* \"#utility.yul\":40242:40411   */\n      swap3\n      swap2\n      pop\n      pop\n      jump\t// out\n        /* \"#utility.yul\":40416:40711   */\n    tag_499:\n        /* \"#utility.yul\":40492:40496   */\n      0x00\n        /* \"#utility.yul\":40638:40667   */\n      tag_883\n        /* \"#utility.yul\":40663:40666   */\n      dup4\n        /* \"#utility.yul\":40657:40661   */\n      dup4\n        /* \"#utility.yul\":40638:40667   */\n      tag_498\n      jump\t// in\n    tag_883:\n        /* \"#utility.yul\":40630:40667   */\n      swap2\n      pop\n        /* \"#utility.yul\":40700:40703   */\n      dup3\n        /* \"#utility.yul\":40697:40698   */\n      0x02\n        /* \"#utility.yul\":40693:40704   */\n      mul\n        /* \"#utility.yul\":40687:40691   */\n      dup3\n        /* \"#utility.yul\":40684:40705   */\n      or\n        /* \"#utility.yul\":40676:40705   */\n      swap1\n      pop\n        /* \"#utility.yul\":40416:40711   */\n      swap3\n      swap2\n      pop\n      pop\n      jump\t// out\n        /* \"#utility.yul\":40716:42119   */\n    tag_200:\n        /* \"#utility.yul\":40840:40884   */\n      tag_885\n        /* \"#utility.yul\":40880:40883   */\n      dup4\n        /* \"#utility.yul\":40875:40878   */\n      dup4\n        /* \"#utility.yul\":40840:40884   */\n      tag_484\n      jump\t// in\n    tag_885:\n        /* \"#utility.yul\":40949:40967   */\n      0xffffffffffffffff\n        /* \"#utility.yul\":40941:40947   */\n      dup2\n        /* \"#utility.yul\":40938:40968   */\n      gt\n        /* \"#utility.yul\":40935:40991   */\n      iszero\n      tag_886\n      jumpi\n        /* \"#utility.yul\":40971:40989   */\n      tag_887\n      tag_135\n      jump\t// in\n    tag_887:\n        /* \"#utility.yul\":40935:40991   */\n    tag_886:\n        /* \"#utility.yul\":41015:41053   */\n      tag_888\n        /* \"#utility.yul\":41047:41051   */\n      dup3\n        /* \"#utility.yul\":41041:41052   */\n      sload\n        /* \"#utility.yul\":41015:41053   */\n      tag_120\n      jump\t// in\n    tag_888:\n        /* \"#utility.yul\":41100:41167   */\n      tag_889\n        /* \"#utility.yul\":41160:41166   */\n      dup3\n        /* \"#utility.yul\":41152:41158   */\n      dup3\n        /* \"#utility.yul\":41146:41150   */\n      dup6\n        /* \"#utility.yul\":41100:41167   */\n      tag_496\n      jump\t// in\n    tag_889:\n        /* \"#utility.yul\":41194:41195   */\n      0x00\n        /* \"#utility.yul\":41223:41225   */\n      0x1f\n        /* \"#utility.yul\":41215:41221   */\n      dup4\n        /* \"#utility.yul\":41212:41226   */\n      gt\n        /* \"#utility.yul\":41240:41241   */\n      0x01\n        /* \"#utility.yul\":41235:41867   */\n      dup2\n      eq\n      tag_891\n      jumpi\n        /* \"#utility.yul\":41911:41912   */\n      0x00\n        /* \"#utility.yul\":41928:41934   */\n      dup5\n        /* \"#utility.yul\":41925:42009   */\n      iszero\n      tag_892\n      jumpi\n        /* \"#utility.yul\":41984:41993   */\n      dup3\n        /* \"#utility.yul\":41979:41982   */\n      dup8\n        /* \"#utility.yul\":41975:41994   */\n      add\n        /* \"#utility.yul\":41962:41995   */\n      calldataload\n        /* \"#utility.yul\":41953:41995   */\n      swap1\n      pop\n        /* \"#utility.yul\":41925:42009   */\n    tag_892:\n        /* \"#utility.yul\":42035:42102   */\n      tag_893\n        /* \"#utility.yul\":42095:42101   */\n      dup6\n        /* \"#utility.yul\":42088:42093   */\n      dup3\n        /* \"#utility.yul\":42035:42102   */\n      tag_499\n      jump\t// in\n    tag_893:\n        /* \"#utility.yul\":42029:42033   */\n      dup7\n        /* \"#utility.yul\":42022:42103   */\n      sstore\n        /* \"#utility.yul\":41884:42113   */\n      pop\n        /* \"#utility.yul\":41205:42113   */\n      jump(tag_890)\n        /* \"#utility.yul\":41235:41867   */\n    tag_891:\n        /* \"#utility.yul\":41287:41291   */\n      0x1f\n        /* \"#utility.yul\":41283:41292   */\n      not\n        /* \"#utility.yul\":41275:41281   */\n      dup5\n        /* \"#utility.yul\":41271:41293   */\n      and\n        /* \"#utility.yul\":41321:41358   */\n      tag_894\n        /* \"#utility.yul\":41353:41357   */\n      dup7\n        /* \"#utility.yul\":41321:41358   */\n      tag_485\n      jump\t// in\n    tag_894:\n        /* \"#utility.yul\":41380:41381   */\n      0x00\n        /* \"#utility.yul\":41394:41609   */\n    tag_895:\n        /* \"#utility.yul\":41408:41415   */\n      dup3\n        /* \"#utility.yul\":41405:41406   */\n      dup2\n        /* \"#utility.yul\":41402:41416   */\n      lt\n        /* \"#utility.yul\":41394:41609   */\n      iszero\n      tag_897\n      jumpi\n        /* \"#utility.yul\":41494:41503   */\n      dup5\n        /* \"#utility.yul\":41489:41492   */\n      dup10\n        /* \"#utility.yul\":41485:41504   */\n      add\n        /* \"#utility.yul\":41472:41505   */\n      calldataload\n        /* \"#utility.yul\":41464:41470   */\n      dup3\n        /* \"#utility.yul\":41457:41506   */\n      sstore\n        /* \"#utility.yul\":41545:41546   */\n      0x01\n        /* \"#utility.yul\":41537:41543   */\n      dup3\n        /* \"#utility.yul\":41533:41547   */\n      add\n        /* \"#utility.yul\":41523:41547   */\n      swap2\n      pop\n        /* \"#utility.yul\":41592:41594   */\n      0x20\n        /* \"#utility.yul\":41581:41590   */\n      dup6\n        /* \"#utility.yul\":41577:41595   */\n      add\n        /* \"#utility.yul\":41564:41595   */\n      swap5\n      pop\n        /* \"#utility.yul\":41431:41435   */\n      0x20\n        /* \"#utility.yul\":41428:41429   */\n      dup2\n        /* \"#utility.yul\":41424:41436   */\n      add\n        /* \"#utility.yul\":41419:41436   */\n      swap1\n      pop\n        /* \"#utility.yul\":41394:41609   */\n      jump(tag_895)\n    tag_897:\n        /* \"#utility.yul\":41637:41643   */\n      dup7\n        /* \"#utility.yul\":41628:41635   */\n      dup4\n        /* \"#utility.yul\":41625:41644   */\n      lt\n        /* \"#utility.yul\":41622:41808   */\n      iszero\n      tag_898\n      jumpi\n        /* \"#utility.yul\":41702:41711   */\n      dup5\n        /* \"#utility.yul\":41697:41700   */\n      dup10\n        /* \"#utility.yul\":41693:41712   */\n      add\n        /* \"#utility.yul\":41680:41713   */\n      calldataload\n        /* \"#utility.yul\":41745:41793   */\n      tag_899\n        /* \"#utility.yul\":41787:41791   */\n      0x1f\n        /* \"#utility.yul\":41779:41785   */\n      dup10\n        /* \"#utility.yul\":41775:41792   */\n      and\n        /* \"#utility.yul\":41764:41773   */\n      dup3\n        /* \"#utility.yul\":41745:41793   */\n      tag_498\n      jump\t// in\n    tag_899:\n        /* \"#utility.yul\":41737:41743   */\n      dup4\n        /* \"#utility.yul\":41730:41794   */\n      sstore\n        /* \"#utility.yul\":41645:41808   */\n      pop\n        /* \"#utility.yul\":41622:41808   */\n    tag_898:\n        /* \"#utility.yul\":41854:41855   */\n      0x01\n        /* \"#utility.yul\":41850:41851   */\n      0x02\n        /* \"#utility.yul\":41842:41848   */\n      dup9\n        /* \"#utility.yul\":41838:41852   */\n      mul\n        /* \"#utility.yul\":41834:41856   */\n      add\n        /* \"#utility.yul\":41828:41832   */\n      dup9\n        /* \"#utility.yul\":41821:41857   */\n      sstore\n        /* \"#utility.yul\":41242:41867   */\n      pop\n      pop\n      pop\n        /* \"#utility.yul\":41205:42113   */\n    tag_890:\n      pop\n        /* \"#utility.yul\":40815:42119   */\n      pop\n      pop\n      pop\n        /* \"#utility.yul\":40716:42119   */\n      pop\n      pop\n      pop\n      jump\t// out\n        /* \"#utility.yul\":42125:42242   */\n    tag_500:\n        /* \"#utility.yul\":42234:42235   */\n      0x00\n        /* \"#utility.yul\":42231:42232   */\n      dup1\n        /* \"#utility.yul\":42224:42236   */\n      revert\n        /* \"#utility.yul\":42248:42365   */\n    tag_501:\n        /* \"#utility.yul\":42357:42358   */\n      0x00\n        /* \"#utility.yul\":42354:42355   */\n      dup1\n        /* \"#utility.yul\":42347:42359   */\n      revert\n        /* \"#utility.yul\":42371:42488   */\n    tag_502:\n        /* \"#utility.yul\":42480:42481   */\n      0x00\n        /* \"#utility.yul\":42477:42478   */\n      dup1\n        /* \"#utility.yul\":42470:42482   */\n      revert\n        /* \"#utility.yul\":42494:43219   */\n    tag_212:\n        /* \"#utility.yul\":42572:42576   */\n      0x00\n        /* \"#utility.yul\":42578:42584   */\n      dup1\n        /* \"#utility.yul\":42634:42645   */\n      dup4\n        /* \"#utility.yul\":42621:42646   */\n      calldataload\n        /* \"#utility.yul\":42734:42735   */\n      0x01\n        /* \"#utility.yul\":42728:42732   */\n      0x20\n        /* \"#utility.yul\":42724:42736   */\n      sub\n        /* \"#utility.yul\":42713:42721   */\n      dup5\n        /* \"#utility.yul\":42697:42711   */\n      calldatasize\n        /* \"#utility.yul\":42693:42722   */\n      sub\n        /* \"#utility.yul\":42689:42737   */\n      sub\n        /* \"#utility.yul\":42669:42687   */\n      dup2\n        /* \"#utility.yul\":42665:42738   */\n      slt\n        /* \"#utility.yul\":42655:42823   */\n      tag_904\n      jumpi\n        /* \"#utility.yul\":42742:42821   */\n      tag_905\n      tag_500\n      jump\t// in\n    tag_905:\n        /* \"#utility.yul\":42655:42823   */\n    tag_904:\n        /* \"#utility.yul\":42854:42872   */\n      dup1\n        /* \"#utility.yul\":42844:42852   */\n      dup5\n        /* \"#utility.yul\":42840:42873   */\n      add\n        /* \"#utility.yul\":42832:42873   */\n      swap3\n      pop\n        /* \"#utility.yul\":42906:42910   */\n      dup3\n        /* \"#utility.yul\":42893:42911   */\n      calldataload\n        /* \"#utility.yul\":42883:42911   */\n      swap2\n      pop\n        /* \"#utility.yul\":42934:42952   */\n      0xffffffffffffffff\n        /* \"#utility.yul\":42926:42932   */\n      dup3\n        /* \"#utility.yul\":42923:42953   */\n      gt\n        /* \"#utility.yul\":42920:43037   */\n      iszero\n      tag_906\n      jumpi\n        /* \"#utility.yul\":42956:43035   */\n      tag_907\n      tag_501\n      jump\t// in\n    tag_907:\n        /* \"#utility.yul\":42920:43037   */\n    tag_906:\n        /* \"#utility.yul\":43064:43066   */\n      0x20\n        /* \"#utility.yul\":43058:43062   */\n      dup4\n        /* \"#utility.yul\":43054:43067   */\n      add\n        /* \"#utility.yul\":43046:43067   */\n      swap3\n      pop\n        /* \"#utility.yul\":43121:43125   */\n      0x01\n        /* \"#utility.yul\":43113:43119   */\n      dup3\n        /* \"#utility.yul\":43109:43126   */\n      mul\n        /* \"#utility.yul\":43093:43107   */\n      calldatasize\n        /* \"#utility.yul\":43089:43127   */\n      sub\n        /* \"#utility.yul\":43083:43087   */\n      dup4\n        /* \"#utility.yul\":43079:43128   */\n      sgt\n        /* \"#utility.yul\":43076:43212   */\n      iszero\n      tag_908\n      jumpi\n        /* \"#utility.yul\":43131:43210   */\n      tag_909\n      tag_502\n      jump\t// in\n    tag_909:\n        /* \"#utility.yul\":43076:43212   */\n    tag_908:\n        /* \"#utility.yul\":42585:43219   */\n      pop\n        /* \"#utility.yul\":42494:43219   */\n      swap3\n      pop\n      swap3\n      swap1\n      pop\n      jump\t// out\n        /* \"#utility.yul\":43225:43373   */\n    tag_503:\n        /* \"#utility.yul\":43323:43329   */\n      dup3\n        /* \"#utility.yul\":43318:43321   */\n      dup2\n        /* \"#utility.yul\":43313:43316   */\n      dup4\n        /* \"#utility.yul\":43300:43330   */\n      calldatacopy\n        /* \"#utility.yul\":43364:43365   */\n      0x00\n        /* \"#utility.yul\":43355:43361   */\n      dup4\n        /* \"#utility.yul\":43350:43353   */\n      dup4\n        /* \"#utility.yul\":43346:43362   */\n      add\n        /* \"#utility.yul\":43339:43366   */\n      mstore\n        /* \"#utility.yul\":43225:43373   */\n      pop\n      pop\n      pop\n      jump\t// out\n        /* \"#utility.yul\":43403:43720   */\n    tag_504:\n        /* \"#utility.yul\":43501:43504   */\n      0x00\n        /* \"#utility.yul\":43522:43593   */\n      tag_912\n        /* \"#utility.yul\":43586:43592   */\n      dup4\n        /* \"#utility.yul\":43581:43584   */\n      dup6\n        /* \"#utility.yul\":43522:43593   */\n      tag_407\n      jump\t// in\n    tag_912:\n        /* \"#utility.yul\":43515:43593   */\n      swap4\n      pop\n        /* \"#utility.yul\":43603:43659   */\n      tag_913\n        /* \"#utility.yul\":43652:43658   */\n      dup4\n        /* \"#utility.yul\":43647:43650   */\n      dup6\n        /* \"#utility.yul\":43640:43645   */\n      dup5\n        /* \"#utility.yul\":43603:43659   */\n      tag_503\n      jump\t// in\n    tag_913:\n        /* \"#utility.yul\":43684:43713   */\n      tag_914\n        /* \"#utility.yul\":43706:43712   */\n      dup4\n        /* \"#utility.yul\":43684:43713   */\n      tag_409\n      jump\t// in\n    tag_914:\n        /* \"#utility.yul\":43679:43682   */\n      dup5\n        /* \"#utility.yul\":43675:43714   */\n      add\n        /* \"#utility.yul\":43668:43714   */\n      swap1\n      pop\n        /* \"#utility.yul\":43403:43720   */\n      swap4\n      swap3\n      pop\n      pop\n      pop\n      jump\t// out\n        /* \"#utility.yul\":43726:43840   */\n    tag_505:\n        /* \"#utility.yul\":43807:43811   */\n      0x00\n        /* \"#utility.yul\":43830:43833   */\n      dup2\n        /* \"#utility.yul\":43822:43833   */\n      swap1\n      pop\n        /* \"#utility.yul\":43726:43840   */\n      swap2\n      swap1\n      pop\n      jump\t// out\n        /* \"#utility.yul\":43870:44167   */\n    tag_506:\n        /* \"#utility.yul\":43958:43961   */\n      0x00\n        /* \"#utility.yul\":43979:44040   */\n      tag_917\n        /* \"#utility.yul\":44033:44039   */\n      dup4\n        /* \"#utility.yul\":44028:44031   */\n      dup6\n        /* \"#utility.yul\":43979:44040   */\n      tag_414\n      jump\t// in\n    tag_917:\n        /* \"#utility.yul\":43972:44040   */\n      swap4\n      pop\n        /* \"#utility.yul\":44050:44106   */\n      tag_918\n        /* \"#utility.yul\":44099:44105   */\n      dup4\n        /* \"#utility.yul\":44094:44097   */\n      dup6\n        /* \"#utility.yul\":44087:44092   */\n      dup5\n        /* \"#utility.yul\":44050:44106   */\n      tag_503\n      jump\t// in\n    tag_918:\n        /* \"#utility.yul\":44131:44160   */\n      tag_919\n        /* \"#utility.yul\":44153:44159   */\n      dup4\n        /* \"#utility.yul\":44131:44160   */\n      tag_409\n      jump\t// in\n    tag_919:\n        /* \"#utility.yul\":44126:44129   */\n      dup5\n        /* \"#utility.yul\":44122:44161   */\n      add\n        /* \"#utility.yul\":44115:44161   */\n      swap1\n      pop\n        /* \"#utility.yul\":43870:44167   */\n      swap4\n      swap3\n      pop\n      pop\n      pop\n      jump\t// out\n        /* \"#utility.yul\":44173:44389   */\n    tag_507:\n        /* \"#utility.yul\":44272:44282   */\n      0x00\n        /* \"#utility.yul\":44307:44383   */\n      tag_921\n        /* \"#utility.yul\":44379:44382   */\n      dup5\n        /* \"#utility.yul\":44371:44377   */\n      dup5\n        /* \"#utility.yul\":44363:44369   */\n      dup5\n        /* \"#utility.yul\":44307:44383   */\n      tag_506\n      jump\t// in\n    tag_921:\n        /* \"#utility.yul\":44293:44383   */\n      swap1\n      pop\n        /* \"#utility.yul\":44173:44389   */\n      swap4\n      swap3\n      pop\n      pop\n      pop\n      jump\t// out\n        /* \"#utility.yul\":44395:44512   */\n    tag_508:\n        /* \"#utility.yul\":44504:44505   */\n      0x00\n        /* \"#utility.yul\":44501:44502   */\n      dup1\n        /* \"#utility.yul\":44494:44506   */\n      revert\n        /* \"#utility.yul\":44518:44635   */\n    tag_509:\n        /* \"#utility.yul\":44627:44628   */\n      0x00\n        /* \"#utility.yul\":44624:44625   */\n      dup1\n        /* \"#utility.yul\":44617:44629   */\n      revert\n        /* \"#utility.yul\":44641:44758   */\n    tag_510:\n        /* \"#utility.yul\":44750:44751   */\n      0x00\n        /* \"#utility.yul\":44747:44748   */\n      dup1\n        /* \"#utility.yul\":44740:44752   */\n      revert\n        /* \"#utility.yul\":44764:45476   */\n    tag_511:\n        /* \"#utility.yul\":44829:44834   */\n      0x00\n        /* \"#utility.yul\":44836:44842   */\n      dup1\n        /* \"#utility.yul\":44892:44895   */\n      dup4\n        /* \"#utility.yul\":44879:44896   */\n      calldataload\n        /* \"#utility.yul\":44984:44985   */\n      0x01\n        /* \"#utility.yul\":44978:44982   */\n      0x20\n        /* \"#utility.yul\":44974:44986   */\n      sub\n        /* \"#utility.yul\":44963:44971   */\n      dup5\n        /* \"#utility.yul\":44947:44961   */\n      calldatasize\n        /* \"#utility.yul\":44943:44972   */\n      sub\n        /* \"#utility.yul\":44939:44987   */\n      sub\n        /* \"#utility.yul\":44919:44937   */\n      dup2\n        /* \"#utility.yul\":44915:44988   */\n      slt\n        /* \"#utility.yul\":44905:45073   */\n      tag_926\n      jumpi\n        /* \"#utility.yul\":44992:45071   */\n      tag_927\n      tag_510\n      jump\t// in\n    tag_927:\n        /* \"#utility.yul\":44905:45073   */\n    tag_926:\n        /* \"#utility.yul\":45115:45123   */\n      dup4\n        /* \"#utility.yul\":45095:45113   */\n      dup2\n        /* \"#utility.yul\":45091:45124   */\n      add\n        /* \"#utility.yul\":45082:45124   */\n      swap3\n      pop\n        /* \"#utility.yul\":45157:45162   */\n      dup3\n        /* \"#utility.yul\":45144:45163   */\n      calldataload\n        /* \"#utility.yul\":45134:45163   */\n      swap2\n      pop\n        /* \"#utility.yul\":45192:45196   */\n      0x20\n        /* \"#utility.yul\":45185:45190   */\n      dup4\n        /* \"#utility.yul\":45181:45197   */\n      add\n        /* \"#utility.yul\":45172:45197   */\n      swap3\n      pop\n        /* \"#utility.yul\":45220:45238   */\n      0xffffffffffffffff\n        /* \"#utility.yul\":45212:45218   */\n      dup3\n        /* \"#utility.yul\":45209:45239   */\n      gt\n        /* \"#utility.yul\":45206:45323   */\n      iszero\n      tag_928\n      jumpi\n        /* \"#utility.yul\":45242:45321   */\n      tag_929\n      tag_508\n      jump\t// in\n    tag_929:\n        /* \"#utility.yul\":45206:45323   */\n    tag_928:\n        /* \"#utility.yul\":45378:45382   */\n      0x01\n        /* \"#utility.yul\":45370:45376   */\n      dup3\n        /* \"#utility.yul\":45366:45383   */\n      mul\n        /* \"#utility.yul\":45350:45364   */\n      calldatasize\n        /* \"#utility.yul\":45346:45384   */\n      sub\n        /* \"#utility.yul\":45339:45344   */\n      dup4\n        /* \"#utility.yul\":45335:45385   */\n      sgt\n        /* \"#utility.yul\":45332:45469   */\n      iszero\n      tag_930\n      jumpi\n        /* \"#utility.yul\":45388:45467   */\n      tag_931\n      tag_509\n      jump\t// in\n    tag_931:\n        /* \"#utility.yul\":45332:45469   */\n    tag_930:\n        /* \"#utility.yul\":44843:45476   */\n      pop\n        /* \"#utility.yul\":44764:45476   */\n      swap3\n      pop\n      swap3\n      swap1\n      pop\n      jump\t// out\n        /* \"#utility.yul\":45482:45609   */\n    tag_512:\n        /* \"#utility.yul\":45566:45570   */\n      0x00\n        /* \"#utility.yul\":45598:45602   */\n      0x20\n        /* \"#utility.yul\":45593:45596   */\n      dup3\n        /* \"#utility.yul\":45589:45603   */\n      add\n        /* \"#utility.yul\":45581:45603   */\n      swap1\n      pop\n        /* \"#utility.yul\":45482:45609   */\n      swap2\n      swap1\n      pop\n      jump\t// out\n        /* \"#utility.yul\":45643:46641   */\n    tag_513:\n        /* \"#utility.yul\":45794:45797   */\n      0x00\n        /* \"#utility.yul\":45817:45913   */\n      tag_934\n        /* \"#utility.yul\":45906:45912   */\n      dup4\n        /* \"#utility.yul\":45901:45904   */\n      dup6\n        /* \"#utility.yul\":45817:45913   */\n      tag_412\n      jump\t// in\n    tag_934:\n        /* \"#utility.yul\":45810:45913   */\n      swap4\n      pop\n        /* \"#utility.yul\":45939:45942   */\n      dup4\n        /* \"#utility.yul\":45984:45988   */\n      0x20\n        /* \"#utility.yul\":45976:45982   */\n      dup5\n        /* \"#utility.yul\":45972:45989   */\n      mul\n        /* \"#utility.yul\":45967:45970   */\n      dup6\n        /* \"#utility.yul\":45963:45990   */\n      add\n        /* \"#utility.yul\":46014:46084   */\n      tag_935\n        /* \"#utility.yul\":46078:46083   */\n      dup5\n        /* \"#utility.yul\":46014:46084   */\n      tag_505\n      jump\t// in\n    tag_935:\n        /* \"#utility.yul\":46107:46114   */\n      dup1\n        /* \"#utility.yul\":46138:46139   */\n      0x00\n        /* \"#utility.yul\":46123:46596   */\n    tag_936:\n        /* \"#utility.yul\":46148:46154   */\n      dup8\n        /* \"#utility.yul\":46145:46146   */\n      dup2\n        /* \"#utility.yul\":46142:46155   */\n      lt\n        /* \"#utility.yul\":46123:46596   */\n      iszero\n      tag_938\n      jumpi\n        /* \"#utility.yul\":46219:46228   */\n      dup5\n        /* \"#utility.yul\":46213:46217   */\n      dup5\n        /* \"#utility.yul\":46209:46229   */\n      sub\n        /* \"#utility.yul\":46204:46207   */\n      dup10\n        /* \"#utility.yul\":46197:46230   */\n      mstore\n        /* \"#utility.yul\":46279:46333   */\n      tag_939\n        /* \"#utility.yul\":46326:46332   */\n      dup3\n        /* \"#utility.yul\":46317:46324   */\n      dup5\n        /* \"#utility.yul\":46279:46333   */\n      tag_511\n      jump\t// in\n    tag_939:\n        /* \"#utility.yul\":46354:46455   */\n      tag_940\n        /* \"#utility.yul\":46450:46454   */\n      dup7\n        /* \"#utility.yul\":46435:46448   */\n      dup3\n        /* \"#utility.yul\":46420:46433   */\n      dup5\n        /* \"#utility.yul\":46354:46455   */\n      tag_507\n      jump\t// in\n    tag_940:\n        /* \"#utility.yul\":46346:46455   */\n      swap6\n      pop\n        /* \"#utility.yul\":46478:46552   */\n      tag_941\n        /* \"#utility.yul\":46545:46551   */\n      dup5\n        /* \"#utility.yul\":46478:46552   */\n      tag_512\n      jump\t// in\n    tag_941:\n        /* \"#utility.yul\":46468:46552   */\n      swap4\n      pop\n        /* \"#utility.yul\":46581:46585   */\n      0x20\n        /* \"#utility.yul\":46576:46579   */\n      dup12\n        /* \"#utility.yul\":46572:46586   */\n      add\n        /* \"#utility.yul\":46565:46586   */\n      swap11\n      pop\n        /* \"#utility.yul\":46183:46596   */\n      pop\n      pop\n        /* \"#utility.yul\":46170:46171   */\n      0x01\n        /* \"#utility.yul\":46167:46168   */\n      dup2\n        /* \"#utility.yul\":46163:46172   */\n      add\n        /* \"#utility.yul\":46158:46172   */\n      swap1\n      pop\n        /* \"#utility.yul\":46123:46596   */\n      jump(tag_936)\n    tag_938:\n        /* \"#utility.yul\":46127:46141   */\n      pop\n        /* \"#utility.yul\":46612:46616   */\n      dup3\n        /* \"#utility.yul\":46605:46616   */\n      swap8\n      pop\n        /* \"#utility.yul\":46632:46635   */\n      dup8\n        /* \"#utility.yul\":46625:46635   */\n      swap5\n      pop\n        /* \"#utility.yul\":45799:46641   */\n      pop\n      pop\n      pop\n      pop\n        /* \"#utility.yul\":45643:46641   */\n      swap4\n      swap3\n      pop\n      pop\n      pop\n      jump\t// out\n        /* \"#utility.yul\":46647:47526   */\n    tag_216:\n        /* \"#utility.yul\":46936:46940   */\n      0x00\n        /* \"#utility.yul\":46974:46977   */\n      0x80\n        /* \"#utility.yul\":46963:46972   */\n      dup3\n        /* \"#utility.yul\":46959:46978   */\n      add\n        /* \"#utility.yul\":46951:46978   */\n      swap1\n      pop\n        /* \"#utility.yul\":46988:47059   */\n      tag_943\n        /* \"#utility.yul\":47056:47057   */\n      0x00\n        /* \"#utility.yul\":47045:47054   */\n      dup4\n        /* \"#utility.yul\":47041:47058   */\n      add\n        /* \"#utility.yul\":47032:47038   */\n      dup10\n        /* \"#utility.yul\":46988:47059   */\n      tag_399\n      jump\t// in\n    tag_943:\n        /* \"#utility.yul\":47106:47115   */\n      dup2\n        /* \"#utility.yul\":47100:47104   */\n      dup2\n        /* \"#utility.yul\":47096:47116   */\n      sub\n        /* \"#utility.yul\":47091:47093   */\n      0x20\n        /* \"#utility.yul\":47080:47089   */\n      dup4\n        /* \"#utility.yul\":47076:47094   */\n      add\n        /* \"#utility.yul\":47069:47117   */\n      mstore\n        /* \"#utility.yul\":47134:47222   */\n      tag_944\n        /* \"#utility.yul\":47217:47221   */\n      dup2\n        /* \"#utility.yul\":47208:47214   */\n      dup8\n        /* \"#utility.yul\":47200:47206   */\n      dup10\n        /* \"#utility.yul\":47134:47222   */\n      tag_504\n      jump\t// in\n    tag_944:\n        /* \"#utility.yul\":47126:47222   */\n      swap1\n      pop\n        /* \"#utility.yul\":47269:47278   */\n      dup2\n        /* \"#utility.yul\":47263:47267   */\n      dup2\n        /* \"#utility.yul\":47259:47279   */\n      sub\n        /* \"#utility.yul\":47254:47256   */\n      0x40\n        /* \"#utility.yul\":47243:47252   */\n      dup4\n        /* \"#utility.yul\":47239:47257   */\n      add\n        /* \"#utility.yul\":47232:47280   */\n      mstore\n        /* \"#utility.yul\":47297:47437   */\n      tag_945\n        /* \"#utility.yul\":47432:47436   */\n      dup2\n        /* \"#utility.yul\":47423:47429   */\n      dup6\n        /* \"#utility.yul\":47415:47421   */\n      dup8\n        /* \"#utility.yul\":47297:47437   */\n      tag_513\n      jump\t// in\n    tag_945:\n        /* \"#utility.yul\":47289:47437   */\n      swap1\n      pop\n        /* \"#utility.yul\":47447:47519   */\n      tag_946\n        /* \"#utility.yul\":47515:47517   */\n      0x60\n        /* \"#utility.yul\":47504:47513   */\n      dup4\n        /* \"#utility.yul\":47500:47518   */\n      add\n        /* \"#utility.yul\":47491:47497   */\n      dup5\n        /* \"#utility.yul\":47447:47519   */\n      tag_421\n      jump\t// in\n    tag_946:\n        /* \"#utility.yul\":46647:47526   */\n      swap8\n      swap7\n      pop\n      pop\n      pop\n      pop\n      pop\n      pop\n      pop\n      jump\t// out\n        /* \"#utility.yul\":47532:47704   */\n    tag_514:\n        /* \"#utility.yul\":47672:47696   */\n      0x496e76616c69642077696e6e696e67206f7074696f6e00000000000000000000\n        /* \"#utility.yul\":47668:47669   */\n      0x00\n        /* \"#utility.yul\":47660:47666   */\n      dup3\n        /* \"#utility.yul\":47656:47670   */\n      add\n        /* \"#utility.yul\":47649:47697   */\n      mstore\n        /* \"#utility.yul\":47532:47704   */\n      pop\n      jump\t// out\n        /* \"#utility.yul\":47710:48076   */\n    tag_515:\n        /* \"#utility.yul\":47852:47855   */\n      0x00\n        /* \"#utility.yul\":47873:47940   */\n      tag_949\n        /* \"#utility.yul\":47937:47939   */\n      0x16\n        /* \"#utility.yul\":47932:47935   */\n      dup4\n        /* \"#utility.yul\":47873:47940   */\n      tag_407\n      jump\t// in\n    tag_949:\n        /* \"#utility.yul\":47866:47940   */\n      swap2\n      pop\n        /* \"#utility.yul\":47949:48042   */\n      tag_950\n        /* \"#utility.yul\":48038:48041   */\n      dup3\n        /* \"#utility.yul\":47949:48042   */\n      tag_514\n      jump\t// in\n    tag_950:\n        /* \"#utility.yul\":48067:48069   */\n      0x20\n        /* \"#utility.yul\":48062:48065   */\n      dup3\n        /* \"#utility.yul\":48058:48070   */\n      add\n        /* \"#utility.yul\":48051:48070   */\n      swap1\n      pop\n        /* \"#utility.yul\":47710:48076   */\n      swap2\n      swap1\n      pop\n      jump\t// out\n        /* \"#utility.yul\":48082:48501   */\n    tag_275:\n        /* \"#utility.yul\":48248:48252   */\n      0x00\n        /* \"#utility.yul\":48286:48288   */\n      0x20\n        /* \"#utility.yul\":48275:48284   */\n      dup3\n        /* \"#utility.yul\":48271:48289   */\n      add\n        /* \"#utility.yul\":48263:48289   */\n      swap1\n      pop\n        /* \"#utility.yul\":48335:48344   */\n      dup2\n        /* \"#utility.yul\":48329:48333   */\n      dup2\n        /* \"#utility.yul\":48325:48345   */\n      sub\n        /* \"#utility.yul\":48321:48322   */\n      0x00\n        /* \"#utility.yul\":48310:48319   */\n      dup4\n        /* \"#utility.yul\":48306:48323   */\n      add\n        /* \"#utility.yul\":48299:48346   */\n      mstore\n        /* \"#utility.yul\":48363:48494   */\n      tag_952\n        /* \"#utility.yul\":48489:48493   */\n      dup2\n        /* \"#utility.yul\":48363:48494   */\n      tag_515\n      jump\t// in\n    tag_952:\n        /* \"#utility.yul\":48355:48494   */\n      swap1\n      pop\n        /* \"#utility.yul\":48082:48501   */\n      swap2\n      swap1\n      pop\n      jump\t// out\n        /* \"#utility.yul\":48507:48733   */\n    tag_516:\n        /* \"#utility.yul\":48647:48681   */\n      0x42657474696e67206d75737420626520636c6f73656420616e64206e6f742072\n        /* \"#utility.yul\":48643:48644   */\n      0x00\n        /* \"#utility.yul\":48635:48641   */\n      dup3\n        /* \"#utility.yul\":48631:48645   */\n      add\n        /* \"#utility.yul\":48624:48682   */\n      mstore\n        /* \"#utility.yul\":48716:48725   */\n      0x65736f6c76656400000000000000000000000000000000000000000000000000\n        /* \"#utility.yul\":48711:48713   */\n      0x20\n        /* \"#utility.yul\":48703:48709   */\n      dup3\n        /* \"#utility.yul\":48699:48714   */\n      add\n        /* \"#utility.yul\":48692:48726   */\n      mstore\n        /* \"#utility.yul\":48507:48733   */\n      pop\n      jump\t// out\n        /* \"#utility.yul\":48739:49105   */\n    tag_517:\n        /* \"#utility.yul\":48881:48884   */\n      0x00\n        /* \"#utility.yul\":48902:48969   */\n      tag_955\n        /* \"#utility.yul\":48966:48968   */\n      0x27\n        /* \"#utility.yul\":48961:48964   */\n      dup4\n        /* \"#utility.yul\":48902:48969   */\n      tag_407\n      jump\t// in\n    tag_955:\n        /* \"#utility.yul\":48895:48969   */\n      swap2\n      pop\n        /* \"#utility.yul\":48978:49071   */\n      tag_956\n        /* \"#utility.yul\":49067:49070   */\n      dup3\n        /* \"#utility.yul\":48978:49071   */\n      tag_516\n      jump\t// in\n    tag_956:\n        /* \"#utility.yul\":49096:49098   */\n      0x40\n        /* \"#utility.yul\":49091:49094   */\n      dup3\n        /* \"#utility.yul\":49087:49099   */\n      add\n        /* \"#utility.yul\":49080:49099   */\n      swap1\n      pop\n        /* \"#utility.yul\":48739:49105   */\n      swap2\n      swap1\n      pop\n      jump\t// out\n        /* \"#utility.yul\":49111:49530   */\n    tag_279:\n        /* \"#utility.yul\":49277:49281   */\n      0x00\n        /* \"#utility.yul\":49315:49317   */\n      0x20\n        /* \"#utility.yul\":49304:49313   */\n      dup3\n        /* \"#utility.yul\":49300:49318   */\n      add\n        /* \"#utility.yul\":49292:49318   */\n      swap1\n      pop\n        /* \"#utility.yul\":49364:49373   */\n      dup2\n        /* \"#utility.yul\":49358:49362   */\n      dup2\n        /* \"#utility.yul\":49354:49374   */\n      sub\n        /* \"#utility.yul\":49350:49351   */\n      0x00\n        /* \"#utility.yul\":49339:49348   */\n      dup4\n        /* \"#utility.yul\":49335:49352   */\n      add\n        /* \"#utility.yul\":49328:49375   */\n      mstore\n        /* \"#utility.yul\":49392:49523   */\n      tag_958\n        /* \"#utility.yul\":49518:49522   */\n      dup2\n        /* \"#utility.yul\":49392:49523   */\n      tag_517\n      jump\t// in\n    tag_958:\n        /* \"#utility.yul\":49384:49523   */\n      swap1\n      pop\n        /* \"#utility.yul\":49111:49530   */\n      swap2\n      swap1\n      pop\n      jump\t// out\n        /* \"#utility.yul\":49536:49708   */\n    tag_518:\n        /* \"#utility.yul\":49676:49700   */\n      0x57696e6e6572207472616e73666572206661696c656400000000000000000000\n        /* \"#utility.yul\":49672:49673   */\n      0x00\n        /* \"#utility.yul\":49664:49670   */\n      dup3\n        /* \"#utility.yul\":49660:49674   */\n      add\n        /* \"#utility.yul\":49653:49701   */\n      mstore\n        /* \"#utility.yul\":49536:49708   */\n      pop\n      jump\t// out\n        /* \"#utility.yul\":49714:50080   */\n    tag_519:\n        /* \"#utility.yul\":49856:49859   */\n      0x00\n        /* \"#utility.yul\":49877:49944   */\n      tag_961\n        /* \"#utility.yul\":49941:49943   */\n      0x16\n        /* \"#utility.yul\":49936:49939   */\n      dup4\n        /* \"#utility.yul\":49877:49944   */\n      tag_407\n      jump\t// in\n    tag_961:\n        /* \"#utility.yul\":49870:49944   */\n      swap2\n      pop\n        /* \"#utility.yul\":49953:50046   */\n      tag_962\n        /* \"#utility.yul\":50042:50045   */\n      dup3\n        /* \"#utility.yul\":49953:50046   */\n      tag_518\n      jump\t// in\n    tag_962:\n        /* \"#utility.yul\":50071:50073   */\n      0x20\n        /* \"#utility.yul\":50066:50069   */\n      dup3\n        /* \"#utility.yul\":50062:50074   */\n      add\n        /* \"#utility.yul\":50055:50074   */\n      swap1\n      pop\n        /* \"#utility.yul\":49714:50080   */\n      swap2\n      swap1\n      pop\n      jump\t// out\n        /* \"#utility.yul\":50086:50505   */\n    tag_331:\n        /* \"#utility.yul\":50252:50256   */\n      0x00\n        /* \"#utility.yul\":50290:50292   */\n      0x20\n        /* \"#utility.yul\":50279:50288   */\n      dup3\n        /* \"#utility.yul\":50275:50293   */\n      add\n        /* \"#utility.yul\":50267:50293   */\n      swap1\n      pop\n        /* \"#utility.yul\":50339:50348   */\n      dup2\n        /* \"#utility.yul\":50333:50337   */\n      dup2\n        /* \"#utility.yul\":50329:50349   */\n      sub\n        /* \"#utility.yul\":50325:50326   */\n      0x00\n        /* \"#utility.yul\":50314:50323   */\n      dup4\n        /* \"#utility.yul\":50310:50327   */\n      add\n        /* \"#utility.yul\":50303:50350   */\n      mstore\n        /* \"#utility.yul\":50367:50498   */\n      tag_964\n        /* \"#utility.yul\":50493:50497   */\n      dup2\n        /* \"#utility.yul\":50367:50498   */\n      tag_519\n      jump\t// in\n    tag_964:\n        /* \"#utility.yul\":50359:50498   */\n      swap1\n      pop\n        /* \"#utility.yul\":50086:50505   */\n      swap2\n      swap1\n      pop\n      jump\t// out\n        /* \"#utility.yul\":50511:50725   */\n    tag_334:\n        /* \"#utility.yul\":50600:50604   */\n      0x00\n        /* \"#utility.yul\":50638:50640   */\n      0x20\n        /* \"#utility.yul\":50627:50636   */\n      dup3\n        /* \"#utility.yul\":50623:50641   */\n      add\n        /* \"#utility.yul\":50615:50641   */\n      swap1\n      pop\n        /* \"#utility.yul\":50651:50718   */\n      tag_966\n        /* \"#utility.yul\":50715:50716   */\n      0x00\n        /* \"#utility.yul\":50704:50713   */\n      dup4\n        /* \"#utility.yul\":50700:50717   */\n      add\n        /* \"#utility.yul\":50691:50697   */\n      dup5\n        /* \"#utility.yul\":50651:50718   */\n      tag_430\n      jump\t// in\n    tag_966:\n        /* \"#utility.yul\":50511:50725   */\n      swap3\n      swap2\n      pop\n      pop\n      jump\t// out\n\n    auxdata: 0xa2646970667358221220d83eaaba285f9c0a75b1e72fe98a6a0849f786eded79b0c3dabf91ce3056066764736f6c634300081a0033\n}\n",
				"bytecode": {
					"linkReferences": {},
					"object": "6080604052600180553480156012575f80fd5b50335f806101000a81548173ffffffffffffffffffffffffffffffffffffffff021916908373ffffffffffffffffffffffffffffffffffffffff160217905550613abc8061005f5f395ff3fe608060405234801561000f575f80fd5b506004361061009c575f3560e01c8063b4ad06a111610064578063b4ad06a11461014c578063b9916adf14610168578063d65edb4d14610184578063f1368748146101a6578063f41408b5146101c25761009c565b80631cfec6e0146100a0578063357401f5146100be57806379141f80146100da5780638da5cb5b146101125780639e14427e14610130575b5f80fd5b6100a86101f5565b6040516100b59190612342565b60405180910390f35b6100d860048036038101906100d39190612396565b61020d565b005b6100f460048036038101906100ef9190612396565b61077a565b6040516101099998979695949392919061262f565b60405180910390f35b61011a610a74565b6040516101279190612342565b60405180910390f35b61014a600480360381019061014591906126f9565b610a97565b005b61016660048036038101906101619190612396565b610e51565b005b610182600480360381019061017d91906127ff565b610f55565b005b61018c61124a565b60405161019d959493929190612a97565b60405180910390f35b6101c060048036038101906101bb9190612b0b565b6116de565b005b6101dc60048036038101906101d79190612b73565b611da0565b6040516101ec9493929190612b9e565b60405180910390f35b73010700808d59d2bb92257fcafacfe8e5bff7ab8781565b8060025f8281526020019081526020015f206007015f9054906101000a900473ffffffffffffffffffffffffffffffffffffffff1673ffffffffffffffffffffffffffffffffffffffff163373ffffffffffffffffffffffffffffffffffffffff16146102af576040517f08c379a00000000000000000000000000000000000000000000000000000000081526004016102a690612c47565b60405180910390fd5b5f60025f8481526020019081526020015f2090508060070160159054906101000a900460ff1615610315576040517f08c379a000000000000000000000000000000000000000000000000000000000815260040161030c90612caf565b60405180910390fd5b60018160070160176101000a81548160ff0219169083151502179055505f73010700808d59d2bb92257fcafacfe8e5bff7ab8790505f805b83600301805490508160ff1610156103a157836003018160ff168154811061037857610377612ccd565b5b905f5260205f2001548261038c9190612d27565b9150808061039990612d5a565b91505061034d565b505f6064826103b09190612daf565b90505f8190505f8183856103c49190612ddf565b6103ce9190612ddf565b90508473ffffffffffffffffffffffffffffffffffffffff1663a9059cbb739b63fa365019dd7bdf8cbed2823480f808391970856040518363ffffffff1660e01b815260040161041f929190612e12565b6020604051808303815f875af115801561043b573d5f803e3d5ffd5b505050506040513d601f19601f8201168201806040525081019061045f9190612e63565b61049e576040517f08c379a000000000000000000000000000000000000000000000000000000000815260040161049590612ed8565b60405180910390fd5b8473ffffffffffffffffffffffffffffffffffffffff1663a9059cbb876007015f9054906101000a900473ffffffffffffffffffffffffffffffffffffffff16846040518363ffffffff1660e01b81526004016104fc929190612e12565b6020604051808303815f875af1158015610518573d5f803e3d5ffd5b505050506040513d601f19601f8201168201806040525081019061053c9190612e63565b61057b576040517f08c379a000000000000000000000000000000000000000000000000000000000815260040161057290612f40565b60405180910390fd5b5f5b8660060180549050811015610742575f8760060182815481106105a3576105a2612ccd565b5b905f5260205f20015f9054906101000a900473ffffffffffffffffffffffffffffffffffffffff1690505f886005015f8373ffffffffffffffffffffffffffffffffffffffff1673ffffffffffffffffffffffffffffffffffffffff1681526020019081526020015f2090505f5b81805490508160ff161015610732575f828260ff168154811061063757610636612ccd565b5b905f5260205f2090600202016001015490505f8987836106579190612f5e565b6106619190612daf565b90508a73ffffffffffffffffffffffffffffffffffffffff1663a9059cbb86836040518363ffffffff1660e01b815260040161069e929190612e12565b6020604051808303815f875af11580156106ba573d5f803e3d5ffd5b505050506040513d601f19601f820116820180604052508101906106de9190612e63565b61071d576040517f08c379a000000000000000000000000000000000000000000000000000000000815260040161071490612fe9565b60405180910390fd5b5050808061072a90612d5a565b915050610611565b505050808060010191505061057d565b50877fe3906e8d1e2167ef706b023e6e83af697db5cd38f233c71bf5021b26b316c3a260405160405180910390a25050505050505050565b5f6060805f805f60605f805f60025f8c81526020019081526020015f209050806007015f9054906101000a900473ffffffffffffffffffffffffffffffffffffffff1699508060010180546107ce90613034565b80601f01602080910402602001604051908101604052809291908181526020018280546107fa90613034565b80156108455780601f1061081c57610100808354040283529160200191610845565b820191905f5260205f20905b81548152906001019060200180831161082857829003601f168201915b5050505050985080600201805480602002602001604051908101604052809291908181526020015f905b82821015610917578382905f5260205f2001805461088c90613034565b80601f01602080910402602001604051908101604052809291908181526020018280546108b890613034565b80156109035780601f106108da57610100808354040283529160200191610903565b820191905f5260205f20905b8154815290600101906020018083116108e657829003601f168201915b50505050508152602001906001019061086f565b5050505097508060070160149054906101000a900460ff1696508060070160159054906101000a900460ff169550806003018054905067ffffffffffffffff81111561096657610965613064565b5b6040519080825280602002602001820160405280156109945781602001602082028036833780820191505090505b5093505f94505f5b81600301805490508160ff161015610a3457816003018160ff16815481106109c7576109c6612ccd565b5b905f5260205f200154858260ff16815181106109e6576109e5612ccd565b5b602002602001018181525050816003018160ff1681548110610a0b57610a0a612ccd565b5b905f5260205f20015486610a1f9190612d27565b95508080610a2c90612d5a565b91505061099c565b508060070160159054906101000a900460ff16610a51575f610a64565b8060070160169054906101000a900460ff165b9250509193959799909294969850565b5f8054906101000a900473ffffffffffffffffffffffffffffffffffffffff1681565b5f60025f8581526020019081526020015f2090508060070160149054906101000a900460ff16610afc576040517f08c379a0000000000000000000000000000000000000000000000000000000008152600401610af3906130db565b60405180910390fd5b8060040154831015610b43576040517f08c379a0000000000000000000000000000000000000000000000000000000008152600401610b3a90613143565b60405180910390fd5b60018260ff1610158015610b61575080600201805490508260ff1611155b610ba0576040517f08c379a0000000000000000000000000000000000000000000000000000000008152600401610b97906131ab565b60405180910390fd5b5f73010700808d59d2bb92257fcafacfe8e5bff7ab8790508073ffffffffffffffffffffffffffffffffffffffff166323b872dd3330876040518463ffffffff1660e01b8152600401610bf5939291906131c9565b6020604051808303815f875af1158015610c11573d5f803e3d5ffd5b505050506040513d601f19601f82011682018060405250810190610c359190612e63565b610c74576040517f08c379a0000000000000000000000000000000000000000000000000000000008152600401610c6b90613248565b60405180910390fd5b8382600301600185610c869190613266565b60ff1681548110610c9a57610c99612ccd565b5b905f5260205f20015f828254610cb09190612d27565b92505081905550816005015f3373ffffffffffffffffffffffffffffffffffffffff1673ffffffffffffffffffffffffffffffffffffffff1681526020019081526020015f2060405180604001604052803373ffffffffffffffffffffffffffffffffffffffff16815260200186815250908060018154018082558091505060019003905f5260205f2090600202015f909190919091505f820151815f015f6101000a81548173ffffffffffffffffffffffffffffffffffffffff021916908373ffffffffffffffffffffffffffffffffffffffff1602179055506020820151816001015550508160060133908060018154018082558091505060019003905f5260205f20015f9091909190916101000a81548173ffffffffffffffffffffffffffffffffffffffff021916908373ffffffffffffffffffffffffffffffffffffffff1602179055503373ffffffffffffffffffffffffffffffffffffffff16857fe90186097616cbeb30ffc786b44501e1362f5e0a316a96c5ab82a0551f9d2f058686604051610e4292919061329a565b60405180910390a35050505050565b8060025f8281526020019081526020015f206007015f9054906101000a900473ffffffffffffffffffffffffffffffffffffffff1673ffffffffffffffffffffffffffffffffffffffff163373ffffffffffffffffffffffffffffffffffffffff1614610ef3576040517f08c379a0000000000000000000000000000000000000000000000000000000008152600401610eea90612c47565b60405180910390fd5b5f60025f8481526020019081526020015f2090505f8160070160146101000a81548160ff021916908315150217905550827feb7ecc3aa4dd407c7207677a2cbf861441d5c5e6c0dc70ad9692a980385c20d660405160405180910390a2505050565b5f8054906101000a900473ffffffffffffffffffffffffffffffffffffffff1673ffffffffffffffffffffffffffffffffffffffff163373ffffffffffffffffffffffffffffffffffffffff1614610fe2576040517f08c379a0000000000000000000000000000000000000000000000000000000008152600401610fd990613331565b60405180910390fd5b60028460ff1610158015610ffa575060058460ff1611155b611039576040517f08c379a000000000000000000000000000000000000000000000000000000000815260040161103090613399565b60405180910390fd5b8360ff168383905014611081576040517f08c379a000000000000000000000000000000000000000000000000000000000815260040161107890613401565b60405180910390fd5b5f600154905060015f8154809291906110999061341f565b91905055505f60025f8381526020019081526020015f20905081815f018190555087878260010191826110cd92919061360d565b5082816004018190555033816007015f6101000a81548173ffffffffffffffffffffffffffffffffffffffff021916908373ffffffffffffffffffffffffffffffffffffffff1602179055508560ff1667ffffffffffffffff81111561113657611135613064565b5b6040519080825280602002602001820160405280156111645781602001602082028036833780820191505090505b5081600301908051906020019061117c92919061229d565b505f5b8660ff168160ff1610156111fd578160020186868360ff168181106111a7576111a6612ccd565b5b90506020028101906111b991906136e6565b90918060018154018082558091505060019003905f5260205f20015f9091929091929091929091925091826111ef92919061360d565b50808060010191505061117f565b50817f97af99d2c63f75ad7bd47985b34d10e40f7d6fe118ce9f3b2be759a8e1d65e45338a8a898989604051611238969594939291906138ba565b60405180910390a25050505050505050565b60608060608060605f80600190505b6001548110156112ab575f60025f8381526020019081526020015f2090508060070160149054906101000a900460ff161561129d5782806112999061341f565b9350505b508080600101915050611259565b508067ffffffffffffffff8111156112c6576112c5613064565b5b6040519080825280602002602001820160405280156112f45781602001602082028036833780820191505090505b5095508067ffffffffffffffff81111561131157611310613064565b5b60405190808252806020026020018201604052801561134457816020015b606081526020019060019003908161132f5790505b5094508067ffffffffffffffff81111561136157611360613064565b5b60405190808252806020026020018201604052801561139457816020015b606081526020019060019003908161137f5790505b5093508067ffffffffffffffff8111156113b1576113b0613064565b5b6040519080825280602002602001820160405280156113df5781602001602082028036833780820191505090505b5092508067ffffffffffffffff8111156113fc576113fb613064565b5b60405190808252806020026020018201604052801561142a5781602001602082028036833780820191505090505b5091505f80600190505b6001548110156116d4575f60025f8381526020019081526020015f2090508060070160149054906101000a900460ff16156116c657805f01548984815181106114805761147f612ccd565b5b60200260200101818152505080600101805461149b90613034565b80601f01602080910402602001604051908101604052809291908181526020018280546114c790613034565b80156115125780601f106114e957610100808354040283529160200191611512565b820191905f5260205f20905b8154815290600101906020018083116114f557829003601f168201915b505050505088848151811061152a57611529612ccd565b5b602002602001018190525080600201805480602002602001604051908101604052809291908181526020015f905b82821015611600578382905f5260205f2001805461157590613034565b80601f01602080910402602001604051908101604052809291908181526020018280546115a190613034565b80156115ec5780601f106115c3576101008083540402835291602001916115ec565b820191905f5260205f20905b8154815290600101906020018083116115cf57829003601f168201915b505050505081526020019060010190611558565b5050505087848151811061161757611616612ccd565b5b6020026020010181905250806004015486848151811061163a57611639612ccd565b5b602002602001018181525050806007015f9054906101000a900473ffffffffffffffffffffffffffffffffffffffff1685848151811061167d5761167c612ccd565b5b602002602001019073ffffffffffffffffffffffffffffffffffffffff16908173ffffffffffffffffffffffffffffffffffffffff168152505082806116c29061341f565b9350505b508080600101915050611434565b5050509091929394565b8160025f8281526020019081526020015f206007015f9054906101000a900473ffffffffffffffffffffffffffffffffffffffff1673ffffffffffffffffffffffffffffffffffffffff163373ffffffffffffffffffffffffffffffffffffffff1614611780576040517f08c379a000000000000000000000000000000000000000000000000000000000815260040161177790612c47565b60405180910390fd5b60018260ff16101580156117ae575060025f8481526020019081526020015f20600201805490508260ff1611155b6117ed576040517f08c379a00000000000000000000000000000000000000000000000000000000081526004016117e490613959565b60405180910390fd5b5f60025f8581526020019081526020015f2090508060070160149054906101000a900460ff1615801561182f57508060070160159054906101000a900460ff16155b61186e576040517f08c379a0000000000000000000000000000000000000000000000000000000008152600401611865906139e7565b60405180910390fd5b5f73010700808d59d2bb92257fcafacfe8e5bff7ab8790505f805b83600301805490508160ff1610156118dd57836003018160ff16815481106118b4576118b3612ccd565b5b905f5260205f200154826118c89190612d27565b915080806118d590612d5a565b915050611889565b505f836003016001876118f09190613266565b60ff168154811061190457611903612ccd565b5b905f5260205f20015490505f60648361191d9190612daf565b90505f8190505f8183866119319190612ddf565b61193b9190612ddf565b90508573ffffffffffffffffffffffffffffffffffffffff1663a9059cbb739b63fa365019dd7bdf8cbed2823480f808391970856040518363ffffffff1660e01b815260040161198c929190612e12565b6020604051808303815f875af11580156119a8573d5f803e3d5ffd5b505050506040513d601f19601f820116820180604052508101906119cc9190612e63565b611a0b576040517f08c379a0000000000000000000000000000000000000000000000000000000008152600401611a0290612ed8565b60405180910390fd5b8573ffffffffffffffffffffffffffffffffffffffff1663a9059cbb886007015f9054906101000a900473ffffffffffffffffffffffffffffffffffffffff16846040518363ffffffff1660e01b8152600401611a69929190612e12565b6020604051808303815f875af1158015611a85573d5f803e3d5ffd5b505050506040513d601f19601f82011682018060405250810190611aa99190612e63565b611ae8576040517f08c379a0000000000000000000000000000000000000000000000000000000008152600401611adf90612f40565b60405180910390fd5b5f5b8760060180549050811015611d21575f886006018281548110611b1057611b0f612ccd565b5b905f5260205f20015f9054906101000a900473ffffffffffffffffffffffffffffffffffffffff1690505f896005015f8373ffffffffffffffffffffffffffffffffffffffff1673ffffffffffffffffffffffffffffffffffffffff1681526020019081526020015f2090505f5b81805490508160ff161015611d11575f73ffffffffffffffffffffffffffffffffffffffff16828260ff1681548110611bba57611bb9612ccd565b5b905f5260205f2090600202015f015f9054906101000a900473ffffffffffffffffffffffffffffffffffffffff1673ffffffffffffffffffffffffffffffffffffffff1614611cfe575f8886848460ff1681548110611c1c57611c1b612ccd565b5b905f5260205f20906002020160010154611c369190612f5e565b611c409190612daf565b90508a73ffffffffffffffffffffffffffffffffffffffff1663a9059cbb85836040518363ffffffff1660e01b8152600401611c7d929190612e12565b6020604051808303815f875af1158015611c99573d5f803e3d5ffd5b505050506040513d601f19601f82011682018060405250810190611cbd9190612e63565b611cfc576040517f08c379a0000000000000000000000000000000000000000000000000000000008152600401611cf390613a4f565b60405180910390fd5b505b8080611d0990612d5a565b915050611b7e565b5050508080600101915050611aea565b5060018760070160156101000a81548160ff021916908315150217905550888760070160166101000a81548160ff021916908360ff160217905550897f28c9277c6636bf00b5d22b2287c0f37926ae23a6825d5801e10a7183bb69045c8a604051611d8c9190613a6d565b60405180910390a250505050505050505050565b6060806060805f80600190505b600154811015611e4c575f60025f8381526020019081526020015f2090508060070160149054906101000a900460ff168015611e2a57505f816005015f8a73ffffffffffffffffffffffffffffffffffffffff1673ffffffffffffffffffffffffffffffffffffffff1681526020019081526020015f2080549050115b15611e3e578280611e3a9061341f565b9350505b508080600101915050611dad565b508067ffffffffffffffff811115611e6757611e66613064565b5b604051908082528060200260200182016040528015611e955781602001602082028036833780820191505090505b5094508067ffffffffffffffff811115611eb257611eb1613064565b5b604051908082528060200260200182016040528015611ee557816020015b6060815260200190600190039081611ed05790505b5093508067ffffffffffffffff811115611f0257611f01613064565b5b604051908082528060200260200182016040528015611f305781602001602082028036833780820191505090505b5092508067ffffffffffffffff811115611f4d57611f4c613064565b5b604051908082528060200260200182016040528015611f8057816020015b6060815260200190600190039081611f6b5790505b5091505f80600190505b600154811015612293575f60025f8381526020019081526020015f2090508060070160149054906101000a900460ff16801561200757505f816005015f8b73ffffffffffffffffffffffffffffffffffffffff1673ffffffffffffffffffffffffffffffffffffffff1681526020019081526020015f2080549050115b1561228557805f015488848151811061202357612022612ccd565b5b60200260200101818152505080600101805461203e90613034565b80601f016020809104026020016040519081016040528092919081815260200182805461206a90613034565b80156120b55780601f1061208c576101008083540402835291602001916120b5565b820191905f5260205f20905b81548152906001019060200180831161209857829003601f168201915b50505050508784815181106120cd576120cc612ccd565b5b60200260200101819052505f80826005015f8c73ffffffffffffffffffffffffffffffffffffffff1673ffffffffffffffffffffffffffffffffffffffff1681526020019081526020015f2090505f5b81805490508110156121665781818154811061213c5761213b612ccd565b5b905f5260205f20906002020160010154836121579190612d27565b9250808060010191505061211d565b508188868151811061217b5761217a612ccd565b5b60200260200101818152505082600201805480602002602001604051908101604052809291908181526020015f905b82821015612252578382905f5260205f200180546121c790613034565b80601f01602080910402602001604051908101604052809291908181526020018280546121f390613034565b801561223e5780601f106122155761010080835404028352916020019161223e565b820191905f5260205f20905b81548152906001019060200180831161222157829003601f168201915b5050505050815260200190600101906121aa565b5050505087868151811061226957612268612ccd565b5b6020026020010181905250848061227f9061341f565b95505050505b508080600101915050611f8a565b5050509193509193565b828054828255905f5260205f209081019282156122d7579160200282015b828111156122d65782518255916020019190600101906122bb565b5b5090506122e491906122e8565b5090565b5b808211156122ff575f815f9055506001016122e9565b5090565b5f73ffffffffffffffffffffffffffffffffffffffff82169050919050565b5f61232c82612303565b9050919050565b61233c81612322565b82525050565b5f6020820190506123555f830184612333565b92915050565b5f80fd5b5f80fd5b5f819050919050565b61237581612363565b811461237f575f80fd5b50565b5f813590506123908161236c565b92915050565b5f602082840312156123ab576123aa61235b565b5b5f6123b884828501612382565b91505092915050565b5f81519050919050565b5f82825260208201905092915050565b8281835e5f83830152505050565b5f601f19601f8301169050919050565b5f612403826123c1565b61240d81856123cb565b935061241d8185602086016123db565b612426816123e9565b840191505092915050565b5f81519050919050565b5f82825260208201905092915050565b5f819050602082019050919050565b5f82825260208201905092915050565b5f612474826123c1565b61247e818561245a565b935061248e8185602086016123db565b612497816123e9565b840191505092915050565b5f6124ad838361246a565b905092915050565b5f602082019050919050565b5f6124cb82612431565b6124d5818561243b565b9350836020820285016124e78561244b565b805f5b85811015612522578484038952815161250385826124a2565b945061250e836124b5565b925060208a019950506001810190506124ea565b50829750879550505050505092915050565b5f8115159050919050565b61254881612534565b82525050565b61255781612363565b82525050565b5f81519050919050565b5f82825260208201905092915050565b5f819050602082019050919050565b61258f81612363565b82525050565b5f6125a08383612586565b60208301905092915050565b5f602082019050919050565b5f6125c28261255d565b6125cc8185612567565b93506125d783612577565b805f5b838110156126075781516125ee8882612595565b97506125f9836125ac565b9250506001810190506125da565b5085935050505092915050565b5f60ff82169050919050565b61262981612614565b82525050565b5f610120820190506126435f83018c612333565b8181036020830152612655818b6123f9565b90508181036040830152612669818a6124c1565b9050612678606083018961253f565b612685608083018861253f565b61269260a083018761254e565b81810360c08301526126a481866125b8565b90506126b360e0830185612620565b6126c161010083018461253f565b9a9950505050505050505050565b6126d881612614565b81146126e2575f80fd5b50565b5f813590506126f3816126cf565b92915050565b5f805f606084860312156127105761270f61235b565b5b5f61271d86828701612382565b935050602061272e86828701612382565b925050604061273f868287016126e5565b9150509250925092565b5f80fd5b5f80fd5b5f80fd5b5f8083601f84011261276a57612769612749565b5b8235905067ffffffffffffffff8111156127875761278661274d565b5b6020830191508360018202830111156127a3576127a2612751565b5b9250929050565b5f8083601f8401126127bf576127be612749565b5b8235905067ffffffffffffffff8111156127dc576127db61274d565b5b6020830191508360208202830111156127f8576127f7612751565b5b9250929050565b5f805f805f80608087890312156128195761281861235b565b5b5f87013567ffffffffffffffff8111156128365761283561235f565b5b61284289828a01612755565b9650965050602061285589828a016126e5565b945050604087013567ffffffffffffffff8111156128765761287561235f565b5b61288289828a016127aa565b9350935050606061289589828a01612382565b9150509295509295509295565b5f81519050919050565b5f82825260208201905092915050565b5f819050602082019050919050565b5f82825260208201905092915050565b5f6128e582612431565b6128ef81856128cb565b9350836020820285016129018561244b565b805f5b8581101561293c578484038952815161291d85826124a2565b9450612928836124b5565b925060208a01995050600181019050612904565b50829750879550505050505092915050565b5f61295983836128db565b905092915050565b5f602082019050919050565b5f612977826128a2565b61298181856128ac565b935083602082028501612993856128bc565b805f5b858110156129ce57848403895281516129af858261294e565b94506129ba83612961565b925060208a01995050600181019050612996565b50829750879550505050505092915050565b5f81519050919050565b5f82825260208201905092915050565b5f819050602082019050919050565b612a1281612322565b82525050565b5f612a238383612a09565b60208301905092915050565b5f602082019050919050565b5f612a45826129e0565b612a4f81856129ea565b9350612a5a836129fa565b805f5b83811015612a8a578151612a718882612a18565b9750612a7c83612a2f565b925050600181019050612a5d565b5085935050505092915050565b5f60a0820190508181035f830152612aaf81886125b8565b90508181036020830152612ac381876124c1565b90508181036040830152612ad7818661296d565b90508181036060830152612aeb81856125b8565b90508181036080830152612aff8184612a3b565b90509695505050505050565b5f8060408385031215612b2157612b2061235b565b5b5f612b2e85828601612382565b9250506020612b3f858286016126e5565b9150509250929050565b612b5281612322565b8114612b5c575f80fd5b50565b5f81359050612b6d81612b49565b92915050565b5f60208284031215612b8857612b8761235b565b5b5f612b9584828501612b5f565b91505092915050565b5f6080820190508181035f830152612bb681876125b8565b90508181036020830152612bca81866124c1565b90508181036040830152612bde81856125b8565b90508181036060830152612bf2818461296d565b905095945050505050565b7f4e6f7420617574686f72697a65640000000000000000000000000000000000005f82015250565b5f612c31600e836123cb565b9150612c3c82612bfd565b602082019050919050565b5f6020820190508181035f830152612c5e81612c25565b9050919050565b7f42657474696e6720616c7265616479207265736f6c76656400000000000000005f82015250565b5f612c996018836123cb565b9150612ca482612c65565b602082019050919050565b5f6020820190508181035f830152612cc681612c8d565b9050919050565b7f4e487b71000000000000000000000000000000000000000000000000000000005f52603260045260245ffd5b7f4e487b71000000000000000000000000000000000000000000000000000000005f52601160045260245ffd5b5f612d3182612363565b9150612d3c83612363565b9250828201905080821115612d5457612d53612cfa565b5b92915050565b5f612d6482612614565b915060ff8203612d7757612d76612cfa565b5b600182019050919050565b7f4e487b71000000000000000000000000000000000000000000000000000000005f52601260045260245ffd5b5f612db982612363565b9150612dc483612363565b925082612dd457612dd3612d82565b5b828204905092915050565b5f612de982612363565b9150612df483612363565b9250828203905081811115612e0c57612e0b612cfa565b5b92915050565b5f604082019050612e255f830185612333565b612e32602083018461254e565b9392505050565b612e4281612534565b8114612e4c575f80fd5b50565b5f81519050612e5d81612e39565b92915050565b5f60208284031215612e7857612e7761235b565b5b5f612e8584828501612e4f565b91505092915050565b7f466565207472616e73666572206661696c6564000000000000000000000000005f82015250565b5f612ec26013836123cb565b9150612ecd82612e8e565b602082019050919050565b5f6020820190508181035f830152612eef81612eb6565b9050919050565b7f43726561746f7220666565207472616e73666572206661696c656400000000005f82015250565b5f612f2a601b836123cb565b9150612f3582612ef6565b602082019050919050565b5f6020820190508181035f830152612f5781612f1e565b9050919050565b5f612f6882612363565b9150612f7383612363565b9250828202612f8181612363565b91508282048414831517612f9857612f97612cfa565b5b5092915050565b7f426574746f72207472616e73666572206661696c6564000000000000000000005f82015250565b5f612fd36016836123cb565b9150612fde82612f9f565b602082019050919050565b5f6020820190508181035f83015261300081612fc7565b9050919050565b7f4e487b71000000000000000000000000000000000000000000000000000000005f52602260045260245ffd5b5f600282049050600182168061304b57607f821691505b60208210810361305e5761305d613007565b5b50919050565b7f4e487b71000000000000000000000000000000000000000000000000000000005f52604160045260245ffd5b7f42657474696e6720697320636c6f7365640000000000000000000000000000005f82015250565b5f6130c56011836123cb565b91506130d082613091565b602082019050919050565b5f6020820190508181035f8301526130f2816130b9565b9050919050565b7f42657420616d6f756e74206973206c657373207468616e206d696e696d756d005f82015250565b5f61312d601f836123cb565b9150613138826130f9565b602082019050919050565b5f6020820190508181035f83015261315a81613121565b9050919050565b7f496e76616c6964206f7074696f6e0000000000000000000000000000000000005f82015250565b5f613195600e836123cb565b91506131a082613161565b602082019050919050565b5f6020820190508181035f8301526131c281613189565b9050919050565b5f6060820190506131dc5f830186612333565b6131e96020830185612333565b6131f6604083018461254e565b949350505050565b7f5472616e73666572206661696c656400000000000000000000000000000000005f82015250565b5f613232600f836123cb565b915061323d826131fe565b602082019050919050565b5f6020820190508181035f83015261325f81613226565b9050919050565b5f61327082612614565b915061327b83612614565b9250828203905060ff81111561329457613293612cfa565b5b92915050565b5f6040820190506132ad5f83018561254e565b6132ba6020830184612620565b9392505050565b7f4e6f7420617574686f72697a65642c206f6e6c79206f776e65722063616e20635f8201527f7265617465206265747300000000000000000000000000000000000000000000602082015250565b5f61331b602a836123cb565b9150613326826132c1565b604082019050919050565b5f6020820190508181035f8301526133488161330f565b9050919050565b7f496e76616c6964206e756d626572206f66206f7074696f6e73000000000000005f82015250565b5f6133836019836123cb565b915061338e8261334f565b602082019050919050565b5f6020820190508181035f8301526133b081613377565b9050919050565b7f4f7074696f6e206e616d6573206c656e677468206d69736d61746368000000005f82015250565b5f6133eb601c836123cb565b91506133f6826133b7565b602082019050919050565b5f6020820190508181035f830152613418816133df565b9050919050565b5f61342982612363565b91507fffffffffffffffffffffffffffffffffffffffffffffffffffffffffffffffff820361345b5761345a612cfa565b5b600182019050919050565b5f82905092915050565b5f819050815f5260205f209050919050565b5f6020601f8301049050919050565b5f82821b905092915050565b5f600883026134cc7fffffffffffffffffffffffffffffffffffffffffffffffffffffffffffffffff82613491565b6134d68683613491565b95508019841693508086168417925050509392505050565b5f819050919050565b5f61351161350c61350784612363565b6134ee565b612363565b9050919050565b5f819050919050565b61352a836134f7565b61353e61353682613518565b84845461349d565b825550505050565b5f90565b613552613546565b61355d818484613521565b505050565b5b81811015613580576135755f8261354a565b600181019050613563565b5050565b601f8211156135c55761359681613470565b61359f84613482565b810160208510156135ae578190505b6135c26135ba85613482565b830182613562565b50505b505050565b5f82821c905092915050565b5f6135e55f19846008026135ca565b1980831691505092915050565b5f6135fd83836135d6565b9150826002028217905092915050565b6136178383613466565b67ffffffffffffffff8111156136305761362f613064565b5b61363a8254613034565b613645828285613584565b5f601f831160018114613672575f8415613660578287013590505b61366a85826135f2565b8655506136d1565b601f19841661368086613470565b5f5b828110156136a757848901358255600182019150602085019450602081019050613682565b868310156136c457848901356136c0601f8916826135d6565b8355505b6001600288020188555050505b50505050505050565b5f80fd5b5f80fd5b5f80fd5b5f8083356001602003843603038112613702576137016136da565b5b80840192508235915067ffffffffffffffff821115613724576137236136de565b5b6020830192506001820236038313156137405761373f6136e2565b5b509250929050565b828183375f83830152505050565b5f61376183856123cb565b935061376e838584613748565b613777836123e9565b840190509392505050565b5f819050919050565b5f613796838561245a565b93506137a3838584613748565b6137ac836123e9565b840190509392505050565b5f6137c384848461378b565b90509392505050565b5f80fd5b5f80fd5b5f80fd5b5f80833560016020038436030381126137f4576137f36137d4565b5b83810192508235915060208301925067ffffffffffffffff82111561381c5761381b6137cc565b5b600182023603831315613832576138316137d0565b5b509250929050565b5f602082019050919050565b5f613851838561243b565b93508360208402850161386384613782565b805f5b878110156138a857848403895261387d82846137d8565b6138888682846137b7565b95506138938461383a565b935060208b019a505050600181019050613866565b50829750879450505050509392505050565b5f6080820190506138cd5f830189612333565b81810360208301526138e0818789613756565b905081810360408301526138f5818587613846565b9050613904606083018461254e565b979650505050505050565b7f496e76616c69642077696e6e696e67206f7074696f6e000000000000000000005f82015250565b5f6139436016836123cb565b915061394e8261390f565b602082019050919050565b5f6020820190508181035f83015261397081613937565b9050919050565b7f42657474696e67206d75737420626520636c6f73656420616e64206e6f7420725f8201527f65736f6c76656400000000000000000000000000000000000000000000000000602082015250565b5f6139d16027836123cb565b91506139dc82613977565b604082019050919050565b5f6020820190508181035f8301526139fe816139c5565b9050919050565b7f57696e6e6572207472616e73666572206661696c6564000000000000000000005f82015250565b5f613a396016836123cb565b9150613a4482613a05565b602082019050919050565b5f6020820190508181035f830152613a6681613a2d565b9050919050565b5f602082019050613a805f830184612620565b9291505056fea2646970667358221220d83eaaba285f9c0a75b1e72fe98a6a0849f786eded79b0c3dabf91ce3056066764736f6c634300081a0033",
					"opcodes": "PUSH1 0x80 PUSH1 0x40 MSTORE PUSH1 0x1 DUP1 SSTORE CALLVALUE DUP1 ISZERO PUSH1 0x12 JUMPI PUSH0 DUP1 REVERT JUMPDEST POP CALLER PUSH0 DUP1 PUSH2 0x100 EXP DUP2 SLOAD DUP2 PUSH20 0xFFFFFFFFFFFFFFFFFFFFFFFFFFFFFFFFFFFFFFFF MUL NOT AND SWAP1 DUP4 PUSH20 0xFFFFFFFFFFFFFFFFFFFFFFFFFFFFFFFFFFFFFFFF AND MUL OR SWAP1 SSTORE POP PUSH2 0x3ABC DUP1 PUSH2 0x5F PUSH0 CODECOPY PUSH0 RETURN INVALID PUSH1 0x80 PUSH1 0x40 MSTORE CALLVALUE DUP1 ISZERO PUSH2 0xF JUMPI PUSH0 DUP1 REVERT JUMPDEST POP PUSH1 0x4 CALLDATASIZE LT PUSH2 0x9C JUMPI PUSH0 CALLDATALOAD PUSH1 0xE0 SHR DUP1 PUSH4 0xB4AD06A1 GT PUSH2 0x64 JUMPI DUP1 PUSH4 0xB4AD06A1 EQ PUSH2 0x14C JUMPI DUP1 PUSH4 0xB9916ADF EQ PUSH2 0x168 JUMPI DUP1 PUSH4 0xD65EDB4D EQ PUSH2 0x184 JUMPI DUP1 PUSH4 0xF1368748 EQ PUSH2 0x1A6 JUMPI DUP1 PUSH4 0xF41408B5 EQ PUSH2 0x1C2 JUMPI PUSH2 0x9C JUMP JUMPDEST DUP1 PUSH4 0x1CFEC6E0 EQ PUSH2 0xA0 JUMPI DUP1 PUSH4 0x357401F5 EQ PUSH2 0xBE JUMPI DUP1 PUSH4 0x79141F80 EQ PUSH2 0xDA JUMPI DUP1 PUSH4 0x8DA5CB5B EQ PUSH2 0x112 JUMPI DUP1 PUSH4 0x9E14427E EQ PUSH2 0x130 JUMPI JUMPDEST PUSH0 DUP1 REVERT JUMPDEST PUSH2 0xA8 PUSH2 0x1F5 JUMP JUMPDEST PUSH1 0x40 MLOAD PUSH2 0xB5 SWAP2 SWAP1 PUSH2 0x2342 JUMP JUMPDEST PUSH1 0x40 MLOAD DUP1 SWAP2 SUB SWAP1 RETURN JUMPDEST PUSH2 0xD8 PUSH1 0x4 DUP1 CALLDATASIZE SUB DUP2 ADD SWAP1 PUSH2 0xD3 SWAP2 SWAP1 PUSH2 0x2396 JUMP JUMPDEST PUSH2 0x20D JUMP JUMPDEST STOP JUMPDEST PUSH2 0xF4 PUSH1 0x4 DUP1 CALLDATASIZE SUB DUP2 ADD SWAP1 PUSH2 0xEF SWAP2 SWAP1 PUSH2 0x2396 JUMP JUMPDEST PUSH2 0x77A JUMP JUMPDEST PUSH1 0x40 MLOAD PUSH2 0x109 SWAP10 SWAP9 SWAP8 SWAP7 SWAP6 SWAP5 SWAP4 SWAP3 SWAP2 SWAP1 PUSH2 0x262F JUMP JUMPDEST PUSH1 0x40 MLOAD DUP1 SWAP2 SUB SWAP1 RETURN JUMPDEST PUSH2 0x11A PUSH2 0xA74 JUMP JUMPDEST PUSH1 0x40 MLOAD PUSH2 0x127 SWAP2 SWAP1 PUSH2 0x2342 JUMP JUMPDEST PUSH1 0x40 MLOAD DUP1 SWAP2 SUB SWAP1 RETURN JUMPDEST PUSH2 0x14A PUSH1 0x4 DUP1 CALLDATASIZE SUB DUP2 ADD SWAP1 PUSH2 0x145 SWAP2 SWAP1 PUSH2 0x26F9 JUMP JUMPDEST PUSH2 0xA97 JUMP JUMPDEST STOP JUMPDEST PUSH2 0x166 PUSH1 0x4 DUP1 CALLDATASIZE SUB DUP2 ADD SWAP1 PUSH2 0x161 SWAP2 SWAP1 PUSH2 0x2396 JUMP JUMPDEST PUSH2 0xE51 JUMP JUMPDEST STOP JUMPDEST PUSH2 0x182 PUSH1 0x4 DUP1 CALLDATASIZE SUB DUP2 ADD SWAP1 PUSH2 0x17D SWAP2 SWAP1 PUSH2 0x27FF JUMP JUMPDEST PUSH2 0xF55 JUMP JUMPDEST STOP JUMPDEST PUSH2 0x18C PUSH2 0x124A JUMP JUMPDEST PUSH1 0x40 MLOAD PUSH2 0x19D SWAP6 SWAP5 SWAP4 SWAP3 SWAP2 SWAP1 PUSH2 0x2A97 JUMP JUMPDEST PUSH1 0x40 MLOAD DUP1 SWAP2 SUB SWAP1 RETURN JUMPDEST PUSH2 0x1C0 PUSH1 0x4 DUP1 CALLDATASIZE SUB DUP2 ADD SWAP1 PUSH2 0x1BB SWAP2 SWAP1 PUSH2 0x2B0B JUMP JUMPDEST PUSH2 0x16DE JUMP JUMPDEST STOP JUMPDEST PUSH2 0x1DC PUSH1 0x4 DUP1 CALLDATASIZE SUB DUP2 ADD SWAP1 PUSH2 0x1D7 SWAP2 SWAP1 PUSH2 0x2B73 JUMP JUMPDEST PUSH2 0x1DA0 JUMP JUMPDEST PUSH1 0x40 MLOAD PUSH2 0x1EC SWAP5 SWAP4 SWAP3 SWAP2 SWAP1 PUSH2 0x2B9E JUMP JUMPDEST PUSH1 0x40 MLOAD DUP1 SWAP2 SUB SWAP1 RETURN JUMPDEST PUSH20 0x10700808D59D2BB92257FCAFACFE8E5BFF7AB87 DUP2 JUMP JUMPDEST DUP1 PUSH1 0x2 PUSH0 DUP3 DUP2 MSTORE PUSH1 0x20 ADD SWAP1 DUP2 MSTORE PUSH1 0x20 ADD PUSH0 KECCAK256 PUSH1 0x7 ADD PUSH0 SWAP1 SLOAD SWAP1 PUSH2 0x100 EXP SWAP1 DIV PUSH20 0xFFFFFFFFFFFFFFFFFFFFFFFFFFFFFFFFFFFFFFFF AND PUSH20 0xFFFFFFFFFFFFFFFFFFFFFFFFFFFFFFFFFFFFFFFF AND CALLER PUSH20 0xFFFFFFFFFFFFFFFFFFFFFFFFFFFFFFFFFFFFFFFF AND EQ PUSH2 0x2AF JUMPI PUSH1 0x40 MLOAD PUSH32 0x8C379A000000000000000000000000000000000000000000000000000000000 DUP2 MSTORE PUSH1 0x4 ADD PUSH2 0x2A6 SWAP1 PUSH2 0x2C47 JUMP JUMPDEST PUSH1 0x40 MLOAD DUP1 SWAP2 SUB SWAP1 REVERT JUMPDEST PUSH0 PUSH1 0x2 PUSH0 DUP5 DUP2 MSTORE PUSH1 0x20 ADD SWAP1 DUP2 MSTORE PUSH1 0x20 ADD PUSH0 KECCAK256 SWAP1 POP DUP1 PUSH1 0x7 ADD PUSH1 0x15 SWAP1 SLOAD SWAP1 PUSH2 0x100 EXP SWAP1 DIV PUSH1 0xFF AND ISZERO PUSH2 0x315 JUMPI PUSH1 0x40 MLOAD PUSH32 0x8C379A000000000000000000000000000000000000000000000000000000000 DUP2 MSTORE PUSH1 0x4 ADD PUSH2 0x30C SWAP1 PUSH2 0x2CAF JUMP JUMPDEST PUSH1 0x40 MLOAD DUP1 SWAP2 SUB SWAP1 REVERT JUMPDEST PUSH1 0x1 DUP2 PUSH1 0x7 ADD PUSH1 0x17 PUSH2 0x100 EXP DUP2 SLOAD DUP2 PUSH1 0xFF MUL NOT AND SWAP1 DUP4 ISZERO ISZERO MUL OR SWAP1 SSTORE POP PUSH0 PUSH20 0x10700808D59D2BB92257FCAFACFE8E5BFF7AB87 SWAP1 POP PUSH0 DUP1 JUMPDEST DUP4 PUSH1 0x3 ADD DUP1 SLOAD SWAP1 POP DUP2 PUSH1 0xFF AND LT ISZERO PUSH2 0x3A1 JUMPI DUP4 PUSH1 0x3 ADD DUP2 PUSH1 0xFF AND DUP2 SLOAD DUP2 LT PUSH2 0x378 JUMPI PUSH2 0x377 PUSH2 0x2CCD JUMP JUMPDEST JUMPDEST SWAP1 PUSH0 MSTORE PUSH1 0x20 PUSH0 KECCAK256 ADD SLOAD DUP3 PUSH2 0x38C SWAP2 SWAP1 PUSH2 0x2D27 JUMP JUMPDEST SWAP2 POP DUP1 DUP1 PUSH2 0x399 SWAP1 PUSH2 0x2D5A JUMP JUMPDEST SWAP2 POP POP PUSH2 0x34D JUMP JUMPDEST POP PUSH0 PUSH1 0x64 DUP3 PUSH2 0x3B0 SWAP2 SWAP1 PUSH2 0x2DAF JUMP JUMPDEST SWAP1 POP PUSH0 DUP2 SWAP1 POP PUSH0 DUP2 DUP4 DUP6 PUSH2 0x3C4 SWAP2 SWAP1 PUSH2 0x2DDF JUMP JUMPDEST PUSH2 0x3CE SWAP2 SWAP1 PUSH2 0x2DDF JUMP JUMPDEST SWAP1 POP DUP5 PUSH20 0xFFFFFFFFFFFFFFFFFFFFFFFFFFFFFFFFFFFFFFFF AND PUSH4 0xA9059CBB PUSH20 0x9B63FA365019DD7BDF8CBED2823480F808391970 DUP6 PUSH1 0x40 MLOAD DUP4 PUSH4 0xFFFFFFFF AND PUSH1 0xE0 SHL DUP2 MSTORE PUSH1 0x4 ADD PUSH2 0x41F SWAP3 SWAP2 SWAP1 PUSH2 0x2E12 JUMP JUMPDEST PUSH1 0x20 PUSH1 0x40 MLOAD DUP1 DUP4 SUB DUP2 PUSH0 DUP8 GAS CALL ISZERO DUP1 ISZERO PUSH2 0x43B JUMPI RETURNDATASIZE PUSH0 DUP1 RETURNDATACOPY RETURNDATASIZE PUSH0 REVERT JUMPDEST POP POP POP POP PUSH1 0x40 MLOAD RETURNDATASIZE PUSH1 0x1F NOT PUSH1 0x1F DUP3 ADD AND DUP3 ADD DUP1 PUSH1 0x40 MSTORE POP DUP2 ADD SWAP1 PUSH2 0x45F SWAP2 SWAP1 PUSH2 0x2E63 JUMP JUMPDEST PUSH2 0x49E JUMPI PUSH1 0x40 MLOAD PUSH32 0x8C379A000000000000000000000000000000000000000000000000000000000 DUP2 MSTORE PUSH1 0x4 ADD PUSH2 0x495 SWAP1 PUSH2 0x2ED8 JUMP JUMPDEST PUSH1 0x40 MLOAD DUP1 SWAP2 SUB SWAP1 REVERT JUMPDEST DUP5 PUSH20 0xFFFFFFFFFFFFFFFFFFFFFFFFFFFFFFFFFFFFFFFF AND PUSH4 0xA9059CBB DUP8 PUSH1 0x7 ADD PUSH0 SWAP1 SLOAD SWAP1 PUSH2 0x100 EXP SWAP1 DIV PUSH20 0xFFFFFFFFFFFFFFFFFFFFFFFFFFFFFFFFFFFFFFFF AND DUP5 PUSH1 0x40 MLOAD DUP4 PUSH4 0xFFFFFFFF AND PUSH1 0xE0 SHL DUP2 MSTORE PUSH1 0x4 ADD PUSH2 0x4FC SWAP3 SWAP2 SWAP1 PUSH2 0x2E12 JUMP JUMPDEST PUSH1 0x20 PUSH1 0x40 MLOAD DUP1 DUP4 SUB DUP2 PUSH0 DUP8 GAS CALL ISZERO DUP1 ISZERO PUSH2 0x518 JUMPI RETURNDATASIZE PUSH0 DUP1 RETURNDATACOPY RETURNDATASIZE PUSH0 REVERT JUMPDEST POP POP POP POP PUSH1 0x40 MLOAD RETURNDATASIZE PUSH1 0x1F NOT PUSH1 0x1F DUP3 ADD AND DUP3 ADD DUP1 PUSH1 0x40 MSTORE POP DUP2 ADD SWAP1 PUSH2 0x53C SWAP2 SWAP1 PUSH2 0x2E63 JUMP JUMPDEST PUSH2 0x57B JUMPI PUSH1 0x40 MLOAD PUSH32 0x8C379A000000000000000000000000000000000000000000000000000000000 DUP2 MSTORE PUSH1 0x4 ADD PUSH2 0x572 SWAP1 PUSH2 0x2F40 JUMP JUMPDEST PUSH1 0x40 MLOAD DUP1 SWAP2 SUB SWAP1 REVERT JUMPDEST PUSH0 JUMPDEST DUP7 PUSH1 0x6 ADD DUP1 SLOAD SWAP1 POP DUP2 LT ISZERO PUSH2 0x742 JUMPI PUSH0 DUP8 PUSH1 0x6 ADD DUP3 DUP2 SLOAD DUP2 LT PUSH2 0x5A3 JUMPI PUSH2 0x5A2 PUSH2 0x2CCD JUMP JUMPDEST JUMPDEST SWAP1 PUSH0 MSTORE PUSH1 0x20 PUSH0 KECCAK256 ADD PUSH0 SWAP1 SLOAD SWAP1 PUSH2 0x100 EXP SWAP1 DIV PUSH20 0xFFFFFFFFFFFFFFFFFFFFFFFFFFFFFFFFFFFFFFFF AND SWAP1 POP PUSH0 DUP9 PUSH1 0x5 ADD PUSH0 DUP4 PUSH20 0xFFFFFFFFFFFFFFFFFFFFFFFFFFFFFFFFFFFFFFFF AND PUSH20 0xFFFFFFFFFFFFFFFFFFFFFFFFFFFFFFFFFFFFFFFF AND DUP2 MSTORE PUSH1 0x20 ADD SWAP1 DUP2 MSTORE PUSH1 0x20 ADD PUSH0 KECCAK256 SWAP1 POP PUSH0 JUMPDEST DUP2 DUP1 SLOAD SWAP1 POP DUP2 PUSH1 0xFF AND LT ISZERO PUSH2 0x732 JUMPI PUSH0 DUP3 DUP3 PUSH1 0xFF AND DUP2 SLOAD DUP2 LT PUSH2 0x637 JUMPI PUSH2 0x636 PUSH2 0x2CCD JUMP JUMPDEST JUMPDEST SWAP1 PUSH0 MSTORE PUSH1 0x20 PUSH0 KECCAK256 SWAP1 PUSH1 0x2 MUL ADD PUSH1 0x1 ADD SLOAD SWAP1 POP PUSH0 DUP10 DUP8 DUP4 PUSH2 0x657 SWAP2 SWAP1 PUSH2 0x2F5E JUMP JUMPDEST PUSH2 0x661 SWAP2 SWAP1 PUSH2 0x2DAF JUMP JUMPDEST SWAP1 POP DUP11 PUSH20 0xFFFFFFFFFFFFFFFFFFFFFFFFFFFFFFFFFFFFFFFF AND PUSH4 0xA9059CBB DUP7 DUP4 PUSH1 0x40 MLOAD DUP4 PUSH4 0xFFFFFFFF AND PUSH1 0xE0 SHL DUP2 MSTORE PUSH1 0x4 ADD PUSH2 0x69E SWAP3 SWAP2 SWAP1 PUSH2 0x2E12 JUMP JUMPDEST PUSH1 0x20 PUSH1 0x40 MLOAD DUP1 DUP4 SUB DUP2 PUSH0 DUP8 GAS CALL ISZERO DUP1 ISZERO PUSH2 0x6BA JUMPI RETURNDATASIZE PUSH0 DUP1 RETURNDATACOPY RETURNDATASIZE PUSH0 REVERT JUMPDEST POP POP POP POP PUSH1 0x40 MLOAD RETURNDATASIZE PUSH1 0x1F NOT PUSH1 0x1F DUP3 ADD AND DUP3 ADD DUP1 PUSH1 0x40 MSTORE POP DUP2 ADD SWAP1 PUSH2 0x6DE SWAP2 SWAP1 PUSH2 0x2E63 JUMP JUMPDEST PUSH2 0x71D JUMPI PUSH1 0x40 MLOAD PUSH32 0x8C379A000000000000000000000000000000000000000000000000000000000 DUP2 MSTORE PUSH1 0x4 ADD PUSH2 0x714 SWAP1 PUSH2 0x2FE9 JUMP JUMPDEST PUSH1 0x40 MLOAD DUP1 SWAP2 SUB SWAP1 REVERT JUMPDEST POP POP DUP1 DUP1 PUSH2 0x72A SWAP1 PUSH2 0x2D5A JUMP JUMPDEST SWAP2 POP POP PUSH2 0x611 JUMP JUMPDEST POP POP POP DUP1 DUP1 PUSH1 0x1 ADD SWAP2 POP POP PUSH2 0x57D JUMP JUMPDEST POP DUP8 PUSH32 0xE3906E8D1E2167EF706B023E6E83AF697DB5CD38F233C71BF5021B26B316C3A2 PUSH1 0x40 MLOAD PUSH1 0x40 MLOAD DUP1 SWAP2 SUB SWAP1 LOG2 POP POP POP POP POP POP POP POP JUMP JUMPDEST PUSH0 PUSH1 0x60 DUP1 PUSH0 DUP1 PUSH0 PUSH1 0x60 PUSH0 DUP1 PUSH0 PUSH1 0x2 PUSH0 DUP13 DUP2 MSTORE PUSH1 0x20 ADD SWAP1 DUP2 MSTORE PUSH1 0x20 ADD PUSH0 KECCAK256 SWAP1 POP DUP1 PUSH1 0x7 ADD PUSH0 SWAP1 SLOAD SWAP1 PUSH2 0x100 EXP SWAP1 DIV PUSH20 0xFFFFFFFFFFFFFFFFFFFFFFFFFFFFFFFFFFFFFFFF AND SWAP10 POP DUP1 PUSH1 0x1 ADD DUP1 SLOAD PUSH2 0x7CE SWAP1 PUSH2 0x3034 JUMP JUMPDEST DUP1 PUSH1 0x1F ADD PUSH1 0x20 DUP1 SWAP2 DIV MUL PUSH1 0x20 ADD PUSH1 0x40 MLOAD SWAP1 DUP2 ADD PUSH1 0x40 MSTORE DUP1 SWAP3 SWAP2 SWAP1 DUP2 DUP2 MSTORE PUSH1 0x20 ADD DUP3 DUP1 SLOAD PUSH2 0x7FA SWAP1 PUSH2 0x3034 JUMP JUMPDEST DUP1 ISZERO PUSH2 0x845 JUMPI DUP1 PUSH1 0x1F LT PUSH2 0x81C JUMPI PUSH2 0x100 DUP1 DUP4 SLOAD DIV MUL DUP4 MSTORE SWAP2 PUSH1 0x20 ADD SWAP2 PUSH2 0x845 JUMP JUMPDEST DUP3 ADD SWAP2 SWAP1 PUSH0 MSTORE PUSH1 0x20 PUSH0 KECCAK256 SWAP1 JUMPDEST DUP2 SLOAD DUP2 MSTORE SWAP1 PUSH1 0x1 ADD SWAP1 PUSH1 0x20 ADD DUP1 DUP4 GT PUSH2 0x828 JUMPI DUP3 SWAP1 SUB PUSH1 0x1F AND DUP3 ADD SWAP2 JUMPDEST POP POP POP POP POP SWAP9 POP DUP1 PUSH1 0x2 ADD DUP1 SLOAD DUP1 PUSH1 0x20 MUL PUSH1 0x20 ADD PUSH1 0x40 MLOAD SWAP1 DUP2 ADD PUSH1 0x40 MSTORE DUP1 SWAP3 SWAP2 SWAP1 DUP2 DUP2 MSTORE PUSH1 0x20 ADD PUSH0 SWAP1 JUMPDEST DUP3 DUP3 LT ISZERO PUSH2 0x917 JUMPI DUP4 DUP3 SWAP1 PUSH0 MSTORE PUSH1 0x20 PUSH0 KECCAK256 ADD DUP1 SLOAD PUSH2 0x88C SWAP1 PUSH2 0x3034 JUMP JUMPDEST DUP1 PUSH1 0x1F ADD PUSH1 0x20 DUP1 SWAP2 DIV MUL PUSH1 0x20 ADD PUSH1 0x40 MLOAD SWAP1 DUP2 ADD PUSH1 0x40 MSTORE DUP1 SWAP3 SWAP2 SWAP1 DUP2 DUP2 MSTORE PUSH1 0x20 ADD DUP3 DUP1 SLOAD PUSH2 0x8B8 SWAP1 PUSH2 0x3034 JUMP JUMPDEST DUP1 ISZERO PUSH2 0x903 JUMPI DUP1 PUSH1 0x1F LT PUSH2 0x8DA JUMPI PUSH2 0x100 DUP1 DUP4 SLOAD DIV MUL DUP4 MSTORE SWAP2 PUSH1 0x20 ADD SWAP2 PUSH2 0x903 JUMP JUMPDEST DUP3 ADD SWAP2 SWAP1 PUSH0 MSTORE PUSH1 0x20 PUSH0 KECCAK256 SWAP1 JUMPDEST DUP2 SLOAD DUP2 MSTORE SWAP1 PUSH1 0x1 ADD SWAP1 PUSH1 0x20 ADD DUP1 DUP4 GT PUSH2 0x8E6 JUMPI DUP3 SWAP1 SUB PUSH1 0x1F AND DUP3 ADD SWAP2 JUMPDEST POP POP POP POP POP DUP2 MSTORE PUSH1 0x20 ADD SWAP1 PUSH1 0x1 ADD SWAP1 PUSH2 0x86F JUMP JUMPDEST POP POP POP POP SWAP8 POP DUP1 PUSH1 0x7 ADD PUSH1 0x14 SWAP1 SLOAD SWAP1 PUSH2 0x100 EXP SWAP1 DIV PUSH1 0xFF AND SWAP7 POP DUP1 PUSH1 0x7 ADD PUSH1 0x15 SWAP1 SLOAD SWAP1 PUSH2 0x100 EXP SWAP1 DIV PUSH1 0xFF AND SWAP6 POP DUP1 PUSH1 0x3 ADD DUP1 SLOAD SWAP1 POP PUSH8 0xFFFFFFFFFFFFFFFF DUP2 GT ISZERO PUSH2 0x966 JUMPI PUSH2 0x965 PUSH2 0x3064 JUMP JUMPDEST JUMPDEST PUSH1 0x40 MLOAD SWAP1 DUP1 DUP3 MSTORE DUP1 PUSH1 0x20 MUL PUSH1 0x20 ADD DUP3 ADD PUSH1 0x40 MSTORE DUP1 ISZERO PUSH2 0x994 JUMPI DUP2 PUSH1 0x20 ADD PUSH1 0x20 DUP3 MUL DUP1 CALLDATASIZE DUP4 CALLDATACOPY DUP1 DUP3 ADD SWAP2 POP POP SWAP1 POP JUMPDEST POP SWAP4 POP PUSH0 SWAP5 POP PUSH0 JUMPDEST DUP2 PUSH1 0x3 ADD DUP1 SLOAD SWAP1 POP DUP2 PUSH1 0xFF AND LT ISZERO PUSH2 0xA34 JUMPI DUP2 PUSH1 0x3 ADD DUP2 PUSH1 0xFF AND DUP2 SLOAD DUP2 LT PUSH2 0x9C7 JUMPI PUSH2 0x9C6 PUSH2 0x2CCD JUMP JUMPDEST JUMPDEST SWAP1 PUSH0 MSTORE PUSH1 0x20 PUSH0 KECCAK256 ADD SLOAD DUP6 DUP3 PUSH1 0xFF AND DUP2 MLOAD DUP2 LT PUSH2 0x9E6 JUMPI PUSH2 0x9E5 PUSH2 0x2CCD JUMP JUMPDEST JUMPDEST PUSH1 0x20 MUL PUSH1 0x20 ADD ADD DUP2 DUP2 MSTORE POP POP DUP2 PUSH1 0x3 ADD DUP2 PUSH1 0xFF AND DUP2 SLOAD DUP2 LT PUSH2 0xA0B JUMPI PUSH2 0xA0A PUSH2 0x2CCD JUMP JUMPDEST JUMPDEST SWAP1 PUSH0 MSTORE PUSH1 0x20 PUSH0 KECCAK256 ADD SLOAD DUP7 PUSH2 0xA1F SWAP2 SWAP1 PUSH2 0x2D27 JUMP JUMPDEST SWAP6 POP DUP1 DUP1 PUSH2 0xA2C SWAP1 PUSH2 0x2D5A JUMP JUMPDEST SWAP2 POP POP PUSH2 0x99C JUMP JUMPDEST POP DUP1 PUSH1 0x7 ADD PUSH1 0x15 SWAP1 SLOAD SWAP1 PUSH2 0x100 EXP SWAP1 DIV PUSH1 0xFF AND PUSH2 0xA51 JUMPI PUSH0 PUSH2 0xA64 JUMP JUMPDEST DUP1 PUSH1 0x7 ADD PUSH1 0x16 SWAP1 SLOAD SWAP1 PUSH2 0x100 EXP SWAP1 DIV PUSH1 0xFF AND JUMPDEST SWAP3 POP POP SWAP2 SWAP4 SWAP6 SWAP8 SWAP10 SWAP1 SWAP3 SWAP5 SWAP7 SWAP9 POP JUMP JUMPDEST PUSH0 DUP1 SLOAD SWAP1 PUSH2 0x100 EXP SWAP1 DIV PUSH20 0xFFFFFFFFFFFFFFFFFFFFFFFFFFFFFFFFFFFFFFFF AND DUP2 JUMP JUMPDEST PUSH0 PUSH1 0x2 PUSH0 DUP6 DUP2 MSTORE PUSH1 0x20 ADD SWAP1 DUP2 MSTORE PUSH1 0x20 ADD PUSH0 KECCAK256 SWAP1 POP DUP1 PUSH1 0x7 ADD PUSH1 0x14 SWAP1 SLOAD SWAP1 PUSH2 0x100 EXP SWAP1 DIV PUSH1 0xFF AND PUSH2 0xAFC JUMPI PUSH1 0x40 MLOAD PUSH32 0x8C379A000000000000000000000000000000000000000000000000000000000 DUP2 MSTORE PUSH1 0x4 ADD PUSH2 0xAF3 SWAP1 PUSH2 0x30DB JUMP JUMPDEST PUSH1 0x40 MLOAD DUP1 SWAP2 SUB SWAP1 REVERT JUMPDEST DUP1 PUSH1 0x4 ADD SLOAD DUP4 LT ISZERO PUSH2 0xB43 JUMPI PUSH1 0x40 MLOAD PUSH32 0x8C379A000000000000000000000000000000000000000000000000000000000 DUP2 MSTORE PUSH1 0x4 ADD PUSH2 0xB3A SWAP1 PUSH2 0x3143 JUMP JUMPDEST PUSH1 0x40 MLOAD DUP1 SWAP2 SUB SWAP1 REVERT JUMPDEST PUSH1 0x1 DUP3 PUSH1 0xFF AND LT ISZERO DUP1 ISZERO PUSH2 0xB61 JUMPI POP DUP1 PUSH1 0x2 ADD DUP1 SLOAD SWAP1 POP DUP3 PUSH1 0xFF AND GT ISZERO JUMPDEST PUSH2 0xBA0 JUMPI PUSH1 0x40 MLOAD PUSH32 0x8C379A000000000000000000000000000000000000000000000000000000000 DUP2 MSTORE PUSH1 0x4 ADD PUSH2 0xB97 SWAP1 PUSH2 0x31AB JUMP JUMPDEST PUSH1 0x40 MLOAD DUP1 SWAP2 SUB SWAP1 REVERT JUMPDEST PUSH0 PUSH20 0x10700808D59D2BB92257FCAFACFE8E5BFF7AB87 SWAP1 POP DUP1 PUSH20 0xFFFFFFFFFFFFFFFFFFFFFFFFFFFFFFFFFFFFFFFF AND PUSH4 0x23B872DD CALLER ADDRESS DUP8 PUSH1 0x40 MLOAD DUP5 PUSH4 0xFFFFFFFF AND PUSH1 0xE0 SHL DUP2 MSTORE PUSH1 0x4 ADD PUSH2 0xBF5 SWAP4 SWAP3 SWAP2 SWAP1 PUSH2 0x31C9 JUMP JUMPDEST PUSH1 0x20 PUSH1 0x40 MLOAD DUP1 DUP4 SUB DUP2 PUSH0 DUP8 GAS CALL ISZERO DUP1 ISZERO PUSH2 0xC11 JUMPI RETURNDATASIZE PUSH0 DUP1 RETURNDATACOPY RETURNDATASIZE PUSH0 REVERT JUMPDEST POP POP POP POP PUSH1 0x40 MLOAD RETURNDATASIZE PUSH1 0x1F NOT PUSH1 0x1F DUP3 ADD AND DUP3 ADD DUP1 PUSH1 0x40 MSTORE POP DUP2 ADD SWAP1 PUSH2 0xC35 SWAP2 SWAP1 PUSH2 0x2E63 JUMP JUMPDEST PUSH2 0xC74 JUMPI PUSH1 0x40 MLOAD PUSH32 0x8C379A000000000000000000000000000000000000000000000000000000000 DUP2 MSTORE PUSH1 0x4 ADD PUSH2 0xC6B SWAP1 PUSH2 0x3248 JUMP JUMPDEST PUSH1 0x40 MLOAD DUP1 SWAP2 SUB SWAP1 REVERT JUMPDEST DUP4 DUP3 PUSH1 0x3 ADD PUSH1 0x1 DUP6 PUSH2 0xC86 SWAP2 SWAP1 PUSH2 0x3266 JUMP JUMPDEST PUSH1 0xFF AND DUP2 SLOAD DUP2 LT PUSH2 0xC9A JUMPI PUSH2 0xC99 PUSH2 0x2CCD JUMP JUMPDEST JUMPDEST SWAP1 PUSH0 MSTORE PUSH1 0x20 PUSH0 KECCAK256 ADD PUSH0 DUP3 DUP3 SLOAD PUSH2 0xCB0 SWAP2 SWAP1 PUSH2 0x2D27 JUMP JUMPDEST SWAP3 POP POP DUP2 SWAP1 SSTORE POP DUP2 PUSH1 0x5 ADD PUSH0 CALLER PUSH20 0xFFFFFFFFFFFFFFFFFFFFFFFFFFFFFFFFFFFFFFFF AND PUSH20 0xFFFFFFFFFFFFFFFFFFFFFFFFFFFFFFFFFFFFFFFF AND DUP2 MSTORE PUSH1 0x20 ADD SWAP1 DUP2 MSTORE PUSH1 0x20 ADD PUSH0 KECCAK256 PUSH1 0x40 MLOAD DUP1 PUSH1 0x40 ADD PUSH1 0x40 MSTORE DUP1 CALLER PUSH20 0xFFFFFFFFFFFFFFFFFFFFFFFFFFFFFFFFFFFFFFFF AND DUP2 MSTORE PUSH1 0x20 ADD DUP7 DUP2 MSTORE POP SWAP1 DUP1 PUSH1 0x1 DUP2 SLOAD ADD DUP1 DUP3 SSTORE DUP1 SWAP2 POP POP PUSH1 0x1 SWAP1 SUB SWAP1 PUSH0 MSTORE PUSH1 0x20 PUSH0 KECCAK256 SWAP1 PUSH1 0x2 MUL ADD PUSH0 SWAP1 SWAP2 SWAP1 SWAP2 SWAP1 SWAP2 POP PUSH0 DUP3 ADD MLOAD DUP2 PUSH0 ADD PUSH0 PUSH2 0x100 EXP DUP2 SLOAD DUP2 PUSH20 0xFFFFFFFFFFFFFFFFFFFFFFFFFFFFFFFFFFFFFFFF MUL NOT AND SWAP1 DUP4 PUSH20 0xFFFFFFFFFFFFFFFFFFFFFFFFFFFFFFFFFFFFFFFF AND MUL OR SWAP1 SSTORE POP PUSH1 0x20 DUP3 ADD MLOAD DUP2 PUSH1 0x1 ADD SSTORE POP POP DUP2 PUSH1 0x6 ADD CALLER SWAP1 DUP1 PUSH1 0x1 DUP2 SLOAD ADD DUP1 DUP3 SSTORE DUP1 SWAP2 POP POP PUSH1 0x1 SWAP1 SUB SWAP1 PUSH0 MSTORE PUSH1 0x20 PUSH0 KECCAK256 ADD PUSH0 SWAP1 SWAP2 SWAP1 SWAP2 SWAP1 SWAP2 PUSH2 0x100 EXP DUP2 SLOAD DUP2 PUSH20 0xFFFFFFFFFFFFFFFFFFFFFFFFFFFFFFFFFFFFFFFF MUL NOT AND SWAP1 DUP4 PUSH20 0xFFFFFFFFFFFFFFFFFFFFFFFFFFFFFFFFFFFFFFFF AND MUL OR SWAP1 SSTORE POP CALLER PUSH20 0xFFFFFFFFFFFFFFFFFFFFFFFFFFFFFFFFFFFFFFFF AND DUP6 PUSH32 0xE90186097616CBEB30FFC786B44501E1362F5E0A316A96C5AB82A0551F9D2F05 DUP7 DUP7 PUSH1 0x40 MLOAD PUSH2 0xE42 SWAP3 SWAP2 SWAP1 PUSH2 0x329A JUMP JUMPDEST PUSH1 0x40 MLOAD DUP1 SWAP2 SUB SWAP1 LOG3 POP POP POP POP POP JUMP JUMPDEST DUP1 PUSH1 0x2 PUSH0 DUP3 DUP2 MSTORE PUSH1 0x20 ADD SWAP1 DUP2 MSTORE PUSH1 0x20 ADD PUSH0 KECCAK256 PUSH1 0x7 ADD PUSH0 SWAP1 SLOAD SWAP1 PUSH2 0x100 EXP SWAP1 DIV PUSH20 0xFFFFFFFFFFFFFFFFFFFFFFFFFFFFFFFFFFFFFFFF AND PUSH20 0xFFFFFFFFFFFFFFFFFFFFFFFFFFFFFFFFFFFFFFFF AND CALLER PUSH20 0xFFFFFFFFFFFFFFFFFFFFFFFFFFFFFFFFFFFFFFFF AND EQ PUSH2 0xEF3 JUMPI PUSH1 0x40 MLOAD PUSH32 0x8C379A000000000000000000000000000000000000000000000000000000000 DUP2 MSTORE PUSH1 0x4 ADD PUSH2 0xEEA SWAP1 PUSH2 0x2C47 JUMP JUMPDEST PUSH1 0x40 MLOAD DUP1 SWAP2 SUB SWAP1 REVERT JUMPDEST PUSH0 PUSH1 0x2 PUSH0 DUP5 DUP2 MSTORE PUSH1 0x20 ADD SWAP1 DUP2 MSTORE PUSH1 0x20 ADD PUSH0 KECCAK256 SWAP1 POP PUSH0 DUP2 PUSH1 0x7 ADD PUSH1 0x14 PUSH2 0x100 EXP DUP2 SLOAD DUP2 PUSH1 0xFF MUL NOT AND SWAP1 DUP4 ISZERO ISZERO MUL OR SWAP1 SSTORE POP DUP3 PUSH32 0xEB7ECC3AA4DD407C7207677A2CBF861441D5C5E6C0DC70AD9692A980385C20D6 PUSH1 0x40 MLOAD PUSH1 0x40 MLOAD DUP1 SWAP2 SUB SWAP1 LOG2 POP POP POP JUMP JUMPDEST PUSH0 DUP1 SLOAD SWAP1 PUSH2 0x100 EXP SWAP1 DIV PUSH20 0xFFFFFFFFFFFFFFFFFFFFFFFFFFFFFFFFFFFFFFFF AND PUSH20 0xFFFFFFFFFFFFFFFFFFFFFFFFFFFFFFFFFFFFFFFF AND CALLER PUSH20 0xFFFFFFFFFFFFFFFFFFFFFFFFFFFFFFFFFFFFFFFF AND EQ PUSH2 0xFE2 JUMPI PUSH1 0x40 MLOAD PUSH32 0x8C379A000000000000000000000000000000000000000000000000000000000 DUP2 MSTORE PUSH1 0x4 ADD PUSH2 0xFD9 SWAP1 PUSH2 0x3331 JUMP JUMPDEST PUSH1 0x40 MLOAD DUP1 SWAP2 SUB SWAP1 REVERT JUMPDEST PUSH1 0x2 DUP5 PUSH1 0xFF AND LT ISZERO DUP1 ISZERO PUSH2 0xFFA JUMPI POP PUSH1 0x5 DUP5 PUSH1 0xFF AND GT ISZERO JUMPDEST PUSH2 0x1039 JUMPI PUSH1 0x40 MLOAD PUSH32 0x8C379A000000000000000000000000000000000000000000000000000000000 DUP2 MSTORE PUSH1 0x4 ADD PUSH2 0x1030 SWAP1 PUSH2 0x3399 JUMP JUMPDEST PUSH1 0x40 MLOAD DUP1 SWAP2 SUB SWAP1 REVERT JUMPDEST DUP4 PUSH1 0xFF AND DUP4 DUP4 SWAP1 POP EQ PUSH2 0x1081 JUMPI PUSH1 0x40 MLOAD PUSH32 0x8C379A000000000000000000000000000000000000000000000000000000000 DUP2 MSTORE PUSH1 0x4 ADD PUSH2 0x1078 SWAP1 PUSH2 0x3401 JUMP JUMPDEST PUSH1 0x40 MLOAD DUP1 SWAP2 SUB SWAP1 REVERT JUMPDEST PUSH0 PUSH1 0x1 SLOAD SWAP1 POP PUSH1 0x1 PUSH0 DUP2 SLOAD DUP1 SWAP3 SWAP2 SWAP1 PUSH2 0x1099 SWAP1 PUSH2 0x341F JUMP JUMPDEST SWAP2 SWAP1 POP SSTORE POP PUSH0 PUSH1 0x2 PUSH0 DUP4 DUP2 MSTORE PUSH1 0x20 ADD SWAP1 DUP2 MSTORE PUSH1 0x20 ADD PUSH0 KECCAK256 SWAP1 POP DUP2 DUP2 PUSH0 ADD DUP2 SWAP1 SSTORE POP DUP8 DUP8 DUP3 PUSH1 0x1 ADD SWAP2 DUP3 PUSH2 0x10CD SWAP3 SWAP2 SWAP1 PUSH2 0x360D JUMP JUMPDEST POP DUP3 DUP2 PUSH1 0x4 ADD DUP2 SWAP1 SSTORE POP CALLER DUP2 PUSH1 0x7 ADD PUSH0 PUSH2 0x100 EXP DUP2 SLOAD DUP2 PUSH20 0xFFFFFFFFFFFFFFFFFFFFFFFFFFFFFFFFFFFFFFFF MUL NOT AND SWAP1 DUP4 PUSH20 0xFFFFFFFFFFFFFFFFFFFFFFFFFFFFFFFFFFFFFFFF AND MUL OR SWAP1 SSTORE POP DUP6 PUSH1 0xFF AND PUSH8 0xFFFFFFFFFFFFFFFF DUP2 GT ISZERO PUSH2 0x1136 JUMPI PUSH2 0x1135 PUSH2 0x3064 JUMP JUMPDEST JUMPDEST PUSH1 0x40 MLOAD SWAP1 DUP1 DUP3 MSTORE DUP1 PUSH1 0x20 MUL PUSH1 0x20 ADD DUP3 ADD PUSH1 0x40 MSTORE DUP1 ISZERO PUSH2 0x1164 JUMPI DUP2 PUSH1 0x20 ADD PUSH1 0x20 DUP3 MUL DUP1 CALLDATASIZE DUP4 CALLDATACOPY DUP1 DUP3 ADD SWAP2 POP POP SWAP1 POP JUMPDEST POP DUP2 PUSH1 0x3 ADD SWAP1 DUP1 MLOAD SWAP1 PUSH1 0x20 ADD SWAP1 PUSH2 0x117C SWAP3 SWAP2 SWAP1 PUSH2 0x229D JUMP JUMPDEST POP PUSH0 JUMPDEST DUP7 PUSH1 0xFF AND DUP2 PUSH1 0xFF AND LT ISZERO PUSH2 0x11FD JUMPI DUP2 PUSH1 0x2 ADD DUP7 DUP7 DUP4 PUSH1 0xFF AND DUP2 DUP2 LT PUSH2 0x11A7 JUMPI PUSH2 0x11A6 PUSH2 0x2CCD JUMP JUMPDEST JUMPDEST SWAP1 POP PUSH1 0x20 MUL DUP2 ADD SWAP1 PUSH2 0x11B9 SWAP2 SWAP1 PUSH2 0x36E6 JUMP JUMPDEST SWAP1 SWAP2 DUP1 PUSH1 0x1 DUP2 SLOAD ADD DUP1 DUP3 SSTORE DUP1 SWAP2 POP POP PUSH1 0x1 SWAP1 SUB SWAP1 PUSH0 MSTORE PUSH1 0x20 PUSH0 KECCAK256 ADD PUSH0 SWAP1 SWAP2 SWAP3 SWAP1 SWAP2 SWAP3 SWAP1 SWAP2 SWAP3 SWAP1 SWAP2 SWAP3 POP SWAP2 DUP3 PUSH2 0x11EF SWAP3 SWAP2 SWAP1 PUSH2 0x360D JUMP JUMPDEST POP DUP1 DUP1 PUSH1 0x1 ADD SWAP2 POP POP PUSH2 0x117F JUMP JUMPDEST POP DUP2 PUSH32 0x97AF99D2C63F75AD7BD47985B34D10E40F7D6FE118CE9F3B2BE759A8E1D65E45 CALLER DUP11 DUP11 DUP10 DUP10 DUP10 PUSH1 0x40 MLOAD PUSH2 0x1238 SWAP7 SWAP6 SWAP5 SWAP4 SWAP3 SWAP2 SWAP1 PUSH2 0x38BA JUMP JUMPDEST PUSH1 0x40 MLOAD DUP1 SWAP2 SUB SWAP1 LOG2 POP POP POP POP POP POP POP POP JUMP JUMPDEST PUSH1 0x60 DUP1 PUSH1 0x60 DUP1 PUSH1 0x60 PUSH0 DUP1 PUSH1 0x1 SWAP1 POP JUMPDEST PUSH1 0x1 SLOAD DUP2 LT ISZERO PUSH2 0x12AB JUMPI PUSH0 PUSH1 0x2 PUSH0 DUP4 DUP2 MSTORE PUSH1 0x20 ADD SWAP1 DUP2 MSTORE PUSH1 0x20 ADD PUSH0 KECCAK256 SWAP1 POP DUP1 PUSH1 0x7 ADD PUSH1 0x14 SWAP1 SLOAD SWAP1 PUSH2 0x100 EXP SWAP1 DIV PUSH1 0xFF AND ISZERO PUSH2 0x129D JUMPI DUP3 DUP1 PUSH2 0x1299 SWAP1 PUSH2 0x341F JUMP JUMPDEST SWAP4 POP POP JUMPDEST POP DUP1 DUP1 PUSH1 0x1 ADD SWAP2 POP POP PUSH2 0x1259 JUMP JUMPDEST POP DUP1 PUSH8 0xFFFFFFFFFFFFFFFF DUP2 GT ISZERO PUSH2 0x12C6 JUMPI PUSH2 0x12C5 PUSH2 0x3064 JUMP JUMPDEST JUMPDEST PUSH1 0x40 MLOAD SWAP1 DUP1 DUP3 MSTORE DUP1 PUSH1 0x20 MUL PUSH1 0x20 ADD DUP3 ADD PUSH1 0x40 MSTORE DUP1 ISZERO PUSH2 0x12F4 JUMPI DUP2 PUSH1 0x20 ADD PUSH1 0x20 DUP3 MUL DUP1 CALLDATASIZE DUP4 CALLDATACOPY DUP1 DUP3 ADD SWAP2 POP POP SWAP1 POP JUMPDEST POP SWAP6 POP DUP1 PUSH8 0xFFFFFFFFFFFFFFFF DUP2 GT ISZERO PUSH2 0x1311 JUMPI PUSH2 0x1310 PUSH2 0x3064 JUMP JUMPDEST JUMPDEST PUSH1 0x40 MLOAD SWAP1 DUP1 DUP3 MSTORE DUP1 PUSH1 0x20 MUL PUSH1 0x20 ADD DUP3 ADD PUSH1 0x40 MSTORE DUP1 ISZERO PUSH2 0x1344 JUMPI DUP2 PUSH1 0x20 ADD JUMPDEST PUSH1 0x60 DUP2 MSTORE PUSH1 0x20 ADD SWAP1 PUSH1 0x1 SWAP1 SUB SWAP1 DUP2 PUSH2 0x132F JUMPI SWAP1 POP JUMPDEST POP SWAP5 POP DUP1 PUSH8 0xFFFFFFFFFFFFFFFF DUP2 GT ISZERO PUSH2 0x1361 JUMPI PUSH2 0x1360 PUSH2 0x3064 JUMP JUMPDEST JUMPDEST PUSH1 0x40 MLOAD SWAP1 DUP1 DUP3 MSTORE DUP1 PUSH1 0x20 MUL PUSH1 0x20 ADD DUP3 ADD PUSH1 0x40 MSTORE DUP1 ISZERO PUSH2 0x1394 JUMPI DUP2 PUSH1 0x20 ADD JUMPDEST PUSH1 0x60 DUP2 MSTORE PUSH1 0x20 ADD SWAP1 PUSH1 0x1 SWAP1 SUB SWAP1 DUP2 PUSH2 0x137F JUMPI SWAP1 POP JUMPDEST POP SWAP4 POP DUP1 PUSH8 0xFFFFFFFFFFFFFFFF DUP2 GT ISZERO PUSH2 0x13B1 JUMPI PUSH2 0x13B0 PUSH2 0x3064 JUMP JUMPDEST JUMPDEST PUSH1 0x40 MLOAD SWAP1 DUP1 DUP3 MSTORE DUP1 PUSH1 0x20 MUL PUSH1 0x20 ADD DUP3 ADD PUSH1 0x40 MSTORE DUP1 ISZERO PUSH2 0x13DF JUMPI DUP2 PUSH1 0x20 ADD PUSH1 0x20 DUP3 MUL DUP1 CALLDATASIZE DUP4 CALLDATACOPY DUP1 DUP3 ADD SWAP2 POP POP SWAP1 POP JUMPDEST POP SWAP3 POP DUP1 PUSH8 0xFFFFFFFFFFFFFFFF DUP2 GT ISZERO PUSH2 0x13FC JUMPI PUSH2 0x13FB PUSH2 0x3064 JUMP JUMPDEST JUMPDEST PUSH1 0x40 MLOAD SWAP1 DUP1 DUP3 MSTORE DUP1 PUSH1 0x20 MUL PUSH1 0x20 ADD DUP3 ADD PUSH1 0x40 MSTORE DUP1 ISZERO PUSH2 0x142A JUMPI DUP2 PUSH1 0x20 ADD PUSH1 0x20 DUP3 MUL DUP1 CALLDATASIZE DUP4 CALLDATACOPY DUP1 DUP3 ADD SWAP2 POP POP SWAP1 POP JUMPDEST POP SWAP2 POP PUSH0 DUP1 PUSH1 0x1 SWAP1 POP JUMPDEST PUSH1 0x1 SLOAD DUP2 LT ISZERO PUSH2 0x16D4 JUMPI PUSH0 PUSH1 0x2 PUSH0 DUP4 DUP2 MSTORE PUSH1 0x20 ADD SWAP1 DUP2 MSTORE PUSH1 0x20 ADD PUSH0 KECCAK256 SWAP1 POP DUP1 PUSH1 0x7 ADD PUSH1 0x14 SWAP1 SLOAD SWAP1 PUSH2 0x100 EXP SWAP1 DIV PUSH1 0xFF AND ISZERO PUSH2 0x16C6 JUMPI DUP1 PUSH0 ADD SLOAD DUP10 DUP5 DUP2 MLOAD DUP2 LT PUSH2 0x1480 JUMPI PUSH2 0x147F PUSH2 0x2CCD JUMP JUMPDEST JUMPDEST PUSH1 0x20 MUL PUSH1 0x20 ADD ADD DUP2 DUP2 MSTORE POP POP DUP1 PUSH1 0x1 ADD DUP1 SLOAD PUSH2 0x149B SWAP1 PUSH2 0x3034 JUMP JUMPDEST DUP1 PUSH1 0x1F ADD PUSH1 0x20 DUP1 SWAP2 DIV MUL PUSH1 0x20 ADD PUSH1 0x40 MLOAD SWAP1 DUP2 ADD PUSH1 0x40 MSTORE DUP1 SWAP3 SWAP2 SWAP1 DUP2 DUP2 MSTORE PUSH1 0x20 ADD DUP3 DUP1 SLOAD PUSH2 0x14C7 SWAP1 PUSH2 0x3034 JUMP JUMPDEST DUP1 ISZERO PUSH2 0x1512 JUMPI DUP1 PUSH1 0x1F LT PUSH2 0x14E9 JUMPI PUSH2 0x100 DUP1 DUP4 SLOAD DIV MUL DUP4 MSTORE SWAP2 PUSH1 0x20 ADD SWAP2 PUSH2 0x1512 JUMP JUMPDEST DUP3 ADD SWAP2 SWAP1 PUSH0 MSTORE PUSH1 0x20 PUSH0 KECCAK256 SWAP1 JUMPDEST DUP2 SLOAD DUP2 MSTORE SWAP1 PUSH1 0x1 ADD SWAP1 PUSH1 0x20 ADD DUP1 DUP4 GT PUSH2 0x14F5 JUMPI DUP3 SWAP1 SUB PUSH1 0x1F AND DUP3 ADD SWAP2 JUMPDEST POP POP POP POP POP DUP9 DUP5 DUP2 MLOAD DUP2 LT PUSH2 0x152A JUMPI PUSH2 0x1529 PUSH2 0x2CCD JUMP JUMPDEST JUMPDEST PUSH1 0x20 MUL PUSH1 0x20 ADD ADD DUP2 SWAP1 MSTORE POP DUP1 PUSH1 0x2 ADD DUP1 SLOAD DUP1 PUSH1 0x20 MUL PUSH1 0x20 ADD PUSH1 0x40 MLOAD SWAP1 DUP2 ADD PUSH1 0x40 MSTORE DUP1 SWAP3 SWAP2 SWAP1 DUP2 DUP2 MSTORE PUSH1 0x20 ADD PUSH0 SWAP1 JUMPDEST DUP3 DUP3 LT ISZERO PUSH2 0x1600 JUMPI DUP4 DUP3 SWAP1 PUSH0 MSTORE PUSH1 0x20 PUSH0 KECCAK256 ADD DUP1 SLOAD PUSH2 0x1575 SWAP1 PUSH2 0x3034 JUMP JUMPDEST DUP1 PUSH1 0x1F ADD PUSH1 0x20 DUP1 SWAP2 DIV MUL PUSH1 0x20 ADD PUSH1 0x40 MLOAD SWAP1 DUP2 ADD PUSH1 0x40 MSTORE DUP1 SWAP3 SWAP2 SWAP1 DUP2 DUP2 MSTORE PUSH1 0x20 ADD DUP3 DUP1 SLOAD PUSH2 0x15A1 SWAP1 PUSH2 0x3034 JUMP JUMPDEST DUP1 ISZERO PUSH2 0x15EC JUMPI DUP1 PUSH1 0x1F LT PUSH2 0x15C3 JUMPI PUSH2 0x100 DUP1 DUP4 SLOAD DIV MUL DUP4 MSTORE SWAP2 PUSH1 0x20 ADD SWAP2 PUSH2 0x15EC JUMP JUMPDEST DUP3 ADD SWAP2 SWAP1 PUSH0 MSTORE PUSH1 0x20 PUSH0 KECCAK256 SWAP1 JUMPDEST DUP2 SLOAD DUP2 MSTORE SWAP1 PUSH1 0x1 ADD SWAP1 PUSH1 0x20 ADD DUP1 DUP4 GT PUSH2 0x15CF JUMPI DUP3 SWAP1 SUB PUSH1 0x1F AND DUP3 ADD SWAP2 JUMPDEST POP POP POP POP POP DUP2 MSTORE PUSH1 0x20 ADD SWAP1 PUSH1 0x1 ADD SWAP1 PUSH2 0x1558 JUMP JUMPDEST POP POP POP POP DUP8 DUP5 DUP2 MLOAD DUP2 LT PUSH2 0x1617 JUMPI PUSH2 0x1616 PUSH2 0x2CCD JUMP JUMPDEST JUMPDEST PUSH1 0x20 MUL PUSH1 0x20 ADD ADD DUP2 SWAP1 MSTORE POP DUP1 PUSH1 0x4 ADD SLOAD DUP7 DUP5 DUP2 MLOAD DUP2 LT PUSH2 0x163A JUMPI PUSH2 0x1639 PUSH2 0x2CCD JUMP JUMPDEST JUMPDEST PUSH1 0x20 MUL PUSH1 0x20 ADD ADD DUP2 DUP2 MSTORE POP POP DUP1 PUSH1 0x7 ADD PUSH0 SWAP1 SLOAD SWAP1 PUSH2 0x100 EXP SWAP1 DIV PUSH20 0xFFFFFFFFFFFFFFFFFFFFFFFFFFFFFFFFFFFFFFFF AND DUP6 DUP5 DUP2 MLOAD DUP2 LT PUSH2 0x167D JUMPI PUSH2 0x167C PUSH2 0x2CCD JUMP JUMPDEST JUMPDEST PUSH1 0x20 MUL PUSH1 0x20 ADD ADD SWAP1 PUSH20 0xFFFFFFFFFFFFFFFFFFFFFFFFFFFFFFFFFFFFFFFF AND SWAP1 DUP2 PUSH20 0xFFFFFFFFFFFFFFFFFFFFFFFFFFFFFFFFFFFFFFFF AND DUP2 MSTORE POP POP DUP3 DUP1 PUSH2 0x16C2 SWAP1 PUSH2 0x341F JUMP JUMPDEST SWAP4 POP POP JUMPDEST POP DUP1 DUP1 PUSH1 0x1 ADD SWAP2 POP POP PUSH2 0x1434 JUMP JUMPDEST POP POP POP SWAP1 SWAP2 SWAP3 SWAP4 SWAP5 JUMP JUMPDEST DUP2 PUSH1 0x2 PUSH0 DUP3 DUP2 MSTORE PUSH1 0x20 ADD SWAP1 DUP2 MSTORE PUSH1 0x20 ADD PUSH0 KECCAK256 PUSH1 0x7 ADD PUSH0 SWAP1 SLOAD SWAP1 PUSH2 0x100 EXP SWAP1 DIV PUSH20 0xFFFFFFFFFFFFFFFFFFFFFFFFFFFFFFFFFFFFFFFF AND PUSH20 0xFFFFFFFFFFFFFFFFFFFFFFFFFFFFFFFFFFFFFFFF AND CALLER PUSH20 0xFFFFFFFFFFFFFFFFFFFFFFFFFFFFFFFFFFFFFFFF AND EQ PUSH2 0x1780 JUMPI PUSH1 0x40 MLOAD PUSH32 0x8C379A000000000000000000000000000000000000000000000000000000000 DUP2 MSTORE PUSH1 0x4 ADD PUSH2 0x1777 SWAP1 PUSH2 0x2C47 JUMP JUMPDEST PUSH1 0x40 MLOAD DUP1 SWAP2 SUB SWAP1 REVERT JUMPDEST PUSH1 0x1 DUP3 PUSH1 0xFF AND LT ISZERO DUP1 ISZERO PUSH2 0x17AE JUMPI POP PUSH1 0x2 PUSH0 DUP5 DUP2 MSTORE PUSH1 0x20 ADD SWAP1 DUP2 MSTORE PUSH1 0x20 ADD PUSH0 KECCAK256 PUSH1 0x2 ADD DUP1 SLOAD SWAP1 POP DUP3 PUSH1 0xFF AND GT ISZERO JUMPDEST PUSH2 0x17ED JUMPI PUSH1 0x40 MLOAD PUSH32 0x8C379A000000000000000000000000000000000000000000000000000000000 DUP2 MSTORE PUSH1 0x4 ADD PUSH2 0x17E4 SWAP1 PUSH2 0x3959 JUMP JUMPDEST PUSH1 0x40 MLOAD DUP1 SWAP2 SUB SWAP1 REVERT JUMPDEST PUSH0 PUSH1 0x2 PUSH0 DUP6 DUP2 MSTORE PUSH1 0x20 ADD SWAP1 DUP2 MSTORE PUSH1 0x20 ADD PUSH0 KECCAK256 SWAP1 POP DUP1 PUSH1 0x7 ADD PUSH1 0x14 SWAP1 SLOAD SWAP1 PUSH2 0x100 EXP SWAP1 DIV PUSH1 0xFF AND ISZERO DUP1 ISZERO PUSH2 0x182F JUMPI POP DUP1 PUSH1 0x7 ADD PUSH1 0x15 SWAP1 SLOAD SWAP1 PUSH2 0x100 EXP SWAP1 DIV PUSH1 0xFF AND ISZERO JUMPDEST PUSH2 0x186E JUMPI PUSH1 0x40 MLOAD PUSH32 0x8C379A000000000000000000000000000000000000000000000000000000000 DUP2 MSTORE PUSH1 0x4 ADD PUSH2 0x1865 SWAP1 PUSH2 0x39E7 JUMP JUMPDEST PUSH1 0x40 MLOAD DUP1 SWAP2 SUB SWAP1 REVERT JUMPDEST PUSH0 PUSH20 0x10700808D59D2BB92257FCAFACFE8E5BFF7AB87 SWAP1 POP PUSH0 DUP1 JUMPDEST DUP4 PUSH1 0x3 ADD DUP1 SLOAD SWAP1 POP DUP2 PUSH1 0xFF AND LT ISZERO PUSH2 0x18DD JUMPI DUP4 PUSH1 0x3 ADD DUP2 PUSH1 0xFF AND DUP2 SLOAD DUP2 LT PUSH2 0x18B4 JUMPI PUSH2 0x18B3 PUSH2 0x2CCD JUMP JUMPDEST JUMPDEST SWAP1 PUSH0 MSTORE PUSH1 0x20 PUSH0 KECCAK256 ADD SLOAD DUP3 PUSH2 0x18C8 SWAP2 SWAP1 PUSH2 0x2D27 JUMP JUMPDEST SWAP2 POP DUP1 DUP1 PUSH2 0x18D5 SWAP1 PUSH2 0x2D5A JUMP JUMPDEST SWAP2 POP POP PUSH2 0x1889 JUMP JUMPDEST POP PUSH0 DUP4 PUSH1 0x3 ADD PUSH1 0x1 DUP8 PUSH2 0x18F0 SWAP2 SWAP1 PUSH2 0x3266 JUMP JUMPDEST PUSH1 0xFF AND DUP2 SLOAD DUP2 LT PUSH2 0x1904 JUMPI PUSH2 0x1903 PUSH2 0x2CCD JUMP JUMPDEST JUMPDEST SWAP1 PUSH0 MSTORE PUSH1 0x20 PUSH0 KECCAK256 ADD SLOAD SWAP1 POP PUSH0 PUSH1 0x64 DUP4 PUSH2 0x191D SWAP2 SWAP1 PUSH2 0x2DAF JUMP JUMPDEST SWAP1 POP PUSH0 DUP2 SWAP1 POP PUSH0 DUP2 DUP4 DUP7 PUSH2 0x1931 SWAP2 SWAP1 PUSH2 0x2DDF JUMP JUMPDEST PUSH2 0x193B SWAP2 SWAP1 PUSH2 0x2DDF JUMP JUMPDEST SWAP1 POP DUP6 PUSH20 0xFFFFFFFFFFFFFFFFFFFFFFFFFFFFFFFFFFFFFFFF AND PUSH4 0xA9059CBB PUSH20 0x9B63FA365019DD7BDF8CBED2823480F808391970 DUP6 PUSH1 0x40 MLOAD DUP4 PUSH4 0xFFFFFFFF AND PUSH1 0xE0 SHL DUP2 MSTORE PUSH1 0x4 ADD PUSH2 0x198C SWAP3 SWAP2 SWAP1 PUSH2 0x2E12 JUMP JUMPDEST PUSH1 0x20 PUSH1 0x40 MLOAD DUP1 DUP4 SUB DUP2 PUSH0 DUP8 GAS CALL ISZERO DUP1 ISZERO PUSH2 0x19A8 JUMPI RETURNDATASIZE PUSH0 DUP1 RETURNDATACOPY RETURNDATASIZE PUSH0 REVERT JUMPDEST POP POP POP POP PUSH1 0x40 MLOAD RETURNDATASIZE PUSH1 0x1F NOT PUSH1 0x1F DUP3 ADD AND DUP3 ADD DUP1 PUSH1 0x40 MSTORE POP DUP2 ADD SWAP1 PUSH2 0x19CC SWAP2 SWAP1 PUSH2 0x2E63 JUMP JUMPDEST PUSH2 0x1A0B JUMPI PUSH1 0x40 MLOAD PUSH32 0x8C379A000000000000000000000000000000000000000000000000000000000 DUP2 MSTORE PUSH1 0x4 ADD PUSH2 0x1A02 SWAP1 PUSH2 0x2ED8 JUMP JUMPDEST PUSH1 0x40 MLOAD DUP1 SWAP2 SUB SWAP1 REVERT JUMPDEST DUP6 PUSH20 0xFFFFFFFFFFFFFFFFFFFFFFFFFFFFFFFFFFFFFFFF AND PUSH4 0xA9059CBB DUP9 PUSH1 0x7 ADD PUSH0 SWAP1 SLOAD SWAP1 PUSH2 0x100 EXP SWAP1 DIV PUSH20 0xFFFFFFFFFFFFFFFFFFFFFFFFFFFFFFFFFFFFFFFF AND DUP5 PUSH1 0x40 MLOAD DUP4 PUSH4 0xFFFFFFFF AND PUSH1 0xE0 SHL DUP2 MSTORE PUSH1 0x4 ADD PUSH2 0x1A69 SWAP3 SWAP2 SWAP1 PUSH2 0x2E12 JUMP JUMPDEST PUSH1 0x20 PUSH1 0x40 MLOAD DUP1 DUP4 SUB DUP2 PUSH0 DUP8 GAS CALL ISZERO DUP1 ISZERO PUSH2 0x1A85 JUMPI RETURNDATASIZE PUSH0 DUP1 RETURNDATACOPY RETURNDATASIZE PUSH0 REVERT JUMPDEST POP POP POP POP PUSH1 0x40 MLOAD RETURNDATASIZE PUSH1 0x1F NOT PUSH1 0x1F DUP3 ADD AND DUP3 ADD DUP1 PUSH1 0x40 MSTORE POP DUP2 ADD SWAP1 PUSH2 0x1AA9 SWAP2 SWAP1 PUSH2 0x2E63 JUMP JUMPDEST PUSH2 0x1AE8 JUMPI PUSH1 0x40 MLOAD PUSH32 0x8C379A000000000000000000000000000000000000000000000000000000000 DUP2 MSTORE PUSH1 0x4 ADD PUSH2 0x1ADF SWAP1 PUSH2 0x2F40 JUMP JUMPDEST PUSH1 0x40 MLOAD DUP1 SWAP2 SUB SWAP1 REVERT JUMPDEST PUSH0 JUMPDEST DUP8 PUSH1 0x6 ADD DUP1 SLOAD SWAP1 POP DUP2 LT ISZERO PUSH2 0x1D21 JUMPI PUSH0 DUP9 PUSH1 0x6 ADD DUP3 DUP2 SLOAD DUP2 LT PUSH2 0x1B10 JUMPI PUSH2 0x1B0F PUSH2 0x2CCD JUMP JUMPDEST JUMPDEST SWAP1 PUSH0 MSTORE PUSH1 0x20 PUSH0 KECCAK256 ADD PUSH0 SWAP1 SLOAD SWAP1 PUSH2 0x100 EXP SWAP1 DIV PUSH20 0xFFFFFFFFFFFFFFFFFFFFFFFFFFFFFFFFFFFFFFFF AND SWAP1 POP PUSH0 DUP10 PUSH1 0x5 ADD PUSH0 DUP4 PUSH20 0xFFFFFFFFFFFFFFFFFFFFFFFFFFFFFFFFFFFFFFFF AND PUSH20 0xFFFFFFFFFFFFFFFFFFFFFFFFFFFFFFFFFFFFFFFF AND DUP2 MSTORE PUSH1 0x20 ADD SWAP1 DUP2 MSTORE PUSH1 0x20 ADD PUSH0 KECCAK256 SWAP1 POP PUSH0 JUMPDEST DUP2 DUP1 SLOAD SWAP1 POP DUP2 PUSH1 0xFF AND LT ISZERO PUSH2 0x1D11 JUMPI PUSH0 PUSH20 0xFFFFFFFFFFFFFFFFFFFFFFFFFFFFFFFFFFFFFFFF AND DUP3 DUP3 PUSH1 0xFF AND DUP2 SLOAD DUP2 LT PUSH2 0x1BBA JUMPI PUSH2 0x1BB9 PUSH2 0x2CCD JUMP JUMPDEST JUMPDEST SWAP1 PUSH0 MSTORE PUSH1 0x20 PUSH0 KECCAK256 SWAP1 PUSH1 0x2 MUL ADD PUSH0 ADD PUSH0 SWAP1 SLOAD SWAP1 PUSH2 0x100 EXP SWAP1 DIV PUSH20 0xFFFFFFFFFFFFFFFFFFFFFFFFFFFFFFFFFFFFFFFF AND PUSH20 0xFFFFFFFFFFFFFFFFFFFFFFFFFFFFFFFFFFFFFFFF AND EQ PUSH2 0x1CFE JUMPI PUSH0 DUP9 DUP7 DUP5 DUP5 PUSH1 0xFF AND DUP2 SLOAD DUP2 LT PUSH2 0x1C1C JUMPI PUSH2 0x1C1B PUSH2 0x2CCD JUMP JUMPDEST JUMPDEST SWAP1 PUSH0 MSTORE PUSH1 0x20 PUSH0 KECCAK256 SWAP1 PUSH1 0x2 MUL ADD PUSH1 0x1 ADD SLOAD PUSH2 0x1C36 SWAP2 SWAP1 PUSH2 0x2F5E JUMP JUMPDEST PUSH2 0x1C40 SWAP2 SWAP1 PUSH2 0x2DAF JUMP JUMPDEST SWAP1 POP DUP11 PUSH20 0xFFFFFFFFFFFFFFFFFFFFFFFFFFFFFFFFFFFFFFFF AND PUSH4 0xA9059CBB DUP6 DUP4 PUSH1 0x40 MLOAD DUP4 PUSH4 0xFFFFFFFF AND PUSH1 0xE0 SHL DUP2 MSTORE PUSH1 0x4 ADD PUSH2 0x1C7D SWAP3 SWAP2 SWAP1 PUSH2 0x2E12 JUMP JUMPDEST PUSH1 0x20 PUSH1 0x40 MLOAD DUP1 DUP4 SUB DUP2 PUSH0 DUP8 GAS CALL ISZERO DUP1 ISZERO PUSH2 0x1C99 JUMPI RETURNDATASIZE PUSH0 DUP1 RETURNDATACOPY RETURNDATASIZE PUSH0 REVERT JUMPDEST POP POP POP POP PUSH1 0x40 MLOAD RETURNDATASIZE PUSH1 0x1F NOT PUSH1 0x1F DUP3 ADD AND DUP3 ADD DUP1 PUSH1 0x40 MSTORE POP DUP2 ADD SWAP1 PUSH2 0x1CBD SWAP2 SWAP1 PUSH2 0x2E63 JUMP JUMPDEST PUSH2 0x1CFC JUMPI PUSH1 0x40 MLOAD PUSH32 0x8C379A000000000000000000000000000000000000000000000000000000000 DUP2 MSTORE PUSH1 0x4 ADD PUSH2 0x1CF3 SWAP1 PUSH2 0x3A4F JUMP JUMPDEST PUSH1 0x40 MLOAD DUP1 SWAP2 SUB SWAP1 REVERT JUMPDEST POP JUMPDEST DUP1 DUP1 PUSH2 0x1D09 SWAP1 PUSH2 0x2D5A JUMP JUMPDEST SWAP2 POP POP PUSH2 0x1B7E JUMP JUMPDEST POP POP POP DUP1 DUP1 PUSH1 0x1 ADD SWAP2 POP POP PUSH2 0x1AEA JUMP JUMPDEST POP PUSH1 0x1 DUP8 PUSH1 0x7 ADD PUSH1 0x15 PUSH2 0x100 EXP DUP2 SLOAD DUP2 PUSH1 0xFF MUL NOT AND SWAP1 DUP4 ISZERO ISZERO MUL OR SWAP1 SSTORE POP DUP9 DUP8 PUSH1 0x7 ADD PUSH1 0x16 PUSH2 0x100 EXP DUP2 SLOAD DUP2 PUSH1 0xFF MUL NOT AND SWAP1 DUP4 PUSH1 0xFF AND MUL OR SWAP1 SSTORE POP DUP10 PUSH32 0x28C9277C6636BF00B5D22B2287C0F37926AE23A6825D5801E10A7183BB69045C DUP11 PUSH1 0x40 MLOAD PUSH2 0x1D8C SWAP2 SWAP1 PUSH2 0x3A6D JUMP JUMPDEST PUSH1 0x40 MLOAD DUP1 SWAP2 SUB SWAP1 LOG2 POP POP POP POP POP POP POP POP POP POP JUMP JUMPDEST PUSH1 0x60 DUP1 PUSH1 0x60 DUP1 PUSH0 DUP1 PUSH1 0x1 SWAP1 POP JUMPDEST PUSH1 0x1 SLOAD DUP2 LT ISZERO PUSH2 0x1E4C JUMPI PUSH0 PUSH1 0x2 PUSH0 DUP4 DUP2 MSTORE PUSH1 0x20 ADD SWAP1 DUP2 MSTORE PUSH1 0x20 ADD PUSH0 KECCAK256 SWAP1 POP DUP1 PUSH1 0x7 ADD PUSH1 0x14 SWAP1 SLOAD SWAP1 PUSH2 0x100 EXP SWAP1 DIV PUSH1 0xFF AND DUP1 ISZERO PUSH2 0x1E2A JUMPI POP PUSH0 DUP2 PUSH1 0x5 ADD PUSH0 DUP11 PUSH20 0xFFFFFFFFFFFFFFFFFFFFFFFFFFFFFFFFFFFFFFFF AND PUSH20 0xFFFFFFFFFFFFFFFFFFFFFFFFFFFFFFFFFFFFFFFF AND DUP2 MSTORE PUSH1 0x20 ADD SWAP1 DUP2 MSTORE PUSH1 0x20 ADD PUSH0 KECCAK256 DUP1 SLOAD SWAP1 POP GT JUMPDEST ISZERO PUSH2 0x1E3E JUMPI DUP3 DUP1 PUSH2 0x1E3A SWAP1 PUSH2 0x341F JUMP JUMPDEST SWAP4 POP POP JUMPDEST POP DUP1 DUP1 PUSH1 0x1 ADD SWAP2 POP POP PUSH2 0x1DAD JUMP JUMPDEST POP DUP1 PUSH8 0xFFFFFFFFFFFFFFFF DUP2 GT ISZERO PUSH2 0x1E67 JUMPI PUSH2 0x1E66 PUSH2 0x3064 JUMP JUMPDEST JUMPDEST PUSH1 0x40 MLOAD SWAP1 DUP1 DUP3 MSTORE DUP1 PUSH1 0x20 MUL PUSH1 0x20 ADD DUP3 ADD PUSH1 0x40 MSTORE DUP1 ISZERO PUSH2 0x1E95 JUMPI DUP2 PUSH1 0x20 ADD PUSH1 0x20 DUP3 MUL DUP1 CALLDATASIZE DUP4 CALLDATACOPY DUP1 DUP3 ADD SWAP2 POP POP SWAP1 POP JUMPDEST POP SWAP5 POP DUP1 PUSH8 0xFFFFFFFFFFFFFFFF DUP2 GT ISZERO PUSH2 0x1EB2 JUMPI PUSH2 0x1EB1 PUSH2 0x3064 JUMP JUMPDEST JUMPDEST PUSH1 0x40 MLOAD SWAP1 DUP1 DUP3 MSTORE DUP1 PUSH1 0x20 MUL PUSH1 0x20 ADD DUP3 ADD PUSH1 0x40 MSTORE DUP1 ISZERO PUSH2 0x1EE5 JUMPI DUP2 PUSH1 0x20 ADD JUMPDEST PUSH1 0x60 DUP2 MSTORE PUSH1 0x20 ADD SWAP1 PUSH1 0x1 SWAP1 SUB SWAP1 DUP2 PUSH2 0x1ED0 JUMPI SWAP1 POP JUMPDEST POP SWAP4 POP DUP1 PUSH8 0xFFFFFFFFFFFFFFFF DUP2 GT ISZERO PUSH2 0x1F02 JUMPI PUSH2 0x1F01 PUSH2 0x3064 JUMP JUMPDEST JUMPDEST PUSH1 0x40 MLOAD SWAP1 DUP1 DUP3 MSTORE DUP1 PUSH1 0x20 MUL PUSH1 0x20 ADD DUP3 ADD PUSH1 0x40 MSTORE DUP1 ISZERO PUSH2 0x1F30 JUMPI DUP2 PUSH1 0x20 ADD PUSH1 0x20 DUP3 MUL DUP1 CALLDATASIZE DUP4 CALLDATACOPY DUP1 DUP3 ADD SWAP2 POP POP SWAP1 POP JUMPDEST POP SWAP3 POP DUP1 PUSH8 0xFFFFFFFFFFFFFFFF DUP2 GT ISZERO PUSH2 0x1F4D JUMPI PUSH2 0x1F4C PUSH2 0x3064 JUMP JUMPDEST JUMPDEST PUSH1 0x40 MLOAD SWAP1 DUP1 DUP3 MSTORE DUP1 PUSH1 0x20 MUL PUSH1 0x20 ADD DUP3 ADD PUSH1 0x40 MSTORE DUP1 ISZERO PUSH2 0x1F80 JUMPI DUP2 PUSH1 0x20 ADD JUMPDEST PUSH1 0x60 DUP2 MSTORE PUSH1 0x20 ADD SWAP1 PUSH1 0x1 SWAP1 SUB SWAP1 DUP2 PUSH2 0x1F6B JUMPI SWAP1 POP JUMPDEST POP SWAP2 POP PUSH0 DUP1 PUSH1 0x1 SWAP1 POP JUMPDEST PUSH1 0x1 SLOAD DUP2 LT ISZERO PUSH2 0x2293 JUMPI PUSH0 PUSH1 0x2 PUSH0 DUP4 DUP2 MSTORE PUSH1 0x20 ADD SWAP1 DUP2 MSTORE PUSH1 0x20 ADD PUSH0 KECCAK256 SWAP1 POP DUP1 PUSH1 0x7 ADD PUSH1 0x14 SWAP1 SLOAD SWAP1 PUSH2 0x100 EXP SWAP1 DIV PUSH1 0xFF AND DUP1 ISZERO PUSH2 0x2007 JUMPI POP PUSH0 DUP2 PUSH1 0x5 ADD PUSH0 DUP12 PUSH20 0xFFFFFFFFFFFFFFFFFFFFFFFFFFFFFFFFFFFFFFFF AND PUSH20 0xFFFFFFFFFFFFFFFFFFFFFFFFFFFFFFFFFFFFFFFF AND DUP2 MSTORE PUSH1 0x20 ADD SWAP1 DUP2 MSTORE PUSH1 0x20 ADD PUSH0 KECCAK256 DUP1 SLOAD SWAP1 POP GT JUMPDEST ISZERO PUSH2 0x2285 JUMPI DUP1 PUSH0 ADD SLOAD DUP9 DUP5 DUP2 MLOAD DUP2 LT PUSH2 0x2023 JUMPI PUSH2 0x2022 PUSH2 0x2CCD JUMP JUMPDEST JUMPDEST PUSH1 0x20 MUL PUSH1 0x20 ADD ADD DUP2 DUP2 MSTORE POP POP DUP1 PUSH1 0x1 ADD DUP1 SLOAD PUSH2 0x203E SWAP1 PUSH2 0x3034 JUMP JUMPDEST DUP1 PUSH1 0x1F ADD PUSH1 0x20 DUP1 SWAP2 DIV MUL PUSH1 0x20 ADD PUSH1 0x40 MLOAD SWAP1 DUP2 ADD PUSH1 0x40 MSTORE DUP1 SWAP3 SWAP2 SWAP1 DUP2 DUP2 MSTORE PUSH1 0x20 ADD DUP3 DUP1 SLOAD PUSH2 0x206A SWAP1 PUSH2 0x3034 JUMP JUMPDEST DUP1 ISZERO PUSH2 0x20B5 JUMPI DUP1 PUSH1 0x1F LT PUSH2 0x208C JUMPI PUSH2 0x100 DUP1 DUP4 SLOAD DIV MUL DUP4 MSTORE SWAP2 PUSH1 0x20 ADD SWAP2 PUSH2 0x20B5 JUMP JUMPDEST DUP3 ADD SWAP2 SWAP1 PUSH0 MSTORE PUSH1 0x20 PUSH0 KECCAK256 SWAP1 JUMPDEST DUP2 SLOAD DUP2 MSTORE SWAP1 PUSH1 0x1 ADD SWAP1 PUSH1 0x20 ADD DUP1 DUP4 GT PUSH2 0x2098 JUMPI DUP3 SWAP1 SUB PUSH1 0x1F AND DUP3 ADD SWAP2 JUMPDEST POP POP POP POP POP DUP8 DUP5 DUP2 MLOAD DUP2 LT PUSH2 0x20CD JUMPI PUSH2 0x20CC PUSH2 0x2CCD JUMP JUMPDEST JUMPDEST PUSH1 0x20 MUL PUSH1 0x20 ADD ADD DUP2 SWAP1 MSTORE POP PUSH0 DUP1 DUP3 PUSH1 0x5 ADD PUSH0 DUP13 PUSH20 0xFFFFFFFFFFFFFFFFFFFFFFFFFFFFFFFFFFFFFFFF AND PUSH20 0xFFFFFFFFFFFFFFFFFFFFFFFFFFFFFFFFFFFFFFFF AND DUP2 MSTORE PUSH1 0x20 ADD SWAP1 DUP2 MSTORE PUSH1 0x20 ADD PUSH0 KECCAK256 SWAP1 POP PUSH0 JUMPDEST DUP2 DUP1 SLOAD SWAP1 POP DUP2 LT ISZERO PUSH2 0x2166 JUMPI DUP2 DUP2 DUP2 SLOAD DUP2 LT PUSH2 0x213C JUMPI PUSH2 0x213B PUSH2 0x2CCD JUMP JUMPDEST JUMPDEST SWAP1 PUSH0 MSTORE PUSH1 0x20 PUSH0 KECCAK256 SWAP1 PUSH1 0x2 MUL ADD PUSH1 0x1 ADD SLOAD DUP4 PUSH2 0x2157 SWAP2 SWAP1 PUSH2 0x2D27 JUMP JUMPDEST SWAP3 POP DUP1 DUP1 PUSH1 0x1 ADD SWAP2 POP POP PUSH2 0x211D JUMP JUMPDEST POP DUP2 DUP9 DUP7 DUP2 MLOAD DUP2 LT PUSH2 0x217B JUMPI PUSH2 0x217A PUSH2 0x2CCD JUMP JUMPDEST JUMPDEST PUSH1 0x20 MUL PUSH1 0x20 ADD ADD DUP2 DUP2 MSTORE POP POP DUP3 PUSH1 0x2 ADD DUP1 SLOAD DUP1 PUSH1 0x20 MUL PUSH1 0x20 ADD PUSH1 0x40 MLOAD SWAP1 DUP2 ADD PUSH1 0x40 MSTORE DUP1 SWAP3 SWAP2 SWAP1 DUP2 DUP2 MSTORE PUSH1 0x20 ADD PUSH0 SWAP1 JUMPDEST DUP3 DUP3 LT ISZERO PUSH2 0x2252 JUMPI DUP4 DUP3 SWAP1 PUSH0 MSTORE PUSH1 0x20 PUSH0 KECCAK256 ADD DUP1 SLOAD PUSH2 0x21C7 SWAP1 PUSH2 0x3034 JUMP JUMPDEST DUP1 PUSH1 0x1F ADD PUSH1 0x20 DUP1 SWAP2 DIV MUL PUSH1 0x20 ADD PUSH1 0x40 MLOAD SWAP1 DUP2 ADD PUSH1 0x40 MSTORE DUP1 SWAP3 SWAP2 SWAP1 DUP2 DUP2 MSTORE PUSH1 0x20 ADD DUP3 DUP1 SLOAD PUSH2 0x21F3 SWAP1 PUSH2 0x3034 JUMP JUMPDEST DUP1 ISZERO PUSH2 0x223E JUMPI DUP1 PUSH1 0x1F LT PUSH2 0x2215 JUMPI PUSH2 0x100 DUP1 DUP4 SLOAD DIV MUL DUP4 MSTORE SWAP2 PUSH1 0x20 ADD SWAP2 PUSH2 0x223E JUMP JUMPDEST DUP3 ADD SWAP2 SWAP1 PUSH0 MSTORE PUSH1 0x20 PUSH0 KECCAK256 SWAP1 JUMPDEST DUP2 SLOAD DUP2 MSTORE SWAP1 PUSH1 0x1 ADD SWAP1 PUSH1 0x20 ADD DUP1 DUP4 GT PUSH2 0x2221 JUMPI DUP3 SWAP1 SUB PUSH1 0x1F AND DUP3 ADD SWAP2 JUMPDEST POP POP POP POP POP DUP2 MSTORE PUSH1 0x20 ADD SWAP1 PUSH1 0x1 ADD SWAP1 PUSH2 0x21AA JUMP JUMPDEST POP POP POP POP DUP8 DUP7 DUP2 MLOAD DUP2 LT PUSH2 0x2269 JUMPI PUSH2 0x2268 PUSH2 0x2CCD JUMP JUMPDEST JUMPDEST PUSH1 0x20 MUL PUSH1 0x20 ADD ADD DUP2 SWAP1 MSTORE POP DUP5 DUP1 PUSH2 0x227F SWAP1 PUSH2 0x341F JUMP JUMPDEST SWAP6 POP POP POP POP JUMPDEST POP DUP1 DUP1 PUSH1 0x1 ADD SWAP2 POP POP PUSH2 0x1F8A JUMP JUMPDEST POP POP POP SWAP2 SWAP4 POP SWAP2 SWAP4 JUMP JUMPDEST DUP3 DUP1 SLOAD DUP3 DUP3 SSTORE SWAP1 PUSH0 MSTORE PUSH1 0x20 PUSH0 KECCAK256 SWAP1 DUP2 ADD SWAP3 DUP3 ISZERO PUSH2 0x22D7 JUMPI SWAP2 PUSH1 0x20 MUL DUP3 ADD JUMPDEST DUP3 DUP2 GT ISZERO PUSH2 0x22D6 JUMPI DUP3 MLOAD DUP3 SSTORE SWAP2 PUSH1 0x20 ADD SWAP2 SWAP1 PUSH1 0x1 ADD SWAP1 PUSH2 0x22BB JUMP JUMPDEST JUMPDEST POP SWAP1 POP PUSH2 0x22E4 SWAP2 SWAP1 PUSH2 0x22E8 JUMP JUMPDEST POP SWAP1 JUMP JUMPDEST JUMPDEST DUP1 DUP3 GT ISZERO PUSH2 0x22FF JUMPI PUSH0 DUP2 PUSH0 SWAP1 SSTORE POP PUSH1 0x1 ADD PUSH2 0x22E9 JUMP JUMPDEST POP SWAP1 JUMP JUMPDEST PUSH0 PUSH20 0xFFFFFFFFFFFFFFFFFFFFFFFFFFFFFFFFFFFFFFFF DUP3 AND SWAP1 POP SWAP2 SWAP1 POP JUMP JUMPDEST PUSH0 PUSH2 0x232C DUP3 PUSH2 0x2303 JUMP JUMPDEST SWAP1 POP SWAP2 SWAP1 POP JUMP JUMPDEST PUSH2 0x233C DUP2 PUSH2 0x2322 JUMP JUMPDEST DUP3 MSTORE POP POP JUMP JUMPDEST PUSH0 PUSH1 0x20 DUP3 ADD SWAP1 POP PUSH2 0x2355 PUSH0 DUP4 ADD DUP5 PUSH2 0x2333 JUMP JUMPDEST SWAP3 SWAP2 POP POP JUMP JUMPDEST PUSH0 DUP1 REVERT JUMPDEST PUSH0 DUP1 REVERT JUMPDEST PUSH0 DUP2 SWAP1 POP SWAP2 SWAP1 POP JUMP JUMPDEST PUSH2 0x2375 DUP2 PUSH2 0x2363 JUMP JUMPDEST DUP2 EQ PUSH2 0x237F JUMPI PUSH0 DUP1 REVERT JUMPDEST POP JUMP JUMPDEST PUSH0 DUP2 CALLDATALOAD SWAP1 POP PUSH2 0x2390 DUP2 PUSH2 0x236C JUMP JUMPDEST SWAP3 SWAP2 POP POP JUMP JUMPDEST PUSH0 PUSH1 0x20 DUP3 DUP5 SUB SLT ISZERO PUSH2 0x23AB JUMPI PUSH2 0x23AA PUSH2 0x235B JUMP JUMPDEST JUMPDEST PUSH0 PUSH2 0x23B8 DUP5 DUP3 DUP6 ADD PUSH2 0x2382 JUMP JUMPDEST SWAP2 POP POP SWAP3 SWAP2 POP POP JUMP JUMPDEST PUSH0 DUP2 MLOAD SWAP1 POP SWAP2 SWAP1 POP JUMP JUMPDEST PUSH0 DUP3 DUP3 MSTORE PUSH1 0x20 DUP3 ADD SWAP1 POP SWAP3 SWAP2 POP POP JUMP JUMPDEST DUP3 DUP2 DUP4 MCOPY PUSH0 DUP4 DUP4 ADD MSTORE POP POP POP JUMP JUMPDEST PUSH0 PUSH1 0x1F NOT PUSH1 0x1F DUP4 ADD AND SWAP1 POP SWAP2 SWAP1 POP JUMP JUMPDEST PUSH0 PUSH2 0x2403 DUP3 PUSH2 0x23C1 JUMP JUMPDEST PUSH2 0x240D DUP2 DUP6 PUSH2 0x23CB JUMP JUMPDEST SWAP4 POP PUSH2 0x241D DUP2 DUP6 PUSH1 0x20 DUP7 ADD PUSH2 0x23DB JUMP JUMPDEST PUSH2 0x2426 DUP2 PUSH2 0x23E9 JUMP JUMPDEST DUP5 ADD SWAP2 POP POP SWAP3 SWAP2 POP POP JUMP JUMPDEST PUSH0 DUP2 MLOAD SWAP1 POP SWAP2 SWAP1 POP JUMP JUMPDEST PUSH0 DUP3 DUP3 MSTORE PUSH1 0x20 DUP3 ADD SWAP1 POP SWAP3 SWAP2 POP POP JUMP JUMPDEST PUSH0 DUP2 SWAP1 POP PUSH1 0x20 DUP3 ADD SWAP1 POP SWAP2 SWAP1 POP JUMP JUMPDEST PUSH0 DUP3 DUP3 MSTORE PUSH1 0x20 DUP3 ADD SWAP1 POP SWAP3 SWAP2 POP POP JUMP JUMPDEST PUSH0 PUSH2 0x2474 DUP3 PUSH2 0x23C1 JUMP JUMPDEST PUSH2 0x247E DUP2 DUP6 PUSH2 0x245A JUMP JUMPDEST SWAP4 POP PUSH2 0x248E DUP2 DUP6 PUSH1 0x20 DUP7 ADD PUSH2 0x23DB JUMP JUMPDEST PUSH2 0x2497 DUP2 PUSH2 0x23E9 JUMP JUMPDEST DUP5 ADD SWAP2 POP POP SWAP3 SWAP2 POP POP JUMP JUMPDEST PUSH0 PUSH2 0x24AD DUP4 DUP4 PUSH2 0x246A JUMP JUMPDEST SWAP1 POP SWAP3 SWAP2 POP POP JUMP JUMPDEST PUSH0 PUSH1 0x20 DUP3 ADD SWAP1 POP SWAP2 SWAP1 POP JUMP JUMPDEST PUSH0 PUSH2 0x24CB DUP3 PUSH2 0x2431 JUMP JUMPDEST PUSH2 0x24D5 DUP2 DUP6 PUSH2 0x243B JUMP JUMPDEST SWAP4 POP DUP4 PUSH1 0x20 DUP3 MUL DUP6 ADD PUSH2 0x24E7 DUP6 PUSH2 0x244B JUMP JUMPDEST DUP1 PUSH0 JUMPDEST DUP6 DUP2 LT ISZERO PUSH2 0x2522 JUMPI DUP5 DUP5 SUB DUP10 MSTORE DUP2 MLOAD PUSH2 0x2503 DUP6 DUP3 PUSH2 0x24A2 JUMP JUMPDEST SWAP5 POP PUSH2 0x250E DUP4 PUSH2 0x24B5 JUMP JUMPDEST SWAP3 POP PUSH1 0x20 DUP11 ADD SWAP10 POP POP PUSH1 0x1 DUP2 ADD SWAP1 POP PUSH2 0x24EA JUMP JUMPDEST POP DUP3 SWAP8 POP DUP8 SWAP6 POP POP POP POP POP POP SWAP3 SWAP2 POP POP JUMP JUMPDEST PUSH0 DUP2 ISZERO ISZERO SWAP1 POP SWAP2 SWAP1 POP JUMP JUMPDEST PUSH2 0x2548 DUP2 PUSH2 0x2534 JUMP JUMPDEST DUP3 MSTORE POP POP JUMP JUMPDEST PUSH2 0x2557 DUP2 PUSH2 0x2363 JUMP JUMPDEST DUP3 MSTORE POP POP JUMP JUMPDEST PUSH0 DUP2 MLOAD SWAP1 POP SWAP2 SWAP1 POP JUMP JUMPDEST PUSH0 DUP3 DUP3 MSTORE PUSH1 0x20 DUP3 ADD SWAP1 POP SWAP3 SWAP2 POP POP JUMP JUMPDEST PUSH0 DUP2 SWAP1 POP PUSH1 0x20 DUP3 ADD SWAP1 POP SWAP2 SWAP1 POP JUMP JUMPDEST PUSH2 0x258F DUP2 PUSH2 0x2363 JUMP JUMPDEST DUP3 MSTORE POP POP JUMP JUMPDEST PUSH0 PUSH2 0x25A0 DUP4 DUP4 PUSH2 0x2586 JUMP JUMPDEST PUSH1 0x20 DUP4 ADD SWAP1 POP SWAP3 SWAP2 POP POP JUMP JUMPDEST PUSH0 PUSH1 0x20 DUP3 ADD SWAP1 POP SWAP2 SWAP1 POP JUMP JUMPDEST PUSH0 PUSH2 0x25C2 DUP3 PUSH2 0x255D JUMP JUMPDEST PUSH2 0x25CC DUP2 DUP6 PUSH2 0x2567 JUMP JUMPDEST SWAP4 POP PUSH2 0x25D7 DUP4 PUSH2 0x2577 JUMP JUMPDEST DUP1 PUSH0 JUMPDEST DUP4 DUP2 LT ISZERO PUSH2 0x2607 JUMPI DUP2 MLOAD PUSH2 0x25EE DUP9 DUP3 PUSH2 0x2595 JUMP JUMPDEST SWAP8 POP PUSH2 0x25F9 DUP4 PUSH2 0x25AC JUMP JUMPDEST SWAP3 POP POP PUSH1 0x1 DUP2 ADD SWAP1 POP PUSH2 0x25DA JUMP JUMPDEST POP DUP6 SWAP4 POP POP POP POP SWAP3 SWAP2 POP POP JUMP JUMPDEST PUSH0 PUSH1 0xFF DUP3 AND SWAP1 POP SWAP2 SWAP1 POP JUMP JUMPDEST PUSH2 0x2629 DUP2 PUSH2 0x2614 JUMP JUMPDEST DUP3 MSTORE POP POP JUMP JUMPDEST PUSH0 PUSH2 0x120 DUP3 ADD SWAP1 POP PUSH2 0x2643 PUSH0 DUP4 ADD DUP13 PUSH2 0x2333 JUMP JUMPDEST DUP2 DUP2 SUB PUSH1 0x20 DUP4 ADD MSTORE PUSH2 0x2655 DUP2 DUP12 PUSH2 0x23F9 JUMP JUMPDEST SWAP1 POP DUP2 DUP2 SUB PUSH1 0x40 DUP4 ADD MSTORE PUSH2 0x2669 DUP2 DUP11 PUSH2 0x24C1 JUMP JUMPDEST SWAP1 POP PUSH2 0x2678 PUSH1 0x60 DUP4 ADD DUP10 PUSH2 0x253F JUMP JUMPDEST PUSH2 0x2685 PUSH1 0x80 DUP4 ADD DUP9 PUSH2 0x253F JUMP JUMPDEST PUSH2 0x2692 PUSH1 0xA0 DUP4 ADD DUP8 PUSH2 0x254E JUMP JUMPDEST DUP2 DUP2 SUB PUSH1 0xC0 DUP4 ADD MSTORE PUSH2 0x26A4 DUP2 DUP7 PUSH2 0x25B8 JUMP JUMPDEST SWAP1 POP PUSH2 0x26B3 PUSH1 0xE0 DUP4 ADD DUP6 PUSH2 0x2620 JUMP JUMPDEST PUSH2 0x26C1 PUSH2 0x100 DUP4 ADD DUP5 PUSH2 0x253F JUMP JUMPDEST SWAP11 SWAP10 POP POP POP POP POP POP POP POP POP POP JUMP JUMPDEST PUSH2 0x26D8 DUP2 PUSH2 0x2614 JUMP JUMPDEST DUP2 EQ PUSH2 0x26E2 JUMPI PUSH0 DUP1 REVERT JUMPDEST POP JUMP JUMPDEST PUSH0 DUP2 CALLDATALOAD SWAP1 POP PUSH2 0x26F3 DUP2 PUSH2 0x26CF JUMP JUMPDEST SWAP3 SWAP2 POP POP JUMP JUMPDEST PUSH0 DUP1 PUSH0 PUSH1 0x60 DUP5 DUP7 SUB SLT ISZERO PUSH2 0x2710 JUMPI PUSH2 0x270F PUSH2 0x235B JUMP JUMPDEST JUMPDEST PUSH0 PUSH2 0x271D DUP7 DUP3 DUP8 ADD PUSH2 0x2382 JUMP JUMPDEST SWAP4 POP POP PUSH1 0x20 PUSH2 0x272E DUP7 DUP3 DUP8 ADD PUSH2 0x2382 JUMP JUMPDEST SWAP3 POP POP PUSH1 0x40 PUSH2 0x273F DUP7 DUP3 DUP8 ADD PUSH2 0x26E5 JUMP JUMPDEST SWAP2 POP POP SWAP3 POP SWAP3 POP SWAP3 JUMP JUMPDEST PUSH0 DUP1 REVERT JUMPDEST PUSH0 DUP1 REVERT JUMPDEST PUSH0 DUP1 REVERT JUMPDEST PUSH0 DUP1 DUP4 PUSH1 0x1F DUP5 ADD SLT PUSH2 0x276A JUMPI PUSH2 0x2769 PUSH2 0x2749 JUMP JUMPDEST JUMPDEST DUP3 CALLDATALOAD SWAP1 POP PUSH8 0xFFFFFFFFFFFFFFFF DUP2 GT ISZERO PUSH2 0x2787 JUMPI PUSH2 0x2786 PUSH2 0x274D JUMP JUMPDEST JUMPDEST PUSH1 0x20 DUP4 ADD SWAP2 POP DUP4 PUSH1 0x1 DUP3 MUL DUP4 ADD GT ISZERO PUSH2 0x27A3 JUMPI PUSH2 0x27A2 PUSH2 0x2751 JUMP JUMPDEST JUMPDEST SWAP3 POP SWAP3 SWAP1 POP JUMP JUMPDEST PUSH0 DUP1 DUP4 PUSH1 0x1F DUP5 ADD SLT PUSH2 0x27BF JUMPI PUSH2 0x27BE PUSH2 0x2749 JUMP JUMPDEST JUMPDEST DUP3 CALLDATALOAD SWAP1 POP PUSH8 0xFFFFFFFFFFFFFFFF DUP2 GT ISZERO PUSH2 0x27DC JUMPI PUSH2 0x27DB PUSH2 0x274D JUMP JUMPDEST JUMPDEST PUSH1 0x20 DUP4 ADD SWAP2 POP DUP4 PUSH1 0x20 DUP3 MUL DUP4 ADD GT ISZERO PUSH2 0x27F8 JUMPI PUSH2 0x27F7 PUSH2 0x2751 JUMP JUMPDEST JUMPDEST SWAP3 POP SWAP3 SWAP1 POP JUMP JUMPDEST PUSH0 DUP1 PUSH0 DUP1 PUSH0 DUP1 PUSH1 0x80 DUP8 DUP10 SUB SLT ISZERO PUSH2 0x2819 JUMPI PUSH2 0x2818 PUSH2 0x235B JUMP JUMPDEST JUMPDEST PUSH0 DUP8 ADD CALLDATALOAD PUSH8 0xFFFFFFFFFFFFFFFF DUP2 GT ISZERO PUSH2 0x2836 JUMPI PUSH2 0x2835 PUSH2 0x235F JUMP JUMPDEST JUMPDEST PUSH2 0x2842 DUP10 DUP3 DUP11 ADD PUSH2 0x2755 JUMP JUMPDEST SWAP7 POP SWAP7 POP POP PUSH1 0x20 PUSH2 0x2855 DUP10 DUP3 DUP11 ADD PUSH2 0x26E5 JUMP JUMPDEST SWAP5 POP POP PUSH1 0x40 DUP8 ADD CALLDATALOAD PUSH8 0xFFFFFFFFFFFFFFFF DUP2 GT ISZERO PUSH2 0x2876 JUMPI PUSH2 0x2875 PUSH2 0x235F JUMP JUMPDEST JUMPDEST PUSH2 0x2882 DUP10 DUP3 DUP11 ADD PUSH2 0x27AA JUMP JUMPDEST SWAP4 POP SWAP4 POP POP PUSH1 0x60 PUSH2 0x2895 DUP10 DUP3 DUP11 ADD PUSH2 0x2382 JUMP JUMPDEST SWAP2 POP POP SWAP3 SWAP6 POP SWAP3 SWAP6 POP SWAP3 SWAP6 JUMP JUMPDEST PUSH0 DUP2 MLOAD SWAP1 POP SWAP2 SWAP1 POP JUMP JUMPDEST PUSH0 DUP3 DUP3 MSTORE PUSH1 0x20 DUP3 ADD SWAP1 POP SWAP3 SWAP2 POP POP JUMP JUMPDEST PUSH0 DUP2 SWAP1 POP PUSH1 0x20 DUP3 ADD SWAP1 POP SWAP2 SWAP1 POP JUMP JUMPDEST PUSH0 DUP3 DUP3 MSTORE PUSH1 0x20 DUP3 ADD SWAP1 POP SWAP3 SWAP2 POP POP JUMP JUMPDEST PUSH0 PUSH2 0x28E5 DUP3 PUSH2 0x2431 JUMP JUMPDEST PUSH2 0x28EF DUP2 DUP6 PUSH2 0x28CB JUMP JUMPDEST SWAP4 POP DUP4 PUSH1 0x20 DUP3 MUL DUP6 ADD PUSH2 0x2901 DUP6 PUSH2 0x244B JUMP JUMPDEST DUP1 PUSH0 JUMPDEST DUP6 DUP2 LT ISZERO PUSH2 0x293C JUMPI DUP5 DUP5 SUB DUP10 MSTORE DUP2 MLOAD PUSH2 0x291D DUP6 DUP3 PUSH2 0x24A2 JUMP JUMPDEST SWAP5 POP PUSH2 0x2928 DUP4 PUSH2 0x24B5 JUMP JUMPDEST SWAP3 POP PUSH1 0x20 DUP11 ADD SWAP10 POP POP PUSH1 0x1 DUP2 ADD SWAP1 POP PUSH2 0x2904 JUMP JUMPDEST POP DUP3 SWAP8 POP DUP8 SWAP6 POP POP POP POP POP POP SWAP3 SWAP2 POP POP JUMP JUMPDEST PUSH0 PUSH2 0x2959 DUP4 DUP4 PUSH2 0x28DB JUMP JUMPDEST SWAP1 POP SWAP3 SWAP2 POP POP JUMP JUMPDEST PUSH0 PUSH1 0x20 DUP3 ADD SWAP1 POP SWAP2 SWAP1 POP JUMP JUMPDEST PUSH0 PUSH2 0x2977 DUP3 PUSH2 0x28A2 JUMP JUMPDEST PUSH2 0x2981 DUP2 DUP6 PUSH2 0x28AC JUMP JUMPDEST SWAP4 POP DUP4 PUSH1 0x20 DUP3 MUL DUP6 ADD PUSH2 0x2993 DUP6 PUSH2 0x28BC JUMP JUMPDEST DUP1 PUSH0 JUMPDEST DUP6 DUP2 LT ISZERO PUSH2 0x29CE JUMPI DUP5 DUP5 SUB DUP10 MSTORE DUP2 MLOAD PUSH2 0x29AF DUP6 DUP3 PUSH2 0x294E JUMP JUMPDEST SWAP5 POP PUSH2 0x29BA DUP4 PUSH2 0x2961 JUMP JUMPDEST SWAP3 POP PUSH1 0x20 DUP11 ADD SWAP10 POP POP PUSH1 0x1 DUP2 ADD SWAP1 POP PUSH2 0x2996 JUMP JUMPDEST POP DUP3 SWAP8 POP DUP8 SWAP6 POP POP POP POP POP POP SWAP3 SWAP2 POP POP JUMP JUMPDEST PUSH0 DUP2 MLOAD SWAP1 POP SWAP2 SWAP1 POP JUMP JUMPDEST PUSH0 DUP3 DUP3 MSTORE PUSH1 0x20 DUP3 ADD SWAP1 POP SWAP3 SWAP2 POP POP JUMP JUMPDEST PUSH0 DUP2 SWAP1 POP PUSH1 0x20 DUP3 ADD SWAP1 POP SWAP2 SWAP1 POP JUMP JUMPDEST PUSH2 0x2A12 DUP2 PUSH2 0x2322 JUMP JUMPDEST DUP3 MSTORE POP POP JUMP JUMPDEST PUSH0 PUSH2 0x2A23 DUP4 DUP4 PUSH2 0x2A09 JUMP JUMPDEST PUSH1 0x20 DUP4 ADD SWAP1 POP SWAP3 SWAP2 POP POP JUMP JUMPDEST PUSH0 PUSH1 0x20 DUP3 ADD SWAP1 POP SWAP2 SWAP1 POP JUMP JUMPDEST PUSH0 PUSH2 0x2A45 DUP3 PUSH2 0x29E0 JUMP JUMPDEST PUSH2 0x2A4F DUP2 DUP6 PUSH2 0x29EA JUMP JUMPDEST SWAP4 POP PUSH2 0x2A5A DUP4 PUSH2 0x29FA JUMP JUMPDEST DUP1 PUSH0 JUMPDEST DUP4 DUP2 LT ISZERO PUSH2 0x2A8A JUMPI DUP2 MLOAD PUSH2 0x2A71 DUP9 DUP3 PUSH2 0x2A18 JUMP JUMPDEST SWAP8 POP PUSH2 0x2A7C DUP4 PUSH2 0x2A2F JUMP JUMPDEST SWAP3 POP POP PUSH1 0x1 DUP2 ADD SWAP1 POP PUSH2 0x2A5D JUMP JUMPDEST POP DUP6 SWAP4 POP POP POP POP SWAP3 SWAP2 POP POP JUMP JUMPDEST PUSH0 PUSH1 0xA0 DUP3 ADD SWAP1 POP DUP2 DUP2 SUB PUSH0 DUP4 ADD MSTORE PUSH2 0x2AAF DUP2 DUP9 PUSH2 0x25B8 JUMP JUMPDEST SWAP1 POP DUP2 DUP2 SUB PUSH1 0x20 DUP4 ADD MSTORE PUSH2 0x2AC3 DUP2 DUP8 PUSH2 0x24C1 JUMP JUMPDEST SWAP1 POP DUP2 DUP2 SUB PUSH1 0x40 DUP4 ADD MSTORE PUSH2 0x2AD7 DUP2 DUP7 PUSH2 0x296D JUMP JUMPDEST SWAP1 POP DUP2 DUP2 SUB PUSH1 0x60 DUP4 ADD MSTORE PUSH2 0x2AEB DUP2 DUP6 PUSH2 0x25B8 JUMP JUMPDEST SWAP1 POP DUP2 DUP2 SUB PUSH1 0x80 DUP4 ADD MSTORE PUSH2 0x2AFF DUP2 DUP5 PUSH2 0x2A3B JUMP JUMPDEST SWAP1 POP SWAP7 SWAP6 POP POP POP POP POP POP JUMP JUMPDEST PUSH0 DUP1 PUSH1 0x40 DUP4 DUP6 SUB SLT ISZERO PUSH2 0x2B21 JUMPI PUSH2 0x2B20 PUSH2 0x235B JUMP JUMPDEST JUMPDEST PUSH0 PUSH2 0x2B2E DUP6 DUP3 DUP7 ADD PUSH2 0x2382 JUMP JUMPDEST SWAP3 POP POP PUSH1 0x20 PUSH2 0x2B3F DUP6 DUP3 DUP7 ADD PUSH2 0x26E5 JUMP JUMPDEST SWAP2 POP POP SWAP3 POP SWAP3 SWAP1 POP JUMP JUMPDEST PUSH2 0x2B52 DUP2 PUSH2 0x2322 JUMP JUMPDEST DUP2 EQ PUSH2 0x2B5C JUMPI PUSH0 DUP1 REVERT JUMPDEST POP JUMP JUMPDEST PUSH0 DUP2 CALLDATALOAD SWAP1 POP PUSH2 0x2B6D DUP2 PUSH2 0x2B49 JUMP JUMPDEST SWAP3 SWAP2 POP POP JUMP JUMPDEST PUSH0 PUSH1 0x20 DUP3 DUP5 SUB SLT ISZERO PUSH2 0x2B88 JUMPI PUSH2 0x2B87 PUSH2 0x235B JUMP JUMPDEST JUMPDEST PUSH0 PUSH2 0x2B95 DUP5 DUP3 DUP6 ADD PUSH2 0x2B5F JUMP JUMPDEST SWAP2 POP POP SWAP3 SWAP2 POP POP JUMP JUMPDEST PUSH0 PUSH1 0x80 DUP3 ADD SWAP1 POP DUP2 DUP2 SUB PUSH0 DUP4 ADD MSTORE PUSH2 0x2BB6 DUP2 DUP8 PUSH2 0x25B8 JUMP JUMPDEST SWAP1 POP DUP2 DUP2 SUB PUSH1 0x20 DUP4 ADD MSTORE PUSH2 0x2BCA DUP2 DUP7 PUSH2 0x24C1 JUMP JUMPDEST SWAP1 POP DUP2 DUP2 SUB PUSH1 0x40 DUP4 ADD MSTORE PUSH2 0x2BDE DUP2 DUP6 PUSH2 0x25B8 JUMP JUMPDEST SWAP1 POP DUP2 DUP2 SUB PUSH1 0x60 DUP4 ADD MSTORE PUSH2 0x2BF2 DUP2 DUP5 PUSH2 0x296D JUMP JUMPDEST SWAP1 POP SWAP6 SWAP5 POP POP POP POP POP JUMP JUMPDEST PUSH32 0x4E6F7420617574686F72697A6564000000000000000000000000000000000000 PUSH0 DUP3 ADD MSTORE POP JUMP JUMPDEST PUSH0 PUSH2 0x2C31 PUSH1 0xE DUP4 PUSH2 0x23CB JUMP JUMPDEST SWAP2 POP PUSH2 0x2C3C DUP3 PUSH2 0x2BFD JUMP JUMPDEST PUSH1 0x20 DUP3 ADD SWAP1 POP SWAP2 SWAP1 POP JUMP JUMPDEST PUSH0 PUSH1 0x20 DUP3 ADD SWAP1 POP DUP2 DUP2 SUB PUSH0 DUP4 ADD MSTORE PUSH2 0x2C5E DUP2 PUSH2 0x2C25 JUMP JUMPDEST SWAP1 POP SWAP2 SWAP1 POP JUMP JUMPDEST PUSH32 0x42657474696E6720616C7265616479207265736F6C7665640000000000000000 PUSH0 DUP3 ADD MSTORE POP JUMP JUMPDEST PUSH0 PUSH2 0x2C99 PUSH1 0x18 DUP4 PUSH2 0x23CB JUMP JUMPDEST SWAP2 POP PUSH2 0x2CA4 DUP3 PUSH2 0x2C65 JUMP JUMPDEST PUSH1 0x20 DUP3 ADD SWAP1 POP SWAP2 SWAP1 POP JUMP JUMPDEST PUSH0 PUSH1 0x20 DUP3 ADD SWAP1 POP DUP2 DUP2 SUB PUSH0 DUP4 ADD MSTORE PUSH2 0x2CC6 DUP2 PUSH2 0x2C8D JUMP JUMPDEST SWAP1 POP SWAP2 SWAP1 POP JUMP JUMPDEST PUSH32 0x4E487B7100000000000000000000000000000000000000000000000000000000 PUSH0 MSTORE PUSH1 0x32 PUSH1 0x4 MSTORE PUSH1 0x24 PUSH0 REVERT JUMPDEST PUSH32 0x4E487B7100000000000000000000000000000000000000000000000000000000 PUSH0 MSTORE PUSH1 0x11 PUSH1 0x4 MSTORE PUSH1 0x24 PUSH0 REVERT JUMPDEST PUSH0 PUSH2 0x2D31 DUP3 PUSH2 0x2363 JUMP JUMPDEST SWAP2 POP PUSH2 0x2D3C DUP4 PUSH2 0x2363 JUMP JUMPDEST SWAP3 POP DUP3 DUP3 ADD SWAP1 POP DUP1 DUP3 GT ISZERO PUSH2 0x2D54 JUMPI PUSH2 0x2D53 PUSH2 0x2CFA JUMP JUMPDEST JUMPDEST SWAP3 SWAP2 POP POP JUMP JUMPDEST PUSH0 PUSH2 0x2D64 DUP3 PUSH2 0x2614 JUMP JUMPDEST SWAP2 POP PUSH1 0xFF DUP3 SUB PUSH2 0x2D77 JUMPI PUSH2 0x2D76 PUSH2 0x2CFA JUMP JUMPDEST JUMPDEST PUSH1 0x1 DUP3 ADD SWAP1 POP SWAP2 SWAP1 POP JUMP JUMPDEST PUSH32 0x4E487B7100000000000000000000000000000000000000000000000000000000 PUSH0 MSTORE PUSH1 0x12 PUSH1 0x4 MSTORE PUSH1 0x24 PUSH0 REVERT JUMPDEST PUSH0 PUSH2 0x2DB9 DUP3 PUSH2 0x2363 JUMP JUMPDEST SWAP2 POP PUSH2 0x2DC4 DUP4 PUSH2 0x2363 JUMP JUMPDEST SWAP3 POP DUP3 PUSH2 0x2DD4 JUMPI PUSH2 0x2DD3 PUSH2 0x2D82 JUMP JUMPDEST JUMPDEST DUP3 DUP3 DIV SWAP1 POP SWAP3 SWAP2 POP POP JUMP JUMPDEST PUSH0 PUSH2 0x2DE9 DUP3 PUSH2 0x2363 JUMP JUMPDEST SWAP2 POP PUSH2 0x2DF4 DUP4 PUSH2 0x2363 JUMP JUMPDEST SWAP3 POP DUP3 DUP3 SUB SWAP1 POP DUP2 DUP2 GT ISZERO PUSH2 0x2E0C JUMPI PUSH2 0x2E0B PUSH2 0x2CFA JUMP JUMPDEST JUMPDEST SWAP3 SWAP2 POP POP JUMP JUMPDEST PUSH0 PUSH1 0x40 DUP3 ADD SWAP1 POP PUSH2 0x2E25 PUSH0 DUP4 ADD DUP6 PUSH2 0x2333 JUMP JUMPDEST PUSH2 0x2E32 PUSH1 0x20 DUP4 ADD DUP5 PUSH2 0x254E JUMP JUMPDEST SWAP4 SWAP3 POP POP POP JUMP JUMPDEST PUSH2 0x2E42 DUP2 PUSH2 0x2534 JUMP JUMPDEST DUP2 EQ PUSH2 0x2E4C JUMPI PUSH0 DUP1 REVERT JUMPDEST POP JUMP JUMPDEST PUSH0 DUP2 MLOAD SWAP1 POP PUSH2 0x2E5D DUP2 PUSH2 0x2E39 JUMP JUMPDEST SWAP3 SWAP2 POP POP JUMP JUMPDEST PUSH0 PUSH1 0x20 DUP3 DUP5 SUB SLT ISZERO PUSH2 0x2E78 JUMPI PUSH2 0x2E77 PUSH2 0x235B JUMP JUMPDEST JUMPDEST PUSH0 PUSH2 0x2E85 DUP5 DUP3 DUP6 ADD PUSH2 0x2E4F JUMP JUMPDEST SWAP2 POP POP SWAP3 SWAP2 POP POP JUMP JUMPDEST PUSH32 0x466565207472616E73666572206661696C656400000000000000000000000000 PUSH0 DUP3 ADD MSTORE POP JUMP JUMPDEST PUSH0 PUSH2 0x2EC2 PUSH1 0x13 DUP4 PUSH2 0x23CB JUMP JUMPDEST SWAP2 POP PUSH2 0x2ECD DUP3 PUSH2 0x2E8E JUMP JUMPDEST PUSH1 0x20 DUP3 ADD SWAP1 POP SWAP2 SWAP1 POP JUMP JUMPDEST PUSH0 PUSH1 0x20 DUP3 ADD SWAP1 POP DUP2 DUP2 SUB PUSH0 DUP4 ADD MSTORE PUSH2 0x2EEF DUP2 PUSH2 0x2EB6 JUMP JUMPDEST SWAP1 POP SWAP2 SWAP1 POP JUMP JUMPDEST PUSH32 0x43726561746F7220666565207472616E73666572206661696C65640000000000 PUSH0 DUP3 ADD MSTORE POP JUMP JUMPDEST PUSH0 PUSH2 0x2F2A PUSH1 0x1B DUP4 PUSH2 0x23CB JUMP JUMPDEST SWAP2 POP PUSH2 0x2F35 DUP3 PUSH2 0x2EF6 JUMP JUMPDEST PUSH1 0x20 DUP3 ADD SWAP1 POP SWAP2 SWAP1 POP JUMP JUMPDEST PUSH0 PUSH1 0x20 DUP3 ADD SWAP1 POP DUP2 DUP2 SUB PUSH0 DUP4 ADD MSTORE PUSH2 0x2F57 DUP2 PUSH2 0x2F1E JUMP JUMPDEST SWAP1 POP SWAP2 SWAP1 POP JUMP JUMPDEST PUSH0 PUSH2 0x2F68 DUP3 PUSH2 0x2363 JUMP JUMPDEST SWAP2 POP PUSH2 0x2F73 DUP4 PUSH2 0x2363 JUMP JUMPDEST SWAP3 POP DUP3 DUP3 MUL PUSH2 0x2F81 DUP2 PUSH2 0x2363 JUMP JUMPDEST SWAP2 POP DUP3 DUP3 DIV DUP5 EQ DUP4 ISZERO OR PUSH2 0x2F98 JUMPI PUSH2 0x2F97 PUSH2 0x2CFA JUMP JUMPDEST JUMPDEST POP SWAP3 SWAP2 POP POP JUMP JUMPDEST PUSH32 0x426574746F72207472616E73666572206661696C656400000000000000000000 PUSH0 DUP3 ADD MSTORE POP JUMP JUMPDEST PUSH0 PUSH2 0x2FD3 PUSH1 0x16 DUP4 PUSH2 0x23CB JUMP JUMPDEST SWAP2 POP PUSH2 0x2FDE DUP3 PUSH2 0x2F9F JUMP JUMPDEST PUSH1 0x20 DUP3 ADD SWAP1 POP SWAP2 SWAP1 POP JUMP JUMPDEST PUSH0 PUSH1 0x20 DUP3 ADD SWAP1 POP DUP2 DUP2 SUB PUSH0 DUP4 ADD MSTORE PUSH2 0x3000 DUP2 PUSH2 0x2FC7 JUMP JUMPDEST SWAP1 POP SWAP2 SWAP1 POP JUMP JUMPDEST PUSH32 0x4E487B7100000000000000000000000000000000000000000000000000000000 PUSH0 MSTORE PUSH1 0x22 PUSH1 0x4 MSTORE PUSH1 0x24 PUSH0 REVERT JUMPDEST PUSH0 PUSH1 0x2 DUP3 DIV SWAP1 POP PUSH1 0x1 DUP3 AND DUP1 PUSH2 0x304B JUMPI PUSH1 0x7F DUP3 AND SWAP2 POP JUMPDEST PUSH1 0x20 DUP3 LT DUP2 SUB PUSH2 0x305E JUMPI PUSH2 0x305D PUSH2 0x3007 JUMP JUMPDEST JUMPDEST POP SWAP2 SWAP1 POP JUMP JUMPDEST PUSH32 0x4E487B7100000000000000000000000000000000000000000000000000000000 PUSH0 MSTORE PUSH1 0x41 PUSH1 0x4 MSTORE PUSH1 0x24 PUSH0 REVERT JUMPDEST PUSH32 0x42657474696E6720697320636C6F736564000000000000000000000000000000 PUSH0 DUP3 ADD MSTORE POP JUMP JUMPDEST PUSH0 PUSH2 0x30C5 PUSH1 0x11 DUP4 PUSH2 0x23CB JUMP JUMPDEST SWAP2 POP PUSH2 0x30D0 DUP3 PUSH2 0x3091 JUMP JUMPDEST PUSH1 0x20 DUP3 ADD SWAP1 POP SWAP2 SWAP1 POP JUMP JUMPDEST PUSH0 PUSH1 0x20 DUP3 ADD SWAP1 POP DUP2 DUP2 SUB PUSH0 DUP4 ADD MSTORE PUSH2 0x30F2 DUP2 PUSH2 0x30B9 JUMP JUMPDEST SWAP1 POP SWAP2 SWAP1 POP JUMP JUMPDEST PUSH32 0x42657420616D6F756E74206973206C657373207468616E206D696E696D756D00 PUSH0 DUP3 ADD MSTORE POP JUMP JUMPDEST PUSH0 PUSH2 0x312D PUSH1 0x1F DUP4 PUSH2 0x23CB JUMP JUMPDEST SWAP2 POP PUSH2 0x3138 DUP3 PUSH2 0x30F9 JUMP JUMPDEST PUSH1 0x20 DUP3 ADD SWAP1 POP SWAP2 SWAP1 POP JUMP JUMPDEST PUSH0 PUSH1 0x20 DUP3 ADD SWAP1 POP DUP2 DUP2 SUB PUSH0 DUP4 ADD MSTORE PUSH2 0x315A DUP2 PUSH2 0x3121 JUMP JUMPDEST SWAP1 POP SWAP2 SWAP1 POP JUMP JUMPDEST PUSH32 0x496E76616C6964206F7074696F6E000000000000000000000000000000000000 PUSH0 DUP3 ADD MSTORE POP JUMP JUMPDEST PUSH0 PUSH2 0x3195 PUSH1 0xE DUP4 PUSH2 0x23CB JUMP JUMPDEST SWAP2 POP PUSH2 0x31A0 DUP3 PUSH2 0x3161 JUMP JUMPDEST PUSH1 0x20 DUP3 ADD SWAP1 POP SWAP2 SWAP1 POP JUMP JUMPDEST PUSH0 PUSH1 0x20 DUP3 ADD SWAP1 POP DUP2 DUP2 SUB PUSH0 DUP4 ADD MSTORE PUSH2 0x31C2 DUP2 PUSH2 0x3189 JUMP JUMPDEST SWAP1 POP SWAP2 SWAP1 POP JUMP JUMPDEST PUSH0 PUSH1 0x60 DUP3 ADD SWAP1 POP PUSH2 0x31DC PUSH0 DUP4 ADD DUP7 PUSH2 0x2333 JUMP JUMPDEST PUSH2 0x31E9 PUSH1 0x20 DUP4 ADD DUP6 PUSH2 0x2333 JUMP JUMPDEST PUSH2 0x31F6 PUSH1 0x40 DUP4 ADD DUP5 PUSH2 0x254E JUMP JUMPDEST SWAP5 SWAP4 POP POP POP POP JUMP JUMPDEST PUSH32 0x5472616E73666572206661696C65640000000000000000000000000000000000 PUSH0 DUP3 ADD MSTORE POP JUMP JUMPDEST PUSH0 PUSH2 0x3232 PUSH1 0xF DUP4 PUSH2 0x23CB JUMP JUMPDEST SWAP2 POP PUSH2 0x323D DUP3 PUSH2 0x31FE JUMP JUMPDEST PUSH1 0x20 DUP3 ADD SWAP1 POP SWAP2 SWAP1 POP JUMP JUMPDEST PUSH0 PUSH1 0x20 DUP3 ADD SWAP1 POP DUP2 DUP2 SUB PUSH0 DUP4 ADD MSTORE PUSH2 0x325F DUP2 PUSH2 0x3226 JUMP JUMPDEST SWAP1 POP SWAP2 SWAP1 POP JUMP JUMPDEST PUSH0 PUSH2 0x3270 DUP3 PUSH2 0x2614 JUMP JUMPDEST SWAP2 POP PUSH2 0x327B DUP4 PUSH2 0x2614 JUMP JUMPDEST SWAP3 POP DUP3 DUP3 SUB SWAP1 POP PUSH1 0xFF DUP2 GT ISZERO PUSH2 0x3294 JUMPI PUSH2 0x3293 PUSH2 0x2CFA JUMP JUMPDEST JUMPDEST SWAP3 SWAP2 POP POP JUMP JUMPDEST PUSH0 PUSH1 0x40 DUP3 ADD SWAP1 POP PUSH2 0x32AD PUSH0 DUP4 ADD DUP6 PUSH2 0x254E JUMP JUMPDEST PUSH2 0x32BA PUSH1 0x20 DUP4 ADD DUP5 PUSH2 0x2620 JUMP JUMPDEST SWAP4 SWAP3 POP POP POP JUMP JUMPDEST PUSH32 0x4E6F7420617574686F72697A65642C206F6E6C79206F776E65722063616E2063 PUSH0 DUP3 ADD MSTORE PUSH32 0x7265617465206265747300000000000000000000000000000000000000000000 PUSH1 0x20 DUP3 ADD MSTORE POP JUMP JUMPDEST PUSH0 PUSH2 0x331B PUSH1 0x2A DUP4 PUSH2 0x23CB JUMP JUMPDEST SWAP2 POP PUSH2 0x3326 DUP3 PUSH2 0x32C1 JUMP JUMPDEST PUSH1 0x40 DUP3 ADD SWAP1 POP SWAP2 SWAP1 POP JUMP JUMPDEST PUSH0 PUSH1 0x20 DUP3 ADD SWAP1 POP DUP2 DUP2 SUB PUSH0 DUP4 ADD MSTORE PUSH2 0x3348 DUP2 PUSH2 0x330F JUMP JUMPDEST SWAP1 POP SWAP2 SWAP1 POP JUMP JUMPDEST PUSH32 0x496E76616C6964206E756D626572206F66206F7074696F6E7300000000000000 PUSH0 DUP3 ADD MSTORE POP JUMP JUMPDEST PUSH0 PUSH2 0x3383 PUSH1 0x19 DUP4 PUSH2 0x23CB JUMP JUMPDEST SWAP2 POP PUSH2 0x338E DUP3 PUSH2 0x334F JUMP JUMPDEST PUSH1 0x20 DUP3 ADD SWAP1 POP SWAP2 SWAP1 POP JUMP JUMPDEST PUSH0 PUSH1 0x20 DUP3 ADD SWAP1 POP DUP2 DUP2 SUB PUSH0 DUP4 ADD MSTORE PUSH2 0x33B0 DUP2 PUSH2 0x3377 JUMP JUMPDEST SWAP1 POP SWAP2 SWAP1 POP JUMP JUMPDEST PUSH32 0x4F7074696F6E206E616D6573206C656E677468206D69736D6174636800000000 PUSH0 DUP3 ADD MSTORE POP JUMP JUMPDEST PUSH0 PUSH2 0x33EB PUSH1 0x1C DUP4 PUSH2 0x23CB JUMP JUMPDEST SWAP2 POP PUSH2 0x33F6 DUP3 PUSH2 0x33B7 JUMP JUMPDEST PUSH1 0x20 DUP3 ADD SWAP1 POP SWAP2 SWAP1 POP JUMP JUMPDEST PUSH0 PUSH1 0x20 DUP3 ADD SWAP1 POP DUP2 DUP2 SUB PUSH0 DUP4 ADD MSTORE PUSH2 0x3418 DUP2 PUSH2 0x33DF JUMP JUMPDEST SWAP1 POP SWAP2 SWAP1 POP JUMP JUMPDEST PUSH0 PUSH2 0x3429 DUP3 PUSH2 0x2363 JUMP JUMPDEST SWAP2 POP PUSH32 0xFFFFFFFFFFFFFFFFFFFFFFFFFFFFFFFFFFFFFFFFFFFFFFFFFFFFFFFFFFFFFFFF DUP3 SUB PUSH2 0x345B JUMPI PUSH2 0x345A PUSH2 0x2CFA JUMP JUMPDEST JUMPDEST PUSH1 0x1 DUP3 ADD SWAP1 POP SWAP2 SWAP1 POP JUMP JUMPDEST PUSH0 DUP3 SWAP1 POP SWAP3 SWAP2 POP POP JUMP JUMPDEST PUSH0 DUP2 SWAP1 POP DUP2 PUSH0 MSTORE PUSH1 0x20 PUSH0 KECCAK256 SWAP1 POP SWAP2 SWAP1 POP JUMP JUMPDEST PUSH0 PUSH1 0x20 PUSH1 0x1F DUP4 ADD DIV SWAP1 POP SWAP2 SWAP1 POP JUMP JUMPDEST PUSH0 DUP3 DUP3 SHL SWAP1 POP SWAP3 SWAP2 POP POP JUMP JUMPDEST PUSH0 PUSH1 0x8 DUP4 MUL PUSH2 0x34CC PUSH32 0xFFFFFFFFFFFFFFFFFFFFFFFFFFFFFFFFFFFFFFFFFFFFFFFFFFFFFFFFFFFFFFFF DUP3 PUSH2 0x3491 JUMP JUMPDEST PUSH2 0x34D6 DUP7 DUP4 PUSH2 0x3491 JUMP JUMPDEST SWAP6 POP DUP1 NOT DUP5 AND SWAP4 POP DUP1 DUP7 AND DUP5 OR SWAP3 POP POP POP SWAP4 SWAP3 POP POP POP JUMP JUMPDEST PUSH0 DUP2 SWAP1 POP SWAP2 SWAP1 POP JUMP JUMPDEST PUSH0 PUSH2 0x3511 PUSH2 0x350C PUSH2 0x3507 DUP5 PUSH2 0x2363 JUMP JUMPDEST PUSH2 0x34EE JUMP JUMPDEST PUSH2 0x2363 JUMP JUMPDEST SWAP1 POP SWAP2 SWAP1 POP JUMP JUMPDEST PUSH0 DUP2 SWAP1 POP SWAP2 SWAP1 POP JUMP JUMPDEST PUSH2 0x352A DUP4 PUSH2 0x34F7 JUMP JUMPDEST PUSH2 0x353E PUSH2 0x3536 DUP3 PUSH2 0x3518 JUMP JUMPDEST DUP5 DUP5 SLOAD PUSH2 0x349D JUMP JUMPDEST DUP3 SSTORE POP POP POP POP JUMP JUMPDEST PUSH0 SWAP1 JUMP JUMPDEST PUSH2 0x3552 PUSH2 0x3546 JUMP JUMPDEST PUSH2 0x355D DUP2 DUP5 DUP5 PUSH2 0x3521 JUMP JUMPDEST POP POP POP JUMP JUMPDEST JUMPDEST DUP2 DUP2 LT ISZERO PUSH2 0x3580 JUMPI PUSH2 0x3575 PUSH0 DUP3 PUSH2 0x354A JUMP JUMPDEST PUSH1 0x1 DUP2 ADD SWAP1 POP PUSH2 0x3563 JUMP JUMPDEST POP POP JUMP JUMPDEST PUSH1 0x1F DUP3 GT ISZERO PUSH2 0x35C5 JUMPI PUSH2 0x3596 DUP2 PUSH2 0x3470 JUMP JUMPDEST PUSH2 0x359F DUP5 PUSH2 0x3482 JUMP JUMPDEST DUP2 ADD PUSH1 0x20 DUP6 LT ISZERO PUSH2 0x35AE JUMPI DUP2 SWAP1 POP JUMPDEST PUSH2 0x35C2 PUSH2 0x35BA DUP6 PUSH2 0x3482 JUMP JUMPDEST DUP4 ADD DUP3 PUSH2 0x3562 JUMP JUMPDEST POP POP JUMPDEST POP POP POP JUMP JUMPDEST PUSH0 DUP3 DUP3 SHR SWAP1 POP SWAP3 SWAP2 POP POP JUMP JUMPDEST PUSH0 PUSH2 0x35E5 PUSH0 NOT DUP5 PUSH1 0x8 MUL PUSH2 0x35CA JUMP JUMPDEST NOT DUP1 DUP4 AND SWAP2 POP POP SWAP3 SWAP2 POP POP JUMP JUMPDEST PUSH0 PUSH2 0x35FD DUP4 DUP4 PUSH2 0x35D6 JUMP JUMPDEST SWAP2 POP DUP3 PUSH1 0x2 MUL DUP3 OR SWAP1 POP SWAP3 SWAP2 POP POP JUMP JUMPDEST PUSH2 0x3617 DUP4 DUP4 PUSH2 0x3466 JUMP JUMPDEST PUSH8 0xFFFFFFFFFFFFFFFF DUP2 GT ISZERO PUSH2 0x3630 JUMPI PUSH2 0x362F PUSH2 0x3064 JUMP JUMPDEST JUMPDEST PUSH2 0x363A DUP3 SLOAD PUSH2 0x3034 JUMP JUMPDEST PUSH2 0x3645 DUP3 DUP3 DUP6 PUSH2 0x3584 JUMP JUMPDEST PUSH0 PUSH1 0x1F DUP4 GT PUSH1 0x1 DUP2 EQ PUSH2 0x3672 JUMPI PUSH0 DUP5 ISZERO PUSH2 0x3660 JUMPI DUP3 DUP8 ADD CALLDATALOAD SWAP1 POP JUMPDEST PUSH2 0x366A DUP6 DUP3 PUSH2 0x35F2 JUMP JUMPDEST DUP7 SSTORE POP PUSH2 0x36D1 JUMP JUMPDEST PUSH1 0x1F NOT DUP5 AND PUSH2 0x3680 DUP7 PUSH2 0x3470 JUMP JUMPDEST PUSH0 JUMPDEST DUP3 DUP2 LT ISZERO PUSH2 0x36A7 JUMPI DUP5 DUP10 ADD CALLDATALOAD DUP3 SSTORE PUSH1 0x1 DUP3 ADD SWAP2 POP PUSH1 0x20 DUP6 ADD SWAP5 POP PUSH1 0x20 DUP2 ADD SWAP1 POP PUSH2 0x3682 JUMP JUMPDEST DUP7 DUP4 LT ISZERO PUSH2 0x36C4 JUMPI DUP5 DUP10 ADD CALLDATALOAD PUSH2 0x36C0 PUSH1 0x1F DUP10 AND DUP3 PUSH2 0x35D6 JUMP JUMPDEST DUP4 SSTORE POP JUMPDEST PUSH1 0x1 PUSH1 0x2 DUP9 MUL ADD DUP9 SSTORE POP POP POP JUMPDEST POP POP POP POP POP POP POP JUMP JUMPDEST PUSH0 DUP1 REVERT JUMPDEST PUSH0 DUP1 REVERT JUMPDEST PUSH0 DUP1 REVERT JUMPDEST PUSH0 DUP1 DUP4 CALLDATALOAD PUSH1 0x1 PUSH1 0x20 SUB DUP5 CALLDATASIZE SUB SUB DUP2 SLT PUSH2 0x3702 JUMPI PUSH2 0x3701 PUSH2 0x36DA JUMP JUMPDEST JUMPDEST DUP1 DUP5 ADD SWAP3 POP DUP3 CALLDATALOAD SWAP2 POP PUSH8 0xFFFFFFFFFFFFFFFF DUP3 GT ISZERO PUSH2 0x3724 JUMPI PUSH2 0x3723 PUSH2 0x36DE JUMP JUMPDEST JUMPDEST PUSH1 0x20 DUP4 ADD SWAP3 POP PUSH1 0x1 DUP3 MUL CALLDATASIZE SUB DUP4 SGT ISZERO PUSH2 0x3740 JUMPI PUSH2 0x373F PUSH2 0x36E2 JUMP JUMPDEST JUMPDEST POP SWAP3 POP SWAP3 SWAP1 POP JUMP JUMPDEST DUP3 DUP2 DUP4 CALLDATACOPY PUSH0 DUP4 DUP4 ADD MSTORE POP POP POP JUMP JUMPDEST PUSH0 PUSH2 0x3761 DUP4 DUP6 PUSH2 0x23CB JUMP JUMPDEST SWAP4 POP PUSH2 0x376E DUP4 DUP6 DUP5 PUSH2 0x3748 JUMP JUMPDEST PUSH2 0x3777 DUP4 PUSH2 0x23E9 JUMP JUMPDEST DUP5 ADD SWAP1 POP SWAP4 SWAP3 POP POP POP JUMP JUMPDEST PUSH0 DUP2 SWAP1 POP SWAP2 SWAP1 POP JUMP JUMPDEST PUSH0 PUSH2 0x3796 DUP4 DUP6 PUSH2 0x245A JUMP JUMPDEST SWAP4 POP PUSH2 0x37A3 DUP4 DUP6 DUP5 PUSH2 0x3748 JUMP JUMPDEST PUSH2 0x37AC DUP4 PUSH2 0x23E9 JUMP JUMPDEST DUP5 ADD SWAP1 POP SWAP4 SWAP3 POP POP POP JUMP JUMPDEST PUSH0 PUSH2 0x37C3 DUP5 DUP5 DUP5 PUSH2 0x378B JUMP JUMPDEST SWAP1 POP SWAP4 SWAP3 POP POP POP JUMP JUMPDEST PUSH0 DUP1 REVERT JUMPDEST PUSH0 DUP1 REVERT JUMPDEST PUSH0 DUP1 REVERT JUMPDEST PUSH0 DUP1 DUP4 CALLDATALOAD PUSH1 0x1 PUSH1 0x20 SUB DUP5 CALLDATASIZE SUB SUB DUP2 SLT PUSH2 0x37F4 JUMPI PUSH2 0x37F3 PUSH2 0x37D4 JUMP JUMPDEST JUMPDEST DUP4 DUP2 ADD SWAP3 POP DUP3 CALLDATALOAD SWAP2 POP PUSH1 0x20 DUP4 ADD SWAP3 POP PUSH8 0xFFFFFFFFFFFFFFFF DUP3 GT ISZERO PUSH2 0x381C JUMPI PUSH2 0x381B PUSH2 0x37CC JUMP JUMPDEST JUMPDEST PUSH1 0x1 DUP3 MUL CALLDATASIZE SUB DUP4 SGT ISZERO PUSH2 0x3832 JUMPI PUSH2 0x3831 PUSH2 0x37D0 JUMP JUMPDEST JUMPDEST POP SWAP3 POP SWAP3 SWAP1 POP JUMP JUMPDEST PUSH0 PUSH1 0x20 DUP3 ADD SWAP1 POP SWAP2 SWAP1 POP JUMP JUMPDEST PUSH0 PUSH2 0x3851 DUP4 DUP6 PUSH2 0x243B JUMP JUMPDEST SWAP4 POP DUP4 PUSH1 0x20 DUP5 MUL DUP6 ADD PUSH2 0x3863 DUP5 PUSH2 0x3782 JUMP JUMPDEST DUP1 PUSH0 JUMPDEST DUP8 DUP2 LT ISZERO PUSH2 0x38A8 JUMPI DUP5 DUP5 SUB DUP10 MSTORE PUSH2 0x387D DUP3 DUP5 PUSH2 0x37D8 JUMP JUMPDEST PUSH2 0x3888 DUP7 DUP3 DUP5 PUSH2 0x37B7 JUMP JUMPDEST SWAP6 POP PUSH2 0x3893 DUP5 PUSH2 0x383A JUMP JUMPDEST SWAP4 POP PUSH1 0x20 DUP12 ADD SWAP11 POP POP POP PUSH1 0x1 DUP2 ADD SWAP1 POP PUSH2 0x3866 JUMP JUMPDEST POP DUP3 SWAP8 POP DUP8 SWAP5 POP POP POP POP POP SWAP4 SWAP3 POP POP POP JUMP JUMPDEST PUSH0 PUSH1 0x80 DUP3 ADD SWAP1 POP PUSH2 0x38CD PUSH0 DUP4 ADD DUP10 PUSH2 0x2333 JUMP JUMPDEST DUP2 DUP2 SUB PUSH1 0x20 DUP4 ADD MSTORE PUSH2 0x38E0 DUP2 DUP8 DUP10 PUSH2 0x3756 JUMP JUMPDEST SWAP1 POP DUP2 DUP2 SUB PUSH1 0x40 DUP4 ADD MSTORE PUSH2 0x38F5 DUP2 DUP6 DUP8 PUSH2 0x3846 JUMP JUMPDEST SWAP1 POP PUSH2 0x3904 PUSH1 0x60 DUP4 ADD DUP5 PUSH2 0x254E JUMP JUMPDEST SWAP8 SWAP7 POP POP POP POP POP POP POP JUMP JUMPDEST PUSH32 0x496E76616C69642077696E6E696E67206F7074696F6E00000000000000000000 PUSH0 DUP3 ADD MSTORE POP JUMP JUMPDEST PUSH0 PUSH2 0x3943 PUSH1 0x16 DUP4 PUSH2 0x23CB JUMP JUMPDEST SWAP2 POP PUSH2 0x394E DUP3 PUSH2 0x390F JUMP JUMPDEST PUSH1 0x20 DUP3 ADD SWAP1 POP SWAP2 SWAP1 POP JUMP JUMPDEST PUSH0 PUSH1 0x20 DUP3 ADD SWAP1 POP DUP2 DUP2 SUB PUSH0 DUP4 ADD MSTORE PUSH2 0x3970 DUP2 PUSH2 0x3937 JUMP JUMPDEST SWAP1 POP SWAP2 SWAP1 POP JUMP JUMPDEST PUSH32 0x42657474696E67206D75737420626520636C6F73656420616E64206E6F742072 PUSH0 DUP3 ADD MSTORE PUSH32 0x65736F6C76656400000000000000000000000000000000000000000000000000 PUSH1 0x20 DUP3 ADD MSTORE POP JUMP JUMPDEST PUSH0 PUSH2 0x39D1 PUSH1 0x27 DUP4 PUSH2 0x23CB JUMP JUMPDEST SWAP2 POP PUSH2 0x39DC DUP3 PUSH2 0x3977 JUMP JUMPDEST PUSH1 0x40 DUP3 ADD SWAP1 POP SWAP2 SWAP1 POP JUMP JUMPDEST PUSH0 PUSH1 0x20 DUP3 ADD SWAP1 POP DUP2 DUP2 SUB PUSH0 DUP4 ADD MSTORE PUSH2 0x39FE DUP2 PUSH2 0x39C5 JUMP JUMPDEST SWAP1 POP SWAP2 SWAP1 POP JUMP JUMPDEST PUSH32 0x57696E6E6572207472616E73666572206661696C656400000000000000000000 PUSH0 DUP3 ADD MSTORE POP JUMP JUMPDEST PUSH0 PUSH2 0x3A39 PUSH1 0x16 DUP4 PUSH2 0x23CB JUMP JUMPDEST SWAP2 POP PUSH2 0x3A44 DUP3 PUSH2 0x3A05 JUMP JUMPDEST PUSH1 0x20 DUP3 ADD SWAP1 POP SWAP2 SWAP1 POP JUMP JUMPDEST PUSH0 PUSH1 0x20 DUP3 ADD SWAP1 POP DUP2 DUP2 SUB PUSH0 DUP4 ADD MSTORE PUSH2 0x3A66 DUP2 PUSH2 0x3A2D JUMP JUMPDEST SWAP1 POP SWAP2 SWAP1 POP JUMP JUMPDEST PUSH0 PUSH1 0x20 DUP3 ADD SWAP1 POP PUSH2 0x3A80 PUSH0 DUP4 ADD DUP5 PUSH2 0x2620 JUMP JUMPDEST SWAP3 SWAP2 POP POP JUMP INVALID LOG2 PUSH5 0x6970667358 0x22 SLT KECCAK256 0xD8 RETURNDATACOPY 0xAA 0xBA 0x28 PUSH0 SWAP13 EXP PUSH22 0xB1E72FE98A6A0849F786EDED79B0C3DABF91CE305606 PUSH8 0x64736F6C63430008 BYTE STOP CALLER "
				},
				"gasEstimates": {
					"creation": {
						"codeDepositCost": "3007200",
						"executionCost": "49671",
						"totalCost": "3056871"
					},
					"external": {
						"KINTO_TOKEN_ADDRESS()": "374",
						"cancelBet(uint256)": "infinite",
						"closeBetting(uint256)": "28222",
						"createBetInstance(string,uint8,string[],uint256)": "infinite",
						"distributeWinnings(uint256,uint8)": "infinite",
						"getAllOpenBets()": "infinite",
						"getBetInfo(uint256)": "infinite",
						"getOpenBetsByAddress(address)": "infinite",
						"owner()": "2572",
						"placeBet(uint256,uint256,uint8)": "infinite"
					}
				},
				"methodIdentifiers": {
					"KINTO_TOKEN_ADDRESS()": "1cfec6e0",
					"cancelBet(uint256)": "357401f5",
					"closeBetting(uint256)": "b4ad06a1",
					"createBetInstance(string,uint8,string[],uint256)": "b9916adf",
					"distributeWinnings(uint256,uint8)": "f1368748",
					"getAllOpenBets()": "d65edb4d",
					"getBetInfo(uint256)": "79141f80",
					"getOpenBetsByAddress(address)": "f41408b5",
					"owner()": "8da5cb5b",
					"placeBet(uint256,uint256,uint8)": "9e14427e"
				}
			},
			"storageLayout": {
				"storage": [
					{
						"astId": 31,
						"contract": "packages/kinto_smart_contracts/bet_kinto.sol:WagerlyKinto",
						"label": "owner",
						"offset": 0,
						"slot": "0",
						"type": "t_address"
					},
					{
						"astId": 40,
						"contract": "packages/kinto_smart_contracts/bet_kinto.sol:WagerlyKinto",
						"label": "nextBetId",
						"offset": 0,
						"slot": "1",
						"type": "t_uint256"
					},
					{
						"astId": 82,
						"contract": "packages/kinto_smart_contracts/bet_kinto.sol:WagerlyKinto",
						"label": "betInstances",
						"offset": 0,
						"slot": "2",
						"type": "t_mapping(t_uint256,t_struct(BetInstance)77_storage)"
					}
				],
				"types": {
					"t_address": {
						"encoding": "inplace",
						"label": "address",
						"numberOfBytes": "20"
					},
					"t_array(t_address)dyn_storage": {
						"base": "t_address",
						"encoding": "dynamic_array",
						"label": "address[]",
						"numberOfBytes": "32"
					},
					"t_array(t_string_storage)dyn_storage": {
						"base": "t_string_storage",
						"encoding": "dynamic_array",
						"label": "string[]",
						"numberOfBytes": "32"
					},
					"t_array(t_struct(Bet)45_storage)dyn_storage": {
						"base": "t_struct(Bet)45_storage",
						"encoding": "dynamic_array",
						"label": "struct WagerlyKinto.Bet[]",
						"numberOfBytes": "32"
					},
					"t_array(t_uint256)dyn_storage": {
						"base": "t_uint256",
						"encoding": "dynamic_array",
						"label": "uint256[]",
						"numberOfBytes": "32"
					},
					"t_bool": {
						"encoding": "inplace",
						"label": "bool",
						"numberOfBytes": "1"
					},
					"t_mapping(t_address,t_array(t_struct(Bet)45_storage)dyn_storage)": {
						"encoding": "mapping",
						"key": "t_address",
						"label": "mapping(address => struct WagerlyKinto.Bet[])",
						"numberOfBytes": "32",
						"value": "t_array(t_struct(Bet)45_storage)dyn_storage"
					},
					"t_mapping(t_uint256,t_struct(BetInstance)77_storage)": {
						"encoding": "mapping",
						"key": "t_uint256",
						"label": "mapping(uint256 => struct WagerlyKinto.BetInstance)",
						"numberOfBytes": "32",
						"value": "t_struct(BetInstance)77_storage"
					},
					"t_string_storage": {
						"encoding": "bytes",
						"label": "string",
						"numberOfBytes": "32"
					},
					"t_struct(Bet)45_storage": {
						"encoding": "inplace",
						"label": "struct WagerlyKinto.Bet",
						"members": [
							{
								"astId": 42,
								"contract": "packages/kinto_smart_contracts/bet_kinto.sol:WagerlyKinto",
								"label": "bettor",
								"offset": 0,
								"slot": "0",
								"type": "t_address"
							},
							{
								"astId": 44,
								"contract": "packages/kinto_smart_contracts/bet_kinto.sol:WagerlyKinto",
								"label": "amount",
								"offset": 0,
								"slot": "1",
								"type": "t_uint256"
							}
						],
						"numberOfBytes": "64"
					},
					"t_struct(BetInstance)77_storage": {
						"encoding": "inplace",
						"label": "struct WagerlyKinto.BetInstance",
						"members": [
							{
								"astId": 47,
								"contract": "packages/kinto_smart_contracts/bet_kinto.sol:WagerlyKinto",
								"label": "id",
								"offset": 0,
								"slot": "0",
								"type": "t_uint256"
							},
							{
								"astId": 49,
								"contract": "packages/kinto_smart_contracts/bet_kinto.sol:WagerlyKinto",
								"label": "title",
								"offset": 0,
								"slot": "1",
								"type": "t_string_storage"
							},
							{
								"astId": 52,
								"contract": "packages/kinto_smart_contracts/bet_kinto.sol:WagerlyKinto",
								"label": "options",
								"offset": 0,
								"slot": "2",
								"type": "t_array(t_string_storage)dyn_storage"
							},
							{
								"astId": 55,
								"contract": "packages/kinto_smart_contracts/bet_kinto.sol:WagerlyKinto",
								"label": "totalAmounts",
								"offset": 0,
								"slot": "3",
								"type": "t_array(t_uint256)dyn_storage"
							},
							{
								"astId": 57,
								"contract": "packages/kinto_smart_contracts/bet_kinto.sol:WagerlyKinto",
								"label": "minimumBetAmount",
								"offset": 0,
								"slot": "4",
								"type": "t_uint256"
							},
							{
								"astId": 63,
								"contract": "packages/kinto_smart_contracts/bet_kinto.sol:WagerlyKinto",
								"label": "bets",
								"offset": 0,
								"slot": "5",
								"type": "t_mapping(t_address,t_array(t_struct(Bet)45_storage)dyn_storage)"
							},
							{
								"astId": 66,
								"contract": "packages/kinto_smart_contracts/bet_kinto.sol:WagerlyKinto",
								"label": "bettors",
								"offset": 0,
								"slot": "6",
								"type": "t_array(t_address)dyn_storage"
							},
							{
								"astId": 68,
								"contract": "packages/kinto_smart_contracts/bet_kinto.sol:WagerlyKinto",
								"label": "creator",
								"offset": 0,
								"slot": "7",
								"type": "t_address"
							},
							{
								"astId": 70,
								"contract": "packages/kinto_smart_contracts/bet_kinto.sol:WagerlyKinto",
								"label": "isOpen",
								"offset": 20,
								"slot": "7",
								"type": "t_bool"
							},
							{
								"astId": 72,
								"contract": "packages/kinto_smart_contracts/bet_kinto.sol:WagerlyKinto",
								"label": "isResolved",
								"offset": 21,
								"slot": "7",
								"type": "t_bool"
							},
							{
								"astId": 74,
								"contract": "packages/kinto_smart_contracts/bet_kinto.sol:WagerlyKinto",
								"label": "winningOption",
								"offset": 22,
								"slot": "7",
								"type": "t_uint8"
							},
							{
								"astId": 76,
								"contract": "packages/kinto_smart_contracts/bet_kinto.sol:WagerlyKinto",
								"label": "isCanceled",
								"offset": 23,
								"slot": "7",
								"type": "t_bool"
							}
						],
						"numberOfBytes": "256"
					},
					"t_uint256": {
						"encoding": "inplace",
						"label": "uint256",
						"numberOfBytes": "32"
					},
					"t_uint8": {
						"encoding": "inplace",
						"label": "uint8",
						"numberOfBytes": "1"
					}
				}
			},
			"userdoc": {
				"kind": "user",
				"methods": {},
				"version": 1
			}
		}
	}
}