{
	"data": {
		"bytecode": {
			"linkReferences": {},
			"object": "6080604052600180553480156012575f80fd5b50335f806101000a81548173ffffffffffffffffffffffffffffffffffffffff021916908373ffffffffffffffffffffffffffffffffffffffff160217905550613c758061005f5f395ff3fe608060405234801561000f575f80fd5b5060043610610091575f3560e01c80639e14427e116100645780639e14427e14610124578063b4ad06a114610140578063d65edb4d1461015c578063f13687481461017e578063f41408b51461019a57610091565b8063250e5adc14610095578063357401f5146100b157806379141f80146100cd5780638da5cb5b14610106575b5f80fd5b6100af60048036038101906100aa919061257e565b6101cd565b005b6100cb60048036038101906100c69190612635565b6105a8565b005b6100e760048036038101906100e29190612635565b610b24565b6040516100fd9a999897969594939291906128d1565b60405180910390f35b61010e610e45565b60405161011b9190612980565b60405180910390f35b61013e60048036038101906101399190612999565b610e68565b005b61015a60048036038101906101559190612635565b611231565b005b610164611335565b604051610175959493929190612bde565b60405180910390f35b61019860048036038101906101939190612c52565b6117c9565b005b6101b460048036038101906101af9190612c90565b611e9a565b6040516101c49493929190612cbb565b60405180910390f35b5f8054906101000a900473ffffffffffffffffffffffffffffffffffffffff1673ffffffffffffffffffffffffffffffffffffffff163373ffffffffffffffffffffffffffffffffffffffff161461025a576040517f08c379a000000000000000000000000000000000000000000000000000000000815260040161025190612d8a565b60405180910390fd5b60028560ff1610158015610272575060058560ff1611155b6102b1576040517f08c379a00000000000000000000000000000000000000000000000000000000081526004016102a890612df2565b60405180910390fd5b8460ff1684849050146102f9576040517f08c379a00000000000000000000000000000000000000000000000000000000081526004016102f090612e5a565b60405180910390fd5b5f600154905060015f81548092919061031190612ea5565b91905055505f73ffffffffffffffffffffffffffffffffffffffff1660025f8381526020019081526020015f206008015f9054906101000a900473ffffffffffffffffffffffffffffffffffffffff1673ffffffffffffffffffffffffffffffffffffffff16146103b7576040517f08c379a00000000000000000000000000000000000000000000000000000000081526004016103ae90612f5c565b60405180910390fd5b5f60025f8381526020019081526020015f20905081815f018190555088888260010191826103e69291906131ab565b5083816004018190555033816008015f6101000a81548173ffffffffffffffffffffffffffffffffffffffff021916908373ffffffffffffffffffffffffffffffffffffffff16021790555082816005015f6101000a81548173ffffffffffffffffffffffffffffffffffffffff021916908373ffffffffffffffffffffffffffffffffffffffff1602179055508660ff1667ffffffffffffffff81111561049157610490612f84565b5b6040519080825280602002602001820160405280156104bf5781602001602082028036833780820191505090505b508160030190805190602001906104d7929190612397565b505f5b8760ff168160ff161015610558578160020187878360ff1681811061050257610501613278565b5b905060200281019061051491906132b1565b90918060018154018082558091505060019003905f5260205f20015f90919290919290919290919250918261054a9291906131ab565b5080806001019150506104da565b50817f718bc754bfb694aa9753415d4cd8d5b5dc3946b046b68b3455507d5142a07a19338b8b8a8a8a8a6040516105959796959493929190613485565b60405180910390a2505050505050505050565b8060025f8281526020019081526020015f206008015f9054906101000a900473ffffffffffffffffffffffffffffffffffffffff1673ffffffffffffffffffffffffffffffffffffffff163373ffffffffffffffffffffffffffffffffffffffff161461064a576040517f08c379a000000000000000000000000000000000000000000000000000000000815260040161064190613532565b60405180910390fd5b5f60025f8481526020019081526020015f2090508060080160159054906101000a900460ff16156106b0576040517f08c379a00000000000000000000000000000000000000000000000000000000081526004016106a79061359a565b60405180910390fd5b60018160080160176101000a81548160ff0219169083151502179055505f816005015f9054906101000a900473ffffffffffffffffffffffffffffffffffffffff1690505f805b83600301805490508160ff16101561074b57836003018160ff168154811061072257610721613278565b5b905f5260205f2001548261073691906135b8565b91508080610743906135eb565b9150506106f7565b505f60648261075a9190613640565b90505f8190505f81838561076e9190613670565b6107789190613670565b90508473ffffffffffffffffffffffffffffffffffffffff1663a9059cbb739b63fa365019dd7bdf8cbed2823480f808391970856040518363ffffffff1660e01b81526004016107c99291906136a3565b6020604051808303815f875af11580156107e5573d5f803e3d5ffd5b505050506040513d601f19601f8201168201806040525081019061080991906136f4565b610848576040517f08c379a000000000000000000000000000000000000000000000000000000000815260040161083f90613769565b60405180910390fd5b8473ffffffffffffffffffffffffffffffffffffffff1663a9059cbb876008015f9054906101000a900473ffffffffffffffffffffffffffffffffffffffff16846040518363ffffffff1660e01b81526004016108a69291906136a3565b6020604051808303815f875af11580156108c2573d5f803e3d5ffd5b505050506040513d601f19601f820116820180604052508101906108e691906136f4565b610925576040517f08c379a000000000000000000000000000000000000000000000000000000000815260040161091c906137d1565b60405180910390fd5b5f5b8660070180549050811015610aec575f87600701828154811061094d5761094c613278565b5b905f5260205f20015f9054906101000a900473ffffffffffffffffffffffffffffffffffffffff1690505f886006015f8373ffffffffffffffffffffffffffffffffffffffff1673ffffffffffffffffffffffffffffffffffffffff1681526020019081526020015f2090505f5b81805490508160ff161015610adc575f828260ff16815481106109e1576109e0613278565b5b905f5260205f2090600202016001015490505f898783610a0191906137ef565b610a0b9190613640565b90508a73ffffffffffffffffffffffffffffffffffffffff1663a9059cbb86836040518363ffffffff1660e01b8152600401610a489291906136a3565b6020604051808303815f875af1158015610a64573d5f803e3d5ffd5b505050506040513d601f19601f82011682018060405250810190610a8891906136f4565b610ac7576040517f08c379a0000000000000000000000000000000000000000000000000000000008152600401610abe9061387a565b60405180910390fd5b50508080610ad4906135eb565b9150506109bb565b5050508080600101915050610927565b50877fe3906e8d1e2167ef706b023e6e83af697db5cd38f233c71bf5021b26b316c3a260405160405180910390a25050505050505050565b5f6060805f805f60605f805f8060025f8d81526020019081526020015f209050806008015f9054906101000a900473ffffffffffffffffffffffffffffffffffffffff169a50806001018054610b7990612fde565b80601f0160208091040260200160405190810160405280929190818152602001828054610ba590612fde565b8015610bf05780601f10610bc757610100808354040283529160200191610bf0565b820191905f5260205f20905b815481529060010190602001808311610bd357829003601f168201915b5050505050995080600201805480602002602001604051908101604052809291908181526020015f905b82821015610cc2578382905f5260205f20018054610c3790612fde565b80601f0160208091040260200160405190810160405280929190818152602001828054610c6390612fde565b8015610cae5780601f10610c8557610100808354040283529160200191610cae565b820191905f5260205f20905b815481529060010190602001808311610c9157829003601f168201915b505050505081526020019060010190610c1a565b5050505098508060080160149054906101000a900460ff1697508060080160159054906101000a900460ff169650806003018054905067ffffffffffffffff811115610d1157610d10612f84565b5b604051908082528060200260200182016040528015610d3f5781602001602082028036833780820191505090505b5094505f95505f5b81600301805490508160ff161015610ddf57816003018160ff1681548110610d7257610d71613278565b5b905f5260205f200154868260ff1681518110610d9157610d90613278565b5b602002602001018181525050816003018160ff1681548110610db657610db5613278565b5b905f5260205f20015487610dca91906135b8565b96508080610dd7906135eb565b915050610d47565b50806005015f9054906101000a900473ffffffffffffffffffffffffffffffffffffffff1693508060080160159054906101000a900460ff16610e22575f610e35565b8060080160169054906101000a900460ff165b9250509193959799509193959799565b5f8054906101000a900473ffffffffffffffffffffffffffffffffffffffff1681565b5f60025f8581526020019081526020015f2090508060080160149054906101000a900460ff16610ecd576040517f08c379a0000000000000000000000000000000000000000000000000000000008152600401610ec4906138e2565b60405180910390fd5b8060040154831015610f14576040517f08c379a0000000000000000000000000000000000000000000000000000000008152600401610f0b9061394a565b60405180910390fd5b60018260ff1610158015610f32575080600201805490508260ff1611155b610f71576040517f08c379a0000000000000000000000000000000000000000000000000000000008152600401610f68906139b2565b60405180910390fd5b5f816005015f9054906101000a900473ffffffffffffffffffffffffffffffffffffffff1690508073ffffffffffffffffffffffffffffffffffffffff166323b872dd3330876040518463ffffffff1660e01b8152600401610fd5939291906139d0565b6020604051808303815f875af1158015610ff1573d5f803e3d5ffd5b505050506040513d601f19601f8201168201806040525081019061101591906136f4565b611054576040517f08c379a000000000000000000000000000000000000000000000000000000000815260040161104b90613a4f565b60405180910390fd5b83826003016001856110669190613a6d565b60ff168154811061107a57611079613278565b5b905f5260205f20015f82825461109091906135b8565b92505081905550816006015f3373ffffffffffffffffffffffffffffffffffffffff1673ffffffffffffffffffffffffffffffffffffffff1681526020019081526020015f2060405180604001604052803373ffffffffffffffffffffffffffffffffffffffff16815260200186815250908060018154018082558091505060019003905f5260205f2090600202015f909190919091505f820151815f015f6101000a81548173ffffffffffffffffffffffffffffffffffffffff021916908373ffffffffffffffffffffffffffffffffffffffff1602179055506020820151816001015550508160070133908060018154018082558091505060019003905f5260205f20015f9091909190916101000a81548173ffffffffffffffffffffffffffffffffffffffff021916908373ffffffffffffffffffffffffffffffffffffffff1602179055503373ffffffffffffffffffffffffffffffffffffffff16857fe90186097616cbeb30ffc786b44501e1362f5e0a316a96c5ab82a0551f9d2f058686604051611222929190613aa1565b60405180910390a35050505050565b8060025f8281526020019081526020015f206008015f9054906101000a900473ffffffffffffffffffffffffffffffffffffffff1673ffffffffffffffffffffffffffffffffffffffff163373ffffffffffffffffffffffffffffffffffffffff16146112d3576040517f08c379a00000000000000000000000000000000000000000000000000000000081526004016112ca90613532565b60405180910390fd5b5f60025f8481526020019081526020015f2090505f8160080160146101000a81548160ff021916908315150217905550827feb7ecc3aa4dd407c7207677a2cbf861441d5c5e6c0dc70ad9692a980385c20d660405160405180910390a2505050565b60608060608060605f80600190505b600154811015611396575f60025f8381526020019081526020015f2090508060080160149054906101000a900460ff161561138857828061138490612ea5565b9350505b508080600101915050611344565b508067ffffffffffffffff8111156113b1576113b0612f84565b5b6040519080825280602002602001820160405280156113df5781602001602082028036833780820191505090505b5095508067ffffffffffffffff8111156113fc576113fb612f84565b5b60405190808252806020026020018201604052801561142f57816020015b606081526020019060019003908161141a5790505b5094508067ffffffffffffffff81111561144c5761144b612f84565b5b60405190808252806020026020018201604052801561147f57816020015b606081526020019060019003908161146a5790505b5093508067ffffffffffffffff81111561149c5761149b612f84565b5b6040519080825280602002602001820160405280156114ca5781602001602082028036833780820191505090505b5092508067ffffffffffffffff8111156114e7576114e6612f84565b5b6040519080825280602002602001820160405280156115155781602001602082028036833780820191505090505b5091505f80600190505b6001548110156117bf575f60025f8381526020019081526020015f2090508060080160149054906101000a900460ff16156117b157805f015489848151811061156b5761156a613278565b5b60200260200101818152505080600101805461158690612fde565b80601f01602080910402602001604051908101604052809291908181526020018280546115b290612fde565b80156115fd5780601f106115d4576101008083540402835291602001916115fd565b820191905f5260205f20905b8154815290600101906020018083116115e057829003601f168201915b505050505088848151811061161557611614613278565b5b602002602001018190525080600201805480602002602001604051908101604052809291908181526020015f905b828210156116eb578382905f5260205f2001805461166090612fde565b80601f016020809104026020016040519081016040528092919081815260200182805461168c90612fde565b80156116d75780601f106116ae576101008083540402835291602001916116d7565b820191905f5260205f20905b8154815290600101906020018083116116ba57829003601f168201915b505050505081526020019060010190611643565b5050505087848151811061170257611701613278565b5b6020026020010181905250806004015486848151811061172557611724613278565b5b602002602001018181525050806008015f9054906101000a900473ffffffffffffffffffffffffffffffffffffffff1685848151811061176857611767613278565b5b602002602001019073ffffffffffffffffffffffffffffffffffffffff16908173ffffffffffffffffffffffffffffffffffffffff168152505082806117ad90612ea5565b9350505b50808060010191505061151f565b5050509091929394565b8160025f8281526020019081526020015f206008015f9054906101000a900473ffffffffffffffffffffffffffffffffffffffff1673ffffffffffffffffffffffffffffffffffffffff163373ffffffffffffffffffffffffffffffffffffffff161461186b576040517f08c379a000000000000000000000000000000000000000000000000000000000815260040161186290613532565b60405180910390fd5b60018260ff1610158015611899575060025f8481526020019081526020015f20600201805490508260ff1611155b6118d8576040517f08c379a00000000000000000000000000000000000000000000000000000000081526004016118cf90613b12565b60405180910390fd5b5f60025f8581526020019081526020015f2090508060080160149054906101000a900460ff1615801561191a57508060080160159054906101000a900460ff16155b611959576040517f08c379a000000000000000000000000000000000000000000000000000000000815260040161195090613ba0565b60405180910390fd5b5f816005015f9054906101000a900473ffffffffffffffffffffffffffffffffffffffff1690505f805b83600301805490508160ff1610156119d757836003018160ff16815481106119ae576119ad613278565b5b905f5260205f200154826119c291906135b8565b915080806119cf906135eb565b915050611983565b505f836003016001876119ea9190613a6d565b60ff16815481106119fe576119fd613278565b5b905f5260205f20015490505f606483611a179190613640565b90505f8190505f818386611a2b9190613670565b611a359190613670565b90508573ffffffffffffffffffffffffffffffffffffffff1663a9059cbb739b63fa365019dd7bdf8cbed2823480f808391970856040518363ffffffff1660e01b8152600401611a869291906136a3565b6020604051808303815f875af1158015611aa2573d5f803e3d5ffd5b505050506040513d601f19601f82011682018060405250810190611ac691906136f4565b611b05576040517f08c379a0000000000000000000000000000000000000000000000000000000008152600401611afc90613769565b60405180910390fd5b8573ffffffffffffffffffffffffffffffffffffffff1663a9059cbb886008015f9054906101000a900473ffffffffffffffffffffffffffffffffffffffff16846040518363ffffffff1660e01b8152600401611b639291906136a3565b6020604051808303815f875af1158015611b7f573d5f803e3d5ffd5b505050506040513d601f19601f82011682018060405250810190611ba391906136f4565b611be2576040517f08c379a0000000000000000000000000000000000000000000000000000000008152600401611bd9906137d1565b60405180910390fd5b5f5b8760070180549050811015611e1b575f886007018281548110611c0a57611c09613278565b5b905f5260205f20015f9054906101000a900473ffffffffffffffffffffffffffffffffffffffff1690505f896006015f8373ffffffffffffffffffffffffffffffffffffffff1673ffffffffffffffffffffffffffffffffffffffff1681526020019081526020015f2090505f5b81805490508160ff161015611e0b575f73ffffffffffffffffffffffffffffffffffffffff16828260ff1681548110611cb457611cb3613278565b5b905f5260205f2090600202015f015f9054906101000a900473ffffffffffffffffffffffffffffffffffffffff1673ffffffffffffffffffffffffffffffffffffffff1614611df8575f8886848460ff1681548110611d1657611d15613278565b5b905f5260205f20906002020160010154611d3091906137ef565b611d3a9190613640565b90508a73ffffffffffffffffffffffffffffffffffffffff1663a9059cbb85836040518363ffffffff1660e01b8152600401611d779291906136a3565b6020604051808303815f875af1158015611d93573d5f803e3d5ffd5b505050506040513d601f19601f82011682018060405250810190611db791906136f4565b611df6576040517f08c379a0000000000000000000000000000000000000000000000000000000008152600401611ded90613c08565b60405180910390fd5b505b8080611e03906135eb565b915050611c78565b5050508080600101915050611be4565b5060018760080160156101000a81548160ff021916908315150217905550888760080160166101000a81548160ff021916908360ff160217905550897f28c9277c6636bf00b5d22b2287c0f37926ae23a6825d5801e10a7183bb69045c8a604051611e869190613c26565b60405180910390a250505050505050505050565b6060806060805f80600190505b600154811015611f46575f60025f8381526020019081526020015f2090508060080160149054906101000a900460ff168015611f2457505f816006015f8a73ffffffffffffffffffffffffffffffffffffffff1673ffffffffffffffffffffffffffffffffffffffff1681526020019081526020015f2080549050115b15611f38578280611f3490612ea5565b9350505b508080600101915050611ea7565b508067ffffffffffffffff811115611f6157611f60612f84565b5b604051908082528060200260200182016040528015611f8f5781602001602082028036833780820191505090505b5094508067ffffffffffffffff811115611fac57611fab612f84565b5b604051908082528060200260200182016040528015611fdf57816020015b6060815260200190600190039081611fca5790505b5093508067ffffffffffffffff811115611ffc57611ffb612f84565b5b60405190808252806020026020018201604052801561202a5781602001602082028036833780820191505090505b5092508067ffffffffffffffff81111561204757612046612f84565b5b60405190808252806020026020018201604052801561207a57816020015b60608152602001906001900390816120655790505b5091505f80600190505b60015481101561238d575f60025f8381526020019081526020015f2090508060080160149054906101000a900460ff16801561210157505f816006015f8b73ffffffffffffffffffffffffffffffffffffffff1673ffffffffffffffffffffffffffffffffffffffff1681526020019081526020015f2080549050115b1561237f57805f015488848151811061211d5761211c613278565b5b60200260200101818152505080600101805461213890612fde565b80601f016020809104026020016040519081016040528092919081815260200182805461216490612fde565b80156121af5780601f10612186576101008083540402835291602001916121af565b820191905f5260205f20905b81548152906001019060200180831161219257829003601f168201915b50505050508784815181106121c7576121c6613278565b5b60200260200101819052505f80826006015f8c73ffffffffffffffffffffffffffffffffffffffff1673ffffffffffffffffffffffffffffffffffffffff1681526020019081526020015f2090505f5b81805490508110156122605781818154811061223657612235613278565b5b905f5260205f209060020201600101548361225191906135b8565b92508080600101915050612217565b508188868151811061227557612274613278565b5b60200260200101818152505082600201805480602002602001604051908101604052809291908181526020015f905b8282101561234c578382905f5260205f200180546122c190612fde565b80601f01602080910402602001604051908101604052809291908181526020018280546122ed90612fde565b80156123385780601f1061230f57610100808354040283529160200191612338565b820191905f5260205f20905b81548152906001019060200180831161231b57829003601f168201915b5050505050815260200190600101906122a4565b5050505087868151811061236357612362613278565b5b6020026020010181905250848061237990612ea5565b95505050505b508080600101915050612084565b5050509193509193565b828054828255905f5260205f209081019282156123d1579160200282015b828111156123d05782518255916020019190600101906123b5565b5b5090506123de91906123e2565b5090565b5b808211156123f9575f815f9055506001016123e3565b5090565b5f80fd5b5f80fd5b5f80fd5b5f80fd5b5f80fd5b5f8083601f84011261242657612425612405565b5b8235905067ffffffffffffffff81111561244357612442612409565b5b60208301915083600182028301111561245f5761245e61240d565b5b9250929050565b5f60ff82169050919050565b61247b81612466565b8114612485575f80fd5b50565b5f8135905061249681612472565b92915050565b5f8083601f8401126124b1576124b0612405565b5b8235905067ffffffffffffffff8111156124ce576124cd612409565b5b6020830191508360208202830111156124ea576124e961240d565b5b9250929050565b5f819050919050565b612503816124f1565b811461250d575f80fd5b50565b5f8135905061251e816124fa565b92915050565b5f73ffffffffffffffffffffffffffffffffffffffff82169050919050565b5f61254d82612524565b9050919050565b61255d81612543565b8114612567575f80fd5b50565b5f8135905061257881612554565b92915050565b5f805f805f805f60a0888a031215612599576125986123fd565b5b5f88013567ffffffffffffffff8111156125b6576125b5612401565b5b6125c28a828b01612411565b975097505060206125d58a828b01612488565b955050604088013567ffffffffffffffff8111156125f6576125f5612401565b5b6126028a828b0161249c565b945094505060606126158a828b01612510565b92505060806126268a828b0161256a565b91505092959891949750929550565b5f6020828403121561264a576126496123fd565b5b5f61265784828501612510565b91505092915050565b61266981612543565b82525050565b5f81519050919050565b5f82825260208201905092915050565b8281835e5f83830152505050565b5f601f19601f8301169050919050565b5f6126b18261266f565b6126bb8185612679565b93506126cb818560208601612689565b6126d481612697565b840191505092915050565b5f81519050919050565b5f82825260208201905092915050565b5f819050602082019050919050565b5f82825260208201905092915050565b5f6127228261266f565b61272c8185612708565b935061273c818560208601612689565b61274581612697565b840191505092915050565b5f61275b8383612718565b905092915050565b5f602082019050919050565b5f612779826126df565b61278381856126e9565b935083602082028501612795856126f9565b805f5b858110156127d057848403895281516127b18582612750565b94506127bc83612763565b925060208a01995050600181019050612798565b50829750879550505050505092915050565b5f8115159050919050565b6127f6816127e2565b82525050565b612805816124f1565b82525050565b5f81519050919050565b5f82825260208201905092915050565b5f819050602082019050919050565b61283d816124f1565b82525050565b5f61284e8383612834565b60208301905092915050565b5f602082019050919050565b5f6128708261280b565b61287a8185612815565b935061288583612825565b805f5b838110156128b557815161289c8882612843565b97506128a78361285a565b925050600181019050612888565b5085935050505092915050565b6128cb81612466565b82525050565b5f610140820190506128e55f83018d612660565b81810360208301526128f7818c6126a7565b9050818103604083015261290b818b61276f565b905061291a606083018a6127ed565b61292760808301896127ed565b61293460a08301886127fc565b81810360c08301526129468187612866565b905061295560e0830186612660565b6129636101008301856128c2565b6129716101208301846127ed565b9b9a5050505050505050505050565b5f6020820190506129935f830184612660565b92915050565b5f805f606084860312156129b0576129af6123fd565b5b5f6129bd86828701612510565b93505060206129ce86828701612510565b92505060406129df86828701612488565b9150509250925092565b5f81519050919050565b5f82825260208201905092915050565b5f819050602082019050919050565b5f82825260208201905092915050565b5f612a2c826126df565b612a368185612a12565b935083602082028501612a48856126f9565b805f5b85811015612a835784840389528151612a648582612750565b9450612a6f83612763565b925060208a01995050600181019050612a4b565b50829750879550505050505092915050565b5f612aa08383612a22565b905092915050565b5f602082019050919050565b5f612abe826129e9565b612ac881856129f3565b935083602082028501612ada85612a03565b805f5b85811015612b155784840389528151612af68582612a95565b9450612b0183612aa8565b925060208a01995050600181019050612add565b50829750879550505050505092915050565b5f81519050919050565b5f82825260208201905092915050565b5f819050602082019050919050565b612b5981612543565b82525050565b5f612b6a8383612b50565b60208301905092915050565b5f602082019050919050565b5f612b8c82612b27565b612b968185612b31565b9350612ba183612b41565b805f5b83811015612bd1578151612bb88882612b5f565b9750612bc383612b76565b925050600181019050612ba4565b5085935050505092915050565b5f60a0820190508181035f830152612bf68188612866565b90508181036020830152612c0a818761276f565b90508181036040830152612c1e8186612ab4565b90508181036060830152612c328185612866565b90508181036080830152612c468184612b82565b90509695505050505050565b5f8060408385031215612c6857612c676123fd565b5b5f612c7585828601612510565b9250506020612c8685828601612488565b9150509250929050565b5f60208284031215612ca557612ca46123fd565b5b5f612cb28482850161256a565b91505092915050565b5f6080820190508181035f830152612cd38187612866565b90508181036020830152612ce7818661276f565b90508181036040830152612cfb8185612866565b90508181036060830152612d0f8184612ab4565b905095945050505050565b7f4e6f7420617574686f72697a65642c206f6e6c79206f776e65722063616e20635f8201527f7265617465206265747300000000000000000000000000000000000000000000602082015250565b5f612d74602a83612679565b9150612d7f82612d1a565b604082019050919050565b5f6020820190508181035f830152612da181612d68565b9050919050565b7f496e76616c6964206e756d626572206f66206f7074696f6e73000000000000005f82015250565b5f612ddc601983612679565b9150612de782612da8565b602082019050919050565b5f6020820190508181035f830152612e0981612dd0565b9050919050565b7f4f7074696f6e206e616d6573206c656e677468206d69736d61746368000000005f82015250565b5f612e44601c83612679565b9150612e4f82612e10565b602082019050919050565b5f6020820190508181035f830152612e7181612e38565b9050919050565b7f4e487b71000000000000000000000000000000000000000000000000000000005f52601160045260245ffd5b5f612eaf826124f1565b91507fffffffffffffffffffffffffffffffffffffffffffffffffffffffffffffffff8203612ee157612ee0612e78565b5b600182019050919050565b7f42657420696e7374616e63652077697468207468697320494420616c726561645f8201527f7920657869737473000000000000000000000000000000000000000000000000602082015250565b5f612f46602883612679565b9150612f5182612eec565b604082019050919050565b5f6020820190508181035f830152612f7381612f3a565b9050919050565b5f82905092915050565b7f4e487b71000000000000000000000000000000000000000000000000000000005f52604160045260245ffd5b7f4e487b71000000000000000000000000000000000000000000000000000000005f52602260045260245ffd5b5f6002820490506001821680612ff557607f821691505b60208210810361300857613007612fb1565b5b50919050565b5f819050815f5260205f209050919050565b5f6020601f8301049050919050565b5f82821b905092915050565b5f6008830261306a7fffffffffffffffffffffffffffffffffffffffffffffffffffffffffffffffff8261302f565b613074868361302f565b95508019841693508086168417925050509392505050565b5f819050919050565b5f6130af6130aa6130a5846124f1565b61308c565b6124f1565b9050919050565b5f819050919050565b6130c883613095565b6130dc6130d4826130b6565b84845461303b565b825550505050565b5f90565b6130f06130e4565b6130fb8184846130bf565b505050565b5b8181101561311e576131135f826130e8565b600181019050613101565b5050565b601f821115613163576131348161300e565b61313d84613020565b8101602085101561314c578190505b61316061315885613020565b830182613100565b50505b505050565b5f82821c905092915050565b5f6131835f1984600802613168565b1980831691505092915050565b5f61319b8383613174565b9150826002028217905092915050565b6131b58383612f7a565b67ffffffffffffffff8111156131ce576131cd612f84565b5b6131d88254612fde565b6131e3828285613122565b5f601f831160018114613210575f84156131fe578287013590505b6132088582613190565b86555061326f565b601f19841661321e8661300e565b5f5b8281101561324557848901358255600182019150602085019450602081019050613220565b86831015613262578489013561325e601f891682613174565b8355505b6001600288020188555050505b50505050505050565b7f4e487b71000000000000000000000000000000000000000000000000000000005f52603260045260245ffd5b5f80fd5b5f80fd5b5f80fd5b5f80833560016020038436030381126132cd576132cc6132a5565b5b80840192508235915067ffffffffffffffff8211156132ef576132ee6132a9565b5b60208301925060018202360383131561330b5761330a6132ad565b5b509250929050565b828183375f83830152505050565b5f61332c8385612679565b9350613339838584613313565b61334283612697565b840190509392505050565b5f819050919050565b5f6133618385612708565b935061336e838584613313565b61337783612697565b840190509392505050565b5f61338e848484613356565b90509392505050565b5f80fd5b5f80fd5b5f80fd5b5f80833560016020038436030381126133bf576133be61339f565b5b83810192508235915060208301925067ffffffffffffffff8211156133e7576133e6613397565b5b6001820236038313156133fd576133fc61339b565b5b509250929050565b5f602082019050919050565b5f61341c83856126e9565b93508360208402850161342e8461334d565b805f5b8781101561347357848403895261344882846133a3565b613453868284613382565b955061345e84613405565b935060208b019a505050600181019050613431565b50829750879450505050509392505050565b5f60a0820190506134985f83018a612660565b81810360208301526134ab81888a613321565b905081810360408301526134c0818688613411565b90506134cf60608301856127fc565b6134dc6080830184612660565b98975050505050505050565b7f4e6f7420617574686f72697a65640000000000000000000000000000000000005f82015250565b5f61351c600e83612679565b9150613527826134e8565b602082019050919050565b5f6020820190508181035f83015261354981613510565b9050919050565b7f42657474696e6720616c7265616479207265736f6c76656400000000000000005f82015250565b5f613584601883612679565b915061358f82613550565b602082019050919050565b5f6020820190508181035f8301526135b181613578565b9050919050565b5f6135c2826124f1565b91506135cd836124f1565b92508282019050808211156135e5576135e4612e78565b5b92915050565b5f6135f582612466565b915060ff820361360857613607612e78565b5b600182019050919050565b7f4e487b71000000000000000000000000000000000000000000000000000000005f52601260045260245ffd5b5f61364a826124f1565b9150613655836124f1565b92508261366557613664613613565b5b828204905092915050565b5f61367a826124f1565b9150613685836124f1565b925082820390508181111561369d5761369c612e78565b5b92915050565b5f6040820190506136b65f830185612660565b6136c360208301846127fc565b9392505050565b6136d3816127e2565b81146136dd575f80fd5b50565b5f815190506136ee816136ca565b92915050565b5f60208284031215613709576137086123fd565b5b5f613716848285016136e0565b91505092915050565b7f466565207472616e73666572206661696c6564000000000000000000000000005f82015250565b5f613753601383612679565b915061375e8261371f565b602082019050919050565b5f6020820190508181035f83015261378081613747565b9050919050565b7f43726561746f7220666565207472616e73666572206661696c656400000000005f82015250565b5f6137bb601b83612679565b91506137c682613787565b602082019050919050565b5f6020820190508181035f8301526137e8816137af565b9050919050565b5f6137f9826124f1565b9150613804836124f1565b9250828202613812816124f1565b9150828204841483151761382957613828612e78565b5b5092915050565b7f426574746f72207472616e73666572206661696c6564000000000000000000005f82015250565b5f613864601683612679565b915061386f82613830565b602082019050919050565b5f6020820190508181035f83015261389181613858565b9050919050565b7f42657474696e6720697320636c6f7365640000000000000000000000000000005f82015250565b5f6138cc601183612679565b91506138d782613898565b602082019050919050565b5f6020820190508181035f8301526138f9816138c0565b9050919050565b7f42657420616d6f756e74206973206c657373207468616e206d696e696d756d005f82015250565b5f613934601f83612679565b915061393f82613900565b602082019050919050565b5f6020820190508181035f83015261396181613928565b9050919050565b7f496e76616c6964206f7074696f6e0000000000000000000000000000000000005f82015250565b5f61399c600e83612679565b91506139a782613968565b602082019050919050565b5f6020820190508181035f8301526139c981613990565b9050919050565b5f6060820190506139e35f830186612660565b6139f06020830185612660565b6139fd60408301846127fc565b949350505050565b7f5472616e73666572206661696c656400000000000000000000000000000000005f82015250565b5f613a39600f83612679565b9150613a4482613a05565b602082019050919050565b5f6020820190508181035f830152613a6681613a2d565b9050919050565b5f613a7782612466565b9150613a8283612466565b9250828203905060ff811115613a9b57613a9a612e78565b5b92915050565b5f604082019050613ab45f8301856127fc565b613ac160208301846128c2565b9392505050565b7f496e76616c69642077696e6e696e67206f7074696f6e000000000000000000005f82015250565b5f613afc601683612679565b9150613b0782613ac8565b602082019050919050565b5f6020820190508181035f830152613b2981613af0565b9050919050565b7f42657474696e67206d75737420626520636c6f73656420616e64206e6f7420725f8201527f65736f6c76656400000000000000000000000000000000000000000000000000602082015250565b5f613b8a602783612679565b9150613b9582613b30565b604082019050919050565b5f6020820190508181035f830152613bb781613b7e565b9050919050565b7f57696e6e6572207472616e73666572206661696c6564000000000000000000005f82015250565b5f613bf2601683612679565b9150613bfd82613bbe565b602082019050919050565b5f6020820190508181035f830152613c1f81613be6565b9050919050565b5f602082019050613c395f8301846128c2565b9291505056fea26469706673582212202b7655f46cc2d319e7491ac2ac8cb1f9b0fdf9ef753857b936049094cffaf32864736f6c634300081a0033",
			"opcodes": "PUSH1 0x80 PUSH1 0x40 MSTORE PUSH1 0x1 DUP1 SSTORE CALLVALUE DUP1 ISZERO PUSH1 0x12 JUMPI PUSH0 DUP1 REVERT JUMPDEST POP CALLER PUSH0 DUP1 PUSH2 0x100 EXP DUP2 SLOAD DUP2 PUSH20 0xFFFFFFFFFFFFFFFFFFFFFFFFFFFFFFFFFFFFFFFF MUL NOT AND SWAP1 DUP4 PUSH20 0xFFFFFFFFFFFFFFFFFFFFFFFFFFFFFFFFFFFFFFFF AND MUL OR SWAP1 SSTORE POP PUSH2 0x3C75 DUP1 PUSH2 0x5F PUSH0 CODECOPY PUSH0 RETURN INVALID PUSH1 0x80 PUSH1 0x40 MSTORE CALLVALUE DUP1 ISZERO PUSH2 0xF JUMPI PUSH0 DUP1 REVERT JUMPDEST POP PUSH1 0x4 CALLDATASIZE LT PUSH2 0x91 JUMPI PUSH0 CALLDATALOAD PUSH1 0xE0 SHR DUP1 PUSH4 0x9E14427E GT PUSH2 0x64 JUMPI DUP1 PUSH4 0x9E14427E EQ PUSH2 0x124 JUMPI DUP1 PUSH4 0xB4AD06A1 EQ PUSH2 0x140 JUMPI DUP1 PUSH4 0xD65EDB4D EQ PUSH2 0x15C JUMPI DUP1 PUSH4 0xF1368748 EQ PUSH2 0x17E JUMPI DUP1 PUSH4 0xF41408B5 EQ PUSH2 0x19A JUMPI PUSH2 0x91 JUMP JUMPDEST DUP1 PUSH4 0x250E5ADC EQ PUSH2 0x95 JUMPI DUP1 PUSH4 0x357401F5 EQ PUSH2 0xB1 JUMPI DUP1 PUSH4 0x79141F80 EQ PUSH2 0xCD JUMPI DUP1 PUSH4 0x8DA5CB5B EQ PUSH2 0x106 JUMPI JUMPDEST PUSH0 DUP1 REVERT JUMPDEST PUSH2 0xAF PUSH1 0x4 DUP1 CALLDATASIZE SUB DUP2 ADD SWAP1 PUSH2 0xAA SWAP2 SWAP1 PUSH2 0x257E JUMP JUMPDEST PUSH2 0x1CD JUMP JUMPDEST STOP JUMPDEST PUSH2 0xCB PUSH1 0x4 DUP1 CALLDATASIZE SUB DUP2 ADD SWAP1 PUSH2 0xC6 SWAP2 SWAP1 PUSH2 0x2635 JUMP JUMPDEST PUSH2 0x5A8 JUMP JUMPDEST STOP JUMPDEST PUSH2 0xE7 PUSH1 0x4 DUP1 CALLDATASIZE SUB DUP2 ADD SWAP1 PUSH2 0xE2 SWAP2 SWAP1 PUSH2 0x2635 JUMP JUMPDEST PUSH2 0xB24 JUMP JUMPDEST PUSH1 0x40 MLOAD PUSH2 0xFD SWAP11 SWAP10 SWAP9 SWAP8 SWAP7 SWAP6 SWAP5 SWAP4 SWAP3 SWAP2 SWAP1 PUSH2 0x28D1 JUMP JUMPDEST PUSH1 0x40 MLOAD DUP1 SWAP2 SUB SWAP1 RETURN JUMPDEST PUSH2 0x10E PUSH2 0xE45 JUMP JUMPDEST PUSH1 0x40 MLOAD PUSH2 0x11B SWAP2 SWAP1 PUSH2 0x2980 JUMP JUMPDEST PUSH1 0x40 MLOAD DUP1 SWAP2 SUB SWAP1 RETURN JUMPDEST PUSH2 0x13E PUSH1 0x4 DUP1 CALLDATASIZE SUB DUP2 ADD SWAP1 PUSH2 0x139 SWAP2 SWAP1 PUSH2 0x2999 JUMP JUMPDEST PUSH2 0xE68 JUMP JUMPDEST STOP JUMPDEST PUSH2 0x15A PUSH1 0x4 DUP1 CALLDATASIZE SUB DUP2 ADD SWAP1 PUSH2 0x155 SWAP2 SWAP1 PUSH2 0x2635 JUMP JUMPDEST PUSH2 0x1231 JUMP JUMPDEST STOP JUMPDEST PUSH2 0x164 PUSH2 0x1335 JUMP JUMPDEST PUSH1 0x40 MLOAD PUSH2 0x175 SWAP6 SWAP5 SWAP4 SWAP3 SWAP2 SWAP1 PUSH2 0x2BDE JUMP JUMPDEST PUSH1 0x40 MLOAD DUP1 SWAP2 SUB SWAP1 RETURN JUMPDEST PUSH2 0x198 PUSH1 0x4 DUP1 CALLDATASIZE SUB DUP2 ADD SWAP1 PUSH2 0x193 SWAP2 SWAP1 PUSH2 0x2C52 JUMP JUMPDEST PUSH2 0x17C9 JUMP JUMPDEST STOP JUMPDEST PUSH2 0x1B4 PUSH1 0x4 DUP1 CALLDATASIZE SUB DUP2 ADD SWAP1 PUSH2 0x1AF SWAP2 SWAP1 PUSH2 0x2C90 JUMP JUMPDEST PUSH2 0x1E9A JUMP JUMPDEST PUSH1 0x40 MLOAD PUSH2 0x1C4 SWAP5 SWAP4 SWAP3 SWAP2 SWAP1 PUSH2 0x2CBB JUMP JUMPDEST PUSH1 0x40 MLOAD DUP1 SWAP2 SUB SWAP1 RETURN JUMPDEST PUSH0 DUP1 SLOAD SWAP1 PUSH2 0x100 EXP SWAP1 DIV PUSH20 0xFFFFFFFFFFFFFFFFFFFFFFFFFFFFFFFFFFFFFFFF AND PUSH20 0xFFFFFFFFFFFFFFFFFFFFFFFFFFFFFFFFFFFFFFFF AND CALLER PUSH20 0xFFFFFFFFFFFFFFFFFFFFFFFFFFFFFFFFFFFFFFFF AND EQ PUSH2 0x25A JUMPI PUSH1 0x40 MLOAD PUSH32 0x8C379A000000000000000000000000000000000000000000000000000000000 DUP2 MSTORE PUSH1 0x4 ADD PUSH2 0x251 SWAP1 PUSH2 0x2D8A JUMP JUMPDEST PUSH1 0x40 MLOAD DUP1 SWAP2 SUB SWAP1 REVERT JUMPDEST PUSH1 0x2 DUP6 PUSH1 0xFF AND LT ISZERO DUP1 ISZERO PUSH2 0x272 JUMPI POP PUSH1 0x5 DUP6 PUSH1 0xFF AND GT ISZERO JUMPDEST PUSH2 0x2B1 JUMPI PUSH1 0x40 MLOAD PUSH32 0x8C379A000000000000000000000000000000000000000000000000000000000 DUP2 MSTORE PUSH1 0x4 ADD PUSH2 0x2A8 SWAP1 PUSH2 0x2DF2 JUMP JUMPDEST PUSH1 0x40 MLOAD DUP1 SWAP2 SUB SWAP1 REVERT JUMPDEST DUP5 PUSH1 0xFF AND DUP5 DUP5 SWAP1 POP EQ PUSH2 0x2F9 JUMPI PUSH1 0x40 MLOAD PUSH32 0x8C379A000000000000000000000000000000000000000000000000000000000 DUP2 MSTORE PUSH1 0x4 ADD PUSH2 0x2F0 SWAP1 PUSH2 0x2E5A JUMP JUMPDEST PUSH1 0x40 MLOAD DUP1 SWAP2 SUB SWAP1 REVERT JUMPDEST PUSH0 PUSH1 0x1 SLOAD SWAP1 POP PUSH1 0x1 PUSH0 DUP2 SLOAD DUP1 SWAP3 SWAP2 SWAP1 PUSH2 0x311 SWAP1 PUSH2 0x2EA5 JUMP JUMPDEST SWAP2 SWAP1 POP SSTORE POP PUSH0 PUSH20 0xFFFFFFFFFFFFFFFFFFFFFFFFFFFFFFFFFFFFFFFF AND PUSH1 0x2 PUSH0 DUP4 DUP2 MSTORE PUSH1 0x20 ADD SWAP1 DUP2 MSTORE PUSH1 0x20 ADD PUSH0 KECCAK256 PUSH1 0x8 ADD PUSH0 SWAP1 SLOAD SWAP1 PUSH2 0x100 EXP SWAP1 DIV PUSH20 0xFFFFFFFFFFFFFFFFFFFFFFFFFFFFFFFFFFFFFFFF AND PUSH20 0xFFFFFFFFFFFFFFFFFFFFFFFFFFFFFFFFFFFFFFFF AND EQ PUSH2 0x3B7 JUMPI PUSH1 0x40 MLOAD PUSH32 0x8C379A000000000000000000000000000000000000000000000000000000000 DUP2 MSTORE PUSH1 0x4 ADD PUSH2 0x3AE SWAP1 PUSH2 0x2F5C JUMP JUMPDEST PUSH1 0x40 MLOAD DUP1 SWAP2 SUB SWAP1 REVERT JUMPDEST PUSH0 PUSH1 0x2 PUSH0 DUP4 DUP2 MSTORE PUSH1 0x20 ADD SWAP1 DUP2 MSTORE PUSH1 0x20 ADD PUSH0 KECCAK256 SWAP1 POP DUP2 DUP2 PUSH0 ADD DUP2 SWAP1 SSTORE POP DUP9 DUP9 DUP3 PUSH1 0x1 ADD SWAP2 DUP3 PUSH2 0x3E6 SWAP3 SWAP2 SWAP1 PUSH2 0x31AB JUMP JUMPDEST POP DUP4 DUP2 PUSH1 0x4 ADD DUP2 SWAP1 SSTORE POP CALLER DUP2 PUSH1 0x8 ADD PUSH0 PUSH2 0x100 EXP DUP2 SLOAD DUP2 PUSH20 0xFFFFFFFFFFFFFFFFFFFFFFFFFFFFFFFFFFFFFFFF MUL NOT AND SWAP1 DUP4 PUSH20 0xFFFFFFFFFFFFFFFFFFFFFFFFFFFFFFFFFFFFFFFF AND MUL OR SWAP1 SSTORE POP DUP3 DUP2 PUSH1 0x5 ADD PUSH0 PUSH2 0x100 EXP DUP2 SLOAD DUP2 PUSH20 0xFFFFFFFFFFFFFFFFFFFFFFFFFFFFFFFFFFFFFFFF MUL NOT AND SWAP1 DUP4 PUSH20 0xFFFFFFFFFFFFFFFFFFFFFFFFFFFFFFFFFFFFFFFF AND MUL OR SWAP1 SSTORE POP DUP7 PUSH1 0xFF AND PUSH8 0xFFFFFFFFFFFFFFFF DUP2 GT ISZERO PUSH2 0x491 JUMPI PUSH2 0x490 PUSH2 0x2F84 JUMP JUMPDEST JUMPDEST PUSH1 0x40 MLOAD SWAP1 DUP1 DUP3 MSTORE DUP1 PUSH1 0x20 MUL PUSH1 0x20 ADD DUP3 ADD PUSH1 0x40 MSTORE DUP1 ISZERO PUSH2 0x4BF JUMPI DUP2 PUSH1 0x20 ADD PUSH1 0x20 DUP3 MUL DUP1 CALLDATASIZE DUP4 CALLDATACOPY DUP1 DUP3 ADD SWAP2 POP POP SWAP1 POP JUMPDEST POP DUP2 PUSH1 0x3 ADD SWAP1 DUP1 MLOAD SWAP1 PUSH1 0x20 ADD SWAP1 PUSH2 0x4D7 SWAP3 SWAP2 SWAP1 PUSH2 0x2397 JUMP JUMPDEST POP PUSH0 JUMPDEST DUP8 PUSH1 0xFF AND DUP2 PUSH1 0xFF AND LT ISZERO PUSH2 0x558 JUMPI DUP2 PUSH1 0x2 ADD DUP8 DUP8 DUP4 PUSH1 0xFF AND DUP2 DUP2 LT PUSH2 0x502 JUMPI PUSH2 0x501 PUSH2 0x3278 JUMP JUMPDEST JUMPDEST SWAP1 POP PUSH1 0x20 MUL DUP2 ADD SWAP1 PUSH2 0x514 SWAP2 SWAP1 PUSH2 0x32B1 JUMP JUMPDEST SWAP1 SWAP2 DUP1 PUSH1 0x1 DUP2 SLOAD ADD DUP1 DUP3 SSTORE DUP1 SWAP2 POP POP PUSH1 0x1 SWAP1 SUB SWAP1 PUSH0 MSTORE PUSH1 0x20 PUSH0 KECCAK256 ADD PUSH0 SWAP1 SWAP2 SWAP3 SWAP1 SWAP2 SWAP3 SWAP1 SWAP2 SWAP3 SWAP1 SWAP2 SWAP3 POP SWAP2 DUP3 PUSH2 0x54A SWAP3 SWAP2 SWAP1 PUSH2 0x31AB JUMP JUMPDEST POP DUP1 DUP1 PUSH1 0x1 ADD SWAP2 POP POP PUSH2 0x4DA JUMP JUMPDEST POP DUP2 PUSH32 0x718BC754BFB694AA9753415D4CD8D5B5DC3946B046B68B3455507D5142A07A19 CALLER DUP12 DUP12 DUP11 DUP11 DUP11 DUP11 PUSH1 0x40 MLOAD PUSH2 0x595 SWAP8 SWAP7 SWAP6 SWAP5 SWAP4 SWAP3 SWAP2 SWAP1 PUSH2 0x3485 JUMP JUMPDEST PUSH1 0x40 MLOAD DUP1 SWAP2 SUB SWAP1 LOG2 POP POP POP POP POP POP POP POP POP JUMP JUMPDEST DUP1 PUSH1 0x2 PUSH0 DUP3 DUP2 MSTORE PUSH1 0x20 ADD SWAP1 DUP2 MSTORE PUSH1 0x20 ADD PUSH0 KECCAK256 PUSH1 0x8 ADD PUSH0 SWAP1 SLOAD SWAP1 PUSH2 0x100 EXP SWAP1 DIV PUSH20 0xFFFFFFFFFFFFFFFFFFFFFFFFFFFFFFFFFFFFFFFF AND PUSH20 0xFFFFFFFFFFFFFFFFFFFFFFFFFFFFFFFFFFFFFFFF AND CALLER PUSH20 0xFFFFFFFFFFFFFFFFFFFFFFFFFFFFFFFFFFFFFFFF AND EQ PUSH2 0x64A JUMPI PUSH1 0x40 MLOAD PUSH32 0x8C379A000000000000000000000000000000000000000000000000000000000 DUP2 MSTORE PUSH1 0x4 ADD PUSH2 0x641 SWAP1 PUSH2 0x3532 JUMP JUMPDEST PUSH1 0x40 MLOAD DUP1 SWAP2 SUB SWAP1 REVERT JUMPDEST PUSH0 PUSH1 0x2 PUSH0 DUP5 DUP2 MSTORE PUSH1 0x20 ADD SWAP1 DUP2 MSTORE PUSH1 0x20 ADD PUSH0 KECCAK256 SWAP1 POP DUP1 PUSH1 0x8 ADD PUSH1 0x15 SWAP1 SLOAD SWAP1 PUSH2 0x100 EXP SWAP1 DIV PUSH1 0xFF AND ISZERO PUSH2 0x6B0 JUMPI PUSH1 0x40 MLOAD PUSH32 0x8C379A000000000000000000000000000000000000000000000000000000000 DUP2 MSTORE PUSH1 0x4 ADD PUSH2 0x6A7 SWAP1 PUSH2 0x359A JUMP JUMPDEST PUSH1 0x40 MLOAD DUP1 SWAP2 SUB SWAP1 REVERT JUMPDEST PUSH1 0x1 DUP2 PUSH1 0x8 ADD PUSH1 0x17 PUSH2 0x100 EXP DUP2 SLOAD DUP2 PUSH1 0xFF MUL NOT AND SWAP1 DUP4 ISZERO ISZERO MUL OR SWAP1 SSTORE POP PUSH0 DUP2 PUSH1 0x5 ADD PUSH0 SWAP1 SLOAD SWAP1 PUSH2 0x100 EXP SWAP1 DIV PUSH20 0xFFFFFFFFFFFFFFFFFFFFFFFFFFFFFFFFFFFFFFFF AND SWAP1 POP PUSH0 DUP1 JUMPDEST DUP4 PUSH1 0x3 ADD DUP1 SLOAD SWAP1 POP DUP2 PUSH1 0xFF AND LT ISZERO PUSH2 0x74B JUMPI DUP4 PUSH1 0x3 ADD DUP2 PUSH1 0xFF AND DUP2 SLOAD DUP2 LT PUSH2 0x722 JUMPI PUSH2 0x721 PUSH2 0x3278 JUMP JUMPDEST JUMPDEST SWAP1 PUSH0 MSTORE PUSH1 0x20 PUSH0 KECCAK256 ADD SLOAD DUP3 PUSH2 0x736 SWAP2 SWAP1 PUSH2 0x35B8 JUMP JUMPDEST SWAP2 POP DUP1 DUP1 PUSH2 0x743 SWAP1 PUSH2 0x35EB JUMP JUMPDEST SWAP2 POP POP PUSH2 0x6F7 JUMP JUMPDEST POP PUSH0 PUSH1 0x64 DUP3 PUSH2 0x75A SWAP2 SWAP1 PUSH2 0x3640 JUMP JUMPDEST SWAP1 POP PUSH0 DUP2 SWAP1 POP PUSH0 DUP2 DUP4 DUP6 PUSH2 0x76E SWAP2 SWAP1 PUSH2 0x3670 JUMP JUMPDEST PUSH2 0x778 SWAP2 SWAP1 PUSH2 0x3670 JUMP JUMPDEST SWAP1 POP DUP5 PUSH20 0xFFFFFFFFFFFFFFFFFFFFFFFFFFFFFFFFFFFFFFFF AND PUSH4 0xA9059CBB PUSH20 0x9B63FA365019DD7BDF8CBED2823480F808391970 DUP6 PUSH1 0x40 MLOAD DUP4 PUSH4 0xFFFFFFFF AND PUSH1 0xE0 SHL DUP2 MSTORE PUSH1 0x4 ADD PUSH2 0x7C9 SWAP3 SWAP2 SWAP1 PUSH2 0x36A3 JUMP JUMPDEST PUSH1 0x20 PUSH1 0x40 MLOAD DUP1 DUP4 SUB DUP2 PUSH0 DUP8 GAS CALL ISZERO DUP1 ISZERO PUSH2 0x7E5 JUMPI RETURNDATASIZE PUSH0 DUP1 RETURNDATACOPY RETURNDATASIZE PUSH0 REVERT JUMPDEST POP POP POP POP PUSH1 0x40 MLOAD RETURNDATASIZE PUSH1 0x1F NOT PUSH1 0x1F DUP3 ADD AND DUP3 ADD DUP1 PUSH1 0x40 MSTORE POP DUP2 ADD SWAP1 PUSH2 0x809 SWAP2 SWAP1 PUSH2 0x36F4 JUMP JUMPDEST PUSH2 0x848 JUMPI PUSH1 0x40 MLOAD PUSH32 0x8C379A000000000000000000000000000000000000000000000000000000000 DUP2 MSTORE PUSH1 0x4 ADD PUSH2 0x83F SWAP1 PUSH2 0x3769 JUMP JUMPDEST PUSH1 0x40 MLOAD DUP1 SWAP2 SUB SWAP1 REVERT JUMPDEST DUP5 PUSH20 0xFFFFFFFFFFFFFFFFFFFFFFFFFFFFFFFFFFFFFFFF AND PUSH4 0xA9059CBB DUP8 PUSH1 0x8 ADD PUSH0 SWAP1 SLOAD SWAP1 PUSH2 0x100 EXP SWAP1 DIV PUSH20 0xFFFFFFFFFFFFFFFFFFFFFFFFFFFFFFFFFFFFFFFF AND DUP5 PUSH1 0x40 MLOAD DUP4 PUSH4 0xFFFFFFFF AND PUSH1 0xE0 SHL DUP2 MSTORE PUSH1 0x4 ADD PUSH2 0x8A6 SWAP3 SWAP2 SWAP1 PUSH2 0x36A3 JUMP JUMPDEST PUSH1 0x20 PUSH1 0x40 MLOAD DUP1 DUP4 SUB DUP2 PUSH0 DUP8 GAS CALL ISZERO DUP1 ISZERO PUSH2 0x8C2 JUMPI RETURNDATASIZE PUSH0 DUP1 RETURNDATACOPY RETURNDATASIZE PUSH0 REVERT JUMPDEST POP POP POP POP PUSH1 0x40 MLOAD RETURNDATASIZE PUSH1 0x1F NOT PUSH1 0x1F DUP3 ADD AND DUP3 ADD DUP1 PUSH1 0x40 MSTORE POP DUP2 ADD SWAP1 PUSH2 0x8E6 SWAP2 SWAP1 PUSH2 0x36F4 JUMP JUMPDEST PUSH2 0x925 JUMPI PUSH1 0x40 MLOAD PUSH32 0x8C379A000000000000000000000000000000000000000000000000000000000 DUP2 MSTORE PUSH1 0x4 ADD PUSH2 0x91C SWAP1 PUSH2 0x37D1 JUMP JUMPDEST PUSH1 0x40 MLOAD DUP1 SWAP2 SUB SWAP1 REVERT JUMPDEST PUSH0 JUMPDEST DUP7 PUSH1 0x7 ADD DUP1 SLOAD SWAP1 POP DUP2 LT ISZERO PUSH2 0xAEC JUMPI PUSH0 DUP8 PUSH1 0x7 ADD DUP3 DUP2 SLOAD DUP2 LT PUSH2 0x94D JUMPI PUSH2 0x94C PUSH2 0x3278 JUMP JUMPDEST JUMPDEST SWAP1 PUSH0 MSTORE PUSH1 0x20 PUSH0 KECCAK256 ADD PUSH0 SWAP1 SLOAD SWAP1 PUSH2 0x100 EXP SWAP1 DIV PUSH20 0xFFFFFFFFFFFFFFFFFFFFFFFFFFFFFFFFFFFFFFFF AND SWAP1 POP PUSH0 DUP9 PUSH1 0x6 ADD PUSH0 DUP4 PUSH20 0xFFFFFFFFFFFFFFFFFFFFFFFFFFFFFFFFFFFFFFFF AND PUSH20 0xFFFFFFFFFFFFFFFFFFFFFFFFFFFFFFFFFFFFFFFF AND DUP2 MSTORE PUSH1 0x20 ADD SWAP1 DUP2 MSTORE PUSH1 0x20 ADD PUSH0 KECCAK256 SWAP1 POP PUSH0 JUMPDEST DUP2 DUP1 SLOAD SWAP1 POP DUP2 PUSH1 0xFF AND LT ISZERO PUSH2 0xADC JUMPI PUSH0 DUP3 DUP3 PUSH1 0xFF AND DUP2 SLOAD DUP2 LT PUSH2 0x9E1 JUMPI PUSH2 0x9E0 PUSH2 0x3278 JUMP JUMPDEST JUMPDEST SWAP1 PUSH0 MSTORE PUSH1 0x20 PUSH0 KECCAK256 SWAP1 PUSH1 0x2 MUL ADD PUSH1 0x1 ADD SLOAD SWAP1 POP PUSH0 DUP10 DUP8 DUP4 PUSH2 0xA01 SWAP2 SWAP1 PUSH2 0x37EF JUMP JUMPDEST PUSH2 0xA0B SWAP2 SWAP1 PUSH2 0x3640 JUMP JUMPDEST SWAP1 POP DUP11 PUSH20 0xFFFFFFFFFFFFFFFFFFFFFFFFFFFFFFFFFFFFFFFF AND PUSH4 0xA9059CBB DUP7 DUP4 PUSH1 0x40 MLOAD DUP4 PUSH4 0xFFFFFFFF AND PUSH1 0xE0 SHL DUP2 MSTORE PUSH1 0x4 ADD PUSH2 0xA48 SWAP3 SWAP2 SWAP1 PUSH2 0x36A3 JUMP JUMPDEST PUSH1 0x20 PUSH1 0x40 MLOAD DUP1 DUP4 SUB DUP2 PUSH0 DUP8 GAS CALL ISZERO DUP1 ISZERO PUSH2 0xA64 JUMPI RETURNDATASIZE PUSH0 DUP1 RETURNDATACOPY RETURNDATASIZE PUSH0 REVERT JUMPDEST POP POP POP POP PUSH1 0x40 MLOAD RETURNDATASIZE PUSH1 0x1F NOT PUSH1 0x1F DUP3 ADD AND DUP3 ADD DUP1 PUSH1 0x40 MSTORE POP DUP2 ADD SWAP1 PUSH2 0xA88 SWAP2 SWAP1 PUSH2 0x36F4 JUMP JUMPDEST PUSH2 0xAC7 JUMPI PUSH1 0x40 MLOAD PUSH32 0x8C379A000000000000000000000000000000000000000000000000000000000 DUP2 MSTORE PUSH1 0x4 ADD PUSH2 0xABE SWAP1 PUSH2 0x387A JUMP JUMPDEST PUSH1 0x40 MLOAD DUP1 SWAP2 SUB SWAP1 REVERT JUMPDEST POP POP DUP1 DUP1 PUSH2 0xAD4 SWAP1 PUSH2 0x35EB JUMP JUMPDEST SWAP2 POP POP PUSH2 0x9BB JUMP JUMPDEST POP POP POP DUP1 DUP1 PUSH1 0x1 ADD SWAP2 POP POP PUSH2 0x927 JUMP JUMPDEST POP DUP8 PUSH32 0xE3906E8D1E2167EF706B023E6E83AF697DB5CD38F233C71BF5021B26B316C3A2 PUSH1 0x40 MLOAD PUSH1 0x40 MLOAD DUP1 SWAP2 SUB SWAP1 LOG2 POP POP POP POP POP POP POP POP JUMP JUMPDEST PUSH0 PUSH1 0x60 DUP1 PUSH0 DUP1 PUSH0 PUSH1 0x60 PUSH0 DUP1 PUSH0 DUP1 PUSH1 0x2 PUSH0 DUP14 DUP2 MSTORE PUSH1 0x20 ADD SWAP1 DUP2 MSTORE PUSH1 0x20 ADD PUSH0 KECCAK256 SWAP1 POP DUP1 PUSH1 0x8 ADD PUSH0 SWAP1 SLOAD SWAP1 PUSH2 0x100 EXP SWAP1 DIV PUSH20 0xFFFFFFFFFFFFFFFFFFFFFFFFFFFFFFFFFFFFFFFF AND SWAP11 POP DUP1 PUSH1 0x1 ADD DUP1 SLOAD PUSH2 0xB79 SWAP1 PUSH2 0x2FDE JUMP JUMPDEST DUP1 PUSH1 0x1F ADD PUSH1 0x20 DUP1 SWAP2 DIV MUL PUSH1 0x20 ADD PUSH1 0x40 MLOAD SWAP1 DUP2 ADD PUSH1 0x40 MSTORE DUP1 SWAP3 SWAP2 SWAP1 DUP2 DUP2 MSTORE PUSH1 0x20 ADD DUP3 DUP1 SLOAD PUSH2 0xBA5 SWAP1 PUSH2 0x2FDE JUMP JUMPDEST DUP1 ISZERO PUSH2 0xBF0 JUMPI DUP1 PUSH1 0x1F LT PUSH2 0xBC7 JUMPI PUSH2 0x100 DUP1 DUP4 SLOAD DIV MUL DUP4 MSTORE SWAP2 PUSH1 0x20 ADD SWAP2 PUSH2 0xBF0 JUMP JUMPDEST DUP3 ADD SWAP2 SWAP1 PUSH0 MSTORE PUSH1 0x20 PUSH0 KECCAK256 SWAP1 JUMPDEST DUP2 SLOAD DUP2 MSTORE SWAP1 PUSH1 0x1 ADD SWAP1 PUSH1 0x20 ADD DUP1 DUP4 GT PUSH2 0xBD3 JUMPI DUP3 SWAP1 SUB PUSH1 0x1F AND DUP3 ADD SWAP2 JUMPDEST POP POP POP POP POP SWAP10 POP DUP1 PUSH1 0x2 ADD DUP1 SLOAD DUP1 PUSH1 0x20 MUL PUSH1 0x20 ADD PUSH1 0x40 MLOAD SWAP1 DUP2 ADD PUSH1 0x40 MSTORE DUP1 SWAP3 SWAP2 SWAP1 DUP2 DUP2 MSTORE PUSH1 0x20 ADD PUSH0 SWAP1 JUMPDEST DUP3 DUP3 LT ISZERO PUSH2 0xCC2 JUMPI DUP4 DUP3 SWAP1 PUSH0 MSTORE PUSH1 0x20 PUSH0 KECCAK256 ADD DUP1 SLOAD PUSH2 0xC37 SWAP1 PUSH2 0x2FDE JUMP JUMPDEST DUP1 PUSH1 0x1F ADD PUSH1 0x20 DUP1 SWAP2 DIV MUL PUSH1 0x20 ADD PUSH1 0x40 MLOAD SWAP1 DUP2 ADD PUSH1 0x40 MSTORE DUP1 SWAP3 SWAP2 SWAP1 DUP2 DUP2 MSTORE PUSH1 0x20 ADD DUP3 DUP1 SLOAD PUSH2 0xC63 SWAP1 PUSH2 0x2FDE JUMP JUMPDEST DUP1 ISZERO PUSH2 0xCAE JUMPI DUP1 PUSH1 0x1F LT PUSH2 0xC85 JUMPI PUSH2 0x100 DUP1 DUP4 SLOAD DIV MUL DUP4 MSTORE SWAP2 PUSH1 0x20 ADD SWAP2 PUSH2 0xCAE JUMP JUMPDEST DUP3 ADD SWAP2 SWAP1 PUSH0 MSTORE PUSH1 0x20 PUSH0 KECCAK256 SWAP1 JUMPDEST DUP2 SLOAD DUP2 MSTORE SWAP1 PUSH1 0x1 ADD SWAP1 PUSH1 0x20 ADD DUP1 DUP4 GT PUSH2 0xC91 JUMPI DUP3 SWAP1 SUB PUSH1 0x1F AND DUP3 ADD SWAP2 JUMPDEST POP POP POP POP POP DUP2 MSTORE PUSH1 0x20 ADD SWAP1 PUSH1 0x1 ADD SWAP1 PUSH2 0xC1A JUMP JUMPDEST POP POP POP POP SWAP9 POP DUP1 PUSH1 0x8 ADD PUSH1 0x14 SWAP1 SLOAD SWAP1 PUSH2 0x100 EXP SWAP1 DIV PUSH1 0xFF AND SWAP8 POP DUP1 PUSH1 0x8 ADD PUSH1 0x15 SWAP1 SLOAD SWAP1 PUSH2 0x100 EXP SWAP1 DIV PUSH1 0xFF AND SWAP7 POP DUP1 PUSH1 0x3 ADD DUP1 SLOAD SWAP1 POP PUSH8 0xFFFFFFFFFFFFFFFF DUP2 GT ISZERO PUSH2 0xD11 JUMPI PUSH2 0xD10 PUSH2 0x2F84 JUMP JUMPDEST JUMPDEST PUSH1 0x40 MLOAD SWAP1 DUP1 DUP3 MSTORE DUP1 PUSH1 0x20 MUL PUSH1 0x20 ADD DUP3 ADD PUSH1 0x40 MSTORE DUP1 ISZERO PUSH2 0xD3F JUMPI DUP2 PUSH1 0x20 ADD PUSH1 0x20 DUP3 MUL DUP1 CALLDATASIZE DUP4 CALLDATACOPY DUP1 DUP3 ADD SWAP2 POP POP SWAP1 POP JUMPDEST POP SWAP5 POP PUSH0 SWAP6 POP PUSH0 JUMPDEST DUP2 PUSH1 0x3 ADD DUP1 SLOAD SWAP1 POP DUP2 PUSH1 0xFF AND LT ISZERO PUSH2 0xDDF JUMPI DUP2 PUSH1 0x3 ADD DUP2 PUSH1 0xFF AND DUP2 SLOAD DUP2 LT PUSH2 0xD72 JUMPI PUSH2 0xD71 PUSH2 0x3278 JUMP JUMPDEST JUMPDEST SWAP1 PUSH0 MSTORE PUSH1 0x20 PUSH0 KECCAK256 ADD SLOAD DUP7 DUP3 PUSH1 0xFF AND DUP2 MLOAD DUP2 LT PUSH2 0xD91 JUMPI PUSH2 0xD90 PUSH2 0x3278 JUMP JUMPDEST JUMPDEST PUSH1 0x20 MUL PUSH1 0x20 ADD ADD DUP2 DUP2 MSTORE POP POP DUP2 PUSH1 0x3 ADD DUP2 PUSH1 0xFF AND DUP2 SLOAD DUP2 LT PUSH2 0xDB6 JUMPI PUSH2 0xDB5 PUSH2 0x3278 JUMP JUMPDEST JUMPDEST SWAP1 PUSH0 MSTORE PUSH1 0x20 PUSH0 KECCAK256 ADD SLOAD DUP8 PUSH2 0xDCA SWAP2 SWAP1 PUSH2 0x35B8 JUMP JUMPDEST SWAP7 POP DUP1 DUP1 PUSH2 0xDD7 SWAP1 PUSH2 0x35EB JUMP JUMPDEST SWAP2 POP POP PUSH2 0xD47 JUMP JUMPDEST POP DUP1 PUSH1 0x5 ADD PUSH0 SWAP1 SLOAD SWAP1 PUSH2 0x100 EXP SWAP1 DIV PUSH20 0xFFFFFFFFFFFFFFFFFFFFFFFFFFFFFFFFFFFFFFFF AND SWAP4 POP DUP1 PUSH1 0x8 ADD PUSH1 0x15 SWAP1 SLOAD SWAP1 PUSH2 0x100 EXP SWAP1 DIV PUSH1 0xFF AND PUSH2 0xE22 JUMPI PUSH0 PUSH2 0xE35 JUMP JUMPDEST DUP1 PUSH1 0x8 ADD PUSH1 0x16 SWAP1 SLOAD SWAP1 PUSH2 0x100 EXP SWAP1 DIV PUSH1 0xFF AND JUMPDEST SWAP3 POP POP SWAP2 SWAP4 SWAP6 SWAP8 SWAP10 POP SWAP2 SWAP4 SWAP6 SWAP8 SWAP10 JUMP JUMPDEST PUSH0 DUP1 SLOAD SWAP1 PUSH2 0x100 EXP SWAP1 DIV PUSH20 0xFFFFFFFFFFFFFFFFFFFFFFFFFFFFFFFFFFFFFFFF AND DUP2 JUMP JUMPDEST PUSH0 PUSH1 0x2 PUSH0 DUP6 DUP2 MSTORE PUSH1 0x20 ADD SWAP1 DUP2 MSTORE PUSH1 0x20 ADD PUSH0 KECCAK256 SWAP1 POP DUP1 PUSH1 0x8 ADD PUSH1 0x14 SWAP1 SLOAD SWAP1 PUSH2 0x100 EXP SWAP1 DIV PUSH1 0xFF AND PUSH2 0xECD JUMPI PUSH1 0x40 MLOAD PUSH32 0x8C379A000000000000000000000000000000000000000000000000000000000 DUP2 MSTORE PUSH1 0x4 ADD PUSH2 0xEC4 SWAP1 PUSH2 0x38E2 JUMP JUMPDEST PUSH1 0x40 MLOAD DUP1 SWAP2 SUB SWAP1 REVERT JUMPDEST DUP1 PUSH1 0x4 ADD SLOAD DUP4 LT ISZERO PUSH2 0xF14 JUMPI PUSH1 0x40 MLOAD PUSH32 0x8C379A000000000000000000000000000000000000000000000000000000000 DUP2 MSTORE PUSH1 0x4 ADD PUSH2 0xF0B SWAP1 PUSH2 0x394A JUMP JUMPDEST PUSH1 0x40 MLOAD DUP1 SWAP2 SUB SWAP1 REVERT JUMPDEST PUSH1 0x1 DUP3 PUSH1 0xFF AND LT ISZERO DUP1 ISZERO PUSH2 0xF32 JUMPI POP DUP1 PUSH1 0x2 ADD DUP1 SLOAD SWAP1 POP DUP3 PUSH1 0xFF AND GT ISZERO JUMPDEST PUSH2 0xF71 JUMPI PUSH1 0x40 MLOAD PUSH32 0x8C379A000000000000000000000000000000000000000000000000000000000 DUP2 MSTORE PUSH1 0x4 ADD PUSH2 0xF68 SWAP1 PUSH2 0x39B2 JUMP JUMPDEST PUSH1 0x40 MLOAD DUP1 SWAP2 SUB SWAP1 REVERT JUMPDEST PUSH0 DUP2 PUSH1 0x5 ADD PUSH0 SWAP1 SLOAD SWAP1 PUSH2 0x100 EXP SWAP1 DIV PUSH20 0xFFFFFFFFFFFFFFFFFFFFFFFFFFFFFFFFFFFFFFFF AND SWAP1 POP DUP1 PUSH20 0xFFFFFFFFFFFFFFFFFFFFFFFFFFFFFFFFFFFFFFFF AND PUSH4 0x23B872DD CALLER ADDRESS DUP8 PUSH1 0x40 MLOAD DUP5 PUSH4 0xFFFFFFFF AND PUSH1 0xE0 SHL DUP2 MSTORE PUSH1 0x4 ADD PUSH2 0xFD5 SWAP4 SWAP3 SWAP2 SWAP1 PUSH2 0x39D0 JUMP JUMPDEST PUSH1 0x20 PUSH1 0x40 MLOAD DUP1 DUP4 SUB DUP2 PUSH0 DUP8 GAS CALL ISZERO DUP1 ISZERO PUSH2 0xFF1 JUMPI RETURNDATASIZE PUSH0 DUP1 RETURNDATACOPY RETURNDATASIZE PUSH0 REVERT JUMPDEST POP POP POP POP PUSH1 0x40 MLOAD RETURNDATASIZE PUSH1 0x1F NOT PUSH1 0x1F DUP3 ADD AND DUP3 ADD DUP1 PUSH1 0x40 MSTORE POP DUP2 ADD SWAP1 PUSH2 0x1015 SWAP2 SWAP1 PUSH2 0x36F4 JUMP JUMPDEST PUSH2 0x1054 JUMPI PUSH1 0x40 MLOAD PUSH32 0x8C379A000000000000000000000000000000000000000000000000000000000 DUP2 MSTORE PUSH1 0x4 ADD PUSH2 0x104B SWAP1 PUSH2 0x3A4F JUMP JUMPDEST PUSH1 0x40 MLOAD DUP1 SWAP2 SUB SWAP1 REVERT JUMPDEST DUP4 DUP3 PUSH1 0x3 ADD PUSH1 0x1 DUP6 PUSH2 0x1066 SWAP2 SWAP1 PUSH2 0x3A6D JUMP JUMPDEST PUSH1 0xFF AND DUP2 SLOAD DUP2 LT PUSH2 0x107A JUMPI PUSH2 0x1079 PUSH2 0x3278 JUMP JUMPDEST JUMPDEST SWAP1 PUSH0 MSTORE PUSH1 0x20 PUSH0 KECCAK256 ADD PUSH0 DUP3 DUP3 SLOAD PUSH2 0x1090 SWAP2 SWAP1 PUSH2 0x35B8 JUMP JUMPDEST SWAP3 POP POP DUP2 SWAP1 SSTORE POP DUP2 PUSH1 0x6 ADD PUSH0 CALLER PUSH20 0xFFFFFFFFFFFFFFFFFFFFFFFFFFFFFFFFFFFFFFFF AND PUSH20 0xFFFFFFFFFFFFFFFFFFFFFFFFFFFFFFFFFFFFFFFF AND DUP2 MSTORE PUSH1 0x20 ADD SWAP1 DUP2 MSTORE PUSH1 0x20 ADD PUSH0 KECCAK256 PUSH1 0x40 MLOAD DUP1 PUSH1 0x40 ADD PUSH1 0x40 MSTORE DUP1 CALLER PUSH20 0xFFFFFFFFFFFFFFFFFFFFFFFFFFFFFFFFFFFFFFFF AND DUP2 MSTORE PUSH1 0x20 ADD DUP7 DUP2 MSTORE POP SWAP1 DUP1 PUSH1 0x1 DUP2 SLOAD ADD DUP1 DUP3 SSTORE DUP1 SWAP2 POP POP PUSH1 0x1 SWAP1 SUB SWAP1 PUSH0 MSTORE PUSH1 0x20 PUSH0 KECCAK256 SWAP1 PUSH1 0x2 MUL ADD PUSH0 SWAP1 SWAP2 SWAP1 SWAP2 SWAP1 SWAP2 POP PUSH0 DUP3 ADD MLOAD DUP2 PUSH0 ADD PUSH0 PUSH2 0x100 EXP DUP2 SLOAD DUP2 PUSH20 0xFFFFFFFFFFFFFFFFFFFFFFFFFFFFFFFFFFFFFFFF MUL NOT AND SWAP1 DUP4 PUSH20 0xFFFFFFFFFFFFFFFFFFFFFFFFFFFFFFFFFFFFFFFF AND MUL OR SWAP1 SSTORE POP PUSH1 0x20 DUP3 ADD MLOAD DUP2 PUSH1 0x1 ADD SSTORE POP POP DUP2 PUSH1 0x7 ADD CALLER SWAP1 DUP1 PUSH1 0x1 DUP2 SLOAD ADD DUP1 DUP3 SSTORE DUP1 SWAP2 POP POP PUSH1 0x1 SWAP1 SUB SWAP1 PUSH0 MSTORE PUSH1 0x20 PUSH0 KECCAK256 ADD PUSH0 SWAP1 SWAP2 SWAP1 SWAP2 SWAP1 SWAP2 PUSH2 0x100 EXP DUP2 SLOAD DUP2 PUSH20 0xFFFFFFFFFFFFFFFFFFFFFFFFFFFFFFFFFFFFFFFF MUL NOT AND SWAP1 DUP4 PUSH20 0xFFFFFFFFFFFFFFFFFFFFFFFFFFFFFFFFFFFFFFFF AND MUL OR SWAP1 SSTORE POP CALLER PUSH20 0xFFFFFFFFFFFFFFFFFFFFFFFFFFFFFFFFFFFFFFFF AND DUP6 PUSH32 0xE90186097616CBEB30FFC786B44501E1362F5E0A316A96C5AB82A0551F9D2F05 DUP7 DUP7 PUSH1 0x40 MLOAD PUSH2 0x1222 SWAP3 SWAP2 SWAP1 PUSH2 0x3AA1 JUMP JUMPDEST PUSH1 0x40 MLOAD DUP1 SWAP2 SUB SWAP1 LOG3 POP POP POP POP POP JUMP JUMPDEST DUP1 PUSH1 0x2 PUSH0 DUP3 DUP2 MSTORE PUSH1 0x20 ADD SWAP1 DUP2 MSTORE PUSH1 0x20 ADD PUSH0 KECCAK256 PUSH1 0x8 ADD PUSH0 SWAP1 SLOAD SWAP1 PUSH2 0x100 EXP SWAP1 DIV PUSH20 0xFFFFFFFFFFFFFFFFFFFFFFFFFFFFFFFFFFFFFFFF AND PUSH20 0xFFFFFFFFFFFFFFFFFFFFFFFFFFFFFFFFFFFFFFFF AND CALLER PUSH20 0xFFFFFFFFFFFFFFFFFFFFFFFFFFFFFFFFFFFFFFFF AND EQ PUSH2 0x12D3 JUMPI PUSH1 0x40 MLOAD PUSH32 0x8C379A000000000000000000000000000000000000000000000000000000000 DUP2 MSTORE PUSH1 0x4 ADD PUSH2 0x12CA SWAP1 PUSH2 0x3532 JUMP JUMPDEST PUSH1 0x40 MLOAD DUP1 SWAP2 SUB SWAP1 REVERT JUMPDEST PUSH0 PUSH1 0x2 PUSH0 DUP5 DUP2 MSTORE PUSH1 0x20 ADD SWAP1 DUP2 MSTORE PUSH1 0x20 ADD PUSH0 KECCAK256 SWAP1 POP PUSH0 DUP2 PUSH1 0x8 ADD PUSH1 0x14 PUSH2 0x100 EXP DUP2 SLOAD DUP2 PUSH1 0xFF MUL NOT AND SWAP1 DUP4 ISZERO ISZERO MUL OR SWAP1 SSTORE POP DUP3 PUSH32 0xEB7ECC3AA4DD407C7207677A2CBF861441D5C5E6C0DC70AD9692A980385C20D6 PUSH1 0x40 MLOAD PUSH1 0x40 MLOAD DUP1 SWAP2 SUB SWAP1 LOG2 POP POP POP JUMP JUMPDEST PUSH1 0x60 DUP1 PUSH1 0x60 DUP1 PUSH1 0x60 PUSH0 DUP1 PUSH1 0x1 SWAP1 POP JUMPDEST PUSH1 0x1 SLOAD DUP2 LT ISZERO PUSH2 0x1396 JUMPI PUSH0 PUSH1 0x2 PUSH0 DUP4 DUP2 MSTORE PUSH1 0x20 ADD SWAP1 DUP2 MSTORE PUSH1 0x20 ADD PUSH0 KECCAK256 SWAP1 POP DUP1 PUSH1 0x8 ADD PUSH1 0x14 SWAP1 SLOAD SWAP1 PUSH2 0x100 EXP SWAP1 DIV PUSH1 0xFF AND ISZERO PUSH2 0x1388 JUMPI DUP3 DUP1 PUSH2 0x1384 SWAP1 PUSH2 0x2EA5 JUMP JUMPDEST SWAP4 POP POP JUMPDEST POP DUP1 DUP1 PUSH1 0x1 ADD SWAP2 POP POP PUSH2 0x1344 JUMP JUMPDEST POP DUP1 PUSH8 0xFFFFFFFFFFFFFFFF DUP2 GT ISZERO PUSH2 0x13B1 JUMPI PUSH2 0x13B0 PUSH2 0x2F84 JUMP JUMPDEST JUMPDEST PUSH1 0x40 MLOAD SWAP1 DUP1 DUP3 MSTORE DUP1 PUSH1 0x20 MUL PUSH1 0x20 ADD DUP3 ADD PUSH1 0x40 MSTORE DUP1 ISZERO PUSH2 0x13DF JUMPI DUP2 PUSH1 0x20 ADD PUSH1 0x20 DUP3 MUL DUP1 CALLDATASIZE DUP4 CALLDATACOPY DUP1 DUP3 ADD SWAP2 POP POP SWAP1 POP JUMPDEST POP SWAP6 POP DUP1 PUSH8 0xFFFFFFFFFFFFFFFF DUP2 GT ISZERO PUSH2 0x13FC JUMPI PUSH2 0x13FB PUSH2 0x2F84 JUMP JUMPDEST JUMPDEST PUSH1 0x40 MLOAD SWAP1 DUP1 DUP3 MSTORE DUP1 PUSH1 0x20 MUL PUSH1 0x20 ADD DUP3 ADD PUSH1 0x40 MSTORE DUP1 ISZERO PUSH2 0x142F JUMPI DUP2 PUSH1 0x20 ADD JUMPDEST PUSH1 0x60 DUP2 MSTORE PUSH1 0x20 ADD SWAP1 PUSH1 0x1 SWAP1 SUB SWAP1 DUP2 PUSH2 0x141A JUMPI SWAP1 POP JUMPDEST POP SWAP5 POP DUP1 PUSH8 0xFFFFFFFFFFFFFFFF DUP2 GT ISZERO PUSH2 0x144C JUMPI PUSH2 0x144B PUSH2 0x2F84 JUMP JUMPDEST JUMPDEST PUSH1 0x40 MLOAD SWAP1 DUP1 DUP3 MSTORE DUP1 PUSH1 0x20 MUL PUSH1 0x20 ADD DUP3 ADD PUSH1 0x40 MSTORE DUP1 ISZERO PUSH2 0x147F JUMPI DUP2 PUSH1 0x20 ADD JUMPDEST PUSH1 0x60 DUP2 MSTORE PUSH1 0x20 ADD SWAP1 PUSH1 0x1 SWAP1 SUB SWAP1 DUP2 PUSH2 0x146A JUMPI SWAP1 POP JUMPDEST POP SWAP4 POP DUP1 PUSH8 0xFFFFFFFFFFFFFFFF DUP2 GT ISZERO PUSH2 0x149C JUMPI PUSH2 0x149B PUSH2 0x2F84 JUMP JUMPDEST JUMPDEST PUSH1 0x40 MLOAD SWAP1 DUP1 DUP3 MSTORE DUP1 PUSH1 0x20 MUL PUSH1 0x20 ADD DUP3 ADD PUSH1 0x40 MSTORE DUP1 ISZERO PUSH2 0x14CA JUMPI DUP2 PUSH1 0x20 ADD PUSH1 0x20 DUP3 MUL DUP1 CALLDATASIZE DUP4 CALLDATACOPY DUP1 DUP3 ADD SWAP2 POP POP SWAP1 POP JUMPDEST POP SWAP3 POP DUP1 PUSH8 0xFFFFFFFFFFFFFFFF DUP2 GT ISZERO PUSH2 0x14E7 JUMPI PUSH2 0x14E6 PUSH2 0x2F84 JUMP JUMPDEST JUMPDEST PUSH1 0x40 MLOAD SWAP1 DUP1 DUP3 MSTORE DUP1 PUSH1 0x20 MUL PUSH1 0x20 ADD DUP3 ADD PUSH1 0x40 MSTORE DUP1 ISZERO PUSH2 0x1515 JUMPI DUP2 PUSH1 0x20 ADD PUSH1 0x20 DUP3 MUL DUP1 CALLDATASIZE DUP4 CALLDATACOPY DUP1 DUP3 ADD SWAP2 POP POP SWAP1 POP JUMPDEST POP SWAP2 POP PUSH0 DUP1 PUSH1 0x1 SWAP1 POP JUMPDEST PUSH1 0x1 SLOAD DUP2 LT ISZERO PUSH2 0x17BF JUMPI PUSH0 PUSH1 0x2 PUSH0 DUP4 DUP2 MSTORE PUSH1 0x20 ADD SWAP1 DUP2 MSTORE PUSH1 0x20 ADD PUSH0 KECCAK256 SWAP1 POP DUP1 PUSH1 0x8 ADD PUSH1 0x14 SWAP1 SLOAD SWAP1 PUSH2 0x100 EXP SWAP1 DIV PUSH1 0xFF AND ISZERO PUSH2 0x17B1 JUMPI DUP1 PUSH0 ADD SLOAD DUP10 DUP5 DUP2 MLOAD DUP2 LT PUSH2 0x156B JUMPI PUSH2 0x156A PUSH2 0x3278 JUMP JUMPDEST JUMPDEST PUSH1 0x20 MUL PUSH1 0x20 ADD ADD DUP2 DUP2 MSTORE POP POP DUP1 PUSH1 0x1 ADD DUP1 SLOAD PUSH2 0x1586 SWAP1 PUSH2 0x2FDE JUMP JUMPDEST DUP1 PUSH1 0x1F ADD PUSH1 0x20 DUP1 SWAP2 DIV MUL PUSH1 0x20 ADD PUSH1 0x40 MLOAD SWAP1 DUP2 ADD PUSH1 0x40 MSTORE DUP1 SWAP3 SWAP2 SWAP1 DUP2 DUP2 MSTORE PUSH1 0x20 ADD DUP3 DUP1 SLOAD PUSH2 0x15B2 SWAP1 PUSH2 0x2FDE JUMP JUMPDEST DUP1 ISZERO PUSH2 0x15FD JUMPI DUP1 PUSH1 0x1F LT PUSH2 0x15D4 JUMPI PUSH2 0x100 DUP1 DUP4 SLOAD DIV MUL DUP4 MSTORE SWAP2 PUSH1 0x20 ADD SWAP2 PUSH2 0x15FD JUMP JUMPDEST DUP3 ADD SWAP2 SWAP1 PUSH0 MSTORE PUSH1 0x20 PUSH0 KECCAK256 SWAP1 JUMPDEST DUP2 SLOAD DUP2 MSTORE SWAP1 PUSH1 0x1 ADD SWAP1 PUSH1 0x20 ADD DUP1 DUP4 GT PUSH2 0x15E0 JUMPI DUP3 SWAP1 SUB PUSH1 0x1F AND DUP3 ADD SWAP2 JUMPDEST POP POP POP POP POP DUP9 DUP5 DUP2 MLOAD DUP2 LT PUSH2 0x1615 JUMPI PUSH2 0x1614 PUSH2 0x3278 JUMP JUMPDEST JUMPDEST PUSH1 0x20 MUL PUSH1 0x20 ADD ADD DUP2 SWAP1 MSTORE POP DUP1 PUSH1 0x2 ADD DUP1 SLOAD DUP1 PUSH1 0x20 MUL PUSH1 0x20 ADD PUSH1 0x40 MLOAD SWAP1 DUP2 ADD PUSH1 0x40 MSTORE DUP1 SWAP3 SWAP2 SWAP1 DUP2 DUP2 MSTORE PUSH1 0x20 ADD PUSH0 SWAP1 JUMPDEST DUP3 DUP3 LT ISZERO PUSH2 0x16EB JUMPI DUP4 DUP3 SWAP1 PUSH0 MSTORE PUSH1 0x20 PUSH0 KECCAK256 ADD DUP1 SLOAD PUSH2 0x1660 SWAP1 PUSH2 0x2FDE JUMP JUMPDEST DUP1 PUSH1 0x1F ADD PUSH1 0x20 DUP1 SWAP2 DIV MUL PUSH1 0x20 ADD PUSH1 0x40 MLOAD SWAP1 DUP2 ADD PUSH1 0x40 MSTORE DUP1 SWAP3 SWAP2 SWAP1 DUP2 DUP2 MSTORE PUSH1 0x20 ADD DUP3 DUP1 SLOAD PUSH2 0x168C SWAP1 PUSH2 0x2FDE JUMP JUMPDEST DUP1 ISZERO PUSH2 0x16D7 JUMPI DUP1 PUSH1 0x1F LT PUSH2 0x16AE JUMPI PUSH2 0x100 DUP1 DUP4 SLOAD DIV MUL DUP4 MSTORE SWAP2 PUSH1 0x20 ADD SWAP2 PUSH2 0x16D7 JUMP JUMPDEST DUP3 ADD SWAP2 SWAP1 PUSH0 MSTORE PUSH1 0x20 PUSH0 KECCAK256 SWAP1 JUMPDEST DUP2 SLOAD DUP2 MSTORE SWAP1 PUSH1 0x1 ADD SWAP1 PUSH1 0x20 ADD DUP1 DUP4 GT PUSH2 0x16BA JUMPI DUP3 SWAP1 SUB PUSH1 0x1F AND DUP3 ADD SWAP2 JUMPDEST POP POP POP POP POP DUP2 MSTORE PUSH1 0x20 ADD SWAP1 PUSH1 0x1 ADD SWAP1 PUSH2 0x1643 JUMP JUMPDEST POP POP POP POP DUP8 DUP5 DUP2 MLOAD DUP2 LT PUSH2 0x1702 JUMPI PUSH2 0x1701 PUSH2 0x3278 JUMP JUMPDEST JUMPDEST PUSH1 0x20 MUL PUSH1 0x20 ADD ADD DUP2 SWAP1 MSTORE POP DUP1 PUSH1 0x4 ADD SLOAD DUP7 DUP5 DUP2 MLOAD DUP2 LT PUSH2 0x1725 JUMPI PUSH2 0x1724 PUSH2 0x3278 JUMP JUMPDEST JUMPDEST PUSH1 0x20 MUL PUSH1 0x20 ADD ADD DUP2 DUP2 MSTORE POP POP DUP1 PUSH1 0x8 ADD PUSH0 SWAP1 SLOAD SWAP1 PUSH2 0x100 EXP SWAP1 DIV PUSH20 0xFFFFFFFFFFFFFFFFFFFFFFFFFFFFFFFFFFFFFFFF AND DUP6 DUP5 DUP2 MLOAD DUP2 LT PUSH2 0x1768 JUMPI PUSH2 0x1767 PUSH2 0x3278 JUMP JUMPDEST JUMPDEST PUSH1 0x20 MUL PUSH1 0x20 ADD ADD SWAP1 PUSH20 0xFFFFFFFFFFFFFFFFFFFFFFFFFFFFFFFFFFFFFFFF AND SWAP1 DUP2 PUSH20 0xFFFFFFFFFFFFFFFFFFFFFFFFFFFFFFFFFFFFFFFF AND DUP2 MSTORE POP POP DUP3 DUP1 PUSH2 0x17AD SWAP1 PUSH2 0x2EA5 JUMP JUMPDEST SWAP4 POP POP JUMPDEST POP DUP1 DUP1 PUSH1 0x1 ADD SWAP2 POP POP PUSH2 0x151F JUMP JUMPDEST POP POP POP SWAP1 SWAP2 SWAP3 SWAP4 SWAP5 JUMP JUMPDEST DUP2 PUSH1 0x2 PUSH0 DUP3 DUP2 MSTORE PUSH1 0x20 ADD SWAP1 DUP2 MSTORE PUSH1 0x20 ADD PUSH0 KECCAK256 PUSH1 0x8 ADD PUSH0 SWAP1 SLOAD SWAP1 PUSH2 0x100 EXP SWAP1 DIV PUSH20 0xFFFFFFFFFFFFFFFFFFFFFFFFFFFFFFFFFFFFFFFF AND PUSH20 0xFFFFFFFFFFFFFFFFFFFFFFFFFFFFFFFFFFFFFFFF AND CALLER PUSH20 0xFFFFFFFFFFFFFFFFFFFFFFFFFFFFFFFFFFFFFFFF AND EQ PUSH2 0x186B JUMPI PUSH1 0x40 MLOAD PUSH32 0x8C379A000000000000000000000000000000000000000000000000000000000 DUP2 MSTORE PUSH1 0x4 ADD PUSH2 0x1862 SWAP1 PUSH2 0x3532 JUMP JUMPDEST PUSH1 0x40 MLOAD DUP1 SWAP2 SUB SWAP1 REVERT JUMPDEST PUSH1 0x1 DUP3 PUSH1 0xFF AND LT ISZERO DUP1 ISZERO PUSH2 0x1899 JUMPI POP PUSH1 0x2 PUSH0 DUP5 DUP2 MSTORE PUSH1 0x20 ADD SWAP1 DUP2 MSTORE PUSH1 0x20 ADD PUSH0 KECCAK256 PUSH1 0x2 ADD DUP1 SLOAD SWAP1 POP DUP3 PUSH1 0xFF AND GT ISZERO JUMPDEST PUSH2 0x18D8 JUMPI PUSH1 0x40 MLOAD PUSH32 0x8C379A000000000000000000000000000000000000000000000000000000000 DUP2 MSTORE PUSH1 0x4 ADD PUSH2 0x18CF SWAP1 PUSH2 0x3B12 JUMP JUMPDEST PUSH1 0x40 MLOAD DUP1 SWAP2 SUB SWAP1 REVERT JUMPDEST PUSH0 PUSH1 0x2 PUSH0 DUP6 DUP2 MSTORE PUSH1 0x20 ADD SWAP1 DUP2 MSTORE PUSH1 0x20 ADD PUSH0 KECCAK256 SWAP1 POP DUP1 PUSH1 0x8 ADD PUSH1 0x14 SWAP1 SLOAD SWAP1 PUSH2 0x100 EXP SWAP1 DIV PUSH1 0xFF AND ISZERO DUP1 ISZERO PUSH2 0x191A JUMPI POP DUP1 PUSH1 0x8 ADD PUSH1 0x15 SWAP1 SLOAD SWAP1 PUSH2 0x100 EXP SWAP1 DIV PUSH1 0xFF AND ISZERO JUMPDEST PUSH2 0x1959 JUMPI PUSH1 0x40 MLOAD PUSH32 0x8C379A000000000000000000000000000000000000000000000000000000000 DUP2 MSTORE PUSH1 0x4 ADD PUSH2 0x1950 SWAP1 PUSH2 0x3BA0 JUMP JUMPDEST PUSH1 0x40 MLOAD DUP1 SWAP2 SUB SWAP1 REVERT JUMPDEST PUSH0 DUP2 PUSH1 0x5 ADD PUSH0 SWAP1 SLOAD SWAP1 PUSH2 0x100 EXP SWAP1 DIV PUSH20 0xFFFFFFFFFFFFFFFFFFFFFFFFFFFFFFFFFFFFFFFF AND SWAP1 POP PUSH0 DUP1 JUMPDEST DUP4 PUSH1 0x3 ADD DUP1 SLOAD SWAP1 POP DUP2 PUSH1 0xFF AND LT ISZERO PUSH2 0x19D7 JUMPI DUP4 PUSH1 0x3 ADD DUP2 PUSH1 0xFF AND DUP2 SLOAD DUP2 LT PUSH2 0x19AE JUMPI PUSH2 0x19AD PUSH2 0x3278 JUMP JUMPDEST JUMPDEST SWAP1 PUSH0 MSTORE PUSH1 0x20 PUSH0 KECCAK256 ADD SLOAD DUP3 PUSH2 0x19C2 SWAP2 SWAP1 PUSH2 0x35B8 JUMP JUMPDEST SWAP2 POP DUP1 DUP1 PUSH2 0x19CF SWAP1 PUSH2 0x35EB JUMP JUMPDEST SWAP2 POP POP PUSH2 0x1983 JUMP JUMPDEST POP PUSH0 DUP4 PUSH1 0x3 ADD PUSH1 0x1 DUP8 PUSH2 0x19EA SWAP2 SWAP1 PUSH2 0x3A6D JUMP JUMPDEST PUSH1 0xFF AND DUP2 SLOAD DUP2 LT PUSH2 0x19FE JUMPI PUSH2 0x19FD PUSH2 0x3278 JUMP JUMPDEST JUMPDEST SWAP1 PUSH0 MSTORE PUSH1 0x20 PUSH0 KECCAK256 ADD SLOAD SWAP1 POP PUSH0 PUSH1 0x64 DUP4 PUSH2 0x1A17 SWAP2 SWAP1 PUSH2 0x3640 JUMP JUMPDEST SWAP1 POP PUSH0 DUP2 SWAP1 POP PUSH0 DUP2 DUP4 DUP7 PUSH2 0x1A2B SWAP2 SWAP1 PUSH2 0x3670 JUMP JUMPDEST PUSH2 0x1A35 SWAP2 SWAP1 PUSH2 0x3670 JUMP JUMPDEST SWAP1 POP DUP6 PUSH20 0xFFFFFFFFFFFFFFFFFFFFFFFFFFFFFFFFFFFFFFFF AND PUSH4 0xA9059CBB PUSH20 0x9B63FA365019DD7BDF8CBED2823480F808391970 DUP6 PUSH1 0x40 MLOAD DUP4 PUSH4 0xFFFFFFFF AND PUSH1 0xE0 SHL DUP2 MSTORE PUSH1 0x4 ADD PUSH2 0x1A86 SWAP3 SWAP2 SWAP1 PUSH2 0x36A3 JUMP JUMPDEST PUSH1 0x20 PUSH1 0x40 MLOAD DUP1 DUP4 SUB DUP2 PUSH0 DUP8 GAS CALL ISZERO DUP1 ISZERO PUSH2 0x1AA2 JUMPI RETURNDATASIZE PUSH0 DUP1 RETURNDATACOPY RETURNDATASIZE PUSH0 REVERT JUMPDEST POP POP POP POP PUSH1 0x40 MLOAD RETURNDATASIZE PUSH1 0x1F NOT PUSH1 0x1F DUP3 ADD AND DUP3 ADD DUP1 PUSH1 0x40 MSTORE POP DUP2 ADD SWAP1 PUSH2 0x1AC6 SWAP2 SWAP1 PUSH2 0x36F4 JUMP JUMPDEST PUSH2 0x1B05 JUMPI PUSH1 0x40 MLOAD PUSH32 0x8C379A000000000000000000000000000000000000000000000000000000000 DUP2 MSTORE PUSH1 0x4 ADD PUSH2 0x1AFC SWAP1 PUSH2 0x3769 JUMP JUMPDEST PUSH1 0x40 MLOAD DUP1 SWAP2 SUB SWAP1 REVERT JUMPDEST DUP6 PUSH20 0xFFFFFFFFFFFFFFFFFFFFFFFFFFFFFFFFFFFFFFFF AND PUSH4 0xA9059CBB DUP9 PUSH1 0x8 ADD PUSH0 SWAP1 SLOAD SWAP1 PUSH2 0x100 EXP SWAP1 DIV PUSH20 0xFFFFFFFFFFFFFFFFFFFFFFFFFFFFFFFFFFFFFFFF AND DUP5 PUSH1 0x40 MLOAD DUP4 PUSH4 0xFFFFFFFF AND PUSH1 0xE0 SHL DUP2 MSTORE PUSH1 0x4 ADD PUSH2 0x1B63 SWAP3 SWAP2 SWAP1 PUSH2 0x36A3 JUMP JUMPDEST PUSH1 0x20 PUSH1 0x40 MLOAD DUP1 DUP4 SUB DUP2 PUSH0 DUP8 GAS CALL ISZERO DUP1 ISZERO PUSH2 0x1B7F JUMPI RETURNDATASIZE PUSH0 DUP1 RETURNDATACOPY RETURNDATASIZE PUSH0 REVERT JUMPDEST POP POP POP POP PUSH1 0x40 MLOAD RETURNDATASIZE PUSH1 0x1F NOT PUSH1 0x1F DUP3 ADD AND DUP3 ADD DUP1 PUSH1 0x40 MSTORE POP DUP2 ADD SWAP1 PUSH2 0x1BA3 SWAP2 SWAP1 PUSH2 0x36F4 JUMP JUMPDEST PUSH2 0x1BE2 JUMPI PUSH1 0x40 MLOAD PUSH32 0x8C379A000000000000000000000000000000000000000000000000000000000 DUP2 MSTORE PUSH1 0x4 ADD PUSH2 0x1BD9 SWAP1 PUSH2 0x37D1 JUMP JUMPDEST PUSH1 0x40 MLOAD DUP1 SWAP2 SUB SWAP1 REVERT JUMPDEST PUSH0 JUMPDEST DUP8 PUSH1 0x7 ADD DUP1 SLOAD SWAP1 POP DUP2 LT ISZERO PUSH2 0x1E1B JUMPI PUSH0 DUP9 PUSH1 0x7 ADD DUP3 DUP2 SLOAD DUP2 LT PUSH2 0x1C0A JUMPI PUSH2 0x1C09 PUSH2 0x3278 JUMP JUMPDEST JUMPDEST SWAP1 PUSH0 MSTORE PUSH1 0x20 PUSH0 KECCAK256 ADD PUSH0 SWAP1 SLOAD SWAP1 PUSH2 0x100 EXP SWAP1 DIV PUSH20 0xFFFFFFFFFFFFFFFFFFFFFFFFFFFFFFFFFFFFFFFF AND SWAP1 POP PUSH0 DUP10 PUSH1 0x6 ADD PUSH0 DUP4 PUSH20 0xFFFFFFFFFFFFFFFFFFFFFFFFFFFFFFFFFFFFFFFF AND PUSH20 0xFFFFFFFFFFFFFFFFFFFFFFFFFFFFFFFFFFFFFFFF AND DUP2 MSTORE PUSH1 0x20 ADD SWAP1 DUP2 MSTORE PUSH1 0x20 ADD PUSH0 KECCAK256 SWAP1 POP PUSH0 JUMPDEST DUP2 DUP1 SLOAD SWAP1 POP DUP2 PUSH1 0xFF AND LT ISZERO PUSH2 0x1E0B JUMPI PUSH0 PUSH20 0xFFFFFFFFFFFFFFFFFFFFFFFFFFFFFFFFFFFFFFFF AND DUP3 DUP3 PUSH1 0xFF AND DUP2 SLOAD DUP2 LT PUSH2 0x1CB4 JUMPI PUSH2 0x1CB3 PUSH2 0x3278 JUMP JUMPDEST JUMPDEST SWAP1 PUSH0 MSTORE PUSH1 0x20 PUSH0 KECCAK256 SWAP1 PUSH1 0x2 MUL ADD PUSH0 ADD PUSH0 SWAP1 SLOAD SWAP1 PUSH2 0x100 EXP SWAP1 DIV PUSH20 0xFFFFFFFFFFFFFFFFFFFFFFFFFFFFFFFFFFFFFFFF AND PUSH20 0xFFFFFFFFFFFFFFFFFFFFFFFFFFFFFFFFFFFFFFFF AND EQ PUSH2 0x1DF8 JUMPI PUSH0 DUP9 DUP7 DUP5 DUP5 PUSH1 0xFF AND DUP2 SLOAD DUP2 LT PUSH2 0x1D16 JUMPI PUSH2 0x1D15 PUSH2 0x3278 JUMP JUMPDEST JUMPDEST SWAP1 PUSH0 MSTORE PUSH1 0x20 PUSH0 KECCAK256 SWAP1 PUSH1 0x2 MUL ADD PUSH1 0x1 ADD SLOAD PUSH2 0x1D30 SWAP2 SWAP1 PUSH2 0x37EF JUMP JUMPDEST PUSH2 0x1D3A SWAP2 SWAP1 PUSH2 0x3640 JUMP JUMPDEST SWAP1 POP DUP11 PUSH20 0xFFFFFFFFFFFFFFFFFFFFFFFFFFFFFFFFFFFFFFFF AND PUSH4 0xA9059CBB DUP6 DUP4 PUSH1 0x40 MLOAD DUP4 PUSH4 0xFFFFFFFF AND PUSH1 0xE0 SHL DUP2 MSTORE PUSH1 0x4 ADD PUSH2 0x1D77 SWAP3 SWAP2 SWAP1 PUSH2 0x36A3 JUMP JUMPDEST PUSH1 0x20 PUSH1 0x40 MLOAD DUP1 DUP4 SUB DUP2 PUSH0 DUP8 GAS CALL ISZERO DUP1 ISZERO PUSH2 0x1D93 JUMPI RETURNDATASIZE PUSH0 DUP1 RETURNDATACOPY RETURNDATASIZE PUSH0 REVERT JUMPDEST POP POP POP POP PUSH1 0x40 MLOAD RETURNDATASIZE PUSH1 0x1F NOT PUSH1 0x1F DUP3 ADD AND DUP3 ADD DUP1 PUSH1 0x40 MSTORE POP DUP2 ADD SWAP1 PUSH2 0x1DB7 SWAP2 SWAP1 PUSH2 0x36F4 JUMP JUMPDEST PUSH2 0x1DF6 JUMPI PUSH1 0x40 MLOAD PUSH32 0x8C379A000000000000000000000000000000000000000000000000000000000 DUP2 MSTORE PUSH1 0x4 ADD PUSH2 0x1DED SWAP1 PUSH2 0x3C08 JUMP JUMPDEST PUSH1 0x40 MLOAD DUP1 SWAP2 SUB SWAP1 REVERT JUMPDEST POP JUMPDEST DUP1 DUP1 PUSH2 0x1E03 SWAP1 PUSH2 0x35EB JUMP JUMPDEST SWAP2 POP POP PUSH2 0x1C78 JUMP JUMPDEST POP POP POP DUP1 DUP1 PUSH1 0x1 ADD SWAP2 POP POP PUSH2 0x1BE4 JUMP JUMPDEST POP PUSH1 0x1 DUP8 PUSH1 0x8 ADD PUSH1 0x15 PUSH2 0x100 EXP DUP2 SLOAD DUP2 PUSH1 0xFF MUL NOT AND SWAP1 DUP4 ISZERO ISZERO MUL OR SWAP1 SSTORE POP DUP9 DUP8 PUSH1 0x8 ADD PUSH1 0x16 PUSH2 0x100 EXP DUP2 SLOAD DUP2 PUSH1 0xFF MUL NOT AND SWAP1 DUP4 PUSH1 0xFF AND MUL OR SWAP1 SSTORE POP DUP10 PUSH32 0x28C9277C6636BF00B5D22B2287C0F37926AE23A6825D5801E10A7183BB69045C DUP11 PUSH1 0x40 MLOAD PUSH2 0x1E86 SWAP2 SWAP1 PUSH2 0x3C26 JUMP JUMPDEST PUSH1 0x40 MLOAD DUP1 SWAP2 SUB SWAP1 LOG2 POP POP POP POP POP POP POP POP POP POP JUMP JUMPDEST PUSH1 0x60 DUP1 PUSH1 0x60 DUP1 PUSH0 DUP1 PUSH1 0x1 SWAP1 POP JUMPDEST PUSH1 0x1 SLOAD DUP2 LT ISZERO PUSH2 0x1F46 JUMPI PUSH0 PUSH1 0x2 PUSH0 DUP4 DUP2 MSTORE PUSH1 0x20 ADD SWAP1 DUP2 MSTORE PUSH1 0x20 ADD PUSH0 KECCAK256 SWAP1 POP DUP1 PUSH1 0x8 ADD PUSH1 0x14 SWAP1 SLOAD SWAP1 PUSH2 0x100 EXP SWAP1 DIV PUSH1 0xFF AND DUP1 ISZERO PUSH2 0x1F24 JUMPI POP PUSH0 DUP2 PUSH1 0x6 ADD PUSH0 DUP11 PUSH20 0xFFFFFFFFFFFFFFFFFFFFFFFFFFFFFFFFFFFFFFFF AND PUSH20 0xFFFFFFFFFFFFFFFFFFFFFFFFFFFFFFFFFFFFFFFF AND DUP2 MSTORE PUSH1 0x20 ADD SWAP1 DUP2 MSTORE PUSH1 0x20 ADD PUSH0 KECCAK256 DUP1 SLOAD SWAP1 POP GT JUMPDEST ISZERO PUSH2 0x1F38 JUMPI DUP3 DUP1 PUSH2 0x1F34 SWAP1 PUSH2 0x2EA5 JUMP JUMPDEST SWAP4 POP POP JUMPDEST POP DUP1 DUP1 PUSH1 0x1 ADD SWAP2 POP POP PUSH2 0x1EA7 JUMP JUMPDEST POP DUP1 PUSH8 0xFFFFFFFFFFFFFFFF DUP2 GT ISZERO PUSH2 0x1F61 JUMPI PUSH2 0x1F60 PUSH2 0x2F84 JUMP JUMPDEST JUMPDEST PUSH1 0x40 MLOAD SWAP1 DUP1 DUP3 MSTORE DUP1 PUSH1 0x20 MUL PUSH1 0x20 ADD DUP3 ADD PUSH1 0x40 MSTORE DUP1 ISZERO PUSH2 0x1F8F JUMPI DUP2 PUSH1 0x20 ADD PUSH1 0x20 DUP3 MUL DUP1 CALLDATASIZE DUP4 CALLDATACOPY DUP1 DUP3 ADD SWAP2 POP POP SWAP1 POP JUMPDEST POP SWAP5 POP DUP1 PUSH8 0xFFFFFFFFFFFFFFFF DUP2 GT ISZERO PUSH2 0x1FAC JUMPI PUSH2 0x1FAB PUSH2 0x2F84 JUMP JUMPDEST JUMPDEST PUSH1 0x40 MLOAD SWAP1 DUP1 DUP3 MSTORE DUP1 PUSH1 0x20 MUL PUSH1 0x20 ADD DUP3 ADD PUSH1 0x40 MSTORE DUP1 ISZERO PUSH2 0x1FDF JUMPI DUP2 PUSH1 0x20 ADD JUMPDEST PUSH1 0x60 DUP2 MSTORE PUSH1 0x20 ADD SWAP1 PUSH1 0x1 SWAP1 SUB SWAP1 DUP2 PUSH2 0x1FCA JUMPI SWAP1 POP JUMPDEST POP SWAP4 POP DUP1 PUSH8 0xFFFFFFFFFFFFFFFF DUP2 GT ISZERO PUSH2 0x1FFC JUMPI PUSH2 0x1FFB PUSH2 0x2F84 JUMP JUMPDEST JUMPDEST PUSH1 0x40 MLOAD SWAP1 DUP1 DUP3 MSTORE DUP1 PUSH1 0x20 MUL PUSH1 0x20 ADD DUP3 ADD PUSH1 0x40 MSTORE DUP1 ISZERO PUSH2 0x202A JUMPI DUP2 PUSH1 0x20 ADD PUSH1 0x20 DUP3 MUL DUP1 CALLDATASIZE DUP4 CALLDATACOPY DUP1 DUP3 ADD SWAP2 POP POP SWAP1 POP JUMPDEST POP SWAP3 POP DUP1 PUSH8 0xFFFFFFFFFFFFFFFF DUP2 GT ISZERO PUSH2 0x2047 JUMPI PUSH2 0x2046 PUSH2 0x2F84 JUMP JUMPDEST JUMPDEST PUSH1 0x40 MLOAD SWAP1 DUP1 DUP3 MSTORE DUP1 PUSH1 0x20 MUL PUSH1 0x20 ADD DUP3 ADD PUSH1 0x40 MSTORE DUP1 ISZERO PUSH2 0x207A JUMPI DUP2 PUSH1 0x20 ADD JUMPDEST PUSH1 0x60 DUP2 MSTORE PUSH1 0x20 ADD SWAP1 PUSH1 0x1 SWAP1 SUB SWAP1 DUP2 PUSH2 0x2065 JUMPI SWAP1 POP JUMPDEST POP SWAP2 POP PUSH0 DUP1 PUSH1 0x1 SWAP1 POP JUMPDEST PUSH1 0x1 SLOAD DUP2 LT ISZERO PUSH2 0x238D JUMPI PUSH0 PUSH1 0x2 PUSH0 DUP4 DUP2 MSTORE PUSH1 0x20 ADD SWAP1 DUP2 MSTORE PUSH1 0x20 ADD PUSH0 KECCAK256 SWAP1 POP DUP1 PUSH1 0x8 ADD PUSH1 0x14 SWAP1 SLOAD SWAP1 PUSH2 0x100 EXP SWAP1 DIV PUSH1 0xFF AND DUP1 ISZERO PUSH2 0x2101 JUMPI POP PUSH0 DUP2 PUSH1 0x6 ADD PUSH0 DUP12 PUSH20 0xFFFFFFFFFFFFFFFFFFFFFFFFFFFFFFFFFFFFFFFF AND PUSH20 0xFFFFFFFFFFFFFFFFFFFFFFFFFFFFFFFFFFFFFFFF AND DUP2 MSTORE PUSH1 0x20 ADD SWAP1 DUP2 MSTORE PUSH1 0x20 ADD PUSH0 KECCAK256 DUP1 SLOAD SWAP1 POP GT JUMPDEST ISZERO PUSH2 0x237F JUMPI DUP1 PUSH0 ADD SLOAD DUP9 DUP5 DUP2 MLOAD DUP2 LT PUSH2 0x211D JUMPI PUSH2 0x211C PUSH2 0x3278 JUMP JUMPDEST JUMPDEST PUSH1 0x20 MUL PUSH1 0x20 ADD ADD DUP2 DUP2 MSTORE POP POP DUP1 PUSH1 0x1 ADD DUP1 SLOAD PUSH2 0x2138 SWAP1 PUSH2 0x2FDE JUMP JUMPDEST DUP1 PUSH1 0x1F ADD PUSH1 0x20 DUP1 SWAP2 DIV MUL PUSH1 0x20 ADD PUSH1 0x40 MLOAD SWAP1 DUP2 ADD PUSH1 0x40 MSTORE DUP1 SWAP3 SWAP2 SWAP1 DUP2 DUP2 MSTORE PUSH1 0x20 ADD DUP3 DUP1 SLOAD PUSH2 0x2164 SWAP1 PUSH2 0x2FDE JUMP JUMPDEST DUP1 ISZERO PUSH2 0x21AF JUMPI DUP1 PUSH1 0x1F LT PUSH2 0x2186 JUMPI PUSH2 0x100 DUP1 DUP4 SLOAD DIV MUL DUP4 MSTORE SWAP2 PUSH1 0x20 ADD SWAP2 PUSH2 0x21AF JUMP JUMPDEST DUP3 ADD SWAP2 SWAP1 PUSH0 MSTORE PUSH1 0x20 PUSH0 KECCAK256 SWAP1 JUMPDEST DUP2 SLOAD DUP2 MSTORE SWAP1 PUSH1 0x1 ADD SWAP1 PUSH1 0x20 ADD DUP1 DUP4 GT PUSH2 0x2192 JUMPI DUP3 SWAP1 SUB PUSH1 0x1F AND DUP3 ADD SWAP2 JUMPDEST POP POP POP POP POP DUP8 DUP5 DUP2 MLOAD DUP2 LT PUSH2 0x21C7 JUMPI PUSH2 0x21C6 PUSH2 0x3278 JUMP JUMPDEST JUMPDEST PUSH1 0x20 MUL PUSH1 0x20 ADD ADD DUP2 SWAP1 MSTORE POP PUSH0 DUP1 DUP3 PUSH1 0x6 ADD PUSH0 DUP13 PUSH20 0xFFFFFFFFFFFFFFFFFFFFFFFFFFFFFFFFFFFFFFFF AND PUSH20 0xFFFFFFFFFFFFFFFFFFFFFFFFFFFFFFFFFFFFFFFF AND DUP2 MSTORE PUSH1 0x20 ADD SWAP1 DUP2 MSTORE PUSH1 0x20 ADD PUSH0 KECCAK256 SWAP1 POP PUSH0 JUMPDEST DUP2 DUP1 SLOAD SWAP1 POP DUP2 LT ISZERO PUSH2 0x2260 JUMPI DUP2 DUP2 DUP2 SLOAD DUP2 LT PUSH2 0x2236 JUMPI PUSH2 0x2235 PUSH2 0x3278 JUMP JUMPDEST JUMPDEST SWAP1 PUSH0 MSTORE PUSH1 0x20 PUSH0 KECCAK256 SWAP1 PUSH1 0x2 MUL ADD PUSH1 0x1 ADD SLOAD DUP4 PUSH2 0x2251 SWAP2 SWAP1 PUSH2 0x35B8 JUMP JUMPDEST SWAP3 POP DUP1 DUP1 PUSH1 0x1 ADD SWAP2 POP POP PUSH2 0x2217 JUMP JUMPDEST POP DUP2 DUP9 DUP7 DUP2 MLOAD DUP2 LT PUSH2 0x2275 JUMPI PUSH2 0x2274 PUSH2 0x3278 JUMP JUMPDEST JUMPDEST PUSH1 0x20 MUL PUSH1 0x20 ADD ADD DUP2 DUP2 MSTORE POP POP DUP3 PUSH1 0x2 ADD DUP1 SLOAD DUP1 PUSH1 0x20 MUL PUSH1 0x20 ADD PUSH1 0x40 MLOAD SWAP1 DUP2 ADD PUSH1 0x40 MSTORE DUP1 SWAP3 SWAP2 SWAP1 DUP2 DUP2 MSTORE PUSH1 0x20 ADD PUSH0 SWAP1 JUMPDEST DUP3 DUP3 LT ISZERO PUSH2 0x234C JUMPI DUP4 DUP3 SWAP1 PUSH0 MSTORE PUSH1 0x20 PUSH0 KECCAK256 ADD DUP1 SLOAD PUSH2 0x22C1 SWAP1 PUSH2 0x2FDE JUMP JUMPDEST DUP1 PUSH1 0x1F ADD PUSH1 0x20 DUP1 SWAP2 DIV MUL PUSH1 0x20 ADD PUSH1 0x40 MLOAD SWAP1 DUP2 ADD PUSH1 0x40 MSTORE DUP1 SWAP3 SWAP2 SWAP1 DUP2 DUP2 MSTORE PUSH1 0x20 ADD DUP3 DUP1 SLOAD PUSH2 0x22ED SWAP1 PUSH2 0x2FDE JUMP JUMPDEST DUP1 ISZERO PUSH2 0x2338 JUMPI DUP1 PUSH1 0x1F LT PUSH2 0x230F JUMPI PUSH2 0x100 DUP1 DUP4 SLOAD DIV MUL DUP4 MSTORE SWAP2 PUSH1 0x20 ADD SWAP2 PUSH2 0x2338 JUMP JUMPDEST DUP3 ADD SWAP2 SWAP1 PUSH0 MSTORE PUSH1 0x20 PUSH0 KECCAK256 SWAP1 JUMPDEST DUP2 SLOAD DUP2 MSTORE SWAP1 PUSH1 0x1 ADD SWAP1 PUSH1 0x20 ADD DUP1 DUP4 GT PUSH2 0x231B JUMPI DUP3 SWAP1 SUB PUSH1 0x1F AND DUP3 ADD SWAP2 JUMPDEST POP POP POP POP POP DUP2 MSTORE PUSH1 0x20 ADD SWAP1 PUSH1 0x1 ADD SWAP1 PUSH2 0x22A4 JUMP JUMPDEST POP POP POP POP DUP8 DUP7 DUP2 MLOAD DUP2 LT PUSH2 0x2363 JUMPI PUSH2 0x2362 PUSH2 0x3278 JUMP JUMPDEST JUMPDEST PUSH1 0x20 MUL PUSH1 0x20 ADD ADD DUP2 SWAP1 MSTORE POP DUP5 DUP1 PUSH2 0x2379 SWAP1 PUSH2 0x2EA5 JUMP JUMPDEST SWAP6 POP POP POP POP JUMPDEST POP DUP1 DUP1 PUSH1 0x1 ADD SWAP2 POP POP PUSH2 0x2084 JUMP JUMPDEST POP POP POP SWAP2 SWAP4 POP SWAP2 SWAP4 JUMP JUMPDEST DUP3 DUP1 SLOAD DUP3 DUP3 SSTORE SWAP1 PUSH0 MSTORE PUSH1 0x20 PUSH0 KECCAK256 SWAP1 DUP2 ADD SWAP3 DUP3 ISZERO PUSH2 0x23D1 JUMPI SWAP2 PUSH1 0x20 MUL DUP3 ADD JUMPDEST DUP3 DUP2 GT ISZERO PUSH2 0x23D0 JUMPI DUP3 MLOAD DUP3 SSTORE SWAP2 PUSH1 0x20 ADD SWAP2 SWAP1 PUSH1 0x1 ADD SWAP1 PUSH2 0x23B5 JUMP JUMPDEST JUMPDEST POP SWAP1 POP PUSH2 0x23DE SWAP2 SWAP1 PUSH2 0x23E2 JUMP JUMPDEST POP SWAP1 JUMP JUMPDEST JUMPDEST DUP1 DUP3 GT ISZERO PUSH2 0x23F9 JUMPI PUSH0 DUP2 PUSH0 SWAP1 SSTORE POP PUSH1 0x1 ADD PUSH2 0x23E3 JUMP JUMPDEST POP SWAP1 JUMP JUMPDEST PUSH0 DUP1 REVERT JUMPDEST PUSH0 DUP1 REVERT JUMPDEST PUSH0 DUP1 REVERT JUMPDEST PUSH0 DUP1 REVERT JUMPDEST PUSH0 DUP1 REVERT JUMPDEST PUSH0 DUP1 DUP4 PUSH1 0x1F DUP5 ADD SLT PUSH2 0x2426 JUMPI PUSH2 0x2425 PUSH2 0x2405 JUMP JUMPDEST JUMPDEST DUP3 CALLDATALOAD SWAP1 POP PUSH8 0xFFFFFFFFFFFFFFFF DUP2 GT ISZERO PUSH2 0x2443 JUMPI PUSH2 0x2442 PUSH2 0x2409 JUMP JUMPDEST JUMPDEST PUSH1 0x20 DUP4 ADD SWAP2 POP DUP4 PUSH1 0x1 DUP3 MUL DUP4 ADD GT ISZERO PUSH2 0x245F JUMPI PUSH2 0x245E PUSH2 0x240D JUMP JUMPDEST JUMPDEST SWAP3 POP SWAP3 SWAP1 POP JUMP JUMPDEST PUSH0 PUSH1 0xFF DUP3 AND SWAP1 POP SWAP2 SWAP1 POP JUMP JUMPDEST PUSH2 0x247B DUP2 PUSH2 0x2466 JUMP JUMPDEST DUP2 EQ PUSH2 0x2485 JUMPI PUSH0 DUP1 REVERT JUMPDEST POP JUMP JUMPDEST PUSH0 DUP2 CALLDATALOAD SWAP1 POP PUSH2 0x2496 DUP2 PUSH2 0x2472 JUMP JUMPDEST SWAP3 SWAP2 POP POP JUMP JUMPDEST PUSH0 DUP1 DUP4 PUSH1 0x1F DUP5 ADD SLT PUSH2 0x24B1 JUMPI PUSH2 0x24B0 PUSH2 0x2405 JUMP JUMPDEST JUMPDEST DUP3 CALLDATALOAD SWAP1 POP PUSH8 0xFFFFFFFFFFFFFFFF DUP2 GT ISZERO PUSH2 0x24CE JUMPI PUSH2 0x24CD PUSH2 0x2409 JUMP JUMPDEST JUMPDEST PUSH1 0x20 DUP4 ADD SWAP2 POP DUP4 PUSH1 0x20 DUP3 MUL DUP4 ADD GT ISZERO PUSH2 0x24EA JUMPI PUSH2 0x24E9 PUSH2 0x240D JUMP JUMPDEST JUMPDEST SWAP3 POP SWAP3 SWAP1 POP JUMP JUMPDEST PUSH0 DUP2 SWAP1 POP SWAP2 SWAP1 POP JUMP JUMPDEST PUSH2 0x2503 DUP2 PUSH2 0x24F1 JUMP JUMPDEST DUP2 EQ PUSH2 0x250D JUMPI PUSH0 DUP1 REVERT JUMPDEST POP JUMP JUMPDEST PUSH0 DUP2 CALLDATALOAD SWAP1 POP PUSH2 0x251E DUP2 PUSH2 0x24FA JUMP JUMPDEST SWAP3 SWAP2 POP POP JUMP JUMPDEST PUSH0 PUSH20 0xFFFFFFFFFFFFFFFFFFFFFFFFFFFFFFFFFFFFFFFF DUP3 AND SWAP1 POP SWAP2 SWAP1 POP JUMP JUMPDEST PUSH0 PUSH2 0x254D DUP3 PUSH2 0x2524 JUMP JUMPDEST SWAP1 POP SWAP2 SWAP1 POP JUMP JUMPDEST PUSH2 0x255D DUP2 PUSH2 0x2543 JUMP JUMPDEST DUP2 EQ PUSH2 0x2567 JUMPI PUSH0 DUP1 REVERT JUMPDEST POP JUMP JUMPDEST PUSH0 DUP2 CALLDATALOAD SWAP1 POP PUSH2 0x2578 DUP2 PUSH2 0x2554 JUMP JUMPDEST SWAP3 SWAP2 POP POP JUMP JUMPDEST PUSH0 DUP1 PUSH0 DUP1 PUSH0 DUP1 PUSH0 PUSH1 0xA0 DUP9 DUP11 SUB SLT ISZERO PUSH2 0x2599 JUMPI PUSH2 0x2598 PUSH2 0x23FD JUMP JUMPDEST JUMPDEST PUSH0 DUP9 ADD CALLDATALOAD PUSH8 0xFFFFFFFFFFFFFFFF DUP2 GT ISZERO PUSH2 0x25B6 JUMPI PUSH2 0x25B5 PUSH2 0x2401 JUMP JUMPDEST JUMPDEST PUSH2 0x25C2 DUP11 DUP3 DUP12 ADD PUSH2 0x2411 JUMP JUMPDEST SWAP8 POP SWAP8 POP POP PUSH1 0x20 PUSH2 0x25D5 DUP11 DUP3 DUP12 ADD PUSH2 0x2488 JUMP JUMPDEST SWAP6 POP POP PUSH1 0x40 DUP9 ADD CALLDATALOAD PUSH8 0xFFFFFFFFFFFFFFFF DUP2 GT ISZERO PUSH2 0x25F6 JUMPI PUSH2 0x25F5 PUSH2 0x2401 JUMP JUMPDEST JUMPDEST PUSH2 0x2602 DUP11 DUP3 DUP12 ADD PUSH2 0x249C JUMP JUMPDEST SWAP5 POP SWAP5 POP POP PUSH1 0x60 PUSH2 0x2615 DUP11 DUP3 DUP12 ADD PUSH2 0x2510 JUMP JUMPDEST SWAP3 POP POP PUSH1 0x80 PUSH2 0x2626 DUP11 DUP3 DUP12 ADD PUSH2 0x256A JUMP JUMPDEST SWAP2 POP POP SWAP3 SWAP6 SWAP9 SWAP2 SWAP5 SWAP8 POP SWAP3 SWAP6 POP JUMP JUMPDEST PUSH0 PUSH1 0x20 DUP3 DUP5 SUB SLT ISZERO PUSH2 0x264A JUMPI PUSH2 0x2649 PUSH2 0x23FD JUMP JUMPDEST JUMPDEST PUSH0 PUSH2 0x2657 DUP5 DUP3 DUP6 ADD PUSH2 0x2510 JUMP JUMPDEST SWAP2 POP POP SWAP3 SWAP2 POP POP JUMP JUMPDEST PUSH2 0x2669 DUP2 PUSH2 0x2543 JUMP JUMPDEST DUP3 MSTORE POP POP JUMP JUMPDEST PUSH0 DUP2 MLOAD SWAP1 POP SWAP2 SWAP1 POP JUMP JUMPDEST PUSH0 DUP3 DUP3 MSTORE PUSH1 0x20 DUP3 ADD SWAP1 POP SWAP3 SWAP2 POP POP JUMP JUMPDEST DUP3 DUP2 DUP4 MCOPY PUSH0 DUP4 DUP4 ADD MSTORE POP POP POP JUMP JUMPDEST PUSH0 PUSH1 0x1F NOT PUSH1 0x1F DUP4 ADD AND SWAP1 POP SWAP2 SWAP1 POP JUMP JUMPDEST PUSH0 PUSH2 0x26B1 DUP3 PUSH2 0x266F JUMP JUMPDEST PUSH2 0x26BB DUP2 DUP6 PUSH2 0x2679 JUMP JUMPDEST SWAP4 POP PUSH2 0x26CB DUP2 DUP6 PUSH1 0x20 DUP7 ADD PUSH2 0x2689 JUMP JUMPDEST PUSH2 0x26D4 DUP2 PUSH2 0x2697 JUMP JUMPDEST DUP5 ADD SWAP2 POP POP SWAP3 SWAP2 POP POP JUMP JUMPDEST PUSH0 DUP2 MLOAD SWAP1 POP SWAP2 SWAP1 POP JUMP JUMPDEST PUSH0 DUP3 DUP3 MSTORE PUSH1 0x20 DUP3 ADD SWAP1 POP SWAP3 SWAP2 POP POP JUMP JUMPDEST PUSH0 DUP2 SWAP1 POP PUSH1 0x20 DUP3 ADD SWAP1 POP SWAP2 SWAP1 POP JUMP JUMPDEST PUSH0 DUP3 DUP3 MSTORE PUSH1 0x20 DUP3 ADD SWAP1 POP SWAP3 SWAP2 POP POP JUMP JUMPDEST PUSH0 PUSH2 0x2722 DUP3 PUSH2 0x266F JUMP JUMPDEST PUSH2 0x272C DUP2 DUP6 PUSH2 0x2708 JUMP JUMPDEST SWAP4 POP PUSH2 0x273C DUP2 DUP6 PUSH1 0x20 DUP7 ADD PUSH2 0x2689 JUMP JUMPDEST PUSH2 0x2745 DUP2 PUSH2 0x2697 JUMP JUMPDEST DUP5 ADD SWAP2 POP POP SWAP3 SWAP2 POP POP JUMP JUMPDEST PUSH0 PUSH2 0x275B DUP4 DUP4 PUSH2 0x2718 JUMP JUMPDEST SWAP1 POP SWAP3 SWAP2 POP POP JUMP JUMPDEST PUSH0 PUSH1 0x20 DUP3 ADD SWAP1 POP SWAP2 SWAP1 POP JUMP JUMPDEST PUSH0 PUSH2 0x2779 DUP3 PUSH2 0x26DF JUMP JUMPDEST PUSH2 0x2783 DUP2 DUP6 PUSH2 0x26E9 JUMP JUMPDEST SWAP4 POP DUP4 PUSH1 0x20 DUP3 MUL DUP6 ADD PUSH2 0x2795 DUP6 PUSH2 0x26F9 JUMP JUMPDEST DUP1 PUSH0 JUMPDEST DUP6 DUP2 LT ISZERO PUSH2 0x27D0 JUMPI DUP5 DUP5 SUB DUP10 MSTORE DUP2 MLOAD PUSH2 0x27B1 DUP6 DUP3 PUSH2 0x2750 JUMP JUMPDEST SWAP5 POP PUSH2 0x27BC DUP4 PUSH2 0x2763 JUMP JUMPDEST SWAP3 POP PUSH1 0x20 DUP11 ADD SWAP10 POP POP PUSH1 0x1 DUP2 ADD SWAP1 POP PUSH2 0x2798 JUMP JUMPDEST POP DUP3 SWAP8 POP DUP8 SWAP6 POP POP POP POP POP POP SWAP3 SWAP2 POP POP JUMP JUMPDEST PUSH0 DUP2 ISZERO ISZERO SWAP1 POP SWAP2 SWAP1 POP JUMP JUMPDEST PUSH2 0x27F6 DUP2 PUSH2 0x27E2 JUMP JUMPDEST DUP3 MSTORE POP POP JUMP JUMPDEST PUSH2 0x2805 DUP2 PUSH2 0x24F1 JUMP JUMPDEST DUP3 MSTORE POP POP JUMP JUMPDEST PUSH0 DUP2 MLOAD SWAP1 POP SWAP2 SWAP1 POP JUMP JUMPDEST PUSH0 DUP3 DUP3 MSTORE PUSH1 0x20 DUP3 ADD SWAP1 POP SWAP3 SWAP2 POP POP JUMP JUMPDEST PUSH0 DUP2 SWAP1 POP PUSH1 0x20 DUP3 ADD SWAP1 POP SWAP2 SWAP1 POP JUMP JUMPDEST PUSH2 0x283D DUP2 PUSH2 0x24F1 JUMP JUMPDEST DUP3 MSTORE POP POP JUMP JUMPDEST PUSH0 PUSH2 0x284E DUP4 DUP4 PUSH2 0x2834 JUMP JUMPDEST PUSH1 0x20 DUP4 ADD SWAP1 POP SWAP3 SWAP2 POP POP JUMP JUMPDEST PUSH0 PUSH1 0x20 DUP3 ADD SWAP1 POP SWAP2 SWAP1 POP JUMP JUMPDEST PUSH0 PUSH2 0x2870 DUP3 PUSH2 0x280B JUMP JUMPDEST PUSH2 0x287A DUP2 DUP6 PUSH2 0x2815 JUMP JUMPDEST SWAP4 POP PUSH2 0x2885 DUP4 PUSH2 0x2825 JUMP JUMPDEST DUP1 PUSH0 JUMPDEST DUP4 DUP2 LT ISZERO PUSH2 0x28B5 JUMPI DUP2 MLOAD PUSH2 0x289C DUP9 DUP3 PUSH2 0x2843 JUMP JUMPDEST SWAP8 POP PUSH2 0x28A7 DUP4 PUSH2 0x285A JUMP JUMPDEST SWAP3 POP POP PUSH1 0x1 DUP2 ADD SWAP1 POP PUSH2 0x2888 JUMP JUMPDEST POP DUP6 SWAP4 POP POP POP POP SWAP3 SWAP2 POP POP JUMP JUMPDEST PUSH2 0x28CB DUP2 PUSH2 0x2466 JUMP JUMPDEST DUP3 MSTORE POP POP JUMP JUMPDEST PUSH0 PUSH2 0x140 DUP3 ADD SWAP1 POP PUSH2 0x28E5 PUSH0 DUP4 ADD DUP14 PUSH2 0x2660 JUMP JUMPDEST DUP2 DUP2 SUB PUSH1 0x20 DUP4 ADD MSTORE PUSH2 0x28F7 DUP2 DUP13 PUSH2 0x26A7 JUMP JUMPDEST SWAP1 POP DUP2 DUP2 SUB PUSH1 0x40 DUP4 ADD MSTORE PUSH2 0x290B DUP2 DUP12 PUSH2 0x276F JUMP JUMPDEST SWAP1 POP PUSH2 0x291A PUSH1 0x60 DUP4 ADD DUP11 PUSH2 0x27ED JUMP JUMPDEST PUSH2 0x2927 PUSH1 0x80 DUP4 ADD DUP10 PUSH2 0x27ED JUMP JUMPDEST PUSH2 0x2934 PUSH1 0xA0 DUP4 ADD DUP9 PUSH2 0x27FC JUMP JUMPDEST DUP2 DUP2 SUB PUSH1 0xC0 DUP4 ADD MSTORE PUSH2 0x2946 DUP2 DUP8 PUSH2 0x2866 JUMP JUMPDEST SWAP1 POP PUSH2 0x2955 PUSH1 0xE0 DUP4 ADD DUP7 PUSH2 0x2660 JUMP JUMPDEST PUSH2 0x2963 PUSH2 0x100 DUP4 ADD DUP6 PUSH2 0x28C2 JUMP JUMPDEST PUSH2 0x2971 PUSH2 0x120 DUP4 ADD DUP5 PUSH2 0x27ED JUMP JUMPDEST SWAP12 SWAP11 POP POP POP POP POP POP POP POP POP POP POP JUMP JUMPDEST PUSH0 PUSH1 0x20 DUP3 ADD SWAP1 POP PUSH2 0x2993 PUSH0 DUP4 ADD DUP5 PUSH2 0x2660 JUMP JUMPDEST SWAP3 SWAP2 POP POP JUMP JUMPDEST PUSH0 DUP1 PUSH0 PUSH1 0x60 DUP5 DUP7 SUB SLT ISZERO PUSH2 0x29B0 JUMPI PUSH2 0x29AF PUSH2 0x23FD JUMP JUMPDEST JUMPDEST PUSH0 PUSH2 0x29BD DUP7 DUP3 DUP8 ADD PUSH2 0x2510 JUMP JUMPDEST SWAP4 POP POP PUSH1 0x20 PUSH2 0x29CE DUP7 DUP3 DUP8 ADD PUSH2 0x2510 JUMP JUMPDEST SWAP3 POP POP PUSH1 0x40 PUSH2 0x29DF DUP7 DUP3 DUP8 ADD PUSH2 0x2488 JUMP JUMPDEST SWAP2 POP POP SWAP3 POP SWAP3 POP SWAP3 JUMP JUMPDEST PUSH0 DUP2 MLOAD SWAP1 POP SWAP2 SWAP1 POP JUMP JUMPDEST PUSH0 DUP3 DUP3 MSTORE PUSH1 0x20 DUP3 ADD SWAP1 POP SWAP3 SWAP2 POP POP JUMP JUMPDEST PUSH0 DUP2 SWAP1 POP PUSH1 0x20 DUP3 ADD SWAP1 POP SWAP2 SWAP1 POP JUMP JUMPDEST PUSH0 DUP3 DUP3 MSTORE PUSH1 0x20 DUP3 ADD SWAP1 POP SWAP3 SWAP2 POP POP JUMP JUMPDEST PUSH0 PUSH2 0x2A2C DUP3 PUSH2 0x26DF JUMP JUMPDEST PUSH2 0x2A36 DUP2 DUP6 PUSH2 0x2A12 JUMP JUMPDEST SWAP4 POP DUP4 PUSH1 0x20 DUP3 MUL DUP6 ADD PUSH2 0x2A48 DUP6 PUSH2 0x26F9 JUMP JUMPDEST DUP1 PUSH0 JUMPDEST DUP6 DUP2 LT ISZERO PUSH2 0x2A83 JUMPI DUP5 DUP5 SUB DUP10 MSTORE DUP2 MLOAD PUSH2 0x2A64 DUP6 DUP3 PUSH2 0x2750 JUMP JUMPDEST SWAP5 POP PUSH2 0x2A6F DUP4 PUSH2 0x2763 JUMP JUMPDEST SWAP3 POP PUSH1 0x20 DUP11 ADD SWAP10 POP POP PUSH1 0x1 DUP2 ADD SWAP1 POP PUSH2 0x2A4B JUMP JUMPDEST POP DUP3 SWAP8 POP DUP8 SWAP6 POP POP POP POP POP POP SWAP3 SWAP2 POP POP JUMP JUMPDEST PUSH0 PUSH2 0x2AA0 DUP4 DUP4 PUSH2 0x2A22 JUMP JUMPDEST SWAP1 POP SWAP3 SWAP2 POP POP JUMP JUMPDEST PUSH0 PUSH1 0x20 DUP3 ADD SWAP1 POP SWAP2 SWAP1 POP JUMP JUMPDEST PUSH0 PUSH2 0x2ABE DUP3 PUSH2 0x29E9 JUMP JUMPDEST PUSH2 0x2AC8 DUP2 DUP6 PUSH2 0x29F3 JUMP JUMPDEST SWAP4 POP DUP4 PUSH1 0x20 DUP3 MUL DUP6 ADD PUSH2 0x2ADA DUP6 PUSH2 0x2A03 JUMP JUMPDEST DUP1 PUSH0 JUMPDEST DUP6 DUP2 LT ISZERO PUSH2 0x2B15 JUMPI DUP5 DUP5 SUB DUP10 MSTORE DUP2 MLOAD PUSH2 0x2AF6 DUP6 DUP3 PUSH2 0x2A95 JUMP JUMPDEST SWAP5 POP PUSH2 0x2B01 DUP4 PUSH2 0x2AA8 JUMP JUMPDEST SWAP3 POP PUSH1 0x20 DUP11 ADD SWAP10 POP POP PUSH1 0x1 DUP2 ADD SWAP1 POP PUSH2 0x2ADD JUMP JUMPDEST POP DUP3 SWAP8 POP DUP8 SWAP6 POP POP POP POP POP POP SWAP3 SWAP2 POP POP JUMP JUMPDEST PUSH0 DUP2 MLOAD SWAP1 POP SWAP2 SWAP1 POP JUMP JUMPDEST PUSH0 DUP3 DUP3 MSTORE PUSH1 0x20 DUP3 ADD SWAP1 POP SWAP3 SWAP2 POP POP JUMP JUMPDEST PUSH0 DUP2 SWAP1 POP PUSH1 0x20 DUP3 ADD SWAP1 POP SWAP2 SWAP1 POP JUMP JUMPDEST PUSH2 0x2B59 DUP2 PUSH2 0x2543 JUMP JUMPDEST DUP3 MSTORE POP POP JUMP JUMPDEST PUSH0 PUSH2 0x2B6A DUP4 DUP4 PUSH2 0x2B50 JUMP JUMPDEST PUSH1 0x20 DUP4 ADD SWAP1 POP SWAP3 SWAP2 POP POP JUMP JUMPDEST PUSH0 PUSH1 0x20 DUP3 ADD SWAP1 POP SWAP2 SWAP1 POP JUMP JUMPDEST PUSH0 PUSH2 0x2B8C DUP3 PUSH2 0x2B27 JUMP JUMPDEST PUSH2 0x2B96 DUP2 DUP6 PUSH2 0x2B31 JUMP JUMPDEST SWAP4 POP PUSH2 0x2BA1 DUP4 PUSH2 0x2B41 JUMP JUMPDEST DUP1 PUSH0 JUMPDEST DUP4 DUP2 LT ISZERO PUSH2 0x2BD1 JUMPI DUP2 MLOAD PUSH2 0x2BB8 DUP9 DUP3 PUSH2 0x2B5F JUMP JUMPDEST SWAP8 POP PUSH2 0x2BC3 DUP4 PUSH2 0x2B76 JUMP JUMPDEST SWAP3 POP POP PUSH1 0x1 DUP2 ADD SWAP1 POP PUSH2 0x2BA4 JUMP JUMPDEST POP DUP6 SWAP4 POP POP POP POP SWAP3 SWAP2 POP POP JUMP JUMPDEST PUSH0 PUSH1 0xA0 DUP3 ADD SWAP1 POP DUP2 DUP2 SUB PUSH0 DUP4 ADD MSTORE PUSH2 0x2BF6 DUP2 DUP9 PUSH2 0x2866 JUMP JUMPDEST SWAP1 POP DUP2 DUP2 SUB PUSH1 0x20 DUP4 ADD MSTORE PUSH2 0x2C0A DUP2 DUP8 PUSH2 0x276F JUMP JUMPDEST SWAP1 POP DUP2 DUP2 SUB PUSH1 0x40 DUP4 ADD MSTORE PUSH2 0x2C1E DUP2 DUP7 PUSH2 0x2AB4 JUMP JUMPDEST SWAP1 POP DUP2 DUP2 SUB PUSH1 0x60 DUP4 ADD MSTORE PUSH2 0x2C32 DUP2 DUP6 PUSH2 0x2866 JUMP JUMPDEST SWAP1 POP DUP2 DUP2 SUB PUSH1 0x80 DUP4 ADD MSTORE PUSH2 0x2C46 DUP2 DUP5 PUSH2 0x2B82 JUMP JUMPDEST SWAP1 POP SWAP7 SWAP6 POP POP POP POP POP POP JUMP JUMPDEST PUSH0 DUP1 PUSH1 0x40 DUP4 DUP6 SUB SLT ISZERO PUSH2 0x2C68 JUMPI PUSH2 0x2C67 PUSH2 0x23FD JUMP JUMPDEST JUMPDEST PUSH0 PUSH2 0x2C75 DUP6 DUP3 DUP7 ADD PUSH2 0x2510 JUMP JUMPDEST SWAP3 POP POP PUSH1 0x20 PUSH2 0x2C86 DUP6 DUP3 DUP7 ADD PUSH2 0x2488 JUMP JUMPDEST SWAP2 POP POP SWAP3 POP SWAP3 SWAP1 POP JUMP JUMPDEST PUSH0 PUSH1 0x20 DUP3 DUP5 SUB SLT ISZERO PUSH2 0x2CA5 JUMPI PUSH2 0x2CA4 PUSH2 0x23FD JUMP JUMPDEST JUMPDEST PUSH0 PUSH2 0x2CB2 DUP5 DUP3 DUP6 ADD PUSH2 0x256A JUMP JUMPDEST SWAP2 POP POP SWAP3 SWAP2 POP POP JUMP JUMPDEST PUSH0 PUSH1 0x80 DUP3 ADD SWAP1 POP DUP2 DUP2 SUB PUSH0 DUP4 ADD MSTORE PUSH2 0x2CD3 DUP2 DUP8 PUSH2 0x2866 JUMP JUMPDEST SWAP1 POP DUP2 DUP2 SUB PUSH1 0x20 DUP4 ADD MSTORE PUSH2 0x2CE7 DUP2 DUP7 PUSH2 0x276F JUMP JUMPDEST SWAP1 POP DUP2 DUP2 SUB PUSH1 0x40 DUP4 ADD MSTORE PUSH2 0x2CFB DUP2 DUP6 PUSH2 0x2866 JUMP JUMPDEST SWAP1 POP DUP2 DUP2 SUB PUSH1 0x60 DUP4 ADD MSTORE PUSH2 0x2D0F DUP2 DUP5 PUSH2 0x2AB4 JUMP JUMPDEST SWAP1 POP SWAP6 SWAP5 POP POP POP POP POP JUMP JUMPDEST PUSH32 0x4E6F7420617574686F72697A65642C206F6E6C79206F776E65722063616E2063 PUSH0 DUP3 ADD MSTORE PUSH32 0x7265617465206265747300000000000000000000000000000000000000000000 PUSH1 0x20 DUP3 ADD MSTORE POP JUMP JUMPDEST PUSH0 PUSH2 0x2D74 PUSH1 0x2A DUP4 PUSH2 0x2679 JUMP JUMPDEST SWAP2 POP PUSH2 0x2D7F DUP3 PUSH2 0x2D1A JUMP JUMPDEST PUSH1 0x40 DUP3 ADD SWAP1 POP SWAP2 SWAP1 POP JUMP JUMPDEST PUSH0 PUSH1 0x20 DUP3 ADD SWAP1 POP DUP2 DUP2 SUB PUSH0 DUP4 ADD MSTORE PUSH2 0x2DA1 DUP2 PUSH2 0x2D68 JUMP JUMPDEST SWAP1 POP SWAP2 SWAP1 POP JUMP JUMPDEST PUSH32 0x496E76616C6964206E756D626572206F66206F7074696F6E7300000000000000 PUSH0 DUP3 ADD MSTORE POP JUMP JUMPDEST PUSH0 PUSH2 0x2DDC PUSH1 0x19 DUP4 PUSH2 0x2679 JUMP JUMPDEST SWAP2 POP PUSH2 0x2DE7 DUP3 PUSH2 0x2DA8 JUMP JUMPDEST PUSH1 0x20 DUP3 ADD SWAP1 POP SWAP2 SWAP1 POP JUMP JUMPDEST PUSH0 PUSH1 0x20 DUP3 ADD SWAP1 POP DUP2 DUP2 SUB PUSH0 DUP4 ADD MSTORE PUSH2 0x2E09 DUP2 PUSH2 0x2DD0 JUMP JUMPDEST SWAP1 POP SWAP2 SWAP1 POP JUMP JUMPDEST PUSH32 0x4F7074696F6E206E616D6573206C656E677468206D69736D6174636800000000 PUSH0 DUP3 ADD MSTORE POP JUMP JUMPDEST PUSH0 PUSH2 0x2E44 PUSH1 0x1C DUP4 PUSH2 0x2679 JUMP JUMPDEST SWAP2 POP PUSH2 0x2E4F DUP3 PUSH2 0x2E10 JUMP JUMPDEST PUSH1 0x20 DUP3 ADD SWAP1 POP SWAP2 SWAP1 POP JUMP JUMPDEST PUSH0 PUSH1 0x20 DUP3 ADD SWAP1 POP DUP2 DUP2 SUB PUSH0 DUP4 ADD MSTORE PUSH2 0x2E71 DUP2 PUSH2 0x2E38 JUMP JUMPDEST SWAP1 POP SWAP2 SWAP1 POP JUMP JUMPDEST PUSH32 0x4E487B7100000000000000000000000000000000000000000000000000000000 PUSH0 MSTORE PUSH1 0x11 PUSH1 0x4 MSTORE PUSH1 0x24 PUSH0 REVERT JUMPDEST PUSH0 PUSH2 0x2EAF DUP3 PUSH2 0x24F1 JUMP JUMPDEST SWAP2 POP PUSH32 0xFFFFFFFFFFFFFFFFFFFFFFFFFFFFFFFFFFFFFFFFFFFFFFFFFFFFFFFFFFFFFFFF DUP3 SUB PUSH2 0x2EE1 JUMPI PUSH2 0x2EE0 PUSH2 0x2E78 JUMP JUMPDEST JUMPDEST PUSH1 0x1 DUP3 ADD SWAP1 POP SWAP2 SWAP1 POP JUMP JUMPDEST PUSH32 0x42657420696E7374616E63652077697468207468697320494420616C72656164 PUSH0 DUP3 ADD MSTORE PUSH32 0x7920657869737473000000000000000000000000000000000000000000000000 PUSH1 0x20 DUP3 ADD MSTORE POP JUMP JUMPDEST PUSH0 PUSH2 0x2F46 PUSH1 0x28 DUP4 PUSH2 0x2679 JUMP JUMPDEST SWAP2 POP PUSH2 0x2F51 DUP3 PUSH2 0x2EEC JUMP JUMPDEST PUSH1 0x40 DUP3 ADD SWAP1 POP SWAP2 SWAP1 POP JUMP JUMPDEST PUSH0 PUSH1 0x20 DUP3 ADD SWAP1 POP DUP2 DUP2 SUB PUSH0 DUP4 ADD MSTORE PUSH2 0x2F73 DUP2 PUSH2 0x2F3A JUMP JUMPDEST SWAP1 POP SWAP2 SWAP1 POP JUMP JUMPDEST PUSH0 DUP3 SWAP1 POP SWAP3 SWAP2 POP POP JUMP JUMPDEST PUSH32 0x4E487B7100000000000000000000000000000000000000000000000000000000 PUSH0 MSTORE PUSH1 0x41 PUSH1 0x4 MSTORE PUSH1 0x24 PUSH0 REVERT JUMPDEST PUSH32 0x4E487B7100000000000000000000000000000000000000000000000000000000 PUSH0 MSTORE PUSH1 0x22 PUSH1 0x4 MSTORE PUSH1 0x24 PUSH0 REVERT JUMPDEST PUSH0 PUSH1 0x2 DUP3 DIV SWAP1 POP PUSH1 0x1 DUP3 AND DUP1 PUSH2 0x2FF5 JUMPI PUSH1 0x7F DUP3 AND SWAP2 POP JUMPDEST PUSH1 0x20 DUP3 LT DUP2 SUB PUSH2 0x3008 JUMPI PUSH2 0x3007 PUSH2 0x2FB1 JUMP JUMPDEST JUMPDEST POP SWAP2 SWAP1 POP JUMP JUMPDEST PUSH0 DUP2 SWAP1 POP DUP2 PUSH0 MSTORE PUSH1 0x20 PUSH0 KECCAK256 SWAP1 POP SWAP2 SWAP1 POP JUMP JUMPDEST PUSH0 PUSH1 0x20 PUSH1 0x1F DUP4 ADD DIV SWAP1 POP SWAP2 SWAP1 POP JUMP JUMPDEST PUSH0 DUP3 DUP3 SHL SWAP1 POP SWAP3 SWAP2 POP POP JUMP JUMPDEST PUSH0 PUSH1 0x8 DUP4 MUL PUSH2 0x306A PUSH32 0xFFFFFFFFFFFFFFFFFFFFFFFFFFFFFFFFFFFFFFFFFFFFFFFFFFFFFFFFFFFFFFFF DUP3 PUSH2 0x302F JUMP JUMPDEST PUSH2 0x3074 DUP7 DUP4 PUSH2 0x302F JUMP JUMPDEST SWAP6 POP DUP1 NOT DUP5 AND SWAP4 POP DUP1 DUP7 AND DUP5 OR SWAP3 POP POP POP SWAP4 SWAP3 POP POP POP JUMP JUMPDEST PUSH0 DUP2 SWAP1 POP SWAP2 SWAP1 POP JUMP JUMPDEST PUSH0 PUSH2 0x30AF PUSH2 0x30AA PUSH2 0x30A5 DUP5 PUSH2 0x24F1 JUMP JUMPDEST PUSH2 0x308C JUMP JUMPDEST PUSH2 0x24F1 JUMP JUMPDEST SWAP1 POP SWAP2 SWAP1 POP JUMP JUMPDEST PUSH0 DUP2 SWAP1 POP SWAP2 SWAP1 POP JUMP JUMPDEST PUSH2 0x30C8 DUP4 PUSH2 0x3095 JUMP JUMPDEST PUSH2 0x30DC PUSH2 0x30D4 DUP3 PUSH2 0x30B6 JUMP JUMPDEST DUP5 DUP5 SLOAD PUSH2 0x303B JUMP JUMPDEST DUP3 SSTORE POP POP POP POP JUMP JUMPDEST PUSH0 SWAP1 JUMP JUMPDEST PUSH2 0x30F0 PUSH2 0x30E4 JUMP JUMPDEST PUSH2 0x30FB DUP2 DUP5 DUP5 PUSH2 0x30BF JUMP JUMPDEST POP POP POP JUMP JUMPDEST JUMPDEST DUP2 DUP2 LT ISZERO PUSH2 0x311E JUMPI PUSH2 0x3113 PUSH0 DUP3 PUSH2 0x30E8 JUMP JUMPDEST PUSH1 0x1 DUP2 ADD SWAP1 POP PUSH2 0x3101 JUMP JUMPDEST POP POP JUMP JUMPDEST PUSH1 0x1F DUP3 GT ISZERO PUSH2 0x3163 JUMPI PUSH2 0x3134 DUP2 PUSH2 0x300E JUMP JUMPDEST PUSH2 0x313D DUP5 PUSH2 0x3020 JUMP JUMPDEST DUP2 ADD PUSH1 0x20 DUP6 LT ISZERO PUSH2 0x314C JUMPI DUP2 SWAP1 POP JUMPDEST PUSH2 0x3160 PUSH2 0x3158 DUP6 PUSH2 0x3020 JUMP JUMPDEST DUP4 ADD DUP3 PUSH2 0x3100 JUMP JUMPDEST POP POP JUMPDEST POP POP POP JUMP JUMPDEST PUSH0 DUP3 DUP3 SHR SWAP1 POP SWAP3 SWAP2 POP POP JUMP JUMPDEST PUSH0 PUSH2 0x3183 PUSH0 NOT DUP5 PUSH1 0x8 MUL PUSH2 0x3168 JUMP JUMPDEST NOT DUP1 DUP4 AND SWAP2 POP POP SWAP3 SWAP2 POP POP JUMP JUMPDEST PUSH0 PUSH2 0x319B DUP4 DUP4 PUSH2 0x3174 JUMP JUMPDEST SWAP2 POP DUP3 PUSH1 0x2 MUL DUP3 OR SWAP1 POP SWAP3 SWAP2 POP POP JUMP JUMPDEST PUSH2 0x31B5 DUP4 DUP4 PUSH2 0x2F7A JUMP JUMPDEST PUSH8 0xFFFFFFFFFFFFFFFF DUP2 GT ISZERO PUSH2 0x31CE JUMPI PUSH2 0x31CD PUSH2 0x2F84 JUMP JUMPDEST JUMPDEST PUSH2 0x31D8 DUP3 SLOAD PUSH2 0x2FDE JUMP JUMPDEST PUSH2 0x31E3 DUP3 DUP3 DUP6 PUSH2 0x3122 JUMP JUMPDEST PUSH0 PUSH1 0x1F DUP4 GT PUSH1 0x1 DUP2 EQ PUSH2 0x3210 JUMPI PUSH0 DUP5 ISZERO PUSH2 0x31FE JUMPI DUP3 DUP8 ADD CALLDATALOAD SWAP1 POP JUMPDEST PUSH2 0x3208 DUP6 DUP3 PUSH2 0x3190 JUMP JUMPDEST DUP7 SSTORE POP PUSH2 0x326F JUMP JUMPDEST PUSH1 0x1F NOT DUP5 AND PUSH2 0x321E DUP7 PUSH2 0x300E JUMP JUMPDEST PUSH0 JUMPDEST DUP3 DUP2 LT ISZERO PUSH2 0x3245 JUMPI DUP5 DUP10 ADD CALLDATALOAD DUP3 SSTORE PUSH1 0x1 DUP3 ADD SWAP2 POP PUSH1 0x20 DUP6 ADD SWAP5 POP PUSH1 0x20 DUP2 ADD SWAP1 POP PUSH2 0x3220 JUMP JUMPDEST DUP7 DUP4 LT ISZERO PUSH2 0x3262 JUMPI DUP5 DUP10 ADD CALLDATALOAD PUSH2 0x325E PUSH1 0x1F DUP10 AND DUP3 PUSH2 0x3174 JUMP JUMPDEST DUP4 SSTORE POP JUMPDEST PUSH1 0x1 PUSH1 0x2 DUP9 MUL ADD DUP9 SSTORE POP POP POP JUMPDEST POP POP POP POP POP POP POP JUMP JUMPDEST PUSH32 0x4E487B7100000000000000000000000000000000000000000000000000000000 PUSH0 MSTORE PUSH1 0x32 PUSH1 0x4 MSTORE PUSH1 0x24 PUSH0 REVERT JUMPDEST PUSH0 DUP1 REVERT JUMPDEST PUSH0 DUP1 REVERT JUMPDEST PUSH0 DUP1 REVERT JUMPDEST PUSH0 DUP1 DUP4 CALLDATALOAD PUSH1 0x1 PUSH1 0x20 SUB DUP5 CALLDATASIZE SUB SUB DUP2 SLT PUSH2 0x32CD JUMPI PUSH2 0x32CC PUSH2 0x32A5 JUMP JUMPDEST JUMPDEST DUP1 DUP5 ADD SWAP3 POP DUP3 CALLDATALOAD SWAP2 POP PUSH8 0xFFFFFFFFFFFFFFFF DUP3 GT ISZERO PUSH2 0x32EF JUMPI PUSH2 0x32EE PUSH2 0x32A9 JUMP JUMPDEST JUMPDEST PUSH1 0x20 DUP4 ADD SWAP3 POP PUSH1 0x1 DUP3 MUL CALLDATASIZE SUB DUP4 SGT ISZERO PUSH2 0x330B JUMPI PUSH2 0x330A PUSH2 0x32AD JUMP JUMPDEST JUMPDEST POP SWAP3 POP SWAP3 SWAP1 POP JUMP JUMPDEST DUP3 DUP2 DUP4 CALLDATACOPY PUSH0 DUP4 DUP4 ADD MSTORE POP POP POP JUMP JUMPDEST PUSH0 PUSH2 0x332C DUP4 DUP6 PUSH2 0x2679 JUMP JUMPDEST SWAP4 POP PUSH2 0x3339 DUP4 DUP6 DUP5 PUSH2 0x3313 JUMP JUMPDEST PUSH2 0x3342 DUP4 PUSH2 0x2697 JUMP JUMPDEST DUP5 ADD SWAP1 POP SWAP4 SWAP3 POP POP POP JUMP JUMPDEST PUSH0 DUP2 SWAP1 POP SWAP2 SWAP1 POP JUMP JUMPDEST PUSH0 PUSH2 0x3361 DUP4 DUP6 PUSH2 0x2708 JUMP JUMPDEST SWAP4 POP PUSH2 0x336E DUP4 DUP6 DUP5 PUSH2 0x3313 JUMP JUMPDEST PUSH2 0x3377 DUP4 PUSH2 0x2697 JUMP JUMPDEST DUP5 ADD SWAP1 POP SWAP4 SWAP3 POP POP POP JUMP JUMPDEST PUSH0 PUSH2 0x338E DUP5 DUP5 DUP5 PUSH2 0x3356 JUMP JUMPDEST SWAP1 POP SWAP4 SWAP3 POP POP POP JUMP JUMPDEST PUSH0 DUP1 REVERT JUMPDEST PUSH0 DUP1 REVERT JUMPDEST PUSH0 DUP1 REVERT JUMPDEST PUSH0 DUP1 DUP4 CALLDATALOAD PUSH1 0x1 PUSH1 0x20 SUB DUP5 CALLDATASIZE SUB SUB DUP2 SLT PUSH2 0x33BF JUMPI PUSH2 0x33BE PUSH2 0x339F JUMP JUMPDEST JUMPDEST DUP4 DUP2 ADD SWAP3 POP DUP3 CALLDATALOAD SWAP2 POP PUSH1 0x20 DUP4 ADD SWAP3 POP PUSH8 0xFFFFFFFFFFFFFFFF DUP3 GT ISZERO PUSH2 0x33E7 JUMPI PUSH2 0x33E6 PUSH2 0x3397 JUMP JUMPDEST JUMPDEST PUSH1 0x1 DUP3 MUL CALLDATASIZE SUB DUP4 SGT ISZERO PUSH2 0x33FD JUMPI PUSH2 0x33FC PUSH2 0x339B JUMP JUMPDEST JUMPDEST POP SWAP3 POP SWAP3 SWAP1 POP JUMP JUMPDEST PUSH0 PUSH1 0x20 DUP3 ADD SWAP1 POP SWAP2 SWAP1 POP JUMP JUMPDEST PUSH0 PUSH2 0x341C DUP4 DUP6 PUSH2 0x26E9 JUMP JUMPDEST SWAP4 POP DUP4 PUSH1 0x20 DUP5 MUL DUP6 ADD PUSH2 0x342E DUP5 PUSH2 0x334D JUMP JUMPDEST DUP1 PUSH0 JUMPDEST DUP8 DUP2 LT ISZERO PUSH2 0x3473 JUMPI DUP5 DUP5 SUB DUP10 MSTORE PUSH2 0x3448 DUP3 DUP5 PUSH2 0x33A3 JUMP JUMPDEST PUSH2 0x3453 DUP7 DUP3 DUP5 PUSH2 0x3382 JUMP JUMPDEST SWAP6 POP PUSH2 0x345E DUP5 PUSH2 0x3405 JUMP JUMPDEST SWAP4 POP PUSH1 0x20 DUP12 ADD SWAP11 POP POP POP PUSH1 0x1 DUP2 ADD SWAP1 POP PUSH2 0x3431 JUMP JUMPDEST POP DUP3 SWAP8 POP DUP8 SWAP5 POP POP POP POP POP SWAP4 SWAP3 POP POP POP JUMP JUMPDEST PUSH0 PUSH1 0xA0 DUP3 ADD SWAP1 POP PUSH2 0x3498 PUSH0 DUP4 ADD DUP11 PUSH2 0x2660 JUMP JUMPDEST DUP2 DUP2 SUB PUSH1 0x20 DUP4 ADD MSTORE PUSH2 0x34AB DUP2 DUP9 DUP11 PUSH2 0x3321 JUMP JUMPDEST SWAP1 POP DUP2 DUP2 SUB PUSH1 0x40 DUP4 ADD MSTORE PUSH2 0x34C0 DUP2 DUP7 DUP9 PUSH2 0x3411 JUMP JUMPDEST SWAP1 POP PUSH2 0x34CF PUSH1 0x60 DUP4 ADD DUP6 PUSH2 0x27FC JUMP JUMPDEST PUSH2 0x34DC PUSH1 0x80 DUP4 ADD DUP5 PUSH2 0x2660 JUMP JUMPDEST SWAP9 SWAP8 POP POP POP POP POP POP POP POP JUMP JUMPDEST PUSH32 0x4E6F7420617574686F72697A6564000000000000000000000000000000000000 PUSH0 DUP3 ADD MSTORE POP JUMP JUMPDEST PUSH0 PUSH2 0x351C PUSH1 0xE DUP4 PUSH2 0x2679 JUMP JUMPDEST SWAP2 POP PUSH2 0x3527 DUP3 PUSH2 0x34E8 JUMP JUMPDEST PUSH1 0x20 DUP3 ADD SWAP1 POP SWAP2 SWAP1 POP JUMP JUMPDEST PUSH0 PUSH1 0x20 DUP3 ADD SWAP1 POP DUP2 DUP2 SUB PUSH0 DUP4 ADD MSTORE PUSH2 0x3549 DUP2 PUSH2 0x3510 JUMP JUMPDEST SWAP1 POP SWAP2 SWAP1 POP JUMP JUMPDEST PUSH32 0x42657474696E6720616C7265616479207265736F6C7665640000000000000000 PUSH0 DUP3 ADD MSTORE POP JUMP JUMPDEST PUSH0 PUSH2 0x3584 PUSH1 0x18 DUP4 PUSH2 0x2679 JUMP JUMPDEST SWAP2 POP PUSH2 0x358F DUP3 PUSH2 0x3550 JUMP JUMPDEST PUSH1 0x20 DUP3 ADD SWAP1 POP SWAP2 SWAP1 POP JUMP JUMPDEST PUSH0 PUSH1 0x20 DUP3 ADD SWAP1 POP DUP2 DUP2 SUB PUSH0 DUP4 ADD MSTORE PUSH2 0x35B1 DUP2 PUSH2 0x3578 JUMP JUMPDEST SWAP1 POP SWAP2 SWAP1 POP JUMP JUMPDEST PUSH0 PUSH2 0x35C2 DUP3 PUSH2 0x24F1 JUMP JUMPDEST SWAP2 POP PUSH2 0x35CD DUP4 PUSH2 0x24F1 JUMP JUMPDEST SWAP3 POP DUP3 DUP3 ADD SWAP1 POP DUP1 DUP3 GT ISZERO PUSH2 0x35E5 JUMPI PUSH2 0x35E4 PUSH2 0x2E78 JUMP JUMPDEST JUMPDEST SWAP3 SWAP2 POP POP JUMP JUMPDEST PUSH0 PUSH2 0x35F5 DUP3 PUSH2 0x2466 JUMP JUMPDEST SWAP2 POP PUSH1 0xFF DUP3 SUB PUSH2 0x3608 JUMPI PUSH2 0x3607 PUSH2 0x2E78 JUMP JUMPDEST JUMPDEST PUSH1 0x1 DUP3 ADD SWAP1 POP SWAP2 SWAP1 POP JUMP JUMPDEST PUSH32 0x4E487B7100000000000000000000000000000000000000000000000000000000 PUSH0 MSTORE PUSH1 0x12 PUSH1 0x4 MSTORE PUSH1 0x24 PUSH0 REVERT JUMPDEST PUSH0 PUSH2 0x364A DUP3 PUSH2 0x24F1 JUMP JUMPDEST SWAP2 POP PUSH2 0x3655 DUP4 PUSH2 0x24F1 JUMP JUMPDEST SWAP3 POP DUP3 PUSH2 0x3665 JUMPI PUSH2 0x3664 PUSH2 0x3613 JUMP JUMPDEST JUMPDEST DUP3 DUP3 DIV SWAP1 POP SWAP3 SWAP2 POP POP JUMP JUMPDEST PUSH0 PUSH2 0x367A DUP3 PUSH2 0x24F1 JUMP JUMPDEST SWAP2 POP PUSH2 0x3685 DUP4 PUSH2 0x24F1 JUMP JUMPDEST SWAP3 POP DUP3 DUP3 SUB SWAP1 POP DUP2 DUP2 GT ISZERO PUSH2 0x369D JUMPI PUSH2 0x369C PUSH2 0x2E78 JUMP JUMPDEST JUMPDEST SWAP3 SWAP2 POP POP JUMP JUMPDEST PUSH0 PUSH1 0x40 DUP3 ADD SWAP1 POP PUSH2 0x36B6 PUSH0 DUP4 ADD DUP6 PUSH2 0x2660 JUMP JUMPDEST PUSH2 0x36C3 PUSH1 0x20 DUP4 ADD DUP5 PUSH2 0x27FC JUMP JUMPDEST SWAP4 SWAP3 POP POP POP JUMP JUMPDEST PUSH2 0x36D3 DUP2 PUSH2 0x27E2 JUMP JUMPDEST DUP2 EQ PUSH2 0x36DD JUMPI PUSH0 DUP1 REVERT JUMPDEST POP JUMP JUMPDEST PUSH0 DUP2 MLOAD SWAP1 POP PUSH2 0x36EE DUP2 PUSH2 0x36CA JUMP JUMPDEST SWAP3 SWAP2 POP POP JUMP JUMPDEST PUSH0 PUSH1 0x20 DUP3 DUP5 SUB SLT ISZERO PUSH2 0x3709 JUMPI PUSH2 0x3708 PUSH2 0x23FD JUMP JUMPDEST JUMPDEST PUSH0 PUSH2 0x3716 DUP5 DUP3 DUP6 ADD PUSH2 0x36E0 JUMP JUMPDEST SWAP2 POP POP SWAP3 SWAP2 POP POP JUMP JUMPDEST PUSH32 0x466565207472616E73666572206661696C656400000000000000000000000000 PUSH0 DUP3 ADD MSTORE POP JUMP JUMPDEST PUSH0 PUSH2 0x3753 PUSH1 0x13 DUP4 PUSH2 0x2679 JUMP JUMPDEST SWAP2 POP PUSH2 0x375E DUP3 PUSH2 0x371F JUMP JUMPDEST PUSH1 0x20 DUP3 ADD SWAP1 POP SWAP2 SWAP1 POP JUMP JUMPDEST PUSH0 PUSH1 0x20 DUP3 ADD SWAP1 POP DUP2 DUP2 SUB PUSH0 DUP4 ADD MSTORE PUSH2 0x3780 DUP2 PUSH2 0x3747 JUMP JUMPDEST SWAP1 POP SWAP2 SWAP1 POP JUMP JUMPDEST PUSH32 0x43726561746F7220666565207472616E73666572206661696C65640000000000 PUSH0 DUP3 ADD MSTORE POP JUMP JUMPDEST PUSH0 PUSH2 0x37BB PUSH1 0x1B DUP4 PUSH2 0x2679 JUMP JUMPDEST SWAP2 POP PUSH2 0x37C6 DUP3 PUSH2 0x3787 JUMP JUMPDEST PUSH1 0x20 DUP3 ADD SWAP1 POP SWAP2 SWAP1 POP JUMP JUMPDEST PUSH0 PUSH1 0x20 DUP3 ADD SWAP1 POP DUP2 DUP2 SUB PUSH0 DUP4 ADD MSTORE PUSH2 0x37E8 DUP2 PUSH2 0x37AF JUMP JUMPDEST SWAP1 POP SWAP2 SWAP1 POP JUMP JUMPDEST PUSH0 PUSH2 0x37F9 DUP3 PUSH2 0x24F1 JUMP JUMPDEST SWAP2 POP PUSH2 0x3804 DUP4 PUSH2 0x24F1 JUMP JUMPDEST SWAP3 POP DUP3 DUP3 MUL PUSH2 0x3812 DUP2 PUSH2 0x24F1 JUMP JUMPDEST SWAP2 POP DUP3 DUP3 DIV DUP5 EQ DUP4 ISZERO OR PUSH2 0x3829 JUMPI PUSH2 0x3828 PUSH2 0x2E78 JUMP JUMPDEST JUMPDEST POP SWAP3 SWAP2 POP POP JUMP JUMPDEST PUSH32 0x426574746F72207472616E73666572206661696C656400000000000000000000 PUSH0 DUP3 ADD MSTORE POP JUMP JUMPDEST PUSH0 PUSH2 0x3864 PUSH1 0x16 DUP4 PUSH2 0x2679 JUMP JUMPDEST SWAP2 POP PUSH2 0x386F DUP3 PUSH2 0x3830 JUMP JUMPDEST PUSH1 0x20 DUP3 ADD SWAP1 POP SWAP2 SWAP1 POP JUMP JUMPDEST PUSH0 PUSH1 0x20 DUP3 ADD SWAP1 POP DUP2 DUP2 SUB PUSH0 DUP4 ADD MSTORE PUSH2 0x3891 DUP2 PUSH2 0x3858 JUMP JUMPDEST SWAP1 POP SWAP2 SWAP1 POP JUMP JUMPDEST PUSH32 0x42657474696E6720697320636C6F736564000000000000000000000000000000 PUSH0 DUP3 ADD MSTORE POP JUMP JUMPDEST PUSH0 PUSH2 0x38CC PUSH1 0x11 DUP4 PUSH2 0x2679 JUMP JUMPDEST SWAP2 POP PUSH2 0x38D7 DUP3 PUSH2 0x3898 JUMP JUMPDEST PUSH1 0x20 DUP3 ADD SWAP1 POP SWAP2 SWAP1 POP JUMP JUMPDEST PUSH0 PUSH1 0x20 DUP3 ADD SWAP1 POP DUP2 DUP2 SUB PUSH0 DUP4 ADD MSTORE PUSH2 0x38F9 DUP2 PUSH2 0x38C0 JUMP JUMPDEST SWAP1 POP SWAP2 SWAP1 POP JUMP JUMPDEST PUSH32 0x42657420616D6F756E74206973206C657373207468616E206D696E696D756D00 PUSH0 DUP3 ADD MSTORE POP JUMP JUMPDEST PUSH0 PUSH2 0x3934 PUSH1 0x1F DUP4 PUSH2 0x2679 JUMP JUMPDEST SWAP2 POP PUSH2 0x393F DUP3 PUSH2 0x3900 JUMP JUMPDEST PUSH1 0x20 DUP3 ADD SWAP1 POP SWAP2 SWAP1 POP JUMP JUMPDEST PUSH0 PUSH1 0x20 DUP3 ADD SWAP1 POP DUP2 DUP2 SUB PUSH0 DUP4 ADD MSTORE PUSH2 0x3961 DUP2 PUSH2 0x3928 JUMP JUMPDEST SWAP1 POP SWAP2 SWAP1 POP JUMP JUMPDEST PUSH32 0x496E76616C6964206F7074696F6E000000000000000000000000000000000000 PUSH0 DUP3 ADD MSTORE POP JUMP JUMPDEST PUSH0 PUSH2 0x399C PUSH1 0xE DUP4 PUSH2 0x2679 JUMP JUMPDEST SWAP2 POP PUSH2 0x39A7 DUP3 PUSH2 0x3968 JUMP JUMPDEST PUSH1 0x20 DUP3 ADD SWAP1 POP SWAP2 SWAP1 POP JUMP JUMPDEST PUSH0 PUSH1 0x20 DUP3 ADD SWAP1 POP DUP2 DUP2 SUB PUSH0 DUP4 ADD MSTORE PUSH2 0x39C9 DUP2 PUSH2 0x3990 JUMP JUMPDEST SWAP1 POP SWAP2 SWAP1 POP JUMP JUMPDEST PUSH0 PUSH1 0x60 DUP3 ADD SWAP1 POP PUSH2 0x39E3 PUSH0 DUP4 ADD DUP7 PUSH2 0x2660 JUMP JUMPDEST PUSH2 0x39F0 PUSH1 0x20 DUP4 ADD DUP6 PUSH2 0x2660 JUMP JUMPDEST PUSH2 0x39FD PUSH1 0x40 DUP4 ADD DUP5 PUSH2 0x27FC JUMP JUMPDEST SWAP5 SWAP4 POP POP POP POP JUMP JUMPDEST PUSH32 0x5472616E73666572206661696C65640000000000000000000000000000000000 PUSH0 DUP3 ADD MSTORE POP JUMP JUMPDEST PUSH0 PUSH2 0x3A39 PUSH1 0xF DUP4 PUSH2 0x2679 JUMP JUMPDEST SWAP2 POP PUSH2 0x3A44 DUP3 PUSH2 0x3A05 JUMP JUMPDEST PUSH1 0x20 DUP3 ADD SWAP1 POP SWAP2 SWAP1 POP JUMP JUMPDEST PUSH0 PUSH1 0x20 DUP3 ADD SWAP1 POP DUP2 DUP2 SUB PUSH0 DUP4 ADD MSTORE PUSH2 0x3A66 DUP2 PUSH2 0x3A2D JUMP JUMPDEST SWAP1 POP SWAP2 SWAP1 POP JUMP JUMPDEST PUSH0 PUSH2 0x3A77 DUP3 PUSH2 0x2466 JUMP JUMPDEST SWAP2 POP PUSH2 0x3A82 DUP4 PUSH2 0x2466 JUMP JUMPDEST SWAP3 POP DUP3 DUP3 SUB SWAP1 POP PUSH1 0xFF DUP2 GT ISZERO PUSH2 0x3A9B JUMPI PUSH2 0x3A9A PUSH2 0x2E78 JUMP JUMPDEST JUMPDEST SWAP3 SWAP2 POP POP JUMP JUMPDEST PUSH0 PUSH1 0x40 DUP3 ADD SWAP1 POP PUSH2 0x3AB4 PUSH0 DUP4 ADD DUP6 PUSH2 0x27FC JUMP JUMPDEST PUSH2 0x3AC1 PUSH1 0x20 DUP4 ADD DUP5 PUSH2 0x28C2 JUMP JUMPDEST SWAP4 SWAP3 POP POP POP JUMP JUMPDEST PUSH32 0x496E76616C69642077696E6E696E67206F7074696F6E00000000000000000000 PUSH0 DUP3 ADD MSTORE POP JUMP JUMPDEST PUSH0 PUSH2 0x3AFC PUSH1 0x16 DUP4 PUSH2 0x2679 JUMP JUMPDEST SWAP2 POP PUSH2 0x3B07 DUP3 PUSH2 0x3AC8 JUMP JUMPDEST PUSH1 0x20 DUP3 ADD SWAP1 POP SWAP2 SWAP1 POP JUMP JUMPDEST PUSH0 PUSH1 0x20 DUP3 ADD SWAP1 POP DUP2 DUP2 SUB PUSH0 DUP4 ADD MSTORE PUSH2 0x3B29 DUP2 PUSH2 0x3AF0 JUMP JUMPDEST SWAP1 POP SWAP2 SWAP1 POP JUMP JUMPDEST PUSH32 0x42657474696E67206D75737420626520636C6F73656420616E64206E6F742072 PUSH0 DUP3 ADD MSTORE PUSH32 0x65736F6C76656400000000000000000000000000000000000000000000000000 PUSH1 0x20 DUP3 ADD MSTORE POP JUMP JUMPDEST PUSH0 PUSH2 0x3B8A PUSH1 0x27 DUP4 PUSH2 0x2679 JUMP JUMPDEST SWAP2 POP PUSH2 0x3B95 DUP3 PUSH2 0x3B30 JUMP JUMPDEST PUSH1 0x40 DUP3 ADD SWAP1 POP SWAP2 SWAP1 POP JUMP JUMPDEST PUSH0 PUSH1 0x20 DUP3 ADD SWAP1 POP DUP2 DUP2 SUB PUSH0 DUP4 ADD MSTORE PUSH2 0x3BB7 DUP2 PUSH2 0x3B7E JUMP JUMPDEST SWAP1 POP SWAP2 SWAP1 POP JUMP JUMPDEST PUSH32 0x57696E6E6572207472616E73666572206661696C656400000000000000000000 PUSH0 DUP3 ADD MSTORE POP JUMP JUMPDEST PUSH0 PUSH2 0x3BF2 PUSH1 0x16 DUP4 PUSH2 0x2679 JUMP JUMPDEST SWAP2 POP PUSH2 0x3BFD DUP3 PUSH2 0x3BBE JUMP JUMPDEST PUSH1 0x20 DUP3 ADD SWAP1 POP SWAP2 SWAP1 POP JUMP JUMPDEST PUSH0 PUSH1 0x20 DUP3 ADD SWAP1 POP DUP2 DUP2 SUB PUSH0 DUP4 ADD MSTORE PUSH2 0x3C1F DUP2 PUSH2 0x3BE6 JUMP JUMPDEST SWAP1 POP SWAP2 SWAP1 POP JUMP JUMPDEST PUSH0 PUSH1 0x20 DUP3 ADD SWAP1 POP PUSH2 0x3C39 PUSH0 DUP4 ADD DUP5 PUSH2 0x28C2 JUMP JUMPDEST SWAP3 SWAP2 POP POP JUMP INVALID LOG2 PUSH5 0x6970667358 0x22 SLT KECCAK256 0x2B PUSH23 0x55F46CC2D319E7491AC2AC8CB1F9B0FDF9EF753857B936 DIV SWAP1 SWAP5 0xCF STATICCALL RETURN 0x28 PUSH5 0x736F6C6343 STOP ADDMOD BYTE STOP CALLER "
		},
		"gasEstimates": {
			"creation": {
				"codeDepositCost": "3095400",
				"executionCost": "49781",
				"totalCost": "3145181"
			},
			"external": {
				"cancelBet(uint256)": "infinite",
				"closeBetting(uint256)": "28244",
				"createBetInstance(string,uint8,string[],uint256,address)": "infinite",
				"distributeWinnings(uint256,uint8)": "infinite",
				"getAllOpenBets()": "infinite",
				"getBetInfo(uint256)": "infinite",
				"getOpenBetsByAddress(address)": "infinite",
				"owner()": "2572",
				"placeBet(uint256,uint256,uint8)": "infinite"
			}
		},
		"methodIdentifiers": {
			"cancelBet(uint256)": "357401f5",
			"closeBetting(uint256)": "b4ad06a1",
			"createBetInstance(string,uint8,string[],uint256,address)": "250e5adc",
			"distributeWinnings(uint256,uint8)": "f1368748",
			"getAllOpenBets()": "d65edb4d",
			"getBetInfo(uint256)": "79141f80",
			"getOpenBetsByAddress(address)": "f41408b5",
			"owner()": "8da5cb5b",
			"placeBet(uint256,uint256,uint8)": "9e14427e"
		}
	},
	"abi": [
		{
			"inputs": [],
			"stateMutability": "nonpayable",
			"type": "constructor"
		},
		{
			"anonymous": false,
			"inputs": [
				{
					"indexed": true,
					"internalType": "uint256",
					"name": "betId",
					"type": "uint256"
				}
			],
			"name": "BetCancelled",
			"type": "event"
		},
		{
			"anonymous": false,
			"inputs": [
				{
					"indexed": false,
					"internalType": "address",
					"name": "creator",
					"type": "address"
				},
				{
					"indexed": true,
					"internalType": "uint256",
					"name": "betId",
					"type": "uint256"
				},
				{
					"indexed": false,
					"internalType": "string",
					"name": "title",
					"type": "string"
				},
				{
					"indexed": false,
					"internalType": "string[]",
					"name": "options",
					"type": "string[]"
				},
				{
					"indexed": false,
					"internalType": "uint256",
					"name": "minimumBetAmount",
					"type": "uint256"
				},
				{
					"indexed": false,
					"internalType": "address",
					"name": "tokenAddress",
					"type": "address"
				}
			],
			"name": "BetInstanceCreated",
			"type": "event"
		},
		{
			"anonymous": false,
			"inputs": [
				{
					"indexed": true,
					"internalType": "uint256",
					"name": "betId",
					"type": "uint256"
				},
				{
					"indexed": true,
					"internalType": "address",
					"name": "bettor",
					"type": "address"
				},
				{
					"indexed": false,
					"internalType": "uint256",
					"name": "amount",
					"type": "uint256"
				},
				{
					"indexed": false,
					"internalType": "uint8",
					"name": "option",
					"type": "uint8"
				}
			],
			"name": "BetPlaced",
			"type": "event"
		},
		{
			"anonymous": false,
			"inputs": [
				{
					"indexed": true,
					"internalType": "uint256",
					"name": "betId",
					"type": "uint256"
				}
			],
			"name": "BettingClosed",
			"type": "event"
		},
		{
			"anonymous": false,
			"inputs": [
				{
					"indexed": true,
					"internalType": "uint256",
					"name": "betId",
					"type": "uint256"
				},
				{
					"indexed": false,
					"internalType": "uint8",
					"name": "winningOption",
					"type": "uint8"
				}
			],
			"name": "BettingResolved",
			"type": "event"
		},
		{
			"inputs": [
				{
					"internalType": "uint256",
					"name": "_betId",
					"type": "uint256"
				}
			],
			"name": "cancelBet",
			"outputs": [],
			"stateMutability": "nonpayable",
			"type": "function"
		},
		{
			"inputs": [
				{
					"internalType": "uint256",
					"name": "_betId",
					"type": "uint256"
				}
			],
			"name": "closeBetting",
			"outputs": [],
			"stateMutability": "nonpayable",
			"type": "function"
		},
		{
			"inputs": [
				{
					"internalType": "string",
					"name": "_title",
					"type": "string"
				},
				{
					"internalType": "uint8",
					"name": "_numOptions",
					"type": "uint8"
				},
				{
					"internalType": "string[]",
					"name": "_optionNames",
					"type": "string[]"
				},
				{
					"internalType": "uint256",
					"name": "_minimumBetAmount",
					"type": "uint256"
				},
				{
					"internalType": "address",
					"name": "_tokenAddress",
					"type": "address"
				}
			],
			"name": "createBetInstance",
			"outputs": [],
			"stateMutability": "nonpayable",
			"type": "function"
		},
		{
			"inputs": [
				{
					"internalType": "uint256",
					"name": "_betId",
					"type": "uint256"
				},
				{
					"internalType": "uint8",
					"name": "_winningOption",
					"type": "uint8"
				}
			],
			"name": "distributeWinnings",
			"outputs": [],
			"stateMutability": "nonpayable",
			"type": "function"
		},
		{
			"inputs": [],
			"name": "getAllOpenBets",
			"outputs": [
				{
					"internalType": "uint256[]",
					"name": "openBetIds",
					"type": "uint256[]"
				},
				{
					"internalType": "string[]",
					"name": "titles",
					"type": "string[]"
				},
				{
					"internalType": "string[][]",
					"name": "options",
					"type": "string[][]"
				},
				{
					"internalType": "uint256[]",
					"name": "minimumBetAmounts",
					"type": "uint256[]"
				},
				{
					"internalType": "address[]",
					"name": "creators",
					"type": "address[]"
				}
			],
			"stateMutability": "view",
			"type": "function"
		},
		{
			"inputs": [
				{
					"internalType": "uint256",
					"name": "_betId",
					"type": "uint256"
				}
			],
			"name": "getBetInfo",
			"outputs": [
				{
					"internalType": "address",
					"name": "creator",
					"type": "address"
				},
				{
					"internalType": "string",
					"name": "title",
					"type": "string"
				},
				{
					"internalType": "string[]",
					"name": "options",
					"type": "string[]"
				},
				{
					"internalType": "bool",
					"name": "isOpen",
					"type": "bool"
				},
				{
					"internalType": "bool",
					"name": "isResolved",
					"type": "bool"
				},
				{
					"internalType": "uint256",
					"name": "totalAmountBet",
					"type": "uint256"
				},
				{
					"internalType": "uint256[]",
					"name": "totalAmounts",
					"type": "uint256[]"
				},
				{
					"internalType": "address",
					"name": "tokenAddress",
					"type": "address"
				},
				{
					"internalType": "uint8",
					"name": "winningOption",
					"type": "uint8"
				},
				{
					"internalType": "bool",
					"name": "isCanceled",
					"type": "bool"
				}
			],
			"stateMutability": "view",
			"type": "function"
		},
		{
			"inputs": [
				{
					"internalType": "address",
					"name": "_bettor",
					"type": "address"
				}
			],
			"name": "getOpenBetsByAddress",
			"outputs": [
				{
					"internalType": "uint256[]",
					"name": "openBetIds",
					"type": "uint256[]"
				},
				{
					"internalType": "string[]",
					"name": "titles",
					"type": "string[]"
				},
				{
					"internalType": "uint256[]",
					"name": "amounts",
					"type": "uint256[]"
				},
				{
					"internalType": "string[][]",
					"name": "options",
					"type": "string[][]"
				}
			],
			"stateMutability": "view",
			"type": "function"
		},
		{
			"inputs": [],
			"name": "owner",
			"outputs": [
				{
					"internalType": "address",
					"name": "",
					"type": "address"
				}
			],
			"stateMutability": "view",
			"type": "function"
		},
		{
			"inputs": [
				{
					"internalType": "uint256",
					"name": "_betId",
					"type": "uint256"
				},
				{
					"internalType": "uint256",
					"name": "_amount",
					"type": "uint256"
				},
				{
					"internalType": "uint8",
					"name": "_option",
					"type": "uint8"
				}
			],
			"name": "placeBet",
			"outputs": [],
			"stateMutability": "nonpayable",
			"type": "function"
		}
	]
}